{
  "_format": "hh-sol-artifact-1",
  "contractName": "Leg10nMock",
  "sourceName": "contracts/mocks/Leg10nMock.sol",
  "abi": [
    {
      "inputs": [
        {
          "internalType": "address",
          "name": "turing_",
          "type": "address"
        },
        {
          "internalType": "address",
          "name": "admin_",
          "type": "address"
        },
        {
          "internalType": "int64",
          "name": "tgid_",
          "type": "int64"
        },
        {
          "internalType": "string",
          "name": "public_key_",
          "type": "string"
        }
      ],
      "stateMutability": "nonpayable",
      "type": "constructor"
    },
    {
      "anonymous": false,
      "inputs": [
        {
          "indexed": true,
          "internalType": "address",
          "name": "admin",
          "type": "address"
        }
      ],
      "name": "Initialized",
      "type": "event"
    },
    {
      "anonymous": false,
      "inputs": [
        {
          "indexed": true,
          "internalType": "address",
          "name": "previousOwner",
          "type": "address"
        },
        {
          "indexed": true,
          "internalType": "address",
          "name": "newOwner",
          "type": "address"
        }
      ],
      "name": "OwnershipTransferred",
      "type": "event"
    },
    {
      "anonymous": false,
      "inputs": [
        {
          "indexed": true,
          "internalType": "bytes32",
          "name": "role",
          "type": "bytes32"
        },
        {
          "indexed": true,
          "internalType": "bytes32",
          "name": "previousAdminRole",
          "type": "bytes32"
        },
        {
          "indexed": true,
          "internalType": "bytes32",
          "name": "newAdminRole",
          "type": "bytes32"
        }
      ],
      "name": "RoleAdminChanged",
      "type": "event"
    },
    {
      "anonymous": false,
      "inputs": [
        {
          "indexed": true,
          "internalType": "bytes32",
          "name": "role",
          "type": "bytes32"
        },
        {
          "indexed": true,
          "internalType": "address",
          "name": "account",
          "type": "address"
        },
        {
          "indexed": true,
          "internalType": "address",
          "name": "sender",
          "type": "address"
        }
      ],
      "name": "RoleGranted",
      "type": "event"
    },
    {
      "anonymous": false,
      "inputs": [
        {
          "indexed": true,
          "internalType": "bytes32",
          "name": "role",
          "type": "bytes32"
        },
        {
          "indexed": true,
          "internalType": "address",
          "name": "account",
          "type": "address"
        },
        {
          "indexed": true,
          "internalType": "address",
          "name": "sender",
          "type": "address"
        }
      ],
      "name": "RoleRevoked",
      "type": "event"
    },
    {
      "anonymous": false,
      "inputs": [
        {
          "indexed": false,
          "internalType": "int64",
          "name": "applyerTg",
          "type": "int64"
        },
        {
          "indexed": false,
          "internalType": "address",
          "name": "wallet_address",
          "type": "address"
        },
        {
          "indexed": true,
          "internalType": "address",
          "name": "parent_address",
          "type": "address"
        }
      ],
      "name": "joinRequested",
      "type": "event"
    },
    {
      "anonymous": false,
      "inputs": [
        {
          "indexed": false,
          "internalType": "int64",
          "name": "applyerTg",
          "type": "int64"
        },
        {
          "indexed": false,
          "internalType": "address",
          "name": "wallet_address",
          "type": "address"
        },
        {
          "indexed": true,
          "internalType": "address",
          "name": "parent_address",
          "type": "address"
        }
      ],
      "name": "joinRequestedIndexedTG",
      "type": "event"
    },
    {
      "anonymous": false,
      "inputs": [
        {
          "indexed": false,
          "internalType": "address",
          "name": "high_node",
          "type": "address"
        },
        {
          "indexed": true,
          "internalType": "address",
          "name": "low_node",
          "type": "address"
        },
        {
          "indexed": false,
          "internalType": "bool",
          "name": "pravda",
          "type": "bool"
        }
      ],
      "name": "relationChanged",
      "type": "event"
    },
    {
      "anonymous": false,
      "inputs": [
        {
          "indexed": true,
          "internalType": "int64",
          "name": "applyerTg",
          "type": "int64"
        },
        {
          "indexed": false,
          "internalType": "address",
          "name": "user_address",
          "type": "address"
        },
        {
          "indexed": false,
          "internalType": "address",
          "name": "parent_address",
          "type": "address"
        }
      ],
      "name": "requestAccepted",
      "type": "event"
    },
    {
      "anonymous": false,
      "inputs": [
        {
          "indexed": false,
          "internalType": "int64",
          "name": "applyerTg",
          "type": "int64"
        },
        {
          "indexed": false,
          "internalType": "address",
          "name": "wallet",
          "type": "address"
        }
      ],
      "name": "requestDenied",
      "type": "event"
    },
    {
      "inputs": [
        {
          "internalType": "int64",
          "name": "applyerTg",
          "type": "int64"
        },
        {
          "internalType": "string",
          "name": "parent_name",
          "type": "string"
        }
      ],
      "name": "AcceptJoin",
      "outputs": [],
      "stateMutability": "nonpayable",
      "type": "function"
    },
    {
      "inputs": [
        {
          "internalType": "string",
          "name": "parent_name",
          "type": "string"
        },
        {
          "internalType": "string",
          "name": "child_name",
          "type": "string"
        }
      ],
      "name": "ClearParent",
      "outputs": [],
      "stateMutability": "nonpayable",
      "type": "function"
    },
    {
      "inputs": [],
      "name": "DEFAULT_ADMIN_ROLE",
      "outputs": [
        {
          "internalType": "bytes32",
          "name": "",
          "type": "bytes32"
        }
      ],
      "stateMutability": "view",
      "type": "function"
    },
    {
      "inputs": [
        {
          "internalType": "int64",
          "name": "tgid",
          "type": "int64"
        }
      ],
      "name": "DeclineRequest",
      "outputs": [],
      "stateMutability": "nonpayable",
      "type": "function"
    },
    {
      "inputs": [],
      "name": "GetOwner",
      "outputs": [
        {
          "internalType": "address",
          "name": "",
          "type": "address"
        }
      ],
      "stateMutability": "view",
      "type": "function"
    },
    {
      "inputs": [],
      "name": "GetPassportFee",
      "outputs": [
        {
          "internalType": "uint256",
          "name": "",
          "type": "uint256"
        }
      ],
      "stateMutability": "view",
      "type": "function"
    },
    {
      "inputs": [
        {
          "internalType": "address",
          "name": "user_address",
          "type": "address"
        }
      ],
      "name": "GetPublicKeyByAddress",
      "outputs": [
        {
          "internalType": "string",
          "name": "",
          "type": "string"
        }
      ],
      "stateMutability": "view",
      "type": "function"
    },
    {
      "inputs": [
        {
          "internalType": "address",
          "name": "user_wallet",
          "type": "address"
        }
      ],
      "name": "GetTgIdByAddress",
      "outputs": [
        {
          "internalType": "int64",
          "name": "tgid",
          "type": "int64"
        }
      ],
      "stateMutability": "view",
      "type": "function"
    },
    {
      "inputs": [
        {
          "internalType": "address",
          "name": "user_wallet",
          "type": "address"
        }
      ],
      "name": "GetUserByAddress",
      "outputs": [
        {
          "components": [
            {
              "internalType": "address",
              "name": "userAddress",
              "type": "address"
            },
            {
              "internalType": "int64",
              "name": "tgId",
              "type": "int64"
            },
            {
              "internalType": "bool",
              "name": "valid",
              "type": "bool"
            },
            {
              "internalType": "address",
              "name": "validatorAddress",
              "type": "address"
            },
            {
              "internalType": "string",
              "name": "codeName",
              "type": "string"
            },
            {
              "internalType": "string",
              "name": "public_key",
              "type": "string"
            }
          ],
          "internalType": "struct Leg10n.User",
          "name": "",
          "type": "tuple"
        }
      ],
      "stateMutability": "view",
      "type": "function"
    },
    {
      "inputs": [
        {
          "internalType": "string",
          "name": "user_name_",
          "type": "string"
        }
      ],
      "name": "GetUserByNickName",
      "outputs": [
        {
          "components": [
            {
              "internalType": "address",
              "name": "userAddress",
              "type": "address"
            },
            {
              "internalType": "int64",
              "name": "tgId",
              "type": "int64"
            },
            {
              "internalType": "bool",
              "name": "valid",
              "type": "bool"
            },
            {
              "internalType": "address",
              "name": "validatorAddress",
              "type": "address"
            },
            {
              "internalType": "string",
              "name": "codeName",
              "type": "string"
            },
            {
              "internalType": "string",
              "name": "public_key",
              "type": "string"
            }
          ],
          "internalType": "struct Leg10n.User",
          "name": "",
          "type": "tuple"
        }
      ],
      "stateMutability": "view",
      "type": "function"
    },
    {
      "inputs": [
        {
          "internalType": "int64",
          "name": "tgId_",
          "type": "int64"
        }
      ],
      "name": "GetUserByTgId",
      "outputs": [
        {
          "components": [
            {
              "internalType": "address",
              "name": "userAddress",
              "type": "address"
            },
            {
              "internalType": "int64",
              "name": "tgId",
              "type": "int64"
            },
            {
              "internalType": "bool",
              "name": "valid",
              "type": "bool"
            },
            {
              "internalType": "address",
              "name": "validatorAddress",
              "type": "address"
            },
            {
              "internalType": "string",
              "name": "codeName",
              "type": "string"
            },
            {
              "internalType": "string",
              "name": "public_key",
              "type": "string"
            }
          ],
          "internalType": "struct Leg10n.User",
          "name": "",
          "type": "tuple"
        }
      ],
      "stateMutability": "view",
      "type": "function"
    },
    {
      "inputs": [
        {
          "internalType": "int64",
          "name": "tgId_",
          "type": "int64"
        }
      ],
      "name": "GetUserWalletByID",
      "outputs": [
        {
          "internalType": "address",
          "name": "",
          "type": "address"
        }
      ],
      "stateMutability": "view",
      "type": "function"
    },
    {
      "inputs": [
        {
          "internalType": "string",
          "name": "user_name_",
          "type": "string"
        }
      ],
      "name": "GetWalletByNickName",
      "outputs": [
        {
          "internalType": "address",
          "name": "",
          "type": "address"
        }
      ],
      "stateMutability": "view",
      "type": "function"
    },
    {
      "inputs": [
        {
          "internalType": "int64",
          "name": "applyerTg",
          "type": "int64"
        },
        {
          "internalType": "string",
          "name": "code_name_",
          "type": "string"
        },
        {
          "internalType": "string",
          "name": "parent_name",
          "type": "string"
        },
        {
          "internalType": "string",
          "name": "public_key",
          "type": "string"
        }
      ],
      "name": "RequestJoin",
      "outputs": [],
      "stateMutability": "payable",
      "type": "function"
    },
    {
      "inputs": [
        {
          "internalType": "uint256",
          "name": "passportFee_",
          "type": "uint256"
        }
      ],
      "name": "SetPassportFee",
      "outputs": [],
      "stateMutability": "nonpayable",
      "type": "function"
    },
    {
      "inputs": [
        {
          "internalType": "address",
          "name": "",
          "type": "address"
        },
        {
          "internalType": "address",
          "name": "",
          "type": "address"
        }
      ],
      "name": "chain",
      "outputs": [
        {
          "internalType": "bool",
          "name": "",
          "type": "bool"
        }
      ],
      "stateMutability": "view",
      "type": "function"
    },
    {
      "inputs": [],
      "name": "deleteYourSelf",
      "outputs": [],
      "stateMutability": "nonpayable",
      "type": "function"
    },
    {
      "inputs": [
        {
          "internalType": "address",
          "name": "user_address",
          "type": "address"
        }
      ],
      "name": "devDeleteUser",
      "outputs": [],
      "stateMutability": "nonpayable",
      "type": "function"
    },
    {
      "inputs": [
        {
          "internalType": "address",
          "name": "admin_",
          "type": "address"
        },
        {
          "internalType": "int64",
          "name": "tgid_",
          "type": "int64"
        },
        {
          "internalType": "string",
          "name": "public_key_",
          "type": "string"
        }
      ],
      "name": "devInitAdmin",
      "outputs": [],
      "stateMutability": "nonpayable",
      "type": "function"
    },
    {
      "inputs": [],
      "name": "getModeratorIdentifier",
      "outputs": [
        {
          "internalType": "bytes32",
          "name": "",
          "type": "bytes32"
        }
      ],
      "stateMutability": "pure",
      "type": "function"
    },
    {
      "inputs": [
        {
          "internalType": "bytes32",
          "name": "role",
          "type": "bytes32"
        }
      ],
      "name": "getRoleAdmin",
      "outputs": [
        {
          "internalType": "bytes32",
          "name": "",
          "type": "bytes32"
        }
      ],
      "stateMutability": "view",
      "type": "function"
    },
    {
      "inputs": [
        {
          "internalType": "bytes32",
          "name": "role",
          "type": "bytes32"
        },
        {
          "internalType": "address",
          "name": "account",
          "type": "address"
        }
      ],
      "name": "grantRole",
      "outputs": [],
      "stateMutability": "nonpayable",
      "type": "function"
    },
    {
      "inputs": [
        {
          "internalType": "bytes32",
          "name": "role",
          "type": "bytes32"
        },
        {
          "internalType": "address",
          "name": "account",
          "type": "address"
        }
      ],
      "name": "hasRole",
      "outputs": [
        {
          "internalType": "bool",
          "name": "",
          "type": "bool"
        }
      ],
      "stateMutability": "view",
      "type": "function"
    },
    {
      "inputs": [],
      "name": "moderator",
      "outputs": [
        {
          "internalType": "bytes32",
          "name": "",
          "type": "bytes32"
        }
      ],
      "stateMutability": "view",
      "type": "function"
    },
    {
      "inputs": [],
      "name": "owner",
      "outputs": [
        {
          "internalType": "address",
          "name": "",
          "type": "address"
        }
      ],
      "stateMutability": "view",
      "type": "function"
    },
    {
      "inputs": [],
      "name": "renounceOwnership",
      "outputs": [],
      "stateMutability": "nonpayable",
      "type": "function"
    },
    {
      "inputs": [
        {
          "internalType": "bytes32",
          "name": "role",
          "type": "bytes32"
        },
        {
          "internalType": "address",
          "name": "account",
          "type": "address"
        }
      ],
      "name": "renounceRole",
      "outputs": [],
      "stateMutability": "nonpayable",
      "type": "function"
    },
    {
      "inputs": [
        {
          "internalType": "bytes32",
          "name": "role",
          "type": "bytes32"
        },
        {
          "internalType": "address",
          "name": "account",
          "type": "address"
        }
      ],
      "name": "revokeRole",
      "outputs": [],
      "stateMutability": "nonpayable",
      "type": "function"
    },
    {
      "inputs": [
        {
          "internalType": "bytes4",
          "name": "interfaceId",
          "type": "bytes4"
        }
      ],
      "name": "supportsInterface",
      "outputs": [
        {
          "internalType": "bool",
          "name": "",
          "type": "bool"
        }
      ],
      "stateMutability": "view",
      "type": "function"
    },
    {
      "inputs": [
        {
          "internalType": "address",
          "name": "newOwner",
          "type": "address"
        }
      ],
      "name": "transferOwnership",
      "outputs": [],
      "stateMutability": "nonpayable",
      "type": "function"
    },
    {
      "inputs": [
        {
          "internalType": "int64",
          "name": "tgId",
          "type": "int64"
        },
        {
          "internalType": "address",
          "name": "userAddress",
          "type": "address"
        },
        {
          "internalType": "string",
          "name": "code_name_",
          "type": "string"
        },
        {
          "internalType": "string",
          "name": "parent_name",
          "type": "string"
        }
      ],
      "name": "updateAddress",
      "outputs": [],
      "stateMutability": "nonpayable",
      "type": "function"
    }
  ],
  "bytecode": "0x60806040523480156200001157600080fd5b5060405162005f7638038062005f76833981810160405281019062000037919062000e00565b838383836200005b6200004f6200049060201b60201c565b6200049860201b60201c565b66071afd498d0000600281905550620000796200055c60201b60201c565b600360006101000a81548173ffffffffffffffffffffffffffffffffffffffff021916908373ffffffffffffffffffffffffffffffffffffffff160217905550620000ce6000801b336200058560201b60201c565b620001007fcea62fe6ecc79e221c545bf918f804693c542ead2549e37c2bb9baa66ee2e157336200058560201b60201c565b83600860006101000a81548173ffffffffffffffffffffffffffffffffffffffff021916908373ffffffffffffffffffffffffffffffffffffffff16021790555033600460008460070b60070b815260200190815260200160002060006101000a81548173ffffffffffffffffffffffffffffffffffffffff021916908373ffffffffffffffffffffffffffffffffffffffff160217905550336006604051620001aa9062000eec565b908152602001604051809103902060006101000a81548173ffffffffffffffffffffffffffffffffffffffff021916908373ffffffffffffffffffffffffffffffffffffffff1602179055506040518060c001604052803373ffffffffffffffffffffffffffffffffffffffff1681526020018360070b81526020016001151581526020013373ffffffffffffffffffffffffffffffffffffffff1681526020016040518060400160405280600181526020017f300000000000000000000000000000000000000000000000000000000000000081525081526020016040518060600160405280602c815260200162005f4a602c9139815250600560003373ffffffffffffffffffffffffffffffffffffffff1673ffffffffffffffffffffffffffffffffffffffff16815260200190815260200160002060008201518160000160006101000a81548173ffffffffffffffffffffffffffffffffffffffff021916908373ffffffffffffffffffffffffffffffffffffffff16021790555060208201518160000160146101000a81548167ffffffffffffffff021916908360070b67ffffffffffffffff160217905550604082015181600001601c6101000a81548160ff02191690831515021790555060608201518160010160006101000a81548173ffffffffffffffffffffffffffffffffffffffff021916908373ffffffffffffffffffffffffffffffffffffffff1602179055506080820151816002019081620003d991906200114e565b5060a0820151816003019081620003f191906200114e565b50905050600073ffffffffffffffffffffffffffffffffffffffff168373ffffffffffffffffffffffffffffffffffffffff16148062000434575060008260070b145b156200046e5762000468336104d26040518060600160405280602c815260200162005f4a602c91396200067660201b60201c565b62000482565b620004818383836200067660201b60201c565b5b5050505050505050620012ec565b600033905090565b60008060009054906101000a900473ffffffffffffffffffffffffffffffffffffffff169050816000806101000a81548173ffffffffffffffffffffffffffffffffffffffff021916908373ffffffffffffffffffffffffffffffffffffffff1602179055508173ffffffffffffffffffffffffffffffffffffffff168173ffffffffffffffffffffffffffffffffffffffff167f8be0079c531659141344cd1fd0a4f28419497f9722a3daafe3b4186f6b6457e060405160405180910390a35050565b60008060009054906101000a900473ffffffffffffffffffffffffffffffffffffffff16905090565b62000597828262000b1560201b60201c565b6200067257600180600084815260200190815260200160002060000160008373ffffffffffffffffffffffffffffffffffffffff1673ffffffffffffffffffffffffffffffffffffffff16815260200190815260200160002060006101000a81548160ff021916908315150217905550620006176200049060201b60201c565b73ffffffffffffffffffffffffffffffffffffffff168173ffffffffffffffffffffffffffffffffffffffff16837f2f8788117e7eff1d82e926ec794901d17c78024a50270940304540a733656f0d60405160405180910390a45b5050565b82600460008460070b60070b815260200190815260200160002060006101000a81548173ffffffffffffffffffffffffffffffffffffffff021916908373ffffffffffffffffffffffffffffffffffffffff160217905550826006604051620006df9062001285565b908152602001604051809103902060006101000a81548173ffffffffffffffffffffffffffffffffffffffff021916908373ffffffffffffffffffffffffffffffffffffffff1602179055506040518060c001604052808473ffffffffffffffffffffffffffffffffffffffff1681526020018360070b81526020016001151581526020018473ffffffffffffffffffffffffffffffffffffffff1681526020016040518060400160405280600481526020017f4164616d00000000000000000000000000000000000000000000000000000000815250815260200182815250600560008573ffffffffffffffffffffffffffffffffffffffff1673ffffffffffffffffffffffffffffffffffffffff16815260200190815260200160002060008201518160000160006101000a81548173ffffffffffffffffffffffffffffffffffffffff021916908373ffffffffffffffffffffffffffffffffffffffff16021790555060208201518160000160146101000a81548167ffffffffffffffff021916908360070b67ffffffffffffffff160217905550604082015181600001601c6101000a81548160ff02191690831515021790555060608201518160010160006101000a81548173ffffffffffffffffffffffffffffffffffffffff021916908373ffffffffffffffffffffffffffffffffffffffff1602179055506080820151816002019081620008f591906200114e565b5060a08201518160030190816200090d91906200114e565b509050506001600560008573ffffffffffffffffffffffffffffffffffffffff1673ffffffffffffffffffffffffffffffffffffffff168152602001908152602001600020600001601c6101000a81548160ff02191690831515021790555033600560008573ffffffffffffffffffffffffffffffffffffffff1673ffffffffffffffffffffffffffffffffffffffff16815260200190815260200160002060010160006101000a81548173ffffffffffffffffffffffffffffffffffffffff021916908373ffffffffffffffffffffffffffffffffffffffff160217905550600062000a356040518060400160405280600181526020017f300000000000000000000000000000000000000000000000000000000000000081525062000b8060201b60201c565b90506001600760008373ffffffffffffffffffffffffffffffffffffffff1673ffffffffffffffffffffffffffffffffffffffff16815260200190815260200160002060008673ffffffffffffffffffffffffffffffffffffffff1673ffffffffffffffffffffffffffffffffffffffff16815260200190815260200160002060006101000a81548160ff0219169083151502179055508373ffffffffffffffffffffffffffffffffffffffff167f908408e307fc569b417f6cbec5d5a06f44a0a505ac0479b47d421a4b2fd6a1e660405160405180910390a250505050565b60006001600084815260200190815260200160002060000160008373ffffffffffffffffffffffffffffffffffffffff1673ffffffffffffffffffffffffffffffffffffffff16815260200190815260200160002060009054906101000a900460ff16905092915050565b600060068260405162000b949190620012d3565b908152602001604051809103902060009054906101000a900473ffffffffffffffffffffffffffffffffffffffff169050919050565b6000604051905090565b600080fd5b600080fd5b600073ffffffffffffffffffffffffffffffffffffffff82169050919050565b600062000c0b8262000bde565b9050919050565b62000c1d8162000bfe565b811462000c2957600080fd5b50565b60008151905062000c3d8162000c12565b92915050565b60008160070b9050919050565b62000c5b8162000c43565b811462000c6757600080fd5b50565b60008151905062000c7b8162000c50565b92915050565b600080fd5b600080fd5b6000601f19601f8301169050919050565b7f4e487b7100000000000000000000000000000000000000000000000000000000600052604160045260246000fd5b62000cd68262000c8b565b810181811067ffffffffffffffff8211171562000cf85762000cf762000c9c565b5b80604052505050565b600062000d0d62000bca565b905062000d1b828262000ccb565b919050565b600067ffffffffffffffff82111562000d3e5762000d3d62000c9c565b5b62000d498262000c8b565b9050602081019050919050565b60005b8381101562000d7657808201518184015260208101905062000d59565b60008484015250505050565b600062000d9962000d938462000d20565b62000d01565b90508281526020810184848401111562000db85762000db762000c86565b5b62000dc584828562000d56565b509392505050565b600082601f83011262000de55762000de462000c81565b5b815162000df784826020860162000d82565b91505092915050565b6000806000806080858703121562000e1d5762000e1c62000bd4565b5b600062000e2d8782880162000c2c565b945050602062000e408782880162000c2c565b935050604062000e538782880162000c6a565b925050606085015167ffffffffffffffff81111562000e775762000e7662000bd9565b5b62000e858782880162000dcd565b91505092959194509250565b600081905092915050565b7f3000000000000000000000000000000000000000000000000000000000000000600082015250565b600062000ed460018362000e91565b915062000ee18262000e9c565b600182019050919050565b600062000ef98262000ec5565b9150819050919050565b600081519050919050565b7f4e487b7100000000000000000000000000000000000000000000000000000000600052602260045260246000fd5b6000600282049050600182168062000f5657607f821691505b60208210810362000f6c5762000f6b62000f0e565b5b50919050565b60008190508160005260206000209050919050565b60006020601f8301049050919050565b600082821b905092915050565b60006008830262000fd67fffffffffffffffffffffffffffffffffffffffffffffffffffffffffffffffff8262000f97565b62000fe2868362000f97565b95508019841693508086168417925050509392505050565b6000819050919050565b6000819050919050565b60006200102f62001029620010238462000ffa565b62001004565b62000ffa565b9050919050565b6000819050919050565b6200104b836200100e565b620010636200105a8262001036565b84845462000fa4565b825550505050565b600090565b6200107a6200106b565b6200108781848462001040565b505050565b5b81811015620010af57620010a360008262001070565b6001810190506200108d565b5050565b601f821115620010fe57620010c88162000f72565b620010d38462000f87565b81016020851015620010e3578190505b620010fb620010f28562000f87565b8301826200108c565b50505b505050565b600082821c905092915050565b6000620011236000198460080262001103565b1980831691505092915050565b60006200113e838362001110565b9150826002028217905092915050565b620011598262000f03565b67ffffffffffffffff81111562001175576200117462000c9c565b5b62001181825462000f3d565b6200118e828285620010b3565b600060209050601f831160018114620011c65760008415620011b1578287015190505b620011bd858262001130565b8655506200122d565b601f198416620011d68662000f72565b60005b828110156200120057848901518255600182019150602085019450602081019050620011d9565b868310156200122057848901516200121c601f89168262001110565b8355505b6001600288020188555050505b505050505050565b7f4164616d00000000000000000000000000000000000000000000000000000000600082015250565b60006200126d60048362000e91565b91506200127a8262001235565b600482019050919050565b600062001292826200125e565b9150819050919050565b6000620012a98262000f03565b620012b5818562000e91565b9350620012c781856020860162000d56565b80840191505092915050565b6000620012e182846200129c565b915081905092915050565b614c4e80620012fc6000396000f3fe6080604052600436106101d75760003560e01c806361cabe3711610102578063b44cf60011610095578063d2114e1811610064578063d2114e18146106d2578063d2125bd21461070f578063d547741f14610738578063f2fde38b14610761576101d7565b8063b44cf60014610613578063b785da821461062f578063b932fbfa14610658578063c1cada7814610695576101d7565b80638da5cb5b116100d15780638da5cb5b1461055757806391d1485414610582578063a217fddf146105bf578063b233e5eb146105ea576101d7565b806361cabe37146104af578063679b06be146104ec578063715018a6146105035780637cec446b1461051a576101d7565b8063248a9ca31161017a578063460e6c9c11610149578063460e6c9c146103f357806348dc15611461043057806359f48f0d1461045b5780635d1ce88f14610484576101d7565b8063248a9ca3146103395780632f2ff15d1461037657806336568abe1461039f57806338743904146103c8576101d7565b80630ae50a39116101b65780630ae50a391461026b5780630d48cae8146102965780631892fd78146102d35780632067eac814610310576101d7565b8062d396ed146101dc578063018d3dc91461020557806301ffc9a71461022e575b600080fd5b3480156101e857600080fd5b5061020360048036038101906101fe919061356c565b61078a565b005b34801561021157600080fd5b5061022c600480360381019061022791906136df565b610bf8565b005b34801561023a57600080fd5b50610255600480360381019061025091906137af565b610d76565b60405161026291906137f7565b60405180910390f35b34801561027757600080fd5b50610280610df0565b60405161028d9190613853565b60405180910390f35b3480156102a257600080fd5b506102bd60048036038101906102b8919061386e565b610e1a565b6040516102ca91906139f3565b60405180910390f35b3480156102df57600080fd5b506102fa60048036038101906102f59190613a41565b61108f565b60405161030791906139f3565b60405180910390f35b34801561031c57600080fd5b5061033760048036038101906103329190613a41565b6112f6565b005b34801561034557600080fd5b50610360600480360381019061035b9190613aa4565b611627565b60405161036d9190613ae0565b60405180910390f35b34801561038257600080fd5b5061039d60048036038101906103989190613afb565b611647565b005b3480156103ab57600080fd5b506103c660048036038101906103c19190613afb565b611668565b005b3480156103d457600080fd5b506103dd6116eb565b6040516103ea9190613ae0565b60405180910390f35b3480156103ff57600080fd5b5061041a60048036038101906104159190613b3b565b61170f565b60405161042791906137f7565b60405180910390f35b34801561043c57600080fd5b5061044561173e565b6040516104529190613b94565b60405180910390f35b34801561046757600080fd5b50610482600480360381019061047d9190613baf565b611748565b005b34801561049057600080fd5b5061049961175a565b6040516104a69190613ae0565b60405180910390f35b3480156104bb57600080fd5b506104d660048036038101906104d19190613a41565b611782565b6040516104e39190613c5d565b60405180910390f35b3480156104f857600080fd5b5061050161179d565b005b34801561050f57600080fd5b50610518611844565b005b34801561052657600080fd5b50610541600480360381019061053c919061356c565b611858565b60405161054e9190613853565b60405180910390f35b34801561056357600080fd5b5061056c61189b565b6040516105799190613853565b60405180910390f35b34801561058e57600080fd5b506105a960048036038101906105a49190613afb565b6118c4565b6040516105b691906137f7565b60405180910390f35b3480156105cb57600080fd5b506105d461192f565b6040516105e19190613ae0565b60405180910390f35b3480156105f657600080fd5b50610611600480360381019061060c9190613c78565b611936565b005b61062d60048036038101906106289190613cd4565b611c92565b005b34801561063b57600080fd5b5061065660048036038101906106519190613d8f565b6120d9565b005b34801561066457600080fd5b5061067f600480360381019061067a9190613a41565b6120e9565b60405161068c9190613e48565b60405180910390f35b3480156106a157600080fd5b506106bc60048036038101906106b7919061356c565b61210b565b6040516106c991906139f3565b60405180910390f35b3480156106de57600080fd5b506106f960048036038101906106f4919061386e565b612380565b6040516107069190613853565b60405180910390f35b34801561071b57600080fd5b5061073660048036038101906107319190613e96565b6123c8565b005b34801561074457600080fd5b5061075f600480360381019061075a9190613afb565b6123da565b005b34801561076d57600080fd5b5061078860048036038101906107839190613a41565b6123fb565b005b600061079582611858565b90506000600560008373ffffffffffffffffffffffffffffffffffffffff1673ffffffffffffffffffffffffffffffffffffffff16815260200190815260200160002060020180546107e690613ef2565b80601f016020809104026020016040519081016040528092919081815260200182805461081290613ef2565b801561085f5780601f106108345761010080835404028352916020019161085f565b820191906000526020600020905b81548152906001019060200180831161084257829003601f168201915b5050505050905060001515600560008473ffffffffffffffffffffffffffffffffffffffff1673ffffffffffffffffffffffffffffffffffffffff168152602001908152602001600020600001601c9054906101000a900460ff161515146108fc576040517f08c379a00000000000000000000000000000000000000000000000000000000081526004016108f390613f95565b60405180910390fd5b6000600760003373ffffffffffffffffffffffffffffffffffffffff1673ffffffffffffffffffffffffffffffffffffffff16815260200190815260200160002060008473ffffffffffffffffffffffffffffffffffffffff1673ffffffffffffffffffffffffffffffffffffffff16815260200190815260200160002060009054906101000a900460ff16905060001515811515146109d1576040517f08c379a00000000000000000000000000000000000000000000000000000000081526004016109c890614001565b60405180910390fd5b600560008473ffffffffffffffffffffffffffffffffffffffff1673ffffffffffffffffffffffffffffffffffffffff168152602001908152602001600020600080820160006101000a81549073ffffffffffffffffffffffffffffffffffffffff02191690556000820160146101000a81549067ffffffffffffffff021916905560008201601c6101000a81549060ff02191690556001820160006101000a81549073ffffffffffffffffffffffffffffffffffffffff0219169055600282016000610a9e919061345b565b600382016000610aae919061345b565b5050600460008560070b60070b815260200190815260200160002060006101000a81549073ffffffffffffffffffffffffffffffffffffffff0219169055600682604051610afc919061405d565b908152602001604051809103902060006101000a81549073ffffffffffffffffffffffffffffffffffffffff0219169055600760003373ffffffffffffffffffffffffffffffffffffffff1673ffffffffffffffffffffffffffffffffffffffff16815260200190815260200160002060008473ffffffffffffffffffffffffffffffffffffffff1673ffffffffffffffffffffffffffffffffffffffff16815260200190815260200160002060006101000a81549060ff02191690557f7f25a59d906bf9fb883c74ad54e4b0e924fb0326f2f946caf2875485585d0fbf8484604051610bea929190614074565b60405180910390a150505050565b6000610c0382612380565b90506000610c1084612380565b90503373ffffffffffffffffffffffffffffffffffffffff168273ffffffffffffffffffffffffffffffffffffffff1614610c80576040517f08c379a0000000000000000000000000000000000000000000000000000000008152600401610c779061410f565b60405180910390fd5b6000600560008473ffffffffffffffffffffffffffffffffffffffff1673ffffffffffffffffffffffffffffffffffffffff168152602001908152602001600020600001601c6101000a81548160ff0219169083151502179055506000600760008373ffffffffffffffffffffffffffffffffffffffff1673ffffffffffffffffffffffffffffffffffffffff16815260200190815260200160002060003373ffffffffffffffffffffffffffffffffffffffff1673ffffffffffffffffffffffffffffffffffffffff16815260200190815260200160002060006101000a81548160ff02191690831515021790555050505050565b60007f7965db0b000000000000000000000000000000000000000000000000000000007bffffffffffffffffffffffffffffffffffffffffffffffffffffffff1916827bffffffffffffffffffffffffffffffffffffffffffffffffffffffff19161480610de95750610de88261247e565b5b9050919050565b6000600360009054906101000a900473ffffffffffffffffffffffffffffffffffffffff16905090565b610e2261349b565b6000610e2d83612380565b90506000600560008373ffffffffffffffffffffffffffffffffffffffff1673ffffffffffffffffffffffffffffffffffffffff1681526020019081526020016000206040518060c00160405290816000820160009054906101000a900473ffffffffffffffffffffffffffffffffffffffff1673ffffffffffffffffffffffffffffffffffffffff1673ffffffffffffffffffffffffffffffffffffffff1681526020016000820160149054906101000a900460070b60070b60070b815260200160008201601c9054906101000a900460ff161515151581526020016001820160009054906101000a900473ffffffffffffffffffffffffffffffffffffffff1673ffffffffffffffffffffffffffffffffffffffff1673ffffffffffffffffffffffffffffffffffffffff168152602001600282018054610f6f90613ef2565b80601f0160208091040260200160405190810160405280929190818152602001828054610f9b90613ef2565b8015610fe85780601f10610fbd57610100808354040283529160200191610fe8565b820191906000526020600020905b815481529060010190602001808311610fcb57829003601f168201915b5050505050815260200160038201805461100190613ef2565b80601f016020809104026020016040519081016040528092919081815260200182805461102d90613ef2565b801561107a5780601f1061104f5761010080835404028352916020019161107a565b820191906000526020600020905b81548152906001019060200180831161105d57829003601f168201915b50505050508152505090508092505050919050565b61109761349b565b6000600560008473ffffffffffffffffffffffffffffffffffffffff1673ffffffffffffffffffffffffffffffffffffffff1681526020019081526020016000206040518060c00160405290816000820160009054906101000a900473ffffffffffffffffffffffffffffffffffffffff1673ffffffffffffffffffffffffffffffffffffffff1673ffffffffffffffffffffffffffffffffffffffff1681526020016000820160149054906101000a900460070b60070b60070b815260200160008201601c9054906101000a900460ff161515151581526020016001820160009054906101000a900473ffffffffffffffffffffffffffffffffffffffff1673ffffffffffffffffffffffffffffffffffffffff1673ffffffffffffffffffffffffffffffffffffffff1681526020016002820180546111d790613ef2565b80601f016020809104026020016040519081016040528092919081815260200182805461120390613ef2565b80156112505780601f1061122557610100808354040283529160200191611250565b820191906000526020600020905b81548152906001019060200180831161123357829003601f168201915b5050505050815260200160038201805461126990613ef2565b80601f016020809104026020016040519081016040528092919081815260200182805461129590613ef2565b80156112e25780601f106112b7576101008083540402835291602001916112e2565b820191906000526020600020905b8154815290600101906020018083116112c557829003601f168201915b505050505081525050905080915050919050565b7fcea62fe6ecc79e221c545bf918f804693c542ead2549e37c2bb9baa66ee2e157611320816124e8565b6000600560008473ffffffffffffffffffffffffffffffffffffffff1673ffffffffffffffffffffffffffffffffffffffff16815260200190815260200160002060000160149054906101000a900460070b90506000600560008573ffffffffffffffffffffffffffffffffffffffff1673ffffffffffffffffffffffffffffffffffffffff16815260200190815260200160002060020180546113c390613ef2565b80601f01602080910402602001604051908101604052809291908181526020018280546113ef90613ef2565b801561143c5780601f106114115761010080835404028352916020019161143c565b820191906000526020600020905b81548152906001019060200180831161141f57829003601f168201915b5050505050905060004690506005811461148b576040517f08c379a0000000000000000000000000000000000000000000000000000000008152600401611482906141a1565b60405180910390fd5b600560008673ffffffffffffffffffffffffffffffffffffffff1673ffffffffffffffffffffffffffffffffffffffff168152602001908152602001600020600080820160006101000a81549073ffffffffffffffffffffffffffffffffffffffff02191690556000820160146101000a81549067ffffffffffffffff021916905560008201601c6101000a81549060ff02191690556001820160006101000a81549073ffffffffffffffffffffffffffffffffffffffff0219169055600282016000611558919061345b565b600382016000611568919061345b565b5050600460008460070b60070b815260200190815260200160002060006101000a81549073ffffffffffffffffffffffffffffffffffffffff02191690556006826040516115b6919061405d565b908152602001604051809103902060006101000a81549073ffffffffffffffffffffffffffffffffffffffff02191690557f7f25a59d906bf9fb883c74ad54e4b0e924fb0326f2f946caf2875485585d0fbf8386604051611618929190614074565b60405180910390a15050505050565b600060016000838152602001908152602001600020600101549050919050565b61165082611627565b611659816124e8565b61166383836124fc565b505050565b6116706125dc565b73ffffffffffffffffffffffffffffffffffffffff168173ffffffffffffffffffffffffffffffffffffffff16146116dd576040517f08c379a00000000000000000000000000000000000000000000000000000000081526004016116d490614233565b60405180910390fd5b6116e782826125e4565b5050565b7fcea62fe6ecc79e221c545bf918f804693c542ead2549e37c2bb9baa66ee2e15781565b60076020528160005260406000206020528060005260406000206000915091509054906101000a900460ff1681565b6000600254905090565b611754848484846126c6565b50505050565b60007fcea62fe6ecc79e221c545bf918f804693c542ead2549e37c2bb9baa66ee2e157905090565b60008061178e8361108f565b90508060200151915050919050565b6000600560003373ffffffffffffffffffffffffffffffffffffffff1673ffffffffffffffffffffffffffffffffffffffff168152602001908152602001600020600001601c9054906101000a900460ff1690506000151581151514611838576040517f08c379a000000000000000000000000000000000000000000000000000000000815260040161182f9061429f565b60405180910390fd5b611841336128dd565b50565b61184c612b9a565b6118566000612c18565b565b6000600460008360070b60070b815260200190815260200160002060009054906101000a900473ffffffffffffffffffffffffffffffffffffffff169050919050565b60008060009054906101000a900473ffffffffffffffffffffffffffffffffffffffff16905090565b60006001600084815260200190815260200160002060000160008373ffffffffffffffffffffffffffffffffffffffff1673ffffffffffffffffffffffffffffffffffffffff16815260200190815260200160002060009054906101000a900460ff16905092915050565b6000801b81565b6000600682604051611948919061405d565b908152602001604051809103902060009054906101000a900473ffffffffffffffffffffffffffffffffffffffff1690503373ffffffffffffffffffffffffffffffffffffffff168173ffffffffffffffffffffffffffffffffffffffff16146119e7576040517f08c379a00000000000000000000000000000000000000000000000000000000081526004016119de9061430b565b60405180910390fd5b60006119f284611858565b90506000600760008473ffffffffffffffffffffffffffffffffffffffff1673ffffffffffffffffffffffffffffffffffffffff16815260200190815260200160002060008373ffffffffffffffffffffffffffffffffffffffff1673ffffffffffffffffffffffffffffffffffffffff16815260200190815260200160002060009054906101000a900460ff1690506000151581151514611ac9576040517f08c379a0000000000000000000000000000000000000000000000000000000008152600401611ac090614377565b60405180910390fd5b6001600560008473ffffffffffffffffffffffffffffffffffffffff1673ffffffffffffffffffffffffffffffffffffffff168152602001908152602001600020600001601c6101000a81548160ff02191690831515021790555033600560008473ffffffffffffffffffffffffffffffffffffffff1673ffffffffffffffffffffffffffffffffffffffff16815260200190815260200160002060010160006101000a81548173ffffffffffffffffffffffffffffffffffffffff021916908373ffffffffffffffffffffffffffffffffffffffff1602179055506001600760008573ffffffffffffffffffffffffffffffffffffffff1673ffffffffffffffffffffffffffffffffffffffff16815260200190815260200160002060008473ffffffffffffffffffffffffffffffffffffffff1673ffffffffffffffffffffffffffffffffffffffff16815260200190815260200160002060006101000a81548160ff0219169083151502179055508173ffffffffffffffffffffffffffffffffffffffff167fadbeb0a5d66e2be993428864e5c86f7c8aa562e2c58131d193ac2eeb7443817a846001604051611c83929190614397565b60405180910390a25050505050565b60003390506002543414611cdb576040517f08c379a0000000000000000000000000000000000000000000000000000000008152600401611cd29061440c565b60405180910390fd5b6000600684604051611ced919061405d565b908152602001604051809103902060009054906101000a900473ffffffffffffffffffffffffffffffffffffffff1690506040518060c001604052808373ffffffffffffffffffffffffffffffffffffffff1681526020018760070b81526020016000151581526020018273ffffffffffffffffffffffffffffffffffffffff16815260200186815260200184815250600560003373ffffffffffffffffffffffffffffffffffffffff1673ffffffffffffffffffffffffffffffffffffffff16815260200190815260200160002060008201518160000160006101000a81548173ffffffffffffffffffffffffffffffffffffffff021916908373ffffffffffffffffffffffffffffffffffffffff16021790555060208201518160000160146101000a81548167ffffffffffffffff021916908360070b67ffffffffffffffff160217905550604082015181600001601c6101000a81548160ff02191690831515021790555060608201518160010160006101000a81548173ffffffffffffffffffffffffffffffffffffffff021916908373ffffffffffffffffffffffffffffffffffffffff1602179055506080820151816002019081611eb191906145d8565b5060a0820151816003019081611ec791906145d8565b509050506000600360009054906101000a900473ffffffffffffffffffffffffffffffffffffffff1673ffffffffffffffffffffffffffffffffffffffff16600254604051611f15906146db565b60006040518083038185875af1925050503d8060008114611f52576040519150601f19603f3d011682016040523d82523d6000602084013e611f57565b606091505b5050905080611f9b576040517f08c379a0000000000000000000000000000000000000000000000000000000008152600401611f929061473c565b60405180910390fd5b8173ffffffffffffffffffffffffffffffffffffffff167f217213f52d0ada6519b1710cff4d5e622165afded08327f17577ff3c303713608833604051611fe3929190614074565b60405180910390a28173ffffffffffffffffffffffffffffffffffffffff167f2f9961dc36e79933613fb931d5ca8392c911b25840b07276e17e19961d2282408833604051612033929190614074565b60405180910390a26000600760008473ffffffffffffffffffffffffffffffffffffffff1673ffffffffffffffffffffffffffffffffffffffff16815260200190815260200160002060003373ffffffffffffffffffffffffffffffffffffffff1673ffffffffffffffffffffffffffffffffffffffff16815260200190815260200160002060006101000a81548160ff02191690831515021790555050505050505050565b6120e4838383612cdc565b505050565b606060006120f68361108f565b905060008160a0015190508092505050919050565b61211361349b565b600061211e83611858565b90506000600560008373ffffffffffffffffffffffffffffffffffffffff1673ffffffffffffffffffffffffffffffffffffffff1681526020019081526020016000206040518060c00160405290816000820160009054906101000a900473ffffffffffffffffffffffffffffffffffffffff1673ffffffffffffffffffffffffffffffffffffffff1673ffffffffffffffffffffffffffffffffffffffff1681526020016000820160149054906101000a900460070b60070b60070b815260200160008201601c9054906101000a900460ff161515151581526020016001820160009054906101000a900473ffffffffffffffffffffffffffffffffffffffff1673ffffffffffffffffffffffffffffffffffffffff1673ffffffffffffffffffffffffffffffffffffffff16815260200160028201805461226090613ef2565b80601f016020809104026020016040519081016040528092919081815260200182805461228c90613ef2565b80156122d95780601f106122ae576101008083540402835291602001916122d9565b820191906000526020600020905b8154815290600101906020018083116122bc57829003601f168201915b505050505081526020016003820180546122f290613ef2565b80601f016020809104026020016040519081016040528092919081815260200182805461231e90613ef2565b801561236b5780601f106123405761010080835404028352916020019161236b565b820191906000526020600020905b81548152906001019060200180831161234e57829003601f168201915b50505050508152505090508092505050919050565b6000600682604051612392919061405d565b908152602001604051809103902060009054906101000a900473ffffffffffffffffffffffffffffffffffffffff169050919050565b6123d0612b9a565b8060028190555050565b6123e382611627565b6123ec816124e8565b6123f683836125e4565b505050565b612403612b9a565b600073ffffffffffffffffffffffffffffffffffffffff168173ffffffffffffffffffffffffffffffffffffffff1603612472576040517f08c379a0000000000000000000000000000000000000000000000000000000008152600401612469906147ce565b60405180910390fd5b61247b81612c18565b50565b60007f01ffc9a7000000000000000000000000000000000000000000000000000000007bffffffffffffffffffffffffffffffffffffffffffffffffffffffff1916827bffffffffffffffffffffffffffffffffffffffffffffffffffffffff1916149050919050565b6124f9816124f46125dc565b61316d565b50565b61250682826118c4565b6125d857600180600084815260200190815260200160002060000160008373ffffffffffffffffffffffffffffffffffffffff1673ffffffffffffffffffffffffffffffffffffffff16815260200190815260200160002060006101000a81548160ff02191690831515021790555061257d6125dc565b73ffffffffffffffffffffffffffffffffffffffff168173ffffffffffffffffffffffffffffffffffffffff16837f2f8788117e7eff1d82e926ec794901d17c78024a50270940304540a733656f0d60405160405180910390a45b5050565b600033905090565b6125ee82826118c4565b156126c25760006001600084815260200190815260200160002060000160008373ffffffffffffffffffffffffffffffffffffffff1673ffffffffffffffffffffffffffffffffffffffff16815260200190815260200160002060006101000a81548160ff0219169083151502179055506126676125dc565b73ffffffffffffffffffffffffffffffffffffffff168173ffffffffffffffffffffffffffffffffffffffff16837ff6391f5c32d9c69d2a47ea670b442974b53935d1edc7fd64eb21e047a839171b60405160405180910390a45b5050565b600073ffffffffffffffffffffffffffffffffffffffff16600460008660070b60070b815260200190815260200160002060009054906101000a900473ffffffffffffffffffffffffffffffffffffffff1673ffffffffffffffffffffffffffffffffffffffff161461276e576040517f08c379a000000000000000000000000000000000000000000000000000000000815260040161276590614860565b60405180910390fd5b6000600860009054906101000a900473ffffffffffffffffffffffffffffffffffffffff1673ffffffffffffffffffffffffffffffffffffffff1663a430c74484846040518363ffffffff1660e01b81526004016127cd929190614880565b602060405180830381865afa1580156127ea573d6000803e3d6000fd5b505050506040513d601f19601f8201168201806040525081019061280e91906148e3565b9050600115158115151461282157600080fd5b83600460008760070b60070b815260200190815260200160002060006101000a81548173ffffffffffffffffffffffffffffffffffffffff021916908373ffffffffffffffffffffffffffffffffffffffff1602179055508360068460405161288a919061405d565b908152602001604051809103902060006101000a81548173ffffffffffffffffffffffffffffffffffffffff021916908373ffffffffffffffffffffffffffffffffffffffff1602179055505050505050565b6000600560008373ffffffffffffffffffffffffffffffffffffffff1673ffffffffffffffffffffffffffffffffffffffff16815260200190815260200160002060000160149054906101000a900460070b90506000600560008473ffffffffffffffffffffffffffffffffffffffff1673ffffffffffffffffffffffffffffffffffffffff168152602001908152602001600020600201805461298090613ef2565b80601f01602080910402602001604051908101604052809291908181526020018280546129ac90613ef2565b80156129f95780601f106129ce576101008083540402835291602001916129f9565b820191906000526020600020905b8154815290600101906020018083116129dc57829003601f168201915b50505050509050600560008473ffffffffffffffffffffffffffffffffffffffff1673ffffffffffffffffffffffffffffffffffffffff168152602001908152602001600020600080820160006101000a81549073ffffffffffffffffffffffffffffffffffffffff02191690556000820160146101000a81549067ffffffffffffffff021916905560008201601c6101000a81549060ff02191690556001820160006101000a81549073ffffffffffffffffffffffffffffffffffffffff0219169055600282016000612acd919061345b565b600382016000612add919061345b565b5050600460008360070b60070b815260200190815260200160002060006101000a81549073ffffffffffffffffffffffffffffffffffffffff0219169055600681604051612b2b919061405d565b908152602001604051809103902060006101000a81549073ffffffffffffffffffffffffffffffffffffffff02191690557f7f25a59d906bf9fb883c74ad54e4b0e924fb0326f2f946caf2875485585d0fbf8284604051612b8d929190614074565b60405180910390a1505050565b612ba26125dc565b73ffffffffffffffffffffffffffffffffffffffff16612bc061189b565b73ffffffffffffffffffffffffffffffffffffffff1614612c16576040517f08c379a0000000000000000000000000000000000000000000000000000000008152600401612c0d9061495c565b60405180910390fd5b565b60008060009054906101000a900473ffffffffffffffffffffffffffffffffffffffff169050816000806101000a81548173ffffffffffffffffffffffffffffffffffffffff021916908373ffffffffffffffffffffffffffffffffffffffff1602179055508173ffffffffffffffffffffffffffffffffffffffff168173ffffffffffffffffffffffffffffffffffffffff167f8be0079c531659141344cd1fd0a4f28419497f9722a3daafe3b4186f6b6457e060405160405180910390a35050565b82600460008460070b60070b815260200190815260200160002060006101000a81548173ffffffffffffffffffffffffffffffffffffffff021916908373ffffffffffffffffffffffffffffffffffffffff160217905550826006604051612d43906149c8565b908152602001604051809103902060006101000a81548173ffffffffffffffffffffffffffffffffffffffff021916908373ffffffffffffffffffffffffffffffffffffffff1602179055506040518060c001604052808473ffffffffffffffffffffffffffffffffffffffff1681526020018360070b81526020016001151581526020018473ffffffffffffffffffffffffffffffffffffffff1681526020016040518060400160405280600481526020017f4164616d00000000000000000000000000000000000000000000000000000000815250815260200182815250600560008573ffffffffffffffffffffffffffffffffffffffff1673ffffffffffffffffffffffffffffffffffffffff16815260200190815260200160002060008201518160000160006101000a81548173ffffffffffffffffffffffffffffffffffffffff021916908373ffffffffffffffffffffffffffffffffffffffff16021790555060208201518160000160146101000a81548167ffffffffffffffff021916908360070b67ffffffffffffffff160217905550604082015181600001601c6101000a81548160ff02191690831515021790555060608201518160010160006101000a81548173ffffffffffffffffffffffffffffffffffffffff021916908373ffffffffffffffffffffffffffffffffffffffff1602179055506080820151816002019081612f5791906145d8565b5060a0820151816003019081612f6d91906145d8565b509050506001600560008573ffffffffffffffffffffffffffffffffffffffff1673ffffffffffffffffffffffffffffffffffffffff168152602001908152602001600020600001601c6101000a81548160ff02191690831515021790555033600560008573ffffffffffffffffffffffffffffffffffffffff1673ffffffffffffffffffffffffffffffffffffffff16815260200190815260200160002060010160006101000a81548173ffffffffffffffffffffffffffffffffffffffff021916908373ffffffffffffffffffffffffffffffffffffffff160217905550600061308d6040518060400160405280600181526020017f3000000000000000000000000000000000000000000000000000000000000000815250612380565b90506001600760008373ffffffffffffffffffffffffffffffffffffffff1673ffffffffffffffffffffffffffffffffffffffff16815260200190815260200160002060008673ffffffffffffffffffffffffffffffffffffffff1673ffffffffffffffffffffffffffffffffffffffff16815260200190815260200160002060006101000a81548160ff0219169083151502179055508373ffffffffffffffffffffffffffffffffffffffff167f908408e307fc569b417f6cbec5d5a06f44a0a505ac0479b47d421a4b2fd6a1e660405160405180910390a250505050565b61317782826118c4565b6131ee57613184816131f2565b6131928360001c602061321f565b6040516020016131a3929190614a75565b6040516020818303038152906040526040517f08c379a00000000000000000000000000000000000000000000000000000000081526004016131e59190613e48565b60405180910390fd5b5050565b60606132188273ffffffffffffffffffffffffffffffffffffffff16601460ff1661321f565b9050919050565b6060600060028360026132329190614ade565b61323c9190614b20565b67ffffffffffffffff811115613255576132546135b4565b5b6040519080825280601f01601f1916602001820160405280156132875781602001600182028036833780820191505090505b5090507f3000000000000000000000000000000000000000000000000000000000000000816000815181106132bf576132be614b54565b5b60200101907effffffffffffffffffffffffffffffffffffffffffffffffffffffffffffff1916908160001a9053507f78000000000000000000000000000000000000000000000000000000000000008160018151811061332357613322614b54565b5b60200101907effffffffffffffffffffffffffffffffffffffffffffffffffffffffffffff1916908160001a905350600060018460026133639190614ade565b61336d9190614b20565b90505b600181111561340d577f3031323334353637383961626364656600000000000000000000000000000000600f8616601081106133af576133ae614b54565b5b1a60f81b8282815181106133c6576133c5614b54565b5b60200101907effffffffffffffffffffffffffffffffffffffffffffffffffffffffffffff1916908160001a905350600485901c94508061340690614b83565b9050613370565b5060008414613451576040517f08c379a000000000000000000000000000000000000000000000000000000000815260040161344890614bf8565b60405180910390fd5b8091505092915050565b50805461346790613ef2565b6000825580601f106134795750613498565b601f0160209004906000526020600020908101906134979190613502565b5b50565b6040518060c00160405280600073ffffffffffffffffffffffffffffffffffffffff168152602001600060070b8152602001600015158152602001600073ffffffffffffffffffffffffffffffffffffffff16815260200160608152602001606081525090565b5b8082111561351b576000816000905550600101613503565b5090565b6000604051905090565b600080fd5b600080fd5b60008160070b9050919050565b61354981613533565b811461355457600080fd5b50565b60008135905061356681613540565b92915050565b60006020828403121561358257613581613529565b5b600061359084828501613557565b91505092915050565b600080fd5b600080fd5b6000601f19601f8301169050919050565b7f4e487b7100000000000000000000000000000000000000000000000000000000600052604160045260246000fd5b6135ec826135a3565b810181811067ffffffffffffffff8211171561360b5761360a6135b4565b5b80604052505050565b600061361e61351f565b905061362a82826135e3565b919050565b600067ffffffffffffffff82111561364a576136496135b4565b5b613653826135a3565b9050602081019050919050565b82818337600083830152505050565b600061368261367d8461362f565b613614565b90508281526020810184848401111561369e5761369d61359e565b5b6136a9848285613660565b509392505050565b600082601f8301126136c6576136c5613599565b5b81356136d684826020860161366f565b91505092915050565b600080604083850312156136f6576136f5613529565b5b600083013567ffffffffffffffff8111156137145761371361352e565b5b613720858286016136b1565b925050602083013567ffffffffffffffff8111156137415761374061352e565b5b61374d858286016136b1565b9150509250929050565b60007fffffffff0000000000000000000000000000000000000000000000000000000082169050919050565b61378c81613757565b811461379757600080fd5b50565b6000813590506137a981613783565b92915050565b6000602082840312156137c5576137c4613529565b5b60006137d38482850161379a565b91505092915050565b60008115159050919050565b6137f1816137dc565b82525050565b600060208201905061380c60008301846137e8565b92915050565b600073ffffffffffffffffffffffffffffffffffffffff82169050919050565b600061383d82613812565b9050919050565b61384d81613832565b82525050565b60006020820190506138686000830184613844565b92915050565b60006020828403121561388457613883613529565b5b600082013567ffffffffffffffff8111156138a2576138a161352e565b5b6138ae848285016136b1565b91505092915050565b6138c081613832565b82525050565b6138cf81613533565b82525050565b6138de816137dc565b82525050565b600081519050919050565b600082825260208201905092915050565b60005b8381101561391e578082015181840152602081019050613903565b60008484015250505050565b6000613935826138e4565b61393f81856138ef565b935061394f818560208601613900565b613958816135a3565b840191505092915050565b600060c08301600083015161397b60008601826138b7565b50602083015161398e60208601826138c6565b5060408301516139a160408601826138d5565b5060608301516139b460608601826138b7565b50608083015184820360808601526139cc828261392a565b91505060a083015184820360a08601526139e6828261392a565b9150508091505092915050565b60006020820190508181036000830152613a0d8184613963565b905092915050565b613a1e81613832565b8114613a2957600080fd5b50565b600081359050613a3b81613a15565b92915050565b600060208284031215613a5757613a56613529565b5b6000613a6584828501613a2c565b91505092915050565b6000819050919050565b613a8181613a6e565b8114613a8c57600080fd5b50565b600081359050613a9e81613a78565b92915050565b600060208284031215613aba57613ab9613529565b5b6000613ac884828501613a8f565b91505092915050565b613ada81613a6e565b82525050565b6000602082019050613af56000830184613ad1565b92915050565b60008060408385031215613b1257613b11613529565b5b6000613b2085828601613a8f565b9250506020613b3185828601613a2c565b9150509250929050565b60008060408385031215613b5257613b51613529565b5b6000613b6085828601613a2c565b9250506020613b7185828601613a2c565b9150509250929050565b6000819050919050565b613b8e81613b7b565b82525050565b6000602082019050613ba96000830184613b85565b92915050565b60008060008060808587031215613bc957613bc8613529565b5b6000613bd787828801613557565b9450506020613be887828801613a2c565b935050604085013567ffffffffffffffff811115613c0957613c0861352e565b5b613c15878288016136b1565b925050606085013567ffffffffffffffff811115613c3657613c3561352e565b5b613c42878288016136b1565b91505092959194509250565b613c5781613533565b82525050565b6000602082019050613c726000830184613c4e565b92915050565b60008060408385031215613c8f57613c8e613529565b5b6000613c9d85828601613557565b925050602083013567ffffffffffffffff811115613cbe57613cbd61352e565b5b613cca858286016136b1565b9150509250929050565b60008060008060808587031215613cee57613ced613529565b5b6000613cfc87828801613557565b945050602085013567ffffffffffffffff811115613d1d57613d1c61352e565b5b613d29878288016136b1565b935050604085013567ffffffffffffffff811115613d4a57613d4961352e565b5b613d56878288016136b1565b925050606085013567ffffffffffffffff811115613d7757613d7661352e565b5b613d83878288016136b1565b91505092959194509250565b600080600060608486031215613da857613da7613529565b5b6000613db686828701613a2c565b9350506020613dc786828701613557565b925050604084013567ffffffffffffffff811115613de857613de761352e565b5b613df4868287016136b1565b9150509250925092565b600082825260208201905092915050565b6000613e1a826138e4565b613e248185613dfe565b9350613e34818560208601613900565b613e3d816135a3565b840191505092915050565b60006020820190508181036000830152613e628184613e0f565b905092915050565b613e7381613b7b565b8114613e7e57600080fd5b50565b600081359050613e9081613e6a565b92915050565b600060208284031215613eac57613eab613529565b5b6000613eba84828501613e81565b91505092915050565b7f4e487b7100000000000000000000000000000000000000000000000000000000600052602260045260246000fd5b60006002820490506001821680613f0a57607f821691505b602082108103613f1d57613f1c613ec3565b5b50919050565b7f616c726561647920617070726f766564204f5220646f206e6f7420657869737460008201527f7320796574000000000000000000000000000000000000000000000000000000602082015250565b6000613f7f602583613dfe565b9150613f8a82613f23565b604082019050919050565b60006020820190508181036000830152613fae81613f72565b9050919050565b7f616c7265616479206c696e6b6564204f5220646f6e7420657869737473000000600082015250565b6000613feb601d83613dfe565b9150613ff682613fb5565b602082019050919050565b6000602082019050818103600083015261401a81613fde565b9050919050565b600081905092915050565b6000614037826138e4565b6140418185614021565b9350614051818560208601613900565b80840191505092915050565b6000614069828461402c565b915081905092915050565b60006040820190506140896000830185613c4e565b6140966020830184613844565b9392505050565b7f757365727320616c6c6f776564206f6e6c7920746f20636c656172207468656d60008201527f73656c6673000000000000000000000000000000000000000000000000000000602082015250565b60006140f9602583613dfe565b91506141048261409d565b604082019050919050565b60006020820190508181036000830152614128816140ec565b9050919050565b7f746869732066756e6374696f6e20776f726b2773206f6e6c7920666f7220746560008201527f73746e6574000000000000000000000000000000000000000000000000000000602082015250565b600061418b602583613dfe565b91506141968261412f565b604082019050919050565b600060208201905081810360008301526141ba8161417e565b9050919050565b7f416363657373436f6e74726f6c3a2063616e206f6e6c792072656e6f756e636560008201527f20726f6c657320666f722073656c660000000000000000000000000000000000602082015250565b600061421d602f83613dfe565b9150614228826141c1565b604082019050919050565b6000602082019050818103600083015261424c81614210565b9050919050565b7f63616c6c20436c656172506172656e7420666972737400000000000000000000600082015250565b6000614289601683613dfe565b915061429482614253565b602082019050919050565b600060208201905081810360008301526142b88161427c565b9050919050565b7f6f6e6c7920706172656e745f6e616d652063616e206163636570742069740000600082015250565b60006142f5601e83613dfe565b9150614300826142bf565b602082019050919050565b60006020820190508181036000830152614324816142e8565b9050919050565b7f616c726561647920726567697374726564000000000000000000000000000000600082015250565b6000614361601183613dfe565b915061436c8261432b565b602082019050919050565b6000602082019050818103600083015261439081614354565b9050919050565b60006040820190506143ac6000830185613844565b6143b960208301846137e8565b9392505050565b7f5265717565737420666565206973206e6f742070616964000000000000000000600082015250565b60006143f6601783613dfe565b9150614401826143c0565b602082019050919050565b60006020820190508181036000830152614425816143e9565b9050919050565b60008190508160005260206000209050919050565b60006020601f8301049050919050565b600082821b905092915050565b60006008830261448e7fffffffffffffffffffffffffffffffffffffffffffffffffffffffffffffffff82614451565b6144988683614451565b95508019841693508086168417925050509392505050565b6000819050919050565b60006144d56144d06144cb84613b7b565b6144b0565b613b7b565b9050919050565b6000819050919050565b6144ef836144ba565b6145036144fb826144dc565b84845461445e565b825550505050565b600090565b61451861450b565b6145238184846144e6565b505050565b5b818110156145475761453c600082614510565b600181019050614529565b5050565b601f82111561458c5761455d8161442c565b61456684614441565b81016020851015614575578190505b61458961458185614441565b830182614528565b50505b505050565b600082821c905092915050565b60006145af60001984600802614591565b1980831691505092915050565b60006145c8838361459e565b9150826002028217905092915050565b6145e1826138e4565b67ffffffffffffffff8111156145fa576145f96135b4565b5b6146048254613ef2565b61460f82828561454b565b600060209050601f8311600181146146425760008415614630578287015190505b61463a85826145bc565b8655506146a2565b601f1984166146508661442c565b60005b8281101561467857848901518255600182019150602085019450602081019050614653565b868310156146955784890151614691601f89168261459e565b8355505b6001600288020188555050505b505050505050565b600081905092915050565b50565b60006146c56000836146aa565b91506146d0826146b5565b600082019050919050565b60006146e6826146b8565b9150819050919050565b7f556e61626c6520746f207472616e736665722066656500000000000000000000600082015250565b6000614726601683613dfe565b9150614731826146f0565b602082019050919050565b6000602082019050818103600083015261475581614719565b9050919050565b7f4f776e61626c653a206e6577206f776e657220697320746865207a65726f206160008201527f6464726573730000000000000000000000000000000000000000000000000000602082015250565b60006147b8602683613dfe565b91506147c38261475c565b604082019050919050565b600060208201905081810360008301526147e7816147ab565b9050919050565b7f5468657265206973206164647265737320636f6e6e656374656420746f20746860008201527f617420544720494420616c726561647900000000000000000000000000000000602082015250565b600061484a603083613dfe565b9150614855826147ee565b604082019050919050565b600060208201905081810360008301526148798161483d565b9050919050565b6000604082019050818103600083015261489a8185613e0f565b905081810360208301526148ae8184613e0f565b90509392505050565b6148c0816137dc565b81146148cb57600080fd5b50565b6000815190506148dd816148b7565b92915050565b6000602082840312156148f9576148f8613529565b5b6000614907848285016148ce565b91505092915050565b7f4f776e61626c653a2063616c6c6572206973206e6f7420746865206f776e6572600082015250565b6000614946602083613dfe565b915061495182614910565b602082019050919050565b6000602082019050818103600083015261497581614939565b9050919050565b7f4164616d00000000000000000000000000000000000000000000000000000000600082015250565b60006149b2600483614021565b91506149bd8261497c565b600482019050919050565b60006149d3826149a5565b9150819050919050565b7f416363657373436f6e74726f6c3a206163636f756e7420000000000000000000600082015250565b6000614a13601783614021565b9150614a1e826149dd565b601782019050919050565b7f206973206d697373696e6720726f6c6520000000000000000000000000000000600082015250565b6000614a5f601183614021565b9150614a6a82614a29565b601182019050919050565b6000614a8082614a06565b9150614a8c828561402c565b9150614a9782614a52565b9150614aa3828461402c565b91508190509392505050565b7f4e487b7100000000000000000000000000000000000000000000000000000000600052601160045260246000fd5b6000614ae982613b7b565b9150614af483613b7b565b9250828202614b0281613b7b565b91508282048414831517614b1957614b18614aaf565b5b5092915050565b6000614b2b82613b7b565b9150614b3683613b7b565b9250828201905080821115614b4e57614b4d614aaf565b5b92915050565b7f4e487b7100000000000000000000000000000000000000000000000000000000600052603260045260246000fd5b6000614b8e82613b7b565b915060008203614ba157614ba0614aaf565b5b600182039050919050565b7f537472696e67733a20686578206c656e67746820696e73756666696369656e74600082015250565b6000614be2602083613dfe565b9150614bed82614bac565b602082019050919050565b60006020820190508181036000830152614c1181614bd5565b905091905056fea2646970667358221220f763510f263814f1dd305c011c28ca0b1a04e8f575728f035fb917e7624b42a364736f6c634300081100337a6a58436a3969757365336748476141494967796169434f734a705157534345424261632f7a50477267513d",
  "linkReferences": {},
  "deployedLinkReferences": {}
}