{
  "_format": "hh-sol-artifact-1",
  "contractName": "Leg10nMock",
  "sourceName": "contracts/mocks/Leg10nMock.sol",
  "abi": [
    {
      "inputs": [
        {
          "internalType": "address",
          "name": "turing_",
          "type": "address"
        },
        {
          "internalType": "address",
          "name": "admin_",
          "type": "address"
        },
        {
          "internalType": "string",
          "name": "tgid_",
          "type": "string"
        },
        {
          "internalType": "string",
          "name": "public_key_",
          "type": "string"
        },
        {
          "internalType": "string",
          "name": "plain_id",
          "type": "string"
        }
      ],
      "stateMutability": "nonpayable",
      "type": "constructor"
    },
    {
      "anonymous": false,
      "inputs": [
        {
          "indexed": true,
          "internalType": "address",
          "name": "admin",
          "type": "address"
        }
      ],
      "name": "Initialized",
      "type": "event"
    },
    {
      "anonymous": false,
      "inputs": [
        {
          "indexed": true,
          "internalType": "address",
          "name": "previousOwner",
          "type": "address"
        },
        {
          "indexed": true,
          "internalType": "address",
          "name": "newOwner",
          "type": "address"
        }
      ],
      "name": "OwnershipTransferred",
      "type": "event"
    },
    {
      "anonymous": false,
      "inputs": [
        {
          "indexed": true,
          "internalType": "bytes32",
          "name": "role",
          "type": "bytes32"
        },
        {
          "indexed": true,
          "internalType": "bytes32",
          "name": "previousAdminRole",
          "type": "bytes32"
        },
        {
          "indexed": true,
          "internalType": "bytes32",
          "name": "newAdminRole",
          "type": "bytes32"
        }
      ],
      "name": "RoleAdminChanged",
      "type": "event"
    },
    {
      "anonymous": false,
      "inputs": [
        {
          "indexed": true,
          "internalType": "bytes32",
          "name": "role",
          "type": "bytes32"
        },
        {
          "indexed": true,
          "internalType": "address",
          "name": "account",
          "type": "address"
        },
        {
          "indexed": true,
          "internalType": "address",
          "name": "sender",
          "type": "address"
        }
      ],
      "name": "RoleGranted",
      "type": "event"
    },
    {
      "anonymous": false,
      "inputs": [
        {
          "indexed": true,
          "internalType": "bytes32",
          "name": "role",
          "type": "bytes32"
        },
        {
          "indexed": true,
          "internalType": "address",
          "name": "account",
          "type": "address"
        },
        {
          "indexed": true,
          "internalType": "address",
          "name": "sender",
          "type": "address"
        }
      ],
      "name": "RoleRevoked",
      "type": "event"
    },
    {
      "anonymous": false,
      "inputs": [
        {
          "indexed": false,
          "internalType": "string",
          "name": "applyerTg",
          "type": "string"
        },
        {
          "indexed": false,
          "internalType": "address",
          "name": "wallet_address",
          "type": "address"
        },
        {
          "indexed": true,
          "internalType": "address",
          "name": "parent_address",
          "type": "address"
        }
      ],
      "name": "joinRequested",
      "type": "event"
    },
    {
      "anonymous": false,
      "inputs": [
        {
          "indexed": false,
          "internalType": "string",
          "name": "applyerTg",
          "type": "string"
        },
        {
          "indexed": false,
          "internalType": "address",
          "name": "wallet_address",
          "type": "address"
        },
        {
          "indexed": true,
          "internalType": "address",
          "name": "parent_address",
          "type": "address"
        }
      ],
      "name": "joinRequestedIndexedTG",
      "type": "event"
    },
    {
      "anonymous": false,
      "inputs": [
        {
          "indexed": false,
          "internalType": "address",
          "name": "high_node",
          "type": "address"
        },
        {
          "indexed": true,
          "internalType": "address",
          "name": "low_node",
          "type": "address"
        },
        {
          "indexed": false,
          "internalType": "bool",
          "name": "pravda",
          "type": "bool"
        }
      ],
      "name": "relationChanged",
      "type": "event"
    },
    {
      "anonymous": false,
      "inputs": [
        {
          "indexed": true,
          "internalType": "string",
          "name": "applyerTg",
          "type": "string"
        },
        {
          "indexed": false,
          "internalType": "address",
          "name": "user_address",
          "type": "address"
        },
        {
          "indexed": false,
          "internalType": "address",
          "name": "parent_address",
          "type": "address"
        }
      ],
      "name": "requestAccepted",
      "type": "event"
    },
    {
      "anonymous": false,
      "inputs": [
        {
          "indexed": false,
          "internalType": "string",
          "name": "applyerTg",
          "type": "string"
        },
        {
          "indexed": false,
          "internalType": "address",
          "name": "wallet",
          "type": "address"
        }
      ],
      "name": "requestDenied",
      "type": "event"
    },
    {
      "inputs": [
        {
          "internalType": "string",
          "name": "applyerTg",
          "type": "string"
        },
        {
          "internalType": "string",
          "name": "parent_name",
          "type": "string"
        }
      ],
      "name": "AcceptJoin",
      "outputs": [],
      "stateMutability": "nonpayable",
      "type": "function"
    },
    {
      "inputs": [
        {
          "internalType": "string",
          "name": "parent_name",
          "type": "string"
        },
        {
          "internalType": "string",
          "name": "child_name",
          "type": "string"
        }
      ],
      "name": "ClearParent",
      "outputs": [],
      "stateMutability": "nonpayable",
      "type": "function"
    },
    {
      "inputs": [],
      "name": "DEFAULT_ADMIN_ROLE",
      "outputs": [
        {
          "internalType": "bytes32",
          "name": "",
          "type": "bytes32"
        }
      ],
      "stateMutability": "view",
      "type": "function"
    },
    {
      "inputs": [
        {
          "internalType": "string",
          "name": "tgid",
          "type": "string"
        }
      ],
      "name": "DeclineRequest",
      "outputs": [],
      "stateMutability": "nonpayable",
      "type": "function"
    },
    {
      "inputs": [
        {
          "internalType": "bytes32",
          "name": "hash_id",
          "type": "bytes32"
        }
      ],
      "name": "GetIdByHash",
      "outputs": [
        {
          "internalType": "string",
          "name": "",
          "type": "string"
        }
      ],
      "stateMutability": "view",
      "type": "function"
    },
    {
      "inputs": [
        {
          "internalType": "string",
          "name": "text",
          "type": "string"
        }
      ],
      "name": "GetKeccakHash",
      "outputs": [
        {
          "internalType": "bytes32",
          "name": "",
          "type": "bytes32"
        }
      ],
      "stateMutability": "pure",
      "type": "function"
    },
    {
      "inputs": [],
      "name": "GetOwner",
      "outputs": [
        {
          "internalType": "address",
          "name": "",
          "type": "address"
        }
      ],
      "stateMutability": "view",
      "type": "function"
    },
    {
      "inputs": [],
      "name": "GetPassportFee",
      "outputs": [
        {
          "internalType": "uint256",
          "name": "",
          "type": "uint256"
        }
      ],
      "stateMutability": "view",
      "type": "function"
    },
    {
      "inputs": [
        {
          "internalType": "address",
          "name": "user_address",
          "type": "address"
        }
      ],
      "name": "GetPublicKeyByAddress",
      "outputs": [
        {
          "internalType": "string",
          "name": "",
          "type": "string"
        }
      ],
      "stateMutability": "view",
      "type": "function"
    },
    {
      "inputs": [
        {
          "internalType": "address",
          "name": "user_wallet",
          "type": "address"
        }
      ],
      "name": "GetTgIdByAddress",
      "outputs": [
        {
          "internalType": "string",
          "name": "tgid",
          "type": "string"
        }
      ],
      "stateMutability": "view",
      "type": "function"
    },
    {
      "inputs": [
        {
          "internalType": "address",
          "name": "user_wallet",
          "type": "address"
        }
      ],
      "name": "GetUserByAddress",
      "outputs": [
        {
          "components": [
            {
              "internalType": "address",
              "name": "userAddress",
              "type": "address"
            },
            {
              "internalType": "string",
              "name": "tgId",
              "type": "string"
            },
            {
              "internalType": "bool",
              "name": "valid",
              "type": "bool"
            },
            {
              "internalType": "address",
              "name": "validatorAddress",
              "type": "address"
            },
            {
              "internalType": "string",
              "name": "codeName",
              "type": "string"
            },
            {
              "internalType": "string",
              "name": "public_key",
              "type": "string"
            },
            {
              "internalType": "bytes32",
              "name": "id_hash",
              "type": "bytes32"
            }
          ],
          "internalType": "struct Leg10n.User",
          "name": "",
          "type": "tuple"
        }
      ],
      "stateMutability": "view",
      "type": "function"
    },
    {
      "inputs": [
        {
          "internalType": "string",
          "name": "user_name_",
          "type": "string"
        }
      ],
      "name": "GetUserByNickName",
      "outputs": [
        {
          "components": [
            {
              "internalType": "address",
              "name": "userAddress",
              "type": "address"
            },
            {
              "internalType": "string",
              "name": "tgId",
              "type": "string"
            },
            {
              "internalType": "bool",
              "name": "valid",
              "type": "bool"
            },
            {
              "internalType": "address",
              "name": "validatorAddress",
              "type": "address"
            },
            {
              "internalType": "string",
              "name": "codeName",
              "type": "string"
            },
            {
              "internalType": "string",
              "name": "public_key",
              "type": "string"
            },
            {
              "internalType": "bytes32",
              "name": "id_hash",
              "type": "bytes32"
            }
          ],
          "internalType": "struct Leg10n.User",
          "name": "",
          "type": "tuple"
        }
      ],
      "stateMutability": "view",
      "type": "function"
    },
    {
      "inputs": [
        {
          "internalType": "string",
          "name": "tgId_",
          "type": "string"
        }
      ],
      "name": "GetUserByTgId",
      "outputs": [
        {
          "components": [
            {
              "internalType": "address",
              "name": "userAddress",
              "type": "address"
            },
            {
              "internalType": "string",
              "name": "tgId",
              "type": "string"
            },
            {
              "internalType": "bool",
              "name": "valid",
              "type": "bool"
            },
            {
              "internalType": "address",
              "name": "validatorAddress",
              "type": "address"
            },
            {
              "internalType": "string",
              "name": "codeName",
              "type": "string"
            },
            {
              "internalType": "string",
              "name": "public_key",
              "type": "string"
            },
            {
              "internalType": "bytes32",
              "name": "id_hash",
              "type": "bytes32"
            }
          ],
          "internalType": "struct Leg10n.User",
          "name": "",
          "type": "tuple"
        }
      ],
      "stateMutability": "view",
      "type": "function"
    },
    {
      "inputs": [
        {
          "internalType": "string",
          "name": "tgId_",
          "type": "string"
        }
      ],
      "name": "GetUserWalletByID",
      "outputs": [
        {
          "internalType": "address",
          "name": "",
          "type": "address"
        }
      ],
      "stateMutability": "view",
      "type": "function"
    },
    {
      "inputs": [
        {
          "internalType": "string",
          "name": "user_name_",
          "type": "string"
        }
      ],
      "name": "GetWalletByNickName",
      "outputs": [
        {
          "internalType": "address",
          "name": "",
          "type": "address"
        }
      ],
      "stateMutability": "view",
      "type": "function"
    },
    {
      "inputs": [
        {
          "internalType": "string",
          "name": "applyerTg",
          "type": "string"
        },
        {
          "internalType": "string",
          "name": "code_name_",
          "type": "string"
        },
        {
          "internalType": "string",
          "name": "parent_name",
          "type": "string"
        },
        {
          "internalType": "string",
          "name": "public_key",
          "type": "string"
        },
        {
          "internalType": "string",
          "name": "plain_id",
          "type": "string"
        }
      ],
      "name": "RequestJoin",
      "outputs": [],
      "stateMutability": "payable",
      "type": "function"
    },
    {
      "inputs": [
        {
          "internalType": "uint256",
          "name": "passportFee_",
          "type": "uint256"
        }
      ],
      "name": "SetPassportFee",
      "outputs": [],
      "stateMutability": "nonpayable",
      "type": "function"
    },
    {
      "inputs": [
        {
          "internalType": "address",
          "name": "",
          "type": "address"
        },
        {
          "internalType": "address",
          "name": "",
          "type": "address"
        }
      ],
      "name": "chain",
      "outputs": [
        {
          "internalType": "bool",
          "name": "",
          "type": "bool"
        }
      ],
      "stateMutability": "view",
      "type": "function"
    },
    {
      "inputs": [
        {
          "internalType": "string",
          "name": "",
          "type": "string"
        }
      ],
      "name": "codename_wallets",
      "outputs": [
        {
          "internalType": "address",
          "name": "",
          "type": "address"
        }
      ],
      "stateMutability": "view",
      "type": "function"
    },
    {
      "inputs": [
        {
          "internalType": "address",
          "name": "user_address",
          "type": "address"
        }
      ],
      "name": "deleteUser",
      "outputs": [],
      "stateMutability": "nonpayable",
      "type": "function"
    },
    {
      "inputs": [
        {
          "internalType": "string",
          "name": "parent_name",
          "type": "string"
        },
        {
          "internalType": "string",
          "name": "child_name",
          "type": "string"
        }
      ],
      "name": "deleteYourSelf",
      "outputs": [],
      "stateMutability": "nonpayable",
      "type": "function"
    },
    {
      "inputs": [
        {
          "internalType": "address",
          "name": "user_address",
          "type": "address"
        }
      ],
      "name": "devDeleteUser",
      "outputs": [],
      "stateMutability": "nonpayable",
      "type": "function"
    },
    {
      "inputs": [
        {
          "internalType": "address",
          "name": "admin_",
          "type": "address"
        },
        {
          "internalType": "string",
          "name": "tgid_",
          "type": "string"
        },
        {
          "internalType": "string",
          "name": "public_key_",
          "type": "string"
        },
        {
          "internalType": "string",
          "name": "plain_id",
          "type": "string"
        }
      ],
      "name": "devInitAdmin",
      "outputs": [],
      "stateMutability": "nonpayable",
      "type": "function"
    },
    {
      "inputs": [],
      "name": "getModeratorIdentifier",
      "outputs": [
        {
          "internalType": "bytes32",
          "name": "",
          "type": "bytes32"
        }
      ],
      "stateMutability": "pure",
      "type": "function"
    },
    {
      "inputs": [
        {
          "internalType": "bytes32",
          "name": "role",
          "type": "bytes32"
        }
      ],
      "name": "getRoleAdmin",
      "outputs": [
        {
          "internalType": "bytes32",
          "name": "",
          "type": "bytes32"
        }
      ],
      "stateMutability": "view",
      "type": "function"
    },
    {
      "inputs": [
        {
          "internalType": "bytes32",
          "name": "role",
          "type": "bytes32"
        },
        {
          "internalType": "address",
          "name": "account",
          "type": "address"
        }
      ],
      "name": "grantRole",
      "outputs": [],
      "stateMutability": "nonpayable",
      "type": "function"
    },
    {
      "inputs": [
        {
          "internalType": "bytes32",
          "name": "role",
          "type": "bytes32"
        },
        {
          "internalType": "address",
          "name": "account",
          "type": "address"
        }
      ],
      "name": "hasRole",
      "outputs": [
        {
          "internalType": "bool",
          "name": "",
          "type": "bool"
        }
      ],
      "stateMutability": "view",
      "type": "function"
    },
    {
      "inputs": [
        {
          "internalType": "bytes32",
          "name": "",
          "type": "bytes32"
        }
      ],
      "name": "hashToId",
      "outputs": [
        {
          "internalType": "string",
          "name": "",
          "type": "string"
        }
      ],
      "stateMutability": "view",
      "type": "function"
    },
    {
      "inputs": [],
      "name": "moderator",
      "outputs": [
        {
          "internalType": "bytes32",
          "name": "",
          "type": "bytes32"
        }
      ],
      "stateMutability": "view",
      "type": "function"
    },
    {
      "inputs": [],
      "name": "owner",
      "outputs": [
        {
          "internalType": "address",
          "name": "",
          "type": "address"
        }
      ],
      "stateMutability": "view",
      "type": "function"
    },
    {
      "inputs": [],
      "name": "renounceOwnership",
      "outputs": [],
      "stateMutability": "nonpayable",
      "type": "function"
    },
    {
      "inputs": [
        {
          "internalType": "bytes32",
          "name": "role",
          "type": "bytes32"
        },
        {
          "internalType": "address",
          "name": "account",
          "type": "address"
        }
      ],
      "name": "renounceRole",
      "outputs": [],
      "stateMutability": "nonpayable",
      "type": "function"
    },
    {
      "inputs": [
        {
          "internalType": "bytes32",
          "name": "role",
          "type": "bytes32"
        },
        {
          "internalType": "address",
          "name": "account",
          "type": "address"
        }
      ],
      "name": "revokeRole",
      "outputs": [],
      "stateMutability": "nonpayable",
      "type": "function"
    },
    {
      "inputs": [
        {
          "internalType": "bytes4",
          "name": "interfaceId",
          "type": "bytes4"
        }
      ],
      "name": "supportsInterface",
      "outputs": [
        {
          "internalType": "bool",
          "name": "",
          "type": "bool"
        }
      ],
      "stateMutability": "view",
      "type": "function"
    },
    {
      "inputs": [
        {
          "internalType": "string",
          "name": "",
          "type": "string"
        }
      ],
      "name": "tgIdToAddress",
      "outputs": [
        {
          "internalType": "address",
          "name": "",
          "type": "address"
        }
      ],
      "stateMutability": "view",
      "type": "function"
    },
    {
      "inputs": [
        {
          "internalType": "address",
          "name": "newOwner",
          "type": "address"
        }
      ],
      "name": "transferOwnership",
      "outputs": [],
      "stateMutability": "nonpayable",
      "type": "function"
    },
    {
      "inputs": [
        {
          "internalType": "string",
          "name": "tgId",
          "type": "string"
        },
        {
          "internalType": "address",
          "name": "userAddress",
          "type": "address"
        },
        {
          "internalType": "string",
          "name": "code_name_",
          "type": "string"
        },
        {
          "internalType": "string",
          "name": "parent_name",
          "type": "string"
        },
        {
          "internalType": "string",
          "name": "plain_id",
          "type": "string"
        }
      ],
      "name": "updateAddress",
      "outputs": [],
      "stateMutability": "nonpayable",
      "type": "function"
    }
  ],
  "bytecode": "0x60806040523480156200001157600080fd5b50604051620069ac380380620069ac833981810160405281019062000037919062000e2b565b84848484846200005c620000506200049360201b60201c565b6200049b60201b60201c565b66071afd498d00006002819055506200007a6200055f60201b60201c565b600360006101000a81548173ffffffffffffffffffffffffffffffffffffffff021916908373ffffffffffffffffffffffffffffffffffffffff160217905550620000cf6000801b336200058860201b60201c565b620001017fcea62fe6ecc79e221c545bf918f804693c542ead2549e37c2bb9baa66ee2e157336200058860201b60201c565b84600960006101000a81548173ffffffffffffffffffffffffffffffffffffffff021916908373ffffffffffffffffffffffffffffffffffffffff160217905550600062000155826200067960201b60201c565b9050336004856040516200016a919062000f5d565b908152602001604051809103902060006101000a81548173ffffffffffffffffffffffffffffffffffffffff021916908373ffffffffffffffffffffffffffffffffffffffff160217905550336007604051620001c79062000fc6565b908152602001604051809103902060006101000a81548173ffffffffffffffffffffffffffffffffffffffff021916908373ffffffffffffffffffffffffffffffffffffffff1602179055506040518060e001604052803373ffffffffffffffffffffffffffffffffffffffff1681526020018581526020016001151581526020013373ffffffffffffffffffffffffffffffffffffffff1681526020016040518060400160405280600181526020017f300000000000000000000000000000000000000000000000000000000000000081525081526020016040518060600160405280602c815260200162006980602c9139815260200182815250600660003373ffffffffffffffffffffffffffffffffffffffff1673ffffffffffffffffffffffffffffffffffffffff16815260200190815260200160002060008201518160000160006101000a81548173ffffffffffffffffffffffffffffffffffffffff021916908373ffffffffffffffffffffffffffffffffffffffff16021790555060208201518160010190816200036091906200121d565b5060408201518160020160006101000a81548160ff02191690831515021790555060608201518160020160016101000a81548173ffffffffffffffffffffffffffffffffffffffff021916908373ffffffffffffffffffffffffffffffffffffffff1602179055506080820151816003019081620003df91906200121d565b5060a0820151816004019081620003f791906200121d565b5060c08201518160050155905050600073ffffffffffffffffffffffffffffffffffffffff168573ffffffffffffffffffffffffffffffffffffffff16036200046d576200046733856040518060600160405280602c815260200162006980602c913985620006ab60201b60201c565b62000482565b6200048185858585620006ab60201b60201c565b5b5050505050505050505050620013e1565b600033905090565b60008060009054906101000a900473ffffffffffffffffffffffffffffffffffffffff169050816000806101000a81548173ffffffffffffffffffffffffffffffffffffffff021916908373ffffffffffffffffffffffffffffffffffffffff1602179055508173ffffffffffffffffffffffffffffffffffffffff168173ffffffffffffffffffffffffffffffffffffffff167f8be0079c531659141344cd1fd0a4f28419497f9722a3daafe3b4186f6b6457e060405160405180910390a35050565b60008060009054906101000a900473ffffffffffffffffffffffffffffffffffffffff16905090565b6200059a828262000b7e60201b60201c565b6200067557600180600084815260200190815260200160002060000160008373ffffffffffffffffffffffffffffffffffffffff1673ffffffffffffffffffffffffffffffffffffffff16815260200190815260200160002060006101000a81548160ff0219169083151502179055506200061a6200049360201b60201c565b73ffffffffffffffffffffffffffffffffffffffff168173ffffffffffffffffffffffffffffffffffffffff16837f2f8788117e7eff1d82e926ec794901d17c78024a50270940304540a733656f0d60405160405180910390a45b5050565b6000816040516020016200068e919062001356565b604051602081830303815290604052805190602001209050919050565b83600484604051620006be919062000f5d565b908152602001604051809103902060006101000a81548173ffffffffffffffffffffffffffffffffffffffff021916908373ffffffffffffffffffffffffffffffffffffffff1602179055508360076040516200071b90620013ca565b908152602001604051809103902060006101000a81548173ffffffffffffffffffffffffffffffffffffffff021916908373ffffffffffffffffffffffffffffffffffffffff16021790555060006200077a826200067960201b60201c565b90506040518060e001604052808673ffffffffffffffffffffffffffffffffffffffff1681526020018581526020016001151581526020018673ffffffffffffffffffffffffffffffffffffffff1681526020016040518060400160405280600481526020017f4164616d00000000000000000000000000000000000000000000000000000000815250815260200184815260200182815250600660008773ffffffffffffffffffffffffffffffffffffffff1673ffffffffffffffffffffffffffffffffffffffff16815260200190815260200160002060008201518160000160006101000a81548173ffffffffffffffffffffffffffffffffffffffff021916908373ffffffffffffffffffffffffffffffffffffffff1602179055506020820151816001019081620008b091906200121d565b5060408201518160020160006101000a81548160ff02191690831515021790555060608201518160020160016101000a81548173ffffffffffffffffffffffffffffffffffffffff021916908373ffffffffffffffffffffffffffffffffffffffff16021790555060808201518160030190816200092f91906200121d565b5060a08201518160040190816200094791906200121d565b5060c082015181600501559050506001600660008773ffffffffffffffffffffffffffffffffffffffff1673ffffffffffffffffffffffffffffffffffffffff16815260200190815260200160002060020160006101000a81548160ff02191690831515021790555033600660008773ffffffffffffffffffffffffffffffffffffffff1673ffffffffffffffffffffffffffffffffffffffff16815260200190815260200160002060020160016101000a81548173ffffffffffffffffffffffffffffffffffffffff021916908373ffffffffffffffffffffffffffffffffffffffff160217905550600062000a796040518060400160405280600181526020017f300000000000000000000000000000000000000000000000000000000000000081525062000be960201b60201c565b90506001600860008373ffffffffffffffffffffffffffffffffffffffff1673ffffffffffffffffffffffffffffffffffffffff16815260200190815260200160002060008873ffffffffffffffffffffffffffffffffffffffff1673ffffffffffffffffffffffffffffffffffffffff16815260200190815260200160002060006101000a81548160ff0219169083151502179055508460056000848152602001908152602001600020908162000b3291906200121d565b508573ffffffffffffffffffffffffffffffffffffffff167f908408e307fc569b417f6cbec5d5a06f44a0a505ac0479b47d421a4b2fd6a1e660405160405180910390a2505050505050565b60006001600084815260200190815260200160002060000160008373ffffffffffffffffffffffffffffffffffffffff1673ffffffffffffffffffffffffffffffffffffffff16815260200190815260200160002060009054906101000a900460ff16905092915050565b600060078260405162000bfd919062000f5d565b908152602001604051809103902060009054906101000a900473ffffffffffffffffffffffffffffffffffffffff169050919050565b6000604051905090565b600080fd5b600080fd5b600073ffffffffffffffffffffffffffffffffffffffff82169050919050565b600062000c748262000c47565b9050919050565b62000c868162000c67565b811462000c9257600080fd5b50565b60008151905062000ca68162000c7b565b92915050565b600080fd5b600080fd5b6000601f19601f8301169050919050565b7f4e487b7100000000000000000000000000000000000000000000000000000000600052604160045260246000fd5b62000d018262000cb6565b810181811067ffffffffffffffff8211171562000d235762000d2262000cc7565b5b80604052505050565b600062000d3862000c33565b905062000d46828262000cf6565b919050565b600067ffffffffffffffff82111562000d695762000d6862000cc7565b5b62000d748262000cb6565b9050602081019050919050565b60005b8381101562000da157808201518184015260208101905062000d84565b60008484015250505050565b600062000dc462000dbe8462000d4b565b62000d2c565b90508281526020810184848401111562000de35762000de262000cb1565b5b62000df084828562000d81565b509392505050565b600082601f83011262000e105762000e0f62000cac565b5b815162000e2284826020860162000dad565b91505092915050565b600080600080600060a0868803121562000e4a5762000e4962000c3d565b5b600062000e5a8882890162000c95565b955050602062000e6d8882890162000c95565b945050604086015167ffffffffffffffff81111562000e915762000e9062000c42565b5b62000e9f8882890162000df8565b935050606086015167ffffffffffffffff81111562000ec35762000ec262000c42565b5b62000ed18882890162000df8565b925050608086015167ffffffffffffffff81111562000ef55762000ef462000c42565b5b62000f038882890162000df8565b9150509295509295909350565b600081519050919050565b600081905092915050565b600062000f338262000f10565b62000f3f818562000f1b565b935062000f5181856020860162000d81565b80840191505092915050565b600062000f6b828462000f26565b915081905092915050565b7f3000000000000000000000000000000000000000000000000000000000000000600082015250565b600062000fae60018362000f1b565b915062000fbb8262000f76565b600182019050919050565b600062000fd38262000f9f565b9150819050919050565b7f4e487b7100000000000000000000000000000000000000000000000000000000600052602260045260246000fd5b600060028204905060018216806200102557607f821691505b6020821081036200103b576200103a62000fdd565b5b50919050565b60008190508160005260206000209050919050565b60006020601f8301049050919050565b600082821b905092915050565b600060088302620010a57fffffffffffffffffffffffffffffffffffffffffffffffffffffffffffffffff8262001066565b620010b1868362001066565b95508019841693508086168417925050509392505050565b6000819050919050565b6000819050919050565b6000620010fe620010f8620010f284620010c9565b620010d3565b620010c9565b9050919050565b6000819050919050565b6200111a83620010dd565b62001132620011298262001105565b84845462001073565b825550505050565b600090565b620011496200113a565b620011568184846200110f565b505050565b5b818110156200117e57620011726000826200113f565b6001810190506200115c565b5050565b601f821115620011cd57620011978162001041565b620011a28462001056565b81016020851015620011b2578190505b620011ca620011c18562001056565b8301826200115b565b50505b505050565b600082821c905092915050565b6000620011f260001984600802620011d2565b1980831691505092915050565b60006200120d8383620011df565b9150826002028217905092915050565b620012288262000f10565b67ffffffffffffffff81111562001244576200124362000cc7565b5b6200125082546200100c565b6200125d82828562001182565b600060209050601f83116001811462001295576000841562001280578287015190505b6200128c8582620011ff565b865550620012fc565b601f198416620012a58662001041565b60005b82811015620012cf57848901518255600182019150602085019450602081019050620012a8565b86831015620012ef5784890151620012eb601f891682620011df565b8355505b6001600288020188555050505b505050505050565b600082825260208201905092915050565b6000620013228262000f10565b6200132e818562001304565b93506200134081856020860162000d81565b6200134b8162000cb6565b840191505092915050565b6000602082019050818103600083015262001372818462001315565b905092915050565b7f4164616d00000000000000000000000000000000000000000000000000000000600082015250565b6000620013b260048362000f1b565b9150620013bf826200137a565b600482019050919050565b6000620013d782620013a3565b9150819050919050565b61558f80620013f16000396000f3fe60806040526004361061021a5760003560e01c80635c60f2261161012357806391d14854116100ab578063c55011ee1161006f578063c55011ee14610858578063d2114e1814610881578063d2125bd2146108be578063d547741f146108e7578063f2fde38b146109105761021a565b806391d148541461074d5780639b45179f1461078a5780639e026a3b146107b3578063a217fddf146107f0578063b932fbfa1461081b5761021a565b8063715018a6116100f2578063715018a614610675578063841a65e11461068c57806386e81ba5146106c9578063873f30c7146107065780638da5cb5b146107225761021a565b80635c60f226146105a75780635d1ce88f146105d057806361cabe37146105fb5780636e312028146106385761021a565b8063248a9ca3116101a657806336568abe1161017557806336568abe146104c257806338743904146104eb5780634208ce6014610516578063460e6c9c1461053f57806348dc15611461057c5761021a565b8063248a9ca31461040a578063286b2e54146104475780632f2ff15d146104705780632f62fc83146104995761021a565b80630d48cae8116101ed5780630d48cae8146102ed57806315905bdd1461032a5780631892fd78146103675780631a519ce8146103a45780632067eac8146103e15761021a565b8063018d3dc91461021f57806301ffc9a714610248578063095f0773146102855780630ae50a39146102c2575b600080fd5b34801561022b57600080fd5b5061024660048036038101906102419190613e83565b610939565b005b34801561025457600080fd5b5061026f600480360381019061026a9190613f53565b610ab7565b60405161027c9190613f9b565b60405180910390f35b34801561029157600080fd5b506102ac60048036038101906102a79190613fec565b610b31565b6040516102b99190614098565b60405180910390f35b3480156102ce57600080fd5b506102d7610bd1565b6040516102e491906140fb565b60405180910390f35b3480156102f957600080fd5b50610314600480360381019061030f9190614116565b610bfb565b6040516103219190614280565b60405180910390f35b34801561033657600080fd5b50610351600480360381019061034c9190614116565b610eef565b60405161035e91906140fb565b60405180910390f35b34801561037357600080fd5b5061038e600480360381019061038991906142ce565b610f37565b60405161039b9190614280565b60405180910390f35b3480156103b057600080fd5b506103cb60048036038101906103c69190614116565b61121d565b6040516103d89190614280565b60405180910390f35b3480156103ed57600080fd5b50610408600480360381019061040391906142ce565b611511565b005b34801561041657600080fd5b50610431600480360381019061042c9190613fec565b6118bf565b60405161043e919061430a565b60405180910390f35b34801561045357600080fd5b5061046e60048036038101906104699190614116565b6118df565b005b34801561047c57600080fd5b5061049760048036038101906104929190614325565b611d4f565b005b3480156104a557600080fd5b506104c060048036038101906104bb9190613e83565b611d70565b005b3480156104ce57600080fd5b506104e960048036038101906104e49190614325565b611e23565b005b3480156104f757600080fd5b50610500611ea6565b60405161050d919061430a565b60405180910390f35b34801561052257600080fd5b5061053d60048036038101906105389190614365565b611eca565b005b34801561054b57600080fd5b5061056660048036038101906105619190614450565b611ede565b6040516105739190613f9b565b60405180910390f35b34801561058857600080fd5b50610591611f0d565b60405161059e91906144a9565b60405180910390f35b3480156105b357600080fd5b506105ce60048036038101906105c991906142ce565b611f17565b005b3480156105dc57600080fd5b506105e5611f23565b6040516105f2919061430a565b60405180910390f35b34801561060757600080fd5b50610622600480360381019061061d91906142ce565b611f4b565b60405161062f9190614098565b60405180910390f35b34801561064457600080fd5b5061065f600480360381019061065a9190614116565b611f67565b60405161066c91906140fb565b60405180910390f35b34801561068157600080fd5b5061068a611fb0565b005b34801561069857600080fd5b506106b360048036038101906106ae9190613fec565b611fc4565b6040516106c09190614098565b60405180910390f35b3480156106d557600080fd5b506106f060048036038101906106eb9190614116565b612069565b6040516106fd91906140fb565b60405180910390f35b610720600480360381019061071b91906144c4565b6120b2565b005b34801561072e57600080fd5b50610737612506565b60405161074491906140fb565b60405180910390f35b34801561075957600080fd5b50610774600480360381019061076f9190614325565b61252f565b6040516107819190613f9b565b60405180910390f35b34801561079657600080fd5b506107b160048036038101906107ac9190613e83565b61259a565b005b3480156107bf57600080fd5b506107da60048036038101906107d59190614116565b6128f6565b6040516107e7919061430a565b60405180910390f35b3480156107fc57600080fd5b50610805612926565b604051610812919061430a565b60405180910390f35b34801561082757600080fd5b50610842600480360381019061083d91906142ce565b61292d565b60405161084f9190614098565b60405180910390f35b34801561086457600080fd5b5061087f600480360381019061087a91906145cb565b61294f565b005b34801561088d57600080fd5b506108a860048036038101906108a39190614116565b612961565b6040516108b591906140fb565b60405180910390f35b3480156108ca57600080fd5b506108e560048036038101906108e091906146b2565b6129a9565b005b3480156108f357600080fd5b5061090e60048036038101906109099190614325565b6129bb565b005b34801561091c57600080fd5b50610937600480360381019061093291906142ce565b6129dc565b005b600061094482612961565b9050600061095184612961565b90503373ffffffffffffffffffffffffffffffffffffffff168273ffffffffffffffffffffffffffffffffffffffff16146109c1576040517f08c379a00000000000000000000000000000000000000000000000000000000081526004016109b890614751565b60405180910390fd5b6000600660008473ffffffffffffffffffffffffffffffffffffffff1673ffffffffffffffffffffffffffffffffffffffff16815260200190815260200160002060020160006101000a81548160ff0219169083151502179055506000600860008373ffffffffffffffffffffffffffffffffffffffff1673ffffffffffffffffffffffffffffffffffffffff16815260200190815260200160002060003373ffffffffffffffffffffffffffffffffffffffff1673ffffffffffffffffffffffffffffffffffffffff16815260200190815260200160002060006101000a81548160ff02191690831515021790555050505050565b60007f7965db0b000000000000000000000000000000000000000000000000000000007bffffffffffffffffffffffffffffffffffffffffffffffffffffffff1916827bffffffffffffffffffffffffffffffffffffffffffffffffffffffff19161480610b2a5750610b2982612a5f565b5b9050919050565b60056020528060005260406000206000915090508054610b50906147a0565b80601f0160208091040260200160405190810160405280929190818152602001828054610b7c906147a0565b8015610bc95780601f10610b9e57610100808354040283529160200191610bc9565b820191906000526020600020905b815481529060010190602001808311610bac57829003601f168201915b505050505081565b6000600360009054906101000a900473ffffffffffffffffffffffffffffffffffffffff16905090565b610c03613c5e565b6000610c0e83612961565b90506000600660008373ffffffffffffffffffffffffffffffffffffffff1673ffffffffffffffffffffffffffffffffffffffff1681526020019081526020016000206040518060e00160405290816000820160009054906101000a900473ffffffffffffffffffffffffffffffffffffffff1673ffffffffffffffffffffffffffffffffffffffff1673ffffffffffffffffffffffffffffffffffffffff168152602001600182018054610cc2906147a0565b80601f0160208091040260200160405190810160405280929190818152602001828054610cee906147a0565b8015610d3b5780601f10610d1057610100808354040283529160200191610d3b565b820191906000526020600020905b815481529060010190602001808311610d1e57829003601f168201915b505050505081526020016002820160009054906101000a900460ff161515151581526020016002820160019054906101000a900473ffffffffffffffffffffffffffffffffffffffff1673ffffffffffffffffffffffffffffffffffffffff1673ffffffffffffffffffffffffffffffffffffffff168152602001600382018054610dc5906147a0565b80601f0160208091040260200160405190810160405280929190818152602001828054610df1906147a0565b8015610e3e5780601f10610e1357610100808354040283529160200191610e3e565b820191906000526020600020905b815481529060010190602001808311610e2157829003601f168201915b50505050508152602001600482018054610e57906147a0565b80601f0160208091040260200160405190810160405280929190818152602001828054610e83906147a0565b8015610ed05780601f10610ea557610100808354040283529160200191610ed0565b820191906000526020600020905b815481529060010190602001808311610eb357829003601f168201915b5050505050815260200160058201548152505090508092505050919050565b6000600482604051610f01919061480d565b908152602001604051809103902060009054906101000a900473ffffffffffffffffffffffffffffffffffffffff169050919050565b610f3f613c5e565b6000600660008473ffffffffffffffffffffffffffffffffffffffff1673ffffffffffffffffffffffffffffffffffffffff1681526020019081526020016000206040518060e00160405290816000820160009054906101000a900473ffffffffffffffffffffffffffffffffffffffff1673ffffffffffffffffffffffffffffffffffffffff1673ffffffffffffffffffffffffffffffffffffffff168152602001600182018054610ff1906147a0565b80601f016020809104026020016040519081016040528092919081815260200182805461101d906147a0565b801561106a5780601f1061103f5761010080835404028352916020019161106a565b820191906000526020600020905b81548152906001019060200180831161104d57829003601f168201915b505050505081526020016002820160009054906101000a900460ff161515151581526020016002820160019054906101000a900473ffffffffffffffffffffffffffffffffffffffff1673ffffffffffffffffffffffffffffffffffffffff1673ffffffffffffffffffffffffffffffffffffffff1681526020016003820180546110f4906147a0565b80601f0160208091040260200160405190810160405280929190818152602001828054611120906147a0565b801561116d5780601f106111425761010080835404028352916020019161116d565b820191906000526020600020905b81548152906001019060200180831161115057829003601f168201915b50505050508152602001600482018054611186906147a0565b80601f01602080910402602001604051908101604052809291908181526020018280546111b2906147a0565b80156111ff5780601f106111d4576101008083540402835291602001916111ff565b820191906000526020600020905b8154815290600101906020018083116111e257829003601f168201915b50505050508152602001600582015481525050905080915050919050565b611225613c5e565b600061123083610eef565b90506000600660008373ffffffffffffffffffffffffffffffffffffffff1673ffffffffffffffffffffffffffffffffffffffff1681526020019081526020016000206040518060e00160405290816000820160009054906101000a900473ffffffffffffffffffffffffffffffffffffffff1673ffffffffffffffffffffffffffffffffffffffff1673ffffffffffffffffffffffffffffffffffffffff1681526020016001820180546112e4906147a0565b80601f0160208091040260200160405190810160405280929190818152602001828054611310906147a0565b801561135d5780601f106113325761010080835404028352916020019161135d565b820191906000526020600020905b81548152906001019060200180831161134057829003601f168201915b505050505081526020016002820160009054906101000a900460ff161515151581526020016002820160019054906101000a900473ffffffffffffffffffffffffffffffffffffffff1673ffffffffffffffffffffffffffffffffffffffff1673ffffffffffffffffffffffffffffffffffffffff1681526020016003820180546113e7906147a0565b80601f0160208091040260200160405190810160405280929190818152602001828054611413906147a0565b80156114605780601f1061143557610100808354040283529160200191611460565b820191906000526020600020905b81548152906001019060200180831161144357829003601f168201915b50505050508152602001600482018054611479906147a0565b80601f01602080910402602001604051908101604052809291908181526020018280546114a5906147a0565b80156114f25780601f106114c7576101008083540402835291602001916114f2565b820191906000526020600020905b8154815290600101906020018083116114d557829003601f168201915b5050505050815260200160058201548152505090508092505050919050565b7fcea62fe6ecc79e221c545bf918f804693c542ead2549e37c2bb9baa66ee2e15761153b81612ac9565b6000600660008473ffffffffffffffffffffffffffffffffffffffff1673ffffffffffffffffffffffffffffffffffffffff168152602001908152602001600020600101805461158a906147a0565b80601f01602080910402602001604051908101604052809291908181526020018280546115b6906147a0565b80156116035780601f106115d857610100808354040283529160200191611603565b820191906000526020600020905b8154815290600101906020018083116115e657829003601f168201915b505050505090506000600660008573ffffffffffffffffffffffffffffffffffffffff1673ffffffffffffffffffffffffffffffffffffffff1681526020019081526020016000206003018054611659906147a0565b80601f0160208091040260200160405190810160405280929190818152602001828054611685906147a0565b80156116d25780601f106116a7576101008083540402835291602001916116d2565b820191906000526020600020905b8154815290600101906020018083116116b557829003601f168201915b50505050509050600046905060058114611721576040517f08c379a000000000000000000000000000000000000000000000000000000000815260040161171890614870565b60405180910390fd5b600660008673ffffffffffffffffffffffffffffffffffffffff1673ffffffffffffffffffffffffffffffffffffffff168152602001908152602001600020600080820160006101000a81549073ffffffffffffffffffffffffffffffffffffffff02191690556001820160006117989190613ccc565b6002820160006101000a81549060ff02191690556002820160016101000a81549073ffffffffffffffffffffffffffffffffffffffff02191690556003820160006117e39190613ccc565b6004820160006117f39190613ccc565b6005820160009055505060048360405161180d919061480d565b908152602001604051809103902060006101000a81549073ffffffffffffffffffffffffffffffffffffffff021916905560078260405161184e919061480d565b908152602001604051809103902060006101000a81549073ffffffffffffffffffffffffffffffffffffffff02191690557fe444442b4fc5a03103c68bde16932de23949be11145d1b4707d817bfb505573883866040516118b0929190614890565b60405180910390a15050505050565b600060016000838152602001908152602001600020600101549050919050565b60006118ea82610eef565b90506000600660008373ffffffffffffffffffffffffffffffffffffffff1673ffffffffffffffffffffffffffffffffffffffff168152602001908152602001600020600301805461193b906147a0565b80601f0160208091040260200160405190810160405280929190818152602001828054611967906147a0565b80156119b45780601f10611989576101008083540402835291602001916119b4565b820191906000526020600020905b81548152906001019060200180831161199757829003601f168201915b5050505050905060001515600660008473ffffffffffffffffffffffffffffffffffffffff1673ffffffffffffffffffffffffffffffffffffffff16815260200190815260200160002060020160009054906101000a900460ff16151514611a51576040517f08c379a0000000000000000000000000000000000000000000000000000000008152600401611a4890614932565b60405180910390fd5b6000600860003373ffffffffffffffffffffffffffffffffffffffff1673ffffffffffffffffffffffffffffffffffffffff16815260200190815260200160002060008473ffffffffffffffffffffffffffffffffffffffff1673ffffffffffffffffffffffffffffffffffffffff16815260200190815260200160002060009054906101000a900460ff1690506000151581151514611b26576040517f08c379a0000000000000000000000000000000000000000000000000000000008152600401611b1d9061499e565b60405180910390fd5b600660008473ffffffffffffffffffffffffffffffffffffffff1673ffffffffffffffffffffffffffffffffffffffff168152602001908152602001600020600080820160006101000a81549073ffffffffffffffffffffffffffffffffffffffff0219169055600182016000611b9d9190613ccc565b6002820160006101000a81549060ff02191690556002820160016101000a81549073ffffffffffffffffffffffffffffffffffffffff0219169055600382016000611be89190613ccc565b600482016000611bf89190613ccc565b60058201600090555050600484604051611c12919061480d565b908152602001604051809103902060006101000a81549073ffffffffffffffffffffffffffffffffffffffff0219169055600782604051611c53919061480d565b908152602001604051809103902060006101000a81549073ffffffffffffffffffffffffffffffffffffffff0219169055600860003373ffffffffffffffffffffffffffffffffffffffff1673ffffffffffffffffffffffffffffffffffffffff16815260200190815260200160002060008473ffffffffffffffffffffffffffffffffffffffff1673ffffffffffffffffffffffffffffffffffffffff16815260200190815260200160002060006101000a81549060ff02191690557fe444442b4fc5a03103c68bde16932de23949be11145d1b4707d817bfb50557388484604051611d41929190614890565b60405180910390a150505050565b611d58826118bf565b611d6181612ac9565b611d6b8383612add565b505050565b611d7a8282610939565b6000600660003373ffffffffffffffffffffffffffffffffffffffff1673ffffffffffffffffffffffffffffffffffffffff16815260200190815260200160002060020160009054906101000a900460ff1690506000151581151514611e15576040517f08c379a0000000000000000000000000000000000000000000000000000000008152600401611e0c90614a0a565b60405180910390fd5b611e1e33612bbd565b505050565b611e2b612ef7565b73ffffffffffffffffffffffffffffffffffffffff168173ffffffffffffffffffffffffffffffffffffffff1614611e98576040517f08c379a0000000000000000000000000000000000000000000000000000000008152600401611e8f90614a9c565b60405180910390fd5b611ea28282612eff565b5050565b7fcea62fe6ecc79e221c545bf918f804693c542ead2549e37c2bb9baa66ee2e15781565b611ed78585858585612fe1565b5050505050565b60086020528160005260406000206020528060005260406000206000915091509054906101000a900460ff1681565b6000600254905090565b611f2081612bbd565b50565b60007fcea62fe6ecc79e221c545bf918f804693c542ead2549e37c2bb9baa66ee2e157905090565b60606000611f5883610f37565b90508060200151915050919050565b6007818051602081018201805184825260208301602085012081835280955050505050506000915054906101000a900473ffffffffffffffffffffffffffffffffffffffff1681565b611fb8613377565b611fc260006133f5565b565b6060600560008381526020019081526020016000208054611fe4906147a0565b80601f0160208091040260200160405190810160405280929190818152602001828054612010906147a0565b801561205d5780601f106120325761010080835404028352916020019161205d565b820191906000526020600020905b81548152906001019060200180831161204057829003601f168201915b50505050509050919050565b6004818051602081018201805184825260208301602085012081835280955050505050506000915054906101000a900473ffffffffffffffffffffffffffffffffffffffff1681565b600033905060025434146120fb576040517f08c379a00000000000000000000000000000000000000000000000000000000081526004016120f290614b08565b60405180910390fd5b600060078560405161210d919061480d565b908152602001604051809103902060009054906101000a900473ffffffffffffffffffffffffffffffffffffffff1690506000612149846128f6565b90506040518060e001604052808473ffffffffffffffffffffffffffffffffffffffff1681526020018981526020016000151581526020018373ffffffffffffffffffffffffffffffffffffffff16815260200188815260200186815260200182815250600660003373ffffffffffffffffffffffffffffffffffffffff1673ffffffffffffffffffffffffffffffffffffffff16815260200190815260200160002060008201518160000160006101000a81548173ffffffffffffffffffffffffffffffffffffffff021916908373ffffffffffffffffffffffffffffffffffffffff16021790555060208201518160010190816122489190614cd4565b5060408201518160020160006101000a81548160ff02191690831515021790555060608201518160020160016101000a81548173ffffffffffffffffffffffffffffffffffffffff021916908373ffffffffffffffffffffffffffffffffffffffff16021790555060808201518160030190816122c59190614cd4565b5060a08201518160040190816122db9190614cd4565b5060c082015181600501559050506000600360009054906101000a900473ffffffffffffffffffffffffffffffffffffffff1673ffffffffffffffffffffffffffffffffffffffff1660025460405161233390614dd7565b60006040518083038185875af1925050503d8060008114612370576040519150601f19603f3d011682016040523d82523d6000602084013e612375565b606091505b50509050806123b9576040517f08c379a00000000000000000000000000000000000000000000000000000000081526004016123b090614e38565b60405180910390fd5b6123c689858a8a89612fe1565b8273ffffffffffffffffffffffffffffffffffffffff167f435b683210e9cdb43126109baed7a6a387c609e0e13532755b51016e1b773a6b8a3360405161240e929190614890565b60405180910390a28273ffffffffffffffffffffffffffffffffffffffff167f71ec84cb0c406d66954dcb2481d75f63a94ed77283afa5657d56e68a20df3c528a3360405161245e929190614890565b60405180910390a26000600860008573ffffffffffffffffffffffffffffffffffffffff1673ffffffffffffffffffffffffffffffffffffffff16815260200190815260200160002060003373ffffffffffffffffffffffffffffffffffffffff1673ffffffffffffffffffffffffffffffffffffffff16815260200190815260200160002060006101000a81548160ff021916908315150217905550505050505050505050565b60008060009054906101000a900473ffffffffffffffffffffffffffffffffffffffff16905090565b60006001600084815260200190815260200160002060000160008373ffffffffffffffffffffffffffffffffffffffff1673ffffffffffffffffffffffffffffffffffffffff16815260200190815260200160002060009054906101000a900460ff16905092915050565b60006007826040516125ac919061480d565b908152602001604051809103902060009054906101000a900473ffffffffffffffffffffffffffffffffffffffff1690503373ffffffffffffffffffffffffffffffffffffffff168173ffffffffffffffffffffffffffffffffffffffff161461264b576040517f08c379a000000000000000000000000000000000000000000000000000000000815260040161264290614ea4565b60405180910390fd5b600061265684610eef565b90506000600860008473ffffffffffffffffffffffffffffffffffffffff1673ffffffffffffffffffffffffffffffffffffffff16815260200190815260200160002060008373ffffffffffffffffffffffffffffffffffffffff1673ffffffffffffffffffffffffffffffffffffffff16815260200190815260200160002060009054906101000a900460ff169050600015158115151461272d576040517f08c379a000000000000000000000000000000000000000000000000000000000815260040161272490614f10565b60405180910390fd5b6001600660008473ffffffffffffffffffffffffffffffffffffffff1673ffffffffffffffffffffffffffffffffffffffff16815260200190815260200160002060020160006101000a81548160ff02191690831515021790555033600660008473ffffffffffffffffffffffffffffffffffffffff1673ffffffffffffffffffffffffffffffffffffffff16815260200190815260200160002060020160016101000a81548173ffffffffffffffffffffffffffffffffffffffff021916908373ffffffffffffffffffffffffffffffffffffffff1602179055506001600860008573ffffffffffffffffffffffffffffffffffffffff1673ffffffffffffffffffffffffffffffffffffffff16815260200190815260200160002060008473ffffffffffffffffffffffffffffffffffffffff1673ffffffffffffffffffffffffffffffffffffffff16815260200190815260200160002060006101000a81548160ff0219169083151502179055508173ffffffffffffffffffffffffffffffffffffffff167fadbeb0a5d66e2be993428864e5c86f7c8aa562e2c58131d193ac2eeb7443817a8460016040516128e7929190614f30565b60405180910390a25050505050565b6000816040516020016129099190614098565b604051602081830303815290604052805190602001209050919050565b6000801b81565b6060600061293a83610f37565b905060008160a0015190508092505050919050565b61295b848484846134b9565b50505050565b6000600782604051612973919061480d565b908152602001604051809103902060009054906101000a900473ffffffffffffffffffffffffffffffffffffffff169050919050565b6129b1613377565b8060028190555050565b6129c4826118bf565b6129cd81612ac9565b6129d78383612eff565b505050565b6129e4613377565b600073ffffffffffffffffffffffffffffffffffffffff168173ffffffffffffffffffffffffffffffffffffffff1603612a53576040517f08c379a0000000000000000000000000000000000000000000000000000000008152600401612a4a90614fcb565b60405180910390fd5b612a5c816133f5565b50565b60007f01ffc9a7000000000000000000000000000000000000000000000000000000007bffffffffffffffffffffffffffffffffffffffffffffffffffffffff1916827bffffffffffffffffffffffffffffffffffffffffffffffffffffffff1916149050919050565b612ada81612ad5612ef7565b613970565b50565b612ae7828261252f565b612bb957600180600084815260200190815260200160002060000160008373ffffffffffffffffffffffffffffffffffffffff1673ffffffffffffffffffffffffffffffffffffffff16815260200190815260200160002060006101000a81548160ff021916908315150217905550612b5e612ef7565b73ffffffffffffffffffffffffffffffffffffffff168173ffffffffffffffffffffffffffffffffffffffff16837f2f8788117e7eff1d82e926ec794901d17c78024a50270940304540a733656f0d60405160405180910390a45b5050565b6000600660008373ffffffffffffffffffffffffffffffffffffffff1673ffffffffffffffffffffffffffffffffffffffff1681526020019081526020016000206001018054612c0c906147a0565b80601f0160208091040260200160405190810160405280929190818152602001828054612c38906147a0565b8015612c855780601f10612c5a57610100808354040283529160200191612c85565b820191906000526020600020905b815481529060010190602001808311612c6857829003601f168201915b505050505090506000600660008473ffffffffffffffffffffffffffffffffffffffff1673ffffffffffffffffffffffffffffffffffffffff1681526020019081526020016000206003018054612cdb906147a0565b80601f0160208091040260200160405190810160405280929190818152602001828054612d07906147a0565b8015612d545780601f10612d2957610100808354040283529160200191612d54565b820191906000526020600020905b815481529060010190602001808311612d3757829003601f168201915b50505050509050600660008473ffffffffffffffffffffffffffffffffffffffff1673ffffffffffffffffffffffffffffffffffffffff168152602001908152602001600020600080820160006101000a81549073ffffffffffffffffffffffffffffffffffffffff0219169055600182016000612dd29190613ccc565b6002820160006101000a81549060ff02191690556002820160016101000a81549073ffffffffffffffffffffffffffffffffffffffff0219169055600382016000612e1d9190613ccc565b600482016000612e2d9190613ccc565b60058201600090555050600482604051612e47919061480d565b908152602001604051809103902060006101000a81549073ffffffffffffffffffffffffffffffffffffffff0219169055600781604051612e88919061480d565b908152602001604051809103902060006101000a81549073ffffffffffffffffffffffffffffffffffffffff02191690557fe444442b4fc5a03103c68bde16932de23949be11145d1b4707d817bfb50557388284604051612eea929190614890565b60405180910390a1505050565b600033905090565b612f09828261252f565b15612fdd5760006001600084815260200190815260200160002060000160008373ffffffffffffffffffffffffffffffffffffffff1673ffffffffffffffffffffffffffffffffffffffff16815260200190815260200160002060006101000a81548160ff021916908315150217905550612f82612ef7565b73ffffffffffffffffffffffffffffffffffffffff168173ffffffffffffffffffffffffffffffffffffffff16837ff6391f5c32d9c69d2a47ea670b442974b53935d1edc7fd64eb21e047a839171b60405160405180910390a45b5050565b6000612fec826128f6565b9050600073ffffffffffffffffffffffffffffffffffffffff16600487604051613016919061480d565b908152602001604051809103902060009054906101000a900473ffffffffffffffffffffffffffffffffffffffff1673ffffffffffffffffffffffffffffffffffffffff161461309b576040517f08c379a00000000000000000000000000000000000000000000000000000000081526004016130929061505d565b60405180910390fd5b60006005600083815260200190815260200160002080546130bb906147a0565b9050146130fd576040517f08c379a00000000000000000000000000000000000000000000000000000000081526004016130f4906150c9565b60405180910390fd5b6000600960009054906101000a900473ffffffffffffffffffffffffffffffffffffffff1673ffffffffffffffffffffffffffffffffffffffff1663a430c74486866040518363ffffffff1660e01b815260040161315c9291906150e9565b602060405180830381865afa158015613179573d6000803e3d6000fd5b505050506040513d601f19601f8201168201806040525081019061319d919061514c565b905060011515811515146131e6576040517f08c379a00000000000000000000000000000000000000000000000000000000081526004016131dd906151c5565b60405180910390fd5b600073ffffffffffffffffffffffffffffffffffffffff1660078660405161320e919061480d565b908152602001604051809103902060009054906101000a900473ffffffffffffffffffffffffffffffffffffffff1673ffffffffffffffffffffffffffffffffffffffff1614613293576040517f08c379a000000000000000000000000000000000000000000000000000000000815260040161328a90615231565b60405180910390fd5b866005600084815260200190815260200160002090816132b39190614cd4565b50856004886040516132c5919061480d565b908152602001604051809103902060006101000a81548173ffffffffffffffffffffffffffffffffffffffff021916908373ffffffffffffffffffffffffffffffffffffffff16021790555085600786604051613322919061480d565b908152602001604051809103902060006101000a81548173ffffffffffffffffffffffffffffffffffffffff021916908373ffffffffffffffffffffffffffffffffffffffff16021790555050505050505050565b61337f612ef7565b73ffffffffffffffffffffffffffffffffffffffff1661339d612506565b73ffffffffffffffffffffffffffffffffffffffff16146133f3576040517f08c379a00000000000000000000000000000000000000000000000000000000081526004016133ea9061529d565b60405180910390fd5b565b60008060009054906101000a900473ffffffffffffffffffffffffffffffffffffffff169050816000806101000a81548173ffffffffffffffffffffffffffffffffffffffff021916908373ffffffffffffffffffffffffffffffffffffffff1602179055508173ffffffffffffffffffffffffffffffffffffffff168173ffffffffffffffffffffffffffffffffffffffff167f8be0079c531659141344cd1fd0a4f28419497f9722a3daafe3b4186f6b6457e060405160405180910390a35050565b836004846040516134ca919061480d565b908152602001604051809103902060006101000a81548173ffffffffffffffffffffffffffffffffffffffff021916908373ffffffffffffffffffffffffffffffffffffffff16021790555083600760405161352590615309565b908152602001604051809103902060006101000a81548173ffffffffffffffffffffffffffffffffffffffff021916908373ffffffffffffffffffffffffffffffffffffffff160217905550600061357c826128f6565b90506040518060e001604052808673ffffffffffffffffffffffffffffffffffffffff1681526020018581526020016001151581526020018673ffffffffffffffffffffffffffffffffffffffff1681526020016040518060400160405280600481526020017f4164616d00000000000000000000000000000000000000000000000000000000815250815260200184815260200182815250600660008773ffffffffffffffffffffffffffffffffffffffff1673ffffffffffffffffffffffffffffffffffffffff16815260200190815260200160002060008201518160000160006101000a81548173ffffffffffffffffffffffffffffffffffffffff021916908373ffffffffffffffffffffffffffffffffffffffff16021790555060208201518160010190816136b09190614cd4565b5060408201518160020160006101000a81548160ff02191690831515021790555060608201518160020160016101000a81548173ffffffffffffffffffffffffffffffffffffffff021916908373ffffffffffffffffffffffffffffffffffffffff160217905550608082015181600301908161372d9190614cd4565b5060a08201518160040190816137439190614cd4565b5060c082015181600501559050506001600660008773ffffffffffffffffffffffffffffffffffffffff1673ffffffffffffffffffffffffffffffffffffffff16815260200190815260200160002060020160006101000a81548160ff02191690831515021790555033600660008773ffffffffffffffffffffffffffffffffffffffff1673ffffffffffffffffffffffffffffffffffffffff16815260200190815260200160002060020160016101000a81548173ffffffffffffffffffffffffffffffffffffffff021916908373ffffffffffffffffffffffffffffffffffffffff160217905550600061386d6040518060400160405280600181526020017f3000000000000000000000000000000000000000000000000000000000000000815250612961565b90506001600860008373ffffffffffffffffffffffffffffffffffffffff1673ffffffffffffffffffffffffffffffffffffffff16815260200190815260200160002060008873ffffffffffffffffffffffffffffffffffffffff1673ffffffffffffffffffffffffffffffffffffffff16815260200190815260200160002060006101000a81548160ff021916908315150217905550846005600084815260200190815260200160002090816139249190614cd4565b508573ffffffffffffffffffffffffffffffffffffffff167f908408e307fc569b417f6cbec5d5a06f44a0a505ac0479b47d421a4b2fd6a1e660405160405180910390a2505050505050565b61397a828261252f565b6139f157613987816139f5565b6139958360001c6020613a22565b6040516020016139a69291906153b6565b6040516020818303038152906040526040517f08c379a00000000000000000000000000000000000000000000000000000000081526004016139e89190614098565b60405180910390fd5b5050565b6060613a1b8273ffffffffffffffffffffffffffffffffffffffff16601460ff16613a22565b9050919050565b606060006002836002613a35919061541f565b613a3f9190615461565b67ffffffffffffffff811115613a5857613a57613d58565b5b6040519080825280601f01601f191660200182016040528015613a8a5781602001600182028036833780820191505090505b5090507f300000000000000000000000000000000000000000000000000000000000000081600081518110613ac257613ac1615495565b5b60200101907effffffffffffffffffffffffffffffffffffffffffffffffffffffffffffff1916908160001a9053507f780000000000000000000000000000000000000000000000000000000000000081600181518110613b2657613b25615495565b5b60200101907effffffffffffffffffffffffffffffffffffffffffffffffffffffffffffff1916908160001a90535060006001846002613b66919061541f565b613b709190615461565b90505b6001811115613c10577f3031323334353637383961626364656600000000000000000000000000000000600f861660108110613bb257613bb1615495565b5b1a60f81b828281518110613bc957613bc8615495565b5b60200101907effffffffffffffffffffffffffffffffffffffffffffffffffffffffffffff1916908160001a905350600485901c945080613c09906154c4565b9050613b73565b5060008414613c54576040517f08c379a0000000000000000000000000000000000000000000000000000000008152600401613c4b90615539565b60405180910390fd5b8091505092915050565b6040518060e00160405280600073ffffffffffffffffffffffffffffffffffffffff16815260200160608152602001600015158152602001600073ffffffffffffffffffffffffffffffffffffffff1681526020016060815260200160608152602001600080191681525090565b508054613cd8906147a0565b6000825580601f10613cea5750613d09565b601f016020900490600052602060002090810190613d089190613d0c565b5b50565b5b80821115613d25576000816000905550600101613d0d565b5090565b6000604051905090565b600080fd5b600080fd5b600080fd5b600080fd5b6000601f19601f8301169050919050565b7f4e487b7100000000000000000000000000000000000000000000000000000000600052604160045260246000fd5b613d9082613d47565b810181811067ffffffffffffffff82111715613daf57613dae613d58565b5b80604052505050565b6000613dc2613d29565b9050613dce8282613d87565b919050565b600067ffffffffffffffff821115613dee57613ded613d58565b5b613df782613d47565b9050602081019050919050565b82818337600083830152505050565b6000613e26613e2184613dd3565b613db8565b905082815260208101848484011115613e4257613e41613d42565b5b613e4d848285613e04565b509392505050565b600082601f830112613e6a57613e69613d3d565b5b8135613e7a848260208601613e13565b91505092915050565b60008060408385031215613e9a57613e99613d33565b5b600083013567ffffffffffffffff811115613eb857613eb7613d38565b5b613ec485828601613e55565b925050602083013567ffffffffffffffff811115613ee557613ee4613d38565b5b613ef185828601613e55565b9150509250929050565b60007fffffffff0000000000000000000000000000000000000000000000000000000082169050919050565b613f3081613efb565b8114613f3b57600080fd5b50565b600081359050613f4d81613f27565b92915050565b600060208284031215613f6957613f68613d33565b5b6000613f7784828501613f3e565b91505092915050565b60008115159050919050565b613f9581613f80565b82525050565b6000602082019050613fb06000830184613f8c565b92915050565b6000819050919050565b613fc981613fb6565b8114613fd457600080fd5b50565b600081359050613fe681613fc0565b92915050565b60006020828403121561400257614001613d33565b5b600061401084828501613fd7565b91505092915050565b600081519050919050565b600082825260208201905092915050565b60005b83811015614053578082015181840152602081019050614038565b60008484015250505050565b600061406a82614019565b6140748185614024565b9350614084818560208601614035565b61408d81613d47565b840191505092915050565b600060208201905081810360008301526140b2818461405f565b905092915050565b600073ffffffffffffffffffffffffffffffffffffffff82169050919050565b60006140e5826140ba565b9050919050565b6140f5816140da565b82525050565b600060208201905061411060008301846140ec565b92915050565b60006020828403121561412c5761412b613d33565b5b600082013567ffffffffffffffff81111561414a57614149613d38565b5b61415684828501613e55565b91505092915050565b614168816140da565b82525050565b600082825260208201905092915050565b600061418a82614019565b614194818561416e565b93506141a4818560208601614035565b6141ad81613d47565b840191505092915050565b6141c181613f80565b82525050565b6141d081613fb6565b82525050565b600060e0830160008301516141ee600086018261415f565b5060208301518482036020860152614206828261417f565b915050604083015161421b60408601826141b8565b50606083015161422e606086018261415f565b5060808301518482036080860152614246828261417f565b91505060a083015184820360a0860152614260828261417f565b91505060c083015161427560c08601826141c7565b508091505092915050565b6000602082019050818103600083015261429a81846141d6565b905092915050565b6142ab816140da565b81146142b657600080fd5b50565b6000813590506142c8816142a2565b92915050565b6000602082840312156142e4576142e3613d33565b5b60006142f2848285016142b9565b91505092915050565b61430481613fb6565b82525050565b600060208201905061431f60008301846142fb565b92915050565b6000806040838503121561433c5761433b613d33565b5b600061434a85828601613fd7565b925050602061435b858286016142b9565b9150509250929050565b600080600080600060a0868803121561438157614380613d33565b5b600086013567ffffffffffffffff81111561439f5761439e613d38565b5b6143ab88828901613e55565b95505060206143bc888289016142b9565b945050604086013567ffffffffffffffff8111156143dd576143dc613d38565b5b6143e988828901613e55565b935050606086013567ffffffffffffffff81111561440a57614409613d38565b5b61441688828901613e55565b925050608086013567ffffffffffffffff81111561443757614436613d38565b5b61444388828901613e55565b9150509295509295909350565b6000806040838503121561446757614466613d33565b5b6000614475858286016142b9565b9250506020614486858286016142b9565b9150509250929050565b6000819050919050565b6144a381614490565b82525050565b60006020820190506144be600083018461449a565b92915050565b600080600080600060a086880312156144e0576144df613d33565b5b600086013567ffffffffffffffff8111156144fe576144fd613d38565b5b61450a88828901613e55565b955050602086013567ffffffffffffffff81111561452b5761452a613d38565b5b61453788828901613e55565b945050604086013567ffffffffffffffff81111561455857614557613d38565b5b61456488828901613e55565b935050606086013567ffffffffffffffff81111561458557614584613d38565b5b61459188828901613e55565b925050608086013567ffffffffffffffff8111156145b2576145b1613d38565b5b6145be88828901613e55565b9150509295509295909350565b600080600080608085870312156145e5576145e4613d33565b5b60006145f3878288016142b9565b945050602085013567ffffffffffffffff81111561461457614613613d38565b5b61462087828801613e55565b935050604085013567ffffffffffffffff81111561464157614640613d38565b5b61464d87828801613e55565b925050606085013567ffffffffffffffff81111561466e5761466d613d38565b5b61467a87828801613e55565b91505092959194509250565b61468f81614490565b811461469a57600080fd5b50565b6000813590506146ac81614686565b92915050565b6000602082840312156146c8576146c7613d33565b5b60006146d68482850161469d565b91505092915050565b7f757365727320616c6c6f776564206f6e6c7920746f20636c656172207468656d60008201527f73656c6673000000000000000000000000000000000000000000000000000000602082015250565b600061473b602583614024565b9150614746826146df565b604082019050919050565b6000602082019050818103600083015261476a8161472e565b9050919050565b7f4e487b7100000000000000000000000000000000000000000000000000000000600052602260045260246000fd5b600060028204905060018216806147b857607f821691505b6020821081036147cb576147ca614771565b5b50919050565b600081905092915050565b60006147e782614019565b6147f181856147d1565b9350614801818560208601614035565b80840191505092915050565b600061481982846147dc565b915081905092915050565b7f746573746e6574206f6e6c790000000000000000000000000000000000000000600082015250565b600061485a600c83614024565b915061486582614824565b602082019050919050565b600060208201905081810360008301526148898161484d565b9050919050565b600060408201905081810360008301526148aa818561405f565b90506148b960208301846140ec565b9392505050565b7f616c726561647920617070726f766564204f5220646f206e6f7420657869737460008201527f7320796574000000000000000000000000000000000000000000000000000000602082015250565b600061491c602583614024565b9150614927826148c0565b604082019050919050565b6000602082019050818103600083015261494b8161490f565b9050919050565b7f616c7265616479206c696e6b6564204f5220646f6e7420657869737473000000600082015250565b6000614988601d83614024565b915061499382614952565b602082019050919050565b600060208201905081810360008301526149b78161497b565b9050919050565b7f63616e277420636c65617220636861696e000000000000000000000000000000600082015250565b60006149f4601183614024565b91506149ff826149be565b602082019050919050565b60006020820190508181036000830152614a23816149e7565b9050919050565b7f416363657373436f6e74726f6c3a2063616e206f6e6c792072656e6f756e636560008201527f20726f6c657320666f722073656c660000000000000000000000000000000000602082015250565b6000614a86602f83614024565b9150614a9182614a2a565b604082019050919050565b60006020820190508181036000830152614ab581614a79565b9050919050565b7f5265717565737420666565206973206e6f742070616964000000000000000000600082015250565b6000614af2601783614024565b9150614afd82614abc565b602082019050919050565b60006020820190508181036000830152614b2181614ae5565b9050919050565b60008190508160005260206000209050919050565b60006020601f8301049050919050565b600082821b905092915050565b600060088302614b8a7fffffffffffffffffffffffffffffffffffffffffffffffffffffffffffffffff82614b4d565b614b948683614b4d565b95508019841693508086168417925050509392505050565b6000819050919050565b6000614bd1614bcc614bc784614490565b614bac565b614490565b9050919050565b6000819050919050565b614beb83614bb6565b614bff614bf782614bd8565b848454614b5a565b825550505050565b600090565b614c14614c07565b614c1f818484614be2565b505050565b5b81811015614c4357614c38600082614c0c565b600181019050614c25565b5050565b601f821115614c8857614c5981614b28565b614c6284614b3d565b81016020851015614c71578190505b614c85614c7d85614b3d565b830182614c24565b50505b505050565b600082821c905092915050565b6000614cab60001984600802614c8d565b1980831691505092915050565b6000614cc48383614c9a565b9150826002028217905092915050565b614cdd82614019565b67ffffffffffffffff811115614cf657614cf5613d58565b5b614d0082546147a0565b614d0b828285614c47565b600060209050601f831160018114614d3e5760008415614d2c578287015190505b614d368582614cb8565b865550614d9e565b601f198416614d4c86614b28565b60005b82811015614d7457848901518255600182019150602085019450602081019050614d4f565b86831015614d915784890151614d8d601f891682614c9a565b8355505b6001600288020188555050505b505050505050565b600081905092915050565b50565b6000614dc1600083614da6565b9150614dcc82614db1565b600082019050919050565b6000614de282614db4565b9150819050919050565b7f556e61626c6520746f207472616e736665722066656500000000000000000000600082015250565b6000614e22601683614024565b9150614e2d82614dec565b602082019050919050565b60006020820190508181036000830152614e5181614e15565b9050919050565b7f6f6e6c7920706172656e745f6e616d652063616e206163636570742069740000600082015250565b6000614e8e601e83614024565b9150614e9982614e58565b602082019050919050565b60006020820190508181036000830152614ebd81614e81565b9050919050565b7f616c726561647920726567697374726564000000000000000000000000000000600082015250565b6000614efa601183614024565b9150614f0582614ec4565b602082019050919050565b60006020820190508181036000830152614f2981614eed565b9050919050565b6000604082019050614f4560008301856140ec565b614f526020830184613f8c565b9392505050565b7f4f776e61626c653a206e6577206f776e657220697320746865207a65726f206160008201527f6464726573730000000000000000000000000000000000000000000000000000602082015250565b6000614fb5602683614024565b9150614fc082614f59565b604082019050919050565b60006020820190508181036000830152614fe481614fa8565b9050919050565b7f5468657265206973206164647265737320636f6e6e656374656420746f20746860008201527f617420494420616c726561647900000000000000000000000000000000000000602082015250565b6000615047602d83614024565b915061505282614feb565b604082019050919050565b600060208201905081810360008301526150768161503a565b9050919050565b7f5468697320706c61696e5f696420616c72656164792072656769737472656400600082015250565b60006150b3601f83614024565b91506150be8261507d565b602082019050919050565b600060208201905081810360008301526150e2816150a6565b9050919050565b60006040820190508181036000830152615103818561405f565b90508181036020830152615117818461405f565b90509392505050565b61512981613f80565b811461513457600080fd5b50565b60008151905061514681615120565b92915050565b60006020828403121561516257615161613d33565b5b600061517084828501615137565b91505092915050565b7f64696374696f6e617279206572726f7200000000000000000000000000000000600082015250565b60006151af601083614024565b91506151ba82615179565b602082019050919050565b600060208201905081810360008301526151de816151a2565b9050919050565b7f636f64656e616d652074616b656e000000000000000000000000000000000000600082015250565b600061521b600e83614024565b9150615226826151e5565b602082019050919050565b6000602082019050818103600083015261524a8161520e565b9050919050565b7f4f776e61626c653a2063616c6c6572206973206e6f7420746865206f776e6572600082015250565b6000615287602083614024565b915061529282615251565b602082019050919050565b600060208201905081810360008301526152b68161527a565b9050919050565b7f4164616d00000000000000000000000000000000000000000000000000000000600082015250565b60006152f36004836147d1565b91506152fe826152bd565b600482019050919050565b6000615314826152e6565b9150819050919050565b7f416363657373436f6e74726f6c3a206163636f756e7420000000000000000000600082015250565b60006153546017836147d1565b915061535f8261531e565b601782019050919050565b7f206973206d697373696e6720726f6c6520000000000000000000000000000000600082015250565b60006153a06011836147d1565b91506153ab8261536a565b601182019050919050565b60006153c182615347565b91506153cd82856147dc565b91506153d882615393565b91506153e482846147dc565b91508190509392505050565b7f4e487b7100000000000000000000000000000000000000000000000000000000600052601160045260246000fd5b600061542a82614490565b915061543583614490565b925082820261544381614490565b9150828204841483151761545a576154596153f0565b5b5092915050565b600061546c82614490565b915061547783614490565b925082820190508082111561548f5761548e6153f0565b5b92915050565b7f4e487b7100000000000000000000000000000000000000000000000000000000600052603260045260246000fd5b60006154cf82614490565b9150600082036154e2576154e16153f0565b5b600182039050919050565b7f537472696e67733a20686578206c656e67746820696e73756666696369656e74600082015250565b6000615523602083614024565b915061552e826154ed565b602082019050919050565b6000602082019050818103600083015261555281615516565b905091905056fea26469706673582212200935d711cac0a6ac9275cdd29d2876840a4e31792a6f30cebbd208c2905163a964736f6c634300081100337a6a58436a3969757365336748476141494967796169434f734a705157534345424261632f7a50477267513d",
  "linkReferences": {},
  "deployedLinkReferences": {}
}