{
  "_format": "hh-sol-artifact-1",
  "contractName": "Leg10nMock",
  "sourceName": "contracts/mocks/Leg10nMock.sol",
  "abi": [
    {
      "inputs": [
        {
          "internalType": "address",
          "name": "turing_",
          "type": "address"
        },
        {
          "internalType": "address",
          "name": "admin_",
          "type": "address"
        },
        {
          "internalType": "string",
          "name": "tgid_",
          "type": "string"
        },
        {
          "internalType": "string",
          "name": "public_key_",
          "type": "string"
        }
      ],
      "stateMutability": "nonpayable",
      "type": "constructor"
    },
    {
      "anonymous": false,
      "inputs": [
        {
          "indexed": true,
          "internalType": "address",
          "name": "admin",
          "type": "address"
        }
      ],
      "name": "Initialized",
      "type": "event"
    },
    {
      "anonymous": false,
      "inputs": [
        {
          "indexed": true,
          "internalType": "address",
          "name": "previousOwner",
          "type": "address"
        },
        {
          "indexed": true,
          "internalType": "address",
          "name": "newOwner",
          "type": "address"
        }
      ],
      "name": "OwnershipTransferred",
      "type": "event"
    },
    {
      "anonymous": false,
      "inputs": [
        {
          "indexed": true,
          "internalType": "bytes32",
          "name": "role",
          "type": "bytes32"
        },
        {
          "indexed": true,
          "internalType": "bytes32",
          "name": "previousAdminRole",
          "type": "bytes32"
        },
        {
          "indexed": true,
          "internalType": "bytes32",
          "name": "newAdminRole",
          "type": "bytes32"
        }
      ],
      "name": "RoleAdminChanged",
      "type": "event"
    },
    {
      "anonymous": false,
      "inputs": [
        {
          "indexed": true,
          "internalType": "bytes32",
          "name": "role",
          "type": "bytes32"
        },
        {
          "indexed": true,
          "internalType": "address",
          "name": "account",
          "type": "address"
        },
        {
          "indexed": true,
          "internalType": "address",
          "name": "sender",
          "type": "address"
        }
      ],
      "name": "RoleGranted",
      "type": "event"
    },
    {
      "anonymous": false,
      "inputs": [
        {
          "indexed": true,
          "internalType": "bytes32",
          "name": "role",
          "type": "bytes32"
        },
        {
          "indexed": true,
          "internalType": "address",
          "name": "account",
          "type": "address"
        },
        {
          "indexed": true,
          "internalType": "address",
          "name": "sender",
          "type": "address"
        }
      ],
      "name": "RoleRevoked",
      "type": "event"
    },
    {
      "anonymous": false,
      "inputs": [
        {
          "indexed": false,
          "internalType": "string",
          "name": "applyerTg",
          "type": "string"
        },
        {
          "indexed": false,
          "internalType": "address",
          "name": "wallet_address",
          "type": "address"
        },
        {
          "indexed": true,
          "internalType": "address",
          "name": "parent_address",
          "type": "address"
        }
      ],
      "name": "joinRequested",
      "type": "event"
    },
    {
      "anonymous": false,
      "inputs": [
        {
          "indexed": false,
          "internalType": "string",
          "name": "applyerTg",
          "type": "string"
        },
        {
          "indexed": false,
          "internalType": "address",
          "name": "wallet_address",
          "type": "address"
        },
        {
          "indexed": true,
          "internalType": "address",
          "name": "parent_address",
          "type": "address"
        }
      ],
      "name": "joinRequestedIndexedTG",
      "type": "event"
    },
    {
      "anonymous": false,
      "inputs": [
        {
          "indexed": false,
          "internalType": "address",
          "name": "high_node",
          "type": "address"
        },
        {
          "indexed": true,
          "internalType": "address",
          "name": "low_node",
          "type": "address"
        },
        {
          "indexed": false,
          "internalType": "bool",
          "name": "pravda",
          "type": "bool"
        }
      ],
      "name": "relationChanged",
      "type": "event"
    },
    {
      "anonymous": false,
      "inputs": [
        {
          "indexed": true,
          "internalType": "string",
          "name": "applyerTg",
          "type": "string"
        },
        {
          "indexed": false,
          "internalType": "address",
          "name": "user_address",
          "type": "address"
        },
        {
          "indexed": false,
          "internalType": "address",
          "name": "parent_address",
          "type": "address"
        }
      ],
      "name": "requestAccepted",
      "type": "event"
    },
    {
      "anonymous": false,
      "inputs": [
        {
          "indexed": false,
          "internalType": "string",
          "name": "applyerTg",
          "type": "string"
        },
        {
          "indexed": false,
          "internalType": "address",
          "name": "wallet",
          "type": "address"
        }
      ],
      "name": "requestDenied",
      "type": "event"
    },
    {
      "inputs": [
        {
          "internalType": "string",
          "name": "applyerTg",
          "type": "string"
        },
        {
          "internalType": "string",
          "name": "parent_name",
          "type": "string"
        }
      ],
      "name": "AcceptJoin",
      "outputs": [],
      "stateMutability": "nonpayable",
      "type": "function"
    },
    {
      "inputs": [
        {
          "internalType": "string",
          "name": "parent_name",
          "type": "string"
        },
        {
          "internalType": "string",
          "name": "child_name",
          "type": "string"
        }
      ],
      "name": "ClearParent",
      "outputs": [],
      "stateMutability": "nonpayable",
      "type": "function"
    },
    {
      "inputs": [],
      "name": "DEFAULT_ADMIN_ROLE",
      "outputs": [
        {
          "internalType": "bytes32",
          "name": "",
          "type": "bytes32"
        }
      ],
      "stateMutability": "view",
      "type": "function"
    },
    {
      "inputs": [
        {
          "internalType": "string",
          "name": "tgid",
          "type": "string"
        }
      ],
      "name": "DeclineRequest",
      "outputs": [],
      "stateMutability": "nonpayable",
      "type": "function"
    },
    {
      "inputs": [],
      "name": "GetOwner",
      "outputs": [
        {
          "internalType": "address",
          "name": "",
          "type": "address"
        }
      ],
      "stateMutability": "view",
      "type": "function"
    },
    {
      "inputs": [],
      "name": "GetPassportFee",
      "outputs": [
        {
          "internalType": "uint256",
          "name": "",
          "type": "uint256"
        }
      ],
      "stateMutability": "view",
      "type": "function"
    },
    {
      "inputs": [
        {
          "internalType": "address",
          "name": "user_address",
          "type": "address"
        }
      ],
      "name": "GetPublicKeyByAddress",
      "outputs": [
        {
          "internalType": "string",
          "name": "",
          "type": "string"
        }
      ],
      "stateMutability": "view",
      "type": "function"
    },
    {
      "inputs": [
        {
          "internalType": "address",
          "name": "user_wallet",
          "type": "address"
        }
      ],
      "name": "GetTgIdByAddress",
      "outputs": [
        {
          "internalType": "string",
          "name": "tgid",
          "type": "string"
        }
      ],
      "stateMutability": "view",
      "type": "function"
    },
    {
      "inputs": [
        {
          "internalType": "address",
          "name": "user_wallet",
          "type": "address"
        }
      ],
      "name": "GetUserByAddress",
      "outputs": [
        {
          "components": [
            {
              "internalType": "address",
              "name": "userAddress",
              "type": "address"
            },
            {
              "internalType": "string",
              "name": "tgId",
              "type": "string"
            },
            {
              "internalType": "bool",
              "name": "valid",
              "type": "bool"
            },
            {
              "internalType": "address",
              "name": "validatorAddress",
              "type": "address"
            },
            {
              "internalType": "string",
              "name": "codeName",
              "type": "string"
            },
            {
              "internalType": "string",
              "name": "public_key",
              "type": "string"
            }
          ],
          "internalType": "struct Leg10n.User",
          "name": "",
          "type": "tuple"
        }
      ],
      "stateMutability": "view",
      "type": "function"
    },
    {
      "inputs": [
        {
          "internalType": "string",
          "name": "user_name_",
          "type": "string"
        }
      ],
      "name": "GetUserByNickName",
      "outputs": [
        {
          "components": [
            {
              "internalType": "address",
              "name": "userAddress",
              "type": "address"
            },
            {
              "internalType": "string",
              "name": "tgId",
              "type": "string"
            },
            {
              "internalType": "bool",
              "name": "valid",
              "type": "bool"
            },
            {
              "internalType": "address",
              "name": "validatorAddress",
              "type": "address"
            },
            {
              "internalType": "string",
              "name": "codeName",
              "type": "string"
            },
            {
              "internalType": "string",
              "name": "public_key",
              "type": "string"
            }
          ],
          "internalType": "struct Leg10n.User",
          "name": "",
          "type": "tuple"
        }
      ],
      "stateMutability": "view",
      "type": "function"
    },
    {
      "inputs": [
        {
          "internalType": "string",
          "name": "tgId_",
          "type": "string"
        }
      ],
      "name": "GetUserByTgId",
      "outputs": [
        {
          "components": [
            {
              "internalType": "address",
              "name": "userAddress",
              "type": "address"
            },
            {
              "internalType": "string",
              "name": "tgId",
              "type": "string"
            },
            {
              "internalType": "bool",
              "name": "valid",
              "type": "bool"
            },
            {
              "internalType": "address",
              "name": "validatorAddress",
              "type": "address"
            },
            {
              "internalType": "string",
              "name": "codeName",
              "type": "string"
            },
            {
              "internalType": "string",
              "name": "public_key",
              "type": "string"
            }
          ],
          "internalType": "struct Leg10n.User",
          "name": "",
          "type": "tuple"
        }
      ],
      "stateMutability": "view",
      "type": "function"
    },
    {
      "inputs": [
        {
          "internalType": "string",
          "name": "tgId_",
          "type": "string"
        }
      ],
      "name": "GetUserWalletByID",
      "outputs": [
        {
          "internalType": "address",
          "name": "",
          "type": "address"
        }
      ],
      "stateMutability": "view",
      "type": "function"
    },
    {
      "inputs": [
        {
          "internalType": "string",
          "name": "user_name_",
          "type": "string"
        }
      ],
      "name": "GetWalletByNickName",
      "outputs": [
        {
          "internalType": "address",
          "name": "",
          "type": "address"
        }
      ],
      "stateMutability": "view",
      "type": "function"
    },
    {
      "inputs": [
        {
          "internalType": "string",
          "name": "applyerTg",
          "type": "string"
        },
        {
          "internalType": "string",
          "name": "code_name_",
          "type": "string"
        },
        {
          "internalType": "string",
          "name": "parent_name",
          "type": "string"
        },
        {
          "internalType": "string",
          "name": "public_key",
          "type": "string"
        }
      ],
      "name": "RequestJoin",
      "outputs": [],
      "stateMutability": "payable",
      "type": "function"
    },
    {
      "inputs": [
        {
          "internalType": "uint256",
          "name": "passportFee_",
          "type": "uint256"
        }
      ],
      "name": "SetPassportFee",
      "outputs": [],
      "stateMutability": "nonpayable",
      "type": "function"
    },
    {
      "inputs": [
        {
          "internalType": "address",
          "name": "",
          "type": "address"
        },
        {
          "internalType": "address",
          "name": "",
          "type": "address"
        }
      ],
      "name": "chain",
      "outputs": [
        {
          "internalType": "bool",
          "name": "",
          "type": "bool"
        }
      ],
      "stateMutability": "view",
      "type": "function"
    },
    {
      "inputs": [
        {
          "internalType": "string",
          "name": "",
          "type": "string"
        }
      ],
      "name": "codename_wallets",
      "outputs": [
        {
          "internalType": "address",
          "name": "",
          "type": "address"
        }
      ],
      "stateMutability": "view",
      "type": "function"
    },
    {
      "inputs": [
        {
          "internalType": "address",
          "name": "user_address",
          "type": "address"
        }
      ],
      "name": "deleteUser",
      "outputs": [],
      "stateMutability": "nonpayable",
      "type": "function"
    },
    {
      "inputs": [],
      "name": "deleteYourSelf",
      "outputs": [],
      "stateMutability": "nonpayable",
      "type": "function"
    },
    {
      "inputs": [
        {
          "internalType": "address",
          "name": "user_address",
          "type": "address"
        }
      ],
      "name": "devDeleteUser",
      "outputs": [],
      "stateMutability": "nonpayable",
      "type": "function"
    },
    {
      "inputs": [
        {
          "internalType": "address",
          "name": "admin_",
          "type": "address"
        },
        {
          "internalType": "string",
          "name": "tgid_",
          "type": "string"
        },
        {
          "internalType": "string",
          "name": "public_key_",
          "type": "string"
        }
      ],
      "name": "devInitAdmin",
      "outputs": [],
      "stateMutability": "nonpayable",
      "type": "function"
    },
    {
      "inputs": [],
      "name": "getModeratorIdentifier",
      "outputs": [
        {
          "internalType": "bytes32",
          "name": "",
          "type": "bytes32"
        }
      ],
      "stateMutability": "pure",
      "type": "function"
    },
    {
      "inputs": [
        {
          "internalType": "bytes32",
          "name": "role",
          "type": "bytes32"
        }
      ],
      "name": "getRoleAdmin",
      "outputs": [
        {
          "internalType": "bytes32",
          "name": "",
          "type": "bytes32"
        }
      ],
      "stateMutability": "view",
      "type": "function"
    },
    {
      "inputs": [
        {
          "internalType": "bytes32",
          "name": "role",
          "type": "bytes32"
        },
        {
          "internalType": "address",
          "name": "account",
          "type": "address"
        }
      ],
      "name": "grantRole",
      "outputs": [],
      "stateMutability": "nonpayable",
      "type": "function"
    },
    {
      "inputs": [
        {
          "internalType": "bytes32",
          "name": "role",
          "type": "bytes32"
        },
        {
          "internalType": "address",
          "name": "account",
          "type": "address"
        }
      ],
      "name": "hasRole",
      "outputs": [
        {
          "internalType": "bool",
          "name": "",
          "type": "bool"
        }
      ],
      "stateMutability": "view",
      "type": "function"
    },
    {
      "inputs": [],
      "name": "moderator",
      "outputs": [
        {
          "internalType": "bytes32",
          "name": "",
          "type": "bytes32"
        }
      ],
      "stateMutability": "view",
      "type": "function"
    },
    {
      "inputs": [],
      "name": "owner",
      "outputs": [
        {
          "internalType": "address",
          "name": "",
          "type": "address"
        }
      ],
      "stateMutability": "view",
      "type": "function"
    },
    {
      "inputs": [],
      "name": "renounceOwnership",
      "outputs": [],
      "stateMutability": "nonpayable",
      "type": "function"
    },
    {
      "inputs": [
        {
          "internalType": "bytes32",
          "name": "role",
          "type": "bytes32"
        },
        {
          "internalType": "address",
          "name": "account",
          "type": "address"
        }
      ],
      "name": "renounceRole",
      "outputs": [],
      "stateMutability": "nonpayable",
      "type": "function"
    },
    {
      "inputs": [
        {
          "internalType": "bytes32",
          "name": "role",
          "type": "bytes32"
        },
        {
          "internalType": "address",
          "name": "account",
          "type": "address"
        }
      ],
      "name": "revokeRole",
      "outputs": [],
      "stateMutability": "nonpayable",
      "type": "function"
    },
    {
      "inputs": [
        {
          "internalType": "bytes4",
          "name": "interfaceId",
          "type": "bytes4"
        }
      ],
      "name": "supportsInterface",
      "outputs": [
        {
          "internalType": "bool",
          "name": "",
          "type": "bool"
        }
      ],
      "stateMutability": "view",
      "type": "function"
    },
    {
      "inputs": [
        {
          "internalType": "string",
          "name": "",
          "type": "string"
        }
      ],
      "name": "tgIdToAddress",
      "outputs": [
        {
          "internalType": "address",
          "name": "",
          "type": "address"
        }
      ],
      "stateMutability": "view",
      "type": "function"
    },
    {
      "inputs": [
        {
          "internalType": "address",
          "name": "newOwner",
          "type": "address"
        }
      ],
      "name": "transferOwnership",
      "outputs": [],
      "stateMutability": "nonpayable",
      "type": "function"
    },
    {
      "inputs": [
        {
          "internalType": "string",
          "name": "tgId",
          "type": "string"
        },
        {
          "internalType": "address",
          "name": "userAddress",
          "type": "address"
        },
        {
          "internalType": "string",
          "name": "code_name_",
          "type": "string"
        },
        {
          "internalType": "string",
          "name": "parent_name",
          "type": "string"
        }
      ],
      "name": "updateAddress",
      "outputs": [],
      "stateMutability": "nonpayable",
      "type": "function"
    }
  ],
  "bytecode": "0x60806040523480156200001157600080fd5b506040516200628238038062006282833981810160405281019062000037919062000d84565b838383836200005b6200004f6200046860201b60201c565b6200047060201b60201c565b66071afd498d0000600281905550620000796200053460201b60201c565b600360006101000a81548173ffffffffffffffffffffffffffffffffffffffff021916908373ffffffffffffffffffffffffffffffffffffffff160217905550620000ce6000801b336200055d60201b60201c565b620001007fcea62fe6ecc79e221c545bf918f804693c542ead2549e37c2bb9baa66ee2e157336200055d60201b60201c565b83600860006101000a81548173ffffffffffffffffffffffffffffffffffffffff021916908373ffffffffffffffffffffffffffffffffffffffff1602179055503360048360405162000154919062000e81565b908152602001604051809103902060006101000a81548173ffffffffffffffffffffffffffffffffffffffff021916908373ffffffffffffffffffffffffffffffffffffffff160217905550336006604051620001b19062000eea565b908152602001604051809103902060006101000a81548173ffffffffffffffffffffffffffffffffffffffff021916908373ffffffffffffffffffffffffffffffffffffffff1602179055506040518060c001604052803373ffffffffffffffffffffffffffffffffffffffff1681526020018381526020016001151581526020013373ffffffffffffffffffffffffffffffffffffffff1681526020016040518060400160405280600181526020017f300000000000000000000000000000000000000000000000000000000000000081525081526020016040518060600160405280602c815260200162006256602c9139815250600560003373ffffffffffffffffffffffffffffffffffffffff1673ffffffffffffffffffffffffffffffffffffffff16815260200190815260200160002060008201518160000160006101000a81548173ffffffffffffffffffffffffffffffffffffffff021916908373ffffffffffffffffffffffffffffffffffffffff160217905550602082015181600101908162000344919062001141565b5060408201518160020160006101000a81548160ff02191690831515021790555060608201518160020160016101000a81548173ffffffffffffffffffffffffffffffffffffffff021916908373ffffffffffffffffffffffffffffffffffffffff1602179055506080820151816003019081620003c3919062001141565b5060a0820151816004019081620003db919062001141565b50905050600073ffffffffffffffffffffffffffffffffffffffff168373ffffffffffffffffffffffffffffffffffffffff160362000446576200044033836040518060600160405280602c815260200162006256602c91396200064e60201b60201c565b6200045a565b620004598383836200064e60201b60201c565b5b50505050505050506200128f565b600033905090565b60008060009054906101000a900473ffffffffffffffffffffffffffffffffffffffff169050816000806101000a81548173ffffffffffffffffffffffffffffffffffffffff021916908373ffffffffffffffffffffffffffffffffffffffff1602179055508173ffffffffffffffffffffffffffffffffffffffff168173ffffffffffffffffffffffffffffffffffffffff167f8be0079c531659141344cd1fd0a4f28419497f9722a3daafe3b4186f6b6457e060405160405180910390a35050565b60008060009054906101000a900473ffffffffffffffffffffffffffffffffffffffff16905090565b6200056f828262000ad760201b60201c565b6200064a57600180600084815260200190815260200160002060000160008373ffffffffffffffffffffffffffffffffffffffff1673ffffffffffffffffffffffffffffffffffffffff16815260200190815260200160002060006101000a81548160ff021916908315150217905550620005ef6200046860201b60201c565b73ffffffffffffffffffffffffffffffffffffffff168173ffffffffffffffffffffffffffffffffffffffff16837f2f8788117e7eff1d82e926ec794901d17c78024a50270940304540a733656f0d60405160405180910390a45b5050565b8260048360405162000661919062000e81565b908152602001604051809103902060006101000a81548173ffffffffffffffffffffffffffffffffffffffff021916908373ffffffffffffffffffffffffffffffffffffffff160217905550826006604051620006be9062001278565b908152602001604051809103902060006101000a81548173ffffffffffffffffffffffffffffffffffffffff021916908373ffffffffffffffffffffffffffffffffffffffff1602179055506040518060c001604052808473ffffffffffffffffffffffffffffffffffffffff1681526020018381526020016001151581526020018473ffffffffffffffffffffffffffffffffffffffff1681526020016040518060400160405280600481526020017f4164616d00000000000000000000000000000000000000000000000000000000815250815260200182815250600560008573ffffffffffffffffffffffffffffffffffffffff1673ffffffffffffffffffffffffffffffffffffffff16815260200190815260200160002060008201518160000160006101000a81548173ffffffffffffffffffffffffffffffffffffffff021916908373ffffffffffffffffffffffffffffffffffffffff160217905550602082015181600101908162000838919062001141565b5060408201518160020160006101000a81548160ff02191690831515021790555060608201518160020160016101000a81548173ffffffffffffffffffffffffffffffffffffffff021916908373ffffffffffffffffffffffffffffffffffffffff1602179055506080820151816003019081620008b7919062001141565b5060a0820151816004019081620008cf919062001141565b509050506001600560008573ffffffffffffffffffffffffffffffffffffffff1673ffffffffffffffffffffffffffffffffffffffff16815260200190815260200160002060020160006101000a81548160ff02191690831515021790555033600560008573ffffffffffffffffffffffffffffffffffffffff1673ffffffffffffffffffffffffffffffffffffffff16815260200190815260200160002060020160016101000a81548173ffffffffffffffffffffffffffffffffffffffff021916908373ffffffffffffffffffffffffffffffffffffffff1602179055506000620009f76040518060400160405280600181526020017f300000000000000000000000000000000000000000000000000000000000000081525062000b4260201b60201c565b90506001600760008373ffffffffffffffffffffffffffffffffffffffff1673ffffffffffffffffffffffffffffffffffffffff16815260200190815260200160002060008673ffffffffffffffffffffffffffffffffffffffff1673ffffffffffffffffffffffffffffffffffffffff16815260200190815260200160002060006101000a81548160ff0219169083151502179055508373ffffffffffffffffffffffffffffffffffffffff167f908408e307fc569b417f6cbec5d5a06f44a0a505ac0479b47d421a4b2fd6a1e660405160405180910390a250505050565b60006001600084815260200190815260200160002060000160008373ffffffffffffffffffffffffffffffffffffffff1673ffffffffffffffffffffffffffffffffffffffff16815260200190815260200160002060009054906101000a900460ff16905092915050565b600060068260405162000b56919062000e81565b908152602001604051809103902060009054906101000a900473ffffffffffffffffffffffffffffffffffffffff169050919050565b6000604051905090565b600080fd5b600080fd5b600073ffffffffffffffffffffffffffffffffffffffff82169050919050565b600062000bcd8262000ba0565b9050919050565b62000bdf8162000bc0565b811462000beb57600080fd5b50565b60008151905062000bff8162000bd4565b92915050565b600080fd5b600080fd5b6000601f19601f8301169050919050565b7f4e487b7100000000000000000000000000000000000000000000000000000000600052604160045260246000fd5b62000c5a8262000c0f565b810181811067ffffffffffffffff8211171562000c7c5762000c7b62000c20565b5b80604052505050565b600062000c9162000b8c565b905062000c9f828262000c4f565b919050565b600067ffffffffffffffff82111562000cc25762000cc162000c20565b5b62000ccd8262000c0f565b9050602081019050919050565b60005b8381101562000cfa57808201518184015260208101905062000cdd565b60008484015250505050565b600062000d1d62000d178462000ca4565b62000c85565b90508281526020810184848401111562000d3c5762000d3b62000c0a565b5b62000d4984828562000cda565b509392505050565b600082601f83011262000d695762000d6862000c05565b5b815162000d7b84826020860162000d06565b91505092915050565b6000806000806080858703121562000da15762000da062000b96565b5b600062000db18782880162000bee565b945050602062000dc48782880162000bee565b935050604085015167ffffffffffffffff81111562000de85762000de762000b9b565b5b62000df68782880162000d51565b925050606085015167ffffffffffffffff81111562000e1a5762000e1962000b9b565b5b62000e288782880162000d51565b91505092959194509250565b600081519050919050565b600081905092915050565b600062000e578262000e34565b62000e63818562000e3f565b935062000e7581856020860162000cda565b80840191505092915050565b600062000e8f828462000e4a565b915081905092915050565b7f3000000000000000000000000000000000000000000000000000000000000000600082015250565b600062000ed260018362000e3f565b915062000edf8262000e9a565b600182019050919050565b600062000ef78262000ec3565b9150819050919050565b7f4e487b7100000000000000000000000000000000000000000000000000000000600052602260045260246000fd5b6000600282049050600182168062000f4957607f821691505b60208210810362000f5f5762000f5e62000f01565b5b50919050565b60008190508160005260206000209050919050565b60006020601f8301049050919050565b600082821b905092915050565b60006008830262000fc97fffffffffffffffffffffffffffffffffffffffffffffffffffffffffffffffff8262000f8a565b62000fd5868362000f8a565b95508019841693508086168417925050509392505050565b6000819050919050565b6000819050919050565b6000620010226200101c620010168462000fed565b62000ff7565b62000fed565b9050919050565b6000819050919050565b6200103e8362001001565b620010566200104d8262001029565b84845462000f97565b825550505050565b600090565b6200106d6200105e565b6200107a81848462001033565b505050565b5b81811015620010a2576200109660008262001063565b60018101905062001080565b5050565b601f821115620010f157620010bb8162000f65565b620010c68462000f7a565b81016020851015620010d6578190505b620010ee620010e58562000f7a565b8301826200107f565b50505b505050565b600082821c905092915050565b60006200111660001984600802620010f6565b1980831691505092915050565b600062001131838362001103565b9150826002028217905092915050565b6200114c8262000e34565b67ffffffffffffffff81111562001168576200116762000c20565b5b62001174825462000f30565b62001181828285620010a6565b600060209050601f831160018114620011b95760008415620011a4578287015190505b620011b0858262001123565b86555062001220565b601f198416620011c98662000f65565b60005b82811015620011f357848901518255600182019150602085019450602081019050620011cc565b868310156200121357848901516200120f601f89168262001103565b8355505b6001600288020188555050505b505050505050565b7f4164616d00000000000000000000000000000000000000000000000000000000600082015250565b60006200126060048362000e3f565b91506200126d8262001228565b600482019050919050565b6000620012858262001251565b9150819050919050565b614fb7806200129f6000396000f3fe6080604052600436106101f95760003560e01c80635c60f2261161010d57806391d14854116100a0578063c54080c51161006f578063c54080c51461077b578063d2114e1814610797578063d2125bd2146107d4578063d547741f146107fd578063f2fde38b14610826576101f9565b806391d14854146106ad5780639b45179f146106ea578063a217fddf14610713578063b932fbfa1461073e576101f9565b80636e312028116100dc5780636e312028146105f1578063715018a61461062e57806386e81ba5146106455780638da5cb5b14610682576101f9565b80635c60f226146105495780635d1ce88f1461057257806361cabe371461059d578063679b06be146105da576101f9565b8063248a9ca311610190578063310c10b71161015f578063310c10b71461046457806336568abe1461048d57806338743904146104b6578063460e6c9c146104e157806348dc15611461051e576101f9565b8063248a9ca3146103ac578063281056df146103e9578063286b2e54146104125780632f2ff15d1461043b576101f9565b806315905bdd116101cc57806315905bdd146102cc5780631892fd78146103095780631a519ce8146103465780632067eac814610383576101f9565b8063018d3dc9146101fe57806301ffc9a7146102275780630ae50a39146102645780630d48cae81461028f575b600080fd5b34801561020a57600080fd5b5061022560048036038101906102209190613a35565b61084f565b005b34801561023357600080fd5b5061024e60048036038101906102499190613b05565b6109cd565b60405161025b9190613b4d565b60405180910390f35b34801561027057600080fd5b50610279610a47565b6040516102869190613ba9565b60405180910390f35b34801561029b57600080fd5b506102b660048036038101906102b19190613bc4565b610a71565b6040516102c39190613d41565b60405180910390f35b3480156102d857600080fd5b506102f360048036038101906102ee9190613bc4565b610d5b565b6040516103009190613ba9565b60405180910390f35b34801561031557600080fd5b50610330600480360381019061032b9190613d8f565b610da3565b60405161033d9190613d41565b60405180910390f35b34801561035257600080fd5b5061036d60048036038101906103689190613bc4565b61107f565b60405161037a9190613d41565b60405180910390f35b34801561038f57600080fd5b506103aa60048036038101906103a59190613d8f565b611369565b005b3480156103b857600080fd5b506103d360048036038101906103ce9190613df2565b61170f565b6040516103e09190613e2e565b60405180910390f35b3480156103f557600080fd5b50610410600480360381019061040b9190613e49565b61172f565b005b34801561041e57600080fd5b5061043960048036038101906104349190613bc4565b611741565b005b34801561044757600080fd5b50610462600480360381019061045d9190613f04565b611ba9565b005b34801561047057600080fd5b5061048b60048036038101906104869190613f44565b611bca565b005b34801561049957600080fd5b506104b460048036038101906104af9190613f04565b611bda565b005b3480156104c257600080fd5b506104cb611c5d565b6040516104d89190613e2e565b60405180910390f35b3480156104ed57600080fd5b5061050860048036038101906105039190613fcf565b611c81565b6040516105159190613b4d565b60405180910390f35b34801561052a57600080fd5b50610533611cb0565b6040516105409190614028565b60405180910390f35b34801561055557600080fd5b50610570600480360381019061056b9190613d8f565b611cba565b005b34801561057e57600080fd5b50610587611cc6565b6040516105949190613e2e565b60405180910390f35b3480156105a957600080fd5b506105c460048036038101906105bf9190613d8f565b611cee565b6040516105d1919061408d565b60405180910390f35b3480156105e657600080fd5b506105ef611d0a565b005b3480156105fd57600080fd5b5061061860048036038101906106139190613bc4565b611db1565b6040516106259190613ba9565b60405180910390f35b34801561063a57600080fd5b50610643611dfa565b005b34801561065157600080fd5b5061066c60048036038101906106679190613bc4565b611e0e565b6040516106799190613ba9565b60405180910390f35b34801561068e57600080fd5b50610697611e57565b6040516106a49190613ba9565b60405180910390f35b3480156106b957600080fd5b506106d460048036038101906106cf9190613f04565b611e80565b6040516106e19190613b4d565b60405180910390f35b3480156106f657600080fd5b50610711600480360381019061070c9190613a35565b611eeb565b005b34801561071f57600080fd5b50610728612247565b6040516107359190613e2e565b60405180910390f35b34801561074a57600080fd5b5061076560048036038101906107609190613d8f565b61224e565b604051610772919061408d565b60405180910390f35b610795600480360381019061079091906140af565b612270565b005b3480156107a357600080fd5b506107be60048036038101906107b99190613bc4565b6126a4565b6040516107cb9190613ba9565b60405180910390f35b3480156107e057600080fd5b506107fb60048036038101906107f691906141b2565b6126ec565b005b34801561080957600080fd5b50610824600480360381019061081f9190613f04565b6126fe565b005b34801561083257600080fd5b5061084d60048036038101906108489190613d8f565b61271f565b005b600061085a826126a4565b90506000610867846126a4565b90503373ffffffffffffffffffffffffffffffffffffffff168273ffffffffffffffffffffffffffffffffffffffff16146108d7576040517f08c379a00000000000000000000000000000000000000000000000000000000081526004016108ce90614251565b60405180910390fd5b6000600560008473ffffffffffffffffffffffffffffffffffffffff1673ffffffffffffffffffffffffffffffffffffffff16815260200190815260200160002060020160006101000a81548160ff0219169083151502179055506000600760008373ffffffffffffffffffffffffffffffffffffffff1673ffffffffffffffffffffffffffffffffffffffff16815260200190815260200160002060003373ffffffffffffffffffffffffffffffffffffffff1673ffffffffffffffffffffffffffffffffffffffff16815260200190815260200160002060006101000a81548160ff02191690831515021790555050505050565b60007f7965db0b000000000000000000000000000000000000000000000000000000007bffffffffffffffffffffffffffffffffffffffffffffffffffffffff1916827bffffffffffffffffffffffffffffffffffffffffffffffffffffffff19161480610a405750610a3f826127a2565b5b9050919050565b6000600360009054906101000a900473ffffffffffffffffffffffffffffffffffffffff16905090565b610a7961381a565b6000610a84836126a4565b90506000600560008373ffffffffffffffffffffffffffffffffffffffff1673ffffffffffffffffffffffffffffffffffffffff1681526020019081526020016000206040518060c00160405290816000820160009054906101000a900473ffffffffffffffffffffffffffffffffffffffff1673ffffffffffffffffffffffffffffffffffffffff1673ffffffffffffffffffffffffffffffffffffffff168152602001600182018054610b38906142a0565b80601f0160208091040260200160405190810160405280929190818152602001828054610b64906142a0565b8015610bb15780601f10610b8657610100808354040283529160200191610bb1565b820191906000526020600020905b815481529060010190602001808311610b9457829003601f168201915b505050505081526020016002820160009054906101000a900460ff161515151581526020016002820160019054906101000a900473ffffffffffffffffffffffffffffffffffffffff1673ffffffffffffffffffffffffffffffffffffffff1673ffffffffffffffffffffffffffffffffffffffff168152602001600382018054610c3b906142a0565b80601f0160208091040260200160405190810160405280929190818152602001828054610c67906142a0565b8015610cb45780601f10610c8957610100808354040283529160200191610cb4565b820191906000526020600020905b815481529060010190602001808311610c9757829003601f168201915b50505050508152602001600482018054610ccd906142a0565b80601f0160208091040260200160405190810160405280929190818152602001828054610cf9906142a0565b8015610d465780601f10610d1b57610100808354040283529160200191610d46565b820191906000526020600020905b815481529060010190602001808311610d2957829003601f168201915b50505050508152505090508092505050919050565b6000600482604051610d6d919061430d565b908152602001604051809103902060009054906101000a900473ffffffffffffffffffffffffffffffffffffffff169050919050565b610dab61381a565b6000600560008473ffffffffffffffffffffffffffffffffffffffff1673ffffffffffffffffffffffffffffffffffffffff1681526020019081526020016000206040518060c00160405290816000820160009054906101000a900473ffffffffffffffffffffffffffffffffffffffff1673ffffffffffffffffffffffffffffffffffffffff1673ffffffffffffffffffffffffffffffffffffffff168152602001600182018054610e5d906142a0565b80601f0160208091040260200160405190810160405280929190818152602001828054610e89906142a0565b8015610ed65780601f10610eab57610100808354040283529160200191610ed6565b820191906000526020600020905b815481529060010190602001808311610eb957829003601f168201915b505050505081526020016002820160009054906101000a900460ff161515151581526020016002820160019054906101000a900473ffffffffffffffffffffffffffffffffffffffff1673ffffffffffffffffffffffffffffffffffffffff1673ffffffffffffffffffffffffffffffffffffffff168152602001600382018054610f60906142a0565b80601f0160208091040260200160405190810160405280929190818152602001828054610f8c906142a0565b8015610fd95780601f10610fae57610100808354040283529160200191610fd9565b820191906000526020600020905b815481529060010190602001808311610fbc57829003601f168201915b50505050508152602001600482018054610ff2906142a0565b80601f016020809104026020016040519081016040528092919081815260200182805461101e906142a0565b801561106b5780601f106110405761010080835404028352916020019161106b565b820191906000526020600020905b81548152906001019060200180831161104e57829003601f168201915b505050505081525050905080915050919050565b61108761381a565b600061109283610d5b565b90506000600560008373ffffffffffffffffffffffffffffffffffffffff1673ffffffffffffffffffffffffffffffffffffffff1681526020019081526020016000206040518060c00160405290816000820160009054906101000a900473ffffffffffffffffffffffffffffffffffffffff1673ffffffffffffffffffffffffffffffffffffffff1673ffffffffffffffffffffffffffffffffffffffff168152602001600182018054611146906142a0565b80601f0160208091040260200160405190810160405280929190818152602001828054611172906142a0565b80156111bf5780601f10611194576101008083540402835291602001916111bf565b820191906000526020600020905b8154815290600101906020018083116111a257829003601f168201915b505050505081526020016002820160009054906101000a900460ff161515151581526020016002820160019054906101000a900473ffffffffffffffffffffffffffffffffffffffff1673ffffffffffffffffffffffffffffffffffffffff1673ffffffffffffffffffffffffffffffffffffffff168152602001600382018054611249906142a0565b80601f0160208091040260200160405190810160405280929190818152602001828054611275906142a0565b80156112c25780601f10611297576101008083540402835291602001916112c2565b820191906000526020600020905b8154815290600101906020018083116112a557829003601f168201915b505050505081526020016004820180546112db906142a0565b80601f0160208091040260200160405190810160405280929190818152602001828054611307906142a0565b80156113545780601f1061132957610100808354040283529160200191611354565b820191906000526020600020905b81548152906001019060200180831161133757829003601f168201915b50505050508152505090508092505050919050565b7fcea62fe6ecc79e221c545bf918f804693c542ead2549e37c2bb9baa66ee2e1576113938161280c565b6000600560008473ffffffffffffffffffffffffffffffffffffffff1673ffffffffffffffffffffffffffffffffffffffff16815260200190815260200160002060010180546113e2906142a0565b80601f016020809104026020016040519081016040528092919081815260200182805461140e906142a0565b801561145b5780601f106114305761010080835404028352916020019161145b565b820191906000526020600020905b81548152906001019060200180831161143e57829003601f168201915b505050505090506000600560008573ffffffffffffffffffffffffffffffffffffffff1673ffffffffffffffffffffffffffffffffffffffff16815260200190815260200160002060030180546114b1906142a0565b80601f01602080910402602001604051908101604052809291908181526020018280546114dd906142a0565b801561152a5780601f106114ff5761010080835404028352916020019161152a565b820191906000526020600020905b81548152906001019060200180831161150d57829003601f168201915b50505050509050600046905060058114611579576040517f08c379a000000000000000000000000000000000000000000000000000000000815260040161157090614370565b60405180910390fd5b600560008673ffffffffffffffffffffffffffffffffffffffff1673ffffffffffffffffffffffffffffffffffffffff168152602001908152602001600020600080820160006101000a81549073ffffffffffffffffffffffffffffffffffffffff02191690556001820160006115f0919061387e565b6002820160006101000a81549060ff02191690556002820160016101000a81549073ffffffffffffffffffffffffffffffffffffffff021916905560038201600061163b919061387e565b60048201600061164b919061387e565b505060048360405161165d919061430d565b908152602001604051809103902060006101000a81549073ffffffffffffffffffffffffffffffffffffffff021916905560068260405161169e919061430d565b908152602001604051809103902060006101000a81549073ffffffffffffffffffffffffffffffffffffffff02191690557fe444442b4fc5a03103c68bde16932de23949be11145d1b4707d817bfb50557388386604051611700929190614390565b60405180910390a15050505050565b600060016000838152602001908152602001600020600101549050919050565b61173b84848484612820565b50505050565b600061174c82610d5b565b90506000600560008373ffffffffffffffffffffffffffffffffffffffff1673ffffffffffffffffffffffffffffffffffffffff168152602001908152602001600020600301805461179d906142a0565b80601f01602080910402602001604051908101604052809291908181526020018280546117c9906142a0565b80156118165780601f106117eb57610100808354040283529160200191611816565b820191906000526020600020905b8154815290600101906020018083116117f957829003601f168201915b5050505050905060001515600560008473ffffffffffffffffffffffffffffffffffffffff1673ffffffffffffffffffffffffffffffffffffffff16815260200190815260200160002060020160009054906101000a900460ff161515146118b3576040517f08c379a00000000000000000000000000000000000000000000000000000000081526004016118aa90614432565b60405180910390fd5b6000600760003373ffffffffffffffffffffffffffffffffffffffff1673ffffffffffffffffffffffffffffffffffffffff16815260200190815260200160002060008473ffffffffffffffffffffffffffffffffffffffff1673ffffffffffffffffffffffffffffffffffffffff16815260200190815260200160002060009054906101000a900460ff1690506000151581151514611988576040517f08c379a000000000000000000000000000000000000000000000000000000000815260040161197f9061449e565b60405180910390fd5b600560008473ffffffffffffffffffffffffffffffffffffffff1673ffffffffffffffffffffffffffffffffffffffff168152602001908152602001600020600080820160006101000a81549073ffffffffffffffffffffffffffffffffffffffff02191690556001820160006119ff919061387e565b6002820160006101000a81549060ff02191690556002820160016101000a81549073ffffffffffffffffffffffffffffffffffffffff0219169055600382016000611a4a919061387e565b600482016000611a5a919061387e565b5050600484604051611a6c919061430d565b908152602001604051809103902060006101000a81549073ffffffffffffffffffffffffffffffffffffffff0219169055600682604051611aad919061430d565b908152602001604051809103902060006101000a81549073ffffffffffffffffffffffffffffffffffffffff0219169055600760003373ffffffffffffffffffffffffffffffffffffffff1673ffffffffffffffffffffffffffffffffffffffff16815260200190815260200160002060008473ffffffffffffffffffffffffffffffffffffffff1673ffffffffffffffffffffffffffffffffffffffff16815260200190815260200160002060006101000a81549060ff02191690557fe444442b4fc5a03103c68bde16932de23949be11145d1b4707d817bfb50557388484604051611b9b929190614390565b60405180910390a150505050565b611bb28261170f565b611bbb8161280c565b611bc58383612a77565b505050565b611bd5838383612b57565b505050565b611be2612fce565b73ffffffffffffffffffffffffffffffffffffffff168173ffffffffffffffffffffffffffffffffffffffff1614611c4f576040517f08c379a0000000000000000000000000000000000000000000000000000000008152600401611c4690614530565b60405180910390fd5b611c598282612fd6565b5050565b7fcea62fe6ecc79e221c545bf918f804693c542ead2549e37c2bb9baa66ee2e15781565b60076020528160005260406000206020528060005260406000206000915091509054906101000a900460ff1681565b6000600254905090565b611cc3816130b8565b50565b60007fcea62fe6ecc79e221c545bf918f804693c542ead2549e37c2bb9baa66ee2e157905090565b60606000611cfb83610da3565b90508060200151915050919050565b6000600560003373ffffffffffffffffffffffffffffffffffffffff1673ffffffffffffffffffffffffffffffffffffffff16815260200190815260200160002060020160009054906101000a900460ff1690506000151581151514611da5576040517f08c379a0000000000000000000000000000000000000000000000000000000008152600401611d9c9061459c565b60405180910390fd5b611dae336130b8565b50565b6006818051602081018201805184825260208301602085012081835280955050505050506000915054906101000a900473ffffffffffffffffffffffffffffffffffffffff1681565b611e026133ea565b611e0c6000613468565b565b6004818051602081018201805184825260208301602085012081835280955050505050506000915054906101000a900473ffffffffffffffffffffffffffffffffffffffff1681565b60008060009054906101000a900473ffffffffffffffffffffffffffffffffffffffff16905090565b60006001600084815260200190815260200160002060000160008373ffffffffffffffffffffffffffffffffffffffff1673ffffffffffffffffffffffffffffffffffffffff16815260200190815260200160002060009054906101000a900460ff16905092915050565b6000600682604051611efd919061430d565b908152602001604051809103902060009054906101000a900473ffffffffffffffffffffffffffffffffffffffff1690503373ffffffffffffffffffffffffffffffffffffffff168173ffffffffffffffffffffffffffffffffffffffff1614611f9c576040517f08c379a0000000000000000000000000000000000000000000000000000000008152600401611f9390614608565b60405180910390fd5b6000611fa784610d5b565b90506000600760008473ffffffffffffffffffffffffffffffffffffffff1673ffffffffffffffffffffffffffffffffffffffff16815260200190815260200160002060008373ffffffffffffffffffffffffffffffffffffffff1673ffffffffffffffffffffffffffffffffffffffff16815260200190815260200160002060009054906101000a900460ff169050600015158115151461207e576040517f08c379a000000000000000000000000000000000000000000000000000000000815260040161207590614674565b60405180910390fd5b6001600560008473ffffffffffffffffffffffffffffffffffffffff1673ffffffffffffffffffffffffffffffffffffffff16815260200190815260200160002060020160006101000a81548160ff02191690831515021790555033600560008473ffffffffffffffffffffffffffffffffffffffff1673ffffffffffffffffffffffffffffffffffffffff16815260200190815260200160002060020160016101000a81548173ffffffffffffffffffffffffffffffffffffffff021916908373ffffffffffffffffffffffffffffffffffffffff1602179055506001600760008573ffffffffffffffffffffffffffffffffffffffff1673ffffffffffffffffffffffffffffffffffffffff16815260200190815260200160002060008473ffffffffffffffffffffffffffffffffffffffff1673ffffffffffffffffffffffffffffffffffffffff16815260200190815260200160002060006101000a81548160ff0219169083151502179055508173ffffffffffffffffffffffffffffffffffffffff167fadbeb0a5d66e2be993428864e5c86f7c8aa562e2c58131d193ac2eeb7443817a846001604051612238929190614694565b60405180910390a25050505050565b6000801b81565b6060600061225b83610da3565b905060008160a0015190508092505050919050565b600033905060025434146122b9576040517f08c379a00000000000000000000000000000000000000000000000000000000081526004016122b090614709565b60405180910390fd5b60006006846040516122cb919061430d565b908152602001604051809103902060009054906101000a900473ffffffffffffffffffffffffffffffffffffffff1690506040518060c001604052808373ffffffffffffffffffffffffffffffffffffffff1681526020018781526020016000151581526020018273ffffffffffffffffffffffffffffffffffffffff16815260200186815260200184815250600560003373ffffffffffffffffffffffffffffffffffffffff1673ffffffffffffffffffffffffffffffffffffffff16815260200190815260200160002060008201518160000160006101000a81548173ffffffffffffffffffffffffffffffffffffffff021916908373ffffffffffffffffffffffffffffffffffffffff16021790555060208201518160010190816123f391906148d5565b5060408201518160020160006101000a81548160ff02191690831515021790555060608201518160020160016101000a81548173ffffffffffffffffffffffffffffffffffffffff021916908373ffffffffffffffffffffffffffffffffffffffff160217905550608082015181600301908161247091906148d5565b5060a082015181600401908161248691906148d5565b509050506000600360009054906101000a900473ffffffffffffffffffffffffffffffffffffffff1673ffffffffffffffffffffffffffffffffffffffff166002546040516124d4906149d8565b60006040518083038185875af1925050503d8060008114612511576040519150601f19603f3d011682016040523d82523d6000602084013e612516565b606091505b505090508061255a576040517f08c379a000000000000000000000000000000000000000000000000000000000815260040161255190614a39565b60405180910390fd5b61256687848888612820565b8173ffffffffffffffffffffffffffffffffffffffff167f435b683210e9cdb43126109baed7a6a387c609e0e13532755b51016e1b773a6b88336040516125ae929190614390565b60405180910390a28173ffffffffffffffffffffffffffffffffffffffff167f71ec84cb0c406d66954dcb2481d75f63a94ed77283afa5657d56e68a20df3c5288336040516125fe929190614390565b60405180910390a26000600760008473ffffffffffffffffffffffffffffffffffffffff1673ffffffffffffffffffffffffffffffffffffffff16815260200190815260200160002060003373ffffffffffffffffffffffffffffffffffffffff1673ffffffffffffffffffffffffffffffffffffffff16815260200190815260200160002060006101000a81548160ff02191690831515021790555050505050505050565b60006006826040516126b6919061430d565b908152602001604051809103902060009054906101000a900473ffffffffffffffffffffffffffffffffffffffff169050919050565b6126f46133ea565b8060028190555050565b6127078261170f565b6127108161280c565b61271a8383612fd6565b505050565b6127276133ea565b600073ffffffffffffffffffffffffffffffffffffffff168173ffffffffffffffffffffffffffffffffffffffff1603612796576040517f08c379a000000000000000000000000000000000000000000000000000000000815260040161278d90614acb565b60405180910390fd5b61279f81613468565b50565b60007f01ffc9a7000000000000000000000000000000000000000000000000000000007bffffffffffffffffffffffffffffffffffffffffffffffffffffffff1916827bffffffffffffffffffffffffffffffffffffffffffffffffffffffff1916149050919050565b61281d81612818612fce565b61352c565b50565b600073ffffffffffffffffffffffffffffffffffffffff16600485604051612848919061430d565b908152602001604051809103902060009054906101000a900473ffffffffffffffffffffffffffffffffffffffff1673ffffffffffffffffffffffffffffffffffffffff16146128cd576040517f08c379a00000000000000000000000000000000000000000000000000000000081526004016128c490614b5d565b60405180910390fd5b6000600860009054906101000a900473ffffffffffffffffffffffffffffffffffffffff1673ffffffffffffffffffffffffffffffffffffffff1663a430c74484846040518363ffffffff1660e01b815260040161292c929190614b7d565b602060405180830381865afa158015612949573d6000803e3d6000fd5b505050506040513d601f19601f8201168201806040525081019061296d9190614be0565b905060011515811515146129b6576040517f08c379a00000000000000000000000000000000000000000000000000000000081526004016129ad90614c59565b60405180910390fd5b836004866040516129c7919061430d565b908152602001604051809103902060006101000a81548173ffffffffffffffffffffffffffffffffffffffff021916908373ffffffffffffffffffffffffffffffffffffffff16021790555083600684604051612a24919061430d565b908152602001604051809103902060006101000a81548173ffffffffffffffffffffffffffffffffffffffff021916908373ffffffffffffffffffffffffffffffffffffffff1602179055505050505050565b612a818282611e80565b612b5357600180600084815260200190815260200160002060000160008373ffffffffffffffffffffffffffffffffffffffff1673ffffffffffffffffffffffffffffffffffffffff16815260200190815260200160002060006101000a81548160ff021916908315150217905550612af8612fce565b73ffffffffffffffffffffffffffffffffffffffff168173ffffffffffffffffffffffffffffffffffffffff16837f2f8788117e7eff1d82e926ec794901d17c78024a50270940304540a733656f0d60405160405180910390a45b5050565b82600483604051612b68919061430d565b908152602001604051809103902060006101000a81548173ffffffffffffffffffffffffffffffffffffffff021916908373ffffffffffffffffffffffffffffffffffffffff160217905550826006604051612bc390614cc5565b908152602001604051809103902060006101000a81548173ffffffffffffffffffffffffffffffffffffffff021916908373ffffffffffffffffffffffffffffffffffffffff1602179055506040518060c001604052808473ffffffffffffffffffffffffffffffffffffffff1681526020018381526020016001151581526020018473ffffffffffffffffffffffffffffffffffffffff1681526020016040518060400160405280600481526020017f4164616d00000000000000000000000000000000000000000000000000000000815250815260200182815250600560008573ffffffffffffffffffffffffffffffffffffffff1673ffffffffffffffffffffffffffffffffffffffff16815260200190815260200160002060008201518160000160006101000a81548173ffffffffffffffffffffffffffffffffffffffff021916908373ffffffffffffffffffffffffffffffffffffffff1602179055506020820151816001019081612d3b91906148d5565b5060408201518160020160006101000a81548160ff02191690831515021790555060608201518160020160016101000a81548173ffffffffffffffffffffffffffffffffffffffff021916908373ffffffffffffffffffffffffffffffffffffffff1602179055506080820151816003019081612db891906148d5565b5060a0820151816004019081612dce91906148d5565b509050506001600560008573ffffffffffffffffffffffffffffffffffffffff1673ffffffffffffffffffffffffffffffffffffffff16815260200190815260200160002060020160006101000a81548160ff02191690831515021790555033600560008573ffffffffffffffffffffffffffffffffffffffff1673ffffffffffffffffffffffffffffffffffffffff16815260200190815260200160002060020160016101000a81548173ffffffffffffffffffffffffffffffffffffffff021916908373ffffffffffffffffffffffffffffffffffffffff1602179055506000612eee6040518060400160405280600181526020017f30000000000000000000000000000000000000000000000000000000000000008152506126a4565b90506001600760008373ffffffffffffffffffffffffffffffffffffffff1673ffffffffffffffffffffffffffffffffffffffff16815260200190815260200160002060008673ffffffffffffffffffffffffffffffffffffffff1673ffffffffffffffffffffffffffffffffffffffff16815260200190815260200160002060006101000a81548160ff0219169083151502179055508373ffffffffffffffffffffffffffffffffffffffff167f908408e307fc569b417f6cbec5d5a06f44a0a505ac0479b47d421a4b2fd6a1e660405160405180910390a250505050565b600033905090565b612fe08282611e80565b156130b45760006001600084815260200190815260200160002060000160008373ffffffffffffffffffffffffffffffffffffffff1673ffffffffffffffffffffffffffffffffffffffff16815260200190815260200160002060006101000a81548160ff021916908315150217905550613059612fce565b73ffffffffffffffffffffffffffffffffffffffff168173ffffffffffffffffffffffffffffffffffffffff16837ff6391f5c32d9c69d2a47ea670b442974b53935d1edc7fd64eb21e047a839171b60405160405180910390a45b5050565b6000600560008373ffffffffffffffffffffffffffffffffffffffff1673ffffffffffffffffffffffffffffffffffffffff1681526020019081526020016000206001018054613107906142a0565b80601f0160208091040260200160405190810160405280929190818152602001828054613133906142a0565b80156131805780601f1061315557610100808354040283529160200191613180565b820191906000526020600020905b81548152906001019060200180831161316357829003601f168201915b505050505090506000600560008473ffffffffffffffffffffffffffffffffffffffff1673ffffffffffffffffffffffffffffffffffffffff16815260200190815260200160002060030180546131d6906142a0565b80601f0160208091040260200160405190810160405280929190818152602001828054613202906142a0565b801561324f5780601f106132245761010080835404028352916020019161324f565b820191906000526020600020905b81548152906001019060200180831161323257829003601f168201915b50505050509050600560008473ffffffffffffffffffffffffffffffffffffffff1673ffffffffffffffffffffffffffffffffffffffff168152602001908152602001600020600080820160006101000a81549073ffffffffffffffffffffffffffffffffffffffff02191690556001820160006132cd919061387e565b6002820160006101000a81549060ff02191690556002820160016101000a81549073ffffffffffffffffffffffffffffffffffffffff0219169055600382016000613318919061387e565b600482016000613328919061387e565b505060048260405161333a919061430d565b908152602001604051809103902060006101000a81549073ffffffffffffffffffffffffffffffffffffffff021916905560068160405161337b919061430d565b908152602001604051809103902060006101000a81549073ffffffffffffffffffffffffffffffffffffffff02191690557fe444442b4fc5a03103c68bde16932de23949be11145d1b4707d817bfb505573882846040516133dd929190614390565b60405180910390a1505050565b6133f2612fce565b73ffffffffffffffffffffffffffffffffffffffff16613410611e57565b73ffffffffffffffffffffffffffffffffffffffff1614613466576040517f08c379a000000000000000000000000000000000000000000000000000000000815260040161345d90614d26565b60405180910390fd5b565b60008060009054906101000a900473ffffffffffffffffffffffffffffffffffffffff169050816000806101000a81548173ffffffffffffffffffffffffffffffffffffffff021916908373ffffffffffffffffffffffffffffffffffffffff1602179055508173ffffffffffffffffffffffffffffffffffffffff168173ffffffffffffffffffffffffffffffffffffffff167f8be0079c531659141344cd1fd0a4f28419497f9722a3daafe3b4186f6b6457e060405160405180910390a35050565b6135368282611e80565b6135ad57613543816135b1565b6135518360001c60206135de565b604051602001613562929190614dde565b6040516020818303038152906040526040517f08c379a00000000000000000000000000000000000000000000000000000000081526004016135a4919061408d565b60405180910390fd5b5050565b60606135d78273ffffffffffffffffffffffffffffffffffffffff16601460ff166135de565b9050919050565b6060600060028360026135f19190614e47565b6135fb9190614e89565b67ffffffffffffffff8111156136145761361361390a565b5b6040519080825280601f01601f1916602001820160405280156136465781602001600182028036833780820191505090505b5090507f30000000000000000000000000000000000000000000000000000000000000008160008151811061367e5761367d614ebd565b5b60200101907effffffffffffffffffffffffffffffffffffffffffffffffffffffffffffff1916908160001a9053507f7800000000000000000000000000000000000000000000000000000000000000816001815181106136e2576136e1614ebd565b5b60200101907effffffffffffffffffffffffffffffffffffffffffffffffffffffffffffff1916908160001a905350600060018460026137229190614e47565b61372c9190614e89565b90505b60018111156137cc577f3031323334353637383961626364656600000000000000000000000000000000600f86166010811061376e5761376d614ebd565b5b1a60f81b82828151811061378557613784614ebd565b5b60200101907effffffffffffffffffffffffffffffffffffffffffffffffffffffffffffff1916908160001a905350600485901c9450806137c590614eec565b905061372f565b5060008414613810576040517f08c379a000000000000000000000000000000000000000000000000000000000815260040161380790614f61565b60405180910390fd5b8091505092915050565b6040518060c00160405280600073ffffffffffffffffffffffffffffffffffffffff16815260200160608152602001600015158152602001600073ffffffffffffffffffffffffffffffffffffffff16815260200160608152602001606081525090565b50805461388a906142a0565b6000825580601f1061389c57506138bb565b601f0160209004906000526020600020908101906138ba91906138be565b5b50565b5b808211156138d75760008160009055506001016138bf565b5090565b6000604051905090565b600080fd5b600080fd5b600080fd5b600080fd5b6000601f19601f8301169050919050565b7f4e487b7100000000000000000000000000000000000000000000000000000000600052604160045260246000fd5b613942826138f9565b810181811067ffffffffffffffff821117156139615761396061390a565b5b80604052505050565b60006139746138db565b90506139808282613939565b919050565b600067ffffffffffffffff8211156139a05761399f61390a565b5b6139a9826138f9565b9050602081019050919050565b82818337600083830152505050565b60006139d86139d384613985565b61396a565b9050828152602081018484840111156139f4576139f36138f4565b5b6139ff8482856139b6565b509392505050565b600082601f830112613a1c57613a1b6138ef565b5b8135613a2c8482602086016139c5565b91505092915050565b60008060408385031215613a4c57613a4b6138e5565b5b600083013567ffffffffffffffff811115613a6a57613a696138ea565b5b613a7685828601613a07565b925050602083013567ffffffffffffffff811115613a9757613a966138ea565b5b613aa385828601613a07565b9150509250929050565b60007fffffffff0000000000000000000000000000000000000000000000000000000082169050919050565b613ae281613aad565b8114613aed57600080fd5b50565b600081359050613aff81613ad9565b92915050565b600060208284031215613b1b57613b1a6138e5565b5b6000613b2984828501613af0565b91505092915050565b60008115159050919050565b613b4781613b32565b82525050565b6000602082019050613b626000830184613b3e565b92915050565b600073ffffffffffffffffffffffffffffffffffffffff82169050919050565b6000613b9382613b68565b9050919050565b613ba381613b88565b82525050565b6000602082019050613bbe6000830184613b9a565b92915050565b600060208284031215613bda57613bd96138e5565b5b600082013567ffffffffffffffff811115613bf857613bf76138ea565b5b613c0484828501613a07565b91505092915050565b613c1681613b88565b82525050565b600081519050919050565b600082825260208201905092915050565b60005b83811015613c56578082015181840152602081019050613c3b565b60008484015250505050565b6000613c6d82613c1c565b613c778185613c27565b9350613c87818560208601613c38565b613c90816138f9565b840191505092915050565b613ca481613b32565b82525050565b600060c083016000830151613cc26000860182613c0d565b5060208301518482036020860152613cda8282613c62565b9150506040830151613cef6040860182613c9b565b506060830151613d026060860182613c0d565b5060808301518482036080860152613d1a8282613c62565b91505060a083015184820360a0860152613d348282613c62565b9150508091505092915050565b60006020820190508181036000830152613d5b8184613caa565b905092915050565b613d6c81613b88565b8114613d7757600080fd5b50565b600081359050613d8981613d63565b92915050565b600060208284031215613da557613da46138e5565b5b6000613db384828501613d7a565b91505092915050565b6000819050919050565b613dcf81613dbc565b8114613dda57600080fd5b50565b600081359050613dec81613dc6565b92915050565b600060208284031215613e0857613e076138e5565b5b6000613e1684828501613ddd565b91505092915050565b613e2881613dbc565b82525050565b6000602082019050613e436000830184613e1f565b92915050565b60008060008060808587031215613e6357613e626138e5565b5b600085013567ffffffffffffffff811115613e8157613e806138ea565b5b613e8d87828801613a07565b9450506020613e9e87828801613d7a565b935050604085013567ffffffffffffffff811115613ebf57613ebe6138ea565b5b613ecb87828801613a07565b925050606085013567ffffffffffffffff811115613eec57613eeb6138ea565b5b613ef887828801613a07565b91505092959194509250565b60008060408385031215613f1b57613f1a6138e5565b5b6000613f2985828601613ddd565b9250506020613f3a85828601613d7a565b9150509250929050565b600080600060608486031215613f5d57613f5c6138e5565b5b6000613f6b86828701613d7a565b935050602084013567ffffffffffffffff811115613f8c57613f8b6138ea565b5b613f9886828701613a07565b925050604084013567ffffffffffffffff811115613fb957613fb86138ea565b5b613fc586828701613a07565b9150509250925092565b60008060408385031215613fe657613fe56138e5565b5b6000613ff485828601613d7a565b925050602061400585828601613d7a565b9150509250929050565b6000819050919050565b6140228161400f565b82525050565b600060208201905061403d6000830184614019565b92915050565b600082825260208201905092915050565b600061405f82613c1c565b6140698185614043565b9350614079818560208601613c38565b614082816138f9565b840191505092915050565b600060208201905081810360008301526140a78184614054565b905092915050565b600080600080608085870312156140c9576140c86138e5565b5b600085013567ffffffffffffffff8111156140e7576140e66138ea565b5b6140f387828801613a07565b945050602085013567ffffffffffffffff811115614114576141136138ea565b5b61412087828801613a07565b935050604085013567ffffffffffffffff811115614141576141406138ea565b5b61414d87828801613a07565b925050606085013567ffffffffffffffff81111561416e5761416d6138ea565b5b61417a87828801613a07565b91505092959194509250565b61418f8161400f565b811461419a57600080fd5b50565b6000813590506141ac81614186565b92915050565b6000602082840312156141c8576141c76138e5565b5b60006141d68482850161419d565b91505092915050565b7f757365727320616c6c6f776564206f6e6c7920746f20636c656172207468656d60008201527f73656c6673000000000000000000000000000000000000000000000000000000602082015250565b600061423b602583614043565b9150614246826141df565b604082019050919050565b6000602082019050818103600083015261426a8161422e565b9050919050565b7f4e487b7100000000000000000000000000000000000000000000000000000000600052602260045260246000fd5b600060028204905060018216806142b857607f821691505b6020821081036142cb576142ca614271565b5b50919050565b600081905092915050565b60006142e782613c1c565b6142f181856142d1565b9350614301818560208601613c38565b80840191505092915050565b600061431982846142dc565b915081905092915050565b7f746573746e6574206f6e6c790000000000000000000000000000000000000000600082015250565b600061435a600c83614043565b915061436582614324565b602082019050919050565b600060208201905081810360008301526143898161434d565b9050919050565b600060408201905081810360008301526143aa8185614054565b90506143b96020830184613b9a565b9392505050565b7f616c726561647920617070726f766564204f5220646f206e6f7420657869737460008201527f7320796574000000000000000000000000000000000000000000000000000000602082015250565b600061441c602583614043565b9150614427826143c0565b604082019050919050565b6000602082019050818103600083015261444b8161440f565b9050919050565b7f616c7265616479206c696e6b6564204f5220646f6e7420657869737473000000600082015250565b6000614488601d83614043565b915061449382614452565b602082019050919050565b600060208201905081810360008301526144b78161447b565b9050919050565b7f416363657373436f6e74726f6c3a2063616e206f6e6c792072656e6f756e636560008201527f20726f6c657320666f722073656c660000000000000000000000000000000000602082015250565b600061451a602f83614043565b9150614525826144be565b604082019050919050565b600060208201905081810360008301526145498161450d565b9050919050565b7f63616c6c20436c656172506172656e7420666972737400000000000000000000600082015250565b6000614586601683614043565b915061459182614550565b602082019050919050565b600060208201905081810360008301526145b581614579565b9050919050565b7f6f6e6c7920706172656e745f6e616d652063616e206163636570742069740000600082015250565b60006145f2601e83614043565b91506145fd826145bc565b602082019050919050565b60006020820190508181036000830152614621816145e5565b9050919050565b7f616c726561647920726567697374726564000000000000000000000000000000600082015250565b600061465e601183614043565b915061466982614628565b602082019050919050565b6000602082019050818103600083015261468d81614651565b9050919050565b60006040820190506146a96000830185613b9a565b6146b66020830184613b3e565b9392505050565b7f5265717565737420666565206973206e6f742070616964000000000000000000600082015250565b60006146f3601783614043565b91506146fe826146bd565b602082019050919050565b60006020820190508181036000830152614722816146e6565b9050919050565b60008190508160005260206000209050919050565b60006020601f8301049050919050565b600082821b905092915050565b60006008830261478b7fffffffffffffffffffffffffffffffffffffffffffffffffffffffffffffffff8261474e565b614795868361474e565b95508019841693508086168417925050509392505050565b6000819050919050565b60006147d26147cd6147c88461400f565b6147ad565b61400f565b9050919050565b6000819050919050565b6147ec836147b7565b6148006147f8826147d9565b84845461475b565b825550505050565b600090565b614815614808565b6148208184846147e3565b505050565b5b818110156148445761483960008261480d565b600181019050614826565b5050565b601f8211156148895761485a81614729565b6148638461473e565b81016020851015614872578190505b61488661487e8561473e565b830182614825565b50505b505050565b600082821c905092915050565b60006148ac6000198460080261488e565b1980831691505092915050565b60006148c5838361489b565b9150826002028217905092915050565b6148de82613c1c565b67ffffffffffffffff8111156148f7576148f661390a565b5b61490182546142a0565b61490c828285614848565b600060209050601f83116001811461493f576000841561492d578287015190505b61493785826148b9565b86555061499f565b601f19841661494d86614729565b60005b8281101561497557848901518255600182019150602085019450602081019050614950565b86831015614992578489015161498e601f89168261489b565b8355505b6001600288020188555050505b505050505050565b600081905092915050565b50565b60006149c26000836149a7565b91506149cd826149b2565b600082019050919050565b60006149e3826149b5565b9150819050919050565b7f556e61626c6520746f207472616e736665722066656500000000000000000000600082015250565b6000614a23601683614043565b9150614a2e826149ed565b602082019050919050565b60006020820190508181036000830152614a5281614a16565b9050919050565b7f4f776e61626c653a206e6577206f776e657220697320746865207a65726f206160008201527f6464726573730000000000000000000000000000000000000000000000000000602082015250565b6000614ab5602683614043565b9150614ac082614a59565b604082019050919050565b60006020820190508181036000830152614ae481614aa8565b9050919050565b7f5468657265206973206164647265737320636f6e6e656374656420746f20746860008201527f617420544720494420616c726561647900000000000000000000000000000000602082015250565b6000614b47603083614043565b9150614b5282614aeb565b604082019050919050565b60006020820190508181036000830152614b7681614b3a565b9050919050565b60006040820190508181036000830152614b978185614054565b90508181036020830152614bab8184614054565b90509392505050565b614bbd81613b32565b8114614bc857600080fd5b50565b600081519050614bda81614bb4565b92915050565b600060208284031215614bf657614bf56138e5565b5b6000614c0484828501614bcb565b91505092915050565b7f64696374696f6e617279206572726f7200000000000000000000000000000000600082015250565b6000614c43601083614043565b9150614c4e82614c0d565b602082019050919050565b60006020820190508181036000830152614c7281614c36565b9050919050565b7f4164616d00000000000000000000000000000000000000000000000000000000600082015250565b6000614caf6004836142d1565b9150614cba82614c79565b600482019050919050565b6000614cd082614ca2565b9150819050919050565b7f4f776e61626c653a2063616c6c6572206973206e6f7420746865206f776e6572600082015250565b6000614d10602083614043565b9150614d1b82614cda565b602082019050919050565b60006020820190508181036000830152614d3f81614d03565b9050919050565b7f416363657373436f6e74726f6c3a206163636f756e7420000000000000000000600082015250565b6000614d7c6017836142d1565b9150614d8782614d46565b601782019050919050565b7f206973206d697373696e6720726f6c6520000000000000000000000000000000600082015250565b6000614dc86011836142d1565b9150614dd382614d92565b601182019050919050565b6000614de982614d6f565b9150614df582856142dc565b9150614e0082614dbb565b9150614e0c82846142dc565b91508190509392505050565b7f4e487b7100000000000000000000000000000000000000000000000000000000600052601160045260246000fd5b6000614e528261400f565b9150614e5d8361400f565b9250828202614e6b8161400f565b91508282048414831517614e8257614e81614e18565b5b5092915050565b6000614e948261400f565b9150614e9f8361400f565b9250828201905080821115614eb757614eb6614e18565b5b92915050565b7f4e487b7100000000000000000000000000000000000000000000000000000000600052603260045260246000fd5b6000614ef78261400f565b915060008203614f0a57614f09614e18565b5b600182039050919050565b7f537472696e67733a20686578206c656e67746820696e73756666696369656e74600082015250565b6000614f4b602083614043565b9150614f5682614f15565b602082019050919050565b60006020820190508181036000830152614f7a81614f3e565b905091905056fea264697066735822122090741337ca35f849f06ef70ff0faf94444422fbc8d43e3de2ac167cd60d715db64736f6c634300081100337a6a58436a3969757365336748476141494967796169434f734a705157534345424261632f7a50477267513d",
  "linkReferences": {},
  "deployedLinkReferences": {}
}