{
  "_format": "hh-sol-artifact-1",
  "contractName": "Leg10nMock",
  "sourceName": "contracts/mocks/Leg10nMock.sol",
  "abi": [
    {
      "inputs": [
        {
          "internalType": "address",
          "name": "turing_",
          "type": "address"
        },
        {
          "internalType": "address",
          "name": "admin_",
          "type": "address"
        },
        {
          "internalType": "string",
          "name": "tgid_",
          "type": "string"
        },
        {
          "internalType": "string",
          "name": "public_key_",
          "type": "string"
        },
        {
          "internalType": "string",
          "name": "plain_id",
          "type": "string"
        }
      ],
      "stateMutability": "nonpayable",
      "type": "constructor"
    },
    {
      "anonymous": false,
      "inputs": [
        {
          "indexed": true,
          "internalType": "address",
          "name": "admin",
          "type": "address"
        }
      ],
      "name": "Initialized",
      "type": "event"
    },
    {
      "anonymous": false,
      "inputs": [
        {
          "indexed": true,
          "internalType": "address",
          "name": "previousOwner",
          "type": "address"
        },
        {
          "indexed": true,
          "internalType": "address",
          "name": "newOwner",
          "type": "address"
        }
      ],
      "name": "OwnershipTransferred",
      "type": "event"
    },
    {
      "anonymous": false,
      "inputs": [
        {
          "indexed": true,
          "internalType": "bytes32",
          "name": "role",
          "type": "bytes32"
        },
        {
          "indexed": true,
          "internalType": "bytes32",
          "name": "previousAdminRole",
          "type": "bytes32"
        },
        {
          "indexed": true,
          "internalType": "bytes32",
          "name": "newAdminRole",
          "type": "bytes32"
        }
      ],
      "name": "RoleAdminChanged",
      "type": "event"
    },
    {
      "anonymous": false,
      "inputs": [
        {
          "indexed": true,
          "internalType": "bytes32",
          "name": "role",
          "type": "bytes32"
        },
        {
          "indexed": true,
          "internalType": "address",
          "name": "account",
          "type": "address"
        },
        {
          "indexed": true,
          "internalType": "address",
          "name": "sender",
          "type": "address"
        }
      ],
      "name": "RoleGranted",
      "type": "event"
    },
    {
      "anonymous": false,
      "inputs": [
        {
          "indexed": true,
          "internalType": "bytes32",
          "name": "role",
          "type": "bytes32"
        },
        {
          "indexed": true,
          "internalType": "address",
          "name": "account",
          "type": "address"
        },
        {
          "indexed": true,
          "internalType": "address",
          "name": "sender",
          "type": "address"
        }
      ],
      "name": "RoleRevoked",
      "type": "event"
    },
    {
      "anonymous": false,
      "inputs": [
        {
          "indexed": false,
          "internalType": "string",
          "name": "applyerTg",
          "type": "string"
        },
        {
          "indexed": false,
          "internalType": "address",
          "name": "wallet_address",
          "type": "address"
        },
        {
          "indexed": true,
          "internalType": "address",
          "name": "parent_address",
          "type": "address"
        }
      ],
      "name": "joinRequested",
      "type": "event"
    },
    {
      "anonymous": false,
      "inputs": [
        {
          "indexed": false,
          "internalType": "string",
          "name": "applyerTg",
          "type": "string"
        },
        {
          "indexed": false,
          "internalType": "address",
          "name": "wallet_address",
          "type": "address"
        },
        {
          "indexed": true,
          "internalType": "address",
          "name": "parent_address",
          "type": "address"
        }
      ],
      "name": "joinRequestedIndexedTG",
      "type": "event"
    },
    {
      "anonymous": false,
      "inputs": [
        {
          "indexed": false,
          "internalType": "address",
          "name": "high_node",
          "type": "address"
        },
        {
          "indexed": true,
          "internalType": "address",
          "name": "low_node",
          "type": "address"
        },
        {
          "indexed": false,
          "internalType": "bool",
          "name": "pravda",
          "type": "bool"
        }
      ],
      "name": "relationChanged",
      "type": "event"
    },
    {
      "anonymous": false,
      "inputs": [
        {
          "indexed": true,
          "internalType": "string",
          "name": "applyerTg",
          "type": "string"
        },
        {
          "indexed": false,
          "internalType": "address",
          "name": "user_address",
          "type": "address"
        },
        {
          "indexed": false,
          "internalType": "address",
          "name": "parent_address",
          "type": "address"
        }
      ],
      "name": "requestAccepted",
      "type": "event"
    },
    {
      "anonymous": false,
      "inputs": [
        {
          "indexed": false,
          "internalType": "string",
          "name": "applyerTg",
          "type": "string"
        },
        {
          "indexed": false,
          "internalType": "address",
          "name": "wallet",
          "type": "address"
        }
      ],
      "name": "requestDenied",
      "type": "event"
    },
    {
      "inputs": [
        {
          "internalType": "string",
          "name": "applyerTg",
          "type": "string"
        },
        {
          "internalType": "string",
          "name": "parent_name",
          "type": "string"
        }
      ],
      "name": "AcceptJoin",
      "outputs": [],
      "stateMutability": "nonpayable",
      "type": "function"
    },
    {
      "inputs": [
        {
          "internalType": "string",
          "name": "parent_name",
          "type": "string"
        },
        {
          "internalType": "string",
          "name": "child_name",
          "type": "string"
        }
      ],
      "name": "ClearParent",
      "outputs": [],
      "stateMutability": "nonpayable",
      "type": "function"
    },
    {
      "inputs": [],
      "name": "DEFAULT_ADMIN_ROLE",
      "outputs": [
        {
          "internalType": "bytes32",
          "name": "",
          "type": "bytes32"
        }
      ],
      "stateMutability": "view",
      "type": "function"
    },
    {
      "inputs": [
        {
          "internalType": "string",
          "name": "tgid",
          "type": "string"
        }
      ],
      "name": "DeclineRequest",
      "outputs": [],
      "stateMutability": "nonpayable",
      "type": "function"
    },
    {
      "inputs": [
        {
          "internalType": "bytes32",
          "name": "hash_id",
          "type": "bytes32"
        }
      ],
      "name": "GetIdByHash",
      "outputs": [
        {
          "internalType": "string",
          "name": "",
          "type": "string"
        }
      ],
      "stateMutability": "view",
      "type": "function"
    },
    {
      "inputs": [
        {
          "internalType": "string",
          "name": "text",
          "type": "string"
        }
      ],
      "name": "GetKeccakHash",
      "outputs": [
        {
          "internalType": "bytes32",
          "name": "",
          "type": "bytes32"
        }
      ],
      "stateMutability": "pure",
      "type": "function"
    },
    {
      "inputs": [],
      "name": "GetOwner",
      "outputs": [
        {
          "internalType": "address",
          "name": "",
          "type": "address"
        }
      ],
      "stateMutability": "view",
      "type": "function"
    },
    {
      "inputs": [],
      "name": "GetPassportFee",
      "outputs": [
        {
          "internalType": "uint256",
          "name": "",
          "type": "uint256"
        }
      ],
      "stateMutability": "view",
      "type": "function"
    },
    {
      "inputs": [
        {
          "internalType": "address",
          "name": "user_address",
          "type": "address"
        }
      ],
      "name": "GetPublicKeyByAddress",
      "outputs": [
        {
          "internalType": "string",
          "name": "",
          "type": "string"
        }
      ],
      "stateMutability": "view",
      "type": "function"
    },
    {
      "inputs": [
        {
          "internalType": "address",
          "name": "user_wallet",
          "type": "address"
        }
      ],
      "name": "GetTgIdByAddress",
      "outputs": [
        {
          "internalType": "string",
          "name": "tgid",
          "type": "string"
        }
      ],
      "stateMutability": "view",
      "type": "function"
    },
    {
      "inputs": [
        {
          "internalType": "address",
          "name": "user_wallet",
          "type": "address"
        }
      ],
      "name": "GetUserByAddress",
      "outputs": [
        {
          "components": [
            {
              "internalType": "address",
              "name": "userAddress",
              "type": "address"
            },
            {
              "internalType": "string",
              "name": "tgId",
              "type": "string"
            },
            {
              "internalType": "bool",
              "name": "valid",
              "type": "bool"
            },
            {
              "internalType": "address",
              "name": "validatorAddress",
              "type": "address"
            },
            {
              "internalType": "string",
              "name": "codeName",
              "type": "string"
            },
            {
              "internalType": "string",
              "name": "public_key",
              "type": "string"
            },
            {
              "internalType": "bytes32",
              "name": "id_hash",
              "type": "bytes32"
            }
          ],
          "internalType": "struct Leg10n.User",
          "name": "",
          "type": "tuple"
        }
      ],
      "stateMutability": "view",
      "type": "function"
    },
    {
      "inputs": [
        {
          "internalType": "string",
          "name": "user_name_",
          "type": "string"
        }
      ],
      "name": "GetUserByNickName",
      "outputs": [
        {
          "components": [
            {
              "internalType": "address",
              "name": "userAddress",
              "type": "address"
            },
            {
              "internalType": "string",
              "name": "tgId",
              "type": "string"
            },
            {
              "internalType": "bool",
              "name": "valid",
              "type": "bool"
            },
            {
              "internalType": "address",
              "name": "validatorAddress",
              "type": "address"
            },
            {
              "internalType": "string",
              "name": "codeName",
              "type": "string"
            },
            {
              "internalType": "string",
              "name": "public_key",
              "type": "string"
            },
            {
              "internalType": "bytes32",
              "name": "id_hash",
              "type": "bytes32"
            }
          ],
          "internalType": "struct Leg10n.User",
          "name": "",
          "type": "tuple"
        }
      ],
      "stateMutability": "view",
      "type": "function"
    },
    {
      "inputs": [
        {
          "internalType": "string",
          "name": "tgId_",
          "type": "string"
        }
      ],
      "name": "GetUserByTgId",
      "outputs": [
        {
          "components": [
            {
              "internalType": "address",
              "name": "userAddress",
              "type": "address"
            },
            {
              "internalType": "string",
              "name": "tgId",
              "type": "string"
            },
            {
              "internalType": "bool",
              "name": "valid",
              "type": "bool"
            },
            {
              "internalType": "address",
              "name": "validatorAddress",
              "type": "address"
            },
            {
              "internalType": "string",
              "name": "codeName",
              "type": "string"
            },
            {
              "internalType": "string",
              "name": "public_key",
              "type": "string"
            },
            {
              "internalType": "bytes32",
              "name": "id_hash",
              "type": "bytes32"
            }
          ],
          "internalType": "struct Leg10n.User",
          "name": "",
          "type": "tuple"
        }
      ],
      "stateMutability": "view",
      "type": "function"
    },
    {
      "inputs": [
        {
          "internalType": "string",
          "name": "tgId_",
          "type": "string"
        }
      ],
      "name": "GetUserWalletByID",
      "outputs": [
        {
          "internalType": "address",
          "name": "",
          "type": "address"
        }
      ],
      "stateMutability": "view",
      "type": "function"
    },
    {
      "inputs": [
        {
          "internalType": "string",
          "name": "user_name_",
          "type": "string"
        }
      ],
      "name": "GetWalletByNickName",
      "outputs": [
        {
          "internalType": "address",
          "name": "",
          "type": "address"
        }
      ],
      "stateMutability": "view",
      "type": "function"
    },
    {
      "inputs": [
        {
          "internalType": "string",
          "name": "applyerTg",
          "type": "string"
        },
        {
          "internalType": "string",
          "name": "code_name_",
          "type": "string"
        },
        {
          "internalType": "string",
          "name": "parent_name",
          "type": "string"
        },
        {
          "internalType": "string",
          "name": "public_key",
          "type": "string"
        },
        {
          "internalType": "string",
          "name": "plain_id",
          "type": "string"
        }
      ],
      "name": "RequestJoin",
      "outputs": [],
      "stateMutability": "payable",
      "type": "function"
    },
    {
      "inputs": [
        {
          "internalType": "uint256",
          "name": "passportFee_",
          "type": "uint256"
        }
      ],
      "name": "SetPassportFee",
      "outputs": [],
      "stateMutability": "nonpayable",
      "type": "function"
    },
    {
      "inputs": [
        {
          "internalType": "address",
          "name": "",
          "type": "address"
        },
        {
          "internalType": "address",
          "name": "",
          "type": "address"
        }
      ],
      "name": "chain",
      "outputs": [
        {
          "internalType": "bool",
          "name": "",
          "type": "bool"
        }
      ],
      "stateMutability": "view",
      "type": "function"
    },
    {
      "inputs": [
        {
          "internalType": "string",
          "name": "",
          "type": "string"
        }
      ],
      "name": "codename_wallets",
      "outputs": [
        {
          "internalType": "address",
          "name": "",
          "type": "address"
        }
      ],
      "stateMutability": "view",
      "type": "function"
    },
    {
      "inputs": [
        {
          "internalType": "address",
          "name": "user_address",
          "type": "address"
        }
      ],
      "name": "deleteUser",
      "outputs": [],
      "stateMutability": "nonpayable",
      "type": "function"
    },
    {
      "inputs": [],
      "name": "deleteYourSelf",
      "outputs": [],
      "stateMutability": "nonpayable",
      "type": "function"
    },
    {
      "inputs": [
        {
          "internalType": "address",
          "name": "user_address",
          "type": "address"
        }
      ],
      "name": "devDeleteUser",
      "outputs": [],
      "stateMutability": "nonpayable",
      "type": "function"
    },
    {
      "inputs": [
        {
          "internalType": "address",
          "name": "admin_",
          "type": "address"
        },
        {
          "internalType": "string",
          "name": "tgid_",
          "type": "string"
        },
        {
          "internalType": "string",
          "name": "public_key_",
          "type": "string"
        },
        {
          "internalType": "string",
          "name": "plain_id",
          "type": "string"
        }
      ],
      "name": "devInitAdmin",
      "outputs": [],
      "stateMutability": "nonpayable",
      "type": "function"
    },
    {
      "inputs": [],
      "name": "getModeratorIdentifier",
      "outputs": [
        {
          "internalType": "bytes32",
          "name": "",
          "type": "bytes32"
        }
      ],
      "stateMutability": "pure",
      "type": "function"
    },
    {
      "inputs": [
        {
          "internalType": "bytes32",
          "name": "role",
          "type": "bytes32"
        }
      ],
      "name": "getRoleAdmin",
      "outputs": [
        {
          "internalType": "bytes32",
          "name": "",
          "type": "bytes32"
        }
      ],
      "stateMutability": "view",
      "type": "function"
    },
    {
      "inputs": [
        {
          "internalType": "bytes32",
          "name": "role",
          "type": "bytes32"
        },
        {
          "internalType": "address",
          "name": "account",
          "type": "address"
        }
      ],
      "name": "grantRole",
      "outputs": [],
      "stateMutability": "nonpayable",
      "type": "function"
    },
    {
      "inputs": [
        {
          "internalType": "bytes32",
          "name": "role",
          "type": "bytes32"
        },
        {
          "internalType": "address",
          "name": "account",
          "type": "address"
        }
      ],
      "name": "hasRole",
      "outputs": [
        {
          "internalType": "bool",
          "name": "",
          "type": "bool"
        }
      ],
      "stateMutability": "view",
      "type": "function"
    },
    {
      "inputs": [
        {
          "internalType": "bytes32",
          "name": "",
          "type": "bytes32"
        }
      ],
      "name": "hashToId",
      "outputs": [
        {
          "internalType": "string",
          "name": "",
          "type": "string"
        }
      ],
      "stateMutability": "view",
      "type": "function"
    },
    {
      "inputs": [],
      "name": "moderator",
      "outputs": [
        {
          "internalType": "bytes32",
          "name": "",
          "type": "bytes32"
        }
      ],
      "stateMutability": "view",
      "type": "function"
    },
    {
      "inputs": [],
      "name": "owner",
      "outputs": [
        {
          "internalType": "address",
          "name": "",
          "type": "address"
        }
      ],
      "stateMutability": "view",
      "type": "function"
    },
    {
      "inputs": [],
      "name": "renounceOwnership",
      "outputs": [],
      "stateMutability": "nonpayable",
      "type": "function"
    },
    {
      "inputs": [
        {
          "internalType": "bytes32",
          "name": "role",
          "type": "bytes32"
        },
        {
          "internalType": "address",
          "name": "account",
          "type": "address"
        }
      ],
      "name": "renounceRole",
      "outputs": [],
      "stateMutability": "nonpayable",
      "type": "function"
    },
    {
      "inputs": [
        {
          "internalType": "bytes32",
          "name": "role",
          "type": "bytes32"
        },
        {
          "internalType": "address",
          "name": "account",
          "type": "address"
        }
      ],
      "name": "revokeRole",
      "outputs": [],
      "stateMutability": "nonpayable",
      "type": "function"
    },
    {
      "inputs": [
        {
          "internalType": "bytes4",
          "name": "interfaceId",
          "type": "bytes4"
        }
      ],
      "name": "supportsInterface",
      "outputs": [
        {
          "internalType": "bool",
          "name": "",
          "type": "bool"
        }
      ],
      "stateMutability": "view",
      "type": "function"
    },
    {
      "inputs": [
        {
          "internalType": "string",
          "name": "",
          "type": "string"
        }
      ],
      "name": "tgIdToAddress",
      "outputs": [
        {
          "internalType": "address",
          "name": "",
          "type": "address"
        }
      ],
      "stateMutability": "view",
      "type": "function"
    },
    {
      "inputs": [
        {
          "internalType": "address",
          "name": "newOwner",
          "type": "address"
        }
      ],
      "name": "transferOwnership",
      "outputs": [],
      "stateMutability": "nonpayable",
      "type": "function"
    },
    {
      "inputs": [
        {
          "internalType": "string",
          "name": "tgId",
          "type": "string"
        },
        {
          "internalType": "address",
          "name": "userAddress",
          "type": "address"
        },
        {
          "internalType": "string",
          "name": "code_name_",
          "type": "string"
        },
        {
          "internalType": "string",
          "name": "parent_name",
          "type": "string"
        },
        {
          "internalType": "string",
          "name": "plain_id",
          "type": "string"
        }
      ],
      "name": "updateAddress",
      "outputs": [],
      "stateMutability": "nonpayable",
      "type": "function"
    }
  ],
  "bytecode": "0x60806040523480156200001157600080fd5b506040516200698e3803806200698e833981810160405281019062000037919062000e2b565b84848484846200005c620000506200049360201b60201c565b6200049b60201b60201c565b66071afd498d00006002819055506200007a6200055f60201b60201c565b600360006101000a81548173ffffffffffffffffffffffffffffffffffffffff021916908373ffffffffffffffffffffffffffffffffffffffff160217905550620000cf6000801b336200058860201b60201c565b620001017fcea62fe6ecc79e221c545bf918f804693c542ead2549e37c2bb9baa66ee2e157336200058860201b60201c565b84600960006101000a81548173ffffffffffffffffffffffffffffffffffffffff021916908373ffffffffffffffffffffffffffffffffffffffff160217905550600062000155826200067960201b60201c565b9050336004856040516200016a919062000f5d565b908152602001604051809103902060006101000a81548173ffffffffffffffffffffffffffffffffffffffff021916908373ffffffffffffffffffffffffffffffffffffffff160217905550336007604051620001c79062000fc6565b908152602001604051809103902060006101000a81548173ffffffffffffffffffffffffffffffffffffffff021916908373ffffffffffffffffffffffffffffffffffffffff1602179055506040518060e001604052803373ffffffffffffffffffffffffffffffffffffffff1681526020018581526020016001151581526020013373ffffffffffffffffffffffffffffffffffffffff1681526020016040518060400160405280600181526020017f300000000000000000000000000000000000000000000000000000000000000081525081526020016040518060600160405280602c815260200162006962602c9139815260200182815250600660003373ffffffffffffffffffffffffffffffffffffffff1673ffffffffffffffffffffffffffffffffffffffff16815260200190815260200160002060008201518160000160006101000a81548173ffffffffffffffffffffffffffffffffffffffff021916908373ffffffffffffffffffffffffffffffffffffffff16021790555060208201518160010190816200036091906200121d565b5060408201518160020160006101000a81548160ff02191690831515021790555060608201518160020160016101000a81548173ffffffffffffffffffffffffffffffffffffffff021916908373ffffffffffffffffffffffffffffffffffffffff1602179055506080820151816003019081620003df91906200121d565b5060a0820151816004019081620003f791906200121d565b5060c08201518160050155905050600073ffffffffffffffffffffffffffffffffffffffff168573ffffffffffffffffffffffffffffffffffffffff16036200046d576200046733856040518060600160405280602c815260200162006962602c913985620006ab60201b60201c565b62000482565b6200048185858585620006ab60201b60201c565b5b5050505050505050505050620013e1565b600033905090565b60008060009054906101000a900473ffffffffffffffffffffffffffffffffffffffff169050816000806101000a81548173ffffffffffffffffffffffffffffffffffffffff021916908373ffffffffffffffffffffffffffffffffffffffff1602179055508173ffffffffffffffffffffffffffffffffffffffff168173ffffffffffffffffffffffffffffffffffffffff167f8be0079c531659141344cd1fd0a4f28419497f9722a3daafe3b4186f6b6457e060405160405180910390a35050565b60008060009054906101000a900473ffffffffffffffffffffffffffffffffffffffff16905090565b6200059a828262000b7e60201b60201c565b6200067557600180600084815260200190815260200160002060000160008373ffffffffffffffffffffffffffffffffffffffff1673ffffffffffffffffffffffffffffffffffffffff16815260200190815260200160002060006101000a81548160ff0219169083151502179055506200061a6200049360201b60201c565b73ffffffffffffffffffffffffffffffffffffffff168173ffffffffffffffffffffffffffffffffffffffff16837f2f8788117e7eff1d82e926ec794901d17c78024a50270940304540a733656f0d60405160405180910390a45b5050565b6000816040516020016200068e919062001356565b604051602081830303815290604052805190602001209050919050565b83600484604051620006be919062000f5d565b908152602001604051809103902060006101000a81548173ffffffffffffffffffffffffffffffffffffffff021916908373ffffffffffffffffffffffffffffffffffffffff1602179055508360076040516200071b90620013ca565b908152602001604051809103902060006101000a81548173ffffffffffffffffffffffffffffffffffffffff021916908373ffffffffffffffffffffffffffffffffffffffff16021790555060006200077a826200067960201b60201c565b90506040518060e001604052808673ffffffffffffffffffffffffffffffffffffffff1681526020018581526020016001151581526020018673ffffffffffffffffffffffffffffffffffffffff1681526020016040518060400160405280600481526020017f4164616d00000000000000000000000000000000000000000000000000000000815250815260200184815260200182815250600660008773ffffffffffffffffffffffffffffffffffffffff1673ffffffffffffffffffffffffffffffffffffffff16815260200190815260200160002060008201518160000160006101000a81548173ffffffffffffffffffffffffffffffffffffffff021916908373ffffffffffffffffffffffffffffffffffffffff1602179055506020820151816001019081620008b091906200121d565b5060408201518160020160006101000a81548160ff02191690831515021790555060608201518160020160016101000a81548173ffffffffffffffffffffffffffffffffffffffff021916908373ffffffffffffffffffffffffffffffffffffffff16021790555060808201518160030190816200092f91906200121d565b5060a08201518160040190816200094791906200121d565b5060c082015181600501559050506001600660008773ffffffffffffffffffffffffffffffffffffffff1673ffffffffffffffffffffffffffffffffffffffff16815260200190815260200160002060020160006101000a81548160ff02191690831515021790555033600660008773ffffffffffffffffffffffffffffffffffffffff1673ffffffffffffffffffffffffffffffffffffffff16815260200190815260200160002060020160016101000a81548173ffffffffffffffffffffffffffffffffffffffff021916908373ffffffffffffffffffffffffffffffffffffffff160217905550600062000a796040518060400160405280600181526020017f300000000000000000000000000000000000000000000000000000000000000081525062000be960201b60201c565b90506001600860008373ffffffffffffffffffffffffffffffffffffffff1673ffffffffffffffffffffffffffffffffffffffff16815260200190815260200160002060008873ffffffffffffffffffffffffffffffffffffffff1673ffffffffffffffffffffffffffffffffffffffff16815260200190815260200160002060006101000a81548160ff0219169083151502179055508460056000848152602001908152602001600020908162000b3291906200121d565b508573ffffffffffffffffffffffffffffffffffffffff167f908408e307fc569b417f6cbec5d5a06f44a0a505ac0479b47d421a4b2fd6a1e660405160405180910390a2505050505050565b60006001600084815260200190815260200160002060000160008373ffffffffffffffffffffffffffffffffffffffff1673ffffffffffffffffffffffffffffffffffffffff16815260200190815260200160002060009054906101000a900460ff16905092915050565b600060078260405162000bfd919062000f5d565b908152602001604051809103902060009054906101000a900473ffffffffffffffffffffffffffffffffffffffff169050919050565b6000604051905090565b600080fd5b600080fd5b600073ffffffffffffffffffffffffffffffffffffffff82169050919050565b600062000c748262000c47565b9050919050565b62000c868162000c67565b811462000c9257600080fd5b50565b60008151905062000ca68162000c7b565b92915050565b600080fd5b600080fd5b6000601f19601f8301169050919050565b7f4e487b7100000000000000000000000000000000000000000000000000000000600052604160045260246000fd5b62000d018262000cb6565b810181811067ffffffffffffffff8211171562000d235762000d2262000cc7565b5b80604052505050565b600062000d3862000c33565b905062000d46828262000cf6565b919050565b600067ffffffffffffffff82111562000d695762000d6862000cc7565b5b62000d748262000cb6565b9050602081019050919050565b60005b8381101562000da157808201518184015260208101905062000d84565b60008484015250505050565b600062000dc462000dbe8462000d4b565b62000d2c565b90508281526020810184848401111562000de35762000de262000cb1565b5b62000df084828562000d81565b509392505050565b600082601f83011262000e105762000e0f62000cac565b5b815162000e2284826020860162000dad565b91505092915050565b600080600080600060a0868803121562000e4a5762000e4962000c3d565b5b600062000e5a8882890162000c95565b955050602062000e6d8882890162000c95565b945050604086015167ffffffffffffffff81111562000e915762000e9062000c42565b5b62000e9f8882890162000df8565b935050606086015167ffffffffffffffff81111562000ec35762000ec262000c42565b5b62000ed18882890162000df8565b925050608086015167ffffffffffffffff81111562000ef55762000ef462000c42565b5b62000f038882890162000df8565b9150509295509295909350565b600081519050919050565b600081905092915050565b600062000f338262000f10565b62000f3f818562000f1b565b935062000f5181856020860162000d81565b80840191505092915050565b600062000f6b828462000f26565b915081905092915050565b7f3000000000000000000000000000000000000000000000000000000000000000600082015250565b600062000fae60018362000f1b565b915062000fbb8262000f76565b600182019050919050565b600062000fd38262000f9f565b9150819050919050565b7f4e487b7100000000000000000000000000000000000000000000000000000000600052602260045260246000fd5b600060028204905060018216806200102557607f821691505b6020821081036200103b576200103a62000fdd565b5b50919050565b60008190508160005260206000209050919050565b60006020601f8301049050919050565b600082821b905092915050565b600060088302620010a57fffffffffffffffffffffffffffffffffffffffffffffffffffffffffffffffff8262001066565b620010b1868362001066565b95508019841693508086168417925050509392505050565b6000819050919050565b6000819050919050565b6000620010fe620010f8620010f284620010c9565b620010d3565b620010c9565b9050919050565b6000819050919050565b6200111a83620010dd565b62001132620011298262001105565b84845462001073565b825550505050565b600090565b620011496200113a565b620011568184846200110f565b505050565b5b818110156200117e57620011726000826200113f565b6001810190506200115c565b5050565b601f821115620011cd57620011978162001041565b620011a28462001056565b81016020851015620011b2578190505b620011ca620011c18562001056565b8301826200115b565b50505b505050565b600082821c905092915050565b6000620011f260001984600802620011d2565b1980831691505092915050565b60006200120d8383620011df565b9150826002028217905092915050565b620012288262000f10565b67ffffffffffffffff81111562001244576200124362000cc7565b5b6200125082546200100c565b6200125d82828562001182565b600060209050601f83116001811462001295576000841562001280578287015190505b6200128c8582620011ff565b865550620012fc565b601f198416620012a58662001041565b60005b82811015620012cf57848901518255600182019150602085019450602081019050620012a8565b86831015620012ef5784890151620012eb601f891682620011df565b8355505b6001600288020188555050505b505050505050565b600082825260208201905092915050565b6000620013228262000f10565b6200132e818562001304565b93506200134081856020860162000d81565b6200134b8162000cb6565b840191505092915050565b6000602082019050818103600083015262001372818462001315565b905092915050565b7f4164616d00000000000000000000000000000000000000000000000000000000600082015250565b6000620013b260048362000f1b565b9150620013bf826200137a565b600482019050919050565b6000620013d782620013a3565b9150819050919050565b61557180620013f16000396000f3fe60806040526004361061021a5760003560e01c80635d1ce88f1161012357806391d14854116100ab578063c55011ee1161006f578063c55011ee14610846578063d2114e181461086f578063d2125bd2146108ac578063d547741f146108d5578063f2fde38b146108fe5761021a565b806391d148541461073b5780639b45179f146107785780639e026a3b146107a1578063a217fddf146107de578063b932fbfa146108095761021a565b8063715018a6116100f2578063715018a614610663578063841a65e11461067a57806386e81ba5146106b7578063873f30c7146106f45780638da5cb5b146107105761021a565b80635d1ce88f146105a757806361cabe37146105d2578063679b06be1461060f5780636e312028146106265761021a565b8063248a9ca3116101a6578063387439041161017557806338743904146104c25780634208ce60146104ed578063460e6c9c1461051657806348dc1561146105535780635c60f2261461057e5761021a565b8063248a9ca31461040a578063286b2e54146104475780632f2ff15d1461047057806336568abe146104995761021a565b80630d48cae8116101ed5780630d48cae8146102ed57806315905bdd1461032a5780631892fd78146103675780631a519ce8146103a45780632067eac8146103e15761021a565b8063018d3dc91461021f57806301ffc9a714610248578063095f0773146102855780630ae50a39146102c2575b600080fd5b34801561022b57600080fd5b5061024660048036038101906102419190613e65565b610927565b005b34801561025457600080fd5b5061026f600480360381019061026a9190613f35565b610aa5565b60405161027c9190613f7d565b60405180910390f35b34801561029157600080fd5b506102ac60048036038101906102a79190613fce565b610b1f565b6040516102b9919061407a565b60405180910390f35b3480156102ce57600080fd5b506102d7610bbf565b6040516102e491906140dd565b60405180910390f35b3480156102f957600080fd5b50610314600480360381019061030f91906140f8565b610be9565b6040516103219190614262565b60405180910390f35b34801561033657600080fd5b50610351600480360381019061034c91906140f8565b610edd565b60405161035e91906140dd565b60405180910390f35b34801561037357600080fd5b5061038e600480360381019061038991906142b0565b610f25565b60405161039b9190614262565b60405180910390f35b3480156103b057600080fd5b506103cb60048036038101906103c691906140f8565b61120b565b6040516103d89190614262565b60405180910390f35b3480156103ed57600080fd5b50610408600480360381019061040391906142b0565b6114ff565b005b34801561041657600080fd5b50610431600480360381019061042c9190613fce565b6118ad565b60405161043e91906142ec565b60405180910390f35b34801561045357600080fd5b5061046e600480360381019061046991906140f8565b6118cd565b005b34801561047c57600080fd5b5061049760048036038101906104929190614307565b611d3d565b005b3480156104a557600080fd5b506104c060048036038101906104bb9190614307565b611d5e565b005b3480156104ce57600080fd5b506104d7611de1565b6040516104e491906142ec565b60405180910390f35b3480156104f957600080fd5b50610514600480360381019061050f9190614347565b611e05565b005b34801561052257600080fd5b5061053d60048036038101906105389190614432565b611e19565b60405161054a9190613f7d565b60405180910390f35b34801561055f57600080fd5b50610568611e48565b604051610575919061448b565b60405180910390f35b34801561058a57600080fd5b506105a560048036038101906105a091906142b0565b611e52565b005b3480156105b357600080fd5b506105bc611e5e565b6040516105c991906142ec565b60405180910390f35b3480156105de57600080fd5b506105f960048036038101906105f491906142b0565b611e86565b604051610606919061407a565b60405180910390f35b34801561061b57600080fd5b50610624611ea2565b005b34801561063257600080fd5b5061064d600480360381019061064891906140f8565b611f49565b60405161065a91906140dd565b60405180910390f35b34801561066f57600080fd5b50610678611f92565b005b34801561068657600080fd5b506106a1600480360381019061069c9190613fce565b611fa6565b6040516106ae919061407a565b60405180910390f35b3480156106c357600080fd5b506106de60048036038101906106d991906140f8565b61204b565b6040516106eb91906140dd565b60405180910390f35b61070e600480360381019061070991906144a6565b612094565b005b34801561071c57600080fd5b506107256124e8565b60405161073291906140dd565b60405180910390f35b34801561074757600080fd5b50610762600480360381019061075d9190614307565b612511565b60405161076f9190613f7d565b60405180910390f35b34801561078457600080fd5b5061079f600480360381019061079a9190613e65565b61257c565b005b3480156107ad57600080fd5b506107c860048036038101906107c391906140f8565b6128d8565b6040516107d591906142ec565b60405180910390f35b3480156107ea57600080fd5b506107f3612908565b60405161080091906142ec565b60405180910390f35b34801561081557600080fd5b50610830600480360381019061082b91906142b0565b61290f565b60405161083d919061407a565b60405180910390f35b34801561085257600080fd5b5061086d600480360381019061086891906145ad565b612931565b005b34801561087b57600080fd5b50610896600480360381019061089191906140f8565b612943565b6040516108a391906140dd565b60405180910390f35b3480156108b857600080fd5b506108d360048036038101906108ce9190614694565b61298b565b005b3480156108e157600080fd5b506108fc60048036038101906108f79190614307565b61299d565b005b34801561090a57600080fd5b50610925600480360381019061092091906142b0565b6129be565b005b600061093282612943565b9050600061093f84612943565b90503373ffffffffffffffffffffffffffffffffffffffff168273ffffffffffffffffffffffffffffffffffffffff16146109af576040517f08c379a00000000000000000000000000000000000000000000000000000000081526004016109a690614733565b60405180910390fd5b6000600660008473ffffffffffffffffffffffffffffffffffffffff1673ffffffffffffffffffffffffffffffffffffffff16815260200190815260200160002060020160006101000a81548160ff0219169083151502179055506000600860008373ffffffffffffffffffffffffffffffffffffffff1673ffffffffffffffffffffffffffffffffffffffff16815260200190815260200160002060003373ffffffffffffffffffffffffffffffffffffffff1673ffffffffffffffffffffffffffffffffffffffff16815260200190815260200160002060006101000a81548160ff02191690831515021790555050505050565b60007f7965db0b000000000000000000000000000000000000000000000000000000007bffffffffffffffffffffffffffffffffffffffffffffffffffffffff1916827bffffffffffffffffffffffffffffffffffffffffffffffffffffffff19161480610b185750610b1782612a41565b5b9050919050565b60056020528060005260406000206000915090508054610b3e90614782565b80601f0160208091040260200160405190810160405280929190818152602001828054610b6a90614782565b8015610bb75780601f10610b8c57610100808354040283529160200191610bb7565b820191906000526020600020905b815481529060010190602001808311610b9a57829003601f168201915b505050505081565b6000600360009054906101000a900473ffffffffffffffffffffffffffffffffffffffff16905090565b610bf1613c40565b6000610bfc83612943565b90506000600660008373ffffffffffffffffffffffffffffffffffffffff1673ffffffffffffffffffffffffffffffffffffffff1681526020019081526020016000206040518060e00160405290816000820160009054906101000a900473ffffffffffffffffffffffffffffffffffffffff1673ffffffffffffffffffffffffffffffffffffffff1673ffffffffffffffffffffffffffffffffffffffff168152602001600182018054610cb090614782565b80601f0160208091040260200160405190810160405280929190818152602001828054610cdc90614782565b8015610d295780601f10610cfe57610100808354040283529160200191610d29565b820191906000526020600020905b815481529060010190602001808311610d0c57829003601f168201915b505050505081526020016002820160009054906101000a900460ff161515151581526020016002820160019054906101000a900473ffffffffffffffffffffffffffffffffffffffff1673ffffffffffffffffffffffffffffffffffffffff1673ffffffffffffffffffffffffffffffffffffffff168152602001600382018054610db390614782565b80601f0160208091040260200160405190810160405280929190818152602001828054610ddf90614782565b8015610e2c5780601f10610e0157610100808354040283529160200191610e2c565b820191906000526020600020905b815481529060010190602001808311610e0f57829003601f168201915b50505050508152602001600482018054610e4590614782565b80601f0160208091040260200160405190810160405280929190818152602001828054610e7190614782565b8015610ebe5780601f10610e9357610100808354040283529160200191610ebe565b820191906000526020600020905b815481529060010190602001808311610ea157829003601f168201915b5050505050815260200160058201548152505090508092505050919050565b6000600482604051610eef91906147ef565b908152602001604051809103902060009054906101000a900473ffffffffffffffffffffffffffffffffffffffff169050919050565b610f2d613c40565b6000600660008473ffffffffffffffffffffffffffffffffffffffff1673ffffffffffffffffffffffffffffffffffffffff1681526020019081526020016000206040518060e00160405290816000820160009054906101000a900473ffffffffffffffffffffffffffffffffffffffff1673ffffffffffffffffffffffffffffffffffffffff1673ffffffffffffffffffffffffffffffffffffffff168152602001600182018054610fdf90614782565b80601f016020809104026020016040519081016040528092919081815260200182805461100b90614782565b80156110585780601f1061102d57610100808354040283529160200191611058565b820191906000526020600020905b81548152906001019060200180831161103b57829003601f168201915b505050505081526020016002820160009054906101000a900460ff161515151581526020016002820160019054906101000a900473ffffffffffffffffffffffffffffffffffffffff1673ffffffffffffffffffffffffffffffffffffffff1673ffffffffffffffffffffffffffffffffffffffff1681526020016003820180546110e290614782565b80601f016020809104026020016040519081016040528092919081815260200182805461110e90614782565b801561115b5780601f106111305761010080835404028352916020019161115b565b820191906000526020600020905b81548152906001019060200180831161113e57829003601f168201915b5050505050815260200160048201805461117490614782565b80601f01602080910402602001604051908101604052809291908181526020018280546111a090614782565b80156111ed5780601f106111c2576101008083540402835291602001916111ed565b820191906000526020600020905b8154815290600101906020018083116111d057829003601f168201915b50505050508152602001600582015481525050905080915050919050565b611213613c40565b600061121e83610edd565b90506000600660008373ffffffffffffffffffffffffffffffffffffffff1673ffffffffffffffffffffffffffffffffffffffff1681526020019081526020016000206040518060e00160405290816000820160009054906101000a900473ffffffffffffffffffffffffffffffffffffffff1673ffffffffffffffffffffffffffffffffffffffff1673ffffffffffffffffffffffffffffffffffffffff1681526020016001820180546112d290614782565b80601f01602080910402602001604051908101604052809291908181526020018280546112fe90614782565b801561134b5780601f106113205761010080835404028352916020019161134b565b820191906000526020600020905b81548152906001019060200180831161132e57829003601f168201915b505050505081526020016002820160009054906101000a900460ff161515151581526020016002820160019054906101000a900473ffffffffffffffffffffffffffffffffffffffff1673ffffffffffffffffffffffffffffffffffffffff1673ffffffffffffffffffffffffffffffffffffffff1681526020016003820180546113d590614782565b80601f016020809104026020016040519081016040528092919081815260200182805461140190614782565b801561144e5780601f106114235761010080835404028352916020019161144e565b820191906000526020600020905b81548152906001019060200180831161143157829003601f168201915b5050505050815260200160048201805461146790614782565b80601f016020809104026020016040519081016040528092919081815260200182805461149390614782565b80156114e05780601f106114b5576101008083540402835291602001916114e0565b820191906000526020600020905b8154815290600101906020018083116114c357829003601f168201915b5050505050815260200160058201548152505090508092505050919050565b7fcea62fe6ecc79e221c545bf918f804693c542ead2549e37c2bb9baa66ee2e15761152981612aab565b6000600660008473ffffffffffffffffffffffffffffffffffffffff1673ffffffffffffffffffffffffffffffffffffffff168152602001908152602001600020600101805461157890614782565b80601f01602080910402602001604051908101604052809291908181526020018280546115a490614782565b80156115f15780601f106115c6576101008083540402835291602001916115f1565b820191906000526020600020905b8154815290600101906020018083116115d457829003601f168201915b505050505090506000600660008573ffffffffffffffffffffffffffffffffffffffff1673ffffffffffffffffffffffffffffffffffffffff168152602001908152602001600020600301805461164790614782565b80601f016020809104026020016040519081016040528092919081815260200182805461167390614782565b80156116c05780601f10611695576101008083540402835291602001916116c0565b820191906000526020600020905b8154815290600101906020018083116116a357829003601f168201915b5050505050905060004690506005811461170f576040517f08c379a000000000000000000000000000000000000000000000000000000000815260040161170690614852565b60405180910390fd5b600660008673ffffffffffffffffffffffffffffffffffffffff1673ffffffffffffffffffffffffffffffffffffffff168152602001908152602001600020600080820160006101000a81549073ffffffffffffffffffffffffffffffffffffffff02191690556001820160006117869190613cae565b6002820160006101000a81549060ff02191690556002820160016101000a81549073ffffffffffffffffffffffffffffffffffffffff02191690556003820160006117d19190613cae565b6004820160006117e19190613cae565b600582016000905550506004836040516117fb91906147ef565b908152602001604051809103902060006101000a81549073ffffffffffffffffffffffffffffffffffffffff021916905560078260405161183c91906147ef565b908152602001604051809103902060006101000a81549073ffffffffffffffffffffffffffffffffffffffff02191690557fe444442b4fc5a03103c68bde16932de23949be11145d1b4707d817bfb5055738838660405161189e929190614872565b60405180910390a15050505050565b600060016000838152602001908152602001600020600101549050919050565b60006118d882610edd565b90506000600660008373ffffffffffffffffffffffffffffffffffffffff1673ffffffffffffffffffffffffffffffffffffffff168152602001908152602001600020600301805461192990614782565b80601f016020809104026020016040519081016040528092919081815260200182805461195590614782565b80156119a25780601f10611977576101008083540402835291602001916119a2565b820191906000526020600020905b81548152906001019060200180831161198557829003601f168201915b5050505050905060001515600660008473ffffffffffffffffffffffffffffffffffffffff1673ffffffffffffffffffffffffffffffffffffffff16815260200190815260200160002060020160009054906101000a900460ff16151514611a3f576040517f08c379a0000000000000000000000000000000000000000000000000000000008152600401611a3690614914565b60405180910390fd5b6000600860003373ffffffffffffffffffffffffffffffffffffffff1673ffffffffffffffffffffffffffffffffffffffff16815260200190815260200160002060008473ffffffffffffffffffffffffffffffffffffffff1673ffffffffffffffffffffffffffffffffffffffff16815260200190815260200160002060009054906101000a900460ff1690506000151581151514611b14576040517f08c379a0000000000000000000000000000000000000000000000000000000008152600401611b0b90614980565b60405180910390fd5b600660008473ffffffffffffffffffffffffffffffffffffffff1673ffffffffffffffffffffffffffffffffffffffff168152602001908152602001600020600080820160006101000a81549073ffffffffffffffffffffffffffffffffffffffff0219169055600182016000611b8b9190613cae565b6002820160006101000a81549060ff02191690556002820160016101000a81549073ffffffffffffffffffffffffffffffffffffffff0219169055600382016000611bd69190613cae565b600482016000611be69190613cae565b60058201600090555050600484604051611c0091906147ef565b908152602001604051809103902060006101000a81549073ffffffffffffffffffffffffffffffffffffffff0219169055600782604051611c4191906147ef565b908152602001604051809103902060006101000a81549073ffffffffffffffffffffffffffffffffffffffff0219169055600860003373ffffffffffffffffffffffffffffffffffffffff1673ffffffffffffffffffffffffffffffffffffffff16815260200190815260200160002060008473ffffffffffffffffffffffffffffffffffffffff1673ffffffffffffffffffffffffffffffffffffffff16815260200190815260200160002060006101000a81549060ff02191690557fe444442b4fc5a03103c68bde16932de23949be11145d1b4707d817bfb50557388484604051611d2f929190614872565b60405180910390a150505050565b611d46826118ad565b611d4f81612aab565b611d598383612abf565b505050565b611d66612b9f565b73ffffffffffffffffffffffffffffffffffffffff168173ffffffffffffffffffffffffffffffffffffffff1614611dd3576040517f08c379a0000000000000000000000000000000000000000000000000000000008152600401611dca90614a12565b60405180910390fd5b611ddd8282612ba7565b5050565b7fcea62fe6ecc79e221c545bf918f804693c542ead2549e37c2bb9baa66ee2e15781565b611e128585858585612c89565b5050505050565b60086020528160005260406000206020528060005260406000206000915091509054906101000a900460ff1681565b6000600254905090565b611e5b8161301f565b50565b60007fcea62fe6ecc79e221c545bf918f804693c542ead2549e37c2bb9baa66ee2e157905090565b60606000611e9383610f25565b90508060200151915050919050565b6000600660003373ffffffffffffffffffffffffffffffffffffffff1673ffffffffffffffffffffffffffffffffffffffff16815260200190815260200160002060020160009054906101000a900460ff1690506000151581151514611f3d576040517f08c379a0000000000000000000000000000000000000000000000000000000008152600401611f3490614a7e565b60405180910390fd5b611f463361301f565b50565b6007818051602081018201805184825260208301602085012081835280955050505050506000915054906101000a900473ffffffffffffffffffffffffffffffffffffffff1681565b611f9a613359565b611fa460006133d7565b565b6060600560008381526020019081526020016000208054611fc690614782565b80601f0160208091040260200160405190810160405280929190818152602001828054611ff290614782565b801561203f5780601f106120145761010080835404028352916020019161203f565b820191906000526020600020905b81548152906001019060200180831161202257829003601f168201915b50505050509050919050565b6004818051602081018201805184825260208301602085012081835280955050505050506000915054906101000a900473ffffffffffffffffffffffffffffffffffffffff1681565b600033905060025434146120dd576040517f08c379a00000000000000000000000000000000000000000000000000000000081526004016120d490614aea565b60405180910390fd5b60006007856040516120ef91906147ef565b908152602001604051809103902060009054906101000a900473ffffffffffffffffffffffffffffffffffffffff169050600061212b846128d8565b90506040518060e001604052808473ffffffffffffffffffffffffffffffffffffffff1681526020018981526020016000151581526020018373ffffffffffffffffffffffffffffffffffffffff16815260200188815260200186815260200182815250600660003373ffffffffffffffffffffffffffffffffffffffff1673ffffffffffffffffffffffffffffffffffffffff16815260200190815260200160002060008201518160000160006101000a81548173ffffffffffffffffffffffffffffffffffffffff021916908373ffffffffffffffffffffffffffffffffffffffff160217905550602082015181600101908161222a9190614cb6565b5060408201518160020160006101000a81548160ff02191690831515021790555060608201518160020160016101000a81548173ffffffffffffffffffffffffffffffffffffffff021916908373ffffffffffffffffffffffffffffffffffffffff16021790555060808201518160030190816122a79190614cb6565b5060a08201518160040190816122bd9190614cb6565b5060c082015181600501559050506000600360009054906101000a900473ffffffffffffffffffffffffffffffffffffffff1673ffffffffffffffffffffffffffffffffffffffff1660025460405161231590614db9565b60006040518083038185875af1925050503d8060008114612352576040519150601f19603f3d011682016040523d82523d6000602084013e612357565b606091505b505090508061239b576040517f08c379a000000000000000000000000000000000000000000000000000000000815260040161239290614e1a565b60405180910390fd5b6123a889858a8a89612c89565b8273ffffffffffffffffffffffffffffffffffffffff167f435b683210e9cdb43126109baed7a6a387c609e0e13532755b51016e1b773a6b8a336040516123f0929190614872565b60405180910390a28273ffffffffffffffffffffffffffffffffffffffff167f71ec84cb0c406d66954dcb2481d75f63a94ed77283afa5657d56e68a20df3c528a33604051612440929190614872565b60405180910390a26000600860008573ffffffffffffffffffffffffffffffffffffffff1673ffffffffffffffffffffffffffffffffffffffff16815260200190815260200160002060003373ffffffffffffffffffffffffffffffffffffffff1673ffffffffffffffffffffffffffffffffffffffff16815260200190815260200160002060006101000a81548160ff021916908315150217905550505050505050505050565b60008060009054906101000a900473ffffffffffffffffffffffffffffffffffffffff16905090565b60006001600084815260200190815260200160002060000160008373ffffffffffffffffffffffffffffffffffffffff1673ffffffffffffffffffffffffffffffffffffffff16815260200190815260200160002060009054906101000a900460ff16905092915050565b600060078260405161258e91906147ef565b908152602001604051809103902060009054906101000a900473ffffffffffffffffffffffffffffffffffffffff1690503373ffffffffffffffffffffffffffffffffffffffff168173ffffffffffffffffffffffffffffffffffffffff161461262d576040517f08c379a000000000000000000000000000000000000000000000000000000000815260040161262490614e86565b60405180910390fd5b600061263884610edd565b90506000600860008473ffffffffffffffffffffffffffffffffffffffff1673ffffffffffffffffffffffffffffffffffffffff16815260200190815260200160002060008373ffffffffffffffffffffffffffffffffffffffff1673ffffffffffffffffffffffffffffffffffffffff16815260200190815260200160002060009054906101000a900460ff169050600015158115151461270f576040517f08c379a000000000000000000000000000000000000000000000000000000000815260040161270690614ef2565b60405180910390fd5b6001600660008473ffffffffffffffffffffffffffffffffffffffff1673ffffffffffffffffffffffffffffffffffffffff16815260200190815260200160002060020160006101000a81548160ff02191690831515021790555033600660008473ffffffffffffffffffffffffffffffffffffffff1673ffffffffffffffffffffffffffffffffffffffff16815260200190815260200160002060020160016101000a81548173ffffffffffffffffffffffffffffffffffffffff021916908373ffffffffffffffffffffffffffffffffffffffff1602179055506001600860008573ffffffffffffffffffffffffffffffffffffffff1673ffffffffffffffffffffffffffffffffffffffff16815260200190815260200160002060008473ffffffffffffffffffffffffffffffffffffffff1673ffffffffffffffffffffffffffffffffffffffff16815260200190815260200160002060006101000a81548160ff0219169083151502179055508173ffffffffffffffffffffffffffffffffffffffff167fadbeb0a5d66e2be993428864e5c86f7c8aa562e2c58131d193ac2eeb7443817a8460016040516128c9929190614f12565b60405180910390a25050505050565b6000816040516020016128eb919061407a565b604051602081830303815290604052805190602001209050919050565b6000801b81565b6060600061291c83610f25565b905060008160a0015190508092505050919050565b61293d8484848461349b565b50505050565b600060078260405161295591906147ef565b908152602001604051809103902060009054906101000a900473ffffffffffffffffffffffffffffffffffffffff169050919050565b612993613359565b8060028190555050565b6129a6826118ad565b6129af81612aab565b6129b98383612ba7565b505050565b6129c6613359565b600073ffffffffffffffffffffffffffffffffffffffff168173ffffffffffffffffffffffffffffffffffffffff1603612a35576040517f08c379a0000000000000000000000000000000000000000000000000000000008152600401612a2c90614fad565b60405180910390fd5b612a3e816133d7565b50565b60007f01ffc9a7000000000000000000000000000000000000000000000000000000007bffffffffffffffffffffffffffffffffffffffffffffffffffffffff1916827bffffffffffffffffffffffffffffffffffffffffffffffffffffffff1916149050919050565b612abc81612ab7612b9f565b613952565b50565b612ac98282612511565b612b9b57600180600084815260200190815260200160002060000160008373ffffffffffffffffffffffffffffffffffffffff1673ffffffffffffffffffffffffffffffffffffffff16815260200190815260200160002060006101000a81548160ff021916908315150217905550612b40612b9f565b73ffffffffffffffffffffffffffffffffffffffff168173ffffffffffffffffffffffffffffffffffffffff16837f2f8788117e7eff1d82e926ec794901d17c78024a50270940304540a733656f0d60405160405180910390a45b5050565b600033905090565b612bb18282612511565b15612c855760006001600084815260200190815260200160002060000160008373ffffffffffffffffffffffffffffffffffffffff1673ffffffffffffffffffffffffffffffffffffffff16815260200190815260200160002060006101000a81548160ff021916908315150217905550612c2a612b9f565b73ffffffffffffffffffffffffffffffffffffffff168173ffffffffffffffffffffffffffffffffffffffff16837ff6391f5c32d9c69d2a47ea670b442974b53935d1edc7fd64eb21e047a839171b60405160405180910390a45b5050565b6000612c94826128d8565b9050600073ffffffffffffffffffffffffffffffffffffffff16600487604051612cbe91906147ef565b908152602001604051809103902060009054906101000a900473ffffffffffffffffffffffffffffffffffffffff1673ffffffffffffffffffffffffffffffffffffffff1614612d43576040517f08c379a0000000000000000000000000000000000000000000000000000000008152600401612d3a9061503f565b60405180910390fd5b6000600560008381526020019081526020016000208054612d6390614782565b905014612da5576040517f08c379a0000000000000000000000000000000000000000000000000000000008152600401612d9c906150ab565b60405180910390fd5b6000600960009054906101000a900473ffffffffffffffffffffffffffffffffffffffff1673ffffffffffffffffffffffffffffffffffffffff1663a430c74486866040518363ffffffff1660e01b8152600401612e049291906150cb565b602060405180830381865afa158015612e21573d6000803e3d6000fd5b505050506040513d601f19601f82011682018060405250810190612e45919061512e565b90506001151581151514612e8e576040517f08c379a0000000000000000000000000000000000000000000000000000000008152600401612e85906151a7565b60405180910390fd5b600073ffffffffffffffffffffffffffffffffffffffff16600786604051612eb691906147ef565b908152602001604051809103902060009054906101000a900473ffffffffffffffffffffffffffffffffffffffff1673ffffffffffffffffffffffffffffffffffffffff1614612f3b576040517f08c379a0000000000000000000000000000000000000000000000000000000008152600401612f3290615213565b60405180910390fd5b86600560008481526020019081526020016000209081612f5b9190614cb6565b5085600488604051612f6d91906147ef565b908152602001604051809103902060006101000a81548173ffffffffffffffffffffffffffffffffffffffff021916908373ffffffffffffffffffffffffffffffffffffffff16021790555085600786604051612fca91906147ef565b908152602001604051809103902060006101000a81548173ffffffffffffffffffffffffffffffffffffffff021916908373ffffffffffffffffffffffffffffffffffffffff16021790555050505050505050565b6000600660008373ffffffffffffffffffffffffffffffffffffffff1673ffffffffffffffffffffffffffffffffffffffff168152602001908152602001600020600101805461306e90614782565b80601f016020809104026020016040519081016040528092919081815260200182805461309a90614782565b80156130e75780601f106130bc576101008083540402835291602001916130e7565b820191906000526020600020905b8154815290600101906020018083116130ca57829003601f168201915b505050505090506000600660008473ffffffffffffffffffffffffffffffffffffffff1673ffffffffffffffffffffffffffffffffffffffff168152602001908152602001600020600301805461313d90614782565b80601f016020809104026020016040519081016040528092919081815260200182805461316990614782565b80156131b65780601f1061318b576101008083540402835291602001916131b6565b820191906000526020600020905b81548152906001019060200180831161319957829003601f168201915b50505050509050600660008473ffffffffffffffffffffffffffffffffffffffff1673ffffffffffffffffffffffffffffffffffffffff168152602001908152602001600020600080820160006101000a81549073ffffffffffffffffffffffffffffffffffffffff02191690556001820160006132349190613cae565b6002820160006101000a81549060ff02191690556002820160016101000a81549073ffffffffffffffffffffffffffffffffffffffff021916905560038201600061327f9190613cae565b60048201600061328f9190613cae565b600582016000905550506004826040516132a991906147ef565b908152602001604051809103902060006101000a81549073ffffffffffffffffffffffffffffffffffffffff02191690556007816040516132ea91906147ef565b908152602001604051809103902060006101000a81549073ffffffffffffffffffffffffffffffffffffffff02191690557fe444442b4fc5a03103c68bde16932de23949be11145d1b4707d817bfb5055738828460405161334c929190614872565b60405180910390a1505050565b613361612b9f565b73ffffffffffffffffffffffffffffffffffffffff1661337f6124e8565b73ffffffffffffffffffffffffffffffffffffffff16146133d5576040517f08c379a00000000000000000000000000000000000000000000000000000000081526004016133cc9061527f565b60405180910390fd5b565b60008060009054906101000a900473ffffffffffffffffffffffffffffffffffffffff169050816000806101000a81548173ffffffffffffffffffffffffffffffffffffffff021916908373ffffffffffffffffffffffffffffffffffffffff1602179055508173ffffffffffffffffffffffffffffffffffffffff168173ffffffffffffffffffffffffffffffffffffffff167f8be0079c531659141344cd1fd0a4f28419497f9722a3daafe3b4186f6b6457e060405160405180910390a35050565b836004846040516134ac91906147ef565b908152602001604051809103902060006101000a81548173ffffffffffffffffffffffffffffffffffffffff021916908373ffffffffffffffffffffffffffffffffffffffff160217905550836007604051613507906152eb565b908152602001604051809103902060006101000a81548173ffffffffffffffffffffffffffffffffffffffff021916908373ffffffffffffffffffffffffffffffffffffffff160217905550600061355e826128d8565b90506040518060e001604052808673ffffffffffffffffffffffffffffffffffffffff1681526020018581526020016001151581526020018673ffffffffffffffffffffffffffffffffffffffff1681526020016040518060400160405280600481526020017f4164616d00000000000000000000000000000000000000000000000000000000815250815260200184815260200182815250600660008773ffffffffffffffffffffffffffffffffffffffff1673ffffffffffffffffffffffffffffffffffffffff16815260200190815260200160002060008201518160000160006101000a81548173ffffffffffffffffffffffffffffffffffffffff021916908373ffffffffffffffffffffffffffffffffffffffff16021790555060208201518160010190816136929190614cb6565b5060408201518160020160006101000a81548160ff02191690831515021790555060608201518160020160016101000a81548173ffffffffffffffffffffffffffffffffffffffff021916908373ffffffffffffffffffffffffffffffffffffffff160217905550608082015181600301908161370f9190614cb6565b5060a08201518160040190816137259190614cb6565b5060c082015181600501559050506001600660008773ffffffffffffffffffffffffffffffffffffffff1673ffffffffffffffffffffffffffffffffffffffff16815260200190815260200160002060020160006101000a81548160ff02191690831515021790555033600660008773ffffffffffffffffffffffffffffffffffffffff1673ffffffffffffffffffffffffffffffffffffffff16815260200190815260200160002060020160016101000a81548173ffffffffffffffffffffffffffffffffffffffff021916908373ffffffffffffffffffffffffffffffffffffffff160217905550600061384f6040518060400160405280600181526020017f3000000000000000000000000000000000000000000000000000000000000000815250612943565b90506001600860008373ffffffffffffffffffffffffffffffffffffffff1673ffffffffffffffffffffffffffffffffffffffff16815260200190815260200160002060008873ffffffffffffffffffffffffffffffffffffffff1673ffffffffffffffffffffffffffffffffffffffff16815260200190815260200160002060006101000a81548160ff021916908315150217905550846005600084815260200190815260200160002090816139069190614cb6565b508573ffffffffffffffffffffffffffffffffffffffff167f908408e307fc569b417f6cbec5d5a06f44a0a505ac0479b47d421a4b2fd6a1e660405160405180910390a2505050505050565b61395c8282612511565b6139d357613969816139d7565b6139778360001c6020613a04565b604051602001613988929190615398565b6040516020818303038152906040526040517f08c379a00000000000000000000000000000000000000000000000000000000081526004016139ca919061407a565b60405180910390fd5b5050565b60606139fd8273ffffffffffffffffffffffffffffffffffffffff16601460ff16613a04565b9050919050565b606060006002836002613a179190615401565b613a219190615443565b67ffffffffffffffff811115613a3a57613a39613d3a565b5b6040519080825280601f01601f191660200182016040528015613a6c5781602001600182028036833780820191505090505b5090507f300000000000000000000000000000000000000000000000000000000000000081600081518110613aa457613aa3615477565b5b60200101907effffffffffffffffffffffffffffffffffffffffffffffffffffffffffffff1916908160001a9053507f780000000000000000000000000000000000000000000000000000000000000081600181518110613b0857613b07615477565b5b60200101907effffffffffffffffffffffffffffffffffffffffffffffffffffffffffffff1916908160001a90535060006001846002613b489190615401565b613b529190615443565b90505b6001811115613bf2577f3031323334353637383961626364656600000000000000000000000000000000600f861660108110613b9457613b93615477565b5b1a60f81b828281518110613bab57613baa615477565b5b60200101907effffffffffffffffffffffffffffffffffffffffffffffffffffffffffffff1916908160001a905350600485901c945080613beb906154a6565b9050613b55565b5060008414613c36576040517f08c379a0000000000000000000000000000000000000000000000000000000008152600401613c2d9061551b565b60405180910390fd5b8091505092915050565b6040518060e00160405280600073ffffffffffffffffffffffffffffffffffffffff16815260200160608152602001600015158152602001600073ffffffffffffffffffffffffffffffffffffffff1681526020016060815260200160608152602001600080191681525090565b508054613cba90614782565b6000825580601f10613ccc5750613ceb565b601f016020900490600052602060002090810190613cea9190613cee565b5b50565b5b80821115613d07576000816000905550600101613cef565b5090565b6000604051905090565b600080fd5b600080fd5b600080fd5b600080fd5b6000601f19601f8301169050919050565b7f4e487b7100000000000000000000000000000000000000000000000000000000600052604160045260246000fd5b613d7282613d29565b810181811067ffffffffffffffff82111715613d9157613d90613d3a565b5b80604052505050565b6000613da4613d0b565b9050613db08282613d69565b919050565b600067ffffffffffffffff821115613dd057613dcf613d3a565b5b613dd982613d29565b9050602081019050919050565b82818337600083830152505050565b6000613e08613e0384613db5565b613d9a565b905082815260208101848484011115613e2457613e23613d24565b5b613e2f848285613de6565b509392505050565b600082601f830112613e4c57613e4b613d1f565b5b8135613e5c848260208601613df5565b91505092915050565b60008060408385031215613e7c57613e7b613d15565b5b600083013567ffffffffffffffff811115613e9a57613e99613d1a565b5b613ea685828601613e37565b925050602083013567ffffffffffffffff811115613ec757613ec6613d1a565b5b613ed385828601613e37565b9150509250929050565b60007fffffffff0000000000000000000000000000000000000000000000000000000082169050919050565b613f1281613edd565b8114613f1d57600080fd5b50565b600081359050613f2f81613f09565b92915050565b600060208284031215613f4b57613f4a613d15565b5b6000613f5984828501613f20565b91505092915050565b60008115159050919050565b613f7781613f62565b82525050565b6000602082019050613f926000830184613f6e565b92915050565b6000819050919050565b613fab81613f98565b8114613fb657600080fd5b50565b600081359050613fc881613fa2565b92915050565b600060208284031215613fe457613fe3613d15565b5b6000613ff284828501613fb9565b91505092915050565b600081519050919050565b600082825260208201905092915050565b60005b8381101561403557808201518184015260208101905061401a565b60008484015250505050565b600061404c82613ffb565b6140568185614006565b9350614066818560208601614017565b61406f81613d29565b840191505092915050565b600060208201905081810360008301526140948184614041565b905092915050565b600073ffffffffffffffffffffffffffffffffffffffff82169050919050565b60006140c78261409c565b9050919050565b6140d7816140bc565b82525050565b60006020820190506140f260008301846140ce565b92915050565b60006020828403121561410e5761410d613d15565b5b600082013567ffffffffffffffff81111561412c5761412b613d1a565b5b61413884828501613e37565b91505092915050565b61414a816140bc565b82525050565b600082825260208201905092915050565b600061416c82613ffb565b6141768185614150565b9350614186818560208601614017565b61418f81613d29565b840191505092915050565b6141a381613f62565b82525050565b6141b281613f98565b82525050565b600060e0830160008301516141d06000860182614141565b50602083015184820360208601526141e88282614161565b91505060408301516141fd604086018261419a565b5060608301516142106060860182614141565b50608083015184820360808601526142288282614161565b91505060a083015184820360a08601526142428282614161565b91505060c083015161425760c08601826141a9565b508091505092915050565b6000602082019050818103600083015261427c81846141b8565b905092915050565b61428d816140bc565b811461429857600080fd5b50565b6000813590506142aa81614284565b92915050565b6000602082840312156142c6576142c5613d15565b5b60006142d48482850161429b565b91505092915050565b6142e681613f98565b82525050565b600060208201905061430160008301846142dd565b92915050565b6000806040838503121561431e5761431d613d15565b5b600061432c85828601613fb9565b925050602061433d8582860161429b565b9150509250929050565b600080600080600060a0868803121561436357614362613d15565b5b600086013567ffffffffffffffff81111561438157614380613d1a565b5b61438d88828901613e37565b955050602061439e8882890161429b565b945050604086013567ffffffffffffffff8111156143bf576143be613d1a565b5b6143cb88828901613e37565b935050606086013567ffffffffffffffff8111156143ec576143eb613d1a565b5b6143f888828901613e37565b925050608086013567ffffffffffffffff81111561441957614418613d1a565b5b61442588828901613e37565b9150509295509295909350565b6000806040838503121561444957614448613d15565b5b60006144578582860161429b565b92505060206144688582860161429b565b9150509250929050565b6000819050919050565b61448581614472565b82525050565b60006020820190506144a0600083018461447c565b92915050565b600080600080600060a086880312156144c2576144c1613d15565b5b600086013567ffffffffffffffff8111156144e0576144df613d1a565b5b6144ec88828901613e37565b955050602086013567ffffffffffffffff81111561450d5761450c613d1a565b5b61451988828901613e37565b945050604086013567ffffffffffffffff81111561453a57614539613d1a565b5b61454688828901613e37565b935050606086013567ffffffffffffffff81111561456757614566613d1a565b5b61457388828901613e37565b925050608086013567ffffffffffffffff81111561459457614593613d1a565b5b6145a088828901613e37565b9150509295509295909350565b600080600080608085870312156145c7576145c6613d15565b5b60006145d58782880161429b565b945050602085013567ffffffffffffffff8111156145f6576145f5613d1a565b5b61460287828801613e37565b935050604085013567ffffffffffffffff81111561462357614622613d1a565b5b61462f87828801613e37565b925050606085013567ffffffffffffffff8111156146505761464f613d1a565b5b61465c87828801613e37565b91505092959194509250565b61467181614472565b811461467c57600080fd5b50565b60008135905061468e81614668565b92915050565b6000602082840312156146aa576146a9613d15565b5b60006146b88482850161467f565b91505092915050565b7f757365727320616c6c6f776564206f6e6c7920746f20636c656172207468656d60008201527f73656c6673000000000000000000000000000000000000000000000000000000602082015250565b600061471d602583614006565b9150614728826146c1565b604082019050919050565b6000602082019050818103600083015261474c81614710565b9050919050565b7f4e487b7100000000000000000000000000000000000000000000000000000000600052602260045260246000fd5b6000600282049050600182168061479a57607f821691505b6020821081036147ad576147ac614753565b5b50919050565b600081905092915050565b60006147c982613ffb565b6147d381856147b3565b93506147e3818560208601614017565b80840191505092915050565b60006147fb82846147be565b915081905092915050565b7f746573746e6574206f6e6c790000000000000000000000000000000000000000600082015250565b600061483c600c83614006565b915061484782614806565b602082019050919050565b6000602082019050818103600083015261486b8161482f565b9050919050565b6000604082019050818103600083015261488c8185614041565b905061489b60208301846140ce565b9392505050565b7f616c726561647920617070726f766564204f5220646f206e6f7420657869737460008201527f7320796574000000000000000000000000000000000000000000000000000000602082015250565b60006148fe602583614006565b9150614909826148a2565b604082019050919050565b6000602082019050818103600083015261492d816148f1565b9050919050565b7f616c7265616479206c696e6b6564204f5220646f6e7420657869737473000000600082015250565b600061496a601d83614006565b915061497582614934565b602082019050919050565b600060208201905081810360008301526149998161495d565b9050919050565b7f416363657373436f6e74726f6c3a2063616e206f6e6c792072656e6f756e636560008201527f20726f6c657320666f722073656c660000000000000000000000000000000000602082015250565b60006149fc602f83614006565b9150614a07826149a0565b604082019050919050565b60006020820190508181036000830152614a2b816149ef565b9050919050565b7f63616c6c20436c656172506172656e7420666972737400000000000000000000600082015250565b6000614a68601683614006565b9150614a7382614a32565b602082019050919050565b60006020820190508181036000830152614a9781614a5b565b9050919050565b7f5265717565737420666565206973206e6f742070616964000000000000000000600082015250565b6000614ad4601783614006565b9150614adf82614a9e565b602082019050919050565b60006020820190508181036000830152614b0381614ac7565b9050919050565b60008190508160005260206000209050919050565b60006020601f8301049050919050565b600082821b905092915050565b600060088302614b6c7fffffffffffffffffffffffffffffffffffffffffffffffffffffffffffffffff82614b2f565b614b768683614b2f565b95508019841693508086168417925050509392505050565b6000819050919050565b6000614bb3614bae614ba984614472565b614b8e565b614472565b9050919050565b6000819050919050565b614bcd83614b98565b614be1614bd982614bba565b848454614b3c565b825550505050565b600090565b614bf6614be9565b614c01818484614bc4565b505050565b5b81811015614c2557614c1a600082614bee565b600181019050614c07565b5050565b601f821115614c6a57614c3b81614b0a565b614c4484614b1f565b81016020851015614c53578190505b614c67614c5f85614b1f565b830182614c06565b50505b505050565b600082821c905092915050565b6000614c8d60001984600802614c6f565b1980831691505092915050565b6000614ca68383614c7c565b9150826002028217905092915050565b614cbf82613ffb565b67ffffffffffffffff811115614cd857614cd7613d3a565b5b614ce28254614782565b614ced828285614c29565b600060209050601f831160018114614d205760008415614d0e578287015190505b614d188582614c9a565b865550614d80565b601f198416614d2e86614b0a565b60005b82811015614d5657848901518255600182019150602085019450602081019050614d31565b86831015614d735784890151614d6f601f891682614c7c565b8355505b6001600288020188555050505b505050505050565b600081905092915050565b50565b6000614da3600083614d88565b9150614dae82614d93565b600082019050919050565b6000614dc482614d96565b9150819050919050565b7f556e61626c6520746f207472616e736665722066656500000000000000000000600082015250565b6000614e04601683614006565b9150614e0f82614dce565b602082019050919050565b60006020820190508181036000830152614e3381614df7565b9050919050565b7f6f6e6c7920706172656e745f6e616d652063616e206163636570742069740000600082015250565b6000614e70601e83614006565b9150614e7b82614e3a565b602082019050919050565b60006020820190508181036000830152614e9f81614e63565b9050919050565b7f616c726561647920726567697374726564000000000000000000000000000000600082015250565b6000614edc601183614006565b9150614ee782614ea6565b602082019050919050565b60006020820190508181036000830152614f0b81614ecf565b9050919050565b6000604082019050614f2760008301856140ce565b614f346020830184613f6e565b9392505050565b7f4f776e61626c653a206e6577206f776e657220697320746865207a65726f206160008201527f6464726573730000000000000000000000000000000000000000000000000000602082015250565b6000614f97602683614006565b9150614fa282614f3b565b604082019050919050565b60006020820190508181036000830152614fc681614f8a565b9050919050565b7f5468657265206973206164647265737320636f6e6e656374656420746f20746860008201527f617420494420616c726561647900000000000000000000000000000000000000602082015250565b6000615029602d83614006565b915061503482614fcd565b604082019050919050565b600060208201905081810360008301526150588161501c565b9050919050565b7f5468697320706c61696e5f696420616c72656164792072656769737472656400600082015250565b6000615095601f83614006565b91506150a08261505f565b602082019050919050565b600060208201905081810360008301526150c481615088565b9050919050565b600060408201905081810360008301526150e58185614041565b905081810360208301526150f98184614041565b90509392505050565b61510b81613f62565b811461511657600080fd5b50565b60008151905061512881615102565b92915050565b60006020828403121561514457615143613d15565b5b600061515284828501615119565b91505092915050565b7f64696374696f6e617279206572726f7200000000000000000000000000000000600082015250565b6000615191601083614006565b915061519c8261515b565b602082019050919050565b600060208201905081810360008301526151c081615184565b9050919050565b7f636f64656e616d652074616b656e000000000000000000000000000000000000600082015250565b60006151fd600e83614006565b9150615208826151c7565b602082019050919050565b6000602082019050818103600083015261522c816151f0565b9050919050565b7f4f776e61626c653a2063616c6c6572206973206e6f7420746865206f776e6572600082015250565b6000615269602083614006565b915061527482615233565b602082019050919050565b600060208201905081810360008301526152988161525c565b9050919050565b7f4164616d00000000000000000000000000000000000000000000000000000000600082015250565b60006152d56004836147b3565b91506152e08261529f565b600482019050919050565b60006152f6826152c8565b9150819050919050565b7f416363657373436f6e74726f6c3a206163636f756e7420000000000000000000600082015250565b60006153366017836147b3565b915061534182615300565b601782019050919050565b7f206973206d697373696e6720726f6c6520000000000000000000000000000000600082015250565b60006153826011836147b3565b915061538d8261534c565b601182019050919050565b60006153a382615329565b91506153af82856147be565b91506153ba82615375565b91506153c682846147be565b91508190509392505050565b7f4e487b7100000000000000000000000000000000000000000000000000000000600052601160045260246000fd5b600061540c82614472565b915061541783614472565b925082820261542581614472565b9150828204841483151761543c5761543b6153d2565b5b5092915050565b600061544e82614472565b915061545983614472565b9250828201905080821115615471576154706153d2565b5b92915050565b7f4e487b7100000000000000000000000000000000000000000000000000000000600052603260045260246000fd5b60006154b182614472565b9150600082036154c4576154c36153d2565b5b600182039050919050565b7f537472696e67733a20686578206c656e67746820696e73756666696369656e74600082015250565b6000615505602083614006565b9150615510826154cf565b602082019050919050565b60006020820190508181036000830152615534816154f8565b905091905056fea264697066735822122095dfaf369dae333eb9a5b3e3cc11248a9984d672522852af693bbc0cbae6f80e64736f6c634300081100337a6a58436a3969757365336748476141494967796169434f734a705157534345424261632f7a50477267513d",
  "linkReferences": {},
  "deployedLinkReferences": {}
}