{
  "_format": "hh-sol-artifact-1",
  "contractName": "Leg10nMock",
  "sourceName": "contracts/mocks/Leg10nMock.sol",
  "abi": [
    {
      "inputs": [
        {
          "internalType": "address",
          "name": "turing_",
          "type": "address"
        },
        {
          "internalType": "address",
          "name": "admin_",
          "type": "address"
        },
        {
          "internalType": "string",
          "name": "tgid_",
          "type": "string"
        },
        {
          "internalType": "string",
          "name": "public_key_",
          "type": "string"
        }
      ],
      "stateMutability": "nonpayable",
      "type": "constructor"
    },
    {
      "anonymous": false,
      "inputs": [
        {
          "indexed": true,
          "internalType": "address",
          "name": "admin",
          "type": "address"
        }
      ],
      "name": "Initialized",
      "type": "event"
    },
    {
      "anonymous": false,
      "inputs": [
        {
          "indexed": true,
          "internalType": "address",
          "name": "previousOwner",
          "type": "address"
        },
        {
          "indexed": true,
          "internalType": "address",
          "name": "newOwner",
          "type": "address"
        }
      ],
      "name": "OwnershipTransferred",
      "type": "event"
    },
    {
      "anonymous": false,
      "inputs": [
        {
          "indexed": true,
          "internalType": "bytes32",
          "name": "role",
          "type": "bytes32"
        },
        {
          "indexed": true,
          "internalType": "bytes32",
          "name": "previousAdminRole",
          "type": "bytes32"
        },
        {
          "indexed": true,
          "internalType": "bytes32",
          "name": "newAdminRole",
          "type": "bytes32"
        }
      ],
      "name": "RoleAdminChanged",
      "type": "event"
    },
    {
      "anonymous": false,
      "inputs": [
        {
          "indexed": true,
          "internalType": "bytes32",
          "name": "role",
          "type": "bytes32"
        },
        {
          "indexed": true,
          "internalType": "address",
          "name": "account",
          "type": "address"
        },
        {
          "indexed": true,
          "internalType": "address",
          "name": "sender",
          "type": "address"
        }
      ],
      "name": "RoleGranted",
      "type": "event"
    },
    {
      "anonymous": false,
      "inputs": [
        {
          "indexed": true,
          "internalType": "bytes32",
          "name": "role",
          "type": "bytes32"
        },
        {
          "indexed": true,
          "internalType": "address",
          "name": "account",
          "type": "address"
        },
        {
          "indexed": true,
          "internalType": "address",
          "name": "sender",
          "type": "address"
        }
      ],
      "name": "RoleRevoked",
      "type": "event"
    },
    {
      "anonymous": false,
      "inputs": [
        {
          "indexed": false,
          "internalType": "string",
          "name": "applyerTg",
          "type": "string"
        },
        {
          "indexed": false,
          "internalType": "address",
          "name": "wallet_address",
          "type": "address"
        },
        {
          "indexed": true,
          "internalType": "address",
          "name": "parent_address",
          "type": "address"
        }
      ],
      "name": "joinRequested",
      "type": "event"
    },
    {
      "anonymous": false,
      "inputs": [
        {
          "indexed": false,
          "internalType": "string",
          "name": "applyerTg",
          "type": "string"
        },
        {
          "indexed": false,
          "internalType": "address",
          "name": "wallet_address",
          "type": "address"
        },
        {
          "indexed": true,
          "internalType": "address",
          "name": "parent_address",
          "type": "address"
        }
      ],
      "name": "joinRequestedIndexedTG",
      "type": "event"
    },
    {
      "anonymous": false,
      "inputs": [
        {
          "indexed": false,
          "internalType": "address",
          "name": "high_node",
          "type": "address"
        },
        {
          "indexed": true,
          "internalType": "address",
          "name": "low_node",
          "type": "address"
        },
        {
          "indexed": false,
          "internalType": "bool",
          "name": "pravda",
          "type": "bool"
        }
      ],
      "name": "relationChanged",
      "type": "event"
    },
    {
      "anonymous": false,
      "inputs": [
        {
          "indexed": true,
          "internalType": "string",
          "name": "applyerTg",
          "type": "string"
        },
        {
          "indexed": false,
          "internalType": "address",
          "name": "user_address",
          "type": "address"
        },
        {
          "indexed": false,
          "internalType": "address",
          "name": "parent_address",
          "type": "address"
        }
      ],
      "name": "requestAccepted",
      "type": "event"
    },
    {
      "anonymous": false,
      "inputs": [
        {
          "indexed": false,
          "internalType": "string",
          "name": "applyerTg",
          "type": "string"
        },
        {
          "indexed": false,
          "internalType": "address",
          "name": "wallet",
          "type": "address"
        }
      ],
      "name": "requestDenied",
      "type": "event"
    },
    {
      "inputs": [
        {
          "internalType": "string",
          "name": "applyerTg",
          "type": "string"
        },
        {
          "internalType": "string",
          "name": "parent_name",
          "type": "string"
        }
      ],
      "name": "AcceptJoin",
      "outputs": [],
      "stateMutability": "nonpayable",
      "type": "function"
    },
    {
      "inputs": [
        {
          "internalType": "string",
          "name": "parent_name",
          "type": "string"
        },
        {
          "internalType": "string",
          "name": "child_name",
          "type": "string"
        }
      ],
      "name": "ClearParent",
      "outputs": [],
      "stateMutability": "nonpayable",
      "type": "function"
    },
    {
      "inputs": [],
      "name": "DEFAULT_ADMIN_ROLE",
      "outputs": [
        {
          "internalType": "bytes32",
          "name": "",
          "type": "bytes32"
        }
      ],
      "stateMutability": "view",
      "type": "function"
    },
    {
      "inputs": [
        {
          "internalType": "string",
          "name": "tgid",
          "type": "string"
        }
      ],
      "name": "DeclineRequest",
      "outputs": [],
      "stateMutability": "nonpayable",
      "type": "function"
    },
    {
      "inputs": [],
      "name": "GetOwner",
      "outputs": [
        {
          "internalType": "address",
          "name": "",
          "type": "address"
        }
      ],
      "stateMutability": "view",
      "type": "function"
    },
    {
      "inputs": [],
      "name": "GetPassportFee",
      "outputs": [
        {
          "internalType": "uint256",
          "name": "",
          "type": "uint256"
        }
      ],
      "stateMutability": "view",
      "type": "function"
    },
    {
      "inputs": [
        {
          "internalType": "address",
          "name": "user_address",
          "type": "address"
        }
      ],
      "name": "GetPublicKeyByAddress",
      "outputs": [
        {
          "internalType": "string",
          "name": "",
          "type": "string"
        }
      ],
      "stateMutability": "view",
      "type": "function"
    },
    {
      "inputs": [
        {
          "internalType": "address",
          "name": "user_wallet",
          "type": "address"
        }
      ],
      "name": "GetTgIdByAddress",
      "outputs": [
        {
          "internalType": "string",
          "name": "tgid",
          "type": "string"
        }
      ],
      "stateMutability": "view",
      "type": "function"
    },
    {
      "inputs": [
        {
          "internalType": "address",
          "name": "user_wallet",
          "type": "address"
        }
      ],
      "name": "GetUserByAddress",
      "outputs": [
        {
          "components": [
            {
              "internalType": "address",
              "name": "userAddress",
              "type": "address"
            },
            {
              "internalType": "string",
              "name": "tgId",
              "type": "string"
            },
            {
              "internalType": "bool",
              "name": "valid",
              "type": "bool"
            },
            {
              "internalType": "address",
              "name": "validatorAddress",
              "type": "address"
            },
            {
              "internalType": "string",
              "name": "codeName",
              "type": "string"
            },
            {
              "internalType": "string",
              "name": "public_key",
              "type": "string"
            }
          ],
          "internalType": "struct Leg10n.User",
          "name": "",
          "type": "tuple"
        }
      ],
      "stateMutability": "view",
      "type": "function"
    },
    {
      "inputs": [
        {
          "internalType": "string",
          "name": "user_name_",
          "type": "string"
        }
      ],
      "name": "GetUserByNickName",
      "outputs": [
        {
          "components": [
            {
              "internalType": "address",
              "name": "userAddress",
              "type": "address"
            },
            {
              "internalType": "string",
              "name": "tgId",
              "type": "string"
            },
            {
              "internalType": "bool",
              "name": "valid",
              "type": "bool"
            },
            {
              "internalType": "address",
              "name": "validatorAddress",
              "type": "address"
            },
            {
              "internalType": "string",
              "name": "codeName",
              "type": "string"
            },
            {
              "internalType": "string",
              "name": "public_key",
              "type": "string"
            }
          ],
          "internalType": "struct Leg10n.User",
          "name": "",
          "type": "tuple"
        }
      ],
      "stateMutability": "view",
      "type": "function"
    },
    {
      "inputs": [
        {
          "internalType": "string",
          "name": "tgId_",
          "type": "string"
        }
      ],
      "name": "GetUserByTgId",
      "outputs": [
        {
          "components": [
            {
              "internalType": "address",
              "name": "userAddress",
              "type": "address"
            },
            {
              "internalType": "string",
              "name": "tgId",
              "type": "string"
            },
            {
              "internalType": "bool",
              "name": "valid",
              "type": "bool"
            },
            {
              "internalType": "address",
              "name": "validatorAddress",
              "type": "address"
            },
            {
              "internalType": "string",
              "name": "codeName",
              "type": "string"
            },
            {
              "internalType": "string",
              "name": "public_key",
              "type": "string"
            }
          ],
          "internalType": "struct Leg10n.User",
          "name": "",
          "type": "tuple"
        }
      ],
      "stateMutability": "view",
      "type": "function"
    },
    {
      "inputs": [
        {
          "internalType": "string",
          "name": "tgId_",
          "type": "string"
        }
      ],
      "name": "GetUserWalletByID",
      "outputs": [
        {
          "internalType": "address",
          "name": "",
          "type": "address"
        }
      ],
      "stateMutability": "view",
      "type": "function"
    },
    {
      "inputs": [
        {
          "internalType": "string",
          "name": "user_name_",
          "type": "string"
        }
      ],
      "name": "GetWalletByNickName",
      "outputs": [
        {
          "internalType": "address",
          "name": "",
          "type": "address"
        }
      ],
      "stateMutability": "view",
      "type": "function"
    },
    {
      "inputs": [
        {
          "internalType": "string",
          "name": "applyerTg",
          "type": "string"
        },
        {
          "internalType": "string",
          "name": "code_name_",
          "type": "string"
        },
        {
          "internalType": "string",
          "name": "parent_name",
          "type": "string"
        },
        {
          "internalType": "string",
          "name": "public_key",
          "type": "string"
        }
      ],
      "name": "RequestJoin",
      "outputs": [],
      "stateMutability": "payable",
      "type": "function"
    },
    {
      "inputs": [
        {
          "internalType": "uint256",
          "name": "passportFee_",
          "type": "uint256"
        }
      ],
      "name": "SetPassportFee",
      "outputs": [],
      "stateMutability": "nonpayable",
      "type": "function"
    },
    {
      "inputs": [
        {
          "internalType": "address",
          "name": "",
          "type": "address"
        },
        {
          "internalType": "address",
          "name": "",
          "type": "address"
        }
      ],
      "name": "chain",
      "outputs": [
        {
          "internalType": "bool",
          "name": "",
          "type": "bool"
        }
      ],
      "stateMutability": "view",
      "type": "function"
    },
    {
      "inputs": [
        {
          "internalType": "address",
          "name": "user_address",
          "type": "address"
        }
      ],
      "name": "deleteUser",
      "outputs": [],
      "stateMutability": "nonpayable",
      "type": "function"
    },
    {
      "inputs": [],
      "name": "deleteYourSelf",
      "outputs": [],
      "stateMutability": "nonpayable",
      "type": "function"
    },
    {
      "inputs": [
        {
          "internalType": "address",
          "name": "user_address",
          "type": "address"
        }
      ],
      "name": "devDeleteUser",
      "outputs": [],
      "stateMutability": "nonpayable",
      "type": "function"
    },
    {
      "inputs": [
        {
          "internalType": "address",
          "name": "admin_",
          "type": "address"
        },
        {
          "internalType": "string",
          "name": "tgid_",
          "type": "string"
        },
        {
          "internalType": "string",
          "name": "public_key_",
          "type": "string"
        }
      ],
      "name": "devInitAdmin",
      "outputs": [],
      "stateMutability": "nonpayable",
      "type": "function"
    },
    {
      "inputs": [],
      "name": "getModeratorIdentifier",
      "outputs": [
        {
          "internalType": "bytes32",
          "name": "",
          "type": "bytes32"
        }
      ],
      "stateMutability": "pure",
      "type": "function"
    },
    {
      "inputs": [
        {
          "internalType": "bytes32",
          "name": "role",
          "type": "bytes32"
        }
      ],
      "name": "getRoleAdmin",
      "outputs": [
        {
          "internalType": "bytes32",
          "name": "",
          "type": "bytes32"
        }
      ],
      "stateMutability": "view",
      "type": "function"
    },
    {
      "inputs": [
        {
          "internalType": "bytes32",
          "name": "role",
          "type": "bytes32"
        },
        {
          "internalType": "address",
          "name": "account",
          "type": "address"
        }
      ],
      "name": "grantRole",
      "outputs": [],
      "stateMutability": "nonpayable",
      "type": "function"
    },
    {
      "inputs": [
        {
          "internalType": "bytes32",
          "name": "role",
          "type": "bytes32"
        },
        {
          "internalType": "address",
          "name": "account",
          "type": "address"
        }
      ],
      "name": "hasRole",
      "outputs": [
        {
          "internalType": "bool",
          "name": "",
          "type": "bool"
        }
      ],
      "stateMutability": "view",
      "type": "function"
    },
    {
      "inputs": [],
      "name": "moderator",
      "outputs": [
        {
          "internalType": "bytes32",
          "name": "",
          "type": "bytes32"
        }
      ],
      "stateMutability": "view",
      "type": "function"
    },
    {
      "inputs": [],
      "name": "owner",
      "outputs": [
        {
          "internalType": "address",
          "name": "",
          "type": "address"
        }
      ],
      "stateMutability": "view",
      "type": "function"
    },
    {
      "inputs": [],
      "name": "renounceOwnership",
      "outputs": [],
      "stateMutability": "nonpayable",
      "type": "function"
    },
    {
      "inputs": [
        {
          "internalType": "bytes32",
          "name": "role",
          "type": "bytes32"
        },
        {
          "internalType": "address",
          "name": "account",
          "type": "address"
        }
      ],
      "name": "renounceRole",
      "outputs": [],
      "stateMutability": "nonpayable",
      "type": "function"
    },
    {
      "inputs": [
        {
          "internalType": "bytes32",
          "name": "role",
          "type": "bytes32"
        },
        {
          "internalType": "address",
          "name": "account",
          "type": "address"
        }
      ],
      "name": "revokeRole",
      "outputs": [],
      "stateMutability": "nonpayable",
      "type": "function"
    },
    {
      "inputs": [
        {
          "internalType": "bytes4",
          "name": "interfaceId",
          "type": "bytes4"
        }
      ],
      "name": "supportsInterface",
      "outputs": [
        {
          "internalType": "bool",
          "name": "",
          "type": "bool"
        }
      ],
      "stateMutability": "view",
      "type": "function"
    },
    {
      "inputs": [
        {
          "internalType": "address",
          "name": "newOwner",
          "type": "address"
        }
      ],
      "name": "transferOwnership",
      "outputs": [],
      "stateMutability": "nonpayable",
      "type": "function"
    },
    {
      "inputs": [
        {
          "internalType": "string",
          "name": "tgId",
          "type": "string"
        },
        {
          "internalType": "address",
          "name": "userAddress",
          "type": "address"
        },
        {
          "internalType": "string",
          "name": "code_name_",
          "type": "string"
        },
        {
          "internalType": "string",
          "name": "parent_name",
          "type": "string"
        }
      ],
      "name": "updateAddress",
      "outputs": [],
      "stateMutability": "nonpayable",
      "type": "function"
    }
  ],
  "bytecode": "0x60806040523480156200001157600080fd5b50604051620060d8380380620060d8833981810160405281019062000037919062000d84565b838383836200005b6200004f6200046860201b60201c565b6200047060201b60201c565b66071afd498d0000600281905550620000796200053460201b60201c565b600360006101000a81548173ffffffffffffffffffffffffffffffffffffffff021916908373ffffffffffffffffffffffffffffffffffffffff160217905550620000ce6000801b336200055d60201b60201c565b620001007fcea62fe6ecc79e221c545bf918f804693c542ead2549e37c2bb9baa66ee2e157336200055d60201b60201c565b83600860006101000a81548173ffffffffffffffffffffffffffffffffffffffff021916908373ffffffffffffffffffffffffffffffffffffffff1602179055503360048360405162000154919062000e81565b908152602001604051809103902060006101000a81548173ffffffffffffffffffffffffffffffffffffffff021916908373ffffffffffffffffffffffffffffffffffffffff160217905550336006604051620001b19062000eea565b908152602001604051809103902060006101000a81548173ffffffffffffffffffffffffffffffffffffffff021916908373ffffffffffffffffffffffffffffffffffffffff1602179055506040518060c001604052803373ffffffffffffffffffffffffffffffffffffffff1681526020018381526020016001151581526020013373ffffffffffffffffffffffffffffffffffffffff1681526020016040518060400160405280600181526020017f300000000000000000000000000000000000000000000000000000000000000081525081526020016040518060600160405280602c8152602001620060ac602c9139815250600560003373ffffffffffffffffffffffffffffffffffffffff1673ffffffffffffffffffffffffffffffffffffffff16815260200190815260200160002060008201518160000160006101000a81548173ffffffffffffffffffffffffffffffffffffffff021916908373ffffffffffffffffffffffffffffffffffffffff160217905550602082015181600101908162000344919062001141565b5060408201518160020160006101000a81548160ff02191690831515021790555060608201518160020160016101000a81548173ffffffffffffffffffffffffffffffffffffffff021916908373ffffffffffffffffffffffffffffffffffffffff1602179055506080820151816003019081620003c3919062001141565b5060a0820151816004019081620003db919062001141565b50905050600073ffffffffffffffffffffffffffffffffffffffff168373ffffffffffffffffffffffffffffffffffffffff160362000446576200044033836040518060600160405280602c8152602001620060ac602c91396200064e60201b60201c565b6200045a565b620004598383836200064e60201b60201c565b5b50505050505050506200128f565b600033905090565b60008060009054906101000a900473ffffffffffffffffffffffffffffffffffffffff169050816000806101000a81548173ffffffffffffffffffffffffffffffffffffffff021916908373ffffffffffffffffffffffffffffffffffffffff1602179055508173ffffffffffffffffffffffffffffffffffffffff168173ffffffffffffffffffffffffffffffffffffffff167f8be0079c531659141344cd1fd0a4f28419497f9722a3daafe3b4186f6b6457e060405160405180910390a35050565b60008060009054906101000a900473ffffffffffffffffffffffffffffffffffffffff16905090565b6200056f828262000ad760201b60201c565b6200064a57600180600084815260200190815260200160002060000160008373ffffffffffffffffffffffffffffffffffffffff1673ffffffffffffffffffffffffffffffffffffffff16815260200190815260200160002060006101000a81548160ff021916908315150217905550620005ef6200046860201b60201c565b73ffffffffffffffffffffffffffffffffffffffff168173ffffffffffffffffffffffffffffffffffffffff16837f2f8788117e7eff1d82e926ec794901d17c78024a50270940304540a733656f0d60405160405180910390a45b5050565b8260048360405162000661919062000e81565b908152602001604051809103902060006101000a81548173ffffffffffffffffffffffffffffffffffffffff021916908373ffffffffffffffffffffffffffffffffffffffff160217905550826006604051620006be9062001278565b908152602001604051809103902060006101000a81548173ffffffffffffffffffffffffffffffffffffffff021916908373ffffffffffffffffffffffffffffffffffffffff1602179055506040518060c001604052808473ffffffffffffffffffffffffffffffffffffffff1681526020018381526020016001151581526020018473ffffffffffffffffffffffffffffffffffffffff1681526020016040518060400160405280600481526020017f4164616d00000000000000000000000000000000000000000000000000000000815250815260200182815250600560008573ffffffffffffffffffffffffffffffffffffffff1673ffffffffffffffffffffffffffffffffffffffff16815260200190815260200160002060008201518160000160006101000a81548173ffffffffffffffffffffffffffffffffffffffff021916908373ffffffffffffffffffffffffffffffffffffffff160217905550602082015181600101908162000838919062001141565b5060408201518160020160006101000a81548160ff02191690831515021790555060608201518160020160016101000a81548173ffffffffffffffffffffffffffffffffffffffff021916908373ffffffffffffffffffffffffffffffffffffffff1602179055506080820151816003019081620008b7919062001141565b5060a0820151816004019081620008cf919062001141565b509050506001600560008573ffffffffffffffffffffffffffffffffffffffff1673ffffffffffffffffffffffffffffffffffffffff16815260200190815260200160002060020160006101000a81548160ff02191690831515021790555033600560008573ffffffffffffffffffffffffffffffffffffffff1673ffffffffffffffffffffffffffffffffffffffff16815260200190815260200160002060020160016101000a81548173ffffffffffffffffffffffffffffffffffffffff021916908373ffffffffffffffffffffffffffffffffffffffff1602179055506000620009f76040518060400160405280600181526020017f300000000000000000000000000000000000000000000000000000000000000081525062000b4260201b60201c565b90506001600760008373ffffffffffffffffffffffffffffffffffffffff1673ffffffffffffffffffffffffffffffffffffffff16815260200190815260200160002060008673ffffffffffffffffffffffffffffffffffffffff1673ffffffffffffffffffffffffffffffffffffffff16815260200190815260200160002060006101000a81548160ff0219169083151502179055508373ffffffffffffffffffffffffffffffffffffffff167f908408e307fc569b417f6cbec5d5a06f44a0a505ac0479b47d421a4b2fd6a1e660405160405180910390a250505050565b60006001600084815260200190815260200160002060000160008373ffffffffffffffffffffffffffffffffffffffff1673ffffffffffffffffffffffffffffffffffffffff16815260200190815260200160002060009054906101000a900460ff16905092915050565b600060068260405162000b56919062000e81565b908152602001604051809103902060009054906101000a900473ffffffffffffffffffffffffffffffffffffffff169050919050565b6000604051905090565b600080fd5b600080fd5b600073ffffffffffffffffffffffffffffffffffffffff82169050919050565b600062000bcd8262000ba0565b9050919050565b62000bdf8162000bc0565b811462000beb57600080fd5b50565b60008151905062000bff8162000bd4565b92915050565b600080fd5b600080fd5b6000601f19601f8301169050919050565b7f4e487b7100000000000000000000000000000000000000000000000000000000600052604160045260246000fd5b62000c5a8262000c0f565b810181811067ffffffffffffffff8211171562000c7c5762000c7b62000c20565b5b80604052505050565b600062000c9162000b8c565b905062000c9f828262000c4f565b919050565b600067ffffffffffffffff82111562000cc25762000cc162000c20565b5b62000ccd8262000c0f565b9050602081019050919050565b60005b8381101562000cfa57808201518184015260208101905062000cdd565b60008484015250505050565b600062000d1d62000d178462000ca4565b62000c85565b90508281526020810184848401111562000d3c5762000d3b62000c0a565b5b62000d4984828562000cda565b509392505050565b600082601f83011262000d695762000d6862000c05565b5b815162000d7b84826020860162000d06565b91505092915050565b6000806000806080858703121562000da15762000da062000b96565b5b600062000db18782880162000bee565b945050602062000dc48782880162000bee565b935050604085015167ffffffffffffffff81111562000de85762000de762000b9b565b5b62000df68782880162000d51565b925050606085015167ffffffffffffffff81111562000e1a5762000e1962000b9b565b5b62000e288782880162000d51565b91505092959194509250565b600081519050919050565b600081905092915050565b600062000e578262000e34565b62000e63818562000e3f565b935062000e7581856020860162000cda565b80840191505092915050565b600062000e8f828462000e4a565b915081905092915050565b7f3000000000000000000000000000000000000000000000000000000000000000600082015250565b600062000ed260018362000e3f565b915062000edf8262000e9a565b600182019050919050565b600062000ef78262000ec3565b9150819050919050565b7f4e487b7100000000000000000000000000000000000000000000000000000000600052602260045260246000fd5b6000600282049050600182168062000f4957607f821691505b60208210810362000f5f5762000f5e62000f01565b5b50919050565b60008190508160005260206000209050919050565b60006020601f8301049050919050565b600082821b905092915050565b60006008830262000fc97fffffffffffffffffffffffffffffffffffffffffffffffffffffffffffffffff8262000f8a565b62000fd5868362000f8a565b95508019841693508086168417925050509392505050565b6000819050919050565b6000819050919050565b6000620010226200101c620010168462000fed565b62000ff7565b62000fed565b9050919050565b6000819050919050565b6200103e8362001001565b620010566200104d8262001029565b84845462000f97565b825550505050565b600090565b6200106d6200105e565b6200107a81848462001033565b505050565b5b81811015620010a2576200109660008262001063565b60018101905062001080565b5050565b601f821115620010f157620010bb8162000f65565b620010c68462000f7a565b81016020851015620010d6578190505b620010ee620010e58562000f7a565b8301826200107f565b50505b505050565b600082821c905092915050565b60006200111660001984600802620010f6565b1980831691505092915050565b600062001131838362001103565b9150826002028217905092915050565b6200114c8262000e34565b67ffffffffffffffff81111562001168576200116762000c20565b5b62001174825462000f30565b62001181828285620010a6565b600060209050601f831160018114620011b95760008415620011a4578287015190505b620011b0858262001123565b86555062001220565b601f198416620011c98662000f65565b60005b82811015620011f357848901518255600182019150602085019450602081019050620011cc565b868310156200121357848901516200120f601f89168262001103565b8355505b6001600288020188555050505b505050505050565b7f4164616d00000000000000000000000000000000000000000000000000000000600082015250565b60006200126060048362000e3f565b91506200126d8262001228565b600482019050919050565b6000620012858262001251565b9150819050919050565b614e0d806200129f6000396000f3fe6080604052600436106101e35760003560e01c806348dc1561116101025780639b45179f11610095578063d2114e1811610064578063d2114e1814610707578063d2125bd214610744578063d547741f1461076d578063f2fde38b14610796576101e3565b80639b45179f1461065a578063a217fddf14610683578063b932fbfa146106ae578063c54080c5146106eb576101e3565b8063679b06be116100d1578063679b06be146105c4578063715018a6146105db5780638da5cb5b146105f257806391d148541461061d576101e3565b806348dc1561146105085780635c60f226146105335780635d1ce88f1461055c57806361cabe3714610587576101e3565b8063248a9ca31161017a578063310c10b711610149578063310c10b71461044e57806336568abe1461047757806338743904146104a0578063460e6c9c146104cb576101e3565b8063248a9ca314610396578063281056df146103d3578063286b2e54146103fc5780632f2ff15d14610425576101e3565b806315905bdd116101b657806315905bdd146102b65780631892fd78146102f35780631a519ce8146103305780632067eac81461036d576101e3565b8063018d3dc9146101e857806301ffc9a7146102115780630ae50a391461024e5780630d48cae814610279575b600080fd5b3480156101f457600080fd5b5061020f600480360381019061020a91906138d1565b6107bf565b005b34801561021d57600080fd5b50610238600480360381019061023391906139a1565b61093d565b60405161024591906139e9565b60405180910390f35b34801561025a57600080fd5b506102636109b7565b6040516102709190613a45565b60405180910390f35b34801561028557600080fd5b506102a0600480360381019061029b9190613a60565b6109e1565b6040516102ad9190613bdd565b60405180910390f35b3480156102c257600080fd5b506102dd60048036038101906102d89190613a60565b610ccb565b6040516102ea9190613a45565b60405180910390f35b3480156102ff57600080fd5b5061031a60048036038101906103159190613c2b565b610d13565b6040516103279190613bdd565b60405180910390f35b34801561033c57600080fd5b5061035760048036038101906103529190613a60565b610fef565b6040516103649190613bdd565b60405180910390f35b34801561037957600080fd5b50610394600480360381019061038f9190613c2b565b6112d9565b005b3480156103a257600080fd5b506103bd60048036038101906103b89190613c8e565b61167f565b6040516103ca9190613cca565b60405180910390f35b3480156103df57600080fd5b506103fa60048036038101906103f59190613ce5565b61169f565b005b34801561040857600080fd5b50610423600480360381019061041e9190613a60565b6116b1565b005b34801561043157600080fd5b5061044c60048036038101906104479190613da0565b611b19565b005b34801561045a57600080fd5b5061047560048036038101906104709190613de0565b611b3a565b005b34801561048357600080fd5b5061049e60048036038101906104999190613da0565b611b4a565b005b3480156104ac57600080fd5b506104b5611bcd565b6040516104c29190613cca565b60405180910390f35b3480156104d757600080fd5b506104f260048036038101906104ed9190613e6b565b611bf1565b6040516104ff91906139e9565b60405180910390f35b34801561051457600080fd5b5061051d611c20565b60405161052a9190613ec4565b60405180910390f35b34801561053f57600080fd5b5061055a60048036038101906105559190613c2b565b611c2a565b005b34801561056857600080fd5b50610571611c36565b60405161057e9190613cca565b60405180910390f35b34801561059357600080fd5b506105ae60048036038101906105a99190613c2b565b611c5e565b6040516105bb9190613f29565b60405180910390f35b3480156105d057600080fd5b506105d9611c7a565b005b3480156105e757600080fd5b506105f0611d21565b005b3480156105fe57600080fd5b50610607611d35565b6040516106149190613a45565b60405180910390f35b34801561062957600080fd5b50610644600480360381019061063f9190613da0565b611d5e565b60405161065191906139e9565b60405180910390f35b34801561066657600080fd5b50610681600480360381019061067c91906138d1565b611dc9565b005b34801561068f57600080fd5b50610698612125565b6040516106a59190613cca565b60405180910390f35b3480156106ba57600080fd5b506106d560048036038101906106d09190613c2b565b61212c565b6040516106e29190613f29565b60405180910390f35b61070560048036038101906107009190613f4b565b61214e565b005b34801561071357600080fd5b5061072e60048036038101906107299190613a60565b612576565b60405161073b9190613a45565b60405180910390f35b34801561075057600080fd5b5061076b6004803603810190610766919061404e565b6125be565b005b34801561077957600080fd5b50610794600480360381019061078f9190613da0565b6125d0565b005b3480156107a257600080fd5b506107bd60048036038101906107b89190613c2b565b6125f1565b005b60006107ca82612576565b905060006107d784612576565b90503373ffffffffffffffffffffffffffffffffffffffff168273ffffffffffffffffffffffffffffffffffffffff1614610847576040517f08c379a000000000000000000000000000000000000000000000000000000000815260040161083e906140ed565b60405180910390fd5b6000600560008473ffffffffffffffffffffffffffffffffffffffff1673ffffffffffffffffffffffffffffffffffffffff16815260200190815260200160002060020160006101000a81548160ff0219169083151502179055506000600760008373ffffffffffffffffffffffffffffffffffffffff1673ffffffffffffffffffffffffffffffffffffffff16815260200190815260200160002060003373ffffffffffffffffffffffffffffffffffffffff1673ffffffffffffffffffffffffffffffffffffffff16815260200190815260200160002060006101000a81548160ff02191690831515021790555050505050565b60007f7965db0b000000000000000000000000000000000000000000000000000000007bffffffffffffffffffffffffffffffffffffffffffffffffffffffff1916827bffffffffffffffffffffffffffffffffffffffffffffffffffffffff191614806109b057506109af82612674565b5b9050919050565b6000600360009054906101000a900473ffffffffffffffffffffffffffffffffffffffff16905090565b6109e96136b6565b60006109f483612576565b90506000600560008373ffffffffffffffffffffffffffffffffffffffff1673ffffffffffffffffffffffffffffffffffffffff1681526020019081526020016000206040518060c00160405290816000820160009054906101000a900473ffffffffffffffffffffffffffffffffffffffff1673ffffffffffffffffffffffffffffffffffffffff1673ffffffffffffffffffffffffffffffffffffffff168152602001600182018054610aa89061413c565b80601f0160208091040260200160405190810160405280929190818152602001828054610ad49061413c565b8015610b215780601f10610af657610100808354040283529160200191610b21565b820191906000526020600020905b815481529060010190602001808311610b0457829003601f168201915b505050505081526020016002820160009054906101000a900460ff161515151581526020016002820160019054906101000a900473ffffffffffffffffffffffffffffffffffffffff1673ffffffffffffffffffffffffffffffffffffffff1673ffffffffffffffffffffffffffffffffffffffff168152602001600382018054610bab9061413c565b80601f0160208091040260200160405190810160405280929190818152602001828054610bd79061413c565b8015610c245780601f10610bf957610100808354040283529160200191610c24565b820191906000526020600020905b815481529060010190602001808311610c0757829003601f168201915b50505050508152602001600482018054610c3d9061413c565b80601f0160208091040260200160405190810160405280929190818152602001828054610c699061413c565b8015610cb65780601f10610c8b57610100808354040283529160200191610cb6565b820191906000526020600020905b815481529060010190602001808311610c9957829003601f168201915b50505050508152505090508092505050919050565b6000600482604051610cdd91906141a9565b908152602001604051809103902060009054906101000a900473ffffffffffffffffffffffffffffffffffffffff169050919050565b610d1b6136b6565b6000600560008473ffffffffffffffffffffffffffffffffffffffff1673ffffffffffffffffffffffffffffffffffffffff1681526020019081526020016000206040518060c00160405290816000820160009054906101000a900473ffffffffffffffffffffffffffffffffffffffff1673ffffffffffffffffffffffffffffffffffffffff1673ffffffffffffffffffffffffffffffffffffffff168152602001600182018054610dcd9061413c565b80601f0160208091040260200160405190810160405280929190818152602001828054610df99061413c565b8015610e465780601f10610e1b57610100808354040283529160200191610e46565b820191906000526020600020905b815481529060010190602001808311610e2957829003601f168201915b505050505081526020016002820160009054906101000a900460ff161515151581526020016002820160019054906101000a900473ffffffffffffffffffffffffffffffffffffffff1673ffffffffffffffffffffffffffffffffffffffff1673ffffffffffffffffffffffffffffffffffffffff168152602001600382018054610ed09061413c565b80601f0160208091040260200160405190810160405280929190818152602001828054610efc9061413c565b8015610f495780601f10610f1e57610100808354040283529160200191610f49565b820191906000526020600020905b815481529060010190602001808311610f2c57829003601f168201915b50505050508152602001600482018054610f629061413c565b80601f0160208091040260200160405190810160405280929190818152602001828054610f8e9061413c565b8015610fdb5780601f10610fb057610100808354040283529160200191610fdb565b820191906000526020600020905b815481529060010190602001808311610fbe57829003601f168201915b505050505081525050905080915050919050565b610ff76136b6565b600061100283610ccb565b90506000600560008373ffffffffffffffffffffffffffffffffffffffff1673ffffffffffffffffffffffffffffffffffffffff1681526020019081526020016000206040518060c00160405290816000820160009054906101000a900473ffffffffffffffffffffffffffffffffffffffff1673ffffffffffffffffffffffffffffffffffffffff1673ffffffffffffffffffffffffffffffffffffffff1681526020016001820180546110b69061413c565b80601f01602080910402602001604051908101604052809291908181526020018280546110e29061413c565b801561112f5780601f106111045761010080835404028352916020019161112f565b820191906000526020600020905b81548152906001019060200180831161111257829003601f168201915b505050505081526020016002820160009054906101000a900460ff161515151581526020016002820160019054906101000a900473ffffffffffffffffffffffffffffffffffffffff1673ffffffffffffffffffffffffffffffffffffffff1673ffffffffffffffffffffffffffffffffffffffff1681526020016003820180546111b99061413c565b80601f01602080910402602001604051908101604052809291908181526020018280546111e59061413c565b80156112325780601f1061120757610100808354040283529160200191611232565b820191906000526020600020905b81548152906001019060200180831161121557829003601f168201915b5050505050815260200160048201805461124b9061413c565b80601f01602080910402602001604051908101604052809291908181526020018280546112779061413c565b80156112c45780601f10611299576101008083540402835291602001916112c4565b820191906000526020600020905b8154815290600101906020018083116112a757829003601f168201915b50505050508152505090508092505050919050565b7fcea62fe6ecc79e221c545bf918f804693c542ead2549e37c2bb9baa66ee2e157611303816126de565b6000600560008473ffffffffffffffffffffffffffffffffffffffff1673ffffffffffffffffffffffffffffffffffffffff16815260200190815260200160002060010180546113529061413c565b80601f016020809104026020016040519081016040528092919081815260200182805461137e9061413c565b80156113cb5780601f106113a0576101008083540402835291602001916113cb565b820191906000526020600020905b8154815290600101906020018083116113ae57829003601f168201915b505050505090506000600560008573ffffffffffffffffffffffffffffffffffffffff1673ffffffffffffffffffffffffffffffffffffffff16815260200190815260200160002060030180546114219061413c565b80601f016020809104026020016040519081016040528092919081815260200182805461144d9061413c565b801561149a5780601f1061146f5761010080835404028352916020019161149a565b820191906000526020600020905b81548152906001019060200180831161147d57829003601f168201915b505050505090506000469050600581146114e9576040517f08c379a00000000000000000000000000000000000000000000000000000000081526004016114e090614232565b60405180910390fd5b600560008673ffffffffffffffffffffffffffffffffffffffff1673ffffffffffffffffffffffffffffffffffffffff168152602001908152602001600020600080820160006101000a81549073ffffffffffffffffffffffffffffffffffffffff0219169055600182016000611560919061371a565b6002820160006101000a81549060ff02191690556002820160016101000a81549073ffffffffffffffffffffffffffffffffffffffff02191690556003820160006115ab919061371a565b6004820160006115bb919061371a565b50506004836040516115cd91906141a9565b908152602001604051809103902060006101000a81549073ffffffffffffffffffffffffffffffffffffffff021916905560068260405161160e91906141a9565b908152602001604051809103902060006101000a81549073ffffffffffffffffffffffffffffffffffffffff02191690557fe444442b4fc5a03103c68bde16932de23949be11145d1b4707d817bfb50557388386604051611670929190614252565b60405180910390a15050505050565b600060016000838152602001908152602001600020600101549050919050565b6116ab848484846126f2565b50505050565b60006116bc82610ccb565b90506000600560008373ffffffffffffffffffffffffffffffffffffffff1673ffffffffffffffffffffffffffffffffffffffff168152602001908152602001600020600301805461170d9061413c565b80601f01602080910402602001604051908101604052809291908181526020018280546117399061413c565b80156117865780601f1061175b57610100808354040283529160200191611786565b820191906000526020600020905b81548152906001019060200180831161176957829003601f168201915b5050505050905060001515600560008473ffffffffffffffffffffffffffffffffffffffff1673ffffffffffffffffffffffffffffffffffffffff16815260200190815260200160002060020160009054906101000a900460ff16151514611823576040517f08c379a000000000000000000000000000000000000000000000000000000000815260040161181a906142f4565b60405180910390fd5b6000600760003373ffffffffffffffffffffffffffffffffffffffff1673ffffffffffffffffffffffffffffffffffffffff16815260200190815260200160002060008473ffffffffffffffffffffffffffffffffffffffff1673ffffffffffffffffffffffffffffffffffffffff16815260200190815260200160002060009054906101000a900460ff16905060001515811515146118f8576040517f08c379a00000000000000000000000000000000000000000000000000000000081526004016118ef90614360565b60405180910390fd5b600560008473ffffffffffffffffffffffffffffffffffffffff1673ffffffffffffffffffffffffffffffffffffffff168152602001908152602001600020600080820160006101000a81549073ffffffffffffffffffffffffffffffffffffffff021916905560018201600061196f919061371a565b6002820160006101000a81549060ff02191690556002820160016101000a81549073ffffffffffffffffffffffffffffffffffffffff02191690556003820160006119ba919061371a565b6004820160006119ca919061371a565b50506004846040516119dc91906141a9565b908152602001604051809103902060006101000a81549073ffffffffffffffffffffffffffffffffffffffff0219169055600682604051611a1d91906141a9565b908152602001604051809103902060006101000a81549073ffffffffffffffffffffffffffffffffffffffff0219169055600760003373ffffffffffffffffffffffffffffffffffffffff1673ffffffffffffffffffffffffffffffffffffffff16815260200190815260200160002060008473ffffffffffffffffffffffffffffffffffffffff1673ffffffffffffffffffffffffffffffffffffffff16815260200190815260200160002060006101000a81549060ff02191690557fe444442b4fc5a03103c68bde16932de23949be11145d1b4707d817bfb50557388484604051611b0b929190614252565b60405180910390a150505050565b611b228261167f565b611b2b816126de565b611b358383612913565b505050565b611b458383836129f3565b505050565b611b52612e6a565b73ffffffffffffffffffffffffffffffffffffffff168173ffffffffffffffffffffffffffffffffffffffff1614611bbf576040517f08c379a0000000000000000000000000000000000000000000000000000000008152600401611bb6906143f2565b60405180910390fd5b611bc98282612e72565b5050565b7fcea62fe6ecc79e221c545bf918f804693c542ead2549e37c2bb9baa66ee2e15781565b60076020528160005260406000206020528060005260406000206000915091509054906101000a900460ff1681565b6000600254905090565b611c3381612f54565b50565b60007fcea62fe6ecc79e221c545bf918f804693c542ead2549e37c2bb9baa66ee2e157905090565b60606000611c6b83610d13565b90508060200151915050919050565b6000600560003373ffffffffffffffffffffffffffffffffffffffff1673ffffffffffffffffffffffffffffffffffffffff16815260200190815260200160002060020160009054906101000a900460ff1690506000151581151514611d15576040517f08c379a0000000000000000000000000000000000000000000000000000000008152600401611d0c9061445e565b60405180910390fd5b611d1e33612f54565b50565b611d29613286565b611d336000613304565b565b60008060009054906101000a900473ffffffffffffffffffffffffffffffffffffffff16905090565b60006001600084815260200190815260200160002060000160008373ffffffffffffffffffffffffffffffffffffffff1673ffffffffffffffffffffffffffffffffffffffff16815260200190815260200160002060009054906101000a900460ff16905092915050565b6000600682604051611ddb91906141a9565b908152602001604051809103902060009054906101000a900473ffffffffffffffffffffffffffffffffffffffff1690503373ffffffffffffffffffffffffffffffffffffffff168173ffffffffffffffffffffffffffffffffffffffff1614611e7a576040517f08c379a0000000000000000000000000000000000000000000000000000000008152600401611e71906144ca565b60405180910390fd5b6000611e8584610ccb565b90506000600760008473ffffffffffffffffffffffffffffffffffffffff1673ffffffffffffffffffffffffffffffffffffffff16815260200190815260200160002060008373ffffffffffffffffffffffffffffffffffffffff1673ffffffffffffffffffffffffffffffffffffffff16815260200190815260200160002060009054906101000a900460ff1690506000151581151514611f5c576040517f08c379a0000000000000000000000000000000000000000000000000000000008152600401611f5390614536565b60405180910390fd5b6001600560008473ffffffffffffffffffffffffffffffffffffffff1673ffffffffffffffffffffffffffffffffffffffff16815260200190815260200160002060020160006101000a81548160ff02191690831515021790555033600560008473ffffffffffffffffffffffffffffffffffffffff1673ffffffffffffffffffffffffffffffffffffffff16815260200190815260200160002060020160016101000a81548173ffffffffffffffffffffffffffffffffffffffff021916908373ffffffffffffffffffffffffffffffffffffffff1602179055506001600760008573ffffffffffffffffffffffffffffffffffffffff1673ffffffffffffffffffffffffffffffffffffffff16815260200190815260200160002060008473ffffffffffffffffffffffffffffffffffffffff1673ffffffffffffffffffffffffffffffffffffffff16815260200190815260200160002060006101000a81548160ff0219169083151502179055508173ffffffffffffffffffffffffffffffffffffffff167fadbeb0a5d66e2be993428864e5c86f7c8aa562e2c58131d193ac2eeb7443817a846001604051612116929190614556565b60405180910390a25050505050565b6000801b81565b6060600061213983610d13565b905060008160a0015190508092505050919050565b60003390506002543414612197576040517f08c379a000000000000000000000000000000000000000000000000000000000815260040161218e906145cb565b60405180910390fd5b60006006846040516121a991906141a9565b908152602001604051809103902060009054906101000a900473ffffffffffffffffffffffffffffffffffffffff1690506040518060c001604052808373ffffffffffffffffffffffffffffffffffffffff1681526020018781526020016000151581526020018273ffffffffffffffffffffffffffffffffffffffff16815260200186815260200184815250600560003373ffffffffffffffffffffffffffffffffffffffff1673ffffffffffffffffffffffffffffffffffffffff16815260200190815260200160002060008201518160000160006101000a81548173ffffffffffffffffffffffffffffffffffffffff021916908373ffffffffffffffffffffffffffffffffffffffff16021790555060208201518160010190816122d19190614797565b5060408201518160020160006101000a81548160ff02191690831515021790555060608201518160020160016101000a81548173ffffffffffffffffffffffffffffffffffffffff021916908373ffffffffffffffffffffffffffffffffffffffff160217905550608082015181600301908161234e9190614797565b5060a08201518160040190816123649190614797565b509050506000600360009054906101000a900473ffffffffffffffffffffffffffffffffffffffff1673ffffffffffffffffffffffffffffffffffffffff166002546040516123b29061489a565b60006040518083038185875af1925050503d80600081146123ef576040519150601f19603f3d011682016040523d82523d6000602084013e6123f4565b606091505b5050905080612438576040517f08c379a000000000000000000000000000000000000000000000000000000000815260040161242f906148fb565b60405180910390fd5b8173ffffffffffffffffffffffffffffffffffffffff167f435b683210e9cdb43126109baed7a6a387c609e0e13532755b51016e1b773a6b8833604051612480929190614252565b60405180910390a28173ffffffffffffffffffffffffffffffffffffffff167f71ec84cb0c406d66954dcb2481d75f63a94ed77283afa5657d56e68a20df3c5288336040516124d0929190614252565b60405180910390a26000600760008473ffffffffffffffffffffffffffffffffffffffff1673ffffffffffffffffffffffffffffffffffffffff16815260200190815260200160002060003373ffffffffffffffffffffffffffffffffffffffff1673ffffffffffffffffffffffffffffffffffffffff16815260200190815260200160002060006101000a81548160ff02191690831515021790555050505050505050565b600060068260405161258891906141a9565b908152602001604051809103902060009054906101000a900473ffffffffffffffffffffffffffffffffffffffff169050919050565b6125c6613286565b8060028190555050565b6125d98261167f565b6125e2816126de565b6125ec8383612e72565b505050565b6125f9613286565b600073ffffffffffffffffffffffffffffffffffffffff168173ffffffffffffffffffffffffffffffffffffffff1603612668576040517f08c379a000000000000000000000000000000000000000000000000000000000815260040161265f9061498d565b60405180910390fd5b61267181613304565b50565b60007f01ffc9a7000000000000000000000000000000000000000000000000000000007bffffffffffffffffffffffffffffffffffffffffffffffffffffffff1916827bffffffffffffffffffffffffffffffffffffffffffffffffffffffff1916149050919050565b6126ef816126ea612e6a565b6133c8565b50565b600073ffffffffffffffffffffffffffffffffffffffff1660048560405161271a91906141a9565b908152602001604051809103902060009054906101000a900473ffffffffffffffffffffffffffffffffffffffff1673ffffffffffffffffffffffffffffffffffffffff161461279f576040517f08c379a000000000000000000000000000000000000000000000000000000000815260040161279690614a1f565b60405180910390fd5b6000600860009054906101000a900473ffffffffffffffffffffffffffffffffffffffff1673ffffffffffffffffffffffffffffffffffffffff1663a430c74484846040518363ffffffff1660e01b81526004016127fe929190614a3f565b602060405180830381865afa15801561281b573d6000803e3d6000fd5b505050506040513d601f19601f8201168201806040525081019061283f9190614aa2565b9050600115158115151461285257600080fd5b8360048660405161286391906141a9565b908152602001604051809103902060006101000a81548173ffffffffffffffffffffffffffffffffffffffff021916908373ffffffffffffffffffffffffffffffffffffffff160217905550836006846040516128c091906141a9565b908152602001604051809103902060006101000a81548173ffffffffffffffffffffffffffffffffffffffff021916908373ffffffffffffffffffffffffffffffffffffffff1602179055505050505050565b61291d8282611d5e565b6129ef57600180600084815260200190815260200160002060000160008373ffffffffffffffffffffffffffffffffffffffff1673ffffffffffffffffffffffffffffffffffffffff16815260200190815260200160002060006101000a81548160ff021916908315150217905550612994612e6a565b73ffffffffffffffffffffffffffffffffffffffff168173ffffffffffffffffffffffffffffffffffffffff16837f2f8788117e7eff1d82e926ec794901d17c78024a50270940304540a733656f0d60405160405180910390a45b5050565b82600483604051612a0491906141a9565b908152602001604051809103902060006101000a81548173ffffffffffffffffffffffffffffffffffffffff021916908373ffffffffffffffffffffffffffffffffffffffff160217905550826006604051612a5f90614b1b565b908152602001604051809103902060006101000a81548173ffffffffffffffffffffffffffffffffffffffff021916908373ffffffffffffffffffffffffffffffffffffffff1602179055506040518060c001604052808473ffffffffffffffffffffffffffffffffffffffff1681526020018381526020016001151581526020018473ffffffffffffffffffffffffffffffffffffffff1681526020016040518060400160405280600481526020017f4164616d00000000000000000000000000000000000000000000000000000000815250815260200182815250600560008573ffffffffffffffffffffffffffffffffffffffff1673ffffffffffffffffffffffffffffffffffffffff16815260200190815260200160002060008201518160000160006101000a81548173ffffffffffffffffffffffffffffffffffffffff021916908373ffffffffffffffffffffffffffffffffffffffff1602179055506020820151816001019081612bd79190614797565b5060408201518160020160006101000a81548160ff02191690831515021790555060608201518160020160016101000a81548173ffffffffffffffffffffffffffffffffffffffff021916908373ffffffffffffffffffffffffffffffffffffffff1602179055506080820151816003019081612c549190614797565b5060a0820151816004019081612c6a9190614797565b509050506001600560008573ffffffffffffffffffffffffffffffffffffffff1673ffffffffffffffffffffffffffffffffffffffff16815260200190815260200160002060020160006101000a81548160ff02191690831515021790555033600560008573ffffffffffffffffffffffffffffffffffffffff1673ffffffffffffffffffffffffffffffffffffffff16815260200190815260200160002060020160016101000a81548173ffffffffffffffffffffffffffffffffffffffff021916908373ffffffffffffffffffffffffffffffffffffffff1602179055506000612d8a6040518060400160405280600181526020017f3000000000000000000000000000000000000000000000000000000000000000815250612576565b90506001600760008373ffffffffffffffffffffffffffffffffffffffff1673ffffffffffffffffffffffffffffffffffffffff16815260200190815260200160002060008673ffffffffffffffffffffffffffffffffffffffff1673ffffffffffffffffffffffffffffffffffffffff16815260200190815260200160002060006101000a81548160ff0219169083151502179055508373ffffffffffffffffffffffffffffffffffffffff167f908408e307fc569b417f6cbec5d5a06f44a0a505ac0479b47d421a4b2fd6a1e660405160405180910390a250505050565b600033905090565b612e7c8282611d5e565b15612f505760006001600084815260200190815260200160002060000160008373ffffffffffffffffffffffffffffffffffffffff1673ffffffffffffffffffffffffffffffffffffffff16815260200190815260200160002060006101000a81548160ff021916908315150217905550612ef5612e6a565b73ffffffffffffffffffffffffffffffffffffffff168173ffffffffffffffffffffffffffffffffffffffff16837ff6391f5c32d9c69d2a47ea670b442974b53935d1edc7fd64eb21e047a839171b60405160405180910390a45b5050565b6000600560008373ffffffffffffffffffffffffffffffffffffffff1673ffffffffffffffffffffffffffffffffffffffff1681526020019081526020016000206001018054612fa39061413c565b80601f0160208091040260200160405190810160405280929190818152602001828054612fcf9061413c565b801561301c5780601f10612ff15761010080835404028352916020019161301c565b820191906000526020600020905b815481529060010190602001808311612fff57829003601f168201915b505050505090506000600560008473ffffffffffffffffffffffffffffffffffffffff1673ffffffffffffffffffffffffffffffffffffffff16815260200190815260200160002060030180546130729061413c565b80601f016020809104026020016040519081016040528092919081815260200182805461309e9061413c565b80156130eb5780601f106130c0576101008083540402835291602001916130eb565b820191906000526020600020905b8154815290600101906020018083116130ce57829003601f168201915b50505050509050600560008473ffffffffffffffffffffffffffffffffffffffff1673ffffffffffffffffffffffffffffffffffffffff168152602001908152602001600020600080820160006101000a81549073ffffffffffffffffffffffffffffffffffffffff0219169055600182016000613169919061371a565b6002820160006101000a81549060ff02191690556002820160016101000a81549073ffffffffffffffffffffffffffffffffffffffff02191690556003820160006131b4919061371a565b6004820160006131c4919061371a565b50506004826040516131d691906141a9565b908152602001604051809103902060006101000a81549073ffffffffffffffffffffffffffffffffffffffff021916905560068160405161321791906141a9565b908152602001604051809103902060006101000a81549073ffffffffffffffffffffffffffffffffffffffff02191690557fe444442b4fc5a03103c68bde16932de23949be11145d1b4707d817bfb50557388284604051613279929190614252565b60405180910390a1505050565b61328e612e6a565b73ffffffffffffffffffffffffffffffffffffffff166132ac611d35565b73ffffffffffffffffffffffffffffffffffffffff1614613302576040517f08c379a00000000000000000000000000000000000000000000000000000000081526004016132f990614b7c565b60405180910390fd5b565b60008060009054906101000a900473ffffffffffffffffffffffffffffffffffffffff169050816000806101000a81548173ffffffffffffffffffffffffffffffffffffffff021916908373ffffffffffffffffffffffffffffffffffffffff1602179055508173ffffffffffffffffffffffffffffffffffffffff168173ffffffffffffffffffffffffffffffffffffffff167f8be0079c531659141344cd1fd0a4f28419497f9722a3daafe3b4186f6b6457e060405160405180910390a35050565b6133d28282611d5e565b613449576133df8161344d565b6133ed8360001c602061347a565b6040516020016133fe929190614c34565b6040516020818303038152906040526040517f08c379a00000000000000000000000000000000000000000000000000000000081526004016134409190613f29565b60405180910390fd5b5050565b60606134738273ffffffffffffffffffffffffffffffffffffffff16601460ff1661347a565b9050919050565b60606000600283600261348d9190614c9d565b6134979190614cdf565b67ffffffffffffffff8111156134b0576134af6137a6565b5b6040519080825280601f01601f1916602001820160405280156134e25781602001600182028036833780820191505090505b5090507f30000000000000000000000000000000000000000000000000000000000000008160008151811061351a57613519614d13565b5b60200101907effffffffffffffffffffffffffffffffffffffffffffffffffffffffffffff1916908160001a9053507f78000000000000000000000000000000000000000000000000000000000000008160018151811061357e5761357d614d13565b5b60200101907effffffffffffffffffffffffffffffffffffffffffffffffffffffffffffff1916908160001a905350600060018460026135be9190614c9d565b6135c89190614cdf565b90505b6001811115613668577f3031323334353637383961626364656600000000000000000000000000000000600f86166010811061360a57613609614d13565b5b1a60f81b82828151811061362157613620614d13565b5b60200101907effffffffffffffffffffffffffffffffffffffffffffffffffffffffffffff1916908160001a905350600485901c94508061366190614d42565b90506135cb565b50600084146136ac576040517f08c379a00000000000000000000000000000000000000000000000000000000081526004016136a390614db7565b60405180910390fd5b8091505092915050565b6040518060c00160405280600073ffffffffffffffffffffffffffffffffffffffff16815260200160608152602001600015158152602001600073ffffffffffffffffffffffffffffffffffffffff16815260200160608152602001606081525090565b5080546137269061413c565b6000825580601f106137385750613757565b601f016020900490600052602060002090810190613756919061375a565b5b50565b5b8082111561377357600081600090555060010161375b565b5090565b6000604051905090565b600080fd5b600080fd5b600080fd5b600080fd5b6000601f19601f8301169050919050565b7f4e487b7100000000000000000000000000000000000000000000000000000000600052604160045260246000fd5b6137de82613795565b810181811067ffffffffffffffff821117156137fd576137fc6137a6565b5b80604052505050565b6000613810613777565b905061381c82826137d5565b919050565b600067ffffffffffffffff82111561383c5761383b6137a6565b5b61384582613795565b9050602081019050919050565b82818337600083830152505050565b600061387461386f84613821565b613806565b9050828152602081018484840111156138905761388f613790565b5b61389b848285613852565b509392505050565b600082601f8301126138b8576138b761378b565b5b81356138c8848260208601613861565b91505092915050565b600080604083850312156138e8576138e7613781565b5b600083013567ffffffffffffffff81111561390657613905613786565b5b613912858286016138a3565b925050602083013567ffffffffffffffff81111561393357613932613786565b5b61393f858286016138a3565b9150509250929050565b60007fffffffff0000000000000000000000000000000000000000000000000000000082169050919050565b61397e81613949565b811461398957600080fd5b50565b60008135905061399b81613975565b92915050565b6000602082840312156139b7576139b6613781565b5b60006139c58482850161398c565b91505092915050565b60008115159050919050565b6139e3816139ce565b82525050565b60006020820190506139fe60008301846139da565b92915050565b600073ffffffffffffffffffffffffffffffffffffffff82169050919050565b6000613a2f82613a04565b9050919050565b613a3f81613a24565b82525050565b6000602082019050613a5a6000830184613a36565b92915050565b600060208284031215613a7657613a75613781565b5b600082013567ffffffffffffffff811115613a9457613a93613786565b5b613aa0848285016138a3565b91505092915050565b613ab281613a24565b82525050565b600081519050919050565b600082825260208201905092915050565b60005b83811015613af2578082015181840152602081019050613ad7565b60008484015250505050565b6000613b0982613ab8565b613b138185613ac3565b9350613b23818560208601613ad4565b613b2c81613795565b840191505092915050565b613b40816139ce565b82525050565b600060c083016000830151613b5e6000860182613aa9565b5060208301518482036020860152613b768282613afe565b9150506040830151613b8b6040860182613b37565b506060830151613b9e6060860182613aa9565b5060808301518482036080860152613bb68282613afe565b91505060a083015184820360a0860152613bd08282613afe565b9150508091505092915050565b60006020820190508181036000830152613bf78184613b46565b905092915050565b613c0881613a24565b8114613c1357600080fd5b50565b600081359050613c2581613bff565b92915050565b600060208284031215613c4157613c40613781565b5b6000613c4f84828501613c16565b91505092915050565b6000819050919050565b613c6b81613c58565b8114613c7657600080fd5b50565b600081359050613c8881613c62565b92915050565b600060208284031215613ca457613ca3613781565b5b6000613cb284828501613c79565b91505092915050565b613cc481613c58565b82525050565b6000602082019050613cdf6000830184613cbb565b92915050565b60008060008060808587031215613cff57613cfe613781565b5b600085013567ffffffffffffffff811115613d1d57613d1c613786565b5b613d29878288016138a3565b9450506020613d3a87828801613c16565b935050604085013567ffffffffffffffff811115613d5b57613d5a613786565b5b613d67878288016138a3565b925050606085013567ffffffffffffffff811115613d8857613d87613786565b5b613d94878288016138a3565b91505092959194509250565b60008060408385031215613db757613db6613781565b5b6000613dc585828601613c79565b9250506020613dd685828601613c16565b9150509250929050565b600080600060608486031215613df957613df8613781565b5b6000613e0786828701613c16565b935050602084013567ffffffffffffffff811115613e2857613e27613786565b5b613e34868287016138a3565b925050604084013567ffffffffffffffff811115613e5557613e54613786565b5b613e61868287016138a3565b9150509250925092565b60008060408385031215613e8257613e81613781565b5b6000613e9085828601613c16565b9250506020613ea185828601613c16565b9150509250929050565b6000819050919050565b613ebe81613eab565b82525050565b6000602082019050613ed96000830184613eb5565b92915050565b600082825260208201905092915050565b6000613efb82613ab8565b613f058185613edf565b9350613f15818560208601613ad4565b613f1e81613795565b840191505092915050565b60006020820190508181036000830152613f438184613ef0565b905092915050565b60008060008060808587031215613f6557613f64613781565b5b600085013567ffffffffffffffff811115613f8357613f82613786565b5b613f8f878288016138a3565b945050602085013567ffffffffffffffff811115613fb057613faf613786565b5b613fbc878288016138a3565b935050604085013567ffffffffffffffff811115613fdd57613fdc613786565b5b613fe9878288016138a3565b925050606085013567ffffffffffffffff81111561400a57614009613786565b5b614016878288016138a3565b91505092959194509250565b61402b81613eab565b811461403657600080fd5b50565b60008135905061404881614022565b92915050565b60006020828403121561406457614063613781565b5b600061407284828501614039565b91505092915050565b7f757365727320616c6c6f776564206f6e6c7920746f20636c656172207468656d60008201527f73656c6673000000000000000000000000000000000000000000000000000000602082015250565b60006140d7602583613edf565b91506140e28261407b565b604082019050919050565b60006020820190508181036000830152614106816140ca565b9050919050565b7f4e487b7100000000000000000000000000000000000000000000000000000000600052602260045260246000fd5b6000600282049050600182168061415457607f821691505b6020821081036141675761416661410d565b5b50919050565b600081905092915050565b600061418382613ab8565b61418d818561416d565b935061419d818560208601613ad4565b80840191505092915050565b60006141b58284614178565b915081905092915050565b7f746869732066756e6374696f6e20776f726b2773206f6e6c7920666f7220746560008201527f73746e6574000000000000000000000000000000000000000000000000000000602082015250565b600061421c602583613edf565b9150614227826141c0565b604082019050919050565b6000602082019050818103600083015261424b8161420f565b9050919050565b6000604082019050818103600083015261426c8185613ef0565b905061427b6020830184613a36565b9392505050565b7f616c726561647920617070726f766564204f5220646f206e6f7420657869737460008201527f7320796574000000000000000000000000000000000000000000000000000000602082015250565b60006142de602583613edf565b91506142e982614282565b604082019050919050565b6000602082019050818103600083015261430d816142d1565b9050919050565b7f616c7265616479206c696e6b6564204f5220646f6e7420657869737473000000600082015250565b600061434a601d83613edf565b915061435582614314565b602082019050919050565b600060208201905081810360008301526143798161433d565b9050919050565b7f416363657373436f6e74726f6c3a2063616e206f6e6c792072656e6f756e636560008201527f20726f6c657320666f722073656c660000000000000000000000000000000000602082015250565b60006143dc602f83613edf565b91506143e782614380565b604082019050919050565b6000602082019050818103600083015261440b816143cf565b9050919050565b7f63616c6c20436c656172506172656e7420666972737400000000000000000000600082015250565b6000614448601683613edf565b915061445382614412565b602082019050919050565b600060208201905081810360008301526144778161443b565b9050919050565b7f6f6e6c7920706172656e745f6e616d652063616e206163636570742069740000600082015250565b60006144b4601e83613edf565b91506144bf8261447e565b602082019050919050565b600060208201905081810360008301526144e3816144a7565b9050919050565b7f616c726561647920726567697374726564000000000000000000000000000000600082015250565b6000614520601183613edf565b915061452b826144ea565b602082019050919050565b6000602082019050818103600083015261454f81614513565b9050919050565b600060408201905061456b6000830185613a36565b61457860208301846139da565b9392505050565b7f5265717565737420666565206973206e6f742070616964000000000000000000600082015250565b60006145b5601783613edf565b91506145c08261457f565b602082019050919050565b600060208201905081810360008301526145e4816145a8565b9050919050565b60008190508160005260206000209050919050565b60006020601f8301049050919050565b600082821b905092915050565b60006008830261464d7fffffffffffffffffffffffffffffffffffffffffffffffffffffffffffffffff82614610565b6146578683614610565b95508019841693508086168417925050509392505050565b6000819050919050565b600061469461468f61468a84613eab565b61466f565b613eab565b9050919050565b6000819050919050565b6146ae83614679565b6146c26146ba8261469b565b84845461461d565b825550505050565b600090565b6146d76146ca565b6146e28184846146a5565b505050565b5b81811015614706576146fb6000826146cf565b6001810190506146e8565b5050565b601f82111561474b5761471c816145eb565b61472584614600565b81016020851015614734578190505b61474861474085614600565b8301826146e7565b50505b505050565b600082821c905092915050565b600061476e60001984600802614750565b1980831691505092915050565b6000614787838361475d565b9150826002028217905092915050565b6147a082613ab8565b67ffffffffffffffff8111156147b9576147b86137a6565b5b6147c3825461413c565b6147ce82828561470a565b600060209050601f83116001811461480157600084156147ef578287015190505b6147f9858261477b565b865550614861565b601f19841661480f866145eb565b60005b8281101561483757848901518255600182019150602085019450602081019050614812565b868310156148545784890151614850601f89168261475d565b8355505b6001600288020188555050505b505050505050565b600081905092915050565b50565b6000614884600083614869565b915061488f82614874565b600082019050919050565b60006148a582614877565b9150819050919050565b7f556e61626c6520746f207472616e736665722066656500000000000000000000600082015250565b60006148e5601683613edf565b91506148f0826148af565b602082019050919050565b60006020820190508181036000830152614914816148d8565b9050919050565b7f4f776e61626c653a206e6577206f776e657220697320746865207a65726f206160008201527f6464726573730000000000000000000000000000000000000000000000000000602082015250565b6000614977602683613edf565b91506149828261491b565b604082019050919050565b600060208201905081810360008301526149a68161496a565b9050919050565b7f5468657265206973206164647265737320636f6e6e656374656420746f20746860008201527f617420544720494420616c726561647900000000000000000000000000000000602082015250565b6000614a09603083613edf565b9150614a14826149ad565b604082019050919050565b60006020820190508181036000830152614a38816149fc565b9050919050565b60006040820190508181036000830152614a598185613ef0565b90508181036020830152614a6d8184613ef0565b90509392505050565b614a7f816139ce565b8114614a8a57600080fd5b50565b600081519050614a9c81614a76565b92915050565b600060208284031215614ab857614ab7613781565b5b6000614ac684828501614a8d565b91505092915050565b7f4164616d00000000000000000000000000000000000000000000000000000000600082015250565b6000614b0560048361416d565b9150614b1082614acf565b600482019050919050565b6000614b2682614af8565b9150819050919050565b7f4f776e61626c653a2063616c6c6572206973206e6f7420746865206f776e6572600082015250565b6000614b66602083613edf565b9150614b7182614b30565b602082019050919050565b60006020820190508181036000830152614b9581614b59565b9050919050565b7f416363657373436f6e74726f6c3a206163636f756e7420000000000000000000600082015250565b6000614bd260178361416d565b9150614bdd82614b9c565b601782019050919050565b7f206973206d697373696e6720726f6c6520000000000000000000000000000000600082015250565b6000614c1e60118361416d565b9150614c2982614be8565b601182019050919050565b6000614c3f82614bc5565b9150614c4b8285614178565b9150614c5682614c11565b9150614c628284614178565b91508190509392505050565b7f4e487b7100000000000000000000000000000000000000000000000000000000600052601160045260246000fd5b6000614ca882613eab565b9150614cb383613eab565b9250828202614cc181613eab565b91508282048414831517614cd857614cd7614c6e565b5b5092915050565b6000614cea82613eab565b9150614cf583613eab565b9250828201905080821115614d0d57614d0c614c6e565b5b92915050565b7f4e487b7100000000000000000000000000000000000000000000000000000000600052603260045260246000fd5b6000614d4d82613eab565b915060008203614d6057614d5f614c6e565b5b600182039050919050565b7f537472696e67733a20686578206c656e67746820696e73756666696369656e74600082015250565b6000614da1602083613edf565b9150614dac82614d6b565b602082019050919050565b60006020820190508181036000830152614dd081614d94565b905091905056fea2646970667358221220c68105377d12278e5a49e2d4e36c23939746070794d289dad767dde2140d0bd864736f6c634300081100337a6a58436a3969757365336748476141494967796169434f734a705157534345424261632f7a50477267513d",
  "linkReferences": {},
  "deployedLinkReferences": {}
}