{
  "_format": "hh-sol-artifact-1",
  "contractName": "Leg10nMock",
  "sourceName": "contracts/mocks/Leg10nMock.sol",
  "abi": [
    {
      "inputs": [
        {
          "internalType": "address",
          "name": "turing_",
          "type": "address"
        },
        {
          "internalType": "address",
          "name": "admin_",
          "type": "address"
        },
        {
          "internalType": "string",
          "name": "tgid_",
          "type": "string"
        },
        {
          "internalType": "string",
          "name": "public_key_",
          "type": "string"
        },
        {
          "internalType": "string",
          "name": "plain_id",
          "type": "string"
        }
      ],
      "stateMutability": "nonpayable",
      "type": "constructor"
    },
    {
      "anonymous": false,
      "inputs": [
        {
          "indexed": true,
          "internalType": "address",
          "name": "admin",
          "type": "address"
        }
      ],
      "name": "Initialized",
      "type": "event"
    },
    {
      "anonymous": false,
      "inputs": [
        {
          "indexed": true,
          "internalType": "address",
          "name": "previousOwner",
          "type": "address"
        },
        {
          "indexed": true,
          "internalType": "address",
          "name": "newOwner",
          "type": "address"
        }
      ],
      "name": "OwnershipTransferred",
      "type": "event"
    },
    {
      "anonymous": false,
      "inputs": [
        {
          "indexed": true,
          "internalType": "bytes32",
          "name": "role",
          "type": "bytes32"
        },
        {
          "indexed": true,
          "internalType": "bytes32",
          "name": "previousAdminRole",
          "type": "bytes32"
        },
        {
          "indexed": true,
          "internalType": "bytes32",
          "name": "newAdminRole",
          "type": "bytes32"
        }
      ],
      "name": "RoleAdminChanged",
      "type": "event"
    },
    {
      "anonymous": false,
      "inputs": [
        {
          "indexed": true,
          "internalType": "bytes32",
          "name": "role",
          "type": "bytes32"
        },
        {
          "indexed": true,
          "internalType": "address",
          "name": "account",
          "type": "address"
        },
        {
          "indexed": true,
          "internalType": "address",
          "name": "sender",
          "type": "address"
        }
      ],
      "name": "RoleGranted",
      "type": "event"
    },
    {
      "anonymous": false,
      "inputs": [
        {
          "indexed": true,
          "internalType": "bytes32",
          "name": "role",
          "type": "bytes32"
        },
        {
          "indexed": true,
          "internalType": "address",
          "name": "account",
          "type": "address"
        },
        {
          "indexed": true,
          "internalType": "address",
          "name": "sender",
          "type": "address"
        }
      ],
      "name": "RoleRevoked",
      "type": "event"
    },
    {
      "anonymous": false,
      "inputs": [
        {
          "indexed": false,
          "internalType": "string",
          "name": "applyerTg",
          "type": "string"
        },
        {
          "indexed": false,
          "internalType": "address",
          "name": "wallet_address",
          "type": "address"
        },
        {
          "indexed": true,
          "internalType": "address",
          "name": "parent_address",
          "type": "address"
        }
      ],
      "name": "joinRequested",
      "type": "event"
    },
    {
      "anonymous": false,
      "inputs": [
        {
          "indexed": false,
          "internalType": "string",
          "name": "applyerTg",
          "type": "string"
        },
        {
          "indexed": false,
          "internalType": "address",
          "name": "wallet_address",
          "type": "address"
        },
        {
          "indexed": true,
          "internalType": "address",
          "name": "parent_address",
          "type": "address"
        }
      ],
      "name": "joinRequestedIndexedTG",
      "type": "event"
    },
    {
      "anonymous": false,
      "inputs": [
        {
          "indexed": false,
          "internalType": "address",
          "name": "high_node",
          "type": "address"
        },
        {
          "indexed": true,
          "internalType": "address",
          "name": "low_node",
          "type": "address"
        },
        {
          "indexed": false,
          "internalType": "bool",
          "name": "pravda",
          "type": "bool"
        }
      ],
      "name": "relationChanged",
      "type": "event"
    },
    {
      "anonymous": false,
      "inputs": [
        {
          "indexed": true,
          "internalType": "string",
          "name": "applyerTg",
          "type": "string"
        },
        {
          "indexed": false,
          "internalType": "address",
          "name": "user_address",
          "type": "address"
        },
        {
          "indexed": false,
          "internalType": "address",
          "name": "parent_address",
          "type": "address"
        }
      ],
      "name": "requestAccepted",
      "type": "event"
    },
    {
      "anonymous": false,
      "inputs": [
        {
          "indexed": false,
          "internalType": "string",
          "name": "applyerTg",
          "type": "string"
        },
        {
          "indexed": false,
          "internalType": "address",
          "name": "wallet",
          "type": "address"
        }
      ],
      "name": "requestDenied",
      "type": "event"
    },
    {
      "inputs": [
        {
          "internalType": "string",
          "name": "applyerTg",
          "type": "string"
        },
        {
          "internalType": "string",
          "name": "parent_name",
          "type": "string"
        }
      ],
      "name": "AcceptJoin",
      "outputs": [],
      "stateMutability": "nonpayable",
      "type": "function"
    },
    {
      "inputs": [
        {
          "internalType": "string",
          "name": "parent_name",
          "type": "string"
        },
        {
          "internalType": "string",
          "name": "child_name",
          "type": "string"
        }
      ],
      "name": "ClearParent",
      "outputs": [],
      "stateMutability": "nonpayable",
      "type": "function"
    },
    {
      "inputs": [],
      "name": "DEFAULT_ADMIN_ROLE",
      "outputs": [
        {
          "internalType": "bytes32",
          "name": "",
          "type": "bytes32"
        }
      ],
      "stateMutability": "view",
      "type": "function"
    },
    {
      "inputs": [
        {
          "internalType": "string",
          "name": "tgid",
          "type": "string"
        }
      ],
      "name": "DeclineRequest",
      "outputs": [],
      "stateMutability": "nonpayable",
      "type": "function"
    },
    {
      "inputs": [
        {
          "internalType": "bytes32",
          "name": "hash_id",
          "type": "bytes32"
        }
      ],
      "name": "GetIdByHash",
      "outputs": [
        {
          "internalType": "string",
          "name": "",
          "type": "string"
        }
      ],
      "stateMutability": "view",
      "type": "function"
    },
    {
      "inputs": [
        {
          "internalType": "string",
          "name": "text",
          "type": "string"
        }
      ],
      "name": "GetKeccakHash",
      "outputs": [
        {
          "internalType": "bytes32",
          "name": "",
          "type": "bytes32"
        }
      ],
      "stateMutability": "pure",
      "type": "function"
    },
    {
      "inputs": [],
      "name": "GetOwner",
      "outputs": [
        {
          "internalType": "address",
          "name": "",
          "type": "address"
        }
      ],
      "stateMutability": "view",
      "type": "function"
    },
    {
      "inputs": [],
      "name": "GetPassportFee",
      "outputs": [
        {
          "internalType": "uint256",
          "name": "",
          "type": "uint256"
        }
      ],
      "stateMutability": "view",
      "type": "function"
    },
    {
      "inputs": [
        {
          "internalType": "address",
          "name": "user_address",
          "type": "address"
        }
      ],
      "name": "GetPublicKeyByAddress",
      "outputs": [
        {
          "internalType": "string",
          "name": "",
          "type": "string"
        }
      ],
      "stateMutability": "view",
      "type": "function"
    },
    {
      "inputs": [
        {
          "internalType": "address",
          "name": "user_wallet",
          "type": "address"
        }
      ],
      "name": "GetTgIdByAddress",
      "outputs": [
        {
          "internalType": "string",
          "name": "tgid",
          "type": "string"
        }
      ],
      "stateMutability": "view",
      "type": "function"
    },
    {
      "inputs": [
        {
          "internalType": "address",
          "name": "user_wallet",
          "type": "address"
        }
      ],
      "name": "GetUserByAddress",
      "outputs": [
        {
          "components": [
            {
              "internalType": "address",
              "name": "userAddress",
              "type": "address"
            },
            {
              "internalType": "string",
              "name": "tgId",
              "type": "string"
            },
            {
              "internalType": "bool",
              "name": "valid",
              "type": "bool"
            },
            {
              "internalType": "address",
              "name": "validatorAddress",
              "type": "address"
            },
            {
              "internalType": "string",
              "name": "codeName",
              "type": "string"
            },
            {
              "internalType": "string",
              "name": "public_key",
              "type": "string"
            },
            {
              "internalType": "bytes32",
              "name": "id_hash",
              "type": "bytes32"
            }
          ],
          "internalType": "struct Leg10n.User",
          "name": "",
          "type": "tuple"
        }
      ],
      "stateMutability": "view",
      "type": "function"
    },
    {
      "inputs": [
        {
          "internalType": "string",
          "name": "user_name_",
          "type": "string"
        }
      ],
      "name": "GetUserByNickName",
      "outputs": [
        {
          "components": [
            {
              "internalType": "address",
              "name": "userAddress",
              "type": "address"
            },
            {
              "internalType": "string",
              "name": "tgId",
              "type": "string"
            },
            {
              "internalType": "bool",
              "name": "valid",
              "type": "bool"
            },
            {
              "internalType": "address",
              "name": "validatorAddress",
              "type": "address"
            },
            {
              "internalType": "string",
              "name": "codeName",
              "type": "string"
            },
            {
              "internalType": "string",
              "name": "public_key",
              "type": "string"
            },
            {
              "internalType": "bytes32",
              "name": "id_hash",
              "type": "bytes32"
            }
          ],
          "internalType": "struct Leg10n.User",
          "name": "",
          "type": "tuple"
        }
      ],
      "stateMutability": "view",
      "type": "function"
    },
    {
      "inputs": [
        {
          "internalType": "string",
          "name": "tgId_",
          "type": "string"
        }
      ],
      "name": "GetUserByTgId",
      "outputs": [
        {
          "components": [
            {
              "internalType": "address",
              "name": "userAddress",
              "type": "address"
            },
            {
              "internalType": "string",
              "name": "tgId",
              "type": "string"
            },
            {
              "internalType": "bool",
              "name": "valid",
              "type": "bool"
            },
            {
              "internalType": "address",
              "name": "validatorAddress",
              "type": "address"
            },
            {
              "internalType": "string",
              "name": "codeName",
              "type": "string"
            },
            {
              "internalType": "string",
              "name": "public_key",
              "type": "string"
            },
            {
              "internalType": "bytes32",
              "name": "id_hash",
              "type": "bytes32"
            }
          ],
          "internalType": "struct Leg10n.User",
          "name": "",
          "type": "tuple"
        }
      ],
      "stateMutability": "view",
      "type": "function"
    },
    {
      "inputs": [
        {
          "internalType": "string",
          "name": "tgId_",
          "type": "string"
        }
      ],
      "name": "GetUserWalletByID",
      "outputs": [
        {
          "internalType": "address",
          "name": "",
          "type": "address"
        }
      ],
      "stateMutability": "view",
      "type": "function"
    },
    {
      "inputs": [
        {
          "internalType": "string",
          "name": "user_name_",
          "type": "string"
        }
      ],
      "name": "GetWalletByNickName",
      "outputs": [
        {
          "internalType": "address",
          "name": "",
          "type": "address"
        }
      ],
      "stateMutability": "view",
      "type": "function"
    },
    {
      "inputs": [
        {
          "internalType": "string",
          "name": "applyerTg",
          "type": "string"
        },
        {
          "internalType": "string",
          "name": "code_name_",
          "type": "string"
        },
        {
          "internalType": "string",
          "name": "parent_name",
          "type": "string"
        },
        {
          "internalType": "string",
          "name": "public_key",
          "type": "string"
        },
        {
          "internalType": "string",
          "name": "plain_id",
          "type": "string"
        }
      ],
      "name": "RequestJoin",
      "outputs": [],
      "stateMutability": "payable",
      "type": "function"
    },
    {
      "inputs": [
        {
          "internalType": "uint256",
          "name": "passportFee_",
          "type": "uint256"
        }
      ],
      "name": "SetPassportFee",
      "outputs": [],
      "stateMutability": "nonpayable",
      "type": "function"
    },
    {
      "inputs": [
        {
          "internalType": "address",
          "name": "",
          "type": "address"
        },
        {
          "internalType": "address",
          "name": "",
          "type": "address"
        }
      ],
      "name": "chain",
      "outputs": [
        {
          "internalType": "bool",
          "name": "",
          "type": "bool"
        }
      ],
      "stateMutability": "view",
      "type": "function"
    },
    {
      "inputs": [
        {
          "internalType": "string",
          "name": "",
          "type": "string"
        }
      ],
      "name": "codename_wallets",
      "outputs": [
        {
          "internalType": "address",
          "name": "",
          "type": "address"
        }
      ],
      "stateMutability": "view",
      "type": "function"
    },
    {
      "inputs": [
        {
          "internalType": "address",
          "name": "user_address",
          "type": "address"
        }
      ],
      "name": "deleteUser",
      "outputs": [],
      "stateMutability": "nonpayable",
      "type": "function"
    },
    {
      "inputs": [],
      "name": "deleteYourSelf",
      "outputs": [],
      "stateMutability": "nonpayable",
      "type": "function"
    },
    {
      "inputs": [
        {
          "internalType": "address",
          "name": "user_address",
          "type": "address"
        }
      ],
      "name": "devDeleteUser",
      "outputs": [],
      "stateMutability": "nonpayable",
      "type": "function"
    },
    {
      "inputs": [
        {
          "internalType": "address",
          "name": "admin_",
          "type": "address"
        },
        {
          "internalType": "string",
          "name": "tgid_",
          "type": "string"
        },
        {
          "internalType": "string",
          "name": "public_key_",
          "type": "string"
        },
        {
          "internalType": "string",
          "name": "plain_id",
          "type": "string"
        }
      ],
      "name": "devInitAdmin",
      "outputs": [],
      "stateMutability": "nonpayable",
      "type": "function"
    },
    {
      "inputs": [],
      "name": "getModeratorIdentifier",
      "outputs": [
        {
          "internalType": "bytes32",
          "name": "",
          "type": "bytes32"
        }
      ],
      "stateMutability": "pure",
      "type": "function"
    },
    {
      "inputs": [
        {
          "internalType": "bytes32",
          "name": "role",
          "type": "bytes32"
        }
      ],
      "name": "getRoleAdmin",
      "outputs": [
        {
          "internalType": "bytes32",
          "name": "",
          "type": "bytes32"
        }
      ],
      "stateMutability": "view",
      "type": "function"
    },
    {
      "inputs": [
        {
          "internalType": "bytes32",
          "name": "role",
          "type": "bytes32"
        },
        {
          "internalType": "address",
          "name": "account",
          "type": "address"
        }
      ],
      "name": "grantRole",
      "outputs": [],
      "stateMutability": "nonpayable",
      "type": "function"
    },
    {
      "inputs": [
        {
          "internalType": "bytes32",
          "name": "role",
          "type": "bytes32"
        },
        {
          "internalType": "address",
          "name": "account",
          "type": "address"
        }
      ],
      "name": "hasRole",
      "outputs": [
        {
          "internalType": "bool",
          "name": "",
          "type": "bool"
        }
      ],
      "stateMutability": "view",
      "type": "function"
    },
    {
      "inputs": [
        {
          "internalType": "bytes32",
          "name": "",
          "type": "bytes32"
        }
      ],
      "name": "hashToId",
      "outputs": [
        {
          "internalType": "string",
          "name": "",
          "type": "string"
        }
      ],
      "stateMutability": "view",
      "type": "function"
    },
    {
      "inputs": [],
      "name": "moderator",
      "outputs": [
        {
          "internalType": "bytes32",
          "name": "",
          "type": "bytes32"
        }
      ],
      "stateMutability": "view",
      "type": "function"
    },
    {
      "inputs": [],
      "name": "owner",
      "outputs": [
        {
          "internalType": "address",
          "name": "",
          "type": "address"
        }
      ],
      "stateMutability": "view",
      "type": "function"
    },
    {
      "inputs": [],
      "name": "renounceOwnership",
      "outputs": [],
      "stateMutability": "nonpayable",
      "type": "function"
    },
    {
      "inputs": [
        {
          "internalType": "bytes32",
          "name": "role",
          "type": "bytes32"
        },
        {
          "internalType": "address",
          "name": "account",
          "type": "address"
        }
      ],
      "name": "renounceRole",
      "outputs": [],
      "stateMutability": "nonpayable",
      "type": "function"
    },
    {
      "inputs": [
        {
          "internalType": "bytes32",
          "name": "role",
          "type": "bytes32"
        },
        {
          "internalType": "address",
          "name": "account",
          "type": "address"
        }
      ],
      "name": "revokeRole",
      "outputs": [],
      "stateMutability": "nonpayable",
      "type": "function"
    },
    {
      "inputs": [
        {
          "internalType": "bytes4",
          "name": "interfaceId",
          "type": "bytes4"
        }
      ],
      "name": "supportsInterface",
      "outputs": [
        {
          "internalType": "bool",
          "name": "",
          "type": "bool"
        }
      ],
      "stateMutability": "view",
      "type": "function"
    },
    {
      "inputs": [
        {
          "internalType": "string",
          "name": "",
          "type": "string"
        }
      ],
      "name": "tgIdToAddress",
      "outputs": [
        {
          "internalType": "address",
          "name": "",
          "type": "address"
        }
      ],
      "stateMutability": "view",
      "type": "function"
    },
    {
      "inputs": [
        {
          "internalType": "address",
          "name": "newOwner",
          "type": "address"
        }
      ],
      "name": "transferOwnership",
      "outputs": [],
      "stateMutability": "nonpayable",
      "type": "function"
    },
    {
      "inputs": [
        {
          "internalType": "string",
          "name": "tgId",
          "type": "string"
        },
        {
          "internalType": "address",
          "name": "userAddress",
          "type": "address"
        },
        {
          "internalType": "string",
          "name": "code_name_",
          "type": "string"
        },
        {
          "internalType": "string",
          "name": "parent_name",
          "type": "string"
        },
        {
          "internalType": "string",
          "name": "plain_id",
          "type": "string"
        }
      ],
      "name": "updateAddress",
      "outputs": [],
      "stateMutability": "nonpayable",
      "type": "function"
    }
  ],
  "bytecode": "0x60806040523480156200001157600080fd5b506040516200694a3803806200694a833981810160405281019062000037919062000e08565b84848484846200005c620000506200049360201b60201c565b6200049b60201b60201c565b66071afd498d00006002819055506200007a6200055f60201b60201c565b600360006101000a81548173ffffffffffffffffffffffffffffffffffffffff021916908373ffffffffffffffffffffffffffffffffffffffff160217905550620000cf6000801b336200058860201b60201c565b620001017fcea62fe6ecc79e221c545bf918f804693c542ead2549e37c2bb9baa66ee2e157336200058860201b60201c565b84600960006101000a81548173ffffffffffffffffffffffffffffffffffffffff021916908373ffffffffffffffffffffffffffffffffffffffff160217905550600062000155826200067960201b60201c565b9050336004856040516200016a919062000f3a565b908152602001604051809103902060006101000a81548173ffffffffffffffffffffffffffffffffffffffff021916908373ffffffffffffffffffffffffffffffffffffffff160217905550336007604051620001c79062000fa3565b908152602001604051809103902060006101000a81548173ffffffffffffffffffffffffffffffffffffffff021916908373ffffffffffffffffffffffffffffffffffffffff1602179055506040518060e001604052803373ffffffffffffffffffffffffffffffffffffffff1681526020018581526020016001151581526020013373ffffffffffffffffffffffffffffffffffffffff1681526020016040518060400160405280600181526020017f300000000000000000000000000000000000000000000000000000000000000081525081526020016040518060600160405280602c81526020016200691e602c9139815260200182815250600660003373ffffffffffffffffffffffffffffffffffffffff1673ffffffffffffffffffffffffffffffffffffffff16815260200190815260200160002060008201518160000160006101000a81548173ffffffffffffffffffffffffffffffffffffffff021916908373ffffffffffffffffffffffffffffffffffffffff1602179055506020820151816001019081620003609190620011fa565b5060408201518160020160006101000a81548160ff02191690831515021790555060608201518160020160016101000a81548173ffffffffffffffffffffffffffffffffffffffff021916908373ffffffffffffffffffffffffffffffffffffffff1602179055506080820151816003019081620003df9190620011fa565b5060a0820151816004019081620003f79190620011fa565b5060c08201518160050155905050600073ffffffffffffffffffffffffffffffffffffffff168573ffffffffffffffffffffffffffffffffffffffff16036200046d576200046733856040518060600160405280602c81526020016200691e602c913985620006ab60201b60201c565b62000482565b6200048185858585620006ab60201b60201c565b5b5050505050505050505050620013be565b600033905090565b60008060009054906101000a900473ffffffffffffffffffffffffffffffffffffffff169050816000806101000a81548173ffffffffffffffffffffffffffffffffffffffff021916908373ffffffffffffffffffffffffffffffffffffffff1602179055508173ffffffffffffffffffffffffffffffffffffffff168173ffffffffffffffffffffffffffffffffffffffff167f8be0079c531659141344cd1fd0a4f28419497f9722a3daafe3b4186f6b6457e060405160405180910390a35050565b60008060009054906101000a900473ffffffffffffffffffffffffffffffffffffffff16905090565b6200059a828262000b5b60201b60201c565b6200067557600180600084815260200190815260200160002060000160008373ffffffffffffffffffffffffffffffffffffffff1673ffffffffffffffffffffffffffffffffffffffff16815260200190815260200160002060006101000a81548160ff0219169083151502179055506200061a6200049360201b60201c565b73ffffffffffffffffffffffffffffffffffffffff168173ffffffffffffffffffffffffffffffffffffffff16837f2f8788117e7eff1d82e926ec794901d17c78024a50270940304540a733656f0d60405160405180910390a45b5050565b6000816040516020016200068e919062001333565b604051602081830303815290604052805190602001209050919050565b83600484604051620006be919062000f3a565b908152602001604051809103902060006101000a81548173ffffffffffffffffffffffffffffffffffffffff021916908373ffffffffffffffffffffffffffffffffffffffff1602179055508360076040516200071b90620013a7565b908152602001604051809103902060006101000a81548173ffffffffffffffffffffffffffffffffffffffff021916908373ffffffffffffffffffffffffffffffffffffffff16021790555060006200077a826200067960201b60201c565b90506040518060e001604052808673ffffffffffffffffffffffffffffffffffffffff1681526020018581526020016001151581526020018673ffffffffffffffffffffffffffffffffffffffff1681526020016040518060400160405280600481526020017f4164616d00000000000000000000000000000000000000000000000000000000815250815260200184815260200182815250600660008773ffffffffffffffffffffffffffffffffffffffff1673ffffffffffffffffffffffffffffffffffffffff16815260200190815260200160002060008201518160000160006101000a81548173ffffffffffffffffffffffffffffffffffffffff021916908373ffffffffffffffffffffffffffffffffffffffff1602179055506020820151816001019081620008b09190620011fa565b5060408201518160020160006101000a81548160ff02191690831515021790555060608201518160020160016101000a81548173ffffffffffffffffffffffffffffffffffffffff021916908373ffffffffffffffffffffffffffffffffffffffff16021790555060808201518160030190816200092f9190620011fa565b5060a0820151816004019081620009479190620011fa565b5060c082015181600501559050506001600660008773ffffffffffffffffffffffffffffffffffffffff1673ffffffffffffffffffffffffffffffffffffffff16815260200190815260200160002060020160006101000a81548160ff02191690831515021790555033600660008773ffffffffffffffffffffffffffffffffffffffff1673ffffffffffffffffffffffffffffffffffffffff16815260200190815260200160002060020160016101000a81548173ffffffffffffffffffffffffffffffffffffffff021916908373ffffffffffffffffffffffffffffffffffffffff160217905550600062000a796040518060400160405280600181526020017f300000000000000000000000000000000000000000000000000000000000000081525062000bc660201b60201c565b90506001600860008373ffffffffffffffffffffffffffffffffffffffff1673ffffffffffffffffffffffffffffffffffffffff16815260200190815260200160002060008873ffffffffffffffffffffffffffffffffffffffff1673ffffffffffffffffffffffffffffffffffffffff16815260200190815260200160002060006101000a81548160ff0219169083151502179055508573ffffffffffffffffffffffffffffffffffffffff167f908408e307fc569b417f6cbec5d5a06f44a0a505ac0479b47d421a4b2fd6a1e660405160405180910390a2505050505050565b60006001600084815260200190815260200160002060000160008373ffffffffffffffffffffffffffffffffffffffff1673ffffffffffffffffffffffffffffffffffffffff16815260200190815260200160002060009054906101000a900460ff16905092915050565b600060078260405162000bda919062000f3a565b908152602001604051809103902060009054906101000a900473ffffffffffffffffffffffffffffffffffffffff169050919050565b6000604051905090565b600080fd5b600080fd5b600073ffffffffffffffffffffffffffffffffffffffff82169050919050565b600062000c518262000c24565b9050919050565b62000c638162000c44565b811462000c6f57600080fd5b50565b60008151905062000c838162000c58565b92915050565b600080fd5b600080fd5b6000601f19601f8301169050919050565b7f4e487b7100000000000000000000000000000000000000000000000000000000600052604160045260246000fd5b62000cde8262000c93565b810181811067ffffffffffffffff8211171562000d005762000cff62000ca4565b5b80604052505050565b600062000d1562000c10565b905062000d23828262000cd3565b919050565b600067ffffffffffffffff82111562000d465762000d4562000ca4565b5b62000d518262000c93565b9050602081019050919050565b60005b8381101562000d7e57808201518184015260208101905062000d61565b60008484015250505050565b600062000da162000d9b8462000d28565b62000d09565b90508281526020810184848401111562000dc05762000dbf62000c8e565b5b62000dcd84828562000d5e565b509392505050565b600082601f83011262000ded5762000dec62000c89565b5b815162000dff84826020860162000d8a565b91505092915050565b600080600080600060a0868803121562000e275762000e2662000c1a565b5b600062000e378882890162000c72565b955050602062000e4a8882890162000c72565b945050604086015167ffffffffffffffff81111562000e6e5762000e6d62000c1f565b5b62000e7c8882890162000dd5565b935050606086015167ffffffffffffffff81111562000ea05762000e9f62000c1f565b5b62000eae8882890162000dd5565b925050608086015167ffffffffffffffff81111562000ed25762000ed162000c1f565b5b62000ee08882890162000dd5565b9150509295509295909350565b600081519050919050565b600081905092915050565b600062000f108262000eed565b62000f1c818562000ef8565b935062000f2e81856020860162000d5e565b80840191505092915050565b600062000f48828462000f03565b915081905092915050565b7f3000000000000000000000000000000000000000000000000000000000000000600082015250565b600062000f8b60018362000ef8565b915062000f988262000f53565b600182019050919050565b600062000fb08262000f7c565b9150819050919050565b7f4e487b7100000000000000000000000000000000000000000000000000000000600052602260045260246000fd5b600060028204905060018216806200100257607f821691505b60208210810362001018576200101762000fba565b5b50919050565b60008190508160005260206000209050919050565b60006020601f8301049050919050565b600082821b905092915050565b600060088302620010827fffffffffffffffffffffffffffffffffffffffffffffffffffffffffffffffff8262001043565b6200108e868362001043565b95508019841693508086168417925050509392505050565b6000819050919050565b6000819050919050565b6000620010db620010d5620010cf84620010a6565b620010b0565b620010a6565b9050919050565b6000819050919050565b620010f783620010ba565b6200110f6200110682620010e2565b84845462001050565b825550505050565b600090565b6200112662001117565b62001133818484620010ec565b505050565b5b818110156200115b576200114f6000826200111c565b60018101905062001139565b5050565b601f821115620011aa5762001174816200101e565b6200117f8462001033565b810160208510156200118f578190505b620011a76200119e8562001033565b83018262001138565b50505b505050565b600082821c905092915050565b6000620011cf60001984600802620011af565b1980831691505092915050565b6000620011ea8383620011bc565b9150826002028217905092915050565b620012058262000eed565b67ffffffffffffffff81111562001221576200122062000ca4565b5b6200122d825462000fe9565b6200123a8282856200115f565b600060209050601f8311600181146200127257600084156200125d578287015190505b620012698582620011dc565b865550620012d9565b601f19841662001282866200101e565b60005b82811015620012ac5784890151825560018201915060208501945060208101905062001285565b86831015620012cc5784890151620012c8601f891682620011bc565b8355505b6001600288020188555050505b505050505050565b600082825260208201905092915050565b6000620012ff8262000eed565b6200130b8185620012e1565b93506200131d81856020860162000d5e565b620013288162000c93565b840191505092915050565b600060208201905081810360008301526200134f8184620012f2565b905092915050565b7f4164616d00000000000000000000000000000000000000000000000000000000600082015250565b60006200138f60048362000ef8565b91506200139c8262001357565b600482019050919050565b6000620013b48262001380565b9150819050919050565b61555080620013ce6000396000f3fe60806040526004361061021a5760003560e01c80635d1ce88f1161012357806391d14854116100ab578063c55011ee1161006f578063c55011ee14610846578063d2114e181461086f578063d2125bd2146108ac578063d547741f146108d5578063f2fde38b146108fe5761021a565b806391d148541461073b5780639b45179f146107785780639e026a3b146107a1578063a217fddf146107de578063b932fbfa146108095761021a565b8063715018a6116100f2578063715018a614610663578063841a65e11461067a57806386e81ba5146106b7578063873f30c7146106f45780638da5cb5b146107105761021a565b80635d1ce88f146105a757806361cabe37146105d2578063679b06be1461060f5780636e312028146106265761021a565b8063248a9ca3116101a6578063387439041161017557806338743904146104c25780634208ce60146104ed578063460e6c9c1461051657806348dc1561146105535780635c60f2261461057e5761021a565b8063248a9ca31461040a578063286b2e54146104475780632f2ff15d1461047057806336568abe146104995761021a565b80630d48cae8116101ed5780630d48cae8146102ed57806315905bdd1461032a5780631892fd78146103675780631a519ce8146103a45780632067eac8146103e15761021a565b8063018d3dc91461021f57806301ffc9a714610248578063095f0773146102855780630ae50a39146102c2575b600080fd5b34801561022b57600080fd5b5061024660048036038101906102419190613e44565b610927565b005b34801561025457600080fd5b5061026f600480360381019061026a9190613f14565b610aa5565b60405161027c9190613f5c565b60405180910390f35b34801561029157600080fd5b506102ac60048036038101906102a79190613fad565b610b1f565b6040516102b99190614059565b60405180910390f35b3480156102ce57600080fd5b506102d7610bbf565b6040516102e491906140bc565b60405180910390f35b3480156102f957600080fd5b50610314600480360381019061030f91906140d7565b610be9565b6040516103219190614241565b60405180910390f35b34801561033657600080fd5b50610351600480360381019061034c91906140d7565b610edd565b60405161035e91906140bc565b60405180910390f35b34801561037357600080fd5b5061038e6004803603810190610389919061428f565b610f25565b60405161039b9190614241565b60405180910390f35b3480156103b057600080fd5b506103cb60048036038101906103c691906140d7565b61120b565b6040516103d89190614241565b60405180910390f35b3480156103ed57600080fd5b506104086004803603810190610403919061428f565b6114ff565b005b34801561041657600080fd5b50610431600480360381019061042c9190613fad565b6118ad565b60405161043e91906142cb565b60405180910390f35b34801561045357600080fd5b5061046e600480360381019061046991906140d7565b6118cd565b005b34801561047c57600080fd5b50610497600480360381019061049291906142e6565b611d3d565b005b3480156104a557600080fd5b506104c060048036038101906104bb91906142e6565b611d5e565b005b3480156104ce57600080fd5b506104d7611de1565b6040516104e491906142cb565b60405180910390f35b3480156104f957600080fd5b50610514600480360381019061050f9190614326565b611e05565b005b34801561052257600080fd5b5061053d60048036038101906105389190614411565b611e19565b60405161054a9190613f5c565b60405180910390f35b34801561055f57600080fd5b50610568611e48565b604051610575919061446a565b60405180910390f35b34801561058a57600080fd5b506105a560048036038101906105a0919061428f565b611e52565b005b3480156105b357600080fd5b506105bc611e5e565b6040516105c991906142cb565b60405180910390f35b3480156105de57600080fd5b506105f960048036038101906105f4919061428f565b611e86565b6040516106069190614059565b60405180910390f35b34801561061b57600080fd5b50610624611ea2565b005b34801561063257600080fd5b5061064d600480360381019061064891906140d7565b611f49565b60405161065a91906140bc565b60405180910390f35b34801561066f57600080fd5b50610678611f92565b005b34801561068657600080fd5b506106a1600480360381019061069c9190613fad565b611fa6565b6040516106ae9190614059565b60405180910390f35b3480156106c357600080fd5b506106de60048036038101906106d991906140d7565b61204b565b6040516106eb91906140bc565b60405180910390f35b61070e60048036038101906107099190614485565b612094565b005b34801561071c57600080fd5b506107256124e8565b60405161073291906140bc565b60405180910390f35b34801561074757600080fd5b50610762600480360381019061075d91906142e6565b612511565b60405161076f9190613f5c565b60405180910390f35b34801561078457600080fd5b5061079f600480360381019061079a9190613e44565b61257c565b005b3480156107ad57600080fd5b506107c860048036038101906107c391906140d7565b6128d8565b6040516107d591906142cb565b60405180910390f35b3480156107ea57600080fd5b506107f3612908565b60405161080091906142cb565b60405180910390f35b34801561081557600080fd5b50610830600480360381019061082b919061428f565b61290f565b60405161083d9190614059565b60405180910390f35b34801561085257600080fd5b5061086d6004803603810190610868919061458c565b612931565b005b34801561087b57600080fd5b50610896600480360381019061089191906140d7565b612943565b6040516108a391906140bc565b60405180910390f35b3480156108b857600080fd5b506108d360048036038101906108ce9190614673565b61298b565b005b3480156108e157600080fd5b506108fc60048036038101906108f791906142e6565b61299d565b005b34801561090a57600080fd5b506109256004803603810190610920919061428f565b6129be565b005b600061093282612943565b9050600061093f84612943565b90503373ffffffffffffffffffffffffffffffffffffffff168273ffffffffffffffffffffffffffffffffffffffff16146109af576040517f08c379a00000000000000000000000000000000000000000000000000000000081526004016109a690614712565b60405180910390fd5b6000600660008473ffffffffffffffffffffffffffffffffffffffff1673ffffffffffffffffffffffffffffffffffffffff16815260200190815260200160002060020160006101000a81548160ff0219169083151502179055506000600860008373ffffffffffffffffffffffffffffffffffffffff1673ffffffffffffffffffffffffffffffffffffffff16815260200190815260200160002060003373ffffffffffffffffffffffffffffffffffffffff1673ffffffffffffffffffffffffffffffffffffffff16815260200190815260200160002060006101000a81548160ff02191690831515021790555050505050565b60007f7965db0b000000000000000000000000000000000000000000000000000000007bffffffffffffffffffffffffffffffffffffffffffffffffffffffff1916827bffffffffffffffffffffffffffffffffffffffffffffffffffffffff19161480610b185750610b1782612a41565b5b9050919050565b60056020528060005260406000206000915090508054610b3e90614761565b80601f0160208091040260200160405190810160405280929190818152602001828054610b6a90614761565b8015610bb75780601f10610b8c57610100808354040283529160200191610bb7565b820191906000526020600020905b815481529060010190602001808311610b9a57829003601f168201915b505050505081565b6000600360009054906101000a900473ffffffffffffffffffffffffffffffffffffffff16905090565b610bf1613c1f565b6000610bfc83612943565b90506000600660008373ffffffffffffffffffffffffffffffffffffffff1673ffffffffffffffffffffffffffffffffffffffff1681526020019081526020016000206040518060e00160405290816000820160009054906101000a900473ffffffffffffffffffffffffffffffffffffffff1673ffffffffffffffffffffffffffffffffffffffff1673ffffffffffffffffffffffffffffffffffffffff168152602001600182018054610cb090614761565b80601f0160208091040260200160405190810160405280929190818152602001828054610cdc90614761565b8015610d295780601f10610cfe57610100808354040283529160200191610d29565b820191906000526020600020905b815481529060010190602001808311610d0c57829003601f168201915b505050505081526020016002820160009054906101000a900460ff161515151581526020016002820160019054906101000a900473ffffffffffffffffffffffffffffffffffffffff1673ffffffffffffffffffffffffffffffffffffffff1673ffffffffffffffffffffffffffffffffffffffff168152602001600382018054610db390614761565b80601f0160208091040260200160405190810160405280929190818152602001828054610ddf90614761565b8015610e2c5780601f10610e0157610100808354040283529160200191610e2c565b820191906000526020600020905b815481529060010190602001808311610e0f57829003601f168201915b50505050508152602001600482018054610e4590614761565b80601f0160208091040260200160405190810160405280929190818152602001828054610e7190614761565b8015610ebe5780601f10610e9357610100808354040283529160200191610ebe565b820191906000526020600020905b815481529060010190602001808311610ea157829003601f168201915b5050505050815260200160058201548152505090508092505050919050565b6000600482604051610eef91906147ce565b908152602001604051809103902060009054906101000a900473ffffffffffffffffffffffffffffffffffffffff169050919050565b610f2d613c1f565b6000600660008473ffffffffffffffffffffffffffffffffffffffff1673ffffffffffffffffffffffffffffffffffffffff1681526020019081526020016000206040518060e00160405290816000820160009054906101000a900473ffffffffffffffffffffffffffffffffffffffff1673ffffffffffffffffffffffffffffffffffffffff1673ffffffffffffffffffffffffffffffffffffffff168152602001600182018054610fdf90614761565b80601f016020809104026020016040519081016040528092919081815260200182805461100b90614761565b80156110585780601f1061102d57610100808354040283529160200191611058565b820191906000526020600020905b81548152906001019060200180831161103b57829003601f168201915b505050505081526020016002820160009054906101000a900460ff161515151581526020016002820160019054906101000a900473ffffffffffffffffffffffffffffffffffffffff1673ffffffffffffffffffffffffffffffffffffffff1673ffffffffffffffffffffffffffffffffffffffff1681526020016003820180546110e290614761565b80601f016020809104026020016040519081016040528092919081815260200182805461110e90614761565b801561115b5780601f106111305761010080835404028352916020019161115b565b820191906000526020600020905b81548152906001019060200180831161113e57829003601f168201915b5050505050815260200160048201805461117490614761565b80601f01602080910402602001604051908101604052809291908181526020018280546111a090614761565b80156111ed5780601f106111c2576101008083540402835291602001916111ed565b820191906000526020600020905b8154815290600101906020018083116111d057829003601f168201915b50505050508152602001600582015481525050905080915050919050565b611213613c1f565b600061121e83610edd565b90506000600660008373ffffffffffffffffffffffffffffffffffffffff1673ffffffffffffffffffffffffffffffffffffffff1681526020019081526020016000206040518060e00160405290816000820160009054906101000a900473ffffffffffffffffffffffffffffffffffffffff1673ffffffffffffffffffffffffffffffffffffffff1673ffffffffffffffffffffffffffffffffffffffff1681526020016001820180546112d290614761565b80601f01602080910402602001604051908101604052809291908181526020018280546112fe90614761565b801561134b5780601f106113205761010080835404028352916020019161134b565b820191906000526020600020905b81548152906001019060200180831161132e57829003601f168201915b505050505081526020016002820160009054906101000a900460ff161515151581526020016002820160019054906101000a900473ffffffffffffffffffffffffffffffffffffffff1673ffffffffffffffffffffffffffffffffffffffff1673ffffffffffffffffffffffffffffffffffffffff1681526020016003820180546113d590614761565b80601f016020809104026020016040519081016040528092919081815260200182805461140190614761565b801561144e5780601f106114235761010080835404028352916020019161144e565b820191906000526020600020905b81548152906001019060200180831161143157829003601f168201915b5050505050815260200160048201805461146790614761565b80601f016020809104026020016040519081016040528092919081815260200182805461149390614761565b80156114e05780601f106114b5576101008083540402835291602001916114e0565b820191906000526020600020905b8154815290600101906020018083116114c357829003601f168201915b5050505050815260200160058201548152505090508092505050919050565b7fcea62fe6ecc79e221c545bf918f804693c542ead2549e37c2bb9baa66ee2e15761152981612aab565b6000600660008473ffffffffffffffffffffffffffffffffffffffff1673ffffffffffffffffffffffffffffffffffffffff168152602001908152602001600020600101805461157890614761565b80601f01602080910402602001604051908101604052809291908181526020018280546115a490614761565b80156115f15780601f106115c6576101008083540402835291602001916115f1565b820191906000526020600020905b8154815290600101906020018083116115d457829003601f168201915b505050505090506000600660008573ffffffffffffffffffffffffffffffffffffffff1673ffffffffffffffffffffffffffffffffffffffff168152602001908152602001600020600301805461164790614761565b80601f016020809104026020016040519081016040528092919081815260200182805461167390614761565b80156116c05780601f10611695576101008083540402835291602001916116c0565b820191906000526020600020905b8154815290600101906020018083116116a357829003601f168201915b5050505050905060004690506005811461170f576040517f08c379a000000000000000000000000000000000000000000000000000000000815260040161170690614831565b60405180910390fd5b600660008673ffffffffffffffffffffffffffffffffffffffff1673ffffffffffffffffffffffffffffffffffffffff168152602001908152602001600020600080820160006101000a81549073ffffffffffffffffffffffffffffffffffffffff02191690556001820160006117869190613c8d565b6002820160006101000a81549060ff02191690556002820160016101000a81549073ffffffffffffffffffffffffffffffffffffffff02191690556003820160006117d19190613c8d565b6004820160006117e19190613c8d565b600582016000905550506004836040516117fb91906147ce565b908152602001604051809103902060006101000a81549073ffffffffffffffffffffffffffffffffffffffff021916905560078260405161183c91906147ce565b908152602001604051809103902060006101000a81549073ffffffffffffffffffffffffffffffffffffffff02191690557fe444442b4fc5a03103c68bde16932de23949be11145d1b4707d817bfb5055738838660405161189e929190614851565b60405180910390a15050505050565b600060016000838152602001908152602001600020600101549050919050565b60006118d882610edd565b90506000600660008373ffffffffffffffffffffffffffffffffffffffff1673ffffffffffffffffffffffffffffffffffffffff168152602001908152602001600020600301805461192990614761565b80601f016020809104026020016040519081016040528092919081815260200182805461195590614761565b80156119a25780601f10611977576101008083540402835291602001916119a2565b820191906000526020600020905b81548152906001019060200180831161198557829003601f168201915b5050505050905060001515600660008473ffffffffffffffffffffffffffffffffffffffff1673ffffffffffffffffffffffffffffffffffffffff16815260200190815260200160002060020160009054906101000a900460ff16151514611a3f576040517f08c379a0000000000000000000000000000000000000000000000000000000008152600401611a36906148f3565b60405180910390fd5b6000600860003373ffffffffffffffffffffffffffffffffffffffff1673ffffffffffffffffffffffffffffffffffffffff16815260200190815260200160002060008473ffffffffffffffffffffffffffffffffffffffff1673ffffffffffffffffffffffffffffffffffffffff16815260200190815260200160002060009054906101000a900460ff1690506000151581151514611b14576040517f08c379a0000000000000000000000000000000000000000000000000000000008152600401611b0b9061495f565b60405180910390fd5b600660008473ffffffffffffffffffffffffffffffffffffffff1673ffffffffffffffffffffffffffffffffffffffff168152602001908152602001600020600080820160006101000a81549073ffffffffffffffffffffffffffffffffffffffff0219169055600182016000611b8b9190613c8d565b6002820160006101000a81549060ff02191690556002820160016101000a81549073ffffffffffffffffffffffffffffffffffffffff0219169055600382016000611bd69190613c8d565b600482016000611be69190613c8d565b60058201600090555050600484604051611c0091906147ce565b908152602001604051809103902060006101000a81549073ffffffffffffffffffffffffffffffffffffffff0219169055600782604051611c4191906147ce565b908152602001604051809103902060006101000a81549073ffffffffffffffffffffffffffffffffffffffff0219169055600860003373ffffffffffffffffffffffffffffffffffffffff1673ffffffffffffffffffffffffffffffffffffffff16815260200190815260200160002060008473ffffffffffffffffffffffffffffffffffffffff1673ffffffffffffffffffffffffffffffffffffffff16815260200190815260200160002060006101000a81549060ff02191690557fe444442b4fc5a03103c68bde16932de23949be11145d1b4707d817bfb50557388484604051611d2f929190614851565b60405180910390a150505050565b611d46826118ad565b611d4f81612aab565b611d598383612abf565b505050565b611d66612b9f565b73ffffffffffffffffffffffffffffffffffffffff168173ffffffffffffffffffffffffffffffffffffffff1614611dd3576040517f08c379a0000000000000000000000000000000000000000000000000000000008152600401611dca906149f1565b60405180910390fd5b611ddd8282612ba7565b5050565b7fcea62fe6ecc79e221c545bf918f804693c542ead2549e37c2bb9baa66ee2e15781565b611e128585858585612c89565b5050505050565b60086020528160005260406000206020528060005260406000206000915091509054906101000a900460ff1681565b6000600254905090565b611e5b8161301f565b50565b60007fcea62fe6ecc79e221c545bf918f804693c542ead2549e37c2bb9baa66ee2e157905090565b60606000611e9383610f25565b90508060200151915050919050565b6000600660003373ffffffffffffffffffffffffffffffffffffffff1673ffffffffffffffffffffffffffffffffffffffff16815260200190815260200160002060020160009054906101000a900460ff1690506000151581151514611f3d576040517f08c379a0000000000000000000000000000000000000000000000000000000008152600401611f3490614a5d565b60405180910390fd5b611f463361301f565b50565b6007818051602081018201805184825260208301602085012081835280955050505050506000915054906101000a900473ffffffffffffffffffffffffffffffffffffffff1681565b611f9a613359565b611fa460006133d7565b565b6060600560008381526020019081526020016000208054611fc690614761565b80601f0160208091040260200160405190810160405280929190818152602001828054611ff290614761565b801561203f5780601f106120145761010080835404028352916020019161203f565b820191906000526020600020905b81548152906001019060200180831161202257829003601f168201915b50505050509050919050565b6004818051602081018201805184825260208301602085012081835280955050505050506000915054906101000a900473ffffffffffffffffffffffffffffffffffffffff1681565b600033905060025434146120dd576040517f08c379a00000000000000000000000000000000000000000000000000000000081526004016120d490614ac9565b60405180910390fd5b60006007856040516120ef91906147ce565b908152602001604051809103902060009054906101000a900473ffffffffffffffffffffffffffffffffffffffff169050600061212b846128d8565b90506040518060e001604052808473ffffffffffffffffffffffffffffffffffffffff1681526020018981526020016000151581526020018373ffffffffffffffffffffffffffffffffffffffff16815260200188815260200186815260200182815250600660003373ffffffffffffffffffffffffffffffffffffffff1673ffffffffffffffffffffffffffffffffffffffff16815260200190815260200160002060008201518160000160006101000a81548173ffffffffffffffffffffffffffffffffffffffff021916908373ffffffffffffffffffffffffffffffffffffffff160217905550602082015181600101908161222a9190614c95565b5060408201518160020160006101000a81548160ff02191690831515021790555060608201518160020160016101000a81548173ffffffffffffffffffffffffffffffffffffffff021916908373ffffffffffffffffffffffffffffffffffffffff16021790555060808201518160030190816122a79190614c95565b5060a08201518160040190816122bd9190614c95565b5060c082015181600501559050506000600360009054906101000a900473ffffffffffffffffffffffffffffffffffffffff1673ffffffffffffffffffffffffffffffffffffffff1660025460405161231590614d98565b60006040518083038185875af1925050503d8060008114612352576040519150601f19603f3d011682016040523d82523d6000602084013e612357565b606091505b505090508061239b576040517f08c379a000000000000000000000000000000000000000000000000000000000815260040161239290614df9565b60405180910390fd5b6123a889858a8a89612c89565b8273ffffffffffffffffffffffffffffffffffffffff167f435b683210e9cdb43126109baed7a6a387c609e0e13532755b51016e1b773a6b8a336040516123f0929190614851565b60405180910390a28273ffffffffffffffffffffffffffffffffffffffff167f71ec84cb0c406d66954dcb2481d75f63a94ed77283afa5657d56e68a20df3c528a33604051612440929190614851565b60405180910390a26000600860008573ffffffffffffffffffffffffffffffffffffffff1673ffffffffffffffffffffffffffffffffffffffff16815260200190815260200160002060003373ffffffffffffffffffffffffffffffffffffffff1673ffffffffffffffffffffffffffffffffffffffff16815260200190815260200160002060006101000a81548160ff021916908315150217905550505050505050505050565b60008060009054906101000a900473ffffffffffffffffffffffffffffffffffffffff16905090565b60006001600084815260200190815260200160002060000160008373ffffffffffffffffffffffffffffffffffffffff1673ffffffffffffffffffffffffffffffffffffffff16815260200190815260200160002060009054906101000a900460ff16905092915050565b600060078260405161258e91906147ce565b908152602001604051809103902060009054906101000a900473ffffffffffffffffffffffffffffffffffffffff1690503373ffffffffffffffffffffffffffffffffffffffff168173ffffffffffffffffffffffffffffffffffffffff161461262d576040517f08c379a000000000000000000000000000000000000000000000000000000000815260040161262490614e65565b60405180910390fd5b600061263884610edd565b90506000600860008473ffffffffffffffffffffffffffffffffffffffff1673ffffffffffffffffffffffffffffffffffffffff16815260200190815260200160002060008373ffffffffffffffffffffffffffffffffffffffff1673ffffffffffffffffffffffffffffffffffffffff16815260200190815260200160002060009054906101000a900460ff169050600015158115151461270f576040517f08c379a000000000000000000000000000000000000000000000000000000000815260040161270690614ed1565b60405180910390fd5b6001600660008473ffffffffffffffffffffffffffffffffffffffff1673ffffffffffffffffffffffffffffffffffffffff16815260200190815260200160002060020160006101000a81548160ff02191690831515021790555033600660008473ffffffffffffffffffffffffffffffffffffffff1673ffffffffffffffffffffffffffffffffffffffff16815260200190815260200160002060020160016101000a81548173ffffffffffffffffffffffffffffffffffffffff021916908373ffffffffffffffffffffffffffffffffffffffff1602179055506001600860008573ffffffffffffffffffffffffffffffffffffffff1673ffffffffffffffffffffffffffffffffffffffff16815260200190815260200160002060008473ffffffffffffffffffffffffffffffffffffffff1673ffffffffffffffffffffffffffffffffffffffff16815260200190815260200160002060006101000a81548160ff0219169083151502179055508173ffffffffffffffffffffffffffffffffffffffff167fadbeb0a5d66e2be993428864e5c86f7c8aa562e2c58131d193ac2eeb7443817a8460016040516128c9929190614ef1565b60405180910390a25050505050565b6000816040516020016128eb9190614059565b604051602081830303815290604052805190602001209050919050565b6000801b81565b6060600061291c83610f25565b905060008160a0015190508092505050919050565b61293d8484848461349b565b50505050565b600060078260405161295591906147ce565b908152602001604051809103902060009054906101000a900473ffffffffffffffffffffffffffffffffffffffff169050919050565b612993613359565b8060028190555050565b6129a6826118ad565b6129af81612aab565b6129b98383612ba7565b505050565b6129c6613359565b600073ffffffffffffffffffffffffffffffffffffffff168173ffffffffffffffffffffffffffffffffffffffff1603612a35576040517f08c379a0000000000000000000000000000000000000000000000000000000008152600401612a2c90614f8c565b60405180910390fd5b612a3e816133d7565b50565b60007f01ffc9a7000000000000000000000000000000000000000000000000000000007bffffffffffffffffffffffffffffffffffffffffffffffffffffffff1916827bffffffffffffffffffffffffffffffffffffffffffffffffffffffff1916149050919050565b612abc81612ab7612b9f565b613931565b50565b612ac98282612511565b612b9b57600180600084815260200190815260200160002060000160008373ffffffffffffffffffffffffffffffffffffffff1673ffffffffffffffffffffffffffffffffffffffff16815260200190815260200160002060006101000a81548160ff021916908315150217905550612b40612b9f565b73ffffffffffffffffffffffffffffffffffffffff168173ffffffffffffffffffffffffffffffffffffffff16837f2f8788117e7eff1d82e926ec794901d17c78024a50270940304540a733656f0d60405160405180910390a45b5050565b600033905090565b612bb18282612511565b15612c855760006001600084815260200190815260200160002060000160008373ffffffffffffffffffffffffffffffffffffffff1673ffffffffffffffffffffffffffffffffffffffff16815260200190815260200160002060006101000a81548160ff021916908315150217905550612c2a612b9f565b73ffffffffffffffffffffffffffffffffffffffff168173ffffffffffffffffffffffffffffffffffffffff16837ff6391f5c32d9c69d2a47ea670b442974b53935d1edc7fd64eb21e047a839171b60405160405180910390a45b5050565b6000612c94826128d8565b9050600073ffffffffffffffffffffffffffffffffffffffff16600487604051612cbe91906147ce565b908152602001604051809103902060009054906101000a900473ffffffffffffffffffffffffffffffffffffffff1673ffffffffffffffffffffffffffffffffffffffff1614612d43576040517f08c379a0000000000000000000000000000000000000000000000000000000008152600401612d3a9061501e565b60405180910390fd5b6000600560008381526020019081526020016000208054612d6390614761565b905014612da5576040517f08c379a0000000000000000000000000000000000000000000000000000000008152600401612d9c9061508a565b60405180910390fd5b6000600960009054906101000a900473ffffffffffffffffffffffffffffffffffffffff1673ffffffffffffffffffffffffffffffffffffffff1663a430c74486866040518363ffffffff1660e01b8152600401612e049291906150aa565b602060405180830381865afa158015612e21573d6000803e3d6000fd5b505050506040513d601f19601f82011682018060405250810190612e45919061510d565b90506001151581151514612e8e576040517f08c379a0000000000000000000000000000000000000000000000000000000008152600401612e8590615186565b60405180910390fd5b600073ffffffffffffffffffffffffffffffffffffffff16600786604051612eb691906147ce565b908152602001604051809103902060009054906101000a900473ffffffffffffffffffffffffffffffffffffffff1673ffffffffffffffffffffffffffffffffffffffff1614612f3b576040517f08c379a0000000000000000000000000000000000000000000000000000000008152600401612f32906151f2565b60405180910390fd5b86600560008481526020019081526020016000209081612f5b9190614c95565b5085600488604051612f6d91906147ce565b908152602001604051809103902060006101000a81548173ffffffffffffffffffffffffffffffffffffffff021916908373ffffffffffffffffffffffffffffffffffffffff16021790555085600786604051612fca91906147ce565b908152602001604051809103902060006101000a81548173ffffffffffffffffffffffffffffffffffffffff021916908373ffffffffffffffffffffffffffffffffffffffff16021790555050505050505050565b6000600660008373ffffffffffffffffffffffffffffffffffffffff1673ffffffffffffffffffffffffffffffffffffffff168152602001908152602001600020600101805461306e90614761565b80601f016020809104026020016040519081016040528092919081815260200182805461309a90614761565b80156130e75780601f106130bc576101008083540402835291602001916130e7565b820191906000526020600020905b8154815290600101906020018083116130ca57829003601f168201915b505050505090506000600660008473ffffffffffffffffffffffffffffffffffffffff1673ffffffffffffffffffffffffffffffffffffffff168152602001908152602001600020600301805461313d90614761565b80601f016020809104026020016040519081016040528092919081815260200182805461316990614761565b80156131b65780601f1061318b576101008083540402835291602001916131b6565b820191906000526020600020905b81548152906001019060200180831161319957829003601f168201915b50505050509050600660008473ffffffffffffffffffffffffffffffffffffffff1673ffffffffffffffffffffffffffffffffffffffff168152602001908152602001600020600080820160006101000a81549073ffffffffffffffffffffffffffffffffffffffff02191690556001820160006132349190613c8d565b6002820160006101000a81549060ff02191690556002820160016101000a81549073ffffffffffffffffffffffffffffffffffffffff021916905560038201600061327f9190613c8d565b60048201600061328f9190613c8d565b600582016000905550506004826040516132a991906147ce565b908152602001604051809103902060006101000a81549073ffffffffffffffffffffffffffffffffffffffff02191690556007816040516132ea91906147ce565b908152602001604051809103902060006101000a81549073ffffffffffffffffffffffffffffffffffffffff02191690557fe444442b4fc5a03103c68bde16932de23949be11145d1b4707d817bfb5055738828460405161334c929190614851565b60405180910390a1505050565b613361612b9f565b73ffffffffffffffffffffffffffffffffffffffff1661337f6124e8565b73ffffffffffffffffffffffffffffffffffffffff16146133d5576040517f08c379a00000000000000000000000000000000000000000000000000000000081526004016133cc9061525e565b60405180910390fd5b565b60008060009054906101000a900473ffffffffffffffffffffffffffffffffffffffff169050816000806101000a81548173ffffffffffffffffffffffffffffffffffffffff021916908373ffffffffffffffffffffffffffffffffffffffff1602179055508173ffffffffffffffffffffffffffffffffffffffff168173ffffffffffffffffffffffffffffffffffffffff167f8be0079c531659141344cd1fd0a4f28419497f9722a3daafe3b4186f6b6457e060405160405180910390a35050565b836004846040516134ac91906147ce565b908152602001604051809103902060006101000a81548173ffffffffffffffffffffffffffffffffffffffff021916908373ffffffffffffffffffffffffffffffffffffffff160217905550836007604051613507906152ca565b908152602001604051809103902060006101000a81548173ffffffffffffffffffffffffffffffffffffffff021916908373ffffffffffffffffffffffffffffffffffffffff160217905550600061355e826128d8565b90506040518060e001604052808673ffffffffffffffffffffffffffffffffffffffff1681526020018581526020016001151581526020018673ffffffffffffffffffffffffffffffffffffffff1681526020016040518060400160405280600481526020017f4164616d00000000000000000000000000000000000000000000000000000000815250815260200184815260200182815250600660008773ffffffffffffffffffffffffffffffffffffffff1673ffffffffffffffffffffffffffffffffffffffff16815260200190815260200160002060008201518160000160006101000a81548173ffffffffffffffffffffffffffffffffffffffff021916908373ffffffffffffffffffffffffffffffffffffffff16021790555060208201518160010190816136929190614c95565b5060408201518160020160006101000a81548160ff02191690831515021790555060608201518160020160016101000a81548173ffffffffffffffffffffffffffffffffffffffff021916908373ffffffffffffffffffffffffffffffffffffffff160217905550608082015181600301908161370f9190614c95565b5060a08201518160040190816137259190614c95565b5060c082015181600501559050506001600660008773ffffffffffffffffffffffffffffffffffffffff1673ffffffffffffffffffffffffffffffffffffffff16815260200190815260200160002060020160006101000a81548160ff02191690831515021790555033600660008773ffffffffffffffffffffffffffffffffffffffff1673ffffffffffffffffffffffffffffffffffffffff16815260200190815260200160002060020160016101000a81548173ffffffffffffffffffffffffffffffffffffffff021916908373ffffffffffffffffffffffffffffffffffffffff160217905550600061384f6040518060400160405280600181526020017f3000000000000000000000000000000000000000000000000000000000000000815250612943565b90506001600860008373ffffffffffffffffffffffffffffffffffffffff1673ffffffffffffffffffffffffffffffffffffffff16815260200190815260200160002060008873ffffffffffffffffffffffffffffffffffffffff1673ffffffffffffffffffffffffffffffffffffffff16815260200190815260200160002060006101000a81548160ff0219169083151502179055508573ffffffffffffffffffffffffffffffffffffffff167f908408e307fc569b417f6cbec5d5a06f44a0a505ac0479b47d421a4b2fd6a1e660405160405180910390a2505050505050565b61393b8282612511565b6139b257613948816139b6565b6139568360001c60206139e3565b604051602001613967929190615377565b6040516020818303038152906040526040517f08c379a00000000000000000000000000000000000000000000000000000000081526004016139a99190614059565b60405180910390fd5b5050565b60606139dc8273ffffffffffffffffffffffffffffffffffffffff16601460ff166139e3565b9050919050565b6060600060028360026139f691906153e0565b613a009190615422565b67ffffffffffffffff811115613a1957613a18613d19565b5b6040519080825280601f01601f191660200182016040528015613a4b5781602001600182028036833780820191505090505b5090507f300000000000000000000000000000000000000000000000000000000000000081600081518110613a8357613a82615456565b5b60200101907effffffffffffffffffffffffffffffffffffffffffffffffffffffffffffff1916908160001a9053507f780000000000000000000000000000000000000000000000000000000000000081600181518110613ae757613ae6615456565b5b60200101907effffffffffffffffffffffffffffffffffffffffffffffffffffffffffffff1916908160001a90535060006001846002613b2791906153e0565b613b319190615422565b90505b6001811115613bd1577f3031323334353637383961626364656600000000000000000000000000000000600f861660108110613b7357613b72615456565b5b1a60f81b828281518110613b8a57613b89615456565b5b60200101907effffffffffffffffffffffffffffffffffffffffffffffffffffffffffffff1916908160001a905350600485901c945080613bca90615485565b9050613b34565b5060008414613c15576040517f08c379a0000000000000000000000000000000000000000000000000000000008152600401613c0c906154fa565b60405180910390fd5b8091505092915050565b6040518060e00160405280600073ffffffffffffffffffffffffffffffffffffffff16815260200160608152602001600015158152602001600073ffffffffffffffffffffffffffffffffffffffff1681526020016060815260200160608152602001600080191681525090565b508054613c9990614761565b6000825580601f10613cab5750613cca565b601f016020900490600052602060002090810190613cc99190613ccd565b5b50565b5b80821115613ce6576000816000905550600101613cce565b5090565b6000604051905090565b600080fd5b600080fd5b600080fd5b600080fd5b6000601f19601f8301169050919050565b7f4e487b7100000000000000000000000000000000000000000000000000000000600052604160045260246000fd5b613d5182613d08565b810181811067ffffffffffffffff82111715613d7057613d6f613d19565b5b80604052505050565b6000613d83613cea565b9050613d8f8282613d48565b919050565b600067ffffffffffffffff821115613daf57613dae613d19565b5b613db882613d08565b9050602081019050919050565b82818337600083830152505050565b6000613de7613de284613d94565b613d79565b905082815260208101848484011115613e0357613e02613d03565b5b613e0e848285613dc5565b509392505050565b600082601f830112613e2b57613e2a613cfe565b5b8135613e3b848260208601613dd4565b91505092915050565b60008060408385031215613e5b57613e5a613cf4565b5b600083013567ffffffffffffffff811115613e7957613e78613cf9565b5b613e8585828601613e16565b925050602083013567ffffffffffffffff811115613ea657613ea5613cf9565b5b613eb285828601613e16565b9150509250929050565b60007fffffffff0000000000000000000000000000000000000000000000000000000082169050919050565b613ef181613ebc565b8114613efc57600080fd5b50565b600081359050613f0e81613ee8565b92915050565b600060208284031215613f2a57613f29613cf4565b5b6000613f3884828501613eff565b91505092915050565b60008115159050919050565b613f5681613f41565b82525050565b6000602082019050613f716000830184613f4d565b92915050565b6000819050919050565b613f8a81613f77565b8114613f9557600080fd5b50565b600081359050613fa781613f81565b92915050565b600060208284031215613fc357613fc2613cf4565b5b6000613fd184828501613f98565b91505092915050565b600081519050919050565b600082825260208201905092915050565b60005b83811015614014578082015181840152602081019050613ff9565b60008484015250505050565b600061402b82613fda565b6140358185613fe5565b9350614045818560208601613ff6565b61404e81613d08565b840191505092915050565b600060208201905081810360008301526140738184614020565b905092915050565b600073ffffffffffffffffffffffffffffffffffffffff82169050919050565b60006140a68261407b565b9050919050565b6140b68161409b565b82525050565b60006020820190506140d160008301846140ad565b92915050565b6000602082840312156140ed576140ec613cf4565b5b600082013567ffffffffffffffff81111561410b5761410a613cf9565b5b61411784828501613e16565b91505092915050565b6141298161409b565b82525050565b600082825260208201905092915050565b600061414b82613fda565b614155818561412f565b9350614165818560208601613ff6565b61416e81613d08565b840191505092915050565b61418281613f41565b82525050565b61419181613f77565b82525050565b600060e0830160008301516141af6000860182614120565b50602083015184820360208601526141c78282614140565b91505060408301516141dc6040860182614179565b5060608301516141ef6060860182614120565b50608083015184820360808601526142078282614140565b91505060a083015184820360a08601526142218282614140565b91505060c083015161423660c0860182614188565b508091505092915050565b6000602082019050818103600083015261425b8184614197565b905092915050565b61426c8161409b565b811461427757600080fd5b50565b60008135905061428981614263565b92915050565b6000602082840312156142a5576142a4613cf4565b5b60006142b38482850161427a565b91505092915050565b6142c581613f77565b82525050565b60006020820190506142e060008301846142bc565b92915050565b600080604083850312156142fd576142fc613cf4565b5b600061430b85828601613f98565b925050602061431c8582860161427a565b9150509250929050565b600080600080600060a0868803121561434257614341613cf4565b5b600086013567ffffffffffffffff8111156143605761435f613cf9565b5b61436c88828901613e16565b955050602061437d8882890161427a565b945050604086013567ffffffffffffffff81111561439e5761439d613cf9565b5b6143aa88828901613e16565b935050606086013567ffffffffffffffff8111156143cb576143ca613cf9565b5b6143d788828901613e16565b925050608086013567ffffffffffffffff8111156143f8576143f7613cf9565b5b61440488828901613e16565b9150509295509295909350565b6000806040838503121561442857614427613cf4565b5b60006144368582860161427a565b92505060206144478582860161427a565b9150509250929050565b6000819050919050565b61446481614451565b82525050565b600060208201905061447f600083018461445b565b92915050565b600080600080600060a086880312156144a1576144a0613cf4565b5b600086013567ffffffffffffffff8111156144bf576144be613cf9565b5b6144cb88828901613e16565b955050602086013567ffffffffffffffff8111156144ec576144eb613cf9565b5b6144f888828901613e16565b945050604086013567ffffffffffffffff81111561451957614518613cf9565b5b61452588828901613e16565b935050606086013567ffffffffffffffff81111561454657614545613cf9565b5b61455288828901613e16565b925050608086013567ffffffffffffffff81111561457357614572613cf9565b5b61457f88828901613e16565b9150509295509295909350565b600080600080608085870312156145a6576145a5613cf4565b5b60006145b48782880161427a565b945050602085013567ffffffffffffffff8111156145d5576145d4613cf9565b5b6145e187828801613e16565b935050604085013567ffffffffffffffff81111561460257614601613cf9565b5b61460e87828801613e16565b925050606085013567ffffffffffffffff81111561462f5761462e613cf9565b5b61463b87828801613e16565b91505092959194509250565b61465081614451565b811461465b57600080fd5b50565b60008135905061466d81614647565b92915050565b60006020828403121561468957614688613cf4565b5b60006146978482850161465e565b91505092915050565b7f757365727320616c6c6f776564206f6e6c7920746f20636c656172207468656d60008201527f73656c6673000000000000000000000000000000000000000000000000000000602082015250565b60006146fc602583613fe5565b9150614707826146a0565b604082019050919050565b6000602082019050818103600083015261472b816146ef565b9050919050565b7f4e487b7100000000000000000000000000000000000000000000000000000000600052602260045260246000fd5b6000600282049050600182168061477957607f821691505b60208210810361478c5761478b614732565b5b50919050565b600081905092915050565b60006147a882613fda565b6147b28185614792565b93506147c2818560208601613ff6565b80840191505092915050565b60006147da828461479d565b915081905092915050565b7f746573746e6574206f6e6c790000000000000000000000000000000000000000600082015250565b600061481b600c83613fe5565b9150614826826147e5565b602082019050919050565b6000602082019050818103600083015261484a8161480e565b9050919050565b6000604082019050818103600083015261486b8185614020565b905061487a60208301846140ad565b9392505050565b7f616c726561647920617070726f766564204f5220646f206e6f7420657869737460008201527f7320796574000000000000000000000000000000000000000000000000000000602082015250565b60006148dd602583613fe5565b91506148e882614881565b604082019050919050565b6000602082019050818103600083015261490c816148d0565b9050919050565b7f616c7265616479206c696e6b6564204f5220646f6e7420657869737473000000600082015250565b6000614949601d83613fe5565b915061495482614913565b602082019050919050565b600060208201905081810360008301526149788161493c565b9050919050565b7f416363657373436f6e74726f6c3a2063616e206f6e6c792072656e6f756e636560008201527f20726f6c657320666f722073656c660000000000000000000000000000000000602082015250565b60006149db602f83613fe5565b91506149e68261497f565b604082019050919050565b60006020820190508181036000830152614a0a816149ce565b9050919050565b7f63616c6c20436c656172506172656e7420666972737400000000000000000000600082015250565b6000614a47601683613fe5565b9150614a5282614a11565b602082019050919050565b60006020820190508181036000830152614a7681614a3a565b9050919050565b7f5265717565737420666565206973206e6f742070616964000000000000000000600082015250565b6000614ab3601783613fe5565b9150614abe82614a7d565b602082019050919050565b60006020820190508181036000830152614ae281614aa6565b9050919050565b60008190508160005260206000209050919050565b60006020601f8301049050919050565b600082821b905092915050565b600060088302614b4b7fffffffffffffffffffffffffffffffffffffffffffffffffffffffffffffffff82614b0e565b614b558683614b0e565b95508019841693508086168417925050509392505050565b6000819050919050565b6000614b92614b8d614b8884614451565b614b6d565b614451565b9050919050565b6000819050919050565b614bac83614b77565b614bc0614bb882614b99565b848454614b1b565b825550505050565b600090565b614bd5614bc8565b614be0818484614ba3565b505050565b5b81811015614c0457614bf9600082614bcd565b600181019050614be6565b5050565b601f821115614c4957614c1a81614ae9565b614c2384614afe565b81016020851015614c32578190505b614c46614c3e85614afe565b830182614be5565b50505b505050565b600082821c905092915050565b6000614c6c60001984600802614c4e565b1980831691505092915050565b6000614c858383614c5b565b9150826002028217905092915050565b614c9e82613fda565b67ffffffffffffffff811115614cb757614cb6613d19565b5b614cc18254614761565b614ccc828285614c08565b600060209050601f831160018114614cff5760008415614ced578287015190505b614cf78582614c79565b865550614d5f565b601f198416614d0d86614ae9565b60005b82811015614d3557848901518255600182019150602085019450602081019050614d10565b86831015614d525784890151614d4e601f891682614c5b565b8355505b6001600288020188555050505b505050505050565b600081905092915050565b50565b6000614d82600083614d67565b9150614d8d82614d72565b600082019050919050565b6000614da382614d75565b9150819050919050565b7f556e61626c6520746f207472616e736665722066656500000000000000000000600082015250565b6000614de3601683613fe5565b9150614dee82614dad565b602082019050919050565b60006020820190508181036000830152614e1281614dd6565b9050919050565b7f6f6e6c7920706172656e745f6e616d652063616e206163636570742069740000600082015250565b6000614e4f601e83613fe5565b9150614e5a82614e19565b602082019050919050565b60006020820190508181036000830152614e7e81614e42565b9050919050565b7f616c726561647920726567697374726564000000000000000000000000000000600082015250565b6000614ebb601183613fe5565b9150614ec682614e85565b602082019050919050565b60006020820190508181036000830152614eea81614eae565b9050919050565b6000604082019050614f0660008301856140ad565b614f136020830184613f4d565b9392505050565b7f4f776e61626c653a206e6577206f776e657220697320746865207a65726f206160008201527f6464726573730000000000000000000000000000000000000000000000000000602082015250565b6000614f76602683613fe5565b9150614f8182614f1a565b604082019050919050565b60006020820190508181036000830152614fa581614f69565b9050919050565b7f5468657265206973206164647265737320636f6e6e656374656420746f20746860008201527f617420494420616c726561647900000000000000000000000000000000000000602082015250565b6000615008602d83613fe5565b915061501382614fac565b604082019050919050565b6000602082019050818103600083015261503781614ffb565b9050919050565b7f5468697320706c61696e5f696420616c72656164792072656769737472656400600082015250565b6000615074601f83613fe5565b915061507f8261503e565b602082019050919050565b600060208201905081810360008301526150a381615067565b9050919050565b600060408201905081810360008301526150c48185614020565b905081810360208301526150d88184614020565b90509392505050565b6150ea81613f41565b81146150f557600080fd5b50565b600081519050615107816150e1565b92915050565b60006020828403121561512357615122613cf4565b5b6000615131848285016150f8565b91505092915050565b7f64696374696f6e617279206572726f7200000000000000000000000000000000600082015250565b6000615170601083613fe5565b915061517b8261513a565b602082019050919050565b6000602082019050818103600083015261519f81615163565b9050919050565b7f636f64656e616d652074616b656e000000000000000000000000000000000000600082015250565b60006151dc600e83613fe5565b91506151e7826151a6565b602082019050919050565b6000602082019050818103600083015261520b816151cf565b9050919050565b7f4f776e61626c653a2063616c6c6572206973206e6f7420746865206f776e6572600082015250565b6000615248602083613fe5565b915061525382615212565b602082019050919050565b600060208201905081810360008301526152778161523b565b9050919050565b7f4164616d00000000000000000000000000000000000000000000000000000000600082015250565b60006152b4600483614792565b91506152bf8261527e565b600482019050919050565b60006152d5826152a7565b9150819050919050565b7f416363657373436f6e74726f6c3a206163636f756e7420000000000000000000600082015250565b6000615315601783614792565b9150615320826152df565b601782019050919050565b7f206973206d697373696e6720726f6c6520000000000000000000000000000000600082015250565b6000615361601183614792565b915061536c8261532b565b601182019050919050565b600061538282615308565b915061538e828561479d565b915061539982615354565b91506153a5828461479d565b91508190509392505050565b7f4e487b7100000000000000000000000000000000000000000000000000000000600052601160045260246000fd5b60006153eb82614451565b91506153f683614451565b925082820261540481614451565b9150828204841483151761541b5761541a6153b1565b5b5092915050565b600061542d82614451565b915061543883614451565b92508282019050808211156154505761544f6153b1565b5b92915050565b7f4e487b7100000000000000000000000000000000000000000000000000000000600052603260045260246000fd5b600061549082614451565b9150600082036154a3576154a26153b1565b5b600182039050919050565b7f537472696e67733a20686578206c656e67746820696e73756666696369656e74600082015250565b60006154e4602083613fe5565b91506154ef826154ae565b602082019050919050565b60006020820190508181036000830152615513816154d7565b905091905056fea2646970667358221220636eb7319f989c58142fca83c2f7ae396ea40273e701855f4a63064ba673296864736f6c634300081100337a6a58436a3969757365336748476141494967796169434f734a705157534345424261632f7a50477267513d",
  "linkReferences": {},
  "deployedLinkReferences": {}
}