{
  "_format": "hh-sol-artifact-1",
  "contractName": "Leg10nMock",
  "sourceName": "contracts/mocks/Leg10nMock.sol",
  "abi": [
    {
      "inputs": [
        {
          "internalType": "address",
          "name": "turing_",
          "type": "address"
        },
        {
          "internalType": "address",
          "name": "admin_",
          "type": "address"
        },
        {
          "internalType": "int64",
          "name": "tgid_",
          "type": "int64"
        },
        {
          "internalType": "string",
          "name": "public_key_",
          "type": "string"
        }
      ],
      "stateMutability": "nonpayable",
      "type": "constructor"
    },
    {
      "anonymous": false,
      "inputs": [
        {
          "indexed": true,
          "internalType": "address",
          "name": "admin",
          "type": "address"
        }
      ],
      "name": "Initialized",
      "type": "event"
    },
    {
      "anonymous": false,
      "inputs": [
        {
          "indexed": true,
          "internalType": "address",
          "name": "previousOwner",
          "type": "address"
        },
        {
          "indexed": true,
          "internalType": "address",
          "name": "newOwner",
          "type": "address"
        }
      ],
      "name": "OwnershipTransferred",
      "type": "event"
    },
    {
      "anonymous": false,
      "inputs": [
        {
          "indexed": true,
          "internalType": "bytes32",
          "name": "role",
          "type": "bytes32"
        },
        {
          "indexed": true,
          "internalType": "bytes32",
          "name": "previousAdminRole",
          "type": "bytes32"
        },
        {
          "indexed": true,
          "internalType": "bytes32",
          "name": "newAdminRole",
          "type": "bytes32"
        }
      ],
      "name": "RoleAdminChanged",
      "type": "event"
    },
    {
      "anonymous": false,
      "inputs": [
        {
          "indexed": true,
          "internalType": "bytes32",
          "name": "role",
          "type": "bytes32"
        },
        {
          "indexed": true,
          "internalType": "address",
          "name": "account",
          "type": "address"
        },
        {
          "indexed": true,
          "internalType": "address",
          "name": "sender",
          "type": "address"
        }
      ],
      "name": "RoleGranted",
      "type": "event"
    },
    {
      "anonymous": false,
      "inputs": [
        {
          "indexed": true,
          "internalType": "bytes32",
          "name": "role",
          "type": "bytes32"
        },
        {
          "indexed": true,
          "internalType": "address",
          "name": "account",
          "type": "address"
        },
        {
          "indexed": true,
          "internalType": "address",
          "name": "sender",
          "type": "address"
        }
      ],
      "name": "RoleRevoked",
      "type": "event"
    },
    {
      "anonymous": false,
      "inputs": [
        {
          "indexed": false,
          "internalType": "int64",
          "name": "applyerTg",
          "type": "int64"
        },
        {
          "indexed": false,
          "internalType": "address",
          "name": "wallet_address",
          "type": "address"
        },
        {
          "indexed": true,
          "internalType": "address",
          "name": "parent_address",
          "type": "address"
        }
      ],
      "name": "joinRequested",
      "type": "event"
    },
    {
      "anonymous": false,
      "inputs": [
        {
          "indexed": false,
          "internalType": "int64",
          "name": "applyerTg",
          "type": "int64"
        },
        {
          "indexed": false,
          "internalType": "address",
          "name": "wallet_address",
          "type": "address"
        },
        {
          "indexed": true,
          "internalType": "address",
          "name": "parent_address",
          "type": "address"
        }
      ],
      "name": "joinRequestedIndexedTG",
      "type": "event"
    },
    {
      "anonymous": false,
      "inputs": [
        {
          "indexed": false,
          "internalType": "address",
          "name": "high_node",
          "type": "address"
        },
        {
          "indexed": true,
          "internalType": "address",
          "name": "low_node",
          "type": "address"
        },
        {
          "indexed": false,
          "internalType": "bool",
          "name": "pravda",
          "type": "bool"
        }
      ],
      "name": "relationChanged",
      "type": "event"
    },
    {
      "anonymous": false,
      "inputs": [
        {
          "indexed": true,
          "internalType": "int64",
          "name": "applyerTg",
          "type": "int64"
        },
        {
          "indexed": false,
          "internalType": "address",
          "name": "user_address",
          "type": "address"
        },
        {
          "indexed": false,
          "internalType": "address",
          "name": "parent_address",
          "type": "address"
        }
      ],
      "name": "requestAccepted",
      "type": "event"
    },
    {
      "anonymous": false,
      "inputs": [
        {
          "indexed": false,
          "internalType": "int64",
          "name": "applyerTg",
          "type": "int64"
        },
        {
          "indexed": false,
          "internalType": "address",
          "name": "wallet",
          "type": "address"
        }
      ],
      "name": "requestDenied",
      "type": "event"
    },
    {
      "inputs": [
        {
          "internalType": "int64",
          "name": "applyerTg",
          "type": "int64"
        },
        {
          "internalType": "string",
          "name": "parent_name",
          "type": "string"
        }
      ],
      "name": "AcceptJoin",
      "outputs": [],
      "stateMutability": "nonpayable",
      "type": "function"
    },
    {
      "inputs": [
        {
          "internalType": "string",
          "name": "parent_name",
          "type": "string"
        },
        {
          "internalType": "string",
          "name": "child_name",
          "type": "string"
        }
      ],
      "name": "ClearParent",
      "outputs": [],
      "stateMutability": "nonpayable",
      "type": "function"
    },
    {
      "inputs": [],
      "name": "DEFAULT_ADMIN_ROLE",
      "outputs": [
        {
          "internalType": "bytes32",
          "name": "",
          "type": "bytes32"
        }
      ],
      "stateMutability": "view",
      "type": "function"
    },
    {
      "inputs": [
        {
          "internalType": "int64",
          "name": "tgid",
          "type": "int64"
        }
      ],
      "name": "DeclineRequest",
      "outputs": [],
      "stateMutability": "nonpayable",
      "type": "function"
    },
    {
      "inputs": [],
      "name": "GetOwner",
      "outputs": [
        {
          "internalType": "address",
          "name": "",
          "type": "address"
        }
      ],
      "stateMutability": "view",
      "type": "function"
    },
    {
      "inputs": [],
      "name": "GetPassportFee",
      "outputs": [
        {
          "internalType": "uint256",
          "name": "",
          "type": "uint256"
        }
      ],
      "stateMutability": "view",
      "type": "function"
    },
    {
      "inputs": [
        {
          "internalType": "address",
          "name": "user_address",
          "type": "address"
        }
      ],
      "name": "GetPublicKeyByAddress",
      "outputs": [
        {
          "internalType": "string",
          "name": "",
          "type": "string"
        }
      ],
      "stateMutability": "view",
      "type": "function"
    },
    {
      "inputs": [
        {
          "internalType": "address",
          "name": "user_wallet",
          "type": "address"
        }
      ],
      "name": "GetTgIdByAddress",
      "outputs": [
        {
          "internalType": "int64",
          "name": "tgid",
          "type": "int64"
        }
      ],
      "stateMutability": "view",
      "type": "function"
    },
    {
      "inputs": [
        {
          "internalType": "address",
          "name": "user_wallet",
          "type": "address"
        }
      ],
      "name": "GetUserByAddress",
      "outputs": [
        {
          "components": [
            {
              "internalType": "address",
              "name": "userAddress",
              "type": "address"
            },
            {
              "internalType": "int64",
              "name": "tgId",
              "type": "int64"
            },
            {
              "internalType": "bool",
              "name": "valid",
              "type": "bool"
            },
            {
              "internalType": "address",
              "name": "validatorAddress",
              "type": "address"
            },
            {
              "internalType": "string",
              "name": "codeName",
              "type": "string"
            },
            {
              "internalType": "string",
              "name": "public_key",
              "type": "string"
            }
          ],
          "internalType": "struct Leg10n.User",
          "name": "",
          "type": "tuple"
        }
      ],
      "stateMutability": "view",
      "type": "function"
    },
    {
      "inputs": [
        {
          "internalType": "string",
          "name": "user_name_",
          "type": "string"
        }
      ],
      "name": "GetUserByNickName",
      "outputs": [
        {
          "components": [
            {
              "internalType": "address",
              "name": "userAddress",
              "type": "address"
            },
            {
              "internalType": "int64",
              "name": "tgId",
              "type": "int64"
            },
            {
              "internalType": "bool",
              "name": "valid",
              "type": "bool"
            },
            {
              "internalType": "address",
              "name": "validatorAddress",
              "type": "address"
            },
            {
              "internalType": "string",
              "name": "codeName",
              "type": "string"
            },
            {
              "internalType": "string",
              "name": "public_key",
              "type": "string"
            }
          ],
          "internalType": "struct Leg10n.User",
          "name": "",
          "type": "tuple"
        }
      ],
      "stateMutability": "view",
      "type": "function"
    },
    {
      "inputs": [
        {
          "internalType": "int64",
          "name": "tgId_",
          "type": "int64"
        }
      ],
      "name": "GetUserByTgId",
      "outputs": [
        {
          "components": [
            {
              "internalType": "address",
              "name": "userAddress",
              "type": "address"
            },
            {
              "internalType": "int64",
              "name": "tgId",
              "type": "int64"
            },
            {
              "internalType": "bool",
              "name": "valid",
              "type": "bool"
            },
            {
              "internalType": "address",
              "name": "validatorAddress",
              "type": "address"
            },
            {
              "internalType": "string",
              "name": "codeName",
              "type": "string"
            },
            {
              "internalType": "string",
              "name": "public_key",
              "type": "string"
            }
          ],
          "internalType": "struct Leg10n.User",
          "name": "",
          "type": "tuple"
        }
      ],
      "stateMutability": "view",
      "type": "function"
    },
    {
      "inputs": [
        {
          "internalType": "int64",
          "name": "tgId_",
          "type": "int64"
        }
      ],
      "name": "GetUserWalletByID",
      "outputs": [
        {
          "internalType": "address",
          "name": "",
          "type": "address"
        }
      ],
      "stateMutability": "view",
      "type": "function"
    },
    {
      "inputs": [
        {
          "internalType": "string",
          "name": "user_name_",
          "type": "string"
        }
      ],
      "name": "GetWalletByNickName",
      "outputs": [
        {
          "internalType": "address",
          "name": "",
          "type": "address"
        }
      ],
      "stateMutability": "view",
      "type": "function"
    },
    {
      "inputs": [
        {
          "internalType": "int64",
          "name": "applyerTg",
          "type": "int64"
        },
        {
          "internalType": "string",
          "name": "code_name_",
          "type": "string"
        },
        {
          "internalType": "string",
          "name": "parent_name",
          "type": "string"
        },
        {
          "internalType": "string",
          "name": "public_key",
          "type": "string"
        }
      ],
      "name": "RequestJoin",
      "outputs": [],
      "stateMutability": "payable",
      "type": "function"
    },
    {
      "inputs": [
        {
          "internalType": "uint256",
          "name": "passportFee_",
          "type": "uint256"
        }
      ],
      "name": "SetPassportFee",
      "outputs": [],
      "stateMutability": "nonpayable",
      "type": "function"
    },
    {
      "inputs": [
        {
          "internalType": "address",
          "name": "",
          "type": "address"
        },
        {
          "internalType": "address",
          "name": "",
          "type": "address"
        }
      ],
      "name": "chain",
      "outputs": [
        {
          "internalType": "bool",
          "name": "",
          "type": "bool"
        }
      ],
      "stateMutability": "view",
      "type": "function"
    },
    {
      "inputs": [
        {
          "internalType": "address",
          "name": "user_address",
          "type": "address"
        }
      ],
      "name": "deleteUser",
      "outputs": [],
      "stateMutability": "nonpayable",
      "type": "function"
    },
    {
      "inputs": [],
      "name": "deleteYourSelf",
      "outputs": [],
      "stateMutability": "nonpayable",
      "type": "function"
    },
    {
      "inputs": [
        {
          "internalType": "address",
          "name": "user_address",
          "type": "address"
        }
      ],
      "name": "devDeleteUser",
      "outputs": [],
      "stateMutability": "nonpayable",
      "type": "function"
    },
    {
      "inputs": [
        {
          "internalType": "address",
          "name": "admin_",
          "type": "address"
        },
        {
          "internalType": "int64",
          "name": "tgid_",
          "type": "int64"
        },
        {
          "internalType": "string",
          "name": "public_key_",
          "type": "string"
        }
      ],
      "name": "devInitAdmin",
      "outputs": [],
      "stateMutability": "nonpayable",
      "type": "function"
    },
    {
      "inputs": [],
      "name": "getModeratorIdentifier",
      "outputs": [
        {
          "internalType": "bytes32",
          "name": "",
          "type": "bytes32"
        }
      ],
      "stateMutability": "pure",
      "type": "function"
    },
    {
      "inputs": [
        {
          "internalType": "bytes32",
          "name": "role",
          "type": "bytes32"
        }
      ],
      "name": "getRoleAdmin",
      "outputs": [
        {
          "internalType": "bytes32",
          "name": "",
          "type": "bytes32"
        }
      ],
      "stateMutability": "view",
      "type": "function"
    },
    {
      "inputs": [
        {
          "internalType": "bytes32",
          "name": "role",
          "type": "bytes32"
        },
        {
          "internalType": "address",
          "name": "account",
          "type": "address"
        }
      ],
      "name": "grantRole",
      "outputs": [],
      "stateMutability": "nonpayable",
      "type": "function"
    },
    {
      "inputs": [
        {
          "internalType": "bytes32",
          "name": "role",
          "type": "bytes32"
        },
        {
          "internalType": "address",
          "name": "account",
          "type": "address"
        }
      ],
      "name": "hasRole",
      "outputs": [
        {
          "internalType": "bool",
          "name": "",
          "type": "bool"
        }
      ],
      "stateMutability": "view",
      "type": "function"
    },
    {
      "inputs": [],
      "name": "moderator",
      "outputs": [
        {
          "internalType": "bytes32",
          "name": "",
          "type": "bytes32"
        }
      ],
      "stateMutability": "view",
      "type": "function"
    },
    {
      "inputs": [],
      "name": "owner",
      "outputs": [
        {
          "internalType": "address",
          "name": "",
          "type": "address"
        }
      ],
      "stateMutability": "view",
      "type": "function"
    },
    {
      "inputs": [],
      "name": "renounceOwnership",
      "outputs": [],
      "stateMutability": "nonpayable",
      "type": "function"
    },
    {
      "inputs": [
        {
          "internalType": "bytes32",
          "name": "role",
          "type": "bytes32"
        },
        {
          "internalType": "address",
          "name": "account",
          "type": "address"
        }
      ],
      "name": "renounceRole",
      "outputs": [],
      "stateMutability": "nonpayable",
      "type": "function"
    },
    {
      "inputs": [
        {
          "internalType": "bytes32",
          "name": "role",
          "type": "bytes32"
        },
        {
          "internalType": "address",
          "name": "account",
          "type": "address"
        }
      ],
      "name": "revokeRole",
      "outputs": [],
      "stateMutability": "nonpayable",
      "type": "function"
    },
    {
      "inputs": [
        {
          "internalType": "bytes4",
          "name": "interfaceId",
          "type": "bytes4"
        }
      ],
      "name": "supportsInterface",
      "outputs": [
        {
          "internalType": "bool",
          "name": "",
          "type": "bool"
        }
      ],
      "stateMutability": "view",
      "type": "function"
    },
    {
      "inputs": [
        {
          "internalType": "address",
          "name": "newOwner",
          "type": "address"
        }
      ],
      "name": "transferOwnership",
      "outputs": [],
      "stateMutability": "nonpayable",
      "type": "function"
    },
    {
      "inputs": [
        {
          "internalType": "int64",
          "name": "tgId",
          "type": "int64"
        },
        {
          "internalType": "address",
          "name": "userAddress",
          "type": "address"
        },
        {
          "internalType": "string",
          "name": "code_name_",
          "type": "string"
        },
        {
          "internalType": "string",
          "name": "parent_name",
          "type": "string"
        }
      ],
      "name": "updateAddress",
      "outputs": [],
      "stateMutability": "nonpayable",
      "type": "function"
    }
  ],
  "bytecode": "0x60806040523480156200001157600080fd5b5060405162005fb638038062005fb6833981810160405281019062000037919062000e00565b838383836200005b6200004f6200049060201b60201c565b6200049860201b60201c565b66071afd498d0000600281905550620000796200055c60201b60201c565b600360006101000a81548173ffffffffffffffffffffffffffffffffffffffff021916908373ffffffffffffffffffffffffffffffffffffffff160217905550620000ce6000801b336200058560201b60201c565b620001007fcea62fe6ecc79e221c545bf918f804693c542ead2549e37c2bb9baa66ee2e157336200058560201b60201c565b83600860006101000a81548173ffffffffffffffffffffffffffffffffffffffff021916908373ffffffffffffffffffffffffffffffffffffffff16021790555033600460008460070b60070b815260200190815260200160002060006101000a81548173ffffffffffffffffffffffffffffffffffffffff021916908373ffffffffffffffffffffffffffffffffffffffff160217905550336006604051620001aa9062000eec565b908152602001604051809103902060006101000a81548173ffffffffffffffffffffffffffffffffffffffff021916908373ffffffffffffffffffffffffffffffffffffffff1602179055506040518060c001604052803373ffffffffffffffffffffffffffffffffffffffff1681526020018360070b81526020016001151581526020013373ffffffffffffffffffffffffffffffffffffffff1681526020016040518060400160405280600181526020017f300000000000000000000000000000000000000000000000000000000000000081525081526020016040518060600160405280602c815260200162005f8a602c9139815250600560003373ffffffffffffffffffffffffffffffffffffffff1673ffffffffffffffffffffffffffffffffffffffff16815260200190815260200160002060008201518160000160006101000a81548173ffffffffffffffffffffffffffffffffffffffff021916908373ffffffffffffffffffffffffffffffffffffffff16021790555060208201518160000160146101000a81548167ffffffffffffffff021916908360070b67ffffffffffffffff160217905550604082015181600001601c6101000a81548160ff02191690831515021790555060608201518160010160006101000a81548173ffffffffffffffffffffffffffffffffffffffff021916908373ffffffffffffffffffffffffffffffffffffffff1602179055506080820151816002019081620003d991906200114e565b5060a0820151816003019081620003f191906200114e565b50905050600073ffffffffffffffffffffffffffffffffffffffff168373ffffffffffffffffffffffffffffffffffffffff16148062000434575060008260070b145b156200046e5762000468336104d26040518060600160405280602c815260200162005f8a602c91396200067660201b60201c565b62000482565b620004818383836200067660201b60201c565b5b5050505050505050620012ec565b600033905090565b60008060009054906101000a900473ffffffffffffffffffffffffffffffffffffffff169050816000806101000a81548173ffffffffffffffffffffffffffffffffffffffff021916908373ffffffffffffffffffffffffffffffffffffffff1602179055508173ffffffffffffffffffffffffffffffffffffffff168173ffffffffffffffffffffffffffffffffffffffff167f8be0079c531659141344cd1fd0a4f28419497f9722a3daafe3b4186f6b6457e060405160405180910390a35050565b60008060009054906101000a900473ffffffffffffffffffffffffffffffffffffffff16905090565b62000597828262000b1560201b60201c565b6200067257600180600084815260200190815260200160002060000160008373ffffffffffffffffffffffffffffffffffffffff1673ffffffffffffffffffffffffffffffffffffffff16815260200190815260200160002060006101000a81548160ff021916908315150217905550620006176200049060201b60201c565b73ffffffffffffffffffffffffffffffffffffffff168173ffffffffffffffffffffffffffffffffffffffff16837f2f8788117e7eff1d82e926ec794901d17c78024a50270940304540a733656f0d60405160405180910390a45b5050565b82600460008460070b60070b815260200190815260200160002060006101000a81548173ffffffffffffffffffffffffffffffffffffffff021916908373ffffffffffffffffffffffffffffffffffffffff160217905550826006604051620006df9062001285565b908152602001604051809103902060006101000a81548173ffffffffffffffffffffffffffffffffffffffff021916908373ffffffffffffffffffffffffffffffffffffffff1602179055506040518060c001604052808473ffffffffffffffffffffffffffffffffffffffff1681526020018360070b81526020016001151581526020018473ffffffffffffffffffffffffffffffffffffffff1681526020016040518060400160405280600481526020017f4164616d00000000000000000000000000000000000000000000000000000000815250815260200182815250600560008573ffffffffffffffffffffffffffffffffffffffff1673ffffffffffffffffffffffffffffffffffffffff16815260200190815260200160002060008201518160000160006101000a81548173ffffffffffffffffffffffffffffffffffffffff021916908373ffffffffffffffffffffffffffffffffffffffff16021790555060208201518160000160146101000a81548167ffffffffffffffff021916908360070b67ffffffffffffffff160217905550604082015181600001601c6101000a81548160ff02191690831515021790555060608201518160010160006101000a81548173ffffffffffffffffffffffffffffffffffffffff021916908373ffffffffffffffffffffffffffffffffffffffff1602179055506080820151816002019081620008f591906200114e565b5060a08201518160030190816200090d91906200114e565b509050506001600560008573ffffffffffffffffffffffffffffffffffffffff1673ffffffffffffffffffffffffffffffffffffffff168152602001908152602001600020600001601c6101000a81548160ff02191690831515021790555033600560008573ffffffffffffffffffffffffffffffffffffffff1673ffffffffffffffffffffffffffffffffffffffff16815260200190815260200160002060010160006101000a81548173ffffffffffffffffffffffffffffffffffffffff021916908373ffffffffffffffffffffffffffffffffffffffff160217905550600062000a356040518060400160405280600181526020017f300000000000000000000000000000000000000000000000000000000000000081525062000b8060201b60201c565b90506001600760008373ffffffffffffffffffffffffffffffffffffffff1673ffffffffffffffffffffffffffffffffffffffff16815260200190815260200160002060008673ffffffffffffffffffffffffffffffffffffffff1673ffffffffffffffffffffffffffffffffffffffff16815260200190815260200160002060006101000a81548160ff0219169083151502179055508373ffffffffffffffffffffffffffffffffffffffff167f908408e307fc569b417f6cbec5d5a06f44a0a505ac0479b47d421a4b2fd6a1e660405160405180910390a250505050565b60006001600084815260200190815260200160002060000160008373ffffffffffffffffffffffffffffffffffffffff1673ffffffffffffffffffffffffffffffffffffffff16815260200190815260200160002060009054906101000a900460ff16905092915050565b600060068260405162000b949190620012d3565b908152602001604051809103902060009054906101000a900473ffffffffffffffffffffffffffffffffffffffff169050919050565b6000604051905090565b600080fd5b600080fd5b600073ffffffffffffffffffffffffffffffffffffffff82169050919050565b600062000c0b8262000bde565b9050919050565b62000c1d8162000bfe565b811462000c2957600080fd5b50565b60008151905062000c3d8162000c12565b92915050565b60008160070b9050919050565b62000c5b8162000c43565b811462000c6757600080fd5b50565b60008151905062000c7b8162000c50565b92915050565b600080fd5b600080fd5b6000601f19601f8301169050919050565b7f4e487b7100000000000000000000000000000000000000000000000000000000600052604160045260246000fd5b62000cd68262000c8b565b810181811067ffffffffffffffff8211171562000cf85762000cf762000c9c565b5b80604052505050565b600062000d0d62000bca565b905062000d1b828262000ccb565b919050565b600067ffffffffffffffff82111562000d3e5762000d3d62000c9c565b5b62000d498262000c8b565b9050602081019050919050565b60005b8381101562000d7657808201518184015260208101905062000d59565b60008484015250505050565b600062000d9962000d938462000d20565b62000d01565b90508281526020810184848401111562000db85762000db762000c86565b5b62000dc584828562000d56565b509392505050565b600082601f83011262000de55762000de462000c81565b5b815162000df784826020860162000d82565b91505092915050565b6000806000806080858703121562000e1d5762000e1c62000bd4565b5b600062000e2d8782880162000c2c565b945050602062000e408782880162000c2c565b935050604062000e538782880162000c6a565b925050606085015167ffffffffffffffff81111562000e775762000e7662000bd9565b5b62000e858782880162000dcd565b91505092959194509250565b600081905092915050565b7f3000000000000000000000000000000000000000000000000000000000000000600082015250565b600062000ed460018362000e91565b915062000ee18262000e9c565b600182019050919050565b600062000ef98262000ec5565b9150819050919050565b600081519050919050565b7f4e487b7100000000000000000000000000000000000000000000000000000000600052602260045260246000fd5b6000600282049050600182168062000f5657607f821691505b60208210810362000f6c5762000f6b62000f0e565b5b50919050565b60008190508160005260206000209050919050565b60006020601f8301049050919050565b600082821b905092915050565b60006008830262000fd67fffffffffffffffffffffffffffffffffffffffffffffffffffffffffffffffff8262000f97565b62000fe2868362000f97565b95508019841693508086168417925050509392505050565b6000819050919050565b6000819050919050565b60006200102f62001029620010238462000ffa565b62001004565b62000ffa565b9050919050565b6000819050919050565b6200104b836200100e565b620010636200105a8262001036565b84845462000fa4565b825550505050565b600090565b6200107a6200106b565b6200108781848462001040565b505050565b5b81811015620010af57620010a360008262001070565b6001810190506200108d565b5050565b601f821115620010fe57620010c88162000f72565b620010d38462000f87565b81016020851015620010e3578190505b620010fb620010f28562000f87565b8301826200108c565b50505b505050565b600082821c905092915050565b6000620011236000198460080262001103565b1980831691505092915050565b60006200113e838362001110565b9150826002028217905092915050565b620011598262000f03565b67ffffffffffffffff81111562001175576200117462000c9c565b5b62001181825462000f3d565b6200118e828285620010b3565b600060209050601f831160018114620011c65760008415620011b1578287015190505b620011bd858262001130565b8655506200122d565b601f198416620011d68662000f72565b60005b828110156200120057848901518255600182019150602085019450602081019050620011d9565b868310156200122057848901516200121c601f89168262001110565b8355505b6001600288020188555050505b505050505050565b7f4164616d00000000000000000000000000000000000000000000000000000000600082015250565b60006200126d60048362000e91565b91506200127a8262001235565b600482019050919050565b600062001292826200125e565b9150819050919050565b6000620012a98262000f03565b620012b5818562000e91565b9350620012c781856020860162000d56565b80840191505092915050565b6000620012e182846200129c565b915081905092915050565b614c8e80620012fc6000396000f3fe6080604052600436106101e25760003560e01c806361cabe3711610102578063b44cf60011610095578063d2114e1811610064578063d2114e1814610706578063d2125bd214610743578063d547741f1461076c578063f2fde38b14610795576101e2565b8063b44cf60014610647578063b785da8214610663578063b932fbfa1461068c578063c1cada78146106c9576101e2565b80638da5cb5b116100d15780638da5cb5b1461058b57806391d14854146105b6578063a217fddf146105f3578063b233e5eb1461061e576101e2565b806361cabe37146104e3578063679b06be14610520578063715018a6146105375780637cec446b1461054e576101e2565b80632f2ff15d1161017a57806348dc15611161014957806348dc15611461043b57806359f48f0d146104665780635c60f2261461048f5780635d1ce88f146104b8576101e2565b80632f2ff15d1461038157806336568abe146103aa57806338743904146103d3578063460e6c9c146103fe576101e2565b80630d48cae8116101b65780630d48cae8146102a15780631892fd78146102de5780632067eac81461031b578063248a9ca314610344576101e2565b8062d396ed146101e7578063018d3dc91461021057806301ffc9a7146102395780630ae50a3914610276575b600080fd5b3480156101f357600080fd5b5061020e600480360381019061020991906135ac565b6107be565b005b34801561021c57600080fd5b506102376004803603810190610232919061371f565b610c2c565b005b34801561024557600080fd5b50610260600480360381019061025b91906137ef565b610daa565b60405161026d9190613837565b60405180910390f35b34801561028257600080fd5b5061028b610e24565b6040516102989190613893565b60405180910390f35b3480156102ad57600080fd5b506102c860048036038101906102c391906138ae565b610e4e565b6040516102d59190613a33565b60405180910390f35b3480156102ea57600080fd5b5061030560048036038101906103009190613a81565b6110c3565b6040516103129190613a33565b60405180910390f35b34801561032757600080fd5b50610342600480360381019061033d9190613a81565b61132a565b005b34801561035057600080fd5b5061036b60048036038101906103669190613ae4565b61165b565b6040516103789190613b20565b60405180910390f35b34801561038d57600080fd5b506103a860048036038101906103a39190613b3b565b61167b565b005b3480156103b657600080fd5b506103d160048036038101906103cc9190613b3b565b61169c565b005b3480156103df57600080fd5b506103e861171f565b6040516103f59190613b20565b60405180910390f35b34801561040a57600080fd5b5061042560048036038101906104209190613b7b565b611743565b6040516104329190613837565b60405180910390f35b34801561044757600080fd5b50610450611772565b60405161045d9190613bd4565b60405180910390f35b34801561047257600080fd5b5061048d60048036038101906104889190613bef565b61177c565b005b34801561049b57600080fd5b506104b660048036038101906104b19190613a81565b61178e565b005b3480156104c457600080fd5b506104cd61179a565b6040516104da9190613b20565b60405180910390f35b3480156104ef57600080fd5b5061050a60048036038101906105059190613a81565b6117c2565b6040516105179190613c9d565b60405180910390f35b34801561052c57600080fd5b506105356117dd565b005b34801561054357600080fd5b5061054c611884565b005b34801561055a57600080fd5b50610575600480360381019061057091906135ac565b611898565b6040516105829190613893565b60405180910390f35b34801561059757600080fd5b506105a06118db565b6040516105ad9190613893565b60405180910390f35b3480156105c257600080fd5b506105dd60048036038101906105d89190613b3b565b611904565b6040516105ea9190613837565b60405180910390f35b3480156105ff57600080fd5b5061060861196f565b6040516106159190613b20565b60405180910390f35b34801561062a57600080fd5b5061064560048036038101906106409190613cb8565b611976565b005b610661600480360381019061065c9190613d14565b611cd2565b005b34801561066f57600080fd5b5061068a60048036038101906106859190613dcf565b612119565b005b34801561069857600080fd5b506106b360048036038101906106ae9190613a81565b612129565b6040516106c09190613e88565b60405180910390f35b3480156106d557600080fd5b506106f060048036038101906106eb91906135ac565b61214b565b6040516106fd9190613a33565b60405180910390f35b34801561071257600080fd5b5061072d600480360381019061072891906138ae565b6123c0565b60405161073a9190613893565b60405180910390f35b34801561074f57600080fd5b5061076a60048036038101906107659190613ed6565b612408565b005b34801561077857600080fd5b50610793600480360381019061078e9190613b3b565b61241a565b005b3480156107a157600080fd5b506107bc60048036038101906107b79190613a81565b61243b565b005b60006107c982611898565b90506000600560008373ffffffffffffffffffffffffffffffffffffffff1673ffffffffffffffffffffffffffffffffffffffff168152602001908152602001600020600201805461081a90613f32565b80601f016020809104026020016040519081016040528092919081815260200182805461084690613f32565b80156108935780601f1061086857610100808354040283529160200191610893565b820191906000526020600020905b81548152906001019060200180831161087657829003601f168201915b5050505050905060001515600560008473ffffffffffffffffffffffffffffffffffffffff1673ffffffffffffffffffffffffffffffffffffffff168152602001908152602001600020600001601c9054906101000a900460ff16151514610930576040517f08c379a000000000000000000000000000000000000000000000000000000000815260040161092790613fd5565b60405180910390fd5b6000600760003373ffffffffffffffffffffffffffffffffffffffff1673ffffffffffffffffffffffffffffffffffffffff16815260200190815260200160002060008473ffffffffffffffffffffffffffffffffffffffff1673ffffffffffffffffffffffffffffffffffffffff16815260200190815260200160002060009054906101000a900460ff1690506000151581151514610a05576040517f08c379a00000000000000000000000000000000000000000000000000000000081526004016109fc90614041565b60405180910390fd5b600560008473ffffffffffffffffffffffffffffffffffffffff1673ffffffffffffffffffffffffffffffffffffffff168152602001908152602001600020600080820160006101000a81549073ffffffffffffffffffffffffffffffffffffffff02191690556000820160146101000a81549067ffffffffffffffff021916905560008201601c6101000a81549060ff02191690556001820160006101000a81549073ffffffffffffffffffffffffffffffffffffffff0219169055600282016000610ad2919061349b565b600382016000610ae2919061349b565b5050600460008560070b60070b815260200190815260200160002060006101000a81549073ffffffffffffffffffffffffffffffffffffffff0219169055600682604051610b30919061409d565b908152602001604051809103902060006101000a81549073ffffffffffffffffffffffffffffffffffffffff0219169055600760003373ffffffffffffffffffffffffffffffffffffffff1673ffffffffffffffffffffffffffffffffffffffff16815260200190815260200160002060008473ffffffffffffffffffffffffffffffffffffffff1673ffffffffffffffffffffffffffffffffffffffff16815260200190815260200160002060006101000a81549060ff02191690557f7f25a59d906bf9fb883c74ad54e4b0e924fb0326f2f946caf2875485585d0fbf8484604051610c1e9291906140b4565b60405180910390a150505050565b6000610c37826123c0565b90506000610c44846123c0565b90503373ffffffffffffffffffffffffffffffffffffffff168273ffffffffffffffffffffffffffffffffffffffff1614610cb4576040517f08c379a0000000000000000000000000000000000000000000000000000000008152600401610cab9061414f565b60405180910390fd5b6000600560008473ffffffffffffffffffffffffffffffffffffffff1673ffffffffffffffffffffffffffffffffffffffff168152602001908152602001600020600001601c6101000a81548160ff0219169083151502179055506000600760008373ffffffffffffffffffffffffffffffffffffffff1673ffffffffffffffffffffffffffffffffffffffff16815260200190815260200160002060003373ffffffffffffffffffffffffffffffffffffffff1673ffffffffffffffffffffffffffffffffffffffff16815260200190815260200160002060006101000a81548160ff02191690831515021790555050505050565b60007f7965db0b000000000000000000000000000000000000000000000000000000007bffffffffffffffffffffffffffffffffffffffffffffffffffffffff1916827bffffffffffffffffffffffffffffffffffffffffffffffffffffffff19161480610e1d5750610e1c826124be565b5b9050919050565b6000600360009054906101000a900473ffffffffffffffffffffffffffffffffffffffff16905090565b610e566134db565b6000610e61836123c0565b90506000600560008373ffffffffffffffffffffffffffffffffffffffff1673ffffffffffffffffffffffffffffffffffffffff1681526020019081526020016000206040518060c00160405290816000820160009054906101000a900473ffffffffffffffffffffffffffffffffffffffff1673ffffffffffffffffffffffffffffffffffffffff1673ffffffffffffffffffffffffffffffffffffffff1681526020016000820160149054906101000a900460070b60070b60070b815260200160008201601c9054906101000a900460ff161515151581526020016001820160009054906101000a900473ffffffffffffffffffffffffffffffffffffffff1673ffffffffffffffffffffffffffffffffffffffff1673ffffffffffffffffffffffffffffffffffffffff168152602001600282018054610fa390613f32565b80601f0160208091040260200160405190810160405280929190818152602001828054610fcf90613f32565b801561101c5780601f10610ff15761010080835404028352916020019161101c565b820191906000526020600020905b815481529060010190602001808311610fff57829003601f168201915b5050505050815260200160038201805461103590613f32565b80601f016020809104026020016040519081016040528092919081815260200182805461106190613f32565b80156110ae5780601f10611083576101008083540402835291602001916110ae565b820191906000526020600020905b81548152906001019060200180831161109157829003601f168201915b50505050508152505090508092505050919050565b6110cb6134db565b6000600560008473ffffffffffffffffffffffffffffffffffffffff1673ffffffffffffffffffffffffffffffffffffffff1681526020019081526020016000206040518060c00160405290816000820160009054906101000a900473ffffffffffffffffffffffffffffffffffffffff1673ffffffffffffffffffffffffffffffffffffffff1673ffffffffffffffffffffffffffffffffffffffff1681526020016000820160149054906101000a900460070b60070b60070b815260200160008201601c9054906101000a900460ff161515151581526020016001820160009054906101000a900473ffffffffffffffffffffffffffffffffffffffff1673ffffffffffffffffffffffffffffffffffffffff1673ffffffffffffffffffffffffffffffffffffffff16815260200160028201805461120b90613f32565b80601f016020809104026020016040519081016040528092919081815260200182805461123790613f32565b80156112845780601f1061125957610100808354040283529160200191611284565b820191906000526020600020905b81548152906001019060200180831161126757829003601f168201915b5050505050815260200160038201805461129d90613f32565b80601f01602080910402602001604051908101604052809291908181526020018280546112c990613f32565b80156113165780601f106112eb57610100808354040283529160200191611316565b820191906000526020600020905b8154815290600101906020018083116112f957829003601f168201915b505050505081525050905080915050919050565b7fcea62fe6ecc79e221c545bf918f804693c542ead2549e37c2bb9baa66ee2e15761135481612528565b6000600560008473ffffffffffffffffffffffffffffffffffffffff1673ffffffffffffffffffffffffffffffffffffffff16815260200190815260200160002060000160149054906101000a900460070b90506000600560008573ffffffffffffffffffffffffffffffffffffffff1673ffffffffffffffffffffffffffffffffffffffff16815260200190815260200160002060020180546113f790613f32565b80601f016020809104026020016040519081016040528092919081815260200182805461142390613f32565b80156114705780601f1061144557610100808354040283529160200191611470565b820191906000526020600020905b81548152906001019060200180831161145357829003601f168201915b505050505090506000469050600581146114bf576040517f08c379a00000000000000000000000000000000000000000000000000000000081526004016114b6906141e1565b60405180910390fd5b600560008673ffffffffffffffffffffffffffffffffffffffff1673ffffffffffffffffffffffffffffffffffffffff168152602001908152602001600020600080820160006101000a81549073ffffffffffffffffffffffffffffffffffffffff02191690556000820160146101000a81549067ffffffffffffffff021916905560008201601c6101000a81549060ff02191690556001820160006101000a81549073ffffffffffffffffffffffffffffffffffffffff021916905560028201600061158c919061349b565b60038201600061159c919061349b565b5050600460008460070b60070b815260200190815260200160002060006101000a81549073ffffffffffffffffffffffffffffffffffffffff02191690556006826040516115ea919061409d565b908152602001604051809103902060006101000a81549073ffffffffffffffffffffffffffffffffffffffff02191690557f7f25a59d906bf9fb883c74ad54e4b0e924fb0326f2f946caf2875485585d0fbf838660405161164c9291906140b4565b60405180910390a15050505050565b600060016000838152602001908152602001600020600101549050919050565b6116848261165b565b61168d81612528565b611697838361253c565b505050565b6116a461261c565b73ffffffffffffffffffffffffffffffffffffffff168173ffffffffffffffffffffffffffffffffffffffff1614611711576040517f08c379a000000000000000000000000000000000000000000000000000000000815260040161170890614273565b60405180910390fd5b61171b8282612624565b5050565b7fcea62fe6ecc79e221c545bf918f804693c542ead2549e37c2bb9baa66ee2e15781565b60076020528160005260406000206020528060005260406000206000915091509054906101000a900460ff1681565b6000600254905090565b61178884848484612706565b50505050565b6117978161291d565b50565b60007fcea62fe6ecc79e221c545bf918f804693c542ead2549e37c2bb9baa66ee2e157905090565b6000806117ce836110c3565b90508060200151915050919050565b6000600560003373ffffffffffffffffffffffffffffffffffffffff1673ffffffffffffffffffffffffffffffffffffffff168152602001908152602001600020600001601c9054906101000a900460ff1690506000151581151514611878576040517f08c379a000000000000000000000000000000000000000000000000000000000815260040161186f906142df565b60405180910390fd5b6118813361291d565b50565b61188c612bda565b6118966000612c58565b565b6000600460008360070b60070b815260200190815260200160002060009054906101000a900473ffffffffffffffffffffffffffffffffffffffff169050919050565b60008060009054906101000a900473ffffffffffffffffffffffffffffffffffffffff16905090565b60006001600084815260200190815260200160002060000160008373ffffffffffffffffffffffffffffffffffffffff1673ffffffffffffffffffffffffffffffffffffffff16815260200190815260200160002060009054906101000a900460ff16905092915050565b6000801b81565b6000600682604051611988919061409d565b908152602001604051809103902060009054906101000a900473ffffffffffffffffffffffffffffffffffffffff1690503373ffffffffffffffffffffffffffffffffffffffff168173ffffffffffffffffffffffffffffffffffffffff1614611a27576040517f08c379a0000000000000000000000000000000000000000000000000000000008152600401611a1e9061434b565b60405180910390fd5b6000611a3284611898565b90506000600760008473ffffffffffffffffffffffffffffffffffffffff1673ffffffffffffffffffffffffffffffffffffffff16815260200190815260200160002060008373ffffffffffffffffffffffffffffffffffffffff1673ffffffffffffffffffffffffffffffffffffffff16815260200190815260200160002060009054906101000a900460ff1690506000151581151514611b09576040517f08c379a0000000000000000000000000000000000000000000000000000000008152600401611b00906143b7565b60405180910390fd5b6001600560008473ffffffffffffffffffffffffffffffffffffffff1673ffffffffffffffffffffffffffffffffffffffff168152602001908152602001600020600001601c6101000a81548160ff02191690831515021790555033600560008473ffffffffffffffffffffffffffffffffffffffff1673ffffffffffffffffffffffffffffffffffffffff16815260200190815260200160002060010160006101000a81548173ffffffffffffffffffffffffffffffffffffffff021916908373ffffffffffffffffffffffffffffffffffffffff1602179055506001600760008573ffffffffffffffffffffffffffffffffffffffff1673ffffffffffffffffffffffffffffffffffffffff16815260200190815260200160002060008473ffffffffffffffffffffffffffffffffffffffff1673ffffffffffffffffffffffffffffffffffffffff16815260200190815260200160002060006101000a81548160ff0219169083151502179055508173ffffffffffffffffffffffffffffffffffffffff167fadbeb0a5d66e2be993428864e5c86f7c8aa562e2c58131d193ac2eeb7443817a846001604051611cc39291906143d7565b60405180910390a25050505050565b60003390506002543414611d1b576040517f08c379a0000000000000000000000000000000000000000000000000000000008152600401611d129061444c565b60405180910390fd5b6000600684604051611d2d919061409d565b908152602001604051809103902060009054906101000a900473ffffffffffffffffffffffffffffffffffffffff1690506040518060c001604052808373ffffffffffffffffffffffffffffffffffffffff1681526020018760070b81526020016000151581526020018273ffffffffffffffffffffffffffffffffffffffff16815260200186815260200184815250600560003373ffffffffffffffffffffffffffffffffffffffff1673ffffffffffffffffffffffffffffffffffffffff16815260200190815260200160002060008201518160000160006101000a81548173ffffffffffffffffffffffffffffffffffffffff021916908373ffffffffffffffffffffffffffffffffffffffff16021790555060208201518160000160146101000a81548167ffffffffffffffff021916908360070b67ffffffffffffffff160217905550604082015181600001601c6101000a81548160ff02191690831515021790555060608201518160010160006101000a81548173ffffffffffffffffffffffffffffffffffffffff021916908373ffffffffffffffffffffffffffffffffffffffff1602179055506080820151816002019081611ef19190614618565b5060a0820151816003019081611f079190614618565b509050506000600360009054906101000a900473ffffffffffffffffffffffffffffffffffffffff1673ffffffffffffffffffffffffffffffffffffffff16600254604051611f559061471b565b60006040518083038185875af1925050503d8060008114611f92576040519150601f19603f3d011682016040523d82523d6000602084013e611f97565b606091505b5050905080611fdb576040517f08c379a0000000000000000000000000000000000000000000000000000000008152600401611fd29061477c565b60405180910390fd5b8173ffffffffffffffffffffffffffffffffffffffff167f217213f52d0ada6519b1710cff4d5e622165afded08327f17577ff3c3037136088336040516120239291906140b4565b60405180910390a28173ffffffffffffffffffffffffffffffffffffffff167f2f9961dc36e79933613fb931d5ca8392c911b25840b07276e17e19961d22824088336040516120739291906140b4565b60405180910390a26000600760008473ffffffffffffffffffffffffffffffffffffffff1673ffffffffffffffffffffffffffffffffffffffff16815260200190815260200160002060003373ffffffffffffffffffffffffffffffffffffffff1673ffffffffffffffffffffffffffffffffffffffff16815260200190815260200160002060006101000a81548160ff02191690831515021790555050505050505050565b612124838383612d1c565b505050565b60606000612136836110c3565b905060008160a0015190508092505050919050565b6121536134db565b600061215e83611898565b90506000600560008373ffffffffffffffffffffffffffffffffffffffff1673ffffffffffffffffffffffffffffffffffffffff1681526020019081526020016000206040518060c00160405290816000820160009054906101000a900473ffffffffffffffffffffffffffffffffffffffff1673ffffffffffffffffffffffffffffffffffffffff1673ffffffffffffffffffffffffffffffffffffffff1681526020016000820160149054906101000a900460070b60070b60070b815260200160008201601c9054906101000a900460ff161515151581526020016001820160009054906101000a900473ffffffffffffffffffffffffffffffffffffffff1673ffffffffffffffffffffffffffffffffffffffff1673ffffffffffffffffffffffffffffffffffffffff1681526020016002820180546122a090613f32565b80601f01602080910402602001604051908101604052809291908181526020018280546122cc90613f32565b80156123195780601f106122ee57610100808354040283529160200191612319565b820191906000526020600020905b8154815290600101906020018083116122fc57829003601f168201915b5050505050815260200160038201805461233290613f32565b80601f016020809104026020016040519081016040528092919081815260200182805461235e90613f32565b80156123ab5780601f10612380576101008083540402835291602001916123ab565b820191906000526020600020905b81548152906001019060200180831161238e57829003601f168201915b50505050508152505090508092505050919050565b60006006826040516123d2919061409d565b908152602001604051809103902060009054906101000a900473ffffffffffffffffffffffffffffffffffffffff169050919050565b612410612bda565b8060028190555050565b6124238261165b565b61242c81612528565b6124368383612624565b505050565b612443612bda565b600073ffffffffffffffffffffffffffffffffffffffff168173ffffffffffffffffffffffffffffffffffffffff16036124b2576040517f08c379a00000000000000000000000000000000000000000000000000000000081526004016124a99061480e565b60405180910390fd5b6124bb81612c58565b50565b60007f01ffc9a7000000000000000000000000000000000000000000000000000000007bffffffffffffffffffffffffffffffffffffffffffffffffffffffff1916827bffffffffffffffffffffffffffffffffffffffffffffffffffffffff1916149050919050565b6125398161253461261c565b6131ad565b50565b6125468282611904565b61261857600180600084815260200190815260200160002060000160008373ffffffffffffffffffffffffffffffffffffffff1673ffffffffffffffffffffffffffffffffffffffff16815260200190815260200160002060006101000a81548160ff0219169083151502179055506125bd61261c565b73ffffffffffffffffffffffffffffffffffffffff168173ffffffffffffffffffffffffffffffffffffffff16837f2f8788117e7eff1d82e926ec794901d17c78024a50270940304540a733656f0d60405160405180910390a45b5050565b600033905090565b61262e8282611904565b156127025760006001600084815260200190815260200160002060000160008373ffffffffffffffffffffffffffffffffffffffff1673ffffffffffffffffffffffffffffffffffffffff16815260200190815260200160002060006101000a81548160ff0219169083151502179055506126a761261c565b73ffffffffffffffffffffffffffffffffffffffff168173ffffffffffffffffffffffffffffffffffffffff16837ff6391f5c32d9c69d2a47ea670b442974b53935d1edc7fd64eb21e047a839171b60405160405180910390a45b5050565b600073ffffffffffffffffffffffffffffffffffffffff16600460008660070b60070b815260200190815260200160002060009054906101000a900473ffffffffffffffffffffffffffffffffffffffff1673ffffffffffffffffffffffffffffffffffffffff16146127ae576040517f08c379a00000000000000000000000000000000000000000000000000000000081526004016127a5906148a0565b60405180910390fd5b6000600860009054906101000a900473ffffffffffffffffffffffffffffffffffffffff1673ffffffffffffffffffffffffffffffffffffffff1663a430c74484846040518363ffffffff1660e01b815260040161280d9291906148c0565b602060405180830381865afa15801561282a573d6000803e3d6000fd5b505050506040513d601f19601f8201168201806040525081019061284e9190614923565b9050600115158115151461286157600080fd5b83600460008760070b60070b815260200190815260200160002060006101000a81548173ffffffffffffffffffffffffffffffffffffffff021916908373ffffffffffffffffffffffffffffffffffffffff160217905550836006846040516128ca919061409d565b908152602001604051809103902060006101000a81548173ffffffffffffffffffffffffffffffffffffffff021916908373ffffffffffffffffffffffffffffffffffffffff1602179055505050505050565b6000600560008373ffffffffffffffffffffffffffffffffffffffff1673ffffffffffffffffffffffffffffffffffffffff16815260200190815260200160002060000160149054906101000a900460070b90506000600560008473ffffffffffffffffffffffffffffffffffffffff1673ffffffffffffffffffffffffffffffffffffffff16815260200190815260200160002060020180546129c090613f32565b80601f01602080910402602001604051908101604052809291908181526020018280546129ec90613f32565b8015612a395780601f10612a0e57610100808354040283529160200191612a39565b820191906000526020600020905b815481529060010190602001808311612a1c57829003601f168201915b50505050509050600560008473ffffffffffffffffffffffffffffffffffffffff1673ffffffffffffffffffffffffffffffffffffffff168152602001908152602001600020600080820160006101000a81549073ffffffffffffffffffffffffffffffffffffffff02191690556000820160146101000a81549067ffffffffffffffff021916905560008201601c6101000a81549060ff02191690556001820160006101000a81549073ffffffffffffffffffffffffffffffffffffffff0219169055600282016000612b0d919061349b565b600382016000612b1d919061349b565b5050600460008360070b60070b815260200190815260200160002060006101000a81549073ffffffffffffffffffffffffffffffffffffffff0219169055600681604051612b6b919061409d565b908152602001604051809103902060006101000a81549073ffffffffffffffffffffffffffffffffffffffff02191690557f7f25a59d906bf9fb883c74ad54e4b0e924fb0326f2f946caf2875485585d0fbf8284604051612bcd9291906140b4565b60405180910390a1505050565b612be261261c565b73ffffffffffffffffffffffffffffffffffffffff16612c006118db565b73ffffffffffffffffffffffffffffffffffffffff1614612c56576040517f08c379a0000000000000000000000000000000000000000000000000000000008152600401612c4d9061499c565b60405180910390fd5b565b60008060009054906101000a900473ffffffffffffffffffffffffffffffffffffffff169050816000806101000a81548173ffffffffffffffffffffffffffffffffffffffff021916908373ffffffffffffffffffffffffffffffffffffffff1602179055508173ffffffffffffffffffffffffffffffffffffffff168173ffffffffffffffffffffffffffffffffffffffff167f8be0079c531659141344cd1fd0a4f28419497f9722a3daafe3b4186f6b6457e060405160405180910390a35050565b82600460008460070b60070b815260200190815260200160002060006101000a81548173ffffffffffffffffffffffffffffffffffffffff021916908373ffffffffffffffffffffffffffffffffffffffff160217905550826006604051612d8390614a08565b908152602001604051809103902060006101000a81548173ffffffffffffffffffffffffffffffffffffffff021916908373ffffffffffffffffffffffffffffffffffffffff1602179055506040518060c001604052808473ffffffffffffffffffffffffffffffffffffffff1681526020018360070b81526020016001151581526020018473ffffffffffffffffffffffffffffffffffffffff1681526020016040518060400160405280600481526020017f4164616d00000000000000000000000000000000000000000000000000000000815250815260200182815250600560008573ffffffffffffffffffffffffffffffffffffffff1673ffffffffffffffffffffffffffffffffffffffff16815260200190815260200160002060008201518160000160006101000a81548173ffffffffffffffffffffffffffffffffffffffff021916908373ffffffffffffffffffffffffffffffffffffffff16021790555060208201518160000160146101000a81548167ffffffffffffffff021916908360070b67ffffffffffffffff160217905550604082015181600001601c6101000a81548160ff02191690831515021790555060608201518160010160006101000a81548173ffffffffffffffffffffffffffffffffffffffff021916908373ffffffffffffffffffffffffffffffffffffffff1602179055506080820151816002019081612f979190614618565b5060a0820151816003019081612fad9190614618565b509050506001600560008573ffffffffffffffffffffffffffffffffffffffff1673ffffffffffffffffffffffffffffffffffffffff168152602001908152602001600020600001601c6101000a81548160ff02191690831515021790555033600560008573ffffffffffffffffffffffffffffffffffffffff1673ffffffffffffffffffffffffffffffffffffffff16815260200190815260200160002060010160006101000a81548173ffffffffffffffffffffffffffffffffffffffff021916908373ffffffffffffffffffffffffffffffffffffffff16021790555060006130cd6040518060400160405280600181526020017f30000000000000000000000000000000000000000000000000000000000000008152506123c0565b90506001600760008373ffffffffffffffffffffffffffffffffffffffff1673ffffffffffffffffffffffffffffffffffffffff16815260200190815260200160002060008673ffffffffffffffffffffffffffffffffffffffff1673ffffffffffffffffffffffffffffffffffffffff16815260200190815260200160002060006101000a81548160ff0219169083151502179055508373ffffffffffffffffffffffffffffffffffffffff167f908408e307fc569b417f6cbec5d5a06f44a0a505ac0479b47d421a4b2fd6a1e660405160405180910390a250505050565b6131b78282611904565b61322e576131c481613232565b6131d28360001c602061325f565b6040516020016131e3929190614ab5565b6040516020818303038152906040526040517f08c379a00000000000000000000000000000000000000000000000000000000081526004016132259190613e88565b60405180910390fd5b5050565b60606132588273ffffffffffffffffffffffffffffffffffffffff16601460ff1661325f565b9050919050565b6060600060028360026132729190614b1e565b61327c9190614b60565b67ffffffffffffffff811115613295576132946135f4565b5b6040519080825280601f01601f1916602001820160405280156132c75781602001600182028036833780820191505090505b5090507f3000000000000000000000000000000000000000000000000000000000000000816000815181106132ff576132fe614b94565b5b60200101907effffffffffffffffffffffffffffffffffffffffffffffffffffffffffffff1916908160001a9053507f78000000000000000000000000000000000000000000000000000000000000008160018151811061336357613362614b94565b5b60200101907effffffffffffffffffffffffffffffffffffffffffffffffffffffffffffff1916908160001a905350600060018460026133a39190614b1e565b6133ad9190614b60565b90505b600181111561344d577f3031323334353637383961626364656600000000000000000000000000000000600f8616601081106133ef576133ee614b94565b5b1a60f81b82828151811061340657613405614b94565b5b60200101907effffffffffffffffffffffffffffffffffffffffffffffffffffffffffffff1916908160001a905350600485901c94508061344690614bc3565b90506133b0565b5060008414613491576040517f08c379a000000000000000000000000000000000000000000000000000000000815260040161348890614c38565b60405180910390fd5b8091505092915050565b5080546134a790613f32565b6000825580601f106134b957506134d8565b601f0160209004906000526020600020908101906134d79190613542565b5b50565b6040518060c00160405280600073ffffffffffffffffffffffffffffffffffffffff168152602001600060070b8152602001600015158152602001600073ffffffffffffffffffffffffffffffffffffffff16815260200160608152602001606081525090565b5b8082111561355b576000816000905550600101613543565b5090565b6000604051905090565b600080fd5b600080fd5b60008160070b9050919050565b61358981613573565b811461359457600080fd5b50565b6000813590506135a681613580565b92915050565b6000602082840312156135c2576135c1613569565b5b60006135d084828501613597565b91505092915050565b600080fd5b600080fd5b6000601f19601f8301169050919050565b7f4e487b7100000000000000000000000000000000000000000000000000000000600052604160045260246000fd5b61362c826135e3565b810181811067ffffffffffffffff8211171561364b5761364a6135f4565b5b80604052505050565b600061365e61355f565b905061366a8282613623565b919050565b600067ffffffffffffffff82111561368a576136896135f4565b5b613693826135e3565b9050602081019050919050565b82818337600083830152505050565b60006136c26136bd8461366f565b613654565b9050828152602081018484840111156136de576136dd6135de565b5b6136e98482856136a0565b509392505050565b600082601f830112613706576137056135d9565b5b81356137168482602086016136af565b91505092915050565b6000806040838503121561373657613735613569565b5b600083013567ffffffffffffffff8111156137545761375361356e565b5b613760858286016136f1565b925050602083013567ffffffffffffffff8111156137815761378061356e565b5b61378d858286016136f1565b9150509250929050565b60007fffffffff0000000000000000000000000000000000000000000000000000000082169050919050565b6137cc81613797565b81146137d757600080fd5b50565b6000813590506137e9816137c3565b92915050565b60006020828403121561380557613804613569565b5b6000613813848285016137da565b91505092915050565b60008115159050919050565b6138318161381c565b82525050565b600060208201905061384c6000830184613828565b92915050565b600073ffffffffffffffffffffffffffffffffffffffff82169050919050565b600061387d82613852565b9050919050565b61388d81613872565b82525050565b60006020820190506138a86000830184613884565b92915050565b6000602082840312156138c4576138c3613569565b5b600082013567ffffffffffffffff8111156138e2576138e161356e565b5b6138ee848285016136f1565b91505092915050565b61390081613872565b82525050565b61390f81613573565b82525050565b61391e8161381c565b82525050565b600081519050919050565b600082825260208201905092915050565b60005b8381101561395e578082015181840152602081019050613943565b60008484015250505050565b600061397582613924565b61397f818561392f565b935061398f818560208601613940565b613998816135e3565b840191505092915050565b600060c0830160008301516139bb60008601826138f7565b5060208301516139ce6020860182613906565b5060408301516139e16040860182613915565b5060608301516139f460608601826138f7565b5060808301518482036080860152613a0c828261396a565b91505060a083015184820360a0860152613a26828261396a565b9150508091505092915050565b60006020820190508181036000830152613a4d81846139a3565b905092915050565b613a5e81613872565b8114613a6957600080fd5b50565b600081359050613a7b81613a55565b92915050565b600060208284031215613a9757613a96613569565b5b6000613aa584828501613a6c565b91505092915050565b6000819050919050565b613ac181613aae565b8114613acc57600080fd5b50565b600081359050613ade81613ab8565b92915050565b600060208284031215613afa57613af9613569565b5b6000613b0884828501613acf565b91505092915050565b613b1a81613aae565b82525050565b6000602082019050613b356000830184613b11565b92915050565b60008060408385031215613b5257613b51613569565b5b6000613b6085828601613acf565b9250506020613b7185828601613a6c565b9150509250929050565b60008060408385031215613b9257613b91613569565b5b6000613ba085828601613a6c565b9250506020613bb185828601613a6c565b9150509250929050565b6000819050919050565b613bce81613bbb565b82525050565b6000602082019050613be96000830184613bc5565b92915050565b60008060008060808587031215613c0957613c08613569565b5b6000613c1787828801613597565b9450506020613c2887828801613a6c565b935050604085013567ffffffffffffffff811115613c4957613c4861356e565b5b613c55878288016136f1565b925050606085013567ffffffffffffffff811115613c7657613c7561356e565b5b613c82878288016136f1565b91505092959194509250565b613c9781613573565b82525050565b6000602082019050613cb26000830184613c8e565b92915050565b60008060408385031215613ccf57613cce613569565b5b6000613cdd85828601613597565b925050602083013567ffffffffffffffff811115613cfe57613cfd61356e565b5b613d0a858286016136f1565b9150509250929050565b60008060008060808587031215613d2e57613d2d613569565b5b6000613d3c87828801613597565b945050602085013567ffffffffffffffff811115613d5d57613d5c61356e565b5b613d69878288016136f1565b935050604085013567ffffffffffffffff811115613d8a57613d8961356e565b5b613d96878288016136f1565b925050606085013567ffffffffffffffff811115613db757613db661356e565b5b613dc3878288016136f1565b91505092959194509250565b600080600060608486031215613de857613de7613569565b5b6000613df686828701613a6c565b9350506020613e0786828701613597565b925050604084013567ffffffffffffffff811115613e2857613e2761356e565b5b613e34868287016136f1565b9150509250925092565b600082825260208201905092915050565b6000613e5a82613924565b613e648185613e3e565b9350613e74818560208601613940565b613e7d816135e3565b840191505092915050565b60006020820190508181036000830152613ea28184613e4f565b905092915050565b613eb381613bbb565b8114613ebe57600080fd5b50565b600081359050613ed081613eaa565b92915050565b600060208284031215613eec57613eeb613569565b5b6000613efa84828501613ec1565b91505092915050565b7f4e487b7100000000000000000000000000000000000000000000000000000000600052602260045260246000fd5b60006002820490506001821680613f4a57607f821691505b602082108103613f5d57613f5c613f03565b5b50919050565b7f616c726561647920617070726f766564204f5220646f206e6f7420657869737460008201527f7320796574000000000000000000000000000000000000000000000000000000602082015250565b6000613fbf602583613e3e565b9150613fca82613f63565b604082019050919050565b60006020820190508181036000830152613fee81613fb2565b9050919050565b7f616c7265616479206c696e6b6564204f5220646f6e7420657869737473000000600082015250565b600061402b601d83613e3e565b915061403682613ff5565b602082019050919050565b6000602082019050818103600083015261405a8161401e565b9050919050565b600081905092915050565b600061407782613924565b6140818185614061565b9350614091818560208601613940565b80840191505092915050565b60006140a9828461406c565b915081905092915050565b60006040820190506140c96000830185613c8e565b6140d66020830184613884565b9392505050565b7f757365727320616c6c6f776564206f6e6c7920746f20636c656172207468656d60008201527f73656c6673000000000000000000000000000000000000000000000000000000602082015250565b6000614139602583613e3e565b9150614144826140dd565b604082019050919050565b600060208201905081810360008301526141688161412c565b9050919050565b7f746869732066756e6374696f6e20776f726b2773206f6e6c7920666f7220746560008201527f73746e6574000000000000000000000000000000000000000000000000000000602082015250565b60006141cb602583613e3e565b91506141d68261416f565b604082019050919050565b600060208201905081810360008301526141fa816141be565b9050919050565b7f416363657373436f6e74726f6c3a2063616e206f6e6c792072656e6f756e636560008201527f20726f6c657320666f722073656c660000000000000000000000000000000000602082015250565b600061425d602f83613e3e565b915061426882614201565b604082019050919050565b6000602082019050818103600083015261428c81614250565b9050919050565b7f63616c6c20436c656172506172656e7420666972737400000000000000000000600082015250565b60006142c9601683613e3e565b91506142d482614293565b602082019050919050565b600060208201905081810360008301526142f8816142bc565b9050919050565b7f6f6e6c7920706172656e745f6e616d652063616e206163636570742069740000600082015250565b6000614335601e83613e3e565b9150614340826142ff565b602082019050919050565b6000602082019050818103600083015261436481614328565b9050919050565b7f616c726561647920726567697374726564000000000000000000000000000000600082015250565b60006143a1601183613e3e565b91506143ac8261436b565b602082019050919050565b600060208201905081810360008301526143d081614394565b9050919050565b60006040820190506143ec6000830185613884565b6143f96020830184613828565b9392505050565b7f5265717565737420666565206973206e6f742070616964000000000000000000600082015250565b6000614436601783613e3e565b915061444182614400565b602082019050919050565b6000602082019050818103600083015261446581614429565b9050919050565b60008190508160005260206000209050919050565b60006020601f8301049050919050565b600082821b905092915050565b6000600883026144ce7fffffffffffffffffffffffffffffffffffffffffffffffffffffffffffffffff82614491565b6144d88683614491565b95508019841693508086168417925050509392505050565b6000819050919050565b600061451561451061450b84613bbb565b6144f0565b613bbb565b9050919050565b6000819050919050565b61452f836144fa565b61454361453b8261451c565b84845461449e565b825550505050565b600090565b61455861454b565b614563818484614526565b505050565b5b818110156145875761457c600082614550565b600181019050614569565b5050565b601f8211156145cc5761459d8161446c565b6145a684614481565b810160208510156145b5578190505b6145c96145c185614481565b830182614568565b50505b505050565b600082821c905092915050565b60006145ef600019846008026145d1565b1980831691505092915050565b600061460883836145de565b9150826002028217905092915050565b61462182613924565b67ffffffffffffffff81111561463a576146396135f4565b5b6146448254613f32565b61464f82828561458b565b600060209050601f8311600181146146825760008415614670578287015190505b61467a85826145fc565b8655506146e2565b601f1984166146908661446c565b60005b828110156146b857848901518255600182019150602085019450602081019050614693565b868310156146d557848901516146d1601f8916826145de565b8355505b6001600288020188555050505b505050505050565b600081905092915050565b50565b60006147056000836146ea565b9150614710826146f5565b600082019050919050565b6000614726826146f8565b9150819050919050565b7f556e61626c6520746f207472616e736665722066656500000000000000000000600082015250565b6000614766601683613e3e565b915061477182614730565b602082019050919050565b6000602082019050818103600083015261479581614759565b9050919050565b7f4f776e61626c653a206e6577206f776e657220697320746865207a65726f206160008201527f6464726573730000000000000000000000000000000000000000000000000000602082015250565b60006147f8602683613e3e565b91506148038261479c565b604082019050919050565b60006020820190508181036000830152614827816147eb565b9050919050565b7f5468657265206973206164647265737320636f6e6e656374656420746f20746860008201527f617420544720494420616c726561647900000000000000000000000000000000602082015250565b600061488a603083613e3e565b91506148958261482e565b604082019050919050565b600060208201905081810360008301526148b98161487d565b9050919050565b600060408201905081810360008301526148da8185613e4f565b905081810360208301526148ee8184613e4f565b90509392505050565b6149008161381c565b811461490b57600080fd5b50565b60008151905061491d816148f7565b92915050565b60006020828403121561493957614938613569565b5b60006149478482850161490e565b91505092915050565b7f4f776e61626c653a2063616c6c6572206973206e6f7420746865206f776e6572600082015250565b6000614986602083613e3e565b915061499182614950565b602082019050919050565b600060208201905081810360008301526149b581614979565b9050919050565b7f4164616d00000000000000000000000000000000000000000000000000000000600082015250565b60006149f2600483614061565b91506149fd826149bc565b600482019050919050565b6000614a13826149e5565b9150819050919050565b7f416363657373436f6e74726f6c3a206163636f756e7420000000000000000000600082015250565b6000614a53601783614061565b9150614a5e82614a1d565b601782019050919050565b7f206973206d697373696e6720726f6c6520000000000000000000000000000000600082015250565b6000614a9f601183614061565b9150614aaa82614a69565b601182019050919050565b6000614ac082614a46565b9150614acc828561406c565b9150614ad782614a92565b9150614ae3828461406c565b91508190509392505050565b7f4e487b7100000000000000000000000000000000000000000000000000000000600052601160045260246000fd5b6000614b2982613bbb565b9150614b3483613bbb565b9250828202614b4281613bbb565b91508282048414831517614b5957614b58614aef565b5b5092915050565b6000614b6b82613bbb565b9150614b7683613bbb565b9250828201905080821115614b8e57614b8d614aef565b5b92915050565b7f4e487b7100000000000000000000000000000000000000000000000000000000600052603260045260246000fd5b6000614bce82613bbb565b915060008203614be157614be0614aef565b5b600182039050919050565b7f537472696e67733a20686578206c656e67746820696e73756666696369656e74600082015250565b6000614c22602083613e3e565b9150614c2d82614bec565b602082019050919050565b60006020820190508181036000830152614c5181614c15565b905091905056fea2646970667358221220cb360e6d8a2a4832bd95f75e45b3e6dd8c776943c1d0792b9100fe70af7acc7264736f6c634300081100337a6a58436a3969757365336748476141494967796169434f734a705157534345424261632f7a50477267513d",
  "linkReferences": {},
  "deployedLinkReferences": {}
}