{
  "_format": "hh-sol-artifact-1",
  "contractName": "Dictionary",
  "sourceName": "contracts/Dictionary.sol",
  "abi": [
    {
      "inputs": [],
      "stateMutability": "nonpayable",
      "type": "constructor"
    },
    {
      "inputs": [
        {
          "internalType": "uint256",
          "name": "",
          "type": "uint256"
        }
      ],
      "name": "Capitals",
      "outputs": [
        {
          "internalType": "string",
          "name": "",
          "type": "string"
        }
      ],
      "stateMutability": "view",
      "type": "function"
    },
    {
      "inputs": [
        {
          "internalType": "string",
          "name": "",
          "type": "string"
        }
      ],
      "name": "Cusror",
      "outputs": [
        {
          "internalType": "uint256",
          "name": "",
          "type": "uint256"
        }
      ],
      "stateMutability": "view",
      "type": "function"
    },
    {
      "inputs": [
        {
          "internalType": "uint256",
          "name": "input",
          "type": "uint256"
        }
      ],
      "name": "GetCapitalByCursor",
      "outputs": [
        {
          "internalType": "string",
          "name": "",
          "type": "string"
        }
      ],
      "stateMutability": "view",
      "type": "function"
    },
    {
      "inputs": [
        {
          "internalType": "string",
          "name": "code_name",
          "type": "string"
        }
      ],
      "name": "GetCapitalFromString",
      "outputs": [
        {
          "internalType": "string",
          "name": "",
          "type": "string"
        }
      ],
      "stateMutability": "pure",
      "type": "function"
    },
    {
      "inputs": [
        {
          "internalType": "string",
          "name": "input",
          "type": "string"
        }
      ],
      "name": "GetCursorByCapital",
      "outputs": [
        {
          "internalType": "uint256",
          "name": "",
          "type": "uint256"
        }
      ],
      "stateMutability": "view",
      "type": "function"
    },
    {
      "inputs": [
        {
          "internalType": "string",
          "name": "str",
          "type": "string"
        },
        {
          "internalType": "uint256",
          "name": "startIndex",
          "type": "uint256"
        },
        {
          "internalType": "uint256",
          "name": "endIndex",
          "type": "uint256"
        }
      ],
      "name": "Substring",
      "outputs": [
        {
          "internalType": "string",
          "name": "",
          "type": "string"
        }
      ],
      "stateMutability": "pure",
      "type": "function"
    },
    {
      "inputs": [
        {
          "internalType": "string",
          "name": "requested_name",
          "type": "string"
        },
        {
          "internalType": "string",
          "name": "parent_name",
          "type": "string"
        }
      ],
      "name": "checkDictionaryTree",
      "outputs": [
        {
          "internalType": "bool",
          "name": "",
          "type": "bool"
        }
      ],
      "stateMutability": "view",
      "type": "function"
    },
    {
      "inputs": [],
      "name": "range_max",
      "outputs": [
        {
          "internalType": "uint256",
          "name": "",
          "type": "uint256"
        }
      ],
      "stateMutability": "view",
      "type": "function"
    }
  ],
  "bytecode": "0x60806040526040518061034001604052806040518060400160405280600181526020017f410000000000000000000000000000000000000000000000000000000000000081525081526020016040518060400160405280600181526020017f420000000000000000000000000000000000000000000000000000000000000081525081526020016040518060400160405280600181526020017f430000000000000000000000000000000000000000000000000000000000000081525081526020016040518060400160405280600181526020017f440000000000000000000000000000000000000000000000000000000000000081525081526020016040518060400160405280600181526020017f450000000000000000000000000000000000000000000000000000000000000081525081526020016040518060400160405280600181526020017f460000000000000000000000000000000000000000000000000000000000000081525081526020016040518060400160405280600181526020017f470000000000000000000000000000000000000000000000000000000000000081525081526020016040518060400160405280600181526020017f480000000000000000000000000000000000000000000000000000000000000081525081526020016040518060400160405280600181526020017f490000000000000000000000000000000000000000000000000000000000000081525081526020016040518060400160405280600181526020017f4a0000000000000000000000000000000000000000000000000000000000000081525081526020016040518060400160405280600181526020017f4b0000000000000000000000000000000000000000000000000000000000000081525081526020016040518060400160405280600181526020017f4c0000000000000000000000000000000000000000000000000000000000000081525081526020016040518060400160405280600181526020017f4d0000000000000000000000000000000000000000000000000000000000000081525081526020016040518060400160405280600181526020017f4e0000000000000000000000000000000000000000000000000000000000000081525081526020016040518060400160405280600181526020017f4f0000000000000000000000000000000000000000000000000000000000000081525081526020016040518060400160405280600181526020017f500000000000000000000000000000000000000000000000000000000000000081525081526020016040518060400160405280600181526020017f510000000000000000000000000000000000000000000000000000000000000081525081526020016040518060400160405280600181526020017f520000000000000000000000000000000000000000000000000000000000000081525081526020016040518060400160405280600181526020017f530000000000000000000000000000000000000000000000000000000000000081525081526020016040518060400160405280600181526020017f540000000000000000000000000000000000000000000000000000000000000081525081526020016040518060400160405280600181526020017f550000000000000000000000000000000000000000000000000000000000000081525081526020016040518060400160405280600181526020017f560000000000000000000000000000000000000000000000000000000000000081525081526020016040518060400160405280600181526020017f570000000000000000000000000000000000000000000000000000000000000081525081526020016040518060400160405280600181526020017f580000000000000000000000000000000000000000000000000000000000000081525081526020016040518060400160405280600181526020017f590000000000000000000000000000000000000000000000000000000000000081525081526020016040518060400160405280600181526020017f5a00000000000000000000000000000000000000000000000000000000000000815250815250600090601a6200061e929190620006a8565b506000805490506001553480156200063557600080fd5b5062000c54565b600080549050811015620006a5578060026000838154811062000664576200066362000795565b5b906000526020600020016040516200067d9190620008d7565b90815260200160405180910390208190555080806200069c9062000929565b9150506200063c565b50565b828054828255906000526020600020908101928215620006f5579160200282015b82811115620006f4578251829081620006e3919062000b6d565b5091602001919060010190620006c9565b5b50905062000704919062000708565b5090565b5b808211156200072c576000818162000722919062000730565b5060010162000709565b5090565b5080546200073e90620007f3565b6000825580601f1062000752575062000773565b601f01602090049060005260206000209081019062000772919062000776565b5b50565b5b808211156200079157600081600090555060010162000777565b5090565b7f4e487b7100000000000000000000000000000000000000000000000000000000600052603260045260246000fd5b7f4e487b7100000000000000000000000000000000000000000000000000000000600052602260045260246000fd5b600060028204905060018216806200080c57607f821691505b602082108103620008225762000821620007c4565b5b50919050565b600081905092915050565b60008190508160005260206000209050919050565b600081546200085781620007f3565b62000863818662000828565b945060018216600081146200088157600181146200089757620008ce565b60ff1983168652811515820286019350620008ce565b620008a28562000833565b60005b83811015620008c657815481890152600182019150602081019050620008a5565b838801955050505b50505092915050565b6000620008e5828462000848565b915081905092915050565b7f4e487b7100000000000000000000000000000000000000000000000000000000600052601160045260246000fd5b6000819050919050565b600062000936826200091f565b91507fffffffffffffffffffffffffffffffffffffffffffffffffffffffffffffffff82036200096b576200096a620008f0565b5b600182019050919050565b600081519050919050565b7f4e487b7100000000000000000000000000000000000000000000000000000000600052604160045260246000fd5b60006020601f8301049050919050565b600082821b905092915050565b600060088302620009ff7fffffffffffffffffffffffffffffffffffffffffffffffffffffffffffffffff82620009c0565b62000a0b8683620009c0565b95508019841693508086168417925050509392505050565b6000819050919050565b600062000a4e62000a4862000a42846200091f565b62000a23565b6200091f565b9050919050565b6000819050919050565b62000a6a8362000a2d565b62000a8262000a798262000a55565b848454620009cd565b825550505050565b600090565b62000a9962000a8a565b62000aa681848462000a5f565b505050565b5b8181101562000ace5762000ac260008262000a8f565b60018101905062000aac565b5050565b601f82111562000b1d5762000ae78162000833565b62000af284620009b0565b8101602085101562000b02578190505b62000b1a62000b1185620009b0565b83018262000aab565b50505b505050565b600082821c905092915050565b600062000b426000198460080262000b22565b1980831691505092915050565b600062000b5d838362000b2f565b9150826002028217905092915050565b62000b788262000976565b67ffffffffffffffff81111562000b945762000b9362000981565b5b62000ba08254620007f3565b62000bad82828562000ad2565b600060209050601f83116001811462000be5576000841562000bd0578287015190505b62000bdc858262000b4f565b86555062000c4c565b601f19841662000bf58662000833565b60005b8281101562000c1f5784890151825560018201915060208501945060208101905062000bf8565b8683101562000c3f578489015162000c3b601f89168262000b2f565b8355505b6001600288020188555050505b505050505050565b610d1e8062000c646000396000f3fe608060405234801561001057600080fd5b50600436106100885760003560e01c80638878a71f1161005b5780638878a71f1461014d578063a430c7441461016b578063ac65d26c1461019b578063ca260ae8146101cb57610088565b80630d0313bb1461008d5780631efe0f6a146100bd5780632e835349146100ed578063798a106a1461011d575b600080fd5b6100a760048036038101906100a2919061061c565b6101fb565b6040516100b491906106d9565b60405180910390f35b6100d760048036038101906100d29190610830565b6102a7565b6040516100e49190610888565b60405180910390f35b61010760048036038101906101029190610830565b6102d5565b6040516101149190610888565b60405180910390f35b61013760048036038101906101329190610830565b610302565b60405161014491906106d9565b60405180910390f35b61015561031e565b6040516101629190610888565b60405180910390f35b610185600480360381019061018091906108a3565b610324565b6040516101929190610936565b60405180910390f35b6101b560048036038101906101b0919061061c565b6103bb565b6040516101c291906106d9565b60405180910390f35b6101e560048036038101906101e09190610951565b610470565b6040516101f291906106d9565b60405180910390f35b6000818154811061020b57600080fd5b906000526020600020016000915090508054610226906109ef565b80601f0160208091040260200160405190810160405280929190818152602001828054610252906109ef565b801561029f5780601f106102745761010080835404028352916020019161029f565b820191906000526020600020905b81548152906001019060200180831161028257829003601f168201915b505050505081565b6002818051602081018201805184825260208301602085012081835280955050505050506000915090505481565b6000806002836040516102e89190610a5c565b908152602001604051809103902054905080915050919050565b606060006103138360006001610470565b905080915050919050565b60015481565b60008061033084610302565b9050600061033d84610302565b9050600061034a836102d5565b90506000610357836102d5565b905060006001826103689190610aa2565b90508083146103ac576040517f08c379a00000000000000000000000000000000000000000000000000000000081526004016103a390610b6e565b60405180910390fd5b60019550505050505092915050565b606060008083815481106103d2576103d1610b8e565b5b9060005260206000200180546103e7906109ef565b80601f0160208091040260200160405190810160405280929190818152602001828054610413906109ef565b80156104605780601f1061043557610100808354040283529160200191610460565b820191906000526020600020905b81548152906001019060200180831161044357829003601f168201915b5050505050905080915050919050565b60606000849050600084846104859190610bbd565b67ffffffffffffffff81111561049e5761049d610705565b5b6040519080825280601f01601f1916602001820160405280156104d05781602001600182028036833780820191505090505b50905060008590505b8481101561055f578281815181106104f4576104f3610b8e565b5b602001015160f81c60f81b82878361050c9190610bbd565b8151811061051d5761051c610b8e565b5b60200101907effffffffffffffffffffffffffffffffffffffffffffffffffffffffffffff1916908160001a905350808061055790610bf1565b9150506104d9565b5080925050509392505050565b60005b6000805490508110156105cf578060026000838154811061059357610592610b8e565b5b906000526020600020016040516105aa9190610cd1565b90815260200160405180910390208190555080806105c790610bf1565b91505061056f565b50565b6000604051905090565b600080fd5b600080fd5b6000819050919050565b6105f9816105e6565b811461060457600080fd5b50565b600081359050610616816105f0565b92915050565b600060208284031215610632576106316105dc565b5b600061064084828501610607565b91505092915050565b600081519050919050565b600082825260208201905092915050565b60005b83811015610683578082015181840152602081019050610668565b60008484015250505050565b6000601f19601f8301169050919050565b60006106ab82610649565b6106b58185610654565b93506106c5818560208601610665565b6106ce8161068f565b840191505092915050565b600060208201905081810360008301526106f381846106a0565b905092915050565b600080fd5b600080fd5b7f4e487b7100000000000000000000000000000000000000000000000000000000600052604160045260246000fd5b61073d8261068f565b810181811067ffffffffffffffff8211171561075c5761075b610705565b5b80604052505050565b600061076f6105d2565b905061077b8282610734565b919050565b600067ffffffffffffffff82111561079b5761079a610705565b5b6107a48261068f565b9050602081019050919050565b82818337600083830152505050565b60006107d36107ce84610780565b610765565b9050828152602081018484840111156107ef576107ee610700565b5b6107fa8482856107b1565b509392505050565b600082601f830112610817576108166106fb565b5b81356108278482602086016107c0565b91505092915050565b600060208284031215610846576108456105dc565b5b600082013567ffffffffffffffff811115610864576108636105e1565b5b61087084828501610802565b91505092915050565b610882816105e6565b82525050565b600060208201905061089d6000830184610879565b92915050565b600080604083850312156108ba576108b96105dc565b5b600083013567ffffffffffffffff8111156108d8576108d76105e1565b5b6108e485828601610802565b925050602083013567ffffffffffffffff811115610905576109046105e1565b5b61091185828601610802565b9150509250929050565b60008115159050919050565b6109308161091b565b82525050565b600060208201905061094b6000830184610927565b92915050565b60008060006060848603121561096a576109696105dc565b5b600084013567ffffffffffffffff811115610988576109876105e1565b5b61099486828701610802565b93505060206109a586828701610607565b92505060406109b686828701610607565b9150509250925092565b7f4e487b7100000000000000000000000000000000000000000000000000000000600052602260045260246000fd5b60006002820490506001821680610a0757607f821691505b602082108103610a1a57610a196109c0565b5b50919050565b600081905092915050565b6000610a3682610649565b610a408185610a20565b9350610a50818560208601610665565b80840191505092915050565b6000610a688284610a2b565b915081905092915050565b7f4e487b7100000000000000000000000000000000000000000000000000000000600052601160045260246000fd5b6000610aad826105e6565b9150610ab8836105e6565b9250828201905080821115610ad057610acf610a73565b5b92915050565b7f204368696c6472656e5f6e616d6520213d20706172656e745f6e616d652b312c60008201527f207265706c616365206361706974616c206f6620796f757220636f64656e616d60208201527f65202b3100000000000000000000000000000000000000000000000000000000604082015250565b6000610b58604483610654565b9150610b6382610ad6565b606082019050919050565b60006020820190508181036000830152610b8781610b4b565b9050919050565b7f4e487b7100000000000000000000000000000000000000000000000000000000600052603260045260246000fd5b6000610bc8826105e6565b9150610bd3836105e6565b9250828203905081811115610beb57610bea610a73565b5b92915050565b6000610bfc826105e6565b91507fffffffffffffffffffffffffffffffffffffffffffffffffffffffffffffffff8203610c2e57610c2d610a73565b5b600182019050919050565b60008190508160005260206000209050919050565b60008154610c5b816109ef565b610c658186610a20565b94506001821660008114610c805760018114610c9557610cc8565b60ff1983168652811515820286019350610cc8565b610c9e85610c39565b60005b83811015610cc057815481890152600182019150602081019050610ca1565b838801955050505b50505092915050565b6000610cdd8284610c4e565b91508190509291505056fea26469706673582212205e56263753c854a432dc9535a0603d920dbbe87ac7fde5f062a08aef73ea2fab64736f6c63430008110033",
  "linkReferences": {},
  "deployedLinkReferences": {}
}