{
  "_format": "hh-sol-artifact-1",
  "contractName": "Dictionary",
  "sourceName": "contracts/Dictionary.sol",
  "abi": [
    {
      "inputs": [],
      "stateMutability": "nonpayable",
      "type": "constructor"
    },
    {
      "inputs": [
        {
          "internalType": "uint256",
          "name": "",
          "type": "uint256"
        }
      ],
      "name": "Capitals",
      "outputs": [
        {
          "internalType": "string",
          "name": "",
          "type": "string"
        }
      ],
      "stateMutability": "view",
      "type": "function"
    },
    {
      "inputs": [
        {
          "internalType": "string",
          "name": "",
          "type": "string"
        }
      ],
      "name": "Cusror",
      "outputs": [
        {
          "internalType": "uint256",
          "name": "",
          "type": "uint256"
        }
      ],
      "stateMutability": "view",
      "type": "function"
    },
    {
      "inputs": [
        {
          "internalType": "uint256",
          "name": "input",
          "type": "uint256"
        }
      ],
      "name": "GetCapitalByCursor",
      "outputs": [
        {
          "internalType": "string",
          "name": "",
          "type": "string"
        }
      ],
      "stateMutability": "view",
      "type": "function"
    },
    {
      "inputs": [
        {
          "internalType": "string",
          "name": "code_name",
          "type": "string"
        }
      ],
      "name": "GetCapitalFromString",
      "outputs": [
        {
          "internalType": "string",
          "name": "",
          "type": "string"
        }
      ],
      "stateMutability": "pure",
      "type": "function"
    },
    {
      "inputs": [
        {
          "internalType": "string",
          "name": "input",
          "type": "string"
        }
      ],
      "name": "GetCursorByCapital",
      "outputs": [
        {
          "internalType": "uint256",
          "name": "",
          "type": "uint256"
        }
      ],
      "stateMutability": "view",
      "type": "function"
    },
    {
      "inputs": [
        {
          "internalType": "string",
          "name": "str",
          "type": "string"
        },
        {
          "internalType": "uint256",
          "name": "startIndex",
          "type": "uint256"
        },
        {
          "internalType": "uint256",
          "name": "endIndex",
          "type": "uint256"
        }
      ],
      "name": "Substring",
      "outputs": [
        {
          "internalType": "string",
          "name": "",
          "type": "string"
        }
      ],
      "stateMutability": "pure",
      "type": "function"
    },
    {
      "inputs": [
        {
          "internalType": "string",
          "name": "requested_name",
          "type": "string"
        },
        {
          "internalType": "string",
          "name": "parent_name",
          "type": "string"
        }
      ],
      "name": "checkDictionaryTree",
      "outputs": [
        {
          "internalType": "bool",
          "name": "",
          "type": "bool"
        }
      ],
      "stateMutability": "view",
      "type": "function"
    },
    {
      "inputs": [],
      "name": "range_max",
      "outputs": [
        {
          "internalType": "uint256",
          "name": "",
          "type": "uint256"
        }
      ],
      "stateMutability": "view",
      "type": "function"
    }
  ],
  "bytecode": "0x60806040526040518061034001604052806040518060400160405280600181526020017f410000000000000000000000000000000000000000000000000000000000000081525081526020016040518060400160405280600181526020017f420000000000000000000000000000000000000000000000000000000000000081525081526020016040518060400160405280600181526020017f430000000000000000000000000000000000000000000000000000000000000081525081526020016040518060400160405280600181526020017f440000000000000000000000000000000000000000000000000000000000000081525081526020016040518060400160405280600181526020017f450000000000000000000000000000000000000000000000000000000000000081525081526020016040518060400160405280600181526020017f460000000000000000000000000000000000000000000000000000000000000081525081526020016040518060400160405280600181526020017f470000000000000000000000000000000000000000000000000000000000000081525081526020016040518060400160405280600181526020017f480000000000000000000000000000000000000000000000000000000000000081525081526020016040518060400160405280600181526020017f490000000000000000000000000000000000000000000000000000000000000081525081526020016040518060400160405280600181526020017f4a0000000000000000000000000000000000000000000000000000000000000081525081526020016040518060400160405280600181526020017f4b0000000000000000000000000000000000000000000000000000000000000081525081526020016040518060400160405280600181526020017f4c0000000000000000000000000000000000000000000000000000000000000081525081526020016040518060400160405280600181526020017f4d0000000000000000000000000000000000000000000000000000000000000081525081526020016040518060400160405280600181526020017f4e0000000000000000000000000000000000000000000000000000000000000081525081526020016040518060400160405280600181526020017f4f0000000000000000000000000000000000000000000000000000000000000081525081526020016040518060400160405280600181526020017f500000000000000000000000000000000000000000000000000000000000000081525081526020016040518060400160405280600181526020017f510000000000000000000000000000000000000000000000000000000000000081525081526020016040518060400160405280600181526020017f520000000000000000000000000000000000000000000000000000000000000081525081526020016040518060400160405280600181526020017f530000000000000000000000000000000000000000000000000000000000000081525081526020016040518060400160405280600181526020017f540000000000000000000000000000000000000000000000000000000000000081525081526020016040518060400160405280600181526020017f550000000000000000000000000000000000000000000000000000000000000081525081526020016040518060400160405280600181526020017f560000000000000000000000000000000000000000000000000000000000000081525081526020016040518060400160405280600181526020017f570000000000000000000000000000000000000000000000000000000000000081525081526020016040518060400160405280600181526020017f580000000000000000000000000000000000000000000000000000000000000081525081526020016040518060400160405280600181526020017f590000000000000000000000000000000000000000000000000000000000000081525081526020016040518060400160405280600181526020017f5a00000000000000000000000000000000000000000000000000000000000000815250815250600090601a6200061e929190620006bb565b506000805490506001553480156200063557600080fd5b50620006466200064c60201b60201c565b62000c67565b60005b600080549050811015620006b85780600260008381548110620006775762000676620007a8565b5b90600052602060002001604051620006909190620008ea565b9081526020016040518091039020819055508080620006af906200093c565b9150506200064f565b50565b82805482825590600052602060002090810192821562000708579160200282015b8281111562000707578251829081620006f6919062000b80565b5091602001919060010190620006dc565b5b5090506200071791906200071b565b5090565b5b808211156200073f576000818162000735919062000743565b506001016200071c565b5090565b508054620007519062000806565b6000825580601f1062000765575062000786565b601f01602090049060005260206000209081019062000785919062000789565b5b50565b5b80821115620007a45760008160009055506001016200078a565b5090565b7f4e487b7100000000000000000000000000000000000000000000000000000000600052603260045260246000fd5b7f4e487b7100000000000000000000000000000000000000000000000000000000600052602260045260246000fd5b600060028204905060018216806200081f57607f821691505b602082108103620008355762000834620007d7565b5b50919050565b600081905092915050565b60008190508160005260206000209050919050565b600081546200086a8162000806565b6200087681866200083b565b94506001821660008114620008945760018114620008aa57620008e1565b60ff1983168652811515820286019350620008e1565b620008b58562000846565b60005b83811015620008d957815481890152600182019150602081019050620008b8565b838801955050505b50505092915050565b6000620008f882846200085b565b915081905092915050565b7f4e487b7100000000000000000000000000000000000000000000000000000000600052601160045260246000fd5b6000819050919050565b6000620009498262000932565b91507fffffffffffffffffffffffffffffffffffffffffffffffffffffffffffffffff82036200097e576200097d62000903565b5b600182019050919050565b600081519050919050565b7f4e487b7100000000000000000000000000000000000000000000000000000000600052604160045260246000fd5b60006020601f8301049050919050565b600082821b905092915050565b60006008830262000a127fffffffffffffffffffffffffffffffffffffffffffffffffffffffffffffffff82620009d3565b62000a1e8683620009d3565b95508019841693508086168417925050509392505050565b6000819050919050565b600062000a6162000a5b62000a558462000932565b62000a36565b62000932565b9050919050565b6000819050919050565b62000a7d8362000a40565b62000a9562000a8c8262000a68565b848454620009e0565b825550505050565b600090565b62000aac62000a9d565b62000ab981848462000a72565b505050565b5b8181101562000ae15762000ad560008262000aa2565b60018101905062000abf565b5050565b601f82111562000b305762000afa8162000846565b62000b0584620009c3565b8101602085101562000b15578190505b62000b2d62000b2485620009c3565b83018262000abe565b50505b505050565b600082821c905092915050565b600062000b556000198460080262000b35565b1980831691505092915050565b600062000b70838362000b42565b9150826002028217905092915050565b62000b8b8262000989565b67ffffffffffffffff81111562000ba75762000ba662000994565b5b62000bb3825462000806565b62000bc082828562000ae5565b600060209050601f83116001811462000bf8576000841562000be3578287015190505b62000bef858262000b62565b86555062000c5f565b601f19841662000c088662000846565b60005b8281101562000c325784890151825560018201915060208501945060208101905062000c0b565b8683101562000c52578489015162000c4e601f89168262000b42565b8355505b6001600288020188555050505b505050505050565b610c098062000c776000396000f3fe608060405234801561001057600080fd5b50600436106100885760003560e01c80638878a71f1161005b5780638878a71f1461014d578063a430c7441461016b578063ac65d26c1461019b578063ca260ae8146101cb57610088565b80630d0313bb1461008d5780631efe0f6a146100bd5780632e835349146100ed578063798a106a1461011d575b600080fd5b6100a760048036038101906100a291906105b6565b6101fb565b6040516100b49190610673565b60405180910390f35b6100d760048036038101906100d291906107ca565b6102a7565b6040516100e49190610822565b60405180910390f35b610107600480360381019061010291906107ca565b6102d5565b6040516101149190610822565b60405180910390f35b610137600480360381019061013291906107ca565b610302565b6040516101449190610673565b60405180910390f35b61015561031e565b6040516101629190610822565b60405180910390f35b6101856004803603810190610180919061083d565b610324565b60405161019291906108d0565b60405180910390f35b6101b560048036038101906101b091906105b6565b6103bb565b6040516101c29190610673565b60405180910390f35b6101e560048036038101906101e091906108eb565b610470565b6040516101f29190610673565b60405180910390f35b6000818154811061020b57600080fd5b90600052602060002001600091509050805461022690610989565b80601f016020809104026020016040519081016040528092919081815260200182805461025290610989565b801561029f5780601f106102745761010080835404028352916020019161029f565b820191906000526020600020905b81548152906001019060200180831161028257829003601f168201915b505050505081565b6002818051602081018201805184825260208301602085012081835280955050505050506000915090505481565b6000806002836040516102e891906109f6565b908152602001604051809103902054905080915050919050565b606060006103138360006001610470565b905080915050919050565b60015481565b60008061033084610302565b9050600061033d84610302565b9050600061034a836102d5565b90506000610357836102d5565b905060006001826103689190610a3c565b90508083146103ac576040517f08c379a00000000000000000000000000000000000000000000000000000000081526004016103a390610b08565b60405180910390fd5b60019550505050505092915050565b606060008083815481106103d2576103d1610b28565b5b9060005260206000200180546103e790610989565b80601f016020809104026020016040519081016040528092919081815260200182805461041390610989565b80156104605780601f1061043557610100808354040283529160200191610460565b820191906000526020600020905b81548152906001019060200180831161044357829003601f168201915b5050505050905080915050919050565b60606000849050600084846104859190610b57565b67ffffffffffffffff81111561049e5761049d61069f565b5b6040519080825280601f01601f1916602001820160405280156104d05781602001600182028036833780820191505090505b50905060008590505b8481101561055f578281815181106104f4576104f3610b28565b5b602001015160f81c60f81b82878361050c9190610b57565b8151811061051d5761051c610b28565b5b60200101907effffffffffffffffffffffffffffffffffffffffffffffffffffffffffffff1916908160001a905350808061055790610b8b565b9150506104d9565b5080925050509392505050565b6000604051905090565b600080fd5b600080fd5b6000819050919050565b61059381610580565b811461059e57600080fd5b50565b6000813590506105b08161058a565b92915050565b6000602082840312156105cc576105cb610576565b5b60006105da848285016105a1565b91505092915050565b600081519050919050565b600082825260208201905092915050565b60005b8381101561061d578082015181840152602081019050610602565b60008484015250505050565b6000601f19601f8301169050919050565b6000610645826105e3565b61064f81856105ee565b935061065f8185602086016105ff565b61066881610629565b840191505092915050565b6000602082019050818103600083015261068d818461063a565b905092915050565b600080fd5b600080fd5b7f4e487b7100000000000000000000000000000000000000000000000000000000600052604160045260246000fd5b6106d782610629565b810181811067ffffffffffffffff821117156106f6576106f561069f565b5b80604052505050565b600061070961056c565b905061071582826106ce565b919050565b600067ffffffffffffffff8211156107355761073461069f565b5b61073e82610629565b9050602081019050919050565b82818337600083830152505050565b600061076d6107688461071a565b6106ff565b9050828152602081018484840111156107895761078861069a565b5b61079484828561074b565b509392505050565b600082601f8301126107b1576107b0610695565b5b81356107c184826020860161075a565b91505092915050565b6000602082840312156107e0576107df610576565b5b600082013567ffffffffffffffff8111156107fe576107fd61057b565b5b61080a8482850161079c565b91505092915050565b61081c81610580565b82525050565b60006020820190506108376000830184610813565b92915050565b6000806040838503121561085457610853610576565b5b600083013567ffffffffffffffff8111156108725761087161057b565b5b61087e8582860161079c565b925050602083013567ffffffffffffffff81111561089f5761089e61057b565b5b6108ab8582860161079c565b9150509250929050565b60008115159050919050565b6108ca816108b5565b82525050565b60006020820190506108e560008301846108c1565b92915050565b60008060006060848603121561090457610903610576565b5b600084013567ffffffffffffffff8111156109225761092161057b565b5b61092e8682870161079c565b935050602061093f868287016105a1565b9250506040610950868287016105a1565b9150509250925092565b7f4e487b7100000000000000000000000000000000000000000000000000000000600052602260045260246000fd5b600060028204905060018216806109a157607f821691505b6020821081036109b4576109b361095a565b5b50919050565b600081905092915050565b60006109d0826105e3565b6109da81856109ba565b93506109ea8185602086016105ff565b80840191505092915050565b6000610a0282846109c5565b915081905092915050565b7f4e487b7100000000000000000000000000000000000000000000000000000000600052601160045260246000fd5b6000610a4782610580565b9150610a5283610580565b9250828201905080821115610a6a57610a69610a0d565b5b92915050565b7f204368696c6472656e5f6e616d6520213d20706172656e745f6e616d652b312c60008201527f207265706c616365206361706974616c206f6620796f757220636f64656e616d60208201527f65202b3100000000000000000000000000000000000000000000000000000000604082015250565b6000610af26044836105ee565b9150610afd82610a70565b606082019050919050565b60006020820190508181036000830152610b2181610ae5565b9050919050565b7f4e487b7100000000000000000000000000000000000000000000000000000000600052603260045260246000fd5b6000610b6282610580565b9150610b6d83610580565b9250828203905081811115610b8557610b84610a0d565b5b92915050565b6000610b9682610580565b91507fffffffffffffffffffffffffffffffffffffffffffffffffffffffffffffffff8203610bc857610bc7610a0d565b5b60018201905091905056fea2646970667358221220e3c10a6079663cf6ed7dbc2b1dc81879cc8b49480dc00f1c3f984c4b54707a4b64736f6c63430008110033",
  "linkReferences": {},
  "deployedLinkReferences": {}
}