{
  "_format": "hh-sol-artifact-1",
  "contractName": "TGPassport",
  "sourceName": "contracts/retrospective/TGPassport.sol",
  "abi": [
    {
      "inputs": [],
      "stateMutability": "nonpayable",
      "type": "constructor"
    },
    {
      "anonymous": false,
      "inputs": [
        {
          "indexed": true,
          "internalType": "address",
          "name": "previousOwner",
          "type": "address"
        },
        {
          "indexed": true,
          "internalType": "address",
          "name": "newOwner",
          "type": "address"
        }
      ],
      "name": "OwnershipTransferred",
      "type": "event"
    },
    {
      "anonymous": false,
      "inputs": [
        {
          "indexed": true,
          "internalType": "bytes32",
          "name": "role",
          "type": "bytes32"
        },
        {
          "indexed": true,
          "internalType": "bytes32",
          "name": "previousAdminRole",
          "type": "bytes32"
        },
        {
          "indexed": true,
          "internalType": "bytes32",
          "name": "newAdminRole",
          "type": "bytes32"
        }
      ],
      "name": "RoleAdminChanged",
      "type": "event"
    },
    {
      "anonymous": false,
      "inputs": [
        {
          "indexed": true,
          "internalType": "bytes32",
          "name": "role",
          "type": "bytes32"
        },
        {
          "indexed": true,
          "internalType": "address",
          "name": "account",
          "type": "address"
        },
        {
          "indexed": true,
          "internalType": "address",
          "name": "sender",
          "type": "address"
        }
      ],
      "name": "RoleGranted",
      "type": "event"
    },
    {
      "anonymous": false,
      "inputs": [
        {
          "indexed": true,
          "internalType": "bytes32",
          "name": "role",
          "type": "bytes32"
        },
        {
          "indexed": true,
          "internalType": "address",
          "name": "account",
          "type": "address"
        },
        {
          "indexed": true,
          "internalType": "address",
          "name": "sender",
          "type": "address"
        }
      ],
      "name": "RoleRevoked",
      "type": "event"
    },
    {
      "anonymous": false,
      "inputs": [
        {
          "indexed": false,
          "internalType": "int64",
          "name": "from",
          "type": "int64"
        },
        {
          "indexed": true,
          "internalType": "int64",
          "name": "to",
          "type": "int64"
        },
        {
          "indexed": false,
          "internalType": "bool",
          "name": "trust",
          "type": "bool"
        }
      ],
      "name": "TrustChanged",
      "type": "event"
    },
    {
      "anonymous": false,
      "inputs": [
        {
          "indexed": false,
          "internalType": "int64",
          "name": "applyerTg",
          "type": "int64"
        },
        {
          "indexed": false,
          "internalType": "address",
          "name": "wallet_address",
          "type": "address"
        }
      ],
      "name": "passportApplied",
      "type": "event"
    },
    {
      "anonymous": false,
      "inputs": [
        {
          "indexed": true,
          "internalType": "int64",
          "name": "applyerTg",
          "type": "int64"
        },
        {
          "indexed": false,
          "internalType": "address",
          "name": "wallet_address",
          "type": "address"
        }
      ],
      "name": "passportAppliedIndexed",
      "type": "event"
    },
    {
      "anonymous": false,
      "inputs": [
        {
          "indexed": false,
          "internalType": "int64",
          "name": "applyerTg",
          "type": "int64"
        },
        {
          "indexed": false,
          "internalType": "address",
          "name": "wallet_address",
          "type": "address"
        },
        {
          "indexed": false,
          "internalType": "address",
          "name": "issuer",
          "type": "address"
        }
      ],
      "name": "passportApproved",
      "type": "event"
    },
    {
      "anonymous": false,
      "inputs": [
        {
          "indexed": false,
          "internalType": "int64",
          "name": "applyerTg",
          "type": "int64"
        },
        {
          "indexed": false,
          "internalType": "address",
          "name": "wallet",
          "type": "address"
        }
      ],
      "name": "passportDenied",
      "type": "event"
    },
    {
      "inputs": [
        {
          "internalType": "int64",
          "name": "applyerTg",
          "type": "int64"
        },
        {
          "internalType": "string",
          "name": "user_name_",
          "type": "string"
        }
      ],
      "name": "ApplyForPassport",
      "outputs": [],
      "stateMutability": "payable",
      "type": "function"
    },
    {
      "inputs": [
        {
          "internalType": "address",
          "name": "passportToApprove",
          "type": "address"
        }
      ],
      "name": "ApprovePassport",
      "outputs": [],
      "stateMutability": "nonpayable",
      "type": "function"
    },
    {
      "inputs": [],
      "name": "DEFAULT_ADMIN_ROLE",
      "outputs": [
        {
          "internalType": "bytes32",
          "name": "",
          "type": "bytes32"
        }
      ],
      "stateMutability": "view",
      "type": "function"
    },
    {
      "inputs": [
        {
          "internalType": "address",
          "name": "passportToDecline",
          "type": "address"
        }
      ],
      "name": "DeclinePassport",
      "outputs": [],
      "stateMutability": "nonpayable",
      "type": "function"
    },
    {
      "inputs": [
        {
          "internalType": "address",
          "name": "passportToDecline",
          "type": "address"
        }
      ],
      "name": "DeletePassport",
      "outputs": [],
      "stateMutability": "nonpayable",
      "type": "function"
    },
    {
      "inputs": [],
      "name": "GetOwner",
      "outputs": [
        {
          "internalType": "address",
          "name": "",
          "type": "address"
        }
      ],
      "stateMutability": "view",
      "type": "function"
    },
    {
      "inputs": [
        {
          "internalType": "address",
          "name": "user_wallet",
          "type": "address"
        }
      ],
      "name": "GetPassportByAddress",
      "outputs": [
        {
          "components": [
            {
              "internalType": "address",
              "name": "userAddress",
              "type": "address"
            },
            {
              "internalType": "int64",
              "name": "tgId",
              "type": "int64"
            },
            {
              "internalType": "bool",
              "name": "valid",
              "type": "bool"
            },
            {
              "internalType": "address",
              "name": "validatorAddress",
              "type": "address"
            },
            {
              "internalType": "string",
              "name": "userName",
              "type": "string"
            }
          ],
          "internalType": "struct TGPassport.Passport",
          "name": "",
          "type": "tuple"
        }
      ],
      "stateMutability": "view",
      "type": "function"
    },
    {
      "inputs": [
        {
          "internalType": "string",
          "name": "user_name_",
          "type": "string"
        }
      ],
      "name": "GetPassportByNickName",
      "outputs": [
        {
          "components": [
            {
              "internalType": "address",
              "name": "userAddress",
              "type": "address"
            },
            {
              "internalType": "int64",
              "name": "tgId",
              "type": "int64"
            },
            {
              "internalType": "bool",
              "name": "valid",
              "type": "bool"
            },
            {
              "internalType": "address",
              "name": "validatorAddress",
              "type": "address"
            },
            {
              "internalType": "string",
              "name": "userName",
              "type": "string"
            }
          ],
          "internalType": "struct TGPassport.Passport",
          "name": "",
          "type": "tuple"
        }
      ],
      "stateMutability": "view",
      "type": "function"
    },
    {
      "inputs": [
        {
          "internalType": "int64",
          "name": "tgId_",
          "type": "int64"
        }
      ],
      "name": "GetPassportByTgId",
      "outputs": [
        {
          "components": [
            {
              "internalType": "address",
              "name": "userAddress",
              "type": "address"
            },
            {
              "internalType": "int64",
              "name": "tgId",
              "type": "int64"
            },
            {
              "internalType": "bool",
              "name": "valid",
              "type": "bool"
            },
            {
              "internalType": "address",
              "name": "validatorAddress",
              "type": "address"
            },
            {
              "internalType": "string",
              "name": "userName",
              "type": "string"
            }
          ],
          "internalType": "struct TGPassport.Passport",
          "name": "",
          "type": "tuple"
        }
      ],
      "stateMutability": "view",
      "type": "function"
    },
    {
      "inputs": [],
      "name": "GetPassportFee",
      "outputs": [
        {
          "internalType": "uint256",
          "name": "",
          "type": "uint256"
        }
      ],
      "stateMutability": "view",
      "type": "function"
    },
    {
      "inputs": [
        {
          "internalType": "int64",
          "name": "tgId_",
          "type": "int64"
        }
      ],
      "name": "GetPassportWalletByID",
      "outputs": [
        {
          "internalType": "address",
          "name": "",
          "type": "address"
        }
      ],
      "stateMutability": "view",
      "type": "function"
    },
    {
      "inputs": [
        {
          "internalType": "address",
          "name": "user_wallet",
          "type": "address"
        }
      ],
      "name": "GetTgIdByAddress",
      "outputs": [
        {
          "internalType": "int64",
          "name": "tgid",
          "type": "int64"
        }
      ],
      "stateMutability": "view",
      "type": "function"
    },
    {
      "inputs": [
        {
          "internalType": "int64",
          "name": "from",
          "type": "int64"
        },
        {
          "internalType": "int64",
          "name": "to",
          "type": "int64"
        }
      ],
      "name": "GetTrust",
      "outputs": [
        {
          "internalType": "bool",
          "name": "",
          "type": "bool"
        }
      ],
      "stateMutability": "view",
      "type": "function"
    },
    {
      "inputs": [
        {
          "internalType": "string",
          "name": "user_name_",
          "type": "string"
        }
      ],
      "name": "GetWalletByNickName",
      "outputs": [
        {
          "internalType": "address",
          "name": "",
          "type": "address"
        }
      ],
      "stateMutability": "view",
      "type": "function"
    },
    {
      "inputs": [
        {
          "internalType": "address",
          "name": "bot_",
          "type": "address"
        }
      ],
      "name": "SetBotAddress",
      "outputs": [],
      "stateMutability": "nonpayable",
      "type": "function"
    },
    {
      "inputs": [
        {
          "internalType": "uint256",
          "name": "passportFee_",
          "type": "uint256"
        }
      ],
      "name": "SetPassportFee",
      "outputs": [],
      "stateMutability": "nonpayable",
      "type": "function"
    },
    {
      "inputs": [
        {
          "internalType": "int64",
          "name": "from",
          "type": "int64"
        },
        {
          "internalType": "int64",
          "name": "to",
          "type": "int64"
        },
        {
          "internalType": "bool",
          "name": "trust",
          "type": "bool"
        }
      ],
      "name": "SetTrustToID",
      "outputs": [],
      "stateMutability": "nonpayable",
      "type": "function"
    },
    {
      "inputs": [
        {
          "internalType": "string",
          "name": "new_user_name_",
          "type": "string"
        }
      ],
      "name": "UpdateUserName",
      "outputs": [],
      "stateMutability": "nonpayable",
      "type": "function"
    },
    {
      "inputs": [],
      "name": "getModeratorIdentifier",
      "outputs": [
        {
          "internalType": "bytes32",
          "name": "",
          "type": "bytes32"
        }
      ],
      "stateMutability": "pure",
      "type": "function"
    },
    {
      "inputs": [
        {
          "internalType": "bytes32",
          "name": "role",
          "type": "bytes32"
        }
      ],
      "name": "getRoleAdmin",
      "outputs": [
        {
          "internalType": "bytes32",
          "name": "",
          "type": "bytes32"
        }
      ],
      "stateMutability": "view",
      "type": "function"
    },
    {
      "inputs": [
        {
          "internalType": "bytes32",
          "name": "role",
          "type": "bytes32"
        },
        {
          "internalType": "address",
          "name": "account",
          "type": "address"
        }
      ],
      "name": "grantRole",
      "outputs": [],
      "stateMutability": "nonpayable",
      "type": "function"
    },
    {
      "inputs": [
        {
          "internalType": "bytes32",
          "name": "role",
          "type": "bytes32"
        },
        {
          "internalType": "address",
          "name": "account",
          "type": "address"
        }
      ],
      "name": "hasRole",
      "outputs": [
        {
          "internalType": "bool",
          "name": "",
          "type": "bool"
        }
      ],
      "stateMutability": "view",
      "type": "function"
    },
    {
      "inputs": [],
      "name": "moderator",
      "outputs": [
        {
          "internalType": "bytes32",
          "name": "",
          "type": "bytes32"
        }
      ],
      "stateMutability": "view",
      "type": "function"
    },
    {
      "inputs": [
        {
          "internalType": "int64",
          "name": "",
          "type": "int64"
        },
        {
          "internalType": "uint256",
          "name": "",
          "type": "uint256"
        }
      ],
      "name": "opinion_changed",
      "outputs": [
        {
          "internalType": "int64",
          "name": "",
          "type": "int64"
        }
      ],
      "stateMutability": "view",
      "type": "function"
    },
    {
      "inputs": [],
      "name": "owner",
      "outputs": [
        {
          "internalType": "address",
          "name": "",
          "type": "address"
        }
      ],
      "stateMutability": "view",
      "type": "function"
    },
    {
      "inputs": [
        {
          "internalType": "address",
          "name": "",
          "type": "address"
        }
      ],
      "name": "passports",
      "outputs": [
        {
          "internalType": "address",
          "name": "userAddress",
          "type": "address"
        },
        {
          "internalType": "int64",
          "name": "tgId",
          "type": "int64"
        },
        {
          "internalType": "bool",
          "name": "valid",
          "type": "bool"
        },
        {
          "internalType": "address",
          "name": "validatorAddress",
          "type": "address"
        },
        {
          "internalType": "string",
          "name": "userName",
          "type": "string"
        }
      ],
      "stateMutability": "view",
      "type": "function"
    },
    {
      "inputs": [],
      "name": "renounceOwnership",
      "outputs": [],
      "stateMutability": "nonpayable",
      "type": "function"
    },
    {
      "inputs": [
        {
          "internalType": "bytes32",
          "name": "role",
          "type": "bytes32"
        },
        {
          "internalType": "address",
          "name": "account",
          "type": "address"
        }
      ],
      "name": "renounceRole",
      "outputs": [],
      "stateMutability": "nonpayable",
      "type": "function"
    },
    {
      "inputs": [
        {
          "internalType": "bytes32",
          "name": "role",
          "type": "bytes32"
        },
        {
          "internalType": "address",
          "name": "account",
          "type": "address"
        }
      ],
      "name": "revokeRole",
      "outputs": [],
      "stateMutability": "nonpayable",
      "type": "function"
    },
    {
      "inputs": [
        {
          "internalType": "bytes4",
          "name": "interfaceId",
          "type": "bytes4"
        }
      ],
      "name": "supportsInterface",
      "outputs": [
        {
          "internalType": "bool",
          "name": "",
          "type": "bool"
        }
      ],
      "stateMutability": "view",
      "type": "function"
    },
    {
      "inputs": [
        {
          "internalType": "int64",
          "name": "",
          "type": "int64"
        }
      ],
      "name": "tgIdToAddress",
      "outputs": [
        {
          "internalType": "address",
          "name": "",
          "type": "address"
        }
      ],
      "stateMutability": "view",
      "type": "function"
    },
    {
      "inputs": [
        {
          "internalType": "address",
          "name": "newOwner",
          "type": "address"
        }
      ],
      "name": "transferOwnership",
      "outputs": [],
      "stateMutability": "nonpayable",
      "type": "function"
    },
    {
      "inputs": [
        {
          "internalType": "int64",
          "name": "",
          "type": "int64"
        },
        {
          "internalType": "int64",
          "name": "",
          "type": "int64"
        }
      ],
      "name": "trust_global",
      "outputs": [
        {
          "internalType": "bool",
          "name": "",
          "type": "bool"
        }
      ],
      "stateMutability": "view",
      "type": "function"
    },
    {
      "inputs": [
        {
          "internalType": "string",
          "name": "",
          "type": "string"
        }
      ],
      "name": "username_wallets",
      "outputs": [
        {
          "internalType": "address",
          "name": "",
          "type": "address"
        }
      ],
      "stateMutability": "view",
      "type": "function"
    }
  ],
  "bytecode": "0x608060405273383a9e83e36796106eac11e8c2fbe8b92ff46d3a600460006101000a81548173ffffffffffffffffffffffffffffffffffffffff021916908373ffffffffffffffffffffffffffffffffffffffff160217905550730e5279eded9fe8281eb0f7277e51068c6da2fa31600560006101000a81548173ffffffffffffffffffffffffffffffffffffffff021916908373ffffffffffffffffffffffffffffffffffffffff160217905550348015620000bb57600080fd5b50620000dc620000d06200022f60201b60201c565b6200023760201b60201c565b66071afd498d0000600281905550620000fa620002fb60201b60201c565b600360006101000a81548173ffffffffffffffffffffffffffffffffffffffff021916908373ffffffffffffffffffffffffffffffffffffffff1602179055506200014f6000801b336200032460201b60201c565b620001817fcea62fe6ecc79e221c545bf918f804693c542ead2549e37c2bb9baa66ee2e157336200032460201b60201c565b620001d57fcea62fe6ecc79e221c545bf918f804693c542ead2549e37c2bb9baa66ee2e157600560009054906101000a900473ffffffffffffffffffffffffffffffffffffffff166200032460201b60201c565b620002297fcea62fe6ecc79e221c545bf918f804693c542ead2549e37c2bb9baa66ee2e157600460009054906101000a900473ffffffffffffffffffffffffffffffffffffffff166200032460201b60201c565b62000480565b600033905090565b60008060009054906101000a900473ffffffffffffffffffffffffffffffffffffffff169050816000806101000a81548173ffffffffffffffffffffffffffffffffffffffff021916908373ffffffffffffffffffffffffffffffffffffffff1602179055508173ffffffffffffffffffffffffffffffffffffffff168173ffffffffffffffffffffffffffffffffffffffff167f8be0079c531659141344cd1fd0a4f28419497f9722a3daafe3b4186f6b6457e060405160405180910390a35050565b60008060009054906101000a900473ffffffffffffffffffffffffffffffffffffffff16905090565b6200033682826200041560201b60201c565b6200041157600180600084815260200190815260200160002060000160008373ffffffffffffffffffffffffffffffffffffffff1673ffffffffffffffffffffffffffffffffffffffff16815260200190815260200160002060006101000a81548160ff021916908315150217905550620003b66200022f60201b60201c565b73ffffffffffffffffffffffffffffffffffffffff168173ffffffffffffffffffffffffffffffffffffffff16837f2f8788117e7eff1d82e926ec794901d17c78024a50270940304540a733656f0d60405160405180910390a45b5050565b60006001600084815260200190815260200160002060000160008373ffffffffffffffffffffffffffffffffffffffff1673ffffffffffffffffffffffffffffffffffffffff16815260200190815260200160002060009054906101000a900460ff16905092915050565b61431080620004906000396000f3fe6080604052600436106101f95760003560e01c806365104afc1161010d578063a217fddf116100a0578063d2125bd21161006f578063d2125bd2146107b5578063d547741f146107de578063d5998aeb14610807578063e37c132b14610823578063f2fde38b14610864576101f9565b8063a217fddf146106e7578063b25047c214610712578063b910c8981461074f578063d2114e1814610778576101f9565b80638da5cb5b116100dc5780638da5cb5b1461061957806391d14854146106445780639413c642146106815780639421da61146106be576101f9565b806365104afc1461055f57806365a5637e146105885780636a8ec05e146105c5578063715018a614610602576101f9565b80632cd94ba41161019057806348dc15611161015f57806348dc1561146104525780634ac054bb1461047d57806359cca93b146104ba5780635d1ce88f146104f757806361cabe3714610522576101f9565b80632cd94ba4146103ac5780632f2ff15d146103d557806336568abe146103fe5780633874390414610427576101f9565b80631755e9e6116101cc5780631755e9e6146102e057806321e6531d14610309578063239f60fa14610332578063248a9ca31461036f576101f9565b806301ffc9a7146101fe5780630ae50a391461023b5780630c2fc6e3146102665780631423ea07146102a3575b600080fd5b34801561020a57600080fd5b5061022560048036038101906102209190612f8d565b61088d565b6040516102329190612fd5565b60405180910390f35b34801561024757600080fd5b50610250610907565b60405161025d9190613031565b60405180910390f35b34801561027257600080fd5b5061028d60048036038101906102889190613085565b610931565b60405161029a9190613031565b60405180910390f35b3480156102af57600080fd5b506102ca60048036038101906102c591906130de565b610974565b6040516102d7919061323e565b60405180910390f35b3480156102ec57600080fd5b50610307600480360381019061030291906130de565b610b49565b005b34801561031557600080fd5b50610330600480360381019061032b9190613395565b610f3f565b005b34801561033e57600080fd5b50610359600480360381019061035491906133de565b611104565b6040516103669190612fd5565b60405180910390f35b34801561037b57600080fd5b5061039660048036038101906103919190613454565b611133565b6040516103a39190613490565b60405180910390f35b3480156103b857600080fd5b506103d360048036038101906103ce91906130de565b611153565b005b3480156103e157600080fd5b506103fc60048036038101906103f791906134ab565b61119f565b005b34801561040a57600080fd5b50610425600480360381019061042091906134ab565b6111c0565b005b34801561043357600080fd5b5061043c611243565b6040516104499190613490565b60405180910390f35b34801561045e57600080fd5b50610467611267565b6040516104749190613504565b60405180910390f35b34801561048957600080fd5b506104a4600480360381019061049f91906133de565b611271565b6040516104b19190612fd5565b60405180910390f35b3480156104c657600080fd5b506104e160048036038101906104dc9190613395565b6112b9565b6040516104ee9190613031565b60405180910390f35b34801561050357600080fd5b5061050c611302565b6040516105199190613490565b60405180910390f35b34801561052e57600080fd5b50610549600480360381019061054491906130de565b61132a565b604051610556919061352e565b60405180910390f35b34801561056b57600080fd5b50610586600480360381019061058191906130de565b611345565b005b34801561059457600080fd5b506105af60048036038101906105aa9190613085565b611643565b6040516105bc919061323e565b60405180910390f35b3480156105d157600080fd5b506105ec60048036038101906105e79190613575565b611826565b6040516105f9919061352e565b60405180910390f35b34801561060e57600080fd5b5061061761186c565b005b34801561062557600080fd5b5061062e611880565b60405161063b9190613031565b60405180910390f35b34801561065057600080fd5b5061066b600480360381019061066691906134ab565b6118a9565b6040516106789190612fd5565b60405180910390f35b34801561068d57600080fd5b506106a860048036038101906106a39190613085565b611914565b6040516106b59190613031565b60405180910390f35b3480156106ca57600080fd5b506106e560048036038101906106e091906130de565b611947565b005b3480156106f357600080fd5b506106fc611cb5565b6040516107099190613490565b60405180910390f35b34801561071e57600080fd5b5061073960048036038101906107349190613395565b611cbc565b604051610746919061323e565b60405180910390f35b34801561075b57600080fd5b50610776600480360381019061077191906135e1565b611e9f565b005b34801561078457600080fd5b5061079f600480360381019061079a9190613395565b6120aa565b6040516107ac9190613031565b60405180910390f35b3480156107c157600080fd5b506107dc60048036038101906107d79190613634565b6120f2565b005b3480156107ea57600080fd5b50610805600480360381019061080091906134ab565b612104565b005b610821600480360381019061081c9190613661565b612125565b005b34801561082f57600080fd5b5061084a600480360381019061084591906130de565b612455565b60405161085b959493929190613707565b60405180910390f35b34801561087057600080fd5b5061088b600480360381019061088691906130de565b61256d565b005b60007f7965db0b000000000000000000000000000000000000000000000000000000007bffffffffffffffffffffffffffffffffffffffffffffffffffffffff1916827bffffffffffffffffffffffffffffffffffffffffffffffffffffffff1916148061090057506108ff826125f0565b5b9050919050565b6000600360009054906101000a900473ffffffffffffffffffffffffffffffffffffffff16905090565b6000600660008360070b60070b815260200190815260200160002060009054906101000a900473ffffffffffffffffffffffffffffffffffffffff169050919050565b61097c612e64565b6000600760008473ffffffffffffffffffffffffffffffffffffffff1673ffffffffffffffffffffffffffffffffffffffff1681526020019081526020016000206040518060a00160405290816000820160009054906101000a900473ffffffffffffffffffffffffffffffffffffffff1673ffffffffffffffffffffffffffffffffffffffff1673ffffffffffffffffffffffffffffffffffffffff1681526020016000820160149054906101000a900460070b60070b60070b815260200160008201601c9054906101000a900460ff161515151581526020016001820160009054906101000a900473ffffffffffffffffffffffffffffffffffffffff1673ffffffffffffffffffffffffffffffffffffffff1673ffffffffffffffffffffffffffffffffffffffff168152602001600282018054610abc90613790565b80601f0160208091040260200160405190810160405280929190818152602001828054610ae890613790565b8015610b355780601f10610b0a57610100808354040283529160200191610b35565b820191906000526020600020905b815481529060010190602001808311610b1857829003601f168201915b505050505081525050905080915050919050565b7fcea62fe6ecc79e221c545bf918f804693c542ead2549e37c2bb9baa66ee2e157610b738161265a565b6000600760008473ffffffffffffffffffffffffffffffffffffffff1673ffffffffffffffffffffffffffffffffffffffff16815260200190815260200160002060000160149054906101000a900460070b90506000600760008573ffffffffffffffffffffffffffffffffffffffff1673ffffffffffffffffffffffffffffffffffffffff1681526020019081526020016000206002018054610c1690613790565b80601f0160208091040260200160405190810160405280929190818152602001828054610c4290613790565b8015610c8f5780601f10610c6457610100808354040283529160200191610c8f565b820191906000526020600020905b815481529060010190602001808311610c7257829003601f168201915b5050505050905060001515600760008673ffffffffffffffffffffffffffffffffffffffff1673ffffffffffffffffffffffffffffffffffffffff168152602001908152602001600020600001601c9054906101000a900460ff16151514610d2c576040517f08c379a0000000000000000000000000000000000000000000000000000000008152600401610d2390613833565b60405180910390fd5b60011515600960008460070b60070b815260200190815260200160002060008460070b60070b815260200190815260200160002060009054906101000a905050506040518060a001604052808573ffffffffffffffffffffffffffffffffffffffff1681526020018360070b81526020016001151581526020013373ffffffffffffffffffffffffffffffffffffffff16815260200182815250600760008673ffffffffffffffffffffffffffffffffffffffff1673ffffffffffffffffffffffffffffffffffffffff16815260200190815260200160002060008201518160000160006101000a81548173ffffffffffffffffffffffffffffffffffffffff021916908373ffffffffffffffffffffffffffffffffffffffff16021790555060208201518160000160146101000a81548167ffffffffffffffff021916908360070b67ffffffffffffffff160217905550604082015181600001601c6101000a81548160ff02191690831515021790555060608201518160010160006101000a81548173ffffffffffffffffffffffffffffffffffffffff021916908373ffffffffffffffffffffffffffffffffffffffff1602179055506080820151816002019081610efa91906139ff565b509050507fddda54aebd53f1c2d3f35d7107ddd15f71b313a804dda2179cded44927110cd0828533604051610f3193929190613ad1565b60405180910390a150505050565b6000610f4a33610974565b90503373ffffffffffffffffffffffffffffffffffffffff16816000015173ffffffffffffffffffffffffffffffffffffffff1614610fbe576040517f08c379a0000000000000000000000000000000000000000000000000000000008152600401610fb590613b54565b60405180910390fd5b81816080018190525080600760003373ffffffffffffffffffffffffffffffffffffffff1673ffffffffffffffffffffffffffffffffffffffff16815260200190815260200160002060008201518160000160006101000a81548173ffffffffffffffffffffffffffffffffffffffff021916908373ffffffffffffffffffffffffffffffffffffffff16021790555060208201518160000160146101000a81548167ffffffffffffffff021916908360070b67ffffffffffffffff160217905550604082015181600001601c6101000a81548160ff02191690831515021790555060608201518160010160006101000a81548173ffffffffffffffffffffffffffffffffffffffff021916908373ffffffffffffffffffffffffffffffffffffffff16021790555060808201518160020190816110fc91906139ff565b509050505050565b60096020528160005260406000206020528060005260406000206000915091509054906101000a900460ff1681565b600060016000838152602001908152602001600020600101549050919050565b61115b61266e565b80600560006101000a81548173ffffffffffffffffffffffffffffffffffffffff021916908373ffffffffffffffffffffffffffffffffffffffff16021790555050565b6111a882611133565b6111b18161265a565b6111bb83836126ec565b505050565b6111c86127cc565b73ffffffffffffffffffffffffffffffffffffffff168173ffffffffffffffffffffffffffffffffffffffff1614611235576040517f08c379a000000000000000000000000000000000000000000000000000000000815260040161122c90613be6565b60405180910390fd5b61123f82826127d4565b5050565b7fcea62fe6ecc79e221c545bf918f804693c542ead2549e37c2bb9baa66ee2e15781565b6000600254905090565b6000600960008460070b60070b815260200190815260200160002060008360070b60070b815260200190815260200160002060009054906101000a900460ff16905092915050565b6008818051602081018201805184825260208301602085012081835280955050505050506000915054906101000a900473ffffffffffffffffffffffffffffffffffffffff1681565b60007fcea62fe6ecc79e221c545bf918f804693c542ead2549e37c2bb9baa66ee2e157905090565b60008061133683610974565b90508060200151915050919050565b61134d61266e565b6000600760008373ffffffffffffffffffffffffffffffffffffffff1673ffffffffffffffffffffffffffffffffffffffff16815260200190815260200160002060000160149054906101000a900460070b90506000600760008473ffffffffffffffffffffffffffffffffffffffff1673ffffffffffffffffffffffffffffffffffffffff16815260200190815260200160002060020180546113f090613790565b80601f016020809104026020016040519081016040528092919081815260200182805461141c90613790565b80156114695780601f1061143e57610100808354040283529160200191611469565b820191906000526020600020905b81548152906001019060200180831161144c57829003601f168201915b505050505090506000469050600581146114b8576040517f08c379a00000000000000000000000000000000000000000000000000000000081526004016114af90613c78565b60405180910390fd5b600760008573ffffffffffffffffffffffffffffffffffffffff1673ffffffffffffffffffffffffffffffffffffffff168152602001908152602001600020600080820160006101000a81549073ffffffffffffffffffffffffffffffffffffffff02191690556000820160146101000a81549067ffffffffffffffff021916905560008201601c6101000a81549060ff02191690556001820160006101000a81549073ffffffffffffffffffffffffffffffffffffffff02191690556002820160006115859190612ec4565b5050600660008460070b60070b815260200190815260200160002060006101000a81549073ffffffffffffffffffffffffffffffffffffffff02191690556008826040516115d39190613cd4565b908152602001604051809103902060006101000a81549073ffffffffffffffffffffffffffffffffffffffff02191690557f0511bec3ed97c7099362d7e7b0ed4fe8afe6f448a0dcf73f258be48dceb302db8385604051611635929190613ceb565b60405180910390a150505050565b61164b612e64565b600061165683610931565b90506000600760008373ffffffffffffffffffffffffffffffffffffffff1673ffffffffffffffffffffffffffffffffffffffff1681526020019081526020016000206040518060a00160405290816000820160009054906101000a900473ffffffffffffffffffffffffffffffffffffffff1673ffffffffffffffffffffffffffffffffffffffff1673ffffffffffffffffffffffffffffffffffffffff1681526020016000820160149054906101000a900460070b60070b60070b815260200160008201601c9054906101000a900460ff161515151581526020016001820160009054906101000a900473ffffffffffffffffffffffffffffffffffffffff1673ffffffffffffffffffffffffffffffffffffffff1673ffffffffffffffffffffffffffffffffffffffff16815260200160028201805461179890613790565b80601f01602080910402602001604051908101604052809291908181526020018280546117c490613790565b80156118115780601f106117e657610100808354040283529160200191611811565b820191906000526020600020905b8154815290600101906020018083116117f457829003601f168201915b50505050508152505090508092505050919050565b600a602052816000526040600020818154811061184257600080fd5b9060005260206000209060049182820401919006600802915091509054906101000a900460070b81565b61187461266e565b61187e60006128b6565b565b60008060009054906101000a900473ffffffffffffffffffffffffffffffffffffffff16905090565b60006001600084815260200190815260200160002060000160008373ffffffffffffffffffffffffffffffffffffffff1673ffffffffffffffffffffffffffffffffffffffff16815260200190815260200160002060009054906101000a900460ff16905092915050565b60066020528060005260406000206000915054906101000a900473ffffffffffffffffffffffffffffffffffffffff1681565b7fcea62fe6ecc79e221c545bf918f804693c542ead2549e37c2bb9baa66ee2e1576119718161265a565b6000600760008473ffffffffffffffffffffffffffffffffffffffff1673ffffffffffffffffffffffffffffffffffffffff16815260200190815260200160002060000160149054906101000a900460070b90506000600760008573ffffffffffffffffffffffffffffffffffffffff1673ffffffffffffffffffffffffffffffffffffffff1681526020019081526020016000206002018054611a1490613790565b80601f0160208091040260200160405190810160405280929190818152602001828054611a4090613790565b8015611a8d5780601f10611a6257610100808354040283529160200191611a8d565b820191906000526020600020905b815481529060010190602001808311611a7057829003601f168201915b5050505050905060001515600760008673ffffffffffffffffffffffffffffffffffffffff1673ffffffffffffffffffffffffffffffffffffffff168152602001908152602001600020600001601c9054906101000a900460ff16151514611b2a576040517f08c379a0000000000000000000000000000000000000000000000000000000008152600401611b2190613833565b60405180910390fd5b600760008573ffffffffffffffffffffffffffffffffffffffff1673ffffffffffffffffffffffffffffffffffffffff168152602001908152602001600020600080820160006101000a81549073ffffffffffffffffffffffffffffffffffffffff02191690556000820160146101000a81549067ffffffffffffffff021916905560008201601c6101000a81549060ff02191690556001820160006101000a81549073ffffffffffffffffffffffffffffffffffffffff0219169055600282016000611bf79190612ec4565b5050600660008360070b60070b815260200190815260200160002060006101000a81549073ffffffffffffffffffffffffffffffffffffffff0219169055600881604051611c459190613cd4565b908152602001604051809103902060006101000a81549073ffffffffffffffffffffffffffffffffffffffff02191690557f0511bec3ed97c7099362d7e7b0ed4fe8afe6f448a0dcf73f258be48dceb302db8285604051611ca7929190613ceb565b60405180910390a150505050565b6000801b81565b611cc4612e64565b6000611ccf836120aa565b90506000600760008373ffffffffffffffffffffffffffffffffffffffff1673ffffffffffffffffffffffffffffffffffffffff1681526020019081526020016000206040518060a00160405290816000820160009054906101000a900473ffffffffffffffffffffffffffffffffffffffff1673ffffffffffffffffffffffffffffffffffffffff1673ffffffffffffffffffffffffffffffffffffffff1681526020016000820160149054906101000a900460070b60070b60070b815260200160008201601c9054906101000a900460ff161515151581526020016001820160009054906101000a900473ffffffffffffffffffffffffffffffffffffffff1673ffffffffffffffffffffffffffffffffffffffff1673ffffffffffffffffffffffffffffffffffffffff168152602001600282018054611e1190613790565b80601f0160208091040260200160405190810160405280929190818152602001828054611e3d90613790565b8015611e8a5780601f10611e5f57610100808354040283529160200191611e8a565b820191906000526020600020905b815481529060010190602001808311611e6d57829003601f168201915b50505050508152505090508092505050919050565b6000611eaa84611643565b90506000816000015190503373ffffffffffffffffffffffffffffffffffffffff168173ffffffffffffffffffffffffffffffffffffffff1614611f23576040517f08c379a0000000000000000000000000000000000000000000000000000000008152600401611f1a90613d86565b60405180910390fd5b6001151583151503611feb57611f39858561297a565b600a60008660070b60070b81526020019081526020016000208490806001815401808255809150506001900390600052602060002090600491828204019190066008029091909190916101000a81548167ffffffffffffffff021916908360070b67ffffffffffffffff1602179055508360070b7fb3ca43859da7280c9b07097e86cb568999c37fb4232a15e7ffbae5c6921c2bef8685604051611fde929190613da6565b60405180910390a26120a3565b611ff585856129c7565b600a60008660070b60070b81526020019081526020016000208490806001815401808255809150506001900390600052602060002090600491828204019190066008029091909190916101000a81548167ffffffffffffffff021916908360070b67ffffffffffffffff1602179055508360070b7fb3ca43859da7280c9b07097e86cb568999c37fb4232a15e7ffbae5c6921c2bef868560405161209a929190613da6565b60405180910390a25b5050505050565b60006008826040516120bc9190613cd4565b908152602001604051809103902060009054906101000a900473ffffffffffffffffffffffffffffffffffffffff169050919050565b6120fa61266e565b8060028190555050565b61210d82611133565b6121168161265a565b61212083836127d4565b505050565b6000339050612135838284612a14565b6002543414612179576040517f08c379a000000000000000000000000000000000000000000000000000000000815260040161217090613e1b565b60405180910390fd5b6040518060a001604052808273ffffffffffffffffffffffffffffffffffffffff1681526020018460070b8152602001600015158152602001600073ffffffffffffffffffffffffffffffffffffffff16815260200183815250600760003373ffffffffffffffffffffffffffffffffffffffff1673ffffffffffffffffffffffffffffffffffffffff16815260200190815260200160002060008201518160000160006101000a81548173ffffffffffffffffffffffffffffffffffffffff021916908373ffffffffffffffffffffffffffffffffffffffff16021790555060208201518160000160146101000a81548167ffffffffffffffff021916908360070b67ffffffffffffffff160217905550604082015181600001601c6101000a81548160ff02191690831515021790555060608201518160010160006101000a81548173ffffffffffffffffffffffffffffffffffffffff021916908373ffffffffffffffffffffffffffffffffffffffff160217905550608082015181600201908161230791906139ff565b509050507fcb042d04619e497175f63ce8ec9b9127cb0bf344facc37db4fe8492c2ecfbb9e833360405161233c929190613ceb565b60405180910390a18260070b7f2d329f0d038ded94203a58e5be2f2f41b14cbbc49cc1f89443696606f104658c336040516123779190613031565b60405180910390a26000600560009054906101000a900473ffffffffffffffffffffffffffffffffffffffff1673ffffffffffffffffffffffffffffffffffffffff166002546040516123c990613e6c565b60006040518083038185875af1925050503d8060008114612406576040519150601f19603f3d011682016040523d82523d6000602084013e61240b565b606091505b505090508061244f576040517f08c379a000000000000000000000000000000000000000000000000000000000815260040161244690613ecd565b60405180910390fd5b50505050565b60076020528060005260406000206000915090508060000160009054906101000a900473ffffffffffffffffffffffffffffffffffffffff16908060000160149054906101000a900460070b9080600001601c9054906101000a900460ff16908060010160009054906101000a900473ffffffffffffffffffffffffffffffffffffffff16908060020180546124ea90613790565b80601f016020809104026020016040519081016040528092919081815260200182805461251690613790565b80156125635780601f1061253857610100808354040283529160200191612563565b820191906000526020600020905b81548152906001019060200180831161254657829003601f168201915b5050505050905085565b61257561266e565b600073ffffffffffffffffffffffffffffffffffffffff168173ffffffffffffffffffffffffffffffffffffffff16036125e4576040517f08c379a00000000000000000000000000000000000000000000000000000000081526004016125db90613f5f565b60405180910390fd5b6125ed816128b6565b50565b60007f01ffc9a7000000000000000000000000000000000000000000000000000000007bffffffffffffffffffffffffffffffffffffffffffffffffffffffff1916827bffffffffffffffffffffffffffffffffffffffffffffffffffffffff1916149050919050565b61266b816126666127cc565b612b76565b50565b6126766127cc565b73ffffffffffffffffffffffffffffffffffffffff16612694611880565b73ffffffffffffffffffffffffffffffffffffffff16146126ea576040517f08c379a00000000000000000000000000000000000000000000000000000000081526004016126e190613fcb565b60405180910390fd5b565b6126f682826118a9565b6127c857600180600084815260200190815260200160002060000160008373ffffffffffffffffffffffffffffffffffffffff1673ffffffffffffffffffffffffffffffffffffffff16815260200190815260200160002060006101000a81548160ff02191690831515021790555061276d6127cc565b73ffffffffffffffffffffffffffffffffffffffff168173ffffffffffffffffffffffffffffffffffffffff16837f2f8788117e7eff1d82e926ec794901d17c78024a50270940304540a733656f0d60405160405180910390a45b5050565b600033905090565b6127de82826118a9565b156128b25760006001600084815260200190815260200160002060000160008373ffffffffffffffffffffffffffffffffffffffff1673ffffffffffffffffffffffffffffffffffffffff16815260200190815260200160002060006101000a81548160ff0219169083151502179055506128576127cc565b73ffffffffffffffffffffffffffffffffffffffff168173ffffffffffffffffffffffffffffffffffffffff16837ff6391f5c32d9c69d2a47ea670b442974b53935d1edc7fd64eb21e047a839171b60405160405180910390a45b5050565b60008060009054906101000a900473ffffffffffffffffffffffffffffffffffffffff169050816000806101000a81548173ffffffffffffffffffffffffffffffffffffffff021916908373ffffffffffffffffffffffffffffffffffffffff1602179055508173ffffffffffffffffffffffffffffffffffffffff168173ffffffffffffffffffffffffffffffffffffffff167f8be0079c531659141344cd1fd0a4f28419497f9722a3daafe3b4186f6b6457e060405160405180910390a35050565b6001600960008460070b60070b815260200190815260200160002060008360070b60070b815260200190815260200160002060006101000a81548160ff0219169083151502179055505050565b6000600960008460070b60070b815260200190815260200160002060008360070b60070b815260200190815260200160002060006101000a81548160ff0219169083151502179055505050565b600073ffffffffffffffffffffffffffffffffffffffff16600660008560070b60070b815260200190815260200160002060009054906101000a900473ffffffffffffffffffffffffffffffffffffffff1673ffffffffffffffffffffffffffffffffffffffff1614612abc576040517f08c379a0000000000000000000000000000000000000000000000000000000008152600401612ab39061405d565b60405180910390fd5b81600660008560070b60070b815260200190815260200160002060006101000a81548173ffffffffffffffffffffffffffffffffffffffff021916908373ffffffffffffffffffffffffffffffffffffffff16021790555081600882604051612b259190613cd4565b908152602001604051809103902060006101000a81548173ffffffffffffffffffffffffffffffffffffffff021916908373ffffffffffffffffffffffffffffffffffffffff160217905550505050565b612b8082826118a9565b612bf757612b8d81612bfb565b612b9b8360001c6020612c28565b604051602001612bac929190614115565b6040516020818303038152906040526040517f08c379a0000000000000000000000000000000000000000000000000000000008152600401612bee919061414f565b60405180910390fd5b5050565b6060612c218273ffffffffffffffffffffffffffffffffffffffff16601460ff16612c28565b9050919050565b606060006002836002612c3b91906141a0565b612c4591906141e2565b67ffffffffffffffff811115612c5e57612c5d61326a565b5b6040519080825280601f01601f191660200182016040528015612c905781602001600182028036833780820191505090505b5090507f300000000000000000000000000000000000000000000000000000000000000081600081518110612cc857612cc7614216565b5b60200101907effffffffffffffffffffffffffffffffffffffffffffffffffffffffffffff1916908160001a9053507f780000000000000000000000000000000000000000000000000000000000000081600181518110612d2c57612d2b614216565b5b60200101907effffffffffffffffffffffffffffffffffffffffffffffffffffffffffffff1916908160001a90535060006001846002612d6c91906141a0565b612d7691906141e2565b90505b6001811115612e16577f3031323334353637383961626364656600000000000000000000000000000000600f861660108110612db857612db7614216565b5b1a60f81b828281518110612dcf57612dce614216565b5b60200101907effffffffffffffffffffffffffffffffffffffffffffffffffffffffffffff1916908160001a905350600485901c945080612e0f90614245565b9050612d79565b5060008414612e5a576040517f08c379a0000000000000000000000000000000000000000000000000000000008152600401612e51906142ba565b60405180910390fd5b8091505092915050565b6040518060a00160405280600073ffffffffffffffffffffffffffffffffffffffff168152602001600060070b8152602001600015158152602001600073ffffffffffffffffffffffffffffffffffffffff168152602001606081525090565b508054612ed090613790565b6000825580601f10612ee25750612f01565b601f016020900490600052602060002090810190612f009190612f04565b5b50565b5b80821115612f1d576000816000905550600101612f05565b5090565b6000604051905090565b600080fd5b600080fd5b60007fffffffff0000000000000000000000000000000000000000000000000000000082169050919050565b612f6a81612f35565b8114612f7557600080fd5b50565b600081359050612f8781612f61565b92915050565b600060208284031215612fa357612fa2612f2b565b5b6000612fb184828501612f78565b91505092915050565b60008115159050919050565b612fcf81612fba565b82525050565b6000602082019050612fea6000830184612fc6565b92915050565b600073ffffffffffffffffffffffffffffffffffffffff82169050919050565b600061301b82612ff0565b9050919050565b61302b81613010565b82525050565b60006020820190506130466000830184613022565b92915050565b60008160070b9050919050565b6130628161304c565b811461306d57600080fd5b50565b60008135905061307f81613059565b92915050565b60006020828403121561309b5761309a612f2b565b5b60006130a984828501613070565b91505092915050565b6130bb81613010565b81146130c657600080fd5b50565b6000813590506130d8816130b2565b92915050565b6000602082840312156130f4576130f3612f2b565b5b6000613102848285016130c9565b91505092915050565b61311481613010565b82525050565b6131238161304c565b82525050565b61313281612fba565b82525050565b600081519050919050565b600082825260208201905092915050565b60005b83811015613172578082015181840152602081019050613157565b60008484015250505050565b6000601f19601f8301169050919050565b600061319a82613138565b6131a48185613143565b93506131b4818560208601613154565b6131bd8161317e565b840191505092915050565b600060a0830160008301516131e0600086018261310b565b5060208301516131f3602086018261311a565b5060408301516132066040860182613129565b506060830151613219606086018261310b565b5060808301518482036080860152613231828261318f565b9150508091505092915050565b6000602082019050818103600083015261325881846131c8565b905092915050565b600080fd5b600080fd5b7f4e487b7100000000000000000000000000000000000000000000000000000000600052604160045260246000fd5b6132a28261317e565b810181811067ffffffffffffffff821117156132c1576132c061326a565b5b80604052505050565b60006132d4612f21565b90506132e08282613299565b919050565b600067ffffffffffffffff821115613300576132ff61326a565b5b6133098261317e565b9050602081019050919050565b82818337600083830152505050565b6000613338613333846132e5565b6132ca565b90508281526020810184848401111561335457613353613265565b5b61335f848285613316565b509392505050565b600082601f83011261337c5761337b613260565b5b813561338c848260208601613325565b91505092915050565b6000602082840312156133ab576133aa612f2b565b5b600082013567ffffffffffffffff8111156133c9576133c8612f30565b5b6133d584828501613367565b91505092915050565b600080604083850312156133f5576133f4612f2b565b5b600061340385828601613070565b925050602061341485828601613070565b9150509250929050565b6000819050919050565b6134318161341e565b811461343c57600080fd5b50565b60008135905061344e81613428565b92915050565b60006020828403121561346a57613469612f2b565b5b60006134788482850161343f565b91505092915050565b61348a8161341e565b82525050565b60006020820190506134a56000830184613481565b92915050565b600080604083850312156134c2576134c1612f2b565b5b60006134d08582860161343f565b92505060206134e1858286016130c9565b9150509250929050565b6000819050919050565b6134fe816134eb565b82525050565b600060208201905061351960008301846134f5565b92915050565b6135288161304c565b82525050565b6000602082019050613543600083018461351f565b92915050565b613552816134eb565b811461355d57600080fd5b50565b60008135905061356f81613549565b92915050565b6000806040838503121561358c5761358b612f2b565b5b600061359a85828601613070565b92505060206135ab85828601613560565b9150509250929050565b6135be81612fba565b81146135c957600080fd5b50565b6000813590506135db816135b5565b92915050565b6000806000606084860312156135fa576135f9612f2b565b5b600061360886828701613070565b935050602061361986828701613070565b925050604061362a868287016135cc565b9150509250925092565b60006020828403121561364a57613649612f2b565b5b600061365884828501613560565b91505092915050565b6000806040838503121561367857613677612f2b565b5b600061368685828601613070565b925050602083013567ffffffffffffffff8111156136a7576136a6612f30565b5b6136b385828601613367565b9150509250929050565b600082825260208201905092915050565b60006136d982613138565b6136e381856136bd565b93506136f3818560208601613154565b6136fc8161317e565b840191505092915050565b600060a08201905061371c6000830188613022565b613729602083018761351f565b6137366040830186612fc6565b6137436060830185613022565b818103608083015261375581846136ce565b90509695505050505050565b7f4e487b7100000000000000000000000000000000000000000000000000000000600052602260045260246000fd5b600060028204905060018216806137a857607f821691505b6020821081036137bb576137ba613761565b5b50919050565b7f616c726561647920617070726f766564204f5220646f206e6f7420657869737460008201527f7320796574000000000000000000000000000000000000000000000000000000602082015250565b600061381d6025836136bd565b9150613828826137c1565b604082019050919050565b6000602082019050818103600083015261384c81613810565b9050919050565b60008190508160005260206000209050919050565b60006020601f8301049050919050565b600082821b905092915050565b6000600883026138b57fffffffffffffffffffffffffffffffffffffffffffffffffffffffffffffffff82613878565b6138bf8683613878565b95508019841693508086168417925050509392505050565b6000819050919050565b60006138fc6138f76138f2846134eb565b6138d7565b6134eb565b9050919050565b6000819050919050565b613916836138e1565b61392a61392282613903565b848454613885565b825550505050565b600090565b61393f613932565b61394a81848461390d565b505050565b5b8181101561396e57613963600082613937565b600181019050613950565b5050565b601f8211156139b35761398481613853565b61398d84613868565b8101602085101561399c578190505b6139b06139a885613868565b83018261394f565b50505b505050565b600082821c905092915050565b60006139d6600019846008026139b8565b1980831691505092915050565b60006139ef83836139c5565b9150826002028217905092915050565b613a0882613138565b67ffffffffffffffff811115613a2157613a2061326a565b5b613a2b8254613790565b613a36828285613972565b600060209050601f831160018114613a695760008415613a57578287015190505b613a6185826139e3565b865550613ac9565b601f198416613a7786613853565b60005b82811015613a9f57848901518255600182019150602085019450602081019050613a7a565b86831015613abc5784890151613ab8601f8916826139c5565b8355505b6001600288020188555050505b505050505050565b6000606082019050613ae6600083018661351f565b613af36020830185613022565b613b006040830184613022565b949350505050565b7f796f7520646f6e2774206e6f77206f776e207468697320757365726e616d6500600082015250565b6000613b3e601f836136bd565b9150613b4982613b08565b602082019050919050565b60006020820190508181036000830152613b6d81613b31565b9050919050565b7f416363657373436f6e74726f6c3a2063616e206f6e6c792072656e6f756e636560008201527f20726f6c657320666f722073656c660000000000000000000000000000000000602082015250565b6000613bd0602f836136bd565b9150613bdb82613b74565b604082019050919050565b60006020820190508181036000830152613bff81613bc3565b9050919050565b7f746869732066756e6374696f6e20776f726b2773206f6e6c7920666f7220746560008201527f73746e6574000000000000000000000000000000000000000000000000000000602082015250565b6000613c626025836136bd565b9150613c6d82613c06565b604082019050919050565b60006020820190508181036000830152613c9181613c55565b9050919050565b600081905092915050565b6000613cae82613138565b613cb88185613c98565b9350613cc8818560208601613154565b80840191505092915050565b6000613ce08284613ca3565b915081905092915050565b6000604082019050613d00600083018561351f565b613d0d6020830184613022565b9392505050565b7f596f75722063757272656e742061646472657373206d69736d6174636820776960008201527f746820796f7572207265676973747265642077616c6c65742061646472657373602082015250565b6000613d706040836136bd565b9150613d7b82613d14565b604082019050919050565b60006020820190508181036000830152613d9f81613d63565b9050919050565b6000604082019050613dbb600083018561351f565b613dc86020830184612fc6565b9392505050565b7f50617373706f727420666565206973206e6f7420706169640000000000000000600082015250565b6000613e056018836136bd565b9150613e1082613dcf565b602082019050919050565b60006020820190508181036000830152613e3481613df8565b9050919050565b600081905092915050565b50565b6000613e56600083613e3b565b9150613e6182613e46565b600082019050919050565b6000613e7782613e49565b9150819050919050565b7f556e61626c6520746f207472616e736665722066656500000000000000000000600082015250565b6000613eb76016836136bd565b9150613ec282613e81565b602082019050919050565b60006020820190508181036000830152613ee681613eaa565b9050919050565b7f4f776e61626c653a206e6577206f776e657220697320746865207a65726f206160008201527f6464726573730000000000000000000000000000000000000000000000000000602082015250565b6000613f496026836136bd565b9150613f5482613eed565b604082019050919050565b60006020820190508181036000830152613f7881613f3c565b9050919050565b7f4f776e61626c653a2063616c6c6572206973206e6f7420746865206f776e6572600082015250565b6000613fb56020836136bd565b9150613fc082613f7f565b602082019050919050565b60006020820190508181036000830152613fe481613fa8565b9050919050565b7f54686572652773206164647265737320636f6e6e656374656420746f2074686160008201527f7420544720494420616c72656164792e00000000000000000000000000000000602082015250565b60006140476030836136bd565b915061405282613feb565b604082019050919050565b600060208201905081810360008301526140768161403a565b9050919050565b7f416363657373436f6e74726f6c3a206163636f756e7420000000000000000000600082015250565b60006140b3601783613c98565b91506140be8261407d565b601782019050919050565b7f206973206d697373696e6720726f6c6520000000000000000000000000000000600082015250565b60006140ff601183613c98565b915061410a826140c9565b601182019050919050565b6000614120826140a6565b915061412c8285613ca3565b9150614137826140f2565b91506141438284613ca3565b91508190509392505050565b6000602082019050818103600083015261416981846136ce565b905092915050565b7f4e487b7100000000000000000000000000000000000000000000000000000000600052601160045260246000fd5b60006141ab826134eb565b91506141b6836134eb565b92508282026141c4816134eb565b915082820484148315176141db576141da614171565b5b5092915050565b60006141ed826134eb565b91506141f8836134eb565b92508282019050808211156142105761420f614171565b5b92915050565b7f4e487b7100000000000000000000000000000000000000000000000000000000600052603260045260246000fd5b6000614250826134eb565b91506000820361426357614262614171565b5b600182039050919050565b7f537472696e67733a20686578206c656e67746820696e73756666696369656e74600082015250565b60006142a46020836136bd565b91506142af8261426e565b602082019050919050565b600060208201905081810360008301526142d381614297565b905091905056fea2646970667358221220485b7540f9c05183ad9caad2edf818bd133fe71411166117107e8489153aaf4064736f6c63430008110033",
  "linkReferences": {},
  "deployedLinkReferences": {}
}