{
  "_format": "hh-sol-artifact-1",
  "contractName": "Factory",
  "sourceName": "contracts/Factory.sol",
  "abi": [
    {
      "inputs": [
        {
          "internalType": "address",
          "name": "dictionary_",
          "type": "address"
        }
      ],
      "stateMutability": "nonpayable",
      "type": "constructor"
    },
    {
      "anonymous": false,
      "inputs": [
        {
          "indexed": true,
          "internalType": "address",
          "name": "creator",
          "type": "address"
        },
        {
          "indexed": false,
          "internalType": "address",
          "name": "collection",
          "type": "address"
        }
      ],
      "name": "LegionCreated",
      "type": "event"
    },
    {
      "anonymous": false,
      "inputs": [
        {
          "indexed": true,
          "internalType": "address",
          "name": "previousOwner",
          "type": "address"
        },
        {
          "indexed": true,
          "internalType": "address",
          "name": "newOwner",
          "type": "address"
        }
      ],
      "name": "OwnershipTransferred",
      "type": "event"
    },
    {
      "inputs": [
        {
          "internalType": "address",
          "name": "",
          "type": "address"
        }
      ],
      "name": "Collections",
      "outputs": [
        {
          "internalType": "address",
          "name": "",
          "type": "address"
        }
      ],
      "stateMutability": "view",
      "type": "function"
    },
    {
      "inputs": [
        {
          "internalType": "address",
          "name": "admin_",
          "type": "address"
        },
        {
          "internalType": "string",
          "name": "tgid_",
          "type": "string"
        },
        {
          "internalType": "string",
          "name": "public_key_",
          "type": "string"
        },
        {
          "internalType": "string",
          "name": "plain_id",
          "type": "string"
        }
      ],
      "name": "DeployLegion",
      "outputs": [
        {
          "internalType": "address",
          "name": "",
          "type": "address"
        }
      ],
      "stateMutability": "nonpayable",
      "type": "function"
    },
    {
      "inputs": [],
      "name": "dictionary",
      "outputs": [
        {
          "internalType": "address",
          "name": "",
          "type": "address"
        }
      ],
      "stateMutability": "view",
      "type": "function"
    },
    {
      "inputs": [],
      "name": "owner",
      "outputs": [
        {
          "internalType": "address",
          "name": "",
          "type": "address"
        }
      ],
      "stateMutability": "view",
      "type": "function"
    },
    {
      "inputs": [],
      "name": "renounceOwnership",
      "outputs": [],
      "stateMutability": "nonpayable",
      "type": "function"
    },
    {
      "inputs": [
        {
          "internalType": "address",
          "name": "newOwner",
          "type": "address"
        }
      ],
      "name": "transferOwnership",
      "outputs": [],
      "stateMutability": "nonpayable",
      "type": "function"
    },
    {
      "inputs": [],
      "name": "treasure_fund",
      "outputs": [
        {
          "internalType": "address payable",
          "name": "",
          "type": "address"
        }
      ],
      "stateMutability": "view",
      "type": "function"
    }
  ],
  "bytecode": "0x608060405234801561001057600080fd5b5060405162006e9838038062006e9883398181016040528101906100349190610207565b6100506100456100d860201b60201c565b6100e060201b60201c565b33600260006101000a81548173ffffffffffffffffffffffffffffffffffffffff021916908373ffffffffffffffffffffffffffffffffffffffff16021790555080600360006101000a81548173ffffffffffffffffffffffffffffffffffffffff021916908373ffffffffffffffffffffffffffffffffffffffff16021790555050610234565b600033905090565b60008060009054906101000a900473ffffffffffffffffffffffffffffffffffffffff169050816000806101000a81548173ffffffffffffffffffffffffffffffffffffffff021916908373ffffffffffffffffffffffffffffffffffffffff1602179055508173ffffffffffffffffffffffffffffffffffffffff168173ffffffffffffffffffffffffffffffffffffffff167f8be0079c531659141344cd1fd0a4f28419497f9722a3daafe3b4186f6b6457e060405160405180910390a35050565b600080fd5b600073ffffffffffffffffffffffffffffffffffffffff82169050919050565b60006101d4826101a9565b9050919050565b6101e4816101c9565b81146101ef57600080fd5b50565b600081519050610201816101db565b92915050565b60006020828403121561021d5761021c6101a4565b5b600061022b848285016101f2565b91505092915050565b616c5480620002446000396000f3fe60806040523480156200001157600080fd5b5060043610620000885760003560e01c806396c31f30116200006357806396c31f3014620000f1578063a31a1b681462000127578063f2fde38b1462000149578063f9a4bb1e14620001695762000088565b8063144ee425146200008d578063715018a614620000c35780638da5cb5b14620000cf575b600080fd5b620000ab6004803603810190620000a5919062000571565b6200018b565b604051620000ba9190620005b4565b60405180910390f35b620000cd620001be565b005b620000d9620001d6565b604051620000e89190620005b4565b60405180910390f35b6200010f600480360381019062000109919062000733565b620001ff565b6040516200011e9190620005b4565b60405180910390f35b62000131620002c3565b604051620001409190620005b4565b60405180910390f35b62000167600480360381019062000161919062000571565b620002e9565b005b6200017362000373565b60405162000182919062000827565b60405180910390f35b60016020528060005260406000206000915054906101000a900473ffffffffffffffffffffffffffffffffffffffff1681565b620001c862000399565b620001d460006200041e565b565b60008060009054906101000a900473ffffffffffffffffffffffffffffffffffffffff16905090565b600080600360009054906101000a900473ffffffffffffffffffffffffffffffffffffffff16868686866040516200023790620004ea565b62000247959493929190620008cd565b604051809103906000f08015801562000264573d6000803e3d6000fd5b5090503373ffffffffffffffffffffffffffffffffffffffff167ffb988978a7ef563ba6e086db0611ceb650c336283b77074de3159cc274c145fb82604051620002af9190620005b4565b60405180910390a280915050949350505050565b600360009054906101000a900473ffffffffffffffffffffffffffffffffffffffff1681565b620002f362000399565b600073ffffffffffffffffffffffffffffffffffffffff168173ffffffffffffffffffffffffffffffffffffffff160362000365576040517f08c379a00000000000000000000000000000000000000000000000000000000081526004016200035c90620009b5565b60405180910390fd5b62000370816200041e565b50565b600260009054906101000a900473ffffffffffffffffffffffffffffffffffffffff1681565b620003a3620004e2565b73ffffffffffffffffffffffffffffffffffffffff16620003c3620001d6565b73ffffffffffffffffffffffffffffffffffffffff16146200041c576040517f08c379a0000000000000000000000000000000000000000000000000000000008152600401620004139062000a27565b60405180910390fd5b565b60008060009054906101000a900473ffffffffffffffffffffffffffffffffffffffff169050816000806101000a81548173ffffffffffffffffffffffffffffffffffffffff021916908373ffffffffffffffffffffffffffffffffffffffff1602179055508173ffffffffffffffffffffffffffffffffffffffff168173ffffffffffffffffffffffffffffffffffffffff167f8be0079c531659141344cd1fd0a4f28419497f9722a3daafe3b4186f6b6457e060405160405180910390a35050565b600033905090565b6161d58062000a4a83390190565b6000604051905090565b600080fd5b600080fd5b600073ffffffffffffffffffffffffffffffffffffffff82169050919050565b600062000539826200050c565b9050919050565b6200054b816200052c565b81146200055757600080fd5b50565b6000813590506200056b8162000540565b92915050565b6000602082840312156200058a576200058962000502565b5b60006200059a848285016200055a565b91505092915050565b620005ae816200052c565b82525050565b6000602082019050620005cb6000830184620005a3565b92915050565b600080fd5b600080fd5b6000601f19601f8301169050919050565b7f4e487b7100000000000000000000000000000000000000000000000000000000600052604160045260246000fd5b6200062682620005db565b810181811067ffffffffffffffff82111715620006485762000647620005ec565b5b80604052505050565b60006200065d620004f8565b90506200066b82826200061b565b919050565b600067ffffffffffffffff8211156200068e576200068d620005ec565b5b6200069982620005db565b9050602081019050919050565b82818337600083830152505050565b6000620006cc620006c68462000670565b62000651565b905082815260208101848484011115620006eb57620006ea620005d6565b5b620006f8848285620006a6565b509392505050565b600082601f830112620007185762000717620005d1565b5b81356200072a848260208601620006b5565b91505092915050565b6000806000806080858703121562000750576200074f62000502565b5b600062000760878288016200055a565b945050602085013567ffffffffffffffff81111562000784576200078362000507565b5b620007928782880162000700565b935050604085013567ffffffffffffffff811115620007b657620007b562000507565b5b620007c48782880162000700565b925050606085013567ffffffffffffffff811115620007e857620007e762000507565b5b620007f68782880162000700565b91505092959194509250565b60006200080f826200050c565b9050919050565b620008218162000802565b82525050565b60006020820190506200083e600083018462000816565b92915050565b600081519050919050565b600082825260208201905092915050565b60005b838110156200088057808201518184015260208101905062000863565b60008484015250505050565b6000620008998262000844565b620008a581856200084f565b9350620008b781856020860162000860565b620008c281620005db565b840191505092915050565b600060a082019050620008e46000830188620005a3565b620008f36020830187620005a3565b81810360408301526200090781866200088c565b905081810360608301526200091d81856200088c565b905081810360808301526200093381846200088c565b90509695505050505050565b7f4f776e61626c653a206e6577206f776e657220697320746865207a65726f206160008201527f6464726573730000000000000000000000000000000000000000000000000000602082015250565b60006200099d6026836200084f565b9150620009aa826200093f565b604082019050919050565b60006020820190508181036000830152620009d0816200098e565b9050919050565b7f4f776e61626c653a2063616c6c6572206973206e6f7420746865206f776e6572600082015250565b600062000a0f6020836200084f565b915062000a1c82620009d7565b602082019050919050565b6000602082019050818103600083015262000a428162000a00565b905091905056fe60806040523480156200001157600080fd5b50604051620061d5380380620061d5833981810160405281019062000037919062000dfe565b620000576200004b6200048960201b60201c565b6200049160201b60201c565b66071afd498d0000600281905550620000756200055560201b60201c565b600360006101000a81548173ffffffffffffffffffffffffffffffffffffffff021916908373ffffffffffffffffffffffffffffffffffffffff160217905550620000ca6000801b336200057e60201b60201c565b620000fc7fcea62fe6ecc79e221c545bf918f804693c542ead2549e37c2bb9baa66ee2e157336200057e60201b60201c565b84600960006101000a81548173ffffffffffffffffffffffffffffffffffffffff021916908373ffffffffffffffffffffffffffffffffffffffff160217905550600062000150826200066f60201b60201c565b90503360048560405162000165919062000f30565b908152602001604051809103902060006101000a81548173ffffffffffffffffffffffffffffffffffffffff021916908373ffffffffffffffffffffffffffffffffffffffff160217905550336007604051620001c29062000f99565b908152602001604051809103902060006101000a81548173ffffffffffffffffffffffffffffffffffffffff021916908373ffffffffffffffffffffffffffffffffffffffff1602179055506040518060e001604052803373ffffffffffffffffffffffffffffffffffffffff1681526020018581526020016001151581526020013373ffffffffffffffffffffffffffffffffffffffff1681526020016040518060400160405280600181526020017f300000000000000000000000000000000000000000000000000000000000000081525081526020016040518060600160405280602c8152602001620061a9602c9139815260200182815250600660003373ffffffffffffffffffffffffffffffffffffffff1673ffffffffffffffffffffffffffffffffffffffff16815260200190815260200160002060008201518160000160006101000a81548173ffffffffffffffffffffffffffffffffffffffff021916908373ffffffffffffffffffffffffffffffffffffffff16021790555060208201518160010190816200035b9190620011f0565b5060408201518160020160006101000a81548160ff02191690831515021790555060608201518160020160016101000a81548173ffffffffffffffffffffffffffffffffffffffff021916908373ffffffffffffffffffffffffffffffffffffffff1602179055506080820151816003019081620003da9190620011f0565b5060a0820151816004019081620003f29190620011f0565b5060c08201518160050155905050600073ffffffffffffffffffffffffffffffffffffffff168573ffffffffffffffffffffffffffffffffffffffff160362000468576200046233856040518060600160405280602c8152602001620061a9602c913985620006a160201b60201c565b6200047d565b6200047c85858585620006a160201b60201c565b5b505050505050620013b4565b600033905090565b60008060009054906101000a900473ffffffffffffffffffffffffffffffffffffffff169050816000806101000a81548173ffffffffffffffffffffffffffffffffffffffff021916908373ffffffffffffffffffffffffffffffffffffffff1602179055508173ffffffffffffffffffffffffffffffffffffffff168173ffffffffffffffffffffffffffffffffffffffff167f8be0079c531659141344cd1fd0a4f28419497f9722a3daafe3b4186f6b6457e060405160405180910390a35050565b60008060009054906101000a900473ffffffffffffffffffffffffffffffffffffffff16905090565b62000590828262000b5160201b60201c565b6200066b57600180600084815260200190815260200160002060000160008373ffffffffffffffffffffffffffffffffffffffff1673ffffffffffffffffffffffffffffffffffffffff16815260200190815260200160002060006101000a81548160ff021916908315150217905550620006106200048960201b60201c565b73ffffffffffffffffffffffffffffffffffffffff168173ffffffffffffffffffffffffffffffffffffffff16837f2f8788117e7eff1d82e926ec794901d17c78024a50270940304540a733656f0d60405160405180910390a45b5050565b60008160405160200162000684919062001329565b604051602081830303815290604052805190602001209050919050565b83600484604051620006b4919062000f30565b908152602001604051809103902060006101000a81548173ffffffffffffffffffffffffffffffffffffffff021916908373ffffffffffffffffffffffffffffffffffffffff16021790555083600760405162000711906200139d565b908152602001604051809103902060006101000a81548173ffffffffffffffffffffffffffffffffffffffff021916908373ffffffffffffffffffffffffffffffffffffffff160217905550600062000770826200066f60201b60201c565b90506040518060e001604052808673ffffffffffffffffffffffffffffffffffffffff1681526020018581526020016001151581526020018673ffffffffffffffffffffffffffffffffffffffff1681526020016040518060400160405280600481526020017f4164616d00000000000000000000000000000000000000000000000000000000815250815260200184815260200182815250600660008773ffffffffffffffffffffffffffffffffffffffff1673ffffffffffffffffffffffffffffffffffffffff16815260200190815260200160002060008201518160000160006101000a81548173ffffffffffffffffffffffffffffffffffffffff021916908373ffffffffffffffffffffffffffffffffffffffff1602179055506020820151816001019081620008a69190620011f0565b5060408201518160020160006101000a81548160ff02191690831515021790555060608201518160020160016101000a81548173ffffffffffffffffffffffffffffffffffffffff021916908373ffffffffffffffffffffffffffffffffffffffff1602179055506080820151816003019081620009259190620011f0565b5060a08201518160040190816200093d9190620011f0565b5060c082015181600501559050506001600660008773ffffffffffffffffffffffffffffffffffffffff1673ffffffffffffffffffffffffffffffffffffffff16815260200190815260200160002060020160006101000a81548160ff02191690831515021790555033600660008773ffffffffffffffffffffffffffffffffffffffff1673ffffffffffffffffffffffffffffffffffffffff16815260200190815260200160002060020160016101000a81548173ffffffffffffffffffffffffffffffffffffffff021916908373ffffffffffffffffffffffffffffffffffffffff160217905550600062000a6f6040518060400160405280600181526020017f300000000000000000000000000000000000000000000000000000000000000081525062000bbc60201b60201c565b90506001600860008373ffffffffffffffffffffffffffffffffffffffff1673ffffffffffffffffffffffffffffffffffffffff16815260200190815260200160002060008873ffffffffffffffffffffffffffffffffffffffff1673ffffffffffffffffffffffffffffffffffffffff16815260200190815260200160002060006101000a81548160ff0219169083151502179055508573ffffffffffffffffffffffffffffffffffffffff167f908408e307fc569b417f6cbec5d5a06f44a0a505ac0479b47d421a4b2fd6a1e660405160405180910390a2505050505050565b60006001600084815260200190815260200160002060000160008373ffffffffffffffffffffffffffffffffffffffff1673ffffffffffffffffffffffffffffffffffffffff16815260200190815260200160002060009054906101000a900460ff16905092915050565b600060078260405162000bd0919062000f30565b908152602001604051809103902060009054906101000a900473ffffffffffffffffffffffffffffffffffffffff169050919050565b6000604051905090565b600080fd5b600080fd5b600073ffffffffffffffffffffffffffffffffffffffff82169050919050565b600062000c478262000c1a565b9050919050565b62000c598162000c3a565b811462000c6557600080fd5b50565b60008151905062000c798162000c4e565b92915050565b600080fd5b600080fd5b6000601f19601f8301169050919050565b7f4e487b7100000000000000000000000000000000000000000000000000000000600052604160045260246000fd5b62000cd48262000c89565b810181811067ffffffffffffffff8211171562000cf65762000cf562000c9a565b5b80604052505050565b600062000d0b62000c06565b905062000d19828262000cc9565b919050565b600067ffffffffffffffff82111562000d3c5762000d3b62000c9a565b5b62000d478262000c89565b9050602081019050919050565b60005b8381101562000d7457808201518184015260208101905062000d57565b60008484015250505050565b600062000d9762000d918462000d1e565b62000cff565b90508281526020810184848401111562000db65762000db562000c84565b5b62000dc384828562000d54565b509392505050565b600082601f83011262000de35762000de262000c7f565b5b815162000df584826020860162000d80565b91505092915050565b600080600080600060a0868803121562000e1d5762000e1c62000c10565b5b600062000e2d8882890162000c68565b955050602062000e408882890162000c68565b945050604086015167ffffffffffffffff81111562000e645762000e6362000c15565b5b62000e728882890162000dcb565b935050606086015167ffffffffffffffff81111562000e965762000e9562000c15565b5b62000ea48882890162000dcb565b925050608086015167ffffffffffffffff81111562000ec85762000ec762000c15565b5b62000ed68882890162000dcb565b9150509295509295909350565b600081519050919050565b600081905092915050565b600062000f068262000ee3565b62000f12818562000eee565b935062000f2481856020860162000d54565b80840191505092915050565b600062000f3e828462000ef9565b915081905092915050565b7f3000000000000000000000000000000000000000000000000000000000000000600082015250565b600062000f8160018362000eee565b915062000f8e8262000f49565b600182019050919050565b600062000fa68262000f72565b9150819050919050565b7f4e487b7100000000000000000000000000000000000000000000000000000000600052602260045260246000fd5b6000600282049050600182168062000ff857607f821691505b6020821081036200100e576200100d62000fb0565b5b50919050565b60008190508160005260206000209050919050565b60006020601f8301049050919050565b600082821b905092915050565b600060088302620010787fffffffffffffffffffffffffffffffffffffffffffffffffffffffffffffffff8262001039565b62001084868362001039565b95508019841693508086168417925050509392505050565b6000819050919050565b6000819050919050565b6000620010d1620010cb620010c5846200109c565b620010a6565b6200109c565b9050919050565b6000819050919050565b620010ed83620010b0565b62001105620010fc82620010d8565b84845462001046565b825550505050565b600090565b6200111c6200110d565b62001129818484620010e2565b505050565b5b8181101562001151576200114560008262001112565b6001810190506200112f565b5050565b601f821115620011a0576200116a8162001014565b620011758462001029565b8101602085101562001185578190505b6200119d620011948562001029565b8301826200112e565b50505b505050565b600082821c905092915050565b6000620011c560001984600802620011a5565b1980831691505092915050565b6000620011e08383620011b2565b9150826002028217905092915050565b620011fb8262000ee3565b67ffffffffffffffff81111562001217576200121662000c9a565b5b62001223825462000fdf565b6200123082828562001155565b600060209050601f83116001811462001268576000841562001253578287015190505b6200125f8582620011d2565b865550620012cf565b601f198416620012788662001014565b60005b82811015620012a2578489015182556001820191506020850194506020810190506200127b565b86831015620012c25784890151620012be601f891682620011b2565b8355505b6001600288020188555050505b505050505050565b600082825260208201905092915050565b6000620012f58262000ee3565b620013018185620012d7565b93506200131381856020860162000d54565b6200131e8162000c89565b840191505092915050565b60006020820190508181036000830152620013458184620012e8565b905092915050565b7f4164616d00000000000000000000000000000000000000000000000000000000600082015250565b60006200138560048362000eee565b915062001392826200134d565b600482019050919050565b6000620013aa8262001376565b9150819050919050565b614de580620013c46000396000f3fe6080604052600436106101f95760003560e01c806361cabe371161010d57806391d14854116100a0578063b932fbfa1161006f578063b932fbfa14610796578063d2114e18146107d3578063d2125bd214610810578063d547741f14610839578063f2fde38b14610862576101f9565b806391d14854146106c85780639b45179f146107055780639e026a3b1461072e578063a217fddf1461076b576101f9565b8063841a65e1116100dc578063841a65e11461060757806386e81ba514610644578063873f30c7146106815780638da5cb5b1461069d576101f9565b806361cabe371461055f578063679b06be1461059c5780636e312028146105b3578063715018a6146105f0576101f9565b80632067eac81161019057806336568abe1161015f57806336568abe1461047857806338743904146104a1578063460e6c9c146104cc57806348dc1561146105095780635d1ce88f14610534576101f9565b80632067eac8146103c0578063248a9ca3146103e9578063286b2e54146104265780632f2ff15d1461044f576101f9565b80630d48cae8116101cc5780630d48cae8146102cc57806315905bdd146103095780631892fd78146103465780631a519ce814610383576101f9565b8063018d3dc9146101fe57806301ffc9a714610227578063095f0773146102645780630ae50a39146102a1575b600080fd5b34801561020a57600080fd5b50610225600480360381019061022091906138e0565b61088b565b005b34801561023357600080fd5b5061024e600480360381019061024991906139b0565b610a09565b60405161025b91906139f8565b60405180910390f35b34801561027057600080fd5b5061028b60048036038101906102869190613a49565b610a83565b6040516102989190613af5565b60405180910390f35b3480156102ad57600080fd5b506102b6610b23565b6040516102c39190613b58565b60405180910390f35b3480156102d857600080fd5b506102f360048036038101906102ee9190613b73565b610b4d565b6040516103009190613cdd565b60405180910390f35b34801561031557600080fd5b50610330600480360381019061032b9190613b73565b610e41565b60405161033d9190613b58565b60405180910390f35b34801561035257600080fd5b5061036d60048036038101906103689190613d2b565b610e89565b60405161037a9190613cdd565b60405180910390f35b34801561038f57600080fd5b506103aa60048036038101906103a59190613b73565b61116f565b6040516103b79190613cdd565b60405180910390f35b3480156103cc57600080fd5b506103e760048036038101906103e29190613d2b565b611463565b005b3480156103f557600080fd5b50610410600480360381019061040b9190613a49565b611811565b60405161041d9190613d67565b60405180910390f35b34801561043257600080fd5b5061044d60048036038101906104489190613b73565b611831565b005b34801561045b57600080fd5b5061047660048036038101906104719190613d82565b611ca1565b005b34801561048457600080fd5b5061049f600480360381019061049a9190613d82565b611cc2565b005b3480156104ad57600080fd5b506104b6611d45565b6040516104c39190613d67565b60405180910390f35b3480156104d857600080fd5b506104f360048036038101906104ee9190613dc2565b611d69565b60405161050091906139f8565b60405180910390f35b34801561051557600080fd5b5061051e611d98565b60405161052b9190613e1b565b60405180910390f35b34801561054057600080fd5b50610549611da2565b6040516105569190613d67565b60405180910390f35b34801561056b57600080fd5b5061058660048036038101906105819190613d2b565b611dca565b6040516105939190613af5565b60405180910390f35b3480156105a857600080fd5b506105b1611de6565b005b3480156105bf57600080fd5b506105da60048036038101906105d59190613b73565b611e8d565b6040516105e79190613b58565b60405180910390f35b3480156105fc57600080fd5b50610605611ed6565b005b34801561061357600080fd5b5061062e60048036038101906106299190613a49565b611eea565b60405161063b9190613af5565b60405180910390f35b34801561065057600080fd5b5061066b60048036038101906106669190613b73565b611f8f565b6040516106789190613b58565b60405180910390f35b61069b60048036038101906106969190613e36565b611fd8565b005b3480156106a957600080fd5b506106b261242c565b6040516106bf9190613b58565b60405180910390f35b3480156106d457600080fd5b506106ef60048036038101906106ea9190613d82565b612455565b6040516106fc91906139f8565b60405180910390f35b34801561071157600080fd5b5061072c600480360381019061072791906138e0565b6124c0565b005b34801561073a57600080fd5b5061075560048036038101906107509190613b73565b61281c565b6040516107629190613d67565b60405180910390f35b34801561077757600080fd5b5061078061284c565b60405161078d9190613d67565b60405180910390f35b3480156107a257600080fd5b506107bd60048036038101906107b89190613d2b565b612853565b6040516107ca9190613af5565b60405180910390f35b3480156107df57600080fd5b506107fa60048036038101906107f59190613b73565b612875565b6040516108079190613b58565b60405180910390f35b34801561081c57600080fd5b5061083760048036038101906108329190613f69565b6128bd565b005b34801561084557600080fd5b50610860600480360381019061085b9190613d82565b6128cf565b005b34801561086e57600080fd5b5061088960048036038101906108849190613d2b565b6128f0565b005b600061089682612875565b905060006108a384612875565b90503373ffffffffffffffffffffffffffffffffffffffff168273ffffffffffffffffffffffffffffffffffffffff1614610913576040517f08c379a000000000000000000000000000000000000000000000000000000000815260040161090a90614008565b60405180910390fd5b6000600660008473ffffffffffffffffffffffffffffffffffffffff1673ffffffffffffffffffffffffffffffffffffffff16815260200190815260200160002060020160006101000a81548160ff0219169083151502179055506000600860008373ffffffffffffffffffffffffffffffffffffffff1673ffffffffffffffffffffffffffffffffffffffff16815260200190815260200160002060003373ffffffffffffffffffffffffffffffffffffffff1673ffffffffffffffffffffffffffffffffffffffff16815260200190815260200160002060006101000a81548160ff02191690831515021790555050505050565b60007f7965db0b000000000000000000000000000000000000000000000000000000007bffffffffffffffffffffffffffffffffffffffffffffffffffffffff1916827bffffffffffffffffffffffffffffffffffffffffffffffffffffffff19161480610a7c5750610a7b82612973565b5b9050919050565b60056020528060005260406000206000915090508054610aa290614057565b80601f0160208091040260200160405190810160405280929190818152602001828054610ace90614057565b8015610b1b5780601f10610af057610100808354040283529160200191610b1b565b820191906000526020600020905b815481529060010190602001808311610afe57829003601f168201915b505050505081565b6000600360009054906101000a900473ffffffffffffffffffffffffffffffffffffffff16905090565b610b556136bb565b6000610b6083612875565b90506000600660008373ffffffffffffffffffffffffffffffffffffffff1673ffffffffffffffffffffffffffffffffffffffff1681526020019081526020016000206040518060e00160405290816000820160009054906101000a900473ffffffffffffffffffffffffffffffffffffffff1673ffffffffffffffffffffffffffffffffffffffff1673ffffffffffffffffffffffffffffffffffffffff168152602001600182018054610c1490614057565b80601f0160208091040260200160405190810160405280929190818152602001828054610c4090614057565b8015610c8d5780601f10610c6257610100808354040283529160200191610c8d565b820191906000526020600020905b815481529060010190602001808311610c7057829003601f168201915b505050505081526020016002820160009054906101000a900460ff161515151581526020016002820160019054906101000a900473ffffffffffffffffffffffffffffffffffffffff1673ffffffffffffffffffffffffffffffffffffffff1673ffffffffffffffffffffffffffffffffffffffff168152602001600382018054610d1790614057565b80601f0160208091040260200160405190810160405280929190818152602001828054610d4390614057565b8015610d905780601f10610d6557610100808354040283529160200191610d90565b820191906000526020600020905b815481529060010190602001808311610d7357829003601f168201915b50505050508152602001600482018054610da990614057565b80601f0160208091040260200160405190810160405280929190818152602001828054610dd590614057565b8015610e225780601f10610df757610100808354040283529160200191610e22565b820191906000526020600020905b815481529060010190602001808311610e0557829003601f168201915b5050505050815260200160058201548152505090508092505050919050565b6000600482604051610e5391906140c4565b908152602001604051809103902060009054906101000a900473ffffffffffffffffffffffffffffffffffffffff169050919050565b610e916136bb565b6000600660008473ffffffffffffffffffffffffffffffffffffffff1673ffffffffffffffffffffffffffffffffffffffff1681526020019081526020016000206040518060e00160405290816000820160009054906101000a900473ffffffffffffffffffffffffffffffffffffffff1673ffffffffffffffffffffffffffffffffffffffff1673ffffffffffffffffffffffffffffffffffffffff168152602001600182018054610f4390614057565b80601f0160208091040260200160405190810160405280929190818152602001828054610f6f90614057565b8015610fbc5780601f10610f9157610100808354040283529160200191610fbc565b820191906000526020600020905b815481529060010190602001808311610f9f57829003601f168201915b505050505081526020016002820160009054906101000a900460ff161515151581526020016002820160019054906101000a900473ffffffffffffffffffffffffffffffffffffffff1673ffffffffffffffffffffffffffffffffffffffff1673ffffffffffffffffffffffffffffffffffffffff16815260200160038201805461104690614057565b80601f016020809104026020016040519081016040528092919081815260200182805461107290614057565b80156110bf5780601f10611094576101008083540402835291602001916110bf565b820191906000526020600020905b8154815290600101906020018083116110a257829003601f168201915b505050505081526020016004820180546110d890614057565b80601f016020809104026020016040519081016040528092919081815260200182805461110490614057565b80156111515780601f1061112657610100808354040283529160200191611151565b820191906000526020600020905b81548152906001019060200180831161113457829003601f168201915b50505050508152602001600582015481525050905080915050919050565b6111776136bb565b600061118283610e41565b90506000600660008373ffffffffffffffffffffffffffffffffffffffff1673ffffffffffffffffffffffffffffffffffffffff1681526020019081526020016000206040518060e00160405290816000820160009054906101000a900473ffffffffffffffffffffffffffffffffffffffff1673ffffffffffffffffffffffffffffffffffffffff1673ffffffffffffffffffffffffffffffffffffffff16815260200160018201805461123690614057565b80601f016020809104026020016040519081016040528092919081815260200182805461126290614057565b80156112af5780601f10611284576101008083540402835291602001916112af565b820191906000526020600020905b81548152906001019060200180831161129257829003601f168201915b505050505081526020016002820160009054906101000a900460ff161515151581526020016002820160019054906101000a900473ffffffffffffffffffffffffffffffffffffffff1673ffffffffffffffffffffffffffffffffffffffff1673ffffffffffffffffffffffffffffffffffffffff16815260200160038201805461133990614057565b80601f016020809104026020016040519081016040528092919081815260200182805461136590614057565b80156113b25780601f10611387576101008083540402835291602001916113b2565b820191906000526020600020905b81548152906001019060200180831161139557829003601f168201915b505050505081526020016004820180546113cb90614057565b80601f01602080910402602001604051908101604052809291908181526020018280546113f790614057565b80156114445780601f1061141957610100808354040283529160200191611444565b820191906000526020600020905b81548152906001019060200180831161142757829003601f168201915b5050505050815260200160058201548152505090508092505050919050565b7fcea62fe6ecc79e221c545bf918f804693c542ead2549e37c2bb9baa66ee2e15761148d816129dd565b6000600660008473ffffffffffffffffffffffffffffffffffffffff1673ffffffffffffffffffffffffffffffffffffffff16815260200190815260200160002060010180546114dc90614057565b80601f016020809104026020016040519081016040528092919081815260200182805461150890614057565b80156115555780601f1061152a57610100808354040283529160200191611555565b820191906000526020600020905b81548152906001019060200180831161153857829003601f168201915b505050505090506000600660008573ffffffffffffffffffffffffffffffffffffffff1673ffffffffffffffffffffffffffffffffffffffff16815260200190815260200160002060030180546115ab90614057565b80601f01602080910402602001604051908101604052809291908181526020018280546115d790614057565b80156116245780601f106115f957610100808354040283529160200191611624565b820191906000526020600020905b81548152906001019060200180831161160757829003601f168201915b50505050509050600046905060058114611673576040517f08c379a000000000000000000000000000000000000000000000000000000000815260040161166a90614127565b60405180910390fd5b600660008673ffffffffffffffffffffffffffffffffffffffff1673ffffffffffffffffffffffffffffffffffffffff168152602001908152602001600020600080820160006101000a81549073ffffffffffffffffffffffffffffffffffffffff02191690556001820160006116ea9190613729565b6002820160006101000a81549060ff02191690556002820160016101000a81549073ffffffffffffffffffffffffffffffffffffffff02191690556003820160006117359190613729565b6004820160006117459190613729565b6005820160009055505060048360405161175f91906140c4565b908152602001604051809103902060006101000a81549073ffffffffffffffffffffffffffffffffffffffff02191690556007826040516117a091906140c4565b908152602001604051809103902060006101000a81549073ffffffffffffffffffffffffffffffffffffffff02191690557fe444442b4fc5a03103c68bde16932de23949be11145d1b4707d817bfb50557388386604051611802929190614147565b60405180910390a15050505050565b600060016000838152602001908152602001600020600101549050919050565b600061183c82610e41565b90506000600660008373ffffffffffffffffffffffffffffffffffffffff1673ffffffffffffffffffffffffffffffffffffffff168152602001908152602001600020600301805461188d90614057565b80601f01602080910402602001604051908101604052809291908181526020018280546118b990614057565b80156119065780601f106118db57610100808354040283529160200191611906565b820191906000526020600020905b8154815290600101906020018083116118e957829003601f168201915b5050505050905060001515600660008473ffffffffffffffffffffffffffffffffffffffff1673ffffffffffffffffffffffffffffffffffffffff16815260200190815260200160002060020160009054906101000a900460ff161515146119a3576040517f08c379a000000000000000000000000000000000000000000000000000000000815260040161199a906141e9565b60405180910390fd5b6000600860003373ffffffffffffffffffffffffffffffffffffffff1673ffffffffffffffffffffffffffffffffffffffff16815260200190815260200160002060008473ffffffffffffffffffffffffffffffffffffffff1673ffffffffffffffffffffffffffffffffffffffff16815260200190815260200160002060009054906101000a900460ff1690506000151581151514611a78576040517f08c379a0000000000000000000000000000000000000000000000000000000008152600401611a6f90614255565b60405180910390fd5b600660008473ffffffffffffffffffffffffffffffffffffffff1673ffffffffffffffffffffffffffffffffffffffff168152602001908152602001600020600080820160006101000a81549073ffffffffffffffffffffffffffffffffffffffff0219169055600182016000611aef9190613729565b6002820160006101000a81549060ff02191690556002820160016101000a81549073ffffffffffffffffffffffffffffffffffffffff0219169055600382016000611b3a9190613729565b600482016000611b4a9190613729565b60058201600090555050600484604051611b6491906140c4565b908152602001604051809103902060006101000a81549073ffffffffffffffffffffffffffffffffffffffff0219169055600782604051611ba591906140c4565b908152602001604051809103902060006101000a81549073ffffffffffffffffffffffffffffffffffffffff0219169055600860003373ffffffffffffffffffffffffffffffffffffffff1673ffffffffffffffffffffffffffffffffffffffff16815260200190815260200160002060008473ffffffffffffffffffffffffffffffffffffffff1673ffffffffffffffffffffffffffffffffffffffff16815260200190815260200160002060006101000a81549060ff02191690557fe444442b4fc5a03103c68bde16932de23949be11145d1b4707d817bfb50557388484604051611c93929190614147565b60405180910390a150505050565b611caa82611811565b611cb3816129dd565b611cbd83836129f1565b505050565b611cca612ad1565b73ffffffffffffffffffffffffffffffffffffffff168173ffffffffffffffffffffffffffffffffffffffff1614611d37576040517f08c379a0000000000000000000000000000000000000000000000000000000008152600401611d2e906142e7565b60405180910390fd5b611d418282612ad9565b5050565b7fcea62fe6ecc79e221c545bf918f804693c542ead2549e37c2bb9baa66ee2e15781565b60086020528160005260406000206020528060005260406000206000915091509054906101000a900460ff1681565b6000600254905090565b60007fcea62fe6ecc79e221c545bf918f804693c542ead2549e37c2bb9baa66ee2e157905090565b60606000611dd783610e89565b90508060200151915050919050565b6000600660003373ffffffffffffffffffffffffffffffffffffffff1673ffffffffffffffffffffffffffffffffffffffff16815260200190815260200160002060020160009054906101000a900460ff1690506000151581151514611e81576040517f08c379a0000000000000000000000000000000000000000000000000000000008152600401611e7890614353565b60405180910390fd5b611e8a33612bbb565b50565b6007818051602081018201805184825260208301602085012081835280955050505050506000915054906101000a900473ffffffffffffffffffffffffffffffffffffffff1681565b611ede612ef5565b611ee86000612f73565b565b6060600560008381526020019081526020016000208054611f0a90614057565b80601f0160208091040260200160405190810160405280929190818152602001828054611f3690614057565b8015611f835780601f10611f5857610100808354040283529160200191611f83565b820191906000526020600020905b815481529060010190602001808311611f6657829003601f168201915b50505050509050919050565b6004818051602081018201805184825260208301602085012081835280955050505050506000915054906101000a900473ffffffffffffffffffffffffffffffffffffffff1681565b60003390506002543414612021576040517f08c379a0000000000000000000000000000000000000000000000000000000008152600401612018906143bf565b60405180910390fd5b600060078560405161203391906140c4565b908152602001604051809103902060009054906101000a900473ffffffffffffffffffffffffffffffffffffffff169050600061206f8461281c565b90506040518060e001604052808473ffffffffffffffffffffffffffffffffffffffff1681526020018981526020016000151581526020018373ffffffffffffffffffffffffffffffffffffffff16815260200188815260200186815260200182815250600660003373ffffffffffffffffffffffffffffffffffffffff1673ffffffffffffffffffffffffffffffffffffffff16815260200190815260200160002060008201518160000160006101000a81548173ffffffffffffffffffffffffffffffffffffffff021916908373ffffffffffffffffffffffffffffffffffffffff160217905550602082015181600101908161216e919061458b565b5060408201518160020160006101000a81548160ff02191690831515021790555060608201518160020160016101000a81548173ffffffffffffffffffffffffffffffffffffffff021916908373ffffffffffffffffffffffffffffffffffffffff16021790555060808201518160030190816121eb919061458b565b5060a0820151816004019081612201919061458b565b5060c082015181600501559050506000600360009054906101000a900473ffffffffffffffffffffffffffffffffffffffff1673ffffffffffffffffffffffffffffffffffffffff166002546040516122599061468e565b60006040518083038185875af1925050503d8060008114612296576040519150601f19603f3d011682016040523d82523d6000602084013e61229b565b606091505b50509050806122df576040517f08c379a00000000000000000000000000000000000000000000000000000000081526004016122d6906146ef565b60405180910390fd5b6122ec89858a8a89613037565b8273ffffffffffffffffffffffffffffffffffffffff167f435b683210e9cdb43126109baed7a6a387c609e0e13532755b51016e1b773a6b8a33604051612334929190614147565b60405180910390a28273ffffffffffffffffffffffffffffffffffffffff167f71ec84cb0c406d66954dcb2481d75f63a94ed77283afa5657d56e68a20df3c528a33604051612384929190614147565b60405180910390a26000600860008573ffffffffffffffffffffffffffffffffffffffff1673ffffffffffffffffffffffffffffffffffffffff16815260200190815260200160002060003373ffffffffffffffffffffffffffffffffffffffff1673ffffffffffffffffffffffffffffffffffffffff16815260200190815260200160002060006101000a81548160ff021916908315150217905550505050505050505050565b60008060009054906101000a900473ffffffffffffffffffffffffffffffffffffffff16905090565b60006001600084815260200190815260200160002060000160008373ffffffffffffffffffffffffffffffffffffffff1673ffffffffffffffffffffffffffffffffffffffff16815260200190815260200160002060009054906101000a900460ff16905092915050565b60006007826040516124d291906140c4565b908152602001604051809103902060009054906101000a900473ffffffffffffffffffffffffffffffffffffffff1690503373ffffffffffffffffffffffffffffffffffffffff168173ffffffffffffffffffffffffffffffffffffffff1614612571576040517f08c379a00000000000000000000000000000000000000000000000000000000081526004016125689061475b565b60405180910390fd5b600061257c84610e41565b90506000600860008473ffffffffffffffffffffffffffffffffffffffff1673ffffffffffffffffffffffffffffffffffffffff16815260200190815260200160002060008373ffffffffffffffffffffffffffffffffffffffff1673ffffffffffffffffffffffffffffffffffffffff16815260200190815260200160002060009054906101000a900460ff1690506000151581151514612653576040517f08c379a000000000000000000000000000000000000000000000000000000000815260040161264a906147c7565b60405180910390fd5b6001600660008473ffffffffffffffffffffffffffffffffffffffff1673ffffffffffffffffffffffffffffffffffffffff16815260200190815260200160002060020160006101000a81548160ff02191690831515021790555033600660008473ffffffffffffffffffffffffffffffffffffffff1673ffffffffffffffffffffffffffffffffffffffff16815260200190815260200160002060020160016101000a81548173ffffffffffffffffffffffffffffffffffffffff021916908373ffffffffffffffffffffffffffffffffffffffff1602179055506001600860008573ffffffffffffffffffffffffffffffffffffffff1673ffffffffffffffffffffffffffffffffffffffff16815260200190815260200160002060008473ffffffffffffffffffffffffffffffffffffffff1673ffffffffffffffffffffffffffffffffffffffff16815260200190815260200160002060006101000a81548160ff0219169083151502179055508173ffffffffffffffffffffffffffffffffffffffff167fadbeb0a5d66e2be993428864e5c86f7c8aa562e2c58131d193ac2eeb7443817a84600160405161280d9291906147e7565b60405180910390a25050505050565b60008160405160200161282f9190613af5565b604051602081830303815290604052805190602001209050919050565b6000801b81565b6060600061286083610e89565b905060008160a0015190508092505050919050565b600060078260405161288791906140c4565b908152602001604051809103902060009054906101000a900473ffffffffffffffffffffffffffffffffffffffff169050919050565b6128c5612ef5565b8060028190555050565b6128d882611811565b6128e1816129dd565b6128eb8383612ad9565b505050565b6128f8612ef5565b600073ffffffffffffffffffffffffffffffffffffffff168173ffffffffffffffffffffffffffffffffffffffff1603612967576040517f08c379a000000000000000000000000000000000000000000000000000000000815260040161295e90614882565b60405180910390fd5b61297081612f73565b50565b60007f01ffc9a7000000000000000000000000000000000000000000000000000000007bffffffffffffffffffffffffffffffffffffffffffffffffffffffff1916827bffffffffffffffffffffffffffffffffffffffffffffffffffffffff1916149050919050565b6129ee816129e9612ad1565b6133cd565b50565b6129fb8282612455565b612acd57600180600084815260200190815260200160002060000160008373ffffffffffffffffffffffffffffffffffffffff1673ffffffffffffffffffffffffffffffffffffffff16815260200190815260200160002060006101000a81548160ff021916908315150217905550612a72612ad1565b73ffffffffffffffffffffffffffffffffffffffff168173ffffffffffffffffffffffffffffffffffffffff16837f2f8788117e7eff1d82e926ec794901d17c78024a50270940304540a733656f0d60405160405180910390a45b5050565b600033905090565b612ae38282612455565b15612bb75760006001600084815260200190815260200160002060000160008373ffffffffffffffffffffffffffffffffffffffff1673ffffffffffffffffffffffffffffffffffffffff16815260200190815260200160002060006101000a81548160ff021916908315150217905550612b5c612ad1565b73ffffffffffffffffffffffffffffffffffffffff168173ffffffffffffffffffffffffffffffffffffffff16837ff6391f5c32d9c69d2a47ea670b442974b53935d1edc7fd64eb21e047a839171b60405160405180910390a45b5050565b6000600660008373ffffffffffffffffffffffffffffffffffffffff1673ffffffffffffffffffffffffffffffffffffffff1681526020019081526020016000206001018054612c0a90614057565b80601f0160208091040260200160405190810160405280929190818152602001828054612c3690614057565b8015612c835780601f10612c5857610100808354040283529160200191612c83565b820191906000526020600020905b815481529060010190602001808311612c6657829003601f168201915b505050505090506000600660008473ffffffffffffffffffffffffffffffffffffffff1673ffffffffffffffffffffffffffffffffffffffff1681526020019081526020016000206003018054612cd990614057565b80601f0160208091040260200160405190810160405280929190818152602001828054612d0590614057565b8015612d525780601f10612d2757610100808354040283529160200191612d52565b820191906000526020600020905b815481529060010190602001808311612d3557829003601f168201915b50505050509050600660008473ffffffffffffffffffffffffffffffffffffffff1673ffffffffffffffffffffffffffffffffffffffff168152602001908152602001600020600080820160006101000a81549073ffffffffffffffffffffffffffffffffffffffff0219169055600182016000612dd09190613729565b6002820160006101000a81549060ff02191690556002820160016101000a81549073ffffffffffffffffffffffffffffffffffffffff0219169055600382016000612e1b9190613729565b600482016000612e2b9190613729565b60058201600090555050600482604051612e4591906140c4565b908152602001604051809103902060006101000a81549073ffffffffffffffffffffffffffffffffffffffff0219169055600781604051612e8691906140c4565b908152602001604051809103902060006101000a81549073ffffffffffffffffffffffffffffffffffffffff02191690557fe444442b4fc5a03103c68bde16932de23949be11145d1b4707d817bfb50557388284604051612ee8929190614147565b60405180910390a1505050565b612efd612ad1565b73ffffffffffffffffffffffffffffffffffffffff16612f1b61242c565b73ffffffffffffffffffffffffffffffffffffffff1614612f71576040517f08c379a0000000000000000000000000000000000000000000000000000000008152600401612f68906148ee565b60405180910390fd5b565b60008060009054906101000a900473ffffffffffffffffffffffffffffffffffffffff169050816000806101000a81548173ffffffffffffffffffffffffffffffffffffffff021916908373ffffffffffffffffffffffffffffffffffffffff1602179055508173ffffffffffffffffffffffffffffffffffffffff168173ffffffffffffffffffffffffffffffffffffffff167f8be0079c531659141344cd1fd0a4f28419497f9722a3daafe3b4186f6b6457e060405160405180910390a35050565b60006130428261281c565b9050600073ffffffffffffffffffffffffffffffffffffffff1660048760405161306c91906140c4565b908152602001604051809103902060009054906101000a900473ffffffffffffffffffffffffffffffffffffffff1673ffffffffffffffffffffffffffffffffffffffff16146130f1576040517f08c379a00000000000000000000000000000000000000000000000000000000081526004016130e890614980565b60405180910390fd5b600060056000838152602001908152602001600020805461311190614057565b905014613153576040517f08c379a000000000000000000000000000000000000000000000000000000000815260040161314a906149ec565b60405180910390fd5b6000600960009054906101000a900473ffffffffffffffffffffffffffffffffffffffff1673ffffffffffffffffffffffffffffffffffffffff1663a430c74486866040518363ffffffff1660e01b81526004016131b2929190614a0c565b602060405180830381865afa1580156131cf573d6000803e3d6000fd5b505050506040513d601f19601f820116820180604052508101906131f39190614a6f565b9050600115158115151461323c576040517f08c379a000000000000000000000000000000000000000000000000000000000815260040161323390614ae8565b60405180910390fd5b600073ffffffffffffffffffffffffffffffffffffffff1660078660405161326491906140c4565b908152602001604051809103902060009054906101000a900473ffffffffffffffffffffffffffffffffffffffff1673ffffffffffffffffffffffffffffffffffffffff16146132e9576040517f08c379a00000000000000000000000000000000000000000000000000000000081526004016132e090614b54565b60405180910390fd5b86600560008481526020019081526020016000209081613309919061458b565b508560048860405161331b91906140c4565b908152602001604051809103902060006101000a81548173ffffffffffffffffffffffffffffffffffffffff021916908373ffffffffffffffffffffffffffffffffffffffff1602179055508560078660405161337891906140c4565b908152602001604051809103902060006101000a81548173ffffffffffffffffffffffffffffffffffffffff021916908373ffffffffffffffffffffffffffffffffffffffff16021790555050505050505050565b6133d78282612455565b61344e576133e481613452565b6133f28360001c602061347f565b604051602001613403929190614c0c565b6040516020818303038152906040526040517f08c379a00000000000000000000000000000000000000000000000000000000081526004016134459190613af5565b60405180910390fd5b5050565b60606134788273ffffffffffffffffffffffffffffffffffffffff16601460ff1661347f565b9050919050565b6060600060028360026134929190614c75565b61349c9190614cb7565b67ffffffffffffffff8111156134b5576134b46137b5565b5b6040519080825280601f01601f1916602001820160405280156134e75781602001600182028036833780820191505090505b5090507f30000000000000000000000000000000000000000000000000000000000000008160008151811061351f5761351e614ceb565b5b60200101907effffffffffffffffffffffffffffffffffffffffffffffffffffffffffffff1916908160001a9053507f78000000000000000000000000000000000000000000000000000000000000008160018151811061358357613582614ceb565b5b60200101907effffffffffffffffffffffffffffffffffffffffffffffffffffffffffffff1916908160001a905350600060018460026135c39190614c75565b6135cd9190614cb7565b90505b600181111561366d577f3031323334353637383961626364656600000000000000000000000000000000600f86166010811061360f5761360e614ceb565b5b1a60f81b82828151811061362657613625614ceb565b5b60200101907effffffffffffffffffffffffffffffffffffffffffffffffffffffffffffff1916908160001a905350600485901c94508061366690614d1a565b90506135d0565b50600084146136b1576040517f08c379a00000000000000000000000000000000000000000000000000000000081526004016136a890614d8f565b60405180910390fd5b8091505092915050565b6040518060e00160405280600073ffffffffffffffffffffffffffffffffffffffff16815260200160608152602001600015158152602001600073ffffffffffffffffffffffffffffffffffffffff1681526020016060815260200160608152602001600080191681525090565b50805461373590614057565b6000825580601f106137475750613766565b601f0160209004906000526020600020908101906137659190613769565b5b50565b5b8082111561378257600081600090555060010161376a565b5090565b6000604051905090565b600080fd5b600080fd5b600080fd5b600080fd5b6000601f19601f8301169050919050565b7f4e487b7100000000000000000000000000000000000000000000000000000000600052604160045260246000fd5b6137ed826137a4565b810181811067ffffffffffffffff8211171561380c5761380b6137b5565b5b80604052505050565b600061381f613786565b905061382b82826137e4565b919050565b600067ffffffffffffffff82111561384b5761384a6137b5565b5b613854826137a4565b9050602081019050919050565b82818337600083830152505050565b600061388361387e84613830565b613815565b90508281526020810184848401111561389f5761389e61379f565b5b6138aa848285613861565b509392505050565b600082601f8301126138c7576138c661379a565b5b81356138d7848260208601613870565b91505092915050565b600080604083850312156138f7576138f6613790565b5b600083013567ffffffffffffffff81111561391557613914613795565b5b613921858286016138b2565b925050602083013567ffffffffffffffff81111561394257613941613795565b5b61394e858286016138b2565b9150509250929050565b60007fffffffff0000000000000000000000000000000000000000000000000000000082169050919050565b61398d81613958565b811461399857600080fd5b50565b6000813590506139aa81613984565b92915050565b6000602082840312156139c6576139c5613790565b5b60006139d48482850161399b565b91505092915050565b60008115159050919050565b6139f2816139dd565b82525050565b6000602082019050613a0d60008301846139e9565b92915050565b6000819050919050565b613a2681613a13565b8114613a3157600080fd5b50565b600081359050613a4381613a1d565b92915050565b600060208284031215613a5f57613a5e613790565b5b6000613a6d84828501613a34565b91505092915050565b600081519050919050565b600082825260208201905092915050565b60005b83811015613ab0578082015181840152602081019050613a95565b60008484015250505050565b6000613ac782613a76565b613ad18185613a81565b9350613ae1818560208601613a92565b613aea816137a4565b840191505092915050565b60006020820190508181036000830152613b0f8184613abc565b905092915050565b600073ffffffffffffffffffffffffffffffffffffffff82169050919050565b6000613b4282613b17565b9050919050565b613b5281613b37565b82525050565b6000602082019050613b6d6000830184613b49565b92915050565b600060208284031215613b8957613b88613790565b5b600082013567ffffffffffffffff811115613ba757613ba6613795565b5b613bb3848285016138b2565b91505092915050565b613bc581613b37565b82525050565b600082825260208201905092915050565b6000613be782613a76565b613bf18185613bcb565b9350613c01818560208601613a92565b613c0a816137a4565b840191505092915050565b613c1e816139dd565b82525050565b613c2d81613a13565b82525050565b600060e083016000830151613c4b6000860182613bbc565b5060208301518482036020860152613c638282613bdc565b9150506040830151613c786040860182613c15565b506060830151613c8b6060860182613bbc565b5060808301518482036080860152613ca38282613bdc565b91505060a083015184820360a0860152613cbd8282613bdc565b91505060c0830151613cd260c0860182613c24565b508091505092915050565b60006020820190508181036000830152613cf78184613c33565b905092915050565b613d0881613b37565b8114613d1357600080fd5b50565b600081359050613d2581613cff565b92915050565b600060208284031215613d4157613d40613790565b5b6000613d4f84828501613d16565b91505092915050565b613d6181613a13565b82525050565b6000602082019050613d7c6000830184613d58565b92915050565b60008060408385031215613d9957613d98613790565b5b6000613da785828601613a34565b9250506020613db885828601613d16565b9150509250929050565b60008060408385031215613dd957613dd8613790565b5b6000613de785828601613d16565b9250506020613df885828601613d16565b9150509250929050565b6000819050919050565b613e1581613e02565b82525050565b6000602082019050613e306000830184613e0c565b92915050565b600080600080600060a08688031215613e5257613e51613790565b5b600086013567ffffffffffffffff811115613e7057613e6f613795565b5b613e7c888289016138b2565b955050602086013567ffffffffffffffff811115613e9d57613e9c613795565b5b613ea9888289016138b2565b945050604086013567ffffffffffffffff811115613eca57613ec9613795565b5b613ed6888289016138b2565b935050606086013567ffffffffffffffff811115613ef757613ef6613795565b5b613f03888289016138b2565b925050608086013567ffffffffffffffff811115613f2457613f23613795565b5b613f30888289016138b2565b9150509295509295909350565b613f4681613e02565b8114613f5157600080fd5b50565b600081359050613f6381613f3d565b92915050565b600060208284031215613f7f57613f7e613790565b5b6000613f8d84828501613f54565b91505092915050565b7f757365727320616c6c6f776564206f6e6c7920746f20636c656172207468656d60008201527f73656c6673000000000000000000000000000000000000000000000000000000602082015250565b6000613ff2602583613a81565b9150613ffd82613f96565b604082019050919050565b6000602082019050818103600083015261402181613fe5565b9050919050565b7f4e487b7100000000000000000000000000000000000000000000000000000000600052602260045260246000fd5b6000600282049050600182168061406f57607f821691505b60208210810361408257614081614028565b5b50919050565b600081905092915050565b600061409e82613a76565b6140a88185614088565b93506140b8818560208601613a92565b80840191505092915050565b60006140d08284614093565b915081905092915050565b7f746573746e6574206f6e6c790000000000000000000000000000000000000000600082015250565b6000614111600c83613a81565b915061411c826140db565b602082019050919050565b6000602082019050818103600083015261414081614104565b9050919050565b600060408201905081810360008301526141618185613abc565b90506141706020830184613b49565b9392505050565b7f616c726561647920617070726f766564204f5220646f206e6f7420657869737460008201527f7320796574000000000000000000000000000000000000000000000000000000602082015250565b60006141d3602583613a81565b91506141de82614177565b604082019050919050565b60006020820190508181036000830152614202816141c6565b9050919050565b7f616c7265616479206c696e6b6564204f5220646f6e7420657869737473000000600082015250565b600061423f601d83613a81565b915061424a82614209565b602082019050919050565b6000602082019050818103600083015261426e81614232565b9050919050565b7f416363657373436f6e74726f6c3a2063616e206f6e6c792072656e6f756e636560008201527f20726f6c657320666f722073656c660000000000000000000000000000000000602082015250565b60006142d1602f83613a81565b91506142dc82614275565b604082019050919050565b60006020820190508181036000830152614300816142c4565b9050919050565b7f63616c6c20436c656172506172656e7420666972737400000000000000000000600082015250565b600061433d601683613a81565b915061434882614307565b602082019050919050565b6000602082019050818103600083015261436c81614330565b9050919050565b7f5265717565737420666565206973206e6f742070616964000000000000000000600082015250565b60006143a9601783613a81565b91506143b482614373565b602082019050919050565b600060208201905081810360008301526143d88161439c565b9050919050565b60008190508160005260206000209050919050565b60006020601f8301049050919050565b600082821b905092915050565b6000600883026144417fffffffffffffffffffffffffffffffffffffffffffffffffffffffffffffffff82614404565b61444b8683614404565b95508019841693508086168417925050509392505050565b6000819050919050565b600061448861448361447e84613e02565b614463565b613e02565b9050919050565b6000819050919050565b6144a28361446d565b6144b66144ae8261448f565b848454614411565b825550505050565b600090565b6144cb6144be565b6144d6818484614499565b505050565b5b818110156144fa576144ef6000826144c3565b6001810190506144dc565b5050565b601f82111561453f57614510816143df565b614519846143f4565b81016020851015614528578190505b61453c614534856143f4565b8301826144db565b50505b505050565b600082821c905092915050565b600061456260001984600802614544565b1980831691505092915050565b600061457b8383614551565b9150826002028217905092915050565b61459482613a76565b67ffffffffffffffff8111156145ad576145ac6137b5565b5b6145b78254614057565b6145c28282856144fe565b600060209050601f8311600181146145f557600084156145e3578287015190505b6145ed858261456f565b865550614655565b601f198416614603866143df565b60005b8281101561462b57848901518255600182019150602085019450602081019050614606565b868310156146485784890151614644601f891682614551565b8355505b6001600288020188555050505b505050505050565b600081905092915050565b50565b600061467860008361465d565b915061468382614668565b600082019050919050565b60006146998261466b565b9150819050919050565b7f556e61626c6520746f207472616e736665722066656500000000000000000000600082015250565b60006146d9601683613a81565b91506146e4826146a3565b602082019050919050565b60006020820190508181036000830152614708816146cc565b9050919050565b7f6f6e6c7920706172656e745f6e616d652063616e206163636570742069740000600082015250565b6000614745601e83613a81565b91506147508261470f565b602082019050919050565b6000602082019050818103600083015261477481614738565b9050919050565b7f616c726561647920726567697374726564000000000000000000000000000000600082015250565b60006147b1601183613a81565b91506147bc8261477b565b602082019050919050565b600060208201905081810360008301526147e0816147a4565b9050919050565b60006040820190506147fc6000830185613b49565b61480960208301846139e9565b9392505050565b7f4f776e61626c653a206e6577206f776e657220697320746865207a65726f206160008201527f6464726573730000000000000000000000000000000000000000000000000000602082015250565b600061486c602683613a81565b915061487782614810565b604082019050919050565b6000602082019050818103600083015261489b8161485f565b9050919050565b7f4f776e61626c653a2063616c6c6572206973206e6f7420746865206f776e6572600082015250565b60006148d8602083613a81565b91506148e3826148a2565b602082019050919050565b60006020820190508181036000830152614907816148cb565b9050919050565b7f5468657265206973206164647265737320636f6e6e656374656420746f20746860008201527f617420494420616c726561647900000000000000000000000000000000000000602082015250565b600061496a602d83613a81565b91506149758261490e565b604082019050919050565b600060208201905081810360008301526149998161495d565b9050919050565b7f5468697320706c61696e5f696420616c72656164792072656769737472656400600082015250565b60006149d6601f83613a81565b91506149e1826149a0565b602082019050919050565b60006020820190508181036000830152614a05816149c9565b9050919050565b60006040820190508181036000830152614a268185613abc565b90508181036020830152614a3a8184613abc565b90509392505050565b614a4c816139dd565b8114614a5757600080fd5b50565b600081519050614a6981614a43565b92915050565b600060208284031215614a8557614a84613790565b5b6000614a9384828501614a5a565b91505092915050565b7f64696374696f6e617279206572726f7200000000000000000000000000000000600082015250565b6000614ad2601083613a81565b9150614add82614a9c565b602082019050919050565b60006020820190508181036000830152614b0181614ac5565b9050919050565b7f636f64656e616d652074616b656e000000000000000000000000000000000000600082015250565b6000614b3e600e83613a81565b9150614b4982614b08565b602082019050919050565b60006020820190508181036000830152614b6d81614b31565b9050919050565b7f416363657373436f6e74726f6c3a206163636f756e7420000000000000000000600082015250565b6000614baa601783614088565b9150614bb582614b74565b601782019050919050565b7f206973206d697373696e6720726f6c6520000000000000000000000000000000600082015250565b6000614bf6601183614088565b9150614c0182614bc0565b601182019050919050565b6000614c1782614b9d565b9150614c238285614093565b9150614c2e82614be9565b9150614c3a8284614093565b91508190509392505050565b7f4e487b7100000000000000000000000000000000000000000000000000000000600052601160045260246000fd5b6000614c8082613e02565b9150614c8b83613e02565b9250828202614c9981613e02565b91508282048414831517614cb057614caf614c46565b5b5092915050565b6000614cc282613e02565b9150614ccd83613e02565b9250828201905080821115614ce557614ce4614c46565b5b92915050565b7f4e487b7100000000000000000000000000000000000000000000000000000000600052603260045260246000fd5b6000614d2582613e02565b915060008203614d3857614d37614c46565b5b600182039050919050565b7f537472696e67733a20686578206c656e67746820696e73756666696369656e74600082015250565b6000614d79602083613a81565b9150614d8482614d43565b602082019050919050565b60006020820190508181036000830152614da881614d6c565b905091905056fea2646970667358221220bb8c05004f5e52fcab88f5f261f5a6d4f94d935297779f7ddc9c4dcc7212702964736f6c634300081100337a6a58436a3969757365336748476141494967796169434f734a705157534345424261632f7a50477267513da2646970667358221220fe589c73c333ef8274b8ea8fd20687fdc1be69c77d49019c4a9c6b8c9956f52964736f6c63430008110033",
  "linkReferences": {},
  "deployedLinkReferences": {}
}