{
  "_format": "hh-sol-artifact-1",
  "contractName": "Factory",
  "sourceName": "contracts/Factory.sol",
  "abi": [
    {
      "inputs": [
        {
          "internalType": "address",
          "name": "dictionary_",
          "type": "address"
        }
      ],
      "stateMutability": "nonpayable",
      "type": "constructor"
    },
    {
      "anonymous": false,
      "inputs": [
        {
          "indexed": true,
          "internalType": "address",
          "name": "creator",
          "type": "address"
        },
        {
          "indexed": false,
          "internalType": "address",
          "name": "collection",
          "type": "address"
        }
      ],
      "name": "LegionCreated",
      "type": "event"
    },
    {
      "anonymous": false,
      "inputs": [
        {
          "indexed": true,
          "internalType": "address",
          "name": "previousOwner",
          "type": "address"
        },
        {
          "indexed": true,
          "internalType": "address",
          "name": "newOwner",
          "type": "address"
        }
      ],
      "name": "OwnershipTransferred",
      "type": "event"
    },
    {
      "inputs": [
        {
          "internalType": "address",
          "name": "",
          "type": "address"
        }
      ],
      "name": "Collections",
      "outputs": [
        {
          "internalType": "address",
          "name": "",
          "type": "address"
        }
      ],
      "stateMutability": "view",
      "type": "function"
    },
    {
      "inputs": [
        {
          "internalType": "address",
          "name": "admin",
          "type": "address"
        },
        {
          "internalType": "string",
          "name": "initCodename",
          "type": "string"
        },
        {
          "internalType": "string",
          "name": "email",
          "type": "string"
        },
        {
          "internalType": "string",
          "name": "public_key_",
          "type": "string"
        }
      ],
      "name": "DeployLegion",
      "outputs": [
        {
          "internalType": "address",
          "name": "",
          "type": "address"
        }
      ],
      "stateMutability": "nonpayable",
      "type": "function"
    },
    {
      "inputs": [],
      "name": "dictionary",
      "outputs": [
        {
          "internalType": "address",
          "name": "",
          "type": "address"
        }
      ],
      "stateMutability": "view",
      "type": "function"
    },
    {
      "inputs": [],
      "name": "owner",
      "outputs": [
        {
          "internalType": "address",
          "name": "",
          "type": "address"
        }
      ],
      "stateMutability": "view",
      "type": "function"
    },
    {
      "inputs": [],
      "name": "renounceOwnership",
      "outputs": [],
      "stateMutability": "nonpayable",
      "type": "function"
    },
    {
      "inputs": [
        {
          "internalType": "address",
          "name": "newOwner",
          "type": "address"
        }
      ],
      "name": "transferOwnership",
      "outputs": [],
      "stateMutability": "nonpayable",
      "type": "function"
    },
    {
      "inputs": [],
      "name": "treasure_fund",
      "outputs": [
        {
          "internalType": "address payable",
          "name": "",
          "type": "address"
        }
      ],
      "stateMutability": "view",
      "type": "function"
    }
  ],
  "bytecode": "0x608060405234801561001057600080fd5b5060405162003c0138038062003c0183398181016040528101906100349190610207565b6100506100456100d860201b60201c565b6100e060201b60201c565b33600260006101000a81548173ffffffffffffffffffffffffffffffffffffffff021916908373ffffffffffffffffffffffffffffffffffffffff16021790555080600360006101000a81548173ffffffffffffffffffffffffffffffffffffffff021916908373ffffffffffffffffffffffffffffffffffffffff16021790555050610234565b600033905090565b60008060009054906101000a900473ffffffffffffffffffffffffffffffffffffffff169050816000806101000a81548173ffffffffffffffffffffffffffffffffffffffff021916908373ffffffffffffffffffffffffffffffffffffffff1602179055508173ffffffffffffffffffffffffffffffffffffffff168173ffffffffffffffffffffffffffffffffffffffff167f8be0079c531659141344cd1fd0a4f28419497f9722a3daafe3b4186f6b6457e060405160405180910390a35050565b600080fd5b600073ffffffffffffffffffffffffffffffffffffffff82169050919050565b60006101d4826101a9565b9050919050565b6101e4816101c9565b81146101ef57600080fd5b50565b600081519050610201816101db565b92915050565b60006020828403121561021d5761021c6101a4565b5b600061022b848285016101f2565b91505092915050565b6139bd80620002446000396000f3fe60806040523480156200001157600080fd5b5060043610620000885760003560e01c806396c31f30116200006357806396c31f3014620000f1578063a31a1b681462000127578063f2fde38b1462000149578063f9a4bb1e14620001695762000088565b8063144ee425146200008d578063715018a614620000c35780638da5cb5b14620000cf575b600080fd5b620000ab6004803603810190620000a591906200054d565b6200018b565b604051620000ba919062000590565b60405180910390f35b620000cd620001be565b005b620000d9620001d6565b604051620000e8919062000590565b60405180910390f35b6200010f60048036038101906200010991906200070f565b620001ff565b6040516200011e919062000590565b60405180910390f35b620001316200029f565b60405162000140919062000590565b60405180910390f35b6200016760048036038101906200016191906200054d565b620002c5565b005b620001736200034f565b60405162000182919062000803565b60405180910390f35b60016020528060005260406000206000915054906101000a900473ffffffffffffffffffffffffffffffffffffffff1681565b620001c862000375565b620001d46000620003fa565b565b60008060009054906101000a900473ffffffffffffffffffffffffffffffffffffffff16905090565b600080858584866040516200021490620004c6565b620002239493929190620008a9565b604051809103906000f08015801562000240573d6000803e3d6000fd5b5090503373ffffffffffffffffffffffffffffffffffffffff167ffb988978a7ef563ba6e086db0611ceb650c336283b77074de3159cc274c145fb826040516200028b919062000590565b60405180910390a280915050949350505050565b600360009054906101000a900473ffffffffffffffffffffffffffffffffffffffff1681565b620002cf62000375565b600073ffffffffffffffffffffffffffffffffffffffff168173ffffffffffffffffffffffffffffffffffffffff160362000341576040517f08c379a0000000000000000000000000000000000000000000000000000000008152600401620003389062000981565b60405180910390fd5b6200034c81620003fa565b50565b600260009054906101000a900473ffffffffffffffffffffffffffffffffffffffff1681565b6200037f620004be565b73ffffffffffffffffffffffffffffffffffffffff166200039f620001d6565b73ffffffffffffffffffffffffffffffffffffffff1614620003f8576040517f08c379a0000000000000000000000000000000000000000000000000000000008152600401620003ef90620009f3565b60405180910390fd5b565b60008060009054906101000a900473ffffffffffffffffffffffffffffffffffffffff169050816000806101000a81548173ffffffffffffffffffffffffffffffffffffffff021916908373ffffffffffffffffffffffffffffffffffffffff1602179055508173ffffffffffffffffffffffffffffffffffffffff168173ffffffffffffffffffffffffffffffffffffffff167f8be0079c531659141344cd1fd0a4f28419497f9722a3daafe3b4186f6b6457e060405160405180910390a35050565b600033905090565b612f728062000a1683390190565b6000604051905090565b600080fd5b600080fd5b600073ffffffffffffffffffffffffffffffffffffffff82169050919050565b60006200051582620004e8565b9050919050565b620005278162000508565b81146200053357600080fd5b50565b60008135905062000547816200051c565b92915050565b600060208284031215620005665762000565620004de565b5b6000620005768482850162000536565b91505092915050565b6200058a8162000508565b82525050565b6000602082019050620005a760008301846200057f565b92915050565b600080fd5b600080fd5b6000601f19601f8301169050919050565b7f4e487b7100000000000000000000000000000000000000000000000000000000600052604160045260246000fd5b6200060282620005b7565b810181811067ffffffffffffffff82111715620006245762000623620005c8565b5b80604052505050565b600062000639620004d4565b9050620006478282620005f7565b919050565b600067ffffffffffffffff8211156200066a5762000669620005c8565b5b6200067582620005b7565b9050602081019050919050565b82818337600083830152505050565b6000620006a8620006a2846200064c565b6200062d565b905082815260208101848484011115620006c757620006c6620005b2565b5b620006d484828562000682565b509392505050565b600082601f830112620006f457620006f3620005ad565b5b81356200070684826020860162000691565b91505092915050565b600080600080608085870312156200072c576200072b620004de565b5b60006200073c8782880162000536565b945050602085013567ffffffffffffffff81111562000760576200075f620004e3565b5b6200076e87828801620006dc565b935050604085013567ffffffffffffffff811115620007925762000791620004e3565b5b620007a087828801620006dc565b925050606085013567ffffffffffffffff811115620007c457620007c3620004e3565b5b620007d287828801620006dc565b91505092959194509250565b6000620007eb82620004e8565b9050919050565b620007fd81620007de565b82525050565b60006020820190506200081a6000830184620007f2565b92915050565b600081519050919050565b600082825260208201905092915050565b60005b838110156200085c5780820151818401526020810190506200083f565b60008484015250505050565b6000620008758262000820565b6200088181856200082b565b9350620008938185602086016200083c565b6200089e81620005b7565b840191505092915050565b6000608082019050620008c060008301876200057f565b8181036020830152620008d4818662000868565b90508181036040830152620008ea818562000868565b9050818103606083015262000900818462000868565b905095945050505050565b7f4f776e61626c653a206e6577206f776e657220697320746865207a65726f206160008201527f6464726573730000000000000000000000000000000000000000000000000000602082015250565b6000620009696026836200082b565b915062000976826200090b565b604082019050919050565b600060208201905081810360008301526200099c816200095a565b9050919050565b7f4f776e61626c653a2063616c6c6572206973206e6f7420746865206f776e6572600082015250565b6000620009db6020836200082b565b9150620009e882620009a3565b602082019050919050565b6000602082019050818103600083015262000a0e81620009cc565b905091905056fe60806040523480156200001157600080fd5b5060405162002f7238038062002f72833981810160405281019062000037919062000570565b620000576200004b6200028360201b60201c565b6200028b60201b60201c565b66071afd498d0000600181905550620000756200034f60201b60201c565b600260006101000a81548173ffffffffffffffffffffffffffffffffffffffff021916908373ffffffffffffffffffffffffffffffffffffffff16021790555033600583604051620000c891906200068c565b908152602001604051809103902060006101000a81548173ffffffffffffffffffffffffffffffffffffffff021916908373ffffffffffffffffffffffffffffffffffffffff1602179055503360046040516200012590620006f5565b908152602001604051809103902060006101000a81548173ffffffffffffffffffffffffffffffffffffffff021916908373ffffffffffffffffffffffffffffffffffffffff16021790555060405180608001604052808573ffffffffffffffffffffffffffffffffffffffff16815260200184815260200182815260200183815250600360003373ffffffffffffffffffffffffffffffffffffffff1673ffffffffffffffffffffffffffffffffffffffff16815260200190815260200160002060008201518160000160006101000a81548173ffffffffffffffffffffffffffffffffffffffff021916908373ffffffffffffffffffffffffffffffffffffffff16021790555060208201518160010190816200024591906200094c565b5060408201518160020190816200025d91906200094c565b5060608201518160030190816200027591906200094c565b509050505050505062000a33565b600033905090565b60008060009054906101000a900473ffffffffffffffffffffffffffffffffffffffff169050816000806101000a81548173ffffffffffffffffffffffffffffffffffffffff021916908373ffffffffffffffffffffffffffffffffffffffff1602179055508173ffffffffffffffffffffffffffffffffffffffff168173ffffffffffffffffffffffffffffffffffffffff167f8be0079c531659141344cd1fd0a4f28419497f9722a3daafe3b4186f6b6457e060405160405180910390a35050565b60008060009054906101000a900473ffffffffffffffffffffffffffffffffffffffff16905090565b6000604051905090565b600080fd5b600080fd5b600073ffffffffffffffffffffffffffffffffffffffff82169050919050565b6000620003b9826200038c565b9050919050565b620003cb81620003ac565b8114620003d757600080fd5b50565b600081519050620003eb81620003c0565b92915050565b600080fd5b600080fd5b6000601f19601f8301169050919050565b7f4e487b7100000000000000000000000000000000000000000000000000000000600052604160045260246000fd5b6200044682620003fb565b810181811067ffffffffffffffff821117156200046857620004676200040c565b5b80604052505050565b60006200047d62000378565b90506200048b82826200043b565b919050565b600067ffffffffffffffff821115620004ae57620004ad6200040c565b5b620004b982620003fb565b9050602081019050919050565b60005b83811015620004e6578082015181840152602081019050620004c9565b60008484015250505050565b600062000509620005038462000490565b62000471565b905082815260208101848484011115620005285762000527620003f6565b5b62000535848285620004c6565b509392505050565b600082601f830112620005555762000554620003f1565b5b815162000567848260208601620004f2565b91505092915050565b600080600080608085870312156200058d576200058c62000382565b5b60006200059d87828801620003da565b945050602085015167ffffffffffffffff811115620005c157620005c062000387565b5b620005cf878288016200053d565b935050604085015167ffffffffffffffff811115620005f357620005f262000387565b5b62000601878288016200053d565b925050606085015167ffffffffffffffff81111562000625576200062462000387565b5b62000633878288016200053d565b91505092959194509250565b600081519050919050565b600081905092915050565b600062000662826200063f565b6200066e81856200064a565b935062000680818560208601620004c6565b80840191505092915050565b60006200069a828462000655565b915081905092915050565b7f3000000000000000000000000000000000000000000000000000000000000000600082015250565b6000620006dd6001836200064a565b9150620006ea82620006a5565b600182019050919050565b60006200070282620006ce565b9150819050919050565b7f4e487b7100000000000000000000000000000000000000000000000000000000600052602260045260246000fd5b600060028204905060018216806200075457607f821691505b6020821081036200076a57620007696200070c565b5b50919050565b60008190508160005260206000209050919050565b60006020601f8301049050919050565b600082821b905092915050565b600060088302620007d47fffffffffffffffffffffffffffffffffffffffffffffffffffffffffffffffff8262000795565b620007e0868362000795565b95508019841693508086168417925050509392505050565b6000819050919050565b6000819050919050565b60006200082d620008276200082184620007f8565b62000802565b620007f8565b9050919050565b6000819050919050565b62000849836200080c565b62000861620008588262000834565b848454620007a2565b825550505050565b600090565b6200087862000869565b620008858184846200083e565b505050565b5b81811015620008ad57620008a16000826200086e565b6001810190506200088b565b5050565b601f821115620008fc57620008c68162000770565b620008d18462000785565b81016020851015620008e1578190505b620008f9620008f08562000785565b8301826200088a565b50505b505050565b600082821c905092915050565b6000620009216000198460080262000901565b1980831691505092915050565b60006200093c83836200090e565b9150826002028217905092915050565b62000957826200063f565b67ffffffffffffffff8111156200097357620009726200040c565b5b6200097f82546200073b565b6200098c828285620008b1565b600060209050601f831160018114620009c45760008415620009af578287015190505b620009bb85826200092e565b86555062000a2b565b601f198416620009d48662000770565b60005b82811015620009fe57848901518255600182019150602085019450602081019050620009d7565b8683101562000a1e578489015162000a1a601f8916826200090e565b8355505b6001600288020188555050505b505050505050565b61252f8062000a436000396000f3fe6080604052600436106101145760003560e01c80638da5cb5b116100a0578063d2125bd211610064578063d2125bd2146103ff578063ea78dcbf14610428578063ee17655614610465578063efb22b2e14610481578063f2fde38b146104be57610114565b80638da5cb5b146102e05780639e026a3b1461030b578063a3235ebb14610348578063b932fbfa14610385578063d2114e18146103c257610114565b806348dc1561116100e757806348dc1561146101fb5780635c60f226146102265780636e3120281461024f578063715018a61461028c5780637b1e8776146102a357610114565b80630ae50a39146101195780630d48cae8146101445780630d98ac8a146101815780631892fd78146101be575b600080fd5b34801561012557600080fd5b5061012e6104e7565b60405161013b9190611906565b60405180910390f35b34801561015057600080fd5b5061016b60048036038101906101669190611a7b565b610511565b6040516101789190611bc3565b60405180910390f35b34801561018d57600080fd5b506101a860048036038101906101a39190611c11565b61078a565b6040516101b59190611c88565b60405180910390f35b3480156101ca57600080fd5b506101e560048036038101906101e09190611c11565b6107a6565b6040516101f29190611bc3565b60405180910390f35b34801561020757600080fd5b50610210610a11565b60405161021d9190611cc3565b60405180910390f35b34801561023257600080fd5b5061024d60048036038101906102489190611c11565b610a1b565b005b34801561025b57600080fd5b5061027660048036038101906102719190611a7b565b610d47565b6040516102839190611906565b60405180910390f35b34801561029857600080fd5b506102a1610d90565b005b3480156102af57600080fd5b506102ca60048036038101906102c59190611a7b565b610da4565b6040516102d79190611bc3565b60405180910390f35b3480156102ec57600080fd5b506102f561101d565b6040516103029190611906565b60405180910390f35b34801561031757600080fd5b50610332600480360381019061032d9190611a7b565b611046565b60405161033f9190611cf7565b60405180910390f35b34801561035457600080fd5b5061036f600480360381019061036a9190611a7b565b611076565b60405161037c9190611c88565b60405180910390f35b34801561039157600080fd5b506103ac60048036038101906103a79190611c11565b611098565b6040516103b99190611c88565b60405180910390f35b3480156103ce57600080fd5b506103e960048036038101906103e49190611a7b565b6110ba565b6040516103f69190611906565b60405180910390f35b34801561040b57600080fd5b5061042660048036038101906104219190611d3e565b611102565b005b34801561043457600080fd5b5061044f600480360381019061044a9190611a7b565b611114565b60405161045c9190611906565b60405180910390f35b61047f600480360381019061047a9190611d6b565b61115d565b005b34801561048d57600080fd5b506104a860048036038101906104a39190611a7b565b6113fc565b6040516104b59190611906565b60405180910390f35b3480156104ca57600080fd5b506104e560048036038101906104e09190611c11565b611444565b005b6000600260009054906101000a900473ffffffffffffffffffffffffffffffffffffffff16905090565b61051961182a565b6000610524836110ba565b90506000600360008373ffffffffffffffffffffffffffffffffffffffff1673ffffffffffffffffffffffffffffffffffffffff1681526020019081526020016000206040518060800160405290816000820160009054906101000a900473ffffffffffffffffffffffffffffffffffffffff1673ffffffffffffffffffffffffffffffffffffffff1673ffffffffffffffffffffffffffffffffffffffff1681526020016001820180546105d890611e41565b80601f016020809104026020016040519081016040528092919081815260200182805461060490611e41565b80156106515780601f1061062657610100808354040283529160200191610651565b820191906000526020600020905b81548152906001019060200180831161063457829003601f168201915b5050505050815260200160028201805461066a90611e41565b80601f016020809104026020016040519081016040528092919081815260200182805461069690611e41565b80156106e35780601f106106b8576101008083540402835291602001916106e3565b820191906000526020600020905b8154815290600101906020018083116106c657829003601f168201915b505050505081526020016003820180546106fc90611e41565b80601f016020809104026020016040519081016040528092919081815260200182805461072890611e41565b80156107755780601f1061074a57610100808354040283529160200191610775565b820191906000526020600020905b81548152906001019060200180831161075857829003601f168201915b50505050508152505090508092505050919050565b60606000610797836107a6565b90508060600151915050919050565b6107ae61182a565b6000600360008473ffffffffffffffffffffffffffffffffffffffff1673ffffffffffffffffffffffffffffffffffffffff1681526020019081526020016000206040518060800160405290816000820160009054906101000a900473ffffffffffffffffffffffffffffffffffffffff1673ffffffffffffffffffffffffffffffffffffffff1673ffffffffffffffffffffffffffffffffffffffff16815260200160018201805461086090611e41565b80601f016020809104026020016040519081016040528092919081815260200182805461088c90611e41565b80156108d95780601f106108ae576101008083540402835291602001916108d9565b820191906000526020600020905b8154815290600101906020018083116108bc57829003601f168201915b505050505081526020016002820180546108f290611e41565b80601f016020809104026020016040519081016040528092919081815260200182805461091e90611e41565b801561096b5780601f106109405761010080835404028352916020019161096b565b820191906000526020600020905b81548152906001019060200180831161094e57829003601f168201915b5050505050815260200160038201805461098490611e41565b80601f01602080910402602001604051908101604052809291908181526020018280546109b090611e41565b80156109fd5780601f106109d2576101008083540402835291602001916109fd565b820191906000526020600020905b8154815290600101906020018083116109e057829003601f168201915b505050505081525050905080915050919050565b6000600154905090565b6000600360008373ffffffffffffffffffffffffffffffffffffffff1673ffffffffffffffffffffffffffffffffffffffff1681526020019081526020016000206003018054610a6a90611e41565b80601f0160208091040260200160405190810160405280929190818152602001828054610a9690611e41565b8015610ae35780601f10610ab857610100808354040283529160200191610ae3565b820191906000526020600020905b815481529060010190602001808311610ac657829003601f168201915b505050505090506000600360008473ffffffffffffffffffffffffffffffffffffffff1673ffffffffffffffffffffffffffffffffffffffff1681526020019081526020016000206001018054610b3990611e41565b80601f0160208091040260200160405190810160405280929190818152602001828054610b6590611e41565b8015610bb25780601f10610b8757610100808354040283529160200191610bb2565b820191906000526020600020905b815481529060010190602001808311610b9557829003601f168201915b505050505090503373ffffffffffffffffffffffffffffffffffffffff168373ffffffffffffffffffffffffffffffffffffffff1614610c27576040517f08c379a0000000000000000000000000000000000000000000000000000000008152600401610c1e90611ebe565b60405180910390fd5b600360008473ffffffffffffffffffffffffffffffffffffffff1673ffffffffffffffffffffffffffffffffffffffff168152602001908152602001600020600080820160006101000a81549073ffffffffffffffffffffffffffffffffffffffff0219169055600182016000610c9e9190611868565b600282016000610cae9190611868565b600382016000610cbe9190611868565b5050600582604051610cd09190611f1a565b908152602001604051809103902060006101000a81549073ffffffffffffffffffffffffffffffffffffffff0219169055600481604051610d119190611f1a565b908152602001604051809103902060006101000a81549073ffffffffffffffffffffffffffffffffffffffff0219169055505050565b6004818051602081018201805184825260208301602085012081835280955050505050506000915054906101000a900473ffffffffffffffffffffffffffffffffffffffff1681565b610d986114c7565b610da26000611545565b565b610dac61182a565b6000610db7836113fc565b90506000600360008373ffffffffffffffffffffffffffffffffffffffff1673ffffffffffffffffffffffffffffffffffffffff1681526020019081526020016000206040518060800160405290816000820160009054906101000a900473ffffffffffffffffffffffffffffffffffffffff1673ffffffffffffffffffffffffffffffffffffffff1673ffffffffffffffffffffffffffffffffffffffff168152602001600182018054610e6b90611e41565b80601f0160208091040260200160405190810160405280929190818152602001828054610e9790611e41565b8015610ee45780601f10610eb957610100808354040283529160200191610ee4565b820191906000526020600020905b815481529060010190602001808311610ec757829003601f168201915b50505050508152602001600282018054610efd90611e41565b80601f0160208091040260200160405190810160405280929190818152602001828054610f2990611e41565b8015610f765780601f10610f4b57610100808354040283529160200191610f76565b820191906000526020600020905b815481529060010190602001808311610f5957829003601f168201915b50505050508152602001600382018054610f8f90611e41565b80601f0160208091040260200160405190810160405280929190818152602001828054610fbb90611e41565b80156110085780601f10610fdd57610100808354040283529160200191611008565b820191906000526020600020905b815481529060010190602001808311610feb57829003601f168201915b50505050508152505090508092505050919050565b60008060009054906101000a900473ffffffffffffffffffffffffffffffffffffffff16905090565b6000816040516020016110599190611c88565b604051602081830303815290604052805190602001209050919050565b6060600061108383610da4565b90506000816040015190508092505050919050565b606060006110a5836107a6565b90506000816040015190508092505050919050565b60006004826040516110cc9190611f1a565b908152602001604051809103902060009054906101000a900473ffffffffffffffffffffffffffffffffffffffff169050919050565b61110a6114c7565b8060018190555050565b6005818051602081018201805184825260208301602085012081835280955050505050506000915054906101000a900473ffffffffffffffffffffffffffffffffffffffff1681565b600033905060015434146111a6576040517f08c379a000000000000000000000000000000000000000000000000000000000815260040161119d90611f7d565b60405180910390fd5b60405180608001604052808273ffffffffffffffffffffffffffffffffffffffff16815260200184815260200183815260200185815250600360003373ffffffffffffffffffffffffffffffffffffffff1673ffffffffffffffffffffffffffffffffffffffff16815260200190815260200160002060008201518160000160006101000a81548173ffffffffffffffffffffffffffffffffffffffff021916908373ffffffffffffffffffffffffffffffffffffffff16021790555060208201518160010190816112789190612149565b50604082015181600201908161128e9190612149565b5060608201518160030190816112a49190612149565b509050506000600260009054906101000a900473ffffffffffffffffffffffffffffffffffffffff1673ffffffffffffffffffffffffffffffffffffffff166001546040516112f29061224c565b60006040518083038185875af1925050503d806000811461132f576040519150601f19603f3d011682016040523d82523d6000602084013e611334565b606091505b5050905080611378576040517f08c379a000000000000000000000000000000000000000000000000000000000815260040161136f906122ad565b60405180910390fd5b611383858386611609565b7f88fb036880ca6cad29aefb7b39794d1bd184cb4f05a7d1fdd601b74b267fca5985336040516113b49291906122cd565b60405180910390a17f9e5a3fa59168f11224a8522675d1bb9cbfb8e0311ef4e87bd159649f9c509c6085336040516113ed9291906122cd565b60405180910390a15050505050565b600060058260405161140e9190611f1a565b908152602001604051809103902060009054906101000a900473ffffffffffffffffffffffffffffffffffffffff169050919050565b61144c6114c7565b600073ffffffffffffffffffffffffffffffffffffffff168173ffffffffffffffffffffffffffffffffffffffff16036114bb576040517f08c379a00000000000000000000000000000000000000000000000000000000081526004016114b29061236f565b60405180910390fd5b6114c481611545565b50565b6114cf611822565b73ffffffffffffffffffffffffffffffffffffffff166114ed61101d565b73ffffffffffffffffffffffffffffffffffffffff1614611543576040517f08c379a000000000000000000000000000000000000000000000000000000000815260040161153a906123db565b60405180910390fd5b565b60008060009054906101000a900473ffffffffffffffffffffffffffffffffffffffff169050816000806101000a81548173ffffffffffffffffffffffffffffffffffffffff021916908373ffffffffffffffffffffffffffffffffffffffff1602179055508173ffffffffffffffffffffffffffffffffffffffff168173ffffffffffffffffffffffffffffffffffffffff167f8be0079c531659141344cd1fd0a4f28419497f9722a3daafe3b4186f6b6457e060405160405180910390a35050565b600073ffffffffffffffffffffffffffffffffffffffff166005846040516116319190611f1a565b908152602001604051809103902060009054906101000a900473ffffffffffffffffffffffffffffffffffffffff1673ffffffffffffffffffffffffffffffffffffffff16146116b6576040517f08c379a00000000000000000000000000000000000000000000000000000000081526004016116ad9061246d565b60405180910390fd5b600073ffffffffffffffffffffffffffffffffffffffff166004826040516116de9190611f1a565b908152602001604051809103902060009054906101000a900473ffffffffffffffffffffffffffffffffffffffff1673ffffffffffffffffffffffffffffffffffffffff1614611763576040517f08c379a000000000000000000000000000000000000000000000000000000000815260040161175a906124d9565b60405180910390fd5b816005846040516117749190611f1a565b908152602001604051809103902060006101000a81548173ffffffffffffffffffffffffffffffffffffffff021916908373ffffffffffffffffffffffffffffffffffffffff160217905550816004826040516117d19190611f1a565b908152602001604051809103902060006101000a81548173ffffffffffffffffffffffffffffffffffffffff021916908373ffffffffffffffffffffffffffffffffffffffff160217905550505050565b600033905090565b6040518060800160405280600073ffffffffffffffffffffffffffffffffffffffff1681526020016060815260200160608152602001606081525090565b50805461187490611e41565b6000825580601f1061188657506118a5565b601f0160209004906000526020600020908101906118a491906118a8565b5b50565b5b808211156118c15760008160009055506001016118a9565b5090565b600073ffffffffffffffffffffffffffffffffffffffff82169050919050565b60006118f0826118c5565b9050919050565b611900816118e5565b82525050565b600060208201905061191b60008301846118f7565b92915050565b6000604051905090565b600080fd5b600080fd5b600080fd5b600080fd5b6000601f19601f8301169050919050565b7f4e487b7100000000000000000000000000000000000000000000000000000000600052604160045260246000fd5b6119888261193f565b810181811067ffffffffffffffff821117156119a7576119a6611950565b5b80604052505050565b60006119ba611921565b90506119c6828261197f565b919050565b600067ffffffffffffffff8211156119e6576119e5611950565b5b6119ef8261193f565b9050602081019050919050565b82818337600083830152505050565b6000611a1e611a19846119cb565b6119b0565b905082815260208101848484011115611a3a57611a3961193a565b5b611a458482856119fc565b509392505050565b600082601f830112611a6257611a61611935565b5b8135611a72848260208601611a0b565b91505092915050565b600060208284031215611a9157611a9061192b565b5b600082013567ffffffffffffffff811115611aaf57611aae611930565b5b611abb84828501611a4d565b91505092915050565b611acd816118e5565b82525050565b600081519050919050565b600082825260208201905092915050565b60005b83811015611b0d578082015181840152602081019050611af2565b60008484015250505050565b6000611b2482611ad3565b611b2e8185611ade565b9350611b3e818560208601611aef565b611b478161193f565b840191505092915050565b6000608083016000830151611b6a6000860182611ac4565b5060208301518482036020860152611b828282611b19565b91505060408301518482036040860152611b9c8282611b19565b91505060608301518482036060860152611bb68282611b19565b9150508091505092915050565b60006020820190508181036000830152611bdd8184611b52565b905092915050565b611bee816118e5565b8114611bf957600080fd5b50565b600081359050611c0b81611be5565b92915050565b600060208284031215611c2757611c2661192b565b5b6000611c3584828501611bfc565b91505092915050565b600082825260208201905092915050565b6000611c5a82611ad3565b611c648185611c3e565b9350611c74818560208601611aef565b611c7d8161193f565b840191505092915050565b60006020820190508181036000830152611ca28184611c4f565b905092915050565b6000819050919050565b611cbd81611caa565b82525050565b6000602082019050611cd86000830184611cb4565b92915050565b6000819050919050565b611cf181611cde565b82525050565b6000602082019050611d0c6000830184611ce8565b92915050565b611d1b81611caa565b8114611d2657600080fd5b50565b600081359050611d3881611d12565b92915050565b600060208284031215611d5457611d5361192b565b5b6000611d6284828501611d29565b91505092915050565b600080600060608486031215611d8457611d8361192b565b5b600084013567ffffffffffffffff811115611da257611da1611930565b5b611dae86828701611a4d565b935050602084013567ffffffffffffffff811115611dcf57611dce611930565b5b611ddb86828701611a4d565b925050604084013567ffffffffffffffff811115611dfc57611dfb611930565b5b611e0886828701611a4d565b9150509250925092565b7f4e487b7100000000000000000000000000000000000000000000000000000000600052602260045260246000fd5b60006002820490506001821680611e5957607f821691505b602082108103611e6c57611e6b611e12565b5b50919050565b7f5573657273206d61792064656c657465206f6e6c79207468656d73656c766573600082015250565b6000611ea8602083611c3e565b9150611eb382611e72565b602082019050919050565b60006020820190508181036000830152611ed781611e9b565b9050919050565b600081905092915050565b6000611ef482611ad3565b611efe8185611ede565b9350611f0e818560208601611aef565b80840191505092915050565b6000611f268284611ee9565b915081905092915050565b7f5265717565737420666565206973206e6f742070616964000000000000000000600082015250565b6000611f67601783611c3e565b9150611f7282611f31565b602082019050919050565b60006020820190508181036000830152611f9681611f5a565b9050919050565b60008190508160005260206000209050919050565b60006020601f8301049050919050565b600082821b905092915050565b600060088302611fff7fffffffffffffffffffffffffffffffffffffffffffffffffffffffffffffffff82611fc2565b6120098683611fc2565b95508019841693508086168417925050509392505050565b6000819050919050565b600061204661204161203c84611caa565b612021565b611caa565b9050919050565b6000819050919050565b6120608361202b565b61207461206c8261204d565b848454611fcf565b825550505050565b600090565b61208961207c565b612094818484612057565b505050565b5b818110156120b8576120ad600082612081565b60018101905061209a565b5050565b601f8211156120fd576120ce81611f9d565b6120d784611fb2565b810160208510156120e6578190505b6120fa6120f285611fb2565b830182612099565b50505b505050565b600082821c905092915050565b600061212060001984600802612102565b1980831691505092915050565b6000612139838361210f565b9150826002028217905092915050565b61215282611ad3565b67ffffffffffffffff81111561216b5761216a611950565b5b6121758254611e41565b6121808282856120bc565b600060209050601f8311600181146121b357600084156121a1578287015190505b6121ab858261212d565b865550612213565b601f1984166121c186611f9d565b60005b828110156121e9578489015182556001820191506020850194506020810190506121c4565b868310156122065784890151612202601f89168261210f565b8355505b6001600288020188555050505b505050505050565b600081905092915050565b50565b600061223660008361221b565b915061224182612226565b600082019050919050565b600061225782612229565b9150819050919050565b7f556e61626c6520746f207472616e736665722066656500000000000000000000600082015250565b6000612297601683611c3e565b91506122a282612261565b602082019050919050565b600060208201905081810360008301526122c68161228a565b9050919050565b600060408201905081810360008301526122e78185611c4f565b90506122f660208301846118f7565b9392505050565b7f4f776e61626c653a206e6577206f776e657220697320746865207a65726f206160008201527f6464726573730000000000000000000000000000000000000000000000000000602082015250565b6000612359602683611c3e565b9150612364826122fd565b604082019050919050565b600060208201905081810360008301526123888161234c565b9050919050565b7f4f776e61626c653a2063616c6c6572206973206e6f7420746865206f776e6572600082015250565b60006123c5602083611c3e565b91506123d08261238f565b602082019050919050565b600060208201905081810360008301526123f4816123b8565b9050919050565b7f5468657265206973206164647265737320636f6e6e656374656420746f20746860008201527f617420656d61696c20616c726561647900000000000000000000000000000000602082015250565b6000612457603083611c3e565b9150612462826123fb565b604082019050919050565b600060208201905081810360008301526124868161244a565b9050919050565b7f636f64656e616d652074616b656e000000000000000000000000000000000000600082015250565b60006124c3600e83611c3e565b91506124ce8261248d565b602082019050919050565b600060208201905081810360008301526124f2816124b6565b905091905056fea26469706673582212204adfec297d4a0419ee6bbc858881cf28ef6862400340de933eb22d1ee4abc50864736f6c63430008110033a2646970667358221220b3679f60f7654901b783078809461e53585dac11be35e882a9511045c7b4722064736f6c63430008110033",
  "linkReferences": {},
  "deployedLinkReferences": {}
}