{
  "_format": "hh-sol-artifact-1",
  "contractName": "Factory",
  "sourceName": "contracts/Factory.sol",
  "abi": [
    {
      "inputs": [
        {
          "internalType": "address",
          "name": "dictionary_",
          "type": "address"
        }
      ],
      "stateMutability": "nonpayable",
      "type": "constructor"
    },
    {
      "anonymous": false,
      "inputs": [
        {
          "indexed": true,
          "internalType": "address",
          "name": "creator",
          "type": "address"
        },
        {
          "indexed": false,
          "internalType": "address",
          "name": "collection",
          "type": "address"
        }
      ],
      "name": "LegionCreated",
      "type": "event"
    },
    {
      "anonymous": false,
      "inputs": [
        {
          "indexed": true,
          "internalType": "address",
          "name": "previousOwner",
          "type": "address"
        },
        {
          "indexed": true,
          "internalType": "address",
          "name": "newOwner",
          "type": "address"
        }
      ],
      "name": "OwnershipTransferred",
      "type": "event"
    },
    {
      "inputs": [
        {
          "internalType": "address",
          "name": "",
          "type": "address"
        }
      ],
      "name": "Collections",
      "outputs": [
        {
          "internalType": "address",
          "name": "",
          "type": "address"
        }
      ],
      "stateMutability": "view",
      "type": "function"
    },
    {
      "inputs": [
        {
          "internalType": "address",
          "name": "admin_",
          "type": "address"
        },
        {
          "internalType": "int64",
          "name": "tgid_",
          "type": "int64"
        },
        {
          "internalType": "string",
          "name": "public_key_",
          "type": "string"
        }
      ],
      "name": "DeployLegion",
      "outputs": [
        {
          "internalType": "address",
          "name": "",
          "type": "address"
        }
      ],
      "stateMutability": "nonpayable",
      "type": "function"
    },
    {
      "inputs": [],
      "name": "dictionary",
      "outputs": [
        {
          "internalType": "address",
          "name": "",
          "type": "address"
        }
      ],
      "stateMutability": "view",
      "type": "function"
    },
    {
      "inputs": [],
      "name": "owner",
      "outputs": [
        {
          "internalType": "address",
          "name": "",
          "type": "address"
        }
      ],
      "stateMutability": "view",
      "type": "function"
    },
    {
      "inputs": [],
      "name": "renounceOwnership",
      "outputs": [],
      "stateMutability": "nonpayable",
      "type": "function"
    },
    {
      "inputs": [
        {
          "internalType": "address",
          "name": "newOwner",
          "type": "address"
        }
      ],
      "name": "transferOwnership",
      "outputs": [],
      "stateMutability": "nonpayable",
      "type": "function"
    },
    {
      "inputs": [],
      "name": "treasure_fund",
      "outputs": [
        {
          "internalType": "address payable",
          "name": "",
          "type": "address"
        }
      ],
      "stateMutability": "view",
      "type": "function"
    }
  ],
  "bytecode": "0x608060405234801561001057600080fd5b50604051620062483803806200624883398181016040528101906100349190610207565b6100506100456100d860201b60201c565b6100e060201b60201c565b33600260006101000a81548173ffffffffffffffffffffffffffffffffffffffff021916908373ffffffffffffffffffffffffffffffffffffffff16021790555080600360006101000a81548173ffffffffffffffffffffffffffffffffffffffff021916908373ffffffffffffffffffffffffffffffffffffffff16021790555050610234565b600033905090565b60008060009054906101000a900473ffffffffffffffffffffffffffffffffffffffff169050816000806101000a81548173ffffffffffffffffffffffffffffffffffffffff021916908373ffffffffffffffffffffffffffffffffffffffff1602179055508173ffffffffffffffffffffffffffffffffffffffff168173ffffffffffffffffffffffffffffffffffffffff167f8be0079c531659141344cd1fd0a4f28419497f9722a3daafe3b4186f6b6457e060405160405180910390a35050565b600080fd5b600073ffffffffffffffffffffffffffffffffffffffff82169050919050565b60006101d4826101a9565b9050919050565b6101e4816101c9565b81146101ef57600080fd5b50565b600081519050610201816101db565b92915050565b60006020828403121561021d5761021c6101a4565b5b600061022b848285016101f2565b91505092915050565b61600480620002446000396000f3fe60806040523480156200001157600080fd5b5060043610620000885760003560e01c80638da5cb5b11620000635780638da5cb5b1462000105578063a31a1b681462000127578063f2fde38b1462000149578063f9a4bb1e14620001695762000088565b8063144ee425146200008d57806333eb2d7e14620000c3578063715018a614620000f9575b600080fd5b620000ab6004803603810190620000a591906200056e565b6200018b565b604051620000ba9190620005b1565b60405180910390f35b620000e16004803603810190620000db91906200076e565b620001be565b604051620000f09190620005b1565b60405180910390f35b620001036200027f565b005b6200010f62000297565b6040516200011e9190620005b1565b60405180910390f35b62000131620002c0565b604051620001409190620005b1565b60405180910390f35b6200016760048036038101906200016191906200056e565b620002e6565b005b6200017362000370565b6040516200018291906200080e565b60405180910390f35b60016020528060005260406000206000915054906101000a900473ffffffffffffffffffffffffffffffffffffffff1681565b600080600360009054906101000a900473ffffffffffffffffffffffffffffffffffffffff16858585604051620001f590620004e7565b620002049493929190620008c5565b604051809103906000f08015801562000221573d6000803e3d6000fd5b5090503373ffffffffffffffffffffffffffffffffffffffff167ffb988978a7ef563ba6e086db0611ceb650c336283b77074de3159cc274c145fb826040516200026c9190620005b1565b60405180910390a2809150509392505050565b6200028962000396565b6200029560006200041b565b565b60008060009054906101000a900473ffffffffffffffffffffffffffffffffffffffff16905090565b600360009054906101000a900473ffffffffffffffffffffffffffffffffffffffff1681565b620002f062000396565b600073ffffffffffffffffffffffffffffffffffffffff168173ffffffffffffffffffffffffffffffffffffffff160362000362576040517f08c379a000000000000000000000000000000000000000000000000000000000815260040162000359906200098f565b60405180910390fd5b6200036d816200041b565b50565b600260009054906101000a900473ffffffffffffffffffffffffffffffffffffffff1681565b620003a0620004df565b73ffffffffffffffffffffffffffffffffffffffff16620003c062000297565b73ffffffffffffffffffffffffffffffffffffffff161462000419576040517f08c379a0000000000000000000000000000000000000000000000000000000008152600401620004109062000a01565b60405180910390fd5b565b60008060009054906101000a900473ffffffffffffffffffffffffffffffffffffffff169050816000806101000a81548173ffffffffffffffffffffffffffffffffffffffff021916908373ffffffffffffffffffffffffffffffffffffffff1602179055508173ffffffffffffffffffffffffffffffffffffffff168173ffffffffffffffffffffffffffffffffffffffff167f8be0079c531659141344cd1fd0a4f28419497f9722a3daafe3b4186f6b6457e060405160405180910390a35050565b600033905090565b6155ab8062000a2483390190565b6000604051905090565b600080fd5b600080fd5b600073ffffffffffffffffffffffffffffffffffffffff82169050919050565b6000620005368262000509565b9050919050565b620005488162000529565b81146200055457600080fd5b50565b60008135905062000568816200053d565b92915050565b600060208284031215620005875762000586620004ff565b5b6000620005978482850162000557565b91505092915050565b620005ab8162000529565b82525050565b6000602082019050620005c86000830184620005a0565b92915050565b60008160070b9050919050565b620005e681620005ce565b8114620005f257600080fd5b50565b6000813590506200060681620005db565b92915050565b600080fd5b600080fd5b6000601f19601f8301169050919050565b7f4e487b7100000000000000000000000000000000000000000000000000000000600052604160045260246000fd5b620006618262000616565b810181811067ffffffffffffffff8211171562000683576200068262000627565b5b80604052505050565b600062000698620004f5565b9050620006a6828262000656565b919050565b600067ffffffffffffffff821115620006c957620006c862000627565b5b620006d48262000616565b9050602081019050919050565b82818337600083830152505050565b6000620007076200070184620006ab565b6200068c565b90508281526020810184848401111562000726576200072562000611565b5b62000733848285620006e1565b509392505050565b600082601f8301126200075357620007526200060c565b5b813562000765848260208601620006f0565b91505092915050565b6000806000606084860312156200078a5762000789620004ff565b5b60006200079a8682870162000557565b9350506020620007ad86828701620005f5565b925050604084013567ffffffffffffffff811115620007d157620007d062000504565b5b620007df868287016200073b565b9150509250925092565b6000620007f68262000509565b9050919050565b6200080881620007e9565b82525050565b6000602082019050620008256000830184620007fd565b92915050565b6200083681620005ce565b82525050565b600081519050919050565b600082825260208201905092915050565b60005b83811015620008785780820151818401526020810190506200085b565b60008484015250505050565b600062000891826200083c565b6200089d818562000847565b9350620008af81856020860162000858565b620008ba8162000616565b840191505092915050565b6000608082019050620008dc6000830187620005a0565b620008eb6020830186620005a0565b620008fa60408301856200082b565b81810360608301526200090e818462000884565b905095945050505050565b7f4f776e61626c653a206e6577206f776e657220697320746865207a65726f206160008201527f6464726573730000000000000000000000000000000000000000000000000000602082015250565b60006200097760268362000847565b9150620009848262000919565b604082019050919050565b60006020820190508181036000830152620009aa8162000968565b9050919050565b7f4f776e61626c653a2063616c6c6572206973206e6f7420746865206f776e6572600082015250565b6000620009e960208362000847565b9150620009f682620009b1565b602082019050919050565b6000602082019050818103600083015262000a1c81620009da565b905091905056fe60806040523480156200001157600080fd5b50604051620055ab380380620055ab833981810160405281019062000037919062000df8565b620000576200004b6200048860201b60201c565b6200049060201b60201c565b66071afd498d0000600281905550620000756200055460201b60201c565b600360006101000a81548173ffffffffffffffffffffffffffffffffffffffff021916908373ffffffffffffffffffffffffffffffffffffffff160217905550620000ca6000801b336200057d60201b60201c565b620000fc7fcea62fe6ecc79e221c545bf918f804693c542ead2549e37c2bb9baa66ee2e157336200057d60201b60201c565b83600860006101000a81548173ffffffffffffffffffffffffffffffffffffffff021916908373ffffffffffffffffffffffffffffffffffffffff16021790555033600460008460070b60070b815260200190815260200160002060006101000a81548173ffffffffffffffffffffffffffffffffffffffff021916908373ffffffffffffffffffffffffffffffffffffffff160217905550336006604051620001a69062000ee4565b908152602001604051809103902060006101000a81548173ffffffffffffffffffffffffffffffffffffffff021916908373ffffffffffffffffffffffffffffffffffffffff1602179055506040518060c001604052803373ffffffffffffffffffffffffffffffffffffffff1681526020018360070b81526020016001151581526020013373ffffffffffffffffffffffffffffffffffffffff1681526020016040518060400160405280600181526020017f300000000000000000000000000000000000000000000000000000000000000081525081526020016040518060600160405280602c81526020016200557f602c9139815250600560003373ffffffffffffffffffffffffffffffffffffffff1673ffffffffffffffffffffffffffffffffffffffff16815260200190815260200160002060008201518160000160006101000a81548173ffffffffffffffffffffffffffffffffffffffff021916908373ffffffffffffffffffffffffffffffffffffffff16021790555060208201518160000160146101000a81548167ffffffffffffffff021916908360070b67ffffffffffffffff160217905550604082015181600001601c6101000a81548160ff02191690831515021790555060608201518160010160006101000a81548173ffffffffffffffffffffffffffffffffffffffff021916908373ffffffffffffffffffffffffffffffffffffffff1602179055506080820151816002019081620003d5919062001146565b5060a0820151816003019081620003ed919062001146565b50905050600073ffffffffffffffffffffffffffffffffffffffff168373ffffffffffffffffffffffffffffffffffffffff16148062000430575060008260070b145b156200046a5762000464336104d26040518060600160405280602c81526020016200557f602c91396200066e60201b60201c565b6200047e565b6200047d8383836200066e60201b60201c565b5b50505050620012e4565b600033905090565b60008060009054906101000a900473ffffffffffffffffffffffffffffffffffffffff169050816000806101000a81548173ffffffffffffffffffffffffffffffffffffffff021916908373ffffffffffffffffffffffffffffffffffffffff1602179055508173ffffffffffffffffffffffffffffffffffffffff168173ffffffffffffffffffffffffffffffffffffffff167f8be0079c531659141344cd1fd0a4f28419497f9722a3daafe3b4186f6b6457e060405160405180910390a35050565b60008060009054906101000a900473ffffffffffffffffffffffffffffffffffffffff16905090565b6200058f828262000b0d60201b60201c565b6200066a57600180600084815260200190815260200160002060000160008373ffffffffffffffffffffffffffffffffffffffff1673ffffffffffffffffffffffffffffffffffffffff16815260200190815260200160002060006101000a81548160ff0219169083151502179055506200060f6200048860201b60201c565b73ffffffffffffffffffffffffffffffffffffffff168173ffffffffffffffffffffffffffffffffffffffff16837f2f8788117e7eff1d82e926ec794901d17c78024a50270940304540a733656f0d60405160405180910390a45b5050565b82600460008460070b60070b815260200190815260200160002060006101000a81548173ffffffffffffffffffffffffffffffffffffffff021916908373ffffffffffffffffffffffffffffffffffffffff160217905550826006604051620006d7906200127d565b908152602001604051809103902060006101000a81548173ffffffffffffffffffffffffffffffffffffffff021916908373ffffffffffffffffffffffffffffffffffffffff1602179055506040518060c001604052808473ffffffffffffffffffffffffffffffffffffffff1681526020018360070b81526020016001151581526020018473ffffffffffffffffffffffffffffffffffffffff1681526020016040518060400160405280600481526020017f4164616d00000000000000000000000000000000000000000000000000000000815250815260200182815250600560008573ffffffffffffffffffffffffffffffffffffffff1673ffffffffffffffffffffffffffffffffffffffff16815260200190815260200160002060008201518160000160006101000a81548173ffffffffffffffffffffffffffffffffffffffff021916908373ffffffffffffffffffffffffffffffffffffffff16021790555060208201518160000160146101000a81548167ffffffffffffffff021916908360070b67ffffffffffffffff160217905550604082015181600001601c6101000a81548160ff02191690831515021790555060608201518160010160006101000a81548173ffffffffffffffffffffffffffffffffffffffff021916908373ffffffffffffffffffffffffffffffffffffffff1602179055506080820151816002019081620008ed919062001146565b5060a082015181600301908162000905919062001146565b509050506001600560008573ffffffffffffffffffffffffffffffffffffffff1673ffffffffffffffffffffffffffffffffffffffff168152602001908152602001600020600001601c6101000a81548160ff02191690831515021790555033600560008573ffffffffffffffffffffffffffffffffffffffff1673ffffffffffffffffffffffffffffffffffffffff16815260200190815260200160002060010160006101000a81548173ffffffffffffffffffffffffffffffffffffffff021916908373ffffffffffffffffffffffffffffffffffffffff160217905550600062000a2d6040518060400160405280600181526020017f300000000000000000000000000000000000000000000000000000000000000081525062000b7860201b60201c565b90506001600760008373ffffffffffffffffffffffffffffffffffffffff1673ffffffffffffffffffffffffffffffffffffffff16815260200190815260200160002060008673ffffffffffffffffffffffffffffffffffffffff1673ffffffffffffffffffffffffffffffffffffffff16815260200190815260200160002060006101000a81548160ff0219169083151502179055508373ffffffffffffffffffffffffffffffffffffffff167f908408e307fc569b417f6cbec5d5a06f44a0a505ac0479b47d421a4b2fd6a1e660405160405180910390a250505050565b60006001600084815260200190815260200160002060000160008373ffffffffffffffffffffffffffffffffffffffff1673ffffffffffffffffffffffffffffffffffffffff16815260200190815260200160002060009054906101000a900460ff16905092915050565b600060068260405162000b8c9190620012cb565b908152602001604051809103902060009054906101000a900473ffffffffffffffffffffffffffffffffffffffff169050919050565b6000604051905090565b600080fd5b600080fd5b600073ffffffffffffffffffffffffffffffffffffffff82169050919050565b600062000c038262000bd6565b9050919050565b62000c158162000bf6565b811462000c2157600080fd5b50565b60008151905062000c358162000c0a565b92915050565b60008160070b9050919050565b62000c538162000c3b565b811462000c5f57600080fd5b50565b60008151905062000c738162000c48565b92915050565b600080fd5b600080fd5b6000601f19601f8301169050919050565b7f4e487b7100000000000000000000000000000000000000000000000000000000600052604160045260246000fd5b62000cce8262000c83565b810181811067ffffffffffffffff8211171562000cf05762000cef62000c94565b5b80604052505050565b600062000d0562000bc2565b905062000d13828262000cc3565b919050565b600067ffffffffffffffff82111562000d365762000d3562000c94565b5b62000d418262000c83565b9050602081019050919050565b60005b8381101562000d6e57808201518184015260208101905062000d51565b60008484015250505050565b600062000d9162000d8b8462000d18565b62000cf9565b90508281526020810184848401111562000db05762000daf62000c7e565b5b62000dbd84828562000d4e565b509392505050565b600082601f83011262000ddd5762000ddc62000c79565b5b815162000def84826020860162000d7a565b91505092915050565b6000806000806080858703121562000e155762000e1462000bcc565b5b600062000e258782880162000c24565b945050602062000e388782880162000c24565b935050604062000e4b8782880162000c62565b925050606085015167ffffffffffffffff81111562000e6f5762000e6e62000bd1565b5b62000e7d8782880162000dc5565b91505092959194509250565b600081905092915050565b7f3000000000000000000000000000000000000000000000000000000000000000600082015250565b600062000ecc60018362000e89565b915062000ed98262000e94565b600182019050919050565b600062000ef18262000ebd565b9150819050919050565b600081519050919050565b7f4e487b7100000000000000000000000000000000000000000000000000000000600052602260045260246000fd5b6000600282049050600182168062000f4e57607f821691505b60208210810362000f645762000f6362000f06565b5b50919050565b60008190508160005260206000209050919050565b60006020601f8301049050919050565b600082821b905092915050565b60006008830262000fce7fffffffffffffffffffffffffffffffffffffffffffffffffffffffffffffffff8262000f8f565b62000fda868362000f8f565b95508019841693508086168417925050509392505050565b6000819050919050565b6000819050919050565b600062001027620010216200101b8462000ff2565b62000ffc565b62000ff2565b9050919050565b6000819050919050565b620010438362001006565b6200105b62001052826200102e565b84845462000f9c565b825550505050565b600090565b6200107262001063565b6200107f81848462001038565b505050565b5b81811015620010a7576200109b60008262001068565b60018101905062001085565b5050565b601f821115620010f657620010c08162000f6a565b620010cb8462000f7f565b81016020851015620010db578190505b620010f3620010ea8562000f7f565b83018262001084565b50505b505050565b600082821c905092915050565b60006200111b60001984600802620010fb565b1980831691505092915050565b600062001136838362001108565b9150826002028217905092915050565b620011518262000efb565b67ffffffffffffffff8111156200116d576200116c62000c94565b5b62001179825462000f35565b62001186828285620010ab565b600060209050601f831160018114620011be5760008415620011a9578287015190505b620011b5858262001128565b86555062001225565b601f198416620011ce8662000f6a565b60005b82811015620011f857848901518255600182019150602085019450602081019050620011d1565b8683101562001218578489015162001214601f89168262001108565b8355505b6001600288020188555050505b505050505050565b7f4164616d00000000000000000000000000000000000000000000000000000000600082015250565b60006200126560048362000e89565b915062001272826200122d565b600482019050919050565b60006200128a8262001256565b9150819050919050565b6000620012a18262000efb565b620012ad818562000e89565b9350620012bf81856020860162000d4e565b80840191505092915050565b6000620012d9828462001294565b915081905092915050565b61428b80620012f46000396000f3fe6080604052600436106101c15760003560e01c806361cabe37116100f7578063b233e5eb11610095578063d2114e1811610064578063d2114e181461066a578063d2125bd2146106a7578063d547741f146106d0578063f2fde38b146106f9576101c1565b8063b233e5eb146105ab578063b44cf600146105d4578063b932fbfa146105f0578063c1cada781461062d576101c1565b80637cec446b116100d15780637cec446b146104db5780638da5cb5b1461051857806391d1485414610543578063a217fddf14610580576101c1565b806361cabe3714610470578063679b06be146104ad578063715018a6146104c4576101c1565b8063248a9ca311610164578063387439041161013e57806338743904146103b2578063460e6c9c146103dd57806348dc15611461041a5780635d1ce88f14610445576101c1565b8063248a9ca3146103235780632f2ff15d1461036057806336568abe14610389576101c1565b80630ae50a39116101a05780630ae50a39146102555780630d48cae8146102805780631892fd78146102bd5780632067eac8146102fa576101c1565b8062d396ed146101c6578063018d3dc9146101ef57806301ffc9a714610218575b600080fd5b3480156101d257600080fd5b506101ed60048036038101906101e89190612e3a565b610722565b005b3480156101fb57600080fd5b5061021660048036038101906102119190612fad565b610b90565b005b34801561022457600080fd5b5061023f600480360381019061023a919061307d565b610d0e565b60405161024c91906130c5565b60405180910390f35b34801561026157600080fd5b5061026a610d88565b6040516102779190613121565b60405180910390f35b34801561028c57600080fd5b506102a760048036038101906102a2919061313c565b610db2565b6040516102b491906132c1565b60405180910390f35b3480156102c957600080fd5b506102e460048036038101906102df919061330f565b611027565b6040516102f191906132c1565b60405180910390f35b34801561030657600080fd5b50610321600480360381019061031c919061330f565b61128e565b005b34801561032f57600080fd5b5061034a60048036038101906103459190613372565b6115bf565b60405161035791906133ae565b60405180910390f35b34801561036c57600080fd5b50610387600480360381019061038291906133c9565b6115df565b005b34801561039557600080fd5b506103b060048036038101906103ab91906133c9565b611600565b005b3480156103be57600080fd5b506103c7611683565b6040516103d491906133ae565b60405180910390f35b3480156103e957600080fd5b5061040460048036038101906103ff9190613409565b6116a7565b60405161041191906130c5565b60405180910390f35b34801561042657600080fd5b5061042f6116d6565b60405161043c9190613462565b60405180910390f35b34801561045157600080fd5b5061045a6116e0565b60405161046791906133ae565b60405180910390f35b34801561047c57600080fd5b506104976004803603810190610492919061330f565b611708565b6040516104a4919061348c565b60405180910390f35b3480156104b957600080fd5b506104c2611723565b005b3480156104d057600080fd5b506104d96117ca565b005b3480156104e757600080fd5b5061050260048036038101906104fd9190612e3a565b6117de565b60405161050f9190613121565b60405180910390f35b34801561052457600080fd5b5061052d611821565b60405161053a9190613121565b60405180910390f35b34801561054f57600080fd5b5061056a600480360381019061056591906133c9565b61184a565b60405161057791906130c5565b60405180910390f35b34801561058c57600080fd5b506105956118b5565b6040516105a291906133ae565b60405180910390f35b3480156105b757600080fd5b506105d260048036038101906105cd91906134a7565b6118bc565b005b6105ee60048036038101906105e99190613503565b611c18565b005b3480156105fc57600080fd5b506106176004803603810190610612919061330f565b61205f565b6040516106249190613608565b60405180910390f35b34801561063957600080fd5b50610654600480360381019061064f9190612e3a565b612081565b60405161066191906132c1565b60405180910390f35b34801561067657600080fd5b50610691600480360381019061068c919061313c565b6122f6565b60405161069e9190613121565b60405180910390f35b3480156106b357600080fd5b506106ce60048036038101906106c99190613656565b61233e565b005b3480156106dc57600080fd5b506106f760048036038101906106f291906133c9565b612350565b005b34801561070557600080fd5b50610720600480360381019061071b919061330f565b612371565b005b600061072d826117de565b90506000600560008373ffffffffffffffffffffffffffffffffffffffff1673ffffffffffffffffffffffffffffffffffffffff168152602001908152602001600020600201805461077e906136b2565b80601f01602080910402602001604051908101604052809291908181526020018280546107aa906136b2565b80156107f75780601f106107cc576101008083540402835291602001916107f7565b820191906000526020600020905b8154815290600101906020018083116107da57829003601f168201915b5050505050905060001515600560008473ffffffffffffffffffffffffffffffffffffffff1673ffffffffffffffffffffffffffffffffffffffff168152602001908152602001600020600001601c9054906101000a900460ff16151514610894576040517f08c379a000000000000000000000000000000000000000000000000000000000815260040161088b90613755565b60405180910390fd5b6000600760003373ffffffffffffffffffffffffffffffffffffffff1673ffffffffffffffffffffffffffffffffffffffff16815260200190815260200160002060008473ffffffffffffffffffffffffffffffffffffffff1673ffffffffffffffffffffffffffffffffffffffff16815260200190815260200160002060009054906101000a900460ff1690506000151581151514610969576040517f08c379a0000000000000000000000000000000000000000000000000000000008152600401610960906137c1565b60405180910390fd5b600560008473ffffffffffffffffffffffffffffffffffffffff1673ffffffffffffffffffffffffffffffffffffffff168152602001908152602001600020600080820160006101000a81549073ffffffffffffffffffffffffffffffffffffffff02191690556000820160146101000a81549067ffffffffffffffff021916905560008201601c6101000a81549060ff02191690556001820160006101000a81549073ffffffffffffffffffffffffffffffffffffffff0219169055600282016000610a369190612d29565b600382016000610a469190612d29565b5050600460008560070b60070b815260200190815260200160002060006101000a81549073ffffffffffffffffffffffffffffffffffffffff0219169055600682604051610a94919061381d565b908152602001604051809103902060006101000a81549073ffffffffffffffffffffffffffffffffffffffff0219169055600760003373ffffffffffffffffffffffffffffffffffffffff1673ffffffffffffffffffffffffffffffffffffffff16815260200190815260200160002060008473ffffffffffffffffffffffffffffffffffffffff1673ffffffffffffffffffffffffffffffffffffffff16815260200190815260200160002060006101000a81549060ff02191690557f7f25a59d906bf9fb883c74ad54e4b0e924fb0326f2f946caf2875485585d0fbf8484604051610b82929190613834565b60405180910390a150505050565b6000610b9b826122f6565b90506000610ba8846122f6565b90503373ffffffffffffffffffffffffffffffffffffffff168273ffffffffffffffffffffffffffffffffffffffff1614610c18576040517f08c379a0000000000000000000000000000000000000000000000000000000008152600401610c0f906138cf565b60405180910390fd5b6000600560008473ffffffffffffffffffffffffffffffffffffffff1673ffffffffffffffffffffffffffffffffffffffff168152602001908152602001600020600001601c6101000a81548160ff0219169083151502179055506000600760008373ffffffffffffffffffffffffffffffffffffffff1673ffffffffffffffffffffffffffffffffffffffff16815260200190815260200160002060003373ffffffffffffffffffffffffffffffffffffffff1673ffffffffffffffffffffffffffffffffffffffff16815260200190815260200160002060006101000a81548160ff02191690831515021790555050505050565b60007f7965db0b000000000000000000000000000000000000000000000000000000007bffffffffffffffffffffffffffffffffffffffffffffffffffffffff1916827bffffffffffffffffffffffffffffffffffffffffffffffffffffffff19161480610d815750610d80826123f4565b5b9050919050565b6000600360009054906101000a900473ffffffffffffffffffffffffffffffffffffffff16905090565b610dba612d69565b6000610dc5836122f6565b90506000600560008373ffffffffffffffffffffffffffffffffffffffff1673ffffffffffffffffffffffffffffffffffffffff1681526020019081526020016000206040518060c00160405290816000820160009054906101000a900473ffffffffffffffffffffffffffffffffffffffff1673ffffffffffffffffffffffffffffffffffffffff1673ffffffffffffffffffffffffffffffffffffffff1681526020016000820160149054906101000a900460070b60070b60070b815260200160008201601c9054906101000a900460ff161515151581526020016001820160009054906101000a900473ffffffffffffffffffffffffffffffffffffffff1673ffffffffffffffffffffffffffffffffffffffff1673ffffffffffffffffffffffffffffffffffffffff168152602001600282018054610f07906136b2565b80601f0160208091040260200160405190810160405280929190818152602001828054610f33906136b2565b8015610f805780601f10610f5557610100808354040283529160200191610f80565b820191906000526020600020905b815481529060010190602001808311610f6357829003601f168201915b50505050508152602001600382018054610f99906136b2565b80601f0160208091040260200160405190810160405280929190818152602001828054610fc5906136b2565b80156110125780601f10610fe757610100808354040283529160200191611012565b820191906000526020600020905b815481529060010190602001808311610ff557829003601f168201915b50505050508152505090508092505050919050565b61102f612d69565b6000600560008473ffffffffffffffffffffffffffffffffffffffff1673ffffffffffffffffffffffffffffffffffffffff1681526020019081526020016000206040518060c00160405290816000820160009054906101000a900473ffffffffffffffffffffffffffffffffffffffff1673ffffffffffffffffffffffffffffffffffffffff1673ffffffffffffffffffffffffffffffffffffffff1681526020016000820160149054906101000a900460070b60070b60070b815260200160008201601c9054906101000a900460ff161515151581526020016001820160009054906101000a900473ffffffffffffffffffffffffffffffffffffffff1673ffffffffffffffffffffffffffffffffffffffff1673ffffffffffffffffffffffffffffffffffffffff16815260200160028201805461116f906136b2565b80601f016020809104026020016040519081016040528092919081815260200182805461119b906136b2565b80156111e85780601f106111bd576101008083540402835291602001916111e8565b820191906000526020600020905b8154815290600101906020018083116111cb57829003601f168201915b50505050508152602001600382018054611201906136b2565b80601f016020809104026020016040519081016040528092919081815260200182805461122d906136b2565b801561127a5780601f1061124f5761010080835404028352916020019161127a565b820191906000526020600020905b81548152906001019060200180831161125d57829003601f168201915b505050505081525050905080915050919050565b7fcea62fe6ecc79e221c545bf918f804693c542ead2549e37c2bb9baa66ee2e1576112b88161245e565b6000600560008473ffffffffffffffffffffffffffffffffffffffff1673ffffffffffffffffffffffffffffffffffffffff16815260200190815260200160002060000160149054906101000a900460070b90506000600560008573ffffffffffffffffffffffffffffffffffffffff1673ffffffffffffffffffffffffffffffffffffffff168152602001908152602001600020600201805461135b906136b2565b80601f0160208091040260200160405190810160405280929190818152602001828054611387906136b2565b80156113d45780601f106113a9576101008083540402835291602001916113d4565b820191906000526020600020905b8154815290600101906020018083116113b757829003601f168201915b50505050509050600046905060058114611423576040517f08c379a000000000000000000000000000000000000000000000000000000000815260040161141a90613961565b60405180910390fd5b600560008673ffffffffffffffffffffffffffffffffffffffff1673ffffffffffffffffffffffffffffffffffffffff168152602001908152602001600020600080820160006101000a81549073ffffffffffffffffffffffffffffffffffffffff02191690556000820160146101000a81549067ffffffffffffffff021916905560008201601c6101000a81549060ff02191690556001820160006101000a81549073ffffffffffffffffffffffffffffffffffffffff02191690556002820160006114f09190612d29565b6003820160006115009190612d29565b5050600460008460070b60070b815260200190815260200160002060006101000a81549073ffffffffffffffffffffffffffffffffffffffff021916905560068260405161154e919061381d565b908152602001604051809103902060006101000a81549073ffffffffffffffffffffffffffffffffffffffff02191690557f7f25a59d906bf9fb883c74ad54e4b0e924fb0326f2f946caf2875485585d0fbf83866040516115b0929190613834565b60405180910390a15050505050565b600060016000838152602001908152602001600020600101549050919050565b6115e8826115bf565b6115f18161245e565b6115fb8383612472565b505050565b611608612552565b73ffffffffffffffffffffffffffffffffffffffff168173ffffffffffffffffffffffffffffffffffffffff1614611675576040517f08c379a000000000000000000000000000000000000000000000000000000000815260040161166c906139f3565b60405180910390fd5b61167f828261255a565b5050565b7fcea62fe6ecc79e221c545bf918f804693c542ead2549e37c2bb9baa66ee2e15781565b60076020528160005260406000206020528060005260406000206000915091509054906101000a900460ff1681565b6000600254905090565b60007fcea62fe6ecc79e221c545bf918f804693c542ead2549e37c2bb9baa66ee2e157905090565b60008061171483611027565b90508060200151915050919050565b6000600560003373ffffffffffffffffffffffffffffffffffffffff1673ffffffffffffffffffffffffffffffffffffffff168152602001908152602001600020600001601c9054906101000a900460ff16905060001515811515146117be576040517f08c379a00000000000000000000000000000000000000000000000000000000081526004016117b590613a5f565b60405180910390fd5b6117c73361263c565b50565b6117d26128f9565b6117dc6000612977565b565b6000600460008360070b60070b815260200190815260200160002060009054906101000a900473ffffffffffffffffffffffffffffffffffffffff169050919050565b60008060009054906101000a900473ffffffffffffffffffffffffffffffffffffffff16905090565b60006001600084815260200190815260200160002060000160008373ffffffffffffffffffffffffffffffffffffffff1673ffffffffffffffffffffffffffffffffffffffff16815260200190815260200160002060009054906101000a900460ff16905092915050565b6000801b81565b60006006826040516118ce919061381d565b908152602001604051809103902060009054906101000a900473ffffffffffffffffffffffffffffffffffffffff1690503373ffffffffffffffffffffffffffffffffffffffff168173ffffffffffffffffffffffffffffffffffffffff161461196d576040517f08c379a000000000000000000000000000000000000000000000000000000000815260040161196490613acb565b60405180910390fd5b6000611978846117de565b90506000600760008473ffffffffffffffffffffffffffffffffffffffff1673ffffffffffffffffffffffffffffffffffffffff16815260200190815260200160002060008373ffffffffffffffffffffffffffffffffffffffff1673ffffffffffffffffffffffffffffffffffffffff16815260200190815260200160002060009054906101000a900460ff1690506000151581151514611a4f576040517f08c379a0000000000000000000000000000000000000000000000000000000008152600401611a4690613b37565b60405180910390fd5b6001600560008473ffffffffffffffffffffffffffffffffffffffff1673ffffffffffffffffffffffffffffffffffffffff168152602001908152602001600020600001601c6101000a81548160ff02191690831515021790555033600560008473ffffffffffffffffffffffffffffffffffffffff1673ffffffffffffffffffffffffffffffffffffffff16815260200190815260200160002060010160006101000a81548173ffffffffffffffffffffffffffffffffffffffff021916908373ffffffffffffffffffffffffffffffffffffffff1602179055506001600760008573ffffffffffffffffffffffffffffffffffffffff1673ffffffffffffffffffffffffffffffffffffffff16815260200190815260200160002060008473ffffffffffffffffffffffffffffffffffffffff1673ffffffffffffffffffffffffffffffffffffffff16815260200190815260200160002060006101000a81548160ff0219169083151502179055508173ffffffffffffffffffffffffffffffffffffffff167fadbeb0a5d66e2be993428864e5c86f7c8aa562e2c58131d193ac2eeb7443817a846001604051611c09929190613b57565b60405180910390a25050505050565b60003390506002543414611c61576040517f08c379a0000000000000000000000000000000000000000000000000000000008152600401611c5890613bcc565b60405180910390fd5b6000600684604051611c73919061381d565b908152602001604051809103902060009054906101000a900473ffffffffffffffffffffffffffffffffffffffff1690506040518060c001604052808373ffffffffffffffffffffffffffffffffffffffff1681526020018760070b81526020016000151581526020018273ffffffffffffffffffffffffffffffffffffffff16815260200186815260200184815250600560003373ffffffffffffffffffffffffffffffffffffffff1673ffffffffffffffffffffffffffffffffffffffff16815260200190815260200160002060008201518160000160006101000a81548173ffffffffffffffffffffffffffffffffffffffff021916908373ffffffffffffffffffffffffffffffffffffffff16021790555060208201518160000160146101000a81548167ffffffffffffffff021916908360070b67ffffffffffffffff160217905550604082015181600001601c6101000a81548160ff02191690831515021790555060608201518160010160006101000a81548173ffffffffffffffffffffffffffffffffffffffff021916908373ffffffffffffffffffffffffffffffffffffffff1602179055506080820151816002019081611e379190613d98565b5060a0820151816003019081611e4d9190613d98565b509050506000600360009054906101000a900473ffffffffffffffffffffffffffffffffffffffff1673ffffffffffffffffffffffffffffffffffffffff16600254604051611e9b90613e9b565b60006040518083038185875af1925050503d8060008114611ed8576040519150601f19603f3d011682016040523d82523d6000602084013e611edd565b606091505b5050905080611f21576040517f08c379a0000000000000000000000000000000000000000000000000000000008152600401611f1890613efc565b60405180910390fd5b8173ffffffffffffffffffffffffffffffffffffffff167f217213f52d0ada6519b1710cff4d5e622165afded08327f17577ff3c303713608833604051611f69929190613834565b60405180910390a28173ffffffffffffffffffffffffffffffffffffffff167f2f9961dc36e79933613fb931d5ca8392c911b25840b07276e17e19961d2282408833604051611fb9929190613834565b60405180910390a26000600760008473ffffffffffffffffffffffffffffffffffffffff1673ffffffffffffffffffffffffffffffffffffffff16815260200190815260200160002060003373ffffffffffffffffffffffffffffffffffffffff1673ffffffffffffffffffffffffffffffffffffffff16815260200190815260200160002060006101000a81548160ff02191690831515021790555050505050505050565b6060600061206c83611027565b905060008160a0015190508092505050919050565b612089612d69565b6000612094836117de565b90506000600560008373ffffffffffffffffffffffffffffffffffffffff1673ffffffffffffffffffffffffffffffffffffffff1681526020019081526020016000206040518060c00160405290816000820160009054906101000a900473ffffffffffffffffffffffffffffffffffffffff1673ffffffffffffffffffffffffffffffffffffffff1673ffffffffffffffffffffffffffffffffffffffff1681526020016000820160149054906101000a900460070b60070b60070b815260200160008201601c9054906101000a900460ff161515151581526020016001820160009054906101000a900473ffffffffffffffffffffffffffffffffffffffff1673ffffffffffffffffffffffffffffffffffffffff1673ffffffffffffffffffffffffffffffffffffffff1681526020016002820180546121d6906136b2565b80601f0160208091040260200160405190810160405280929190818152602001828054612202906136b2565b801561224f5780601f106122245761010080835404028352916020019161224f565b820191906000526020600020905b81548152906001019060200180831161223257829003601f168201915b50505050508152602001600382018054612268906136b2565b80601f0160208091040260200160405190810160405280929190818152602001828054612294906136b2565b80156122e15780601f106122b6576101008083540402835291602001916122e1565b820191906000526020600020905b8154815290600101906020018083116122c457829003601f168201915b50505050508152505090508092505050919050565b6000600682604051612308919061381d565b908152602001604051809103902060009054906101000a900473ffffffffffffffffffffffffffffffffffffffff169050919050565b6123466128f9565b8060028190555050565b612359826115bf565b6123628161245e565b61236c838361255a565b505050565b6123796128f9565b600073ffffffffffffffffffffffffffffffffffffffff168173ffffffffffffffffffffffffffffffffffffffff16036123e8576040517f08c379a00000000000000000000000000000000000000000000000000000000081526004016123df90613f8e565b60405180910390fd5b6123f181612977565b50565b60007f01ffc9a7000000000000000000000000000000000000000000000000000000007bffffffffffffffffffffffffffffffffffffffffffffffffffffffff1916827bffffffffffffffffffffffffffffffffffffffffffffffffffffffff1916149050919050565b61246f8161246a612552565b612a3b565b50565b61247c828261184a565b61254e57600180600084815260200190815260200160002060000160008373ffffffffffffffffffffffffffffffffffffffff1673ffffffffffffffffffffffffffffffffffffffff16815260200190815260200160002060006101000a81548160ff0219169083151502179055506124f3612552565b73ffffffffffffffffffffffffffffffffffffffff168173ffffffffffffffffffffffffffffffffffffffff16837f2f8788117e7eff1d82e926ec794901d17c78024a50270940304540a733656f0d60405160405180910390a45b5050565b600033905090565b612564828261184a565b156126385760006001600084815260200190815260200160002060000160008373ffffffffffffffffffffffffffffffffffffffff1673ffffffffffffffffffffffffffffffffffffffff16815260200190815260200160002060006101000a81548160ff0219169083151502179055506125dd612552565b73ffffffffffffffffffffffffffffffffffffffff168173ffffffffffffffffffffffffffffffffffffffff16837ff6391f5c32d9c69d2a47ea670b442974b53935d1edc7fd64eb21e047a839171b60405160405180910390a45b5050565b6000600560008373ffffffffffffffffffffffffffffffffffffffff1673ffffffffffffffffffffffffffffffffffffffff16815260200190815260200160002060000160149054906101000a900460070b90506000600560008473ffffffffffffffffffffffffffffffffffffffff1673ffffffffffffffffffffffffffffffffffffffff16815260200190815260200160002060020180546126df906136b2565b80601f016020809104026020016040519081016040528092919081815260200182805461270b906136b2565b80156127585780601f1061272d57610100808354040283529160200191612758565b820191906000526020600020905b81548152906001019060200180831161273b57829003601f168201915b50505050509050600560008473ffffffffffffffffffffffffffffffffffffffff1673ffffffffffffffffffffffffffffffffffffffff168152602001908152602001600020600080820160006101000a81549073ffffffffffffffffffffffffffffffffffffffff02191690556000820160146101000a81549067ffffffffffffffff021916905560008201601c6101000a81549060ff02191690556001820160006101000a81549073ffffffffffffffffffffffffffffffffffffffff021916905560028201600061282c9190612d29565b60038201600061283c9190612d29565b5050600460008360070b60070b815260200190815260200160002060006101000a81549073ffffffffffffffffffffffffffffffffffffffff021916905560068160405161288a919061381d565b908152602001604051809103902060006101000a81549073ffffffffffffffffffffffffffffffffffffffff02191690557f7f25a59d906bf9fb883c74ad54e4b0e924fb0326f2f946caf2875485585d0fbf82846040516128ec929190613834565b60405180910390a1505050565b612901612552565b73ffffffffffffffffffffffffffffffffffffffff1661291f611821565b73ffffffffffffffffffffffffffffffffffffffff1614612975576040517f08c379a000000000000000000000000000000000000000000000000000000000815260040161296c90613ffa565b60405180910390fd5b565b60008060009054906101000a900473ffffffffffffffffffffffffffffffffffffffff169050816000806101000a81548173ffffffffffffffffffffffffffffffffffffffff021916908373ffffffffffffffffffffffffffffffffffffffff1602179055508173ffffffffffffffffffffffffffffffffffffffff168173ffffffffffffffffffffffffffffffffffffffff167f8be0079c531659141344cd1fd0a4f28419497f9722a3daafe3b4186f6b6457e060405160405180910390a35050565b612a45828261184a565b612abc57612a5281612ac0565b612a608360001c6020612aed565b604051602001612a719291906140b2565b6040516020818303038152906040526040517f08c379a0000000000000000000000000000000000000000000000000000000008152600401612ab39190613608565b60405180910390fd5b5050565b6060612ae68273ffffffffffffffffffffffffffffffffffffffff16601460ff16612aed565b9050919050565b606060006002836002612b00919061411b565b612b0a919061415d565b67ffffffffffffffff811115612b2357612b22612e82565b5b6040519080825280601f01601f191660200182016040528015612b555781602001600182028036833780820191505090505b5090507f300000000000000000000000000000000000000000000000000000000000000081600081518110612b8d57612b8c614191565b5b60200101907effffffffffffffffffffffffffffffffffffffffffffffffffffffffffffff1916908160001a9053507f780000000000000000000000000000000000000000000000000000000000000081600181518110612bf157612bf0614191565b5b60200101907effffffffffffffffffffffffffffffffffffffffffffffffffffffffffffff1916908160001a90535060006001846002612c31919061411b565b612c3b919061415d565b90505b6001811115612cdb577f3031323334353637383961626364656600000000000000000000000000000000600f861660108110612c7d57612c7c614191565b5b1a60f81b828281518110612c9457612c93614191565b5b60200101907effffffffffffffffffffffffffffffffffffffffffffffffffffffffffffff1916908160001a905350600485901c945080612cd4906141c0565b9050612c3e565b5060008414612d1f576040517f08c379a0000000000000000000000000000000000000000000000000000000008152600401612d1690614235565b60405180910390fd5b8091505092915050565b508054612d35906136b2565b6000825580601f10612d475750612d66565b601f016020900490600052602060002090810190612d659190612dd0565b5b50565b6040518060c00160405280600073ffffffffffffffffffffffffffffffffffffffff168152602001600060070b8152602001600015158152602001600073ffffffffffffffffffffffffffffffffffffffff16815260200160608152602001606081525090565b5b80821115612de9576000816000905550600101612dd1565b5090565b6000604051905090565b600080fd5b600080fd5b60008160070b9050919050565b612e1781612e01565b8114612e2257600080fd5b50565b600081359050612e3481612e0e565b92915050565b600060208284031215612e5057612e4f612df7565b5b6000612e5e84828501612e25565b91505092915050565b600080fd5b600080fd5b6000601f19601f8301169050919050565b7f4e487b7100000000000000000000000000000000000000000000000000000000600052604160045260246000fd5b612eba82612e71565b810181811067ffffffffffffffff82111715612ed957612ed8612e82565b5b80604052505050565b6000612eec612ded565b9050612ef88282612eb1565b919050565b600067ffffffffffffffff821115612f1857612f17612e82565b5b612f2182612e71565b9050602081019050919050565b82818337600083830152505050565b6000612f50612f4b84612efd565b612ee2565b905082815260208101848484011115612f6c57612f6b612e6c565b5b612f77848285612f2e565b509392505050565b600082601f830112612f9457612f93612e67565b5b8135612fa4848260208601612f3d565b91505092915050565b60008060408385031215612fc457612fc3612df7565b5b600083013567ffffffffffffffff811115612fe257612fe1612dfc565b5b612fee85828601612f7f565b925050602083013567ffffffffffffffff81111561300f5761300e612dfc565b5b61301b85828601612f7f565b9150509250929050565b60007fffffffff0000000000000000000000000000000000000000000000000000000082169050919050565b61305a81613025565b811461306557600080fd5b50565b60008135905061307781613051565b92915050565b60006020828403121561309357613092612df7565b5b60006130a184828501613068565b91505092915050565b60008115159050919050565b6130bf816130aa565b82525050565b60006020820190506130da60008301846130b6565b92915050565b600073ffffffffffffffffffffffffffffffffffffffff82169050919050565b600061310b826130e0565b9050919050565b61311b81613100565b82525050565b60006020820190506131366000830184613112565b92915050565b60006020828403121561315257613151612df7565b5b600082013567ffffffffffffffff8111156131705761316f612dfc565b5b61317c84828501612f7f565b91505092915050565b61318e81613100565b82525050565b61319d81612e01565b82525050565b6131ac816130aa565b82525050565b600081519050919050565b600082825260208201905092915050565b60005b838110156131ec5780820151818401526020810190506131d1565b60008484015250505050565b6000613203826131b2565b61320d81856131bd565b935061321d8185602086016131ce565b61322681612e71565b840191505092915050565b600060c0830160008301516132496000860182613185565b50602083015161325c6020860182613194565b50604083015161326f60408601826131a3565b5060608301516132826060860182613185565b506080830151848203608086015261329a82826131f8565b91505060a083015184820360a08601526132b482826131f8565b9150508091505092915050565b600060208201905081810360008301526132db8184613231565b905092915050565b6132ec81613100565b81146132f757600080fd5b50565b600081359050613309816132e3565b92915050565b60006020828403121561332557613324612df7565b5b6000613333848285016132fa565b91505092915050565b6000819050919050565b61334f8161333c565b811461335a57600080fd5b50565b60008135905061336c81613346565b92915050565b60006020828403121561338857613387612df7565b5b60006133968482850161335d565b91505092915050565b6133a88161333c565b82525050565b60006020820190506133c3600083018461339f565b92915050565b600080604083850312156133e0576133df612df7565b5b60006133ee8582860161335d565b92505060206133ff858286016132fa565b9150509250929050565b600080604083850312156134205761341f612df7565b5b600061342e858286016132fa565b925050602061343f858286016132fa565b9150509250929050565b6000819050919050565b61345c81613449565b82525050565b60006020820190506134776000830184613453565b92915050565b61348681612e01565b82525050565b60006020820190506134a1600083018461347d565b92915050565b600080604083850312156134be576134bd612df7565b5b60006134cc85828601612e25565b925050602083013567ffffffffffffffff8111156134ed576134ec612dfc565b5b6134f985828601612f7f565b9150509250929050565b6000806000806080858703121561351d5761351c612df7565b5b600061352b87828801612e25565b945050602085013567ffffffffffffffff81111561354c5761354b612dfc565b5b61355887828801612f7f565b935050604085013567ffffffffffffffff81111561357957613578612dfc565b5b61358587828801612f7f565b925050606085013567ffffffffffffffff8111156135a6576135a5612dfc565b5b6135b287828801612f7f565b91505092959194509250565b600082825260208201905092915050565b60006135da826131b2565b6135e481856135be565b93506135f48185602086016131ce565b6135fd81612e71565b840191505092915050565b6000602082019050818103600083015261362281846135cf565b905092915050565b61363381613449565b811461363e57600080fd5b50565b6000813590506136508161362a565b92915050565b60006020828403121561366c5761366b612df7565b5b600061367a84828501613641565b91505092915050565b7f4e487b7100000000000000000000000000000000000000000000000000000000600052602260045260246000fd5b600060028204905060018216806136ca57607f821691505b6020821081036136dd576136dc613683565b5b50919050565b7f616c726561647920617070726f766564204f5220646f206e6f7420657869737460008201527f7320796574000000000000000000000000000000000000000000000000000000602082015250565b600061373f6025836135be565b915061374a826136e3565b604082019050919050565b6000602082019050818103600083015261376e81613732565b9050919050565b7f616c7265616479206c696e6b6564204f5220646f6e7420657869737473000000600082015250565b60006137ab601d836135be565b91506137b682613775565b602082019050919050565b600060208201905081810360008301526137da8161379e565b9050919050565b600081905092915050565b60006137f7826131b2565b61380181856137e1565b93506138118185602086016131ce565b80840191505092915050565b600061382982846137ec565b915081905092915050565b6000604082019050613849600083018561347d565b6138566020830184613112565b9392505050565b7f757365727320616c6c6f776564206f6e6c7920746f20636c656172207468656d60008201527f73656c6673000000000000000000000000000000000000000000000000000000602082015250565b60006138b96025836135be565b91506138c48261385d565b604082019050919050565b600060208201905081810360008301526138e8816138ac565b9050919050565b7f746869732066756e6374696f6e20776f726b2773206f6e6c7920666f7220746560008201527f73746e6574000000000000000000000000000000000000000000000000000000602082015250565b600061394b6025836135be565b9150613956826138ef565b604082019050919050565b6000602082019050818103600083015261397a8161393e565b9050919050565b7f416363657373436f6e74726f6c3a2063616e206f6e6c792072656e6f756e636560008201527f20726f6c657320666f722073656c660000000000000000000000000000000000602082015250565b60006139dd602f836135be565b91506139e882613981565b604082019050919050565b60006020820190508181036000830152613a0c816139d0565b9050919050565b7f63616c6c20436c656172506172656e7420666972737400000000000000000000600082015250565b6000613a496016836135be565b9150613a5482613a13565b602082019050919050565b60006020820190508181036000830152613a7881613a3c565b9050919050565b7f6f6e6c7920706172656e745f6e616d652063616e206163636570742069740000600082015250565b6000613ab5601e836135be565b9150613ac082613a7f565b602082019050919050565b60006020820190508181036000830152613ae481613aa8565b9050919050565b7f616c726561647920726567697374726564000000000000000000000000000000600082015250565b6000613b216011836135be565b9150613b2c82613aeb565b602082019050919050565b60006020820190508181036000830152613b5081613b14565b9050919050565b6000604082019050613b6c6000830185613112565b613b7960208301846130b6565b9392505050565b7f5265717565737420666565206973206e6f742070616964000000000000000000600082015250565b6000613bb66017836135be565b9150613bc182613b80565b602082019050919050565b60006020820190508181036000830152613be581613ba9565b9050919050565b60008190508160005260206000209050919050565b60006020601f8301049050919050565b600082821b905092915050565b600060088302613c4e7fffffffffffffffffffffffffffffffffffffffffffffffffffffffffffffffff82613c11565b613c588683613c11565b95508019841693508086168417925050509392505050565b6000819050919050565b6000613c95613c90613c8b84613449565b613c70565b613449565b9050919050565b6000819050919050565b613caf83613c7a565b613cc3613cbb82613c9c565b848454613c1e565b825550505050565b600090565b613cd8613ccb565b613ce3818484613ca6565b505050565b5b81811015613d0757613cfc600082613cd0565b600181019050613ce9565b5050565b601f821115613d4c57613d1d81613bec565b613d2684613c01565b81016020851015613d35578190505b613d49613d4185613c01565b830182613ce8565b50505b505050565b600082821c905092915050565b6000613d6f60001984600802613d51565b1980831691505092915050565b6000613d888383613d5e565b9150826002028217905092915050565b613da1826131b2565b67ffffffffffffffff811115613dba57613db9612e82565b5b613dc482546136b2565b613dcf828285613d0b565b600060209050601f831160018114613e025760008415613df0578287015190505b613dfa8582613d7c565b865550613e62565b601f198416613e1086613bec565b60005b82811015613e3857848901518255600182019150602085019450602081019050613e13565b86831015613e555784890151613e51601f891682613d5e565b8355505b6001600288020188555050505b505050505050565b600081905092915050565b50565b6000613e85600083613e6a565b9150613e9082613e75565b600082019050919050565b6000613ea682613e78565b9150819050919050565b7f556e61626c6520746f207472616e736665722066656500000000000000000000600082015250565b6000613ee66016836135be565b9150613ef182613eb0565b602082019050919050565b60006020820190508181036000830152613f1581613ed9565b9050919050565b7f4f776e61626c653a206e6577206f776e657220697320746865207a65726f206160008201527f6464726573730000000000000000000000000000000000000000000000000000602082015250565b6000613f786026836135be565b9150613f8382613f1c565b604082019050919050565b60006020820190508181036000830152613fa781613f6b565b9050919050565b7f4f776e61626c653a2063616c6c6572206973206e6f7420746865206f776e6572600082015250565b6000613fe46020836135be565b9150613fef82613fae565b602082019050919050565b6000602082019050818103600083015261401381613fd7565b9050919050565b7f416363657373436f6e74726f6c3a206163636f756e7420000000000000000000600082015250565b60006140506017836137e1565b915061405b8261401a565b601782019050919050565b7f206973206d697373696e6720726f6c6520000000000000000000000000000000600082015250565b600061409c6011836137e1565b91506140a782614066565b601182019050919050565b60006140bd82614043565b91506140c982856137ec565b91506140d48261408f565b91506140e082846137ec565b91508190509392505050565b7f4e487b7100000000000000000000000000000000000000000000000000000000600052601160045260246000fd5b600061412682613449565b915061413183613449565b925082820261413f81613449565b91508282048414831517614156576141556140ec565b5b5092915050565b600061416882613449565b915061417383613449565b925082820190508082111561418b5761418a6140ec565b5b92915050565b7f4e487b7100000000000000000000000000000000000000000000000000000000600052603260045260246000fd5b60006141cb82613449565b9150600082036141de576141dd6140ec565b5b600182039050919050565b7f537472696e67733a20686578206c656e67746820696e73756666696369656e74600082015250565b600061421f6020836135be565b915061422a826141e9565b602082019050919050565b6000602082019050818103600083015261424e81614212565b905091905056fea26469706673582212207dd6d7f197cd00235373935e2d50abc77794747b8a2282f9288e5dd29b14751364736f6c634300081100337a6a58436a3969757365336748476141494967796169434f734a705157534345424261632f7a50477267513da2646970667358221220a35c0a4d0c223e0c3a1d40e43b91f805c038bf60ae5fd6426b2456da07486b7e64736f6c63430008110033",
  "linkReferences": {},
  "deployedLinkReferences": {}
}