{
  "_format": "hh-sol-artifact-1",
  "contractName": "Factory",
  "sourceName": "contracts/Factory.sol",
  "abi": [
    {
      "inputs": [
        {
          "internalType": "address",
          "name": "dictionary_",
          "type": "address"
        }
      ],
      "stateMutability": "nonpayable",
      "type": "constructor"
    },
    {
      "anonymous": false,
      "inputs": [
        {
          "indexed": true,
          "internalType": "address",
          "name": "creator",
          "type": "address"
        },
        {
          "indexed": false,
          "internalType": "address",
          "name": "collection",
          "type": "address"
        }
      ],
      "name": "LegionCreated",
      "type": "event"
    },
    {
      "anonymous": false,
      "inputs": [
        {
          "indexed": true,
          "internalType": "address",
          "name": "previousOwner",
          "type": "address"
        },
        {
          "indexed": true,
          "internalType": "address",
          "name": "newOwner",
          "type": "address"
        }
      ],
      "name": "OwnershipTransferred",
      "type": "event"
    },
    {
      "inputs": [
        {
          "internalType": "address",
          "name": "",
          "type": "address"
        }
      ],
      "name": "Collections",
      "outputs": [
        {
          "internalType": "address",
          "name": "",
          "type": "address"
        }
      ],
      "stateMutability": "view",
      "type": "function"
    },
    {
      "inputs": [
        {
          "internalType": "address",
          "name": "admin_",
          "type": "address"
        },
        {
          "internalType": "string",
          "name": "tgid_",
          "type": "string"
        },
        {
          "internalType": "string",
          "name": "public_key_",
          "type": "string"
        }
      ],
      "name": "DeployLegion",
      "outputs": [
        {
          "internalType": "address",
          "name": "",
          "type": "address"
        }
      ],
      "stateMutability": "nonpayable",
      "type": "function"
    },
    {
      "inputs": [],
      "name": "dictionary",
      "outputs": [
        {
          "internalType": "address",
          "name": "",
          "type": "address"
        }
      ],
      "stateMutability": "view",
      "type": "function"
    },
    {
      "inputs": [],
      "name": "owner",
      "outputs": [
        {
          "internalType": "address",
          "name": "",
          "type": "address"
        }
      ],
      "stateMutability": "view",
      "type": "function"
    },
    {
      "inputs": [],
      "name": "renounceOwnership",
      "outputs": [],
      "stateMutability": "nonpayable",
      "type": "function"
    },
    {
      "inputs": [
        {
          "internalType": "address",
          "name": "newOwner",
          "type": "address"
        }
      ],
      "name": "transferOwnership",
      "outputs": [],
      "stateMutability": "nonpayable",
      "type": "function"
    },
    {
      "inputs": [],
      "name": "treasure_fund",
      "outputs": [
        {
          "internalType": "address payable",
          "name": "",
          "type": "address"
        }
      ],
      "stateMutability": "view",
      "type": "function"
    }
  ],
  "bytecode": "0x608060405234801561001057600080fd5b50604051620063193803806200631983398181016040528101906100349190610207565b6100506100456100d860201b60201c565b6100e060201b60201c565b33600260006101000a81548173ffffffffffffffffffffffffffffffffffffffff021916908373ffffffffffffffffffffffffffffffffffffffff16021790555080600360006101000a81548173ffffffffffffffffffffffffffffffffffffffff021916908373ffffffffffffffffffffffffffffffffffffffff16021790555050610234565b600033905090565b60008060009054906101000a900473ffffffffffffffffffffffffffffffffffffffff169050816000806101000a81548173ffffffffffffffffffffffffffffffffffffffff021916908373ffffffffffffffffffffffffffffffffffffffff1602179055508173ffffffffffffffffffffffffffffffffffffffff168173ffffffffffffffffffffffffffffffffffffffff167f8be0079c531659141344cd1fd0a4f28419497f9722a3daafe3b4186f6b6457e060405160405180910390a35050565b600080fd5b600073ffffffffffffffffffffffffffffffffffffffff82169050919050565b60006101d4826101a9565b9050919050565b6101e4816101c9565b81146101ef57600080fd5b50565b600081519050610201816101db565b92915050565b60006020828403121561021d5761021c6101a4565b5b600061022b848285016101f2565b91505092915050565b6160d580620002446000396000f3fe60806040523480156200001157600080fd5b5060043610620000885760003560e01c8063a31a1b681162000063578063a31a1b6814620000f1578063cd5378281462000113578063f2fde38b1462000149578063f9a4bb1e14620001695762000088565b8063144ee425146200008d578063715018a614620000c35780638da5cb5b14620000cf575b600080fd5b620000ab6004803603810190620000a591906200056e565b6200018b565b604051620000ba9190620005b1565b60405180910390f35b620000cd620001be565b005b620000d9620001d6565b604051620000e89190620005b1565b60405180910390f35b620000fb620001ff565b6040516200010a9190620005b1565b60405180910390f35b6200013160048036038101906200012b919062000730565b62000225565b604051620001409190620005b1565b60405180910390f35b6200016760048036038101906200016191906200056e565b620002e6565b005b6200017362000370565b604051620001829190620007ef565b60405180910390f35b60016020528060005260406000206000915054906101000a900473ffffffffffffffffffffffffffffffffffffffff1681565b620001c862000396565b620001d460006200041b565b565b60008060009054906101000a900473ffffffffffffffffffffffffffffffffffffffff16905090565b600360009054906101000a900473ffffffffffffffffffffffffffffffffffffffff1681565b600080600360009054906101000a900473ffffffffffffffffffffffffffffffffffffffff168585856040516200025c90620004e7565b6200026b949392919062000895565b604051809103906000f08015801562000288573d6000803e3d6000fd5b5090503373ffffffffffffffffffffffffffffffffffffffff167ffb988978a7ef563ba6e086db0611ceb650c336283b77074de3159cc274c145fb82604051620002d39190620005b1565b60405180910390a2809150509392505050565b620002f062000396565b600073ffffffffffffffffffffffffffffffffffffffff168173ffffffffffffffffffffffffffffffffffffffff160362000362576040517f08c379a0000000000000000000000000000000000000000000000000000000008152600401620003599062000966565b60405180910390fd5b6200036d816200041b565b50565b600260009054906101000a900473ffffffffffffffffffffffffffffffffffffffff1681565b620003a0620004df565b73ffffffffffffffffffffffffffffffffffffffff16620003c0620001d6565b73ffffffffffffffffffffffffffffffffffffffff161462000419576040517f08c379a00000000000000000000000000000000000000000000000000000000081526004016200041090620009d8565b60405180910390fd5b565b60008060009054906101000a900473ffffffffffffffffffffffffffffffffffffffff169050816000806101000a81548173ffffffffffffffffffffffffffffffffffffffff021916908373ffffffffffffffffffffffffffffffffffffffff1602179055508173ffffffffffffffffffffffffffffffffffffffff168173ffffffffffffffffffffffffffffffffffffffff167f8be0079c531659141344cd1fd0a4f28419497f9722a3daafe3b4186f6b6457e060405160405180910390a35050565b600033905090565b6156a580620009fb83390190565b6000604051905090565b600080fd5b600080fd5b600073ffffffffffffffffffffffffffffffffffffffff82169050919050565b6000620005368262000509565b9050919050565b620005488162000529565b81146200055457600080fd5b50565b60008135905062000568816200053d565b92915050565b600060208284031215620005875762000586620004ff565b5b6000620005978482850162000557565b91505092915050565b620005ab8162000529565b82525050565b6000602082019050620005c86000830184620005a0565b92915050565b600080fd5b600080fd5b6000601f19601f8301169050919050565b7f4e487b7100000000000000000000000000000000000000000000000000000000600052604160045260246000fd5b6200062382620005d8565b810181811067ffffffffffffffff82111715620006455762000644620005e9565b5b80604052505050565b60006200065a620004f5565b905062000668828262000618565b919050565b600067ffffffffffffffff8211156200068b576200068a620005e9565b5b6200069682620005d8565b9050602081019050919050565b82818337600083830152505050565b6000620006c9620006c3846200066d565b6200064e565b905082815260208101848484011115620006e857620006e7620005d3565b5b620006f5848285620006a3565b509392505050565b600082601f830112620007155762000714620005ce565b5b813562000727848260208601620006b2565b91505092915050565b6000806000606084860312156200074c576200074b620004ff565b5b60006200075c8682870162000557565b935050602084013567ffffffffffffffff81111562000780576200077f62000504565b5b6200078e86828701620006fd565b925050604084013567ffffffffffffffff811115620007b257620007b162000504565b5b620007c086828701620006fd565b9150509250925092565b6000620007d78262000509565b9050919050565b620007e981620007ca565b82525050565b6000602082019050620008066000830184620007de565b92915050565b600081519050919050565b600082825260208201905092915050565b60005b83811015620008485780820151818401526020810190506200082b565b60008484015250505050565b600062000861826200080c565b6200086d818562000817565b93506200087f81856020860162000828565b6200088a81620005d8565b840191505092915050565b6000608082019050620008ac6000830187620005a0565b620008bb6020830186620005a0565b8181036040830152620008cf818562000854565b90508181036060830152620008e5818462000854565b905095945050505050565b7f4f776e61626c653a206e6577206f776e657220697320746865207a65726f206160008201527f6464726573730000000000000000000000000000000000000000000000000000602082015250565b60006200094e60268362000817565b91506200095b82620008f0565b604082019050919050565b6000602082019050818103600083015262000981816200093f565b9050919050565b7f4f776e61626c653a2063616c6c6572206973206e6f7420746865206f776e6572600082015250565b6000620009c060208362000817565b9150620009cd8262000988565b602082019050919050565b60006020820190508181036000830152620009f381620009b1565b905091905056fe60806040523480156200001157600080fd5b50604051620056a5380380620056a5833981810160405281019062000037919062000d7c565b620000576200004b6200046060201b60201c565b6200046860201b60201c565b66071afd498d0000600281905550620000756200052c60201b60201c565b600360006101000a81548173ffffffffffffffffffffffffffffffffffffffff021916908373ffffffffffffffffffffffffffffffffffffffff160217905550620000ca6000801b336200055560201b60201c565b620000fc7fcea62fe6ecc79e221c545bf918f804693c542ead2549e37c2bb9baa66ee2e157336200055560201b60201c565b83600860006101000a81548173ffffffffffffffffffffffffffffffffffffffff021916908373ffffffffffffffffffffffffffffffffffffffff1602179055503360048360405162000150919062000e79565b908152602001604051809103902060006101000a81548173ffffffffffffffffffffffffffffffffffffffff021916908373ffffffffffffffffffffffffffffffffffffffff160217905550336006604051620001ad9062000ee2565b908152602001604051809103902060006101000a81548173ffffffffffffffffffffffffffffffffffffffff021916908373ffffffffffffffffffffffffffffffffffffffff1602179055506040518060c001604052803373ffffffffffffffffffffffffffffffffffffffff1681526020018381526020016001151581526020013373ffffffffffffffffffffffffffffffffffffffff1681526020016040518060400160405280600181526020017f300000000000000000000000000000000000000000000000000000000000000081525081526020016040518060600160405280602c815260200162005679602c9139815250600560003373ffffffffffffffffffffffffffffffffffffffff1673ffffffffffffffffffffffffffffffffffffffff16815260200190815260200160002060008201518160000160006101000a81548173ffffffffffffffffffffffffffffffffffffffff021916908373ffffffffffffffffffffffffffffffffffffffff160217905550602082015181600101908162000340919062001139565b5060408201518160020160006101000a81548160ff02191690831515021790555060608201518160020160016101000a81548173ffffffffffffffffffffffffffffffffffffffff021916908373ffffffffffffffffffffffffffffffffffffffff1602179055506080820151816003019081620003bf919062001139565b5060a0820151816004019081620003d7919062001139565b50905050600073ffffffffffffffffffffffffffffffffffffffff168373ffffffffffffffffffffffffffffffffffffffff160362000442576200043c33836040518060600160405280602c815260200162005679602c91396200064660201b60201c565b62000456565b620004558383836200064660201b60201c565b5b5050505062001287565b600033905090565b60008060009054906101000a900473ffffffffffffffffffffffffffffffffffffffff169050816000806101000a81548173ffffffffffffffffffffffffffffffffffffffff021916908373ffffffffffffffffffffffffffffffffffffffff1602179055508173ffffffffffffffffffffffffffffffffffffffff168173ffffffffffffffffffffffffffffffffffffffff167f8be0079c531659141344cd1fd0a4f28419497f9722a3daafe3b4186f6b6457e060405160405180910390a35050565b60008060009054906101000a900473ffffffffffffffffffffffffffffffffffffffff16905090565b62000567828262000acf60201b60201c565b6200064257600180600084815260200190815260200160002060000160008373ffffffffffffffffffffffffffffffffffffffff1673ffffffffffffffffffffffffffffffffffffffff16815260200190815260200160002060006101000a81548160ff021916908315150217905550620005e76200046060201b60201c565b73ffffffffffffffffffffffffffffffffffffffff168173ffffffffffffffffffffffffffffffffffffffff16837f2f8788117e7eff1d82e926ec794901d17c78024a50270940304540a733656f0d60405160405180910390a45b5050565b8260048360405162000659919062000e79565b908152602001604051809103902060006101000a81548173ffffffffffffffffffffffffffffffffffffffff021916908373ffffffffffffffffffffffffffffffffffffffff160217905550826006604051620006b69062001270565b908152602001604051809103902060006101000a81548173ffffffffffffffffffffffffffffffffffffffff021916908373ffffffffffffffffffffffffffffffffffffffff1602179055506040518060c001604052808473ffffffffffffffffffffffffffffffffffffffff1681526020018381526020016001151581526020018473ffffffffffffffffffffffffffffffffffffffff1681526020016040518060400160405280600481526020017f4164616d00000000000000000000000000000000000000000000000000000000815250815260200182815250600560008573ffffffffffffffffffffffffffffffffffffffff1673ffffffffffffffffffffffffffffffffffffffff16815260200190815260200160002060008201518160000160006101000a81548173ffffffffffffffffffffffffffffffffffffffff021916908373ffffffffffffffffffffffffffffffffffffffff160217905550602082015181600101908162000830919062001139565b5060408201518160020160006101000a81548160ff02191690831515021790555060608201518160020160016101000a81548173ffffffffffffffffffffffffffffffffffffffff021916908373ffffffffffffffffffffffffffffffffffffffff1602179055506080820151816003019081620008af919062001139565b5060a0820151816004019081620008c7919062001139565b509050506001600560008573ffffffffffffffffffffffffffffffffffffffff1673ffffffffffffffffffffffffffffffffffffffff16815260200190815260200160002060020160006101000a81548160ff02191690831515021790555033600560008573ffffffffffffffffffffffffffffffffffffffff1673ffffffffffffffffffffffffffffffffffffffff16815260200190815260200160002060020160016101000a81548173ffffffffffffffffffffffffffffffffffffffff021916908373ffffffffffffffffffffffffffffffffffffffff1602179055506000620009ef6040518060400160405280600181526020017f300000000000000000000000000000000000000000000000000000000000000081525062000b3a60201b60201c565b90506001600760008373ffffffffffffffffffffffffffffffffffffffff1673ffffffffffffffffffffffffffffffffffffffff16815260200190815260200160002060008673ffffffffffffffffffffffffffffffffffffffff1673ffffffffffffffffffffffffffffffffffffffff16815260200190815260200160002060006101000a81548160ff0219169083151502179055508373ffffffffffffffffffffffffffffffffffffffff167f908408e307fc569b417f6cbec5d5a06f44a0a505ac0479b47d421a4b2fd6a1e660405160405180910390a250505050565b60006001600084815260200190815260200160002060000160008373ffffffffffffffffffffffffffffffffffffffff1673ffffffffffffffffffffffffffffffffffffffff16815260200190815260200160002060009054906101000a900460ff16905092915050565b600060068260405162000b4e919062000e79565b908152602001604051809103902060009054906101000a900473ffffffffffffffffffffffffffffffffffffffff169050919050565b6000604051905090565b600080fd5b600080fd5b600073ffffffffffffffffffffffffffffffffffffffff82169050919050565b600062000bc58262000b98565b9050919050565b62000bd78162000bb8565b811462000be357600080fd5b50565b60008151905062000bf78162000bcc565b92915050565b600080fd5b600080fd5b6000601f19601f8301169050919050565b7f4e487b7100000000000000000000000000000000000000000000000000000000600052604160045260246000fd5b62000c528262000c07565b810181811067ffffffffffffffff8211171562000c745762000c7362000c18565b5b80604052505050565b600062000c8962000b84565b905062000c97828262000c47565b919050565b600067ffffffffffffffff82111562000cba5762000cb962000c18565b5b62000cc58262000c07565b9050602081019050919050565b60005b8381101562000cf257808201518184015260208101905062000cd5565b60008484015250505050565b600062000d1562000d0f8462000c9c565b62000c7d565b90508281526020810184848401111562000d345762000d3362000c02565b5b62000d4184828562000cd2565b509392505050565b600082601f83011262000d615762000d6062000bfd565b5b815162000d7384826020860162000cfe565b91505092915050565b6000806000806080858703121562000d995762000d9862000b8e565b5b600062000da98782880162000be6565b945050602062000dbc8782880162000be6565b935050604085015167ffffffffffffffff81111562000de05762000ddf62000b93565b5b62000dee8782880162000d49565b925050606085015167ffffffffffffffff81111562000e125762000e1162000b93565b5b62000e208782880162000d49565b91505092959194509250565b600081519050919050565b600081905092915050565b600062000e4f8262000e2c565b62000e5b818562000e37565b935062000e6d81856020860162000cd2565b80840191505092915050565b600062000e87828462000e42565b915081905092915050565b7f3000000000000000000000000000000000000000000000000000000000000000600082015250565b600062000eca60018362000e37565b915062000ed78262000e92565b600182019050919050565b600062000eef8262000ebb565b9150819050919050565b7f4e487b7100000000000000000000000000000000000000000000000000000000600052602260045260246000fd5b6000600282049050600182168062000f4157607f821691505b60208210810362000f575762000f5662000ef9565b5b50919050565b60008190508160005260206000209050919050565b60006020601f8301049050919050565b600082821b905092915050565b60006008830262000fc17fffffffffffffffffffffffffffffffffffffffffffffffffffffffffffffffff8262000f82565b62000fcd868362000f82565b95508019841693508086168417925050509392505050565b6000819050919050565b6000819050919050565b60006200101a620010146200100e8462000fe5565b62000fef565b62000fe5565b9050919050565b6000819050919050565b620010368362000ff9565b6200104e620010458262001021565b84845462000f8f565b825550505050565b600090565b6200106562001056565b620010728184846200102b565b505050565b5b818110156200109a576200108e6000826200105b565b60018101905062001078565b5050565b601f821115620010e957620010b38162000f5d565b620010be8462000f72565b81016020851015620010ce578190505b620010e6620010dd8562000f72565b83018262001077565b50505b505050565b600082821c905092915050565b60006200110e60001984600802620010ee565b1980831691505092915050565b6000620011298383620010fb565b9150826002028217905092915050565b620011448262000e2c565b67ffffffffffffffff81111562001160576200115f62000c18565b5b6200116c825462000f28565b620011798282856200109e565b600060209050601f831160018114620011b157600084156200119c578287015190505b620011a885826200111b565b86555062001218565b601f198416620011c18662000f5d565b60005b82811015620011eb57848901518255600182019150602085019450602081019050620011c4565b868310156200120b578489015162001207601f891682620010fb565b8355505b6001600288020188555050505b505050505050565b7f4164616d00000000000000000000000000000000000000000000000000000000600082015250565b60006200125860048362000e37565b9150620012658262001220565b600482019050919050565b60006200127d8262001249565b9150819050919050565b6143e280620012976000396000f3fe6080604052600436106101c25760003560e01c806348dc1561116100f75780639b45179f11610095578063d2114e1811610064578063d2114e181461066b578063d2125bd2146106a8578063d547741f146106d1578063f2fde38b146106fa576101c2565b80639b45179f146105be578063a217fddf146105e7578063b932fbfa14610612578063c54080c51461064f576101c2565b8063679b06be116100d1578063679b06be14610528578063715018a61461053f5780638da5cb5b1461055657806391d1485414610581576101c2565b806348dc1561146104955780635d1ce88f146104c057806361cabe37146104eb576101c2565b80632067eac8116101645780632f2ff15d1161013e5780632f2ff15d146103db57806336568abe14610404578063387439041461042d578063460e6c9c14610458576101c2565b80632067eac81461034c578063248a9ca314610375578063286b2e54146103b2576101c2565b80630d48cae8116101a05780630d48cae81461025857806315905bdd146102955780631892fd78146102d25780631a519ce81461030f576101c2565b8063018d3dc9146101c757806301ffc9a7146101f05780630ae50a391461022d575b600080fd5b3480156101d357600080fd5b506101ee60048036038101906101e9919061316f565b610723565b005b3480156101fc57600080fd5b506102176004803603810190610212919061323f565b6108a1565b6040516102249190613287565b60405180910390f35b34801561023957600080fd5b5061024261091b565b60405161024f91906132e3565b60405180910390f35b34801561026457600080fd5b5061027f600480360381019061027a91906132fe565b610945565b60405161028c919061347b565b60405180910390f35b3480156102a157600080fd5b506102bc60048036038101906102b791906132fe565b610c2f565b6040516102c991906132e3565b60405180910390f35b3480156102de57600080fd5b506102f960048036038101906102f491906134c9565b610c77565b604051610306919061347b565b60405180910390f35b34801561031b57600080fd5b50610336600480360381019061033191906132fe565b610f53565b604051610343919061347b565b60405180910390f35b34801561035857600080fd5b50610373600480360381019061036e91906134c9565b61123d565b005b34801561038157600080fd5b5061039c6004803603810190610397919061352c565b6115e3565b6040516103a99190613568565b60405180910390f35b3480156103be57600080fd5b506103d960048036038101906103d491906132fe565b611603565b005b3480156103e757600080fd5b5061040260048036038101906103fd9190613583565b611a6b565b005b34801561041057600080fd5b5061042b60048036038101906104269190613583565b611a8c565b005b34801561043957600080fd5b50610442611b0f565b60405161044f9190613568565b60405180910390f35b34801561046457600080fd5b5061047f600480360381019061047a91906135c3565b611b33565b60405161048c9190613287565b60405180910390f35b3480156104a157600080fd5b506104aa611b62565b6040516104b7919061361c565b60405180910390f35b3480156104cc57600080fd5b506104d5611b6c565b6040516104e29190613568565b60405180910390f35b3480156104f757600080fd5b50610512600480360381019061050d91906134c9565b611b94565b60405161051f9190613681565b60405180910390f35b34801561053457600080fd5b5061053d611bb0565b005b34801561054b57600080fd5b50610554611c57565b005b34801561056257600080fd5b5061056b611c6b565b60405161057891906132e3565b60405180910390f35b34801561058d57600080fd5b506105a860048036038101906105a39190613583565b611c94565b6040516105b59190613287565b60405180910390f35b3480156105ca57600080fd5b506105e560048036038101906105e0919061316f565b611cff565b005b3480156105f357600080fd5b506105fc61205b565b6040516106099190613568565b60405180910390f35b34801561061e57600080fd5b50610639600480360381019061063491906134c9565b612062565b6040516106469190613681565b60405180910390f35b610669600480360381019061066491906136a3565b612084565b005b34801561067757600080fd5b50610692600480360381019061068d91906132fe565b6124ac565b60405161069f91906132e3565b60405180910390f35b3480156106b457600080fd5b506106cf60048036038101906106ca91906137a6565b6124f4565b005b3480156106dd57600080fd5b506106f860048036038101906106f39190613583565b612506565b005b34801561070657600080fd5b50610721600480360381019061071c91906134c9565b612527565b005b600061072e826124ac565b9050600061073b846124ac565b90503373ffffffffffffffffffffffffffffffffffffffff168273ffffffffffffffffffffffffffffffffffffffff16146107ab576040517f08c379a00000000000000000000000000000000000000000000000000000000081526004016107a290613845565b60405180910390fd5b6000600560008473ffffffffffffffffffffffffffffffffffffffff1673ffffffffffffffffffffffffffffffffffffffff16815260200190815260200160002060020160006101000a81548160ff0219169083151502179055506000600760008373ffffffffffffffffffffffffffffffffffffffff1673ffffffffffffffffffffffffffffffffffffffff16815260200190815260200160002060003373ffffffffffffffffffffffffffffffffffffffff1673ffffffffffffffffffffffffffffffffffffffff16815260200190815260200160002060006101000a81548160ff02191690831515021790555050505050565b60007f7965db0b000000000000000000000000000000000000000000000000000000007bffffffffffffffffffffffffffffffffffffffffffffffffffffffff1916827bffffffffffffffffffffffffffffffffffffffffffffffffffffffff191614806109145750610913826125aa565b5b9050919050565b6000600360009054906101000a900473ffffffffffffffffffffffffffffffffffffffff16905090565b61094d612f54565b6000610958836124ac565b90506000600560008373ffffffffffffffffffffffffffffffffffffffff1673ffffffffffffffffffffffffffffffffffffffff1681526020019081526020016000206040518060c00160405290816000820160009054906101000a900473ffffffffffffffffffffffffffffffffffffffff1673ffffffffffffffffffffffffffffffffffffffff1673ffffffffffffffffffffffffffffffffffffffff168152602001600182018054610a0c90613894565b80601f0160208091040260200160405190810160405280929190818152602001828054610a3890613894565b8015610a855780601f10610a5a57610100808354040283529160200191610a85565b820191906000526020600020905b815481529060010190602001808311610a6857829003601f168201915b505050505081526020016002820160009054906101000a900460ff161515151581526020016002820160019054906101000a900473ffffffffffffffffffffffffffffffffffffffff1673ffffffffffffffffffffffffffffffffffffffff1673ffffffffffffffffffffffffffffffffffffffff168152602001600382018054610b0f90613894565b80601f0160208091040260200160405190810160405280929190818152602001828054610b3b90613894565b8015610b885780601f10610b5d57610100808354040283529160200191610b88565b820191906000526020600020905b815481529060010190602001808311610b6b57829003601f168201915b50505050508152602001600482018054610ba190613894565b80601f0160208091040260200160405190810160405280929190818152602001828054610bcd90613894565b8015610c1a5780601f10610bef57610100808354040283529160200191610c1a565b820191906000526020600020905b815481529060010190602001808311610bfd57829003601f168201915b50505050508152505090508092505050919050565b6000600482604051610c419190613901565b908152602001604051809103902060009054906101000a900473ffffffffffffffffffffffffffffffffffffffff169050919050565b610c7f612f54565b6000600560008473ffffffffffffffffffffffffffffffffffffffff1673ffffffffffffffffffffffffffffffffffffffff1681526020019081526020016000206040518060c00160405290816000820160009054906101000a900473ffffffffffffffffffffffffffffffffffffffff1673ffffffffffffffffffffffffffffffffffffffff1673ffffffffffffffffffffffffffffffffffffffff168152602001600182018054610d3190613894565b80601f0160208091040260200160405190810160405280929190818152602001828054610d5d90613894565b8015610daa5780601f10610d7f57610100808354040283529160200191610daa565b820191906000526020600020905b815481529060010190602001808311610d8d57829003601f168201915b505050505081526020016002820160009054906101000a900460ff161515151581526020016002820160019054906101000a900473ffffffffffffffffffffffffffffffffffffffff1673ffffffffffffffffffffffffffffffffffffffff1673ffffffffffffffffffffffffffffffffffffffff168152602001600382018054610e3490613894565b80601f0160208091040260200160405190810160405280929190818152602001828054610e6090613894565b8015610ead5780601f10610e8257610100808354040283529160200191610ead565b820191906000526020600020905b815481529060010190602001808311610e9057829003601f168201915b50505050508152602001600482018054610ec690613894565b80601f0160208091040260200160405190810160405280929190818152602001828054610ef290613894565b8015610f3f5780601f10610f1457610100808354040283529160200191610f3f565b820191906000526020600020905b815481529060010190602001808311610f2257829003601f168201915b505050505081525050905080915050919050565b610f5b612f54565b6000610f6683610c2f565b90506000600560008373ffffffffffffffffffffffffffffffffffffffff1673ffffffffffffffffffffffffffffffffffffffff1681526020019081526020016000206040518060c00160405290816000820160009054906101000a900473ffffffffffffffffffffffffffffffffffffffff1673ffffffffffffffffffffffffffffffffffffffff1673ffffffffffffffffffffffffffffffffffffffff16815260200160018201805461101a90613894565b80601f016020809104026020016040519081016040528092919081815260200182805461104690613894565b80156110935780601f1061106857610100808354040283529160200191611093565b820191906000526020600020905b81548152906001019060200180831161107657829003601f168201915b505050505081526020016002820160009054906101000a900460ff161515151581526020016002820160019054906101000a900473ffffffffffffffffffffffffffffffffffffffff1673ffffffffffffffffffffffffffffffffffffffff1673ffffffffffffffffffffffffffffffffffffffff16815260200160038201805461111d90613894565b80601f016020809104026020016040519081016040528092919081815260200182805461114990613894565b80156111965780601f1061116b57610100808354040283529160200191611196565b820191906000526020600020905b81548152906001019060200180831161117957829003601f168201915b505050505081526020016004820180546111af90613894565b80601f01602080910402602001604051908101604052809291908181526020018280546111db90613894565b80156112285780601f106111fd57610100808354040283529160200191611228565b820191906000526020600020905b81548152906001019060200180831161120b57829003601f168201915b50505050508152505090508092505050919050565b7fcea62fe6ecc79e221c545bf918f804693c542ead2549e37c2bb9baa66ee2e15761126781612614565b6000600560008473ffffffffffffffffffffffffffffffffffffffff1673ffffffffffffffffffffffffffffffffffffffff16815260200190815260200160002060010180546112b690613894565b80601f01602080910402602001604051908101604052809291908181526020018280546112e290613894565b801561132f5780601f106113045761010080835404028352916020019161132f565b820191906000526020600020905b81548152906001019060200180831161131257829003601f168201915b505050505090506000600560008573ffffffffffffffffffffffffffffffffffffffff1673ffffffffffffffffffffffffffffffffffffffff168152602001908152602001600020600301805461138590613894565b80601f01602080910402602001604051908101604052809291908181526020018280546113b190613894565b80156113fe5780601f106113d3576101008083540402835291602001916113fe565b820191906000526020600020905b8154815290600101906020018083116113e157829003601f168201915b5050505050905060004690506005811461144d576040517f08c379a00000000000000000000000000000000000000000000000000000000081526004016114449061398a565b60405180910390fd5b600560008673ffffffffffffffffffffffffffffffffffffffff1673ffffffffffffffffffffffffffffffffffffffff168152602001908152602001600020600080820160006101000a81549073ffffffffffffffffffffffffffffffffffffffff02191690556001820160006114c49190612fb8565b6002820160006101000a81549060ff02191690556002820160016101000a81549073ffffffffffffffffffffffffffffffffffffffff021916905560038201600061150f9190612fb8565b60048201600061151f9190612fb8565b50506004836040516115319190613901565b908152602001604051809103902060006101000a81549073ffffffffffffffffffffffffffffffffffffffff02191690556006826040516115729190613901565b908152602001604051809103902060006101000a81549073ffffffffffffffffffffffffffffffffffffffff02191690557fe444442b4fc5a03103c68bde16932de23949be11145d1b4707d817bfb505573883866040516115d49291906139aa565b60405180910390a15050505050565b600060016000838152602001908152602001600020600101549050919050565b600061160e82610c2f565b90506000600560008373ffffffffffffffffffffffffffffffffffffffff1673ffffffffffffffffffffffffffffffffffffffff168152602001908152602001600020600301805461165f90613894565b80601f016020809104026020016040519081016040528092919081815260200182805461168b90613894565b80156116d85780601f106116ad576101008083540402835291602001916116d8565b820191906000526020600020905b8154815290600101906020018083116116bb57829003601f168201915b5050505050905060001515600560008473ffffffffffffffffffffffffffffffffffffffff1673ffffffffffffffffffffffffffffffffffffffff16815260200190815260200160002060020160009054906101000a900460ff16151514611775576040517f08c379a000000000000000000000000000000000000000000000000000000000815260040161176c90613a4c565b60405180910390fd5b6000600760003373ffffffffffffffffffffffffffffffffffffffff1673ffffffffffffffffffffffffffffffffffffffff16815260200190815260200160002060008473ffffffffffffffffffffffffffffffffffffffff1673ffffffffffffffffffffffffffffffffffffffff16815260200190815260200160002060009054906101000a900460ff169050600015158115151461184a576040517f08c379a000000000000000000000000000000000000000000000000000000000815260040161184190613ab8565b60405180910390fd5b600560008473ffffffffffffffffffffffffffffffffffffffff1673ffffffffffffffffffffffffffffffffffffffff168152602001908152602001600020600080820160006101000a81549073ffffffffffffffffffffffffffffffffffffffff02191690556001820160006118c19190612fb8565b6002820160006101000a81549060ff02191690556002820160016101000a81549073ffffffffffffffffffffffffffffffffffffffff021916905560038201600061190c9190612fb8565b60048201600061191c9190612fb8565b505060048460405161192e9190613901565b908152602001604051809103902060006101000a81549073ffffffffffffffffffffffffffffffffffffffff021916905560068260405161196f9190613901565b908152602001604051809103902060006101000a81549073ffffffffffffffffffffffffffffffffffffffff0219169055600760003373ffffffffffffffffffffffffffffffffffffffff1673ffffffffffffffffffffffffffffffffffffffff16815260200190815260200160002060008473ffffffffffffffffffffffffffffffffffffffff1673ffffffffffffffffffffffffffffffffffffffff16815260200190815260200160002060006101000a81549060ff02191690557fe444442b4fc5a03103c68bde16932de23949be11145d1b4707d817bfb50557388484604051611a5d9291906139aa565b60405180910390a150505050565b611a74826115e3565b611a7d81612614565b611a878383612628565b505050565b611a94612708565b73ffffffffffffffffffffffffffffffffffffffff168173ffffffffffffffffffffffffffffffffffffffff1614611b01576040517f08c379a0000000000000000000000000000000000000000000000000000000008152600401611af890613b4a565b60405180910390fd5b611b0b8282612710565b5050565b7fcea62fe6ecc79e221c545bf918f804693c542ead2549e37c2bb9baa66ee2e15781565b60076020528160005260406000206020528060005260406000206000915091509054906101000a900460ff1681565b6000600254905090565b60007fcea62fe6ecc79e221c545bf918f804693c542ead2549e37c2bb9baa66ee2e157905090565b60606000611ba183610c77565b90508060200151915050919050565b6000600560003373ffffffffffffffffffffffffffffffffffffffff1673ffffffffffffffffffffffffffffffffffffffff16815260200190815260200160002060020160009054906101000a900460ff1690506000151581151514611c4b576040517f08c379a0000000000000000000000000000000000000000000000000000000008152600401611c4290613bb6565b60405180910390fd5b611c54336127f2565b50565b611c5f612b24565b611c696000612ba2565b565b60008060009054906101000a900473ffffffffffffffffffffffffffffffffffffffff16905090565b60006001600084815260200190815260200160002060000160008373ffffffffffffffffffffffffffffffffffffffff1673ffffffffffffffffffffffffffffffffffffffff16815260200190815260200160002060009054906101000a900460ff16905092915050565b6000600682604051611d119190613901565b908152602001604051809103902060009054906101000a900473ffffffffffffffffffffffffffffffffffffffff1690503373ffffffffffffffffffffffffffffffffffffffff168173ffffffffffffffffffffffffffffffffffffffff1614611db0576040517f08c379a0000000000000000000000000000000000000000000000000000000008152600401611da790613c22565b60405180910390fd5b6000611dbb84610c2f565b90506000600760008473ffffffffffffffffffffffffffffffffffffffff1673ffffffffffffffffffffffffffffffffffffffff16815260200190815260200160002060008373ffffffffffffffffffffffffffffffffffffffff1673ffffffffffffffffffffffffffffffffffffffff16815260200190815260200160002060009054906101000a900460ff1690506000151581151514611e92576040517f08c379a0000000000000000000000000000000000000000000000000000000008152600401611e8990613c8e565b60405180910390fd5b6001600560008473ffffffffffffffffffffffffffffffffffffffff1673ffffffffffffffffffffffffffffffffffffffff16815260200190815260200160002060020160006101000a81548160ff02191690831515021790555033600560008473ffffffffffffffffffffffffffffffffffffffff1673ffffffffffffffffffffffffffffffffffffffff16815260200190815260200160002060020160016101000a81548173ffffffffffffffffffffffffffffffffffffffff021916908373ffffffffffffffffffffffffffffffffffffffff1602179055506001600760008573ffffffffffffffffffffffffffffffffffffffff1673ffffffffffffffffffffffffffffffffffffffff16815260200190815260200160002060008473ffffffffffffffffffffffffffffffffffffffff1673ffffffffffffffffffffffffffffffffffffffff16815260200190815260200160002060006101000a81548160ff0219169083151502179055508173ffffffffffffffffffffffffffffffffffffffff167fadbeb0a5d66e2be993428864e5c86f7c8aa562e2c58131d193ac2eeb7443817a84600160405161204c929190613cae565b60405180910390a25050505050565b6000801b81565b6060600061206f83610c77565b905060008160a0015190508092505050919050565b600033905060025434146120cd576040517f08c379a00000000000000000000000000000000000000000000000000000000081526004016120c490613d23565b60405180910390fd5b60006006846040516120df9190613901565b908152602001604051809103902060009054906101000a900473ffffffffffffffffffffffffffffffffffffffff1690506040518060c001604052808373ffffffffffffffffffffffffffffffffffffffff1681526020018781526020016000151581526020018273ffffffffffffffffffffffffffffffffffffffff16815260200186815260200184815250600560003373ffffffffffffffffffffffffffffffffffffffff1673ffffffffffffffffffffffffffffffffffffffff16815260200190815260200160002060008201518160000160006101000a81548173ffffffffffffffffffffffffffffffffffffffff021916908373ffffffffffffffffffffffffffffffffffffffff16021790555060208201518160010190816122079190613eef565b5060408201518160020160006101000a81548160ff02191690831515021790555060608201518160020160016101000a81548173ffffffffffffffffffffffffffffffffffffffff021916908373ffffffffffffffffffffffffffffffffffffffff16021790555060808201518160030190816122849190613eef565b5060a082015181600401908161229a9190613eef565b509050506000600360009054906101000a900473ffffffffffffffffffffffffffffffffffffffff1673ffffffffffffffffffffffffffffffffffffffff166002546040516122e890613ff2565b60006040518083038185875af1925050503d8060008114612325576040519150601f19603f3d011682016040523d82523d6000602084013e61232a565b606091505b505090508061236e576040517f08c379a000000000000000000000000000000000000000000000000000000000815260040161236590614053565b60405180910390fd5b8173ffffffffffffffffffffffffffffffffffffffff167f435b683210e9cdb43126109baed7a6a387c609e0e13532755b51016e1b773a6b88336040516123b69291906139aa565b60405180910390a28173ffffffffffffffffffffffffffffffffffffffff167f71ec84cb0c406d66954dcb2481d75f63a94ed77283afa5657d56e68a20df3c5288336040516124069291906139aa565b60405180910390a26000600760008473ffffffffffffffffffffffffffffffffffffffff1673ffffffffffffffffffffffffffffffffffffffff16815260200190815260200160002060003373ffffffffffffffffffffffffffffffffffffffff1673ffffffffffffffffffffffffffffffffffffffff16815260200190815260200160002060006101000a81548160ff02191690831515021790555050505050505050565b60006006826040516124be9190613901565b908152602001604051809103902060009054906101000a900473ffffffffffffffffffffffffffffffffffffffff169050919050565b6124fc612b24565b8060028190555050565b61250f826115e3565b61251881612614565b6125228383612710565b505050565b61252f612b24565b600073ffffffffffffffffffffffffffffffffffffffff168173ffffffffffffffffffffffffffffffffffffffff160361259e576040517f08c379a0000000000000000000000000000000000000000000000000000000008152600401612595906140e5565b60405180910390fd5b6125a781612ba2565b50565b60007f01ffc9a7000000000000000000000000000000000000000000000000000000007bffffffffffffffffffffffffffffffffffffffffffffffffffffffff1916827bffffffffffffffffffffffffffffffffffffffffffffffffffffffff1916149050919050565b61262581612620612708565b612c66565b50565b6126328282611c94565b61270457600180600084815260200190815260200160002060000160008373ffffffffffffffffffffffffffffffffffffffff1673ffffffffffffffffffffffffffffffffffffffff16815260200190815260200160002060006101000a81548160ff0219169083151502179055506126a9612708565b73ffffffffffffffffffffffffffffffffffffffff168173ffffffffffffffffffffffffffffffffffffffff16837f2f8788117e7eff1d82e926ec794901d17c78024a50270940304540a733656f0d60405160405180910390a45b5050565b600033905090565b61271a8282611c94565b156127ee5760006001600084815260200190815260200160002060000160008373ffffffffffffffffffffffffffffffffffffffff1673ffffffffffffffffffffffffffffffffffffffff16815260200190815260200160002060006101000a81548160ff021916908315150217905550612793612708565b73ffffffffffffffffffffffffffffffffffffffff168173ffffffffffffffffffffffffffffffffffffffff16837ff6391f5c32d9c69d2a47ea670b442974b53935d1edc7fd64eb21e047a839171b60405160405180910390a45b5050565b6000600560008373ffffffffffffffffffffffffffffffffffffffff1673ffffffffffffffffffffffffffffffffffffffff168152602001908152602001600020600101805461284190613894565b80601f016020809104026020016040519081016040528092919081815260200182805461286d90613894565b80156128ba5780601f1061288f576101008083540402835291602001916128ba565b820191906000526020600020905b81548152906001019060200180831161289d57829003601f168201915b505050505090506000600560008473ffffffffffffffffffffffffffffffffffffffff1673ffffffffffffffffffffffffffffffffffffffff168152602001908152602001600020600301805461291090613894565b80601f016020809104026020016040519081016040528092919081815260200182805461293c90613894565b80156129895780601f1061295e57610100808354040283529160200191612989565b820191906000526020600020905b81548152906001019060200180831161296c57829003601f168201915b50505050509050600560008473ffffffffffffffffffffffffffffffffffffffff1673ffffffffffffffffffffffffffffffffffffffff168152602001908152602001600020600080820160006101000a81549073ffffffffffffffffffffffffffffffffffffffff0219169055600182016000612a079190612fb8565b6002820160006101000a81549060ff02191690556002820160016101000a81549073ffffffffffffffffffffffffffffffffffffffff0219169055600382016000612a529190612fb8565b600482016000612a629190612fb8565b5050600482604051612a749190613901565b908152602001604051809103902060006101000a81549073ffffffffffffffffffffffffffffffffffffffff0219169055600681604051612ab59190613901565b908152602001604051809103902060006101000a81549073ffffffffffffffffffffffffffffffffffffffff02191690557fe444442b4fc5a03103c68bde16932de23949be11145d1b4707d817bfb50557388284604051612b179291906139aa565b60405180910390a1505050565b612b2c612708565b73ffffffffffffffffffffffffffffffffffffffff16612b4a611c6b565b73ffffffffffffffffffffffffffffffffffffffff1614612ba0576040517f08c379a0000000000000000000000000000000000000000000000000000000008152600401612b9790614151565b60405180910390fd5b565b60008060009054906101000a900473ffffffffffffffffffffffffffffffffffffffff169050816000806101000a81548173ffffffffffffffffffffffffffffffffffffffff021916908373ffffffffffffffffffffffffffffffffffffffff1602179055508173ffffffffffffffffffffffffffffffffffffffff168173ffffffffffffffffffffffffffffffffffffffff167f8be0079c531659141344cd1fd0a4f28419497f9722a3daafe3b4186f6b6457e060405160405180910390a35050565b612c708282611c94565b612ce757612c7d81612ceb565b612c8b8360001c6020612d18565b604051602001612c9c929190614209565b6040516020818303038152906040526040517f08c379a0000000000000000000000000000000000000000000000000000000008152600401612cde9190613681565b60405180910390fd5b5050565b6060612d118273ffffffffffffffffffffffffffffffffffffffff16601460ff16612d18565b9050919050565b606060006002836002612d2b9190614272565b612d3591906142b4565b67ffffffffffffffff811115612d4e57612d4d613044565b5b6040519080825280601f01601f191660200182016040528015612d805781602001600182028036833780820191505090505b5090507f300000000000000000000000000000000000000000000000000000000000000081600081518110612db857612db76142e8565b5b60200101907effffffffffffffffffffffffffffffffffffffffffffffffffffffffffffff1916908160001a9053507f780000000000000000000000000000000000000000000000000000000000000081600181518110612e1c57612e1b6142e8565b5b60200101907effffffffffffffffffffffffffffffffffffffffffffffffffffffffffffff1916908160001a90535060006001846002612e5c9190614272565b612e6691906142b4565b90505b6001811115612f06577f3031323334353637383961626364656600000000000000000000000000000000600f861660108110612ea857612ea76142e8565b5b1a60f81b828281518110612ebf57612ebe6142e8565b5b60200101907effffffffffffffffffffffffffffffffffffffffffffffffffffffffffffff1916908160001a905350600485901c945080612eff90614317565b9050612e69565b5060008414612f4a576040517f08c379a0000000000000000000000000000000000000000000000000000000008152600401612f419061438c565b60405180910390fd5b8091505092915050565b6040518060c00160405280600073ffffffffffffffffffffffffffffffffffffffff16815260200160608152602001600015158152602001600073ffffffffffffffffffffffffffffffffffffffff16815260200160608152602001606081525090565b508054612fc490613894565b6000825580601f10612fd65750612ff5565b601f016020900490600052602060002090810190612ff49190612ff8565b5b50565b5b80821115613011576000816000905550600101612ff9565b5090565b6000604051905090565b600080fd5b600080fd5b600080fd5b600080fd5b6000601f19601f8301169050919050565b7f4e487b7100000000000000000000000000000000000000000000000000000000600052604160045260246000fd5b61307c82613033565b810181811067ffffffffffffffff8211171561309b5761309a613044565b5b80604052505050565b60006130ae613015565b90506130ba8282613073565b919050565b600067ffffffffffffffff8211156130da576130d9613044565b5b6130e382613033565b9050602081019050919050565b82818337600083830152505050565b600061311261310d846130bf565b6130a4565b90508281526020810184848401111561312e5761312d61302e565b5b6131398482856130f0565b509392505050565b600082601f83011261315657613155613029565b5b81356131668482602086016130ff565b91505092915050565b600080604083850312156131865761318561301f565b5b600083013567ffffffffffffffff8111156131a4576131a3613024565b5b6131b085828601613141565b925050602083013567ffffffffffffffff8111156131d1576131d0613024565b5b6131dd85828601613141565b9150509250929050565b60007fffffffff0000000000000000000000000000000000000000000000000000000082169050919050565b61321c816131e7565b811461322757600080fd5b50565b60008135905061323981613213565b92915050565b6000602082840312156132555761325461301f565b5b60006132638482850161322a565b91505092915050565b60008115159050919050565b6132818161326c565b82525050565b600060208201905061329c6000830184613278565b92915050565b600073ffffffffffffffffffffffffffffffffffffffff82169050919050565b60006132cd826132a2565b9050919050565b6132dd816132c2565b82525050565b60006020820190506132f860008301846132d4565b92915050565b6000602082840312156133145761331361301f565b5b600082013567ffffffffffffffff81111561333257613331613024565b5b61333e84828501613141565b91505092915050565b613350816132c2565b82525050565b600081519050919050565b600082825260208201905092915050565b60005b83811015613390578082015181840152602081019050613375565b60008484015250505050565b60006133a782613356565b6133b18185613361565b93506133c1818560208601613372565b6133ca81613033565b840191505092915050565b6133de8161326c565b82525050565b600060c0830160008301516133fc6000860182613347565b5060208301518482036020860152613414828261339c565b915050604083015161342960408601826133d5565b50606083015161343c6060860182613347565b5060808301518482036080860152613454828261339c565b91505060a083015184820360a086015261346e828261339c565b9150508091505092915050565b6000602082019050818103600083015261349581846133e4565b905092915050565b6134a6816132c2565b81146134b157600080fd5b50565b6000813590506134c38161349d565b92915050565b6000602082840312156134df576134de61301f565b5b60006134ed848285016134b4565b91505092915050565b6000819050919050565b613509816134f6565b811461351457600080fd5b50565b60008135905061352681613500565b92915050565b6000602082840312156135425761354161301f565b5b600061355084828501613517565b91505092915050565b613562816134f6565b82525050565b600060208201905061357d6000830184613559565b92915050565b6000806040838503121561359a5761359961301f565b5b60006135a885828601613517565b92505060206135b9858286016134b4565b9150509250929050565b600080604083850312156135da576135d961301f565b5b60006135e8858286016134b4565b92505060206135f9858286016134b4565b9150509250929050565b6000819050919050565b61361681613603565b82525050565b6000602082019050613631600083018461360d565b92915050565b600082825260208201905092915050565b600061365382613356565b61365d8185613637565b935061366d818560208601613372565b61367681613033565b840191505092915050565b6000602082019050818103600083015261369b8184613648565b905092915050565b600080600080608085870312156136bd576136bc61301f565b5b600085013567ffffffffffffffff8111156136db576136da613024565b5b6136e787828801613141565b945050602085013567ffffffffffffffff81111561370857613707613024565b5b61371487828801613141565b935050604085013567ffffffffffffffff81111561373557613734613024565b5b61374187828801613141565b925050606085013567ffffffffffffffff81111561376257613761613024565b5b61376e87828801613141565b91505092959194509250565b61378381613603565b811461378e57600080fd5b50565b6000813590506137a08161377a565b92915050565b6000602082840312156137bc576137bb61301f565b5b60006137ca84828501613791565b91505092915050565b7f757365727320616c6c6f776564206f6e6c7920746f20636c656172207468656d60008201527f73656c6673000000000000000000000000000000000000000000000000000000602082015250565b600061382f602583613637565b915061383a826137d3565b604082019050919050565b6000602082019050818103600083015261385e81613822565b9050919050565b7f4e487b7100000000000000000000000000000000000000000000000000000000600052602260045260246000fd5b600060028204905060018216806138ac57607f821691505b6020821081036138bf576138be613865565b5b50919050565b600081905092915050565b60006138db82613356565b6138e581856138c5565b93506138f5818560208601613372565b80840191505092915050565b600061390d82846138d0565b915081905092915050565b7f746869732066756e6374696f6e20776f726b2773206f6e6c7920666f7220746560008201527f73746e6574000000000000000000000000000000000000000000000000000000602082015250565b6000613974602583613637565b915061397f82613918565b604082019050919050565b600060208201905081810360008301526139a381613967565b9050919050565b600060408201905081810360008301526139c48185613648565b90506139d360208301846132d4565b9392505050565b7f616c726561647920617070726f766564204f5220646f206e6f7420657869737460008201527f7320796574000000000000000000000000000000000000000000000000000000602082015250565b6000613a36602583613637565b9150613a41826139da565b604082019050919050565b60006020820190508181036000830152613a6581613a29565b9050919050565b7f616c7265616479206c696e6b6564204f5220646f6e7420657869737473000000600082015250565b6000613aa2601d83613637565b9150613aad82613a6c565b602082019050919050565b60006020820190508181036000830152613ad181613a95565b9050919050565b7f416363657373436f6e74726f6c3a2063616e206f6e6c792072656e6f756e636560008201527f20726f6c657320666f722073656c660000000000000000000000000000000000602082015250565b6000613b34602f83613637565b9150613b3f82613ad8565b604082019050919050565b60006020820190508181036000830152613b6381613b27565b9050919050565b7f63616c6c20436c656172506172656e7420666972737400000000000000000000600082015250565b6000613ba0601683613637565b9150613bab82613b6a565b602082019050919050565b60006020820190508181036000830152613bcf81613b93565b9050919050565b7f6f6e6c7920706172656e745f6e616d652063616e206163636570742069740000600082015250565b6000613c0c601e83613637565b9150613c1782613bd6565b602082019050919050565b60006020820190508181036000830152613c3b81613bff565b9050919050565b7f616c726561647920726567697374726564000000000000000000000000000000600082015250565b6000613c78601183613637565b9150613c8382613c42565b602082019050919050565b60006020820190508181036000830152613ca781613c6b565b9050919050565b6000604082019050613cc360008301856132d4565b613cd06020830184613278565b9392505050565b7f5265717565737420666565206973206e6f742070616964000000000000000000600082015250565b6000613d0d601783613637565b9150613d1882613cd7565b602082019050919050565b60006020820190508181036000830152613d3c81613d00565b9050919050565b60008190508160005260206000209050919050565b60006020601f8301049050919050565b600082821b905092915050565b600060088302613da57fffffffffffffffffffffffffffffffffffffffffffffffffffffffffffffffff82613d68565b613daf8683613d68565b95508019841693508086168417925050509392505050565b6000819050919050565b6000613dec613de7613de284613603565b613dc7565b613603565b9050919050565b6000819050919050565b613e0683613dd1565b613e1a613e1282613df3565b848454613d75565b825550505050565b600090565b613e2f613e22565b613e3a818484613dfd565b505050565b5b81811015613e5e57613e53600082613e27565b600181019050613e40565b5050565b601f821115613ea357613e7481613d43565b613e7d84613d58565b81016020851015613e8c578190505b613ea0613e9885613d58565b830182613e3f565b50505b505050565b600082821c905092915050565b6000613ec660001984600802613ea8565b1980831691505092915050565b6000613edf8383613eb5565b9150826002028217905092915050565b613ef882613356565b67ffffffffffffffff811115613f1157613f10613044565b5b613f1b8254613894565b613f26828285613e62565b600060209050601f831160018114613f595760008415613f47578287015190505b613f518582613ed3565b865550613fb9565b601f198416613f6786613d43565b60005b82811015613f8f57848901518255600182019150602085019450602081019050613f6a565b86831015613fac5784890151613fa8601f891682613eb5565b8355505b6001600288020188555050505b505050505050565b600081905092915050565b50565b6000613fdc600083613fc1565b9150613fe782613fcc565b600082019050919050565b6000613ffd82613fcf565b9150819050919050565b7f556e61626c6520746f207472616e736665722066656500000000000000000000600082015250565b600061403d601683613637565b915061404882614007565b602082019050919050565b6000602082019050818103600083015261406c81614030565b9050919050565b7f4f776e61626c653a206e6577206f776e657220697320746865207a65726f206160008201527f6464726573730000000000000000000000000000000000000000000000000000602082015250565b60006140cf602683613637565b91506140da82614073565b604082019050919050565b600060208201905081810360008301526140fe816140c2565b9050919050565b7f4f776e61626c653a2063616c6c6572206973206e6f7420746865206f776e6572600082015250565b600061413b602083613637565b915061414682614105565b602082019050919050565b6000602082019050818103600083015261416a8161412e565b9050919050565b7f416363657373436f6e74726f6c3a206163636f756e7420000000000000000000600082015250565b60006141a76017836138c5565b91506141b282614171565b601782019050919050565b7f206973206d697373696e6720726f6c6520000000000000000000000000000000600082015250565b60006141f36011836138c5565b91506141fe826141bd565b601182019050919050565b60006142148261419a565b915061422082856138d0565b915061422b826141e6565b915061423782846138d0565b91508190509392505050565b7f4e487b7100000000000000000000000000000000000000000000000000000000600052601160045260246000fd5b600061427d82613603565b915061428883613603565b925082820261429681613603565b915082820484148315176142ad576142ac614243565b5b5092915050565b60006142bf82613603565b91506142ca83613603565b92508282019050808211156142e2576142e1614243565b5b92915050565b7f4e487b7100000000000000000000000000000000000000000000000000000000600052603260045260246000fd5b600061432282613603565b91506000820361433557614334614243565b5b600182039050919050565b7f537472696e67733a20686578206c656e67746820696e73756666696369656e74600082015250565b6000614376602083613637565b915061438182614340565b602082019050919050565b600060208201905081810360008301526143a581614369565b905091905056fea2646970667358221220a7e8fad45cb6066584846bb794e44c58d3981b2b7466c5c0fe4a968eb0d3171164736f6c634300081100337a6a58436a3969757365336748476141494967796169434f734a705157534345424261632f7a50477267513da2646970667358221220b4ec227f33e3160fe7ee2665176229f123db4949c8ea392570f6c564b7763e4664736f6c63430008110033",
  "linkReferences": {},
  "deployedLinkReferences": {}
}