{
  "_format": "hh-sol-artifact-1",
  "contractName": "Factory",
  "sourceName": "contracts/Factory.sol",
  "abi": [
    {
      "inputs": [
        {
          "internalType": "address",
          "name": "dictionary_",
          "type": "address"
        }
      ],
      "stateMutability": "nonpayable",
      "type": "constructor"
    },
    {
      "anonymous": false,
      "inputs": [
        {
          "indexed": true,
          "internalType": "address",
          "name": "creator",
          "type": "address"
        },
        {
          "indexed": false,
          "internalType": "address",
          "name": "collection",
          "type": "address"
        }
      ],
      "name": "LegionCreated",
      "type": "event"
    },
    {
      "anonymous": false,
      "inputs": [
        {
          "indexed": true,
          "internalType": "address",
          "name": "previousOwner",
          "type": "address"
        },
        {
          "indexed": true,
          "internalType": "address",
          "name": "newOwner",
          "type": "address"
        }
      ],
      "name": "OwnershipTransferred",
      "type": "event"
    },
    {
      "inputs": [
        {
          "internalType": "address",
          "name": "",
          "type": "address"
        }
      ],
      "name": "Collections",
      "outputs": [
        {
          "internalType": "address",
          "name": "",
          "type": "address"
        }
      ],
      "stateMutability": "view",
      "type": "function"
    },
    {
      "inputs": [
        {
          "internalType": "address",
          "name": "admin_",
          "type": "address"
        },
        {
          "internalType": "int64",
          "name": "tgid_",
          "type": "int64"
        },
        {
          "internalType": "string",
          "name": "public_key_",
          "type": "string"
        }
      ],
      "name": "DeployLegion",
      "outputs": [
        {
          "internalType": "address",
          "name": "",
          "type": "address"
        }
      ],
      "stateMutability": "nonpayable",
      "type": "function"
    },
    {
      "inputs": [],
      "name": "dictionary",
      "outputs": [
        {
          "internalType": "address",
          "name": "",
          "type": "address"
        }
      ],
      "stateMutability": "view",
      "type": "function"
    },
    {
      "inputs": [],
      "name": "owner",
      "outputs": [
        {
          "internalType": "address",
          "name": "",
          "type": "address"
        }
      ],
      "stateMutability": "view",
      "type": "function"
    },
    {
      "inputs": [],
      "name": "renounceOwnership",
      "outputs": [],
      "stateMutability": "nonpayable",
      "type": "function"
    },
    {
      "inputs": [
        {
          "internalType": "address",
          "name": "newOwner",
          "type": "address"
        }
      ],
      "name": "transferOwnership",
      "outputs": [],
      "stateMutability": "nonpayable",
      "type": "function"
    },
    {
      "inputs": [],
      "name": "treasure_fund",
      "outputs": [
        {
          "internalType": "address payable",
          "name": "",
          "type": "address"
        }
      ],
      "stateMutability": "view",
      "type": "function"
    }
  ],
  "bytecode": "0x608060405234801561001057600080fd5b506040516200658d3803806200658d83398181016040528101906100349190610207565b6100506100456100d860201b60201c565b6100e060201b60201c565b33600260006101000a81548173ffffffffffffffffffffffffffffffffffffffff021916908373ffffffffffffffffffffffffffffffffffffffff16021790555080600360006101000a81548173ffffffffffffffffffffffffffffffffffffffff021916908373ffffffffffffffffffffffffffffffffffffffff16021790555050610234565b600033905090565b60008060009054906101000a900473ffffffffffffffffffffffffffffffffffffffff169050816000806101000a81548173ffffffffffffffffffffffffffffffffffffffff021916908373ffffffffffffffffffffffffffffffffffffffff1602179055508173ffffffffffffffffffffffffffffffffffffffff168173ffffffffffffffffffffffffffffffffffffffff167f8be0079c531659141344cd1fd0a4f28419497f9722a3daafe3b4186f6b6457e060405160405180910390a35050565b600080fd5b600073ffffffffffffffffffffffffffffffffffffffff82169050919050565b60006101d4826101a9565b9050919050565b6101e4816101c9565b81146101ef57600080fd5b50565b600081519050610201816101db565b92915050565b60006020828403121561021d5761021c6101a4565b5b600061022b848285016101f2565b91505092915050565b61634980620002446000396000f3fe60806040523480156200001157600080fd5b5060043610620000885760003560e01c80638da5cb5b11620000635780638da5cb5b1462000105578063a31a1b681462000127578063f2fde38b1462000149578063f9a4bb1e14620001695762000088565b8063144ee425146200008d57806333eb2d7e14620000c3578063715018a614620000f9575b600080fd5b620000ab6004803603810190620000a591906200056e565b6200018b565b604051620000ba9190620005b1565b60405180910390f35b620000e16004803603810190620000db91906200076e565b620001be565b604051620000f09190620005b1565b60405180910390f35b620001036200027f565b005b6200010f62000297565b6040516200011e9190620005b1565b60405180910390f35b62000131620002c0565b604051620001409190620005b1565b60405180910390f35b6200016760048036038101906200016191906200056e565b620002e6565b005b6200017362000370565b6040516200018291906200080e565b60405180910390f35b60016020528060005260406000206000915054906101000a900473ffffffffffffffffffffffffffffffffffffffff1681565b600080600360009054906101000a900473ffffffffffffffffffffffffffffffffffffffff16858585604051620001f590620004e7565b620002049493929190620008c5565b604051809103906000f08015801562000221573d6000803e3d6000fd5b5090503373ffffffffffffffffffffffffffffffffffffffff167ffb988978a7ef563ba6e086db0611ceb650c336283b77074de3159cc274c145fb826040516200026c9190620005b1565b60405180910390a2809150509392505050565b6200028962000396565b6200029560006200041b565b565b60008060009054906101000a900473ffffffffffffffffffffffffffffffffffffffff16905090565b600360009054906101000a900473ffffffffffffffffffffffffffffffffffffffff1681565b620002f062000396565b600073ffffffffffffffffffffffffffffffffffffffff168173ffffffffffffffffffffffffffffffffffffffff160362000362576040517f08c379a000000000000000000000000000000000000000000000000000000000815260040162000359906200098f565b60405180910390fd5b6200036d816200041b565b50565b600260009054906101000a900473ffffffffffffffffffffffffffffffffffffffff1681565b620003a0620004df565b73ffffffffffffffffffffffffffffffffffffffff16620003c062000297565b73ffffffffffffffffffffffffffffffffffffffff161462000419576040517f08c379a0000000000000000000000000000000000000000000000000000000008152600401620004109062000a01565b60405180910390fd5b565b60008060009054906101000a900473ffffffffffffffffffffffffffffffffffffffff169050816000806101000a81548173ffffffffffffffffffffffffffffffffffffffff021916908373ffffffffffffffffffffffffffffffffffffffff1602179055508173ffffffffffffffffffffffffffffffffffffffff168173ffffffffffffffffffffffffffffffffffffffff167f8be0079c531659141344cd1fd0a4f28419497f9722a3daafe3b4186f6b6457e060405160405180910390a35050565b600033905090565b6158f08062000a2483390190565b6000604051905090565b600080fd5b600080fd5b600073ffffffffffffffffffffffffffffffffffffffff82169050919050565b6000620005368262000509565b9050919050565b620005488162000529565b81146200055457600080fd5b50565b60008135905062000568816200053d565b92915050565b600060208284031215620005875762000586620004ff565b5b6000620005978482850162000557565b91505092915050565b620005ab8162000529565b82525050565b6000602082019050620005c86000830184620005a0565b92915050565b60008160070b9050919050565b620005e681620005ce565b8114620005f257600080fd5b50565b6000813590506200060681620005db565b92915050565b600080fd5b600080fd5b6000601f19601f8301169050919050565b7f4e487b7100000000000000000000000000000000000000000000000000000000600052604160045260246000fd5b620006618262000616565b810181811067ffffffffffffffff8211171562000683576200068262000627565b5b80604052505050565b600062000698620004f5565b9050620006a6828262000656565b919050565b600067ffffffffffffffff821115620006c957620006c862000627565b5b620006d48262000616565b9050602081019050919050565b82818337600083830152505050565b6000620007076200070184620006ab565b6200068c565b90508281526020810184848401111562000726576200072562000611565b5b62000733848285620006e1565b509392505050565b600082601f8301126200075357620007526200060c565b5b813562000765848260208601620006f0565b91505092915050565b6000806000606084860312156200078a5762000789620004ff565b5b60006200079a8682870162000557565b9350506020620007ad86828701620005f5565b925050604084013567ffffffffffffffff811115620007d157620007d062000504565b5b620007df868287016200073b565b9150509250925092565b6000620007f68262000509565b9050919050565b6200080881620007e9565b82525050565b6000602082019050620008256000830184620007fd565b92915050565b6200083681620005ce565b82525050565b600081519050919050565b600082825260208201905092915050565b60005b83811015620008785780820151818401526020810190506200085b565b60008484015250505050565b600062000891826200083c565b6200089d818562000847565b9350620008af81856020860162000858565b620008ba8162000616565b840191505092915050565b6000608082019050620008dc6000830187620005a0565b620008eb6020830186620005a0565b620008fa60408301856200082b565b81810360608301526200090e818462000884565b905095945050505050565b7f4f776e61626c653a206e6577206f776e657220697320746865207a65726f206160008201527f6464726573730000000000000000000000000000000000000000000000000000602082015250565b60006200097760268362000847565b9150620009848262000919565b604082019050919050565b60006020820190508181036000830152620009aa8162000968565b9050919050565b7f4f776e61626c653a2063616c6c6572206973206e6f7420746865206f776e6572600082015250565b6000620009e960208362000847565b9150620009f682620009b1565b602082019050919050565b6000602082019050818103600083015262000a1c81620009da565b905091905056fe60806040523480156200001157600080fd5b50604051620058f0380380620058f0833981810160405281019062000037919062000df8565b620000576200004b6200048860201b60201c565b6200049060201b60201c565b66071afd498d0000600281905550620000756200055460201b60201c565b600360006101000a81548173ffffffffffffffffffffffffffffffffffffffff021916908373ffffffffffffffffffffffffffffffffffffffff160217905550620000ca6000801b336200057d60201b60201c565b620000fc7fcea62fe6ecc79e221c545bf918f804693c542ead2549e37c2bb9baa66ee2e157336200057d60201b60201c565b83600860006101000a81548173ffffffffffffffffffffffffffffffffffffffff021916908373ffffffffffffffffffffffffffffffffffffffff16021790555033600460008460070b60070b815260200190815260200160002060006101000a81548173ffffffffffffffffffffffffffffffffffffffff021916908373ffffffffffffffffffffffffffffffffffffffff160217905550336006604051620001a69062000ee4565b908152602001604051809103902060006101000a81548173ffffffffffffffffffffffffffffffffffffffff021916908373ffffffffffffffffffffffffffffffffffffffff1602179055506040518060c001604052803373ffffffffffffffffffffffffffffffffffffffff1681526020018360070b81526020016001151581526020013373ffffffffffffffffffffffffffffffffffffffff1681526020016040518060400160405280600181526020017f300000000000000000000000000000000000000000000000000000000000000081525081526020016040518060600160405280602c8152602001620058c4602c9139815250600560003373ffffffffffffffffffffffffffffffffffffffff1673ffffffffffffffffffffffffffffffffffffffff16815260200190815260200160002060008201518160000160006101000a81548173ffffffffffffffffffffffffffffffffffffffff021916908373ffffffffffffffffffffffffffffffffffffffff16021790555060208201518160000160146101000a81548167ffffffffffffffff021916908360070b67ffffffffffffffff160217905550604082015181600001601c6101000a81548160ff02191690831515021790555060608201518160010160006101000a81548173ffffffffffffffffffffffffffffffffffffffff021916908373ffffffffffffffffffffffffffffffffffffffff1602179055506080820151816002019081620003d5919062001146565b5060a0820151816003019081620003ed919062001146565b50905050600073ffffffffffffffffffffffffffffffffffffffff168373ffffffffffffffffffffffffffffffffffffffff16148062000430575060008260070b145b156200046a5762000464336104d26040518060600160405280602c8152602001620058c4602c91396200066e60201b60201c565b6200047e565b6200047d8383836200066e60201b60201c565b5b50505050620012e4565b600033905090565b60008060009054906101000a900473ffffffffffffffffffffffffffffffffffffffff169050816000806101000a81548173ffffffffffffffffffffffffffffffffffffffff021916908373ffffffffffffffffffffffffffffffffffffffff1602179055508173ffffffffffffffffffffffffffffffffffffffff168173ffffffffffffffffffffffffffffffffffffffff167f8be0079c531659141344cd1fd0a4f28419497f9722a3daafe3b4186f6b6457e060405160405180910390a35050565b60008060009054906101000a900473ffffffffffffffffffffffffffffffffffffffff16905090565b6200058f828262000b0d60201b60201c565b6200066a57600180600084815260200190815260200160002060000160008373ffffffffffffffffffffffffffffffffffffffff1673ffffffffffffffffffffffffffffffffffffffff16815260200190815260200160002060006101000a81548160ff0219169083151502179055506200060f6200048860201b60201c565b73ffffffffffffffffffffffffffffffffffffffff168173ffffffffffffffffffffffffffffffffffffffff16837f2f8788117e7eff1d82e926ec794901d17c78024a50270940304540a733656f0d60405160405180910390a45b5050565b82600460008460070b60070b815260200190815260200160002060006101000a81548173ffffffffffffffffffffffffffffffffffffffff021916908373ffffffffffffffffffffffffffffffffffffffff160217905550826006604051620006d7906200127d565b908152602001604051809103902060006101000a81548173ffffffffffffffffffffffffffffffffffffffff021916908373ffffffffffffffffffffffffffffffffffffffff1602179055506040518060c001604052808473ffffffffffffffffffffffffffffffffffffffff1681526020018360070b81526020016001151581526020018473ffffffffffffffffffffffffffffffffffffffff1681526020016040518060400160405280600481526020017f4164616d00000000000000000000000000000000000000000000000000000000815250815260200182815250600560008573ffffffffffffffffffffffffffffffffffffffff1673ffffffffffffffffffffffffffffffffffffffff16815260200190815260200160002060008201518160000160006101000a81548173ffffffffffffffffffffffffffffffffffffffff021916908373ffffffffffffffffffffffffffffffffffffffff16021790555060208201518160000160146101000a81548167ffffffffffffffff021916908360070b67ffffffffffffffff160217905550604082015181600001601c6101000a81548160ff02191690831515021790555060608201518160010160006101000a81548173ffffffffffffffffffffffffffffffffffffffff021916908373ffffffffffffffffffffffffffffffffffffffff1602179055506080820151816002019081620008ed919062001146565b5060a082015181600301908162000905919062001146565b509050506001600560008573ffffffffffffffffffffffffffffffffffffffff1673ffffffffffffffffffffffffffffffffffffffff168152602001908152602001600020600001601c6101000a81548160ff02191690831515021790555033600560008573ffffffffffffffffffffffffffffffffffffffff1673ffffffffffffffffffffffffffffffffffffffff16815260200190815260200160002060010160006101000a81548173ffffffffffffffffffffffffffffffffffffffff021916908373ffffffffffffffffffffffffffffffffffffffff160217905550600062000a2d6040518060400160405280600181526020017f300000000000000000000000000000000000000000000000000000000000000081525062000b7860201b60201c565b90506001600760008373ffffffffffffffffffffffffffffffffffffffff1673ffffffffffffffffffffffffffffffffffffffff16815260200190815260200160002060008673ffffffffffffffffffffffffffffffffffffffff1673ffffffffffffffffffffffffffffffffffffffff16815260200190815260200160002060006101000a81548160ff0219169083151502179055508373ffffffffffffffffffffffffffffffffffffffff167f908408e307fc569b417f6cbec5d5a06f44a0a505ac0479b47d421a4b2fd6a1e660405160405180910390a250505050565b60006001600084815260200190815260200160002060000160008373ffffffffffffffffffffffffffffffffffffffff1673ffffffffffffffffffffffffffffffffffffffff16815260200190815260200160002060009054906101000a900460ff16905092915050565b600060068260405162000b8c9190620012cb565b908152602001604051809103902060009054906101000a900473ffffffffffffffffffffffffffffffffffffffff169050919050565b6000604051905090565b600080fd5b600080fd5b600073ffffffffffffffffffffffffffffffffffffffff82169050919050565b600062000c038262000bd6565b9050919050565b62000c158162000bf6565b811462000c2157600080fd5b50565b60008151905062000c358162000c0a565b92915050565b60008160070b9050919050565b62000c538162000c3b565b811462000c5f57600080fd5b50565b60008151905062000c738162000c48565b92915050565b600080fd5b600080fd5b6000601f19601f8301169050919050565b7f4e487b7100000000000000000000000000000000000000000000000000000000600052604160045260246000fd5b62000cce8262000c83565b810181811067ffffffffffffffff8211171562000cf05762000cef62000c94565b5b80604052505050565b600062000d0562000bc2565b905062000d13828262000cc3565b919050565b600067ffffffffffffffff82111562000d365762000d3562000c94565b5b62000d418262000c83565b9050602081019050919050565b60005b8381101562000d6e57808201518184015260208101905062000d51565b60008484015250505050565b600062000d9162000d8b8462000d18565b62000cf9565b90508281526020810184848401111562000db05762000daf62000c7e565b5b62000dbd84828562000d4e565b509392505050565b600082601f83011262000ddd5762000ddc62000c79565b5b815162000def84826020860162000d7a565b91505092915050565b6000806000806080858703121562000e155762000e1462000bcc565b5b600062000e258782880162000c24565b945050602062000e388782880162000c24565b935050604062000e4b8782880162000c62565b925050606085015167ffffffffffffffff81111562000e6f5762000e6e62000bd1565b5b62000e7d8782880162000dc5565b91505092959194509250565b600081905092915050565b7f3000000000000000000000000000000000000000000000000000000000000000600082015250565b600062000ecc60018362000e89565b915062000ed98262000e94565b600182019050919050565b600062000ef18262000ebd565b9150819050919050565b600081519050919050565b7f4e487b7100000000000000000000000000000000000000000000000000000000600052602260045260246000fd5b6000600282049050600182168062000f4e57607f821691505b60208210810362000f645762000f6362000f06565b5b50919050565b60008190508160005260206000209050919050565b60006020601f8301049050919050565b600082821b905092915050565b60006008830262000fce7fffffffffffffffffffffffffffffffffffffffffffffffffffffffffffffffff8262000f8f565b62000fda868362000f8f565b95508019841693508086168417925050509392505050565b6000819050919050565b6000819050919050565b600062001027620010216200101b8462000ff2565b62000ffc565b62000ff2565b9050919050565b6000819050919050565b620010438362001006565b6200105b62001052826200102e565b84845462000f9c565b825550505050565b600090565b6200107262001063565b6200107f81848462001038565b505050565b5b81811015620010a7576200109b60008262001068565b60018101905062001085565b5050565b601f821115620010f657620010c08162000f6a565b620010cb8462000f7f565b81016020851015620010db578190505b620010f3620010ea8562000f7f565b83018262001084565b50505b505050565b600082821c905092915050565b60006200111b60001984600802620010fb565b1980831691505092915050565b600062001136838362001108565b9150826002028217905092915050565b620011518262000efb565b67ffffffffffffffff8111156200116d576200116c62000c94565b5b62001179825462000f35565b62001186828285620010ab565b600060209050601f831160018114620011be5760008415620011a9578287015190505b620011b5858262001128565b86555062001225565b601f198416620011ce8662000f6a565b60005b82811015620011f857848901518255600182019150602085019450602081019050620011d1565b8683101562001218578489015162001214601f89168262001108565b8355505b6001600288020188555050505b505050505050565b7f4164616d00000000000000000000000000000000000000000000000000000000600082015250565b60006200126560048362000e89565b915062001272826200122d565b600482019050919050565b60006200128a8262001256565b9150819050919050565b6000620012a18262000efb565b620012ad818562000e89565b9350620012bf81856020860162000d4e565b80840191505092915050565b6000620012d9828462001294565b915081905092915050565b6145d080620012f46000396000f3fe6080604052600436106101c15760003560e01c806361cabe37116100f7578063b233e5eb11610095578063d2114e1811610064578063d2114e181461066a578063d2125bd2146106a7578063d547741f146106d0578063f2fde38b146106f9576101c1565b8063b233e5eb146105ab578063b44cf600146105d4578063b932fbfa146105f0578063c1cada781461062d576101c1565b80637cec446b116100d15780637cec446b146104db5780638da5cb5b1461051857806391d1485414610543578063a217fddf14610580576101c1565b806361cabe3714610470578063679b06be146104ad578063715018a6146104c4576101c1565b8063248a9ca311610164578063387439041161013e57806338743904146103b2578063460e6c9c146103dd57806348dc15611461041a5780635d1ce88f14610445576101c1565b8063248a9ca3146103235780632f2ff15d1461036057806336568abe14610389576101c1565b80630ae50a39116101a05780630ae50a39146102555780630d48cae8146102805780631892fd78146102bd5780632067eac8146102fa576101c1565b8062d396ed146101c6578063018d3dc9146101ef57806301ffc9a714610218575b600080fd5b3480156101d257600080fd5b506101ed60048036038101906101e8919061305d565b610722565b005b3480156101fb57600080fd5b50610216600480360381019061021191906131d0565b610b90565b005b34801561022457600080fd5b5061023f600480360381019061023a91906132a0565b610d0e565b60405161024c91906132e8565b60405180910390f35b34801561026157600080fd5b5061026a610d88565b6040516102779190613344565b60405180910390f35b34801561028c57600080fd5b506102a760048036038101906102a2919061335f565b610db2565b6040516102b491906134e4565b60405180910390f35b3480156102c957600080fd5b506102e460048036038101906102df9190613532565b611027565b6040516102f191906134e4565b60405180910390f35b34801561030657600080fd5b50610321600480360381019061031c9190613532565b61128e565b005b34801561032f57600080fd5b5061034a60048036038101906103459190613595565b6115bf565b60405161035791906135d1565b60405180910390f35b34801561036c57600080fd5b50610387600480360381019061038291906135ec565b6115df565b005b34801561039557600080fd5b506103b060048036038101906103ab91906135ec565b611600565b005b3480156103be57600080fd5b506103c7611683565b6040516103d491906135d1565b60405180910390f35b3480156103e957600080fd5b5061040460048036038101906103ff919061362c565b6116a7565b60405161041191906132e8565b60405180910390f35b34801561042657600080fd5b5061042f6116d6565b60405161043c9190613685565b60405180910390f35b34801561045157600080fd5b5061045a6116e0565b60405161046791906135d1565b60405180910390f35b34801561047c57600080fd5b5061049760048036038101906104929190613532565b611708565b6040516104a491906136af565b60405180910390f35b3480156104b957600080fd5b506104c2611723565b005b3480156104d057600080fd5b506104d96117ca565b005b3480156104e757600080fd5b5061050260048036038101906104fd919061305d565b6117de565b60405161050f9190613344565b60405180910390f35b34801561052457600080fd5b5061052d611821565b60405161053a9190613344565b60405180910390f35b34801561054f57600080fd5b5061056a600480360381019061056591906135ec565b61184a565b60405161057791906132e8565b60405180910390f35b34801561058c57600080fd5b506105956118b5565b6040516105a291906135d1565b60405180910390f35b3480156105b757600080fd5b506105d260048036038101906105cd91906136ca565b6118bc565b005b6105ee60048036038101906105e99190613726565b611c18565b005b3480156105fc57600080fd5b5061061760048036038101906106129190613532565b61206b565b604051610624919061382b565b60405180910390f35b34801561063957600080fd5b50610654600480360381019061064f919061305d565b61208d565b60405161066191906134e4565b60405180910390f35b34801561067657600080fd5b50610691600480360381019061068c919061335f565b612302565b60405161069e9190613344565b60405180910390f35b3480156106b357600080fd5b506106ce60048036038101906106c99190613879565b61234a565b005b3480156106dc57600080fd5b506106f760048036038101906106f291906135ec565b61235c565b005b34801561070557600080fd5b50610720600480360381019061071b9190613532565b61237d565b005b600061072d826117de565b90506000600560008373ffffffffffffffffffffffffffffffffffffffff1673ffffffffffffffffffffffffffffffffffffffff168152602001908152602001600020600201805461077e906138d5565b80601f01602080910402602001604051908101604052809291908181526020018280546107aa906138d5565b80156107f75780601f106107cc576101008083540402835291602001916107f7565b820191906000526020600020905b8154815290600101906020018083116107da57829003601f168201915b5050505050905060001515600560008473ffffffffffffffffffffffffffffffffffffffff1673ffffffffffffffffffffffffffffffffffffffff168152602001908152602001600020600001601c9054906101000a900460ff16151514610894576040517f08c379a000000000000000000000000000000000000000000000000000000000815260040161088b90613978565b60405180910390fd5b6000600760003373ffffffffffffffffffffffffffffffffffffffff1673ffffffffffffffffffffffffffffffffffffffff16815260200190815260200160002060008473ffffffffffffffffffffffffffffffffffffffff1673ffffffffffffffffffffffffffffffffffffffff16815260200190815260200160002060009054906101000a900460ff1690506000151581151514610969576040517f08c379a0000000000000000000000000000000000000000000000000000000008152600401610960906139e4565b60405180910390fd5b600560008473ffffffffffffffffffffffffffffffffffffffff1673ffffffffffffffffffffffffffffffffffffffff168152602001908152602001600020600080820160006101000a81549073ffffffffffffffffffffffffffffffffffffffff02191690556000820160146101000a81549067ffffffffffffffff021916905560008201601c6101000a81549060ff02191690556001820160006101000a81549073ffffffffffffffffffffffffffffffffffffffff0219169055600282016000610a369190612f4c565b600382016000610a469190612f4c565b5050600460008560070b60070b815260200190815260200160002060006101000a81549073ffffffffffffffffffffffffffffffffffffffff0219169055600682604051610a949190613a40565b908152602001604051809103902060006101000a81549073ffffffffffffffffffffffffffffffffffffffff0219169055600760003373ffffffffffffffffffffffffffffffffffffffff1673ffffffffffffffffffffffffffffffffffffffff16815260200190815260200160002060008473ffffffffffffffffffffffffffffffffffffffff1673ffffffffffffffffffffffffffffffffffffffff16815260200190815260200160002060006101000a81549060ff02191690557f7f25a59d906bf9fb883c74ad54e4b0e924fb0326f2f946caf2875485585d0fbf8484604051610b82929190613a57565b60405180910390a150505050565b6000610b9b82612302565b90506000610ba884612302565b90503373ffffffffffffffffffffffffffffffffffffffff168273ffffffffffffffffffffffffffffffffffffffff1614610c18576040517f08c379a0000000000000000000000000000000000000000000000000000000008152600401610c0f90613af2565b60405180910390fd5b6000600560008473ffffffffffffffffffffffffffffffffffffffff1673ffffffffffffffffffffffffffffffffffffffff168152602001908152602001600020600001601c6101000a81548160ff0219169083151502179055506000600760008373ffffffffffffffffffffffffffffffffffffffff1673ffffffffffffffffffffffffffffffffffffffff16815260200190815260200160002060003373ffffffffffffffffffffffffffffffffffffffff1673ffffffffffffffffffffffffffffffffffffffff16815260200190815260200160002060006101000a81548160ff02191690831515021790555050505050565b60007f7965db0b000000000000000000000000000000000000000000000000000000007bffffffffffffffffffffffffffffffffffffffffffffffffffffffff1916827bffffffffffffffffffffffffffffffffffffffffffffffffffffffff19161480610d815750610d8082612400565b5b9050919050565b6000600360009054906101000a900473ffffffffffffffffffffffffffffffffffffffff16905090565b610dba612f8c565b6000610dc583612302565b90506000600560008373ffffffffffffffffffffffffffffffffffffffff1673ffffffffffffffffffffffffffffffffffffffff1681526020019081526020016000206040518060c00160405290816000820160009054906101000a900473ffffffffffffffffffffffffffffffffffffffff1673ffffffffffffffffffffffffffffffffffffffff1673ffffffffffffffffffffffffffffffffffffffff1681526020016000820160149054906101000a900460070b60070b60070b815260200160008201601c9054906101000a900460ff161515151581526020016001820160009054906101000a900473ffffffffffffffffffffffffffffffffffffffff1673ffffffffffffffffffffffffffffffffffffffff1673ffffffffffffffffffffffffffffffffffffffff168152602001600282018054610f07906138d5565b80601f0160208091040260200160405190810160405280929190818152602001828054610f33906138d5565b8015610f805780601f10610f5557610100808354040283529160200191610f80565b820191906000526020600020905b815481529060010190602001808311610f6357829003601f168201915b50505050508152602001600382018054610f99906138d5565b80601f0160208091040260200160405190810160405280929190818152602001828054610fc5906138d5565b80156110125780601f10610fe757610100808354040283529160200191611012565b820191906000526020600020905b815481529060010190602001808311610ff557829003601f168201915b50505050508152505090508092505050919050565b61102f612f8c565b6000600560008473ffffffffffffffffffffffffffffffffffffffff1673ffffffffffffffffffffffffffffffffffffffff1681526020019081526020016000206040518060c00160405290816000820160009054906101000a900473ffffffffffffffffffffffffffffffffffffffff1673ffffffffffffffffffffffffffffffffffffffff1673ffffffffffffffffffffffffffffffffffffffff1681526020016000820160149054906101000a900460070b60070b60070b815260200160008201601c9054906101000a900460ff161515151581526020016001820160009054906101000a900473ffffffffffffffffffffffffffffffffffffffff1673ffffffffffffffffffffffffffffffffffffffff1673ffffffffffffffffffffffffffffffffffffffff16815260200160028201805461116f906138d5565b80601f016020809104026020016040519081016040528092919081815260200182805461119b906138d5565b80156111e85780601f106111bd576101008083540402835291602001916111e8565b820191906000526020600020905b8154815290600101906020018083116111cb57829003601f168201915b50505050508152602001600382018054611201906138d5565b80601f016020809104026020016040519081016040528092919081815260200182805461122d906138d5565b801561127a5780601f1061124f5761010080835404028352916020019161127a565b820191906000526020600020905b81548152906001019060200180831161125d57829003601f168201915b505050505081525050905080915050919050565b7fcea62fe6ecc79e221c545bf918f804693c542ead2549e37c2bb9baa66ee2e1576112b88161246a565b6000600560008473ffffffffffffffffffffffffffffffffffffffff1673ffffffffffffffffffffffffffffffffffffffff16815260200190815260200160002060000160149054906101000a900460070b90506000600560008573ffffffffffffffffffffffffffffffffffffffff1673ffffffffffffffffffffffffffffffffffffffff168152602001908152602001600020600201805461135b906138d5565b80601f0160208091040260200160405190810160405280929190818152602001828054611387906138d5565b80156113d45780601f106113a9576101008083540402835291602001916113d4565b820191906000526020600020905b8154815290600101906020018083116113b757829003601f168201915b50505050509050600046905060058114611423576040517f08c379a000000000000000000000000000000000000000000000000000000000815260040161141a90613b84565b60405180910390fd5b600560008673ffffffffffffffffffffffffffffffffffffffff1673ffffffffffffffffffffffffffffffffffffffff168152602001908152602001600020600080820160006101000a81549073ffffffffffffffffffffffffffffffffffffffff02191690556000820160146101000a81549067ffffffffffffffff021916905560008201601c6101000a81549060ff02191690556001820160006101000a81549073ffffffffffffffffffffffffffffffffffffffff02191690556002820160006114f09190612f4c565b6003820160006115009190612f4c565b5050600460008460070b60070b815260200190815260200160002060006101000a81549073ffffffffffffffffffffffffffffffffffffffff021916905560068260405161154e9190613a40565b908152602001604051809103902060006101000a81549073ffffffffffffffffffffffffffffffffffffffff02191690557f7f25a59d906bf9fb883c74ad54e4b0e924fb0326f2f946caf2875485585d0fbf83866040516115b0929190613a57565b60405180910390a15050505050565b600060016000838152602001908152602001600020600101549050919050565b6115e8826115bf565b6115f18161246a565b6115fb838361247e565b505050565b61160861255e565b73ffffffffffffffffffffffffffffffffffffffff168173ffffffffffffffffffffffffffffffffffffffff1614611675576040517f08c379a000000000000000000000000000000000000000000000000000000000815260040161166c90613c16565b60405180910390fd5b61167f8282612566565b5050565b7fcea62fe6ecc79e221c545bf918f804693c542ead2549e37c2bb9baa66ee2e15781565b60076020528160005260406000206020528060005260406000206000915091509054906101000a900460ff1681565b6000600254905090565b60007fcea62fe6ecc79e221c545bf918f804693c542ead2549e37c2bb9baa66ee2e157905090565b60008061171483611027565b90508060200151915050919050565b6000600560003373ffffffffffffffffffffffffffffffffffffffff1673ffffffffffffffffffffffffffffffffffffffff168152602001908152602001600020600001601c9054906101000a900460ff16905060001515811515146117be576040517f08c379a00000000000000000000000000000000000000000000000000000000081526004016117b590613c82565b60405180910390fd5b6117c733612648565b50565b6117d2612905565b6117dc6000612983565b565b6000600460008360070b60070b815260200190815260200160002060009054906101000a900473ffffffffffffffffffffffffffffffffffffffff169050919050565b60008060009054906101000a900473ffffffffffffffffffffffffffffffffffffffff16905090565b60006001600084815260200190815260200160002060000160008373ffffffffffffffffffffffffffffffffffffffff1673ffffffffffffffffffffffffffffffffffffffff16815260200190815260200160002060009054906101000a900460ff16905092915050565b6000801b81565b60006006826040516118ce9190613a40565b908152602001604051809103902060009054906101000a900473ffffffffffffffffffffffffffffffffffffffff1690503373ffffffffffffffffffffffffffffffffffffffff168173ffffffffffffffffffffffffffffffffffffffff161461196d576040517f08c379a000000000000000000000000000000000000000000000000000000000815260040161196490613cee565b60405180910390fd5b6000611978846117de565b90506000600760008473ffffffffffffffffffffffffffffffffffffffff1673ffffffffffffffffffffffffffffffffffffffff16815260200190815260200160002060008373ffffffffffffffffffffffffffffffffffffffff1673ffffffffffffffffffffffffffffffffffffffff16815260200190815260200160002060009054906101000a900460ff1690506000151581151514611a4f576040517f08c379a0000000000000000000000000000000000000000000000000000000008152600401611a4690613d5a565b60405180910390fd5b6001600560008473ffffffffffffffffffffffffffffffffffffffff1673ffffffffffffffffffffffffffffffffffffffff168152602001908152602001600020600001601c6101000a81548160ff02191690831515021790555033600560008473ffffffffffffffffffffffffffffffffffffffff1673ffffffffffffffffffffffffffffffffffffffff16815260200190815260200160002060010160006101000a81548173ffffffffffffffffffffffffffffffffffffffff021916908373ffffffffffffffffffffffffffffffffffffffff1602179055506001600760008573ffffffffffffffffffffffffffffffffffffffff1673ffffffffffffffffffffffffffffffffffffffff16815260200190815260200160002060008473ffffffffffffffffffffffffffffffffffffffff1673ffffffffffffffffffffffffffffffffffffffff16815260200190815260200160002060006101000a81548160ff0219169083151502179055508173ffffffffffffffffffffffffffffffffffffffff167fadbeb0a5d66e2be993428864e5c86f7c8aa562e2c58131d193ac2eeb7443817a846001604051611c09929190613d7a565b60405180910390a25050505050565b60003390506002543414611c61576040517f08c379a0000000000000000000000000000000000000000000000000000000008152600401611c5890613def565b60405180910390fd5b6000600684604051611c739190613a40565b908152602001604051809103902060009054906101000a900473ffffffffffffffffffffffffffffffffffffffff1690506040518060c001604052808373ffffffffffffffffffffffffffffffffffffffff1681526020018760070b81526020016000151581526020018273ffffffffffffffffffffffffffffffffffffffff16815260200186815260200184815250600560003373ffffffffffffffffffffffffffffffffffffffff1673ffffffffffffffffffffffffffffffffffffffff16815260200190815260200160002060008201518160000160006101000a81548173ffffffffffffffffffffffffffffffffffffffff021916908373ffffffffffffffffffffffffffffffffffffffff16021790555060208201518160000160146101000a81548167ffffffffffffffff021916908360070b67ffffffffffffffff160217905550604082015181600001601c6101000a81548160ff02191690831515021790555060608201518160010160006101000a81548173ffffffffffffffffffffffffffffffffffffffff021916908373ffffffffffffffffffffffffffffffffffffffff1602179055506080820151816002019081611e379190613fbb565b5060a0820151816003019081611e4d9190613fbb565b509050506000600360009054906101000a900473ffffffffffffffffffffffffffffffffffffffff1673ffffffffffffffffffffffffffffffffffffffff16600254604051611e9b906140be565b60006040518083038185875af1925050503d8060008114611ed8576040519150601f19603f3d011682016040523d82523d6000602084013e611edd565b606091505b5050905080611f21576040517f08c379a0000000000000000000000000000000000000000000000000000000008152600401611f189061411f565b60405180910390fd5b8173ffffffffffffffffffffffffffffffffffffffff167f217213f52d0ada6519b1710cff4d5e622165afded08327f17577ff3c303713608833604051611f69929190613a57565b60405180910390a28173ffffffffffffffffffffffffffffffffffffffff167f2f9961dc36e79933613fb931d5ca8392c911b25840b07276e17e19961d2282408833604051611fb9929190613a57565b60405180910390a26000600760008473ffffffffffffffffffffffffffffffffffffffff1673ffffffffffffffffffffffffffffffffffffffff16815260200190815260200160002060003373ffffffffffffffffffffffffffffffffffffffff1673ffffffffffffffffffffffffffffffffffffffff16815260200190815260200160002060006101000a81548160ff02191690831515021790555061206287848888612a47565b50505050505050565b6060600061207883611027565b905060008160a0015190508092505050919050565b612095612f8c565b60006120a0836117de565b90506000600560008373ffffffffffffffffffffffffffffffffffffffff1673ffffffffffffffffffffffffffffffffffffffff1681526020019081526020016000206040518060c00160405290816000820160009054906101000a900473ffffffffffffffffffffffffffffffffffffffff1673ffffffffffffffffffffffffffffffffffffffff1673ffffffffffffffffffffffffffffffffffffffff1681526020016000820160149054906101000a900460070b60070b60070b815260200160008201601c9054906101000a900460ff161515151581526020016001820160009054906101000a900473ffffffffffffffffffffffffffffffffffffffff1673ffffffffffffffffffffffffffffffffffffffff1673ffffffffffffffffffffffffffffffffffffffff1681526020016002820180546121e2906138d5565b80601f016020809104026020016040519081016040528092919081815260200182805461220e906138d5565b801561225b5780601f106122305761010080835404028352916020019161225b565b820191906000526020600020905b81548152906001019060200180831161223e57829003601f168201915b50505050508152602001600382018054612274906138d5565b80601f01602080910402602001604051908101604052809291908181526020018280546122a0906138d5565b80156122ed5780601f106122c2576101008083540402835291602001916122ed565b820191906000526020600020905b8154815290600101906020018083116122d057829003601f168201915b50505050508152505090508092505050919050565b60006006826040516123149190613a40565b908152602001604051809103902060009054906101000a900473ffffffffffffffffffffffffffffffffffffffff169050919050565b612352612905565b8060028190555050565b612365826115bf565b61236e8161246a565b6123788383612566565b505050565b612385612905565b600073ffffffffffffffffffffffffffffffffffffffff168173ffffffffffffffffffffffffffffffffffffffff16036123f4576040517f08c379a00000000000000000000000000000000000000000000000000000000081526004016123eb906141b1565b60405180910390fd5b6123fd81612983565b50565b60007f01ffc9a7000000000000000000000000000000000000000000000000000000007bffffffffffffffffffffffffffffffffffffffffffffffffffffffff1916827bffffffffffffffffffffffffffffffffffffffffffffffffffffffff1916149050919050565b61247b8161247661255e565b612c5e565b50565b612488828261184a565b61255a57600180600084815260200190815260200160002060000160008373ffffffffffffffffffffffffffffffffffffffff1673ffffffffffffffffffffffffffffffffffffffff16815260200190815260200160002060006101000a81548160ff0219169083151502179055506124ff61255e565b73ffffffffffffffffffffffffffffffffffffffff168173ffffffffffffffffffffffffffffffffffffffff16837f2f8788117e7eff1d82e926ec794901d17c78024a50270940304540a733656f0d60405160405180910390a45b5050565b600033905090565b612570828261184a565b156126445760006001600084815260200190815260200160002060000160008373ffffffffffffffffffffffffffffffffffffffff1673ffffffffffffffffffffffffffffffffffffffff16815260200190815260200160002060006101000a81548160ff0219169083151502179055506125e961255e565b73ffffffffffffffffffffffffffffffffffffffff168173ffffffffffffffffffffffffffffffffffffffff16837ff6391f5c32d9c69d2a47ea670b442974b53935d1edc7fd64eb21e047a839171b60405160405180910390a45b5050565b6000600560008373ffffffffffffffffffffffffffffffffffffffff1673ffffffffffffffffffffffffffffffffffffffff16815260200190815260200160002060000160149054906101000a900460070b90506000600560008473ffffffffffffffffffffffffffffffffffffffff1673ffffffffffffffffffffffffffffffffffffffff16815260200190815260200160002060020180546126eb906138d5565b80601f0160208091040260200160405190810160405280929190818152602001828054612717906138d5565b80156127645780601f1061273957610100808354040283529160200191612764565b820191906000526020600020905b81548152906001019060200180831161274757829003601f168201915b50505050509050600560008473ffffffffffffffffffffffffffffffffffffffff1673ffffffffffffffffffffffffffffffffffffffff168152602001908152602001600020600080820160006101000a81549073ffffffffffffffffffffffffffffffffffffffff02191690556000820160146101000a81549067ffffffffffffffff021916905560008201601c6101000a81549060ff02191690556001820160006101000a81549073ffffffffffffffffffffffffffffffffffffffff02191690556002820160006128389190612f4c565b6003820160006128489190612f4c565b5050600460008360070b60070b815260200190815260200160002060006101000a81549073ffffffffffffffffffffffffffffffffffffffff02191690556006816040516128969190613a40565b908152602001604051809103902060006101000a81549073ffffffffffffffffffffffffffffffffffffffff02191690557f7f25a59d906bf9fb883c74ad54e4b0e924fb0326f2f946caf2875485585d0fbf82846040516128f8929190613a57565b60405180910390a1505050565b61290d61255e565b73ffffffffffffffffffffffffffffffffffffffff1661292b611821565b73ffffffffffffffffffffffffffffffffffffffff1614612981576040517f08c379a00000000000000000000000000000000000000000000000000000000081526004016129789061421d565b60405180910390fd5b565b60008060009054906101000a900473ffffffffffffffffffffffffffffffffffffffff169050816000806101000a81548173ffffffffffffffffffffffffffffffffffffffff021916908373ffffffffffffffffffffffffffffffffffffffff1602179055508173ffffffffffffffffffffffffffffffffffffffff168173ffffffffffffffffffffffffffffffffffffffff167f8be0079c531659141344cd1fd0a4f28419497f9722a3daafe3b4186f6b6457e060405160405180910390a35050565b600073ffffffffffffffffffffffffffffffffffffffff16600460008660070b60070b815260200190815260200160002060009054906101000a900473ffffffffffffffffffffffffffffffffffffffff1673ffffffffffffffffffffffffffffffffffffffff1614612aef576040517f08c379a0000000000000000000000000000000000000000000000000000000008152600401612ae6906142af565b60405180910390fd5b6000600860009054906101000a900473ffffffffffffffffffffffffffffffffffffffff1673ffffffffffffffffffffffffffffffffffffffff1663a430c74484846040518363ffffffff1660e01b8152600401612b4e9291906142cf565b602060405180830381865afa158015612b6b573d6000803e3d6000fd5b505050506040513d601f19601f82011682018060405250810190612b8f9190614332565b90506001151581151514612ba257600080fd5b83600460008760070b60070b815260200190815260200160002060006101000a81548173ffffffffffffffffffffffffffffffffffffffff021916908373ffffffffffffffffffffffffffffffffffffffff16021790555083600684604051612c0b9190613a40565b908152602001604051809103902060006101000a81548173ffffffffffffffffffffffffffffffffffffffff021916908373ffffffffffffffffffffffffffffffffffffffff1602179055505050505050565b612c68828261184a565b612cdf57612c7581612ce3565b612c838360001c6020612d10565b604051602001612c949291906143f7565b6040516020818303038152906040526040517f08c379a0000000000000000000000000000000000000000000000000000000008152600401612cd6919061382b565b60405180910390fd5b5050565b6060612d098273ffffffffffffffffffffffffffffffffffffffff16601460ff16612d10565b9050919050565b606060006002836002612d239190614460565b612d2d91906144a2565b67ffffffffffffffff811115612d4657612d456130a5565b5b6040519080825280601f01601f191660200182016040528015612d785781602001600182028036833780820191505090505b5090507f300000000000000000000000000000000000000000000000000000000000000081600081518110612db057612daf6144d6565b5b60200101907effffffffffffffffffffffffffffffffffffffffffffffffffffffffffffff1916908160001a9053507f780000000000000000000000000000000000000000000000000000000000000081600181518110612e1457612e136144d6565b5b60200101907effffffffffffffffffffffffffffffffffffffffffffffffffffffffffffff1916908160001a90535060006001846002612e549190614460565b612e5e91906144a2565b90505b6001811115612efe577f3031323334353637383961626364656600000000000000000000000000000000600f861660108110612ea057612e9f6144d6565b5b1a60f81b828281518110612eb757612eb66144d6565b5b60200101907effffffffffffffffffffffffffffffffffffffffffffffffffffffffffffff1916908160001a905350600485901c945080612ef790614505565b9050612e61565b5060008414612f42576040517f08c379a0000000000000000000000000000000000000000000000000000000008152600401612f399061457a565b60405180910390fd5b8091505092915050565b508054612f58906138d5565b6000825580601f10612f6a5750612f89565b601f016020900490600052602060002090810190612f889190612ff3565b5b50565b6040518060c00160405280600073ffffffffffffffffffffffffffffffffffffffff168152602001600060070b8152602001600015158152602001600073ffffffffffffffffffffffffffffffffffffffff16815260200160608152602001606081525090565b5b8082111561300c576000816000905550600101612ff4565b5090565b6000604051905090565b600080fd5b600080fd5b60008160070b9050919050565b61303a81613024565b811461304557600080fd5b50565b60008135905061305781613031565b92915050565b6000602082840312156130735761307261301a565b5b600061308184828501613048565b91505092915050565b600080fd5b600080fd5b6000601f19601f8301169050919050565b7f4e487b7100000000000000000000000000000000000000000000000000000000600052604160045260246000fd5b6130dd82613094565b810181811067ffffffffffffffff821117156130fc576130fb6130a5565b5b80604052505050565b600061310f613010565b905061311b82826130d4565b919050565b600067ffffffffffffffff82111561313b5761313a6130a5565b5b61314482613094565b9050602081019050919050565b82818337600083830152505050565b600061317361316e84613120565b613105565b90508281526020810184848401111561318f5761318e61308f565b5b61319a848285613151565b509392505050565b600082601f8301126131b7576131b661308a565b5b81356131c7848260208601613160565b91505092915050565b600080604083850312156131e7576131e661301a565b5b600083013567ffffffffffffffff8111156132055761320461301f565b5b613211858286016131a2565b925050602083013567ffffffffffffffff8111156132325761323161301f565b5b61323e858286016131a2565b9150509250929050565b60007fffffffff0000000000000000000000000000000000000000000000000000000082169050919050565b61327d81613248565b811461328857600080fd5b50565b60008135905061329a81613274565b92915050565b6000602082840312156132b6576132b561301a565b5b60006132c48482850161328b565b91505092915050565b60008115159050919050565b6132e2816132cd565b82525050565b60006020820190506132fd60008301846132d9565b92915050565b600073ffffffffffffffffffffffffffffffffffffffff82169050919050565b600061332e82613303565b9050919050565b61333e81613323565b82525050565b60006020820190506133596000830184613335565b92915050565b6000602082840312156133755761337461301a565b5b600082013567ffffffffffffffff8111156133935761339261301f565b5b61339f848285016131a2565b91505092915050565b6133b181613323565b82525050565b6133c081613024565b82525050565b6133cf816132cd565b82525050565b600081519050919050565b600082825260208201905092915050565b60005b8381101561340f5780820151818401526020810190506133f4565b60008484015250505050565b6000613426826133d5565b61343081856133e0565b93506134408185602086016133f1565b61344981613094565b840191505092915050565b600060c08301600083015161346c60008601826133a8565b50602083015161347f60208601826133b7565b50604083015161349260408601826133c6565b5060608301516134a560608601826133a8565b50608083015184820360808601526134bd828261341b565b91505060a083015184820360a08601526134d7828261341b565b9150508091505092915050565b600060208201905081810360008301526134fe8184613454565b905092915050565b61350f81613323565b811461351a57600080fd5b50565b60008135905061352c81613506565b92915050565b6000602082840312156135485761354761301a565b5b60006135568482850161351d565b91505092915050565b6000819050919050565b6135728161355f565b811461357d57600080fd5b50565b60008135905061358f81613569565b92915050565b6000602082840312156135ab576135aa61301a565b5b60006135b984828501613580565b91505092915050565b6135cb8161355f565b82525050565b60006020820190506135e660008301846135c2565b92915050565b600080604083850312156136035761360261301a565b5b600061361185828601613580565b92505060206136228582860161351d565b9150509250929050565b600080604083850312156136435761364261301a565b5b60006136518582860161351d565b92505060206136628582860161351d565b9150509250929050565b6000819050919050565b61367f8161366c565b82525050565b600060208201905061369a6000830184613676565b92915050565b6136a981613024565b82525050565b60006020820190506136c460008301846136a0565b92915050565b600080604083850312156136e1576136e061301a565b5b60006136ef85828601613048565b925050602083013567ffffffffffffffff8111156137105761370f61301f565b5b61371c858286016131a2565b9150509250929050565b600080600080608085870312156137405761373f61301a565b5b600061374e87828801613048565b945050602085013567ffffffffffffffff81111561376f5761376e61301f565b5b61377b878288016131a2565b935050604085013567ffffffffffffffff81111561379c5761379b61301f565b5b6137a8878288016131a2565b925050606085013567ffffffffffffffff8111156137c9576137c861301f565b5b6137d5878288016131a2565b91505092959194509250565b600082825260208201905092915050565b60006137fd826133d5565b61380781856137e1565b93506138178185602086016133f1565b61382081613094565b840191505092915050565b6000602082019050818103600083015261384581846137f2565b905092915050565b6138568161366c565b811461386157600080fd5b50565b6000813590506138738161384d565b92915050565b60006020828403121561388f5761388e61301a565b5b600061389d84828501613864565b91505092915050565b7f4e487b7100000000000000000000000000000000000000000000000000000000600052602260045260246000fd5b600060028204905060018216806138ed57607f821691505b602082108103613900576138ff6138a6565b5b50919050565b7f616c726561647920617070726f766564204f5220646f206e6f7420657869737460008201527f7320796574000000000000000000000000000000000000000000000000000000602082015250565b60006139626025836137e1565b915061396d82613906565b604082019050919050565b6000602082019050818103600083015261399181613955565b9050919050565b7f616c7265616479206c696e6b6564204f5220646f6e7420657869737473000000600082015250565b60006139ce601d836137e1565b91506139d982613998565b602082019050919050565b600060208201905081810360008301526139fd816139c1565b9050919050565b600081905092915050565b6000613a1a826133d5565b613a248185613a04565b9350613a348185602086016133f1565b80840191505092915050565b6000613a4c8284613a0f565b915081905092915050565b6000604082019050613a6c60008301856136a0565b613a796020830184613335565b9392505050565b7f757365727320616c6c6f776564206f6e6c7920746f20636c656172207468656d60008201527f73656c6673000000000000000000000000000000000000000000000000000000602082015250565b6000613adc6025836137e1565b9150613ae782613a80565b604082019050919050565b60006020820190508181036000830152613b0b81613acf565b9050919050565b7f746869732066756e6374696f6e20776f726b2773206f6e6c7920666f7220746560008201527f73746e6574000000000000000000000000000000000000000000000000000000602082015250565b6000613b6e6025836137e1565b9150613b7982613b12565b604082019050919050565b60006020820190508181036000830152613b9d81613b61565b9050919050565b7f416363657373436f6e74726f6c3a2063616e206f6e6c792072656e6f756e636560008201527f20726f6c657320666f722073656c660000000000000000000000000000000000602082015250565b6000613c00602f836137e1565b9150613c0b82613ba4565b604082019050919050565b60006020820190508181036000830152613c2f81613bf3565b9050919050565b7f63616c6c20436c656172506172656e7420666972737400000000000000000000600082015250565b6000613c6c6016836137e1565b9150613c7782613c36565b602082019050919050565b60006020820190508181036000830152613c9b81613c5f565b9050919050565b7f6f6e6c7920706172656e745f6e616d652063616e206163636570742069740000600082015250565b6000613cd8601e836137e1565b9150613ce382613ca2565b602082019050919050565b60006020820190508181036000830152613d0781613ccb565b9050919050565b7f616c726561647920726567697374726564000000000000000000000000000000600082015250565b6000613d446011836137e1565b9150613d4f82613d0e565b602082019050919050565b60006020820190508181036000830152613d7381613d37565b9050919050565b6000604082019050613d8f6000830185613335565b613d9c60208301846132d9565b9392505050565b7f5265717565737420666565206973206e6f742070616964000000000000000000600082015250565b6000613dd96017836137e1565b9150613de482613da3565b602082019050919050565b60006020820190508181036000830152613e0881613dcc565b9050919050565b60008190508160005260206000209050919050565b60006020601f8301049050919050565b600082821b905092915050565b600060088302613e717fffffffffffffffffffffffffffffffffffffffffffffffffffffffffffffffff82613e34565b613e7b8683613e34565b95508019841693508086168417925050509392505050565b6000819050919050565b6000613eb8613eb3613eae8461366c565b613e93565b61366c565b9050919050565b6000819050919050565b613ed283613e9d565b613ee6613ede82613ebf565b848454613e41565b825550505050565b600090565b613efb613eee565b613f06818484613ec9565b505050565b5b81811015613f2a57613f1f600082613ef3565b600181019050613f0c565b5050565b601f821115613f6f57613f4081613e0f565b613f4984613e24565b81016020851015613f58578190505b613f6c613f6485613e24565b830182613f0b565b50505b505050565b600082821c905092915050565b6000613f9260001984600802613f74565b1980831691505092915050565b6000613fab8383613f81565b9150826002028217905092915050565b613fc4826133d5565b67ffffffffffffffff811115613fdd57613fdc6130a5565b5b613fe782546138d5565b613ff2828285613f2e565b600060209050601f8311600181146140255760008415614013578287015190505b61401d8582613f9f565b865550614085565b601f19841661403386613e0f565b60005b8281101561405b57848901518255600182019150602085019450602081019050614036565b868310156140785784890151614074601f891682613f81565b8355505b6001600288020188555050505b505050505050565b600081905092915050565b50565b60006140a860008361408d565b91506140b382614098565b600082019050919050565b60006140c98261409b565b9150819050919050565b7f556e61626c6520746f207472616e736665722066656500000000000000000000600082015250565b60006141096016836137e1565b9150614114826140d3565b602082019050919050565b60006020820190508181036000830152614138816140fc565b9050919050565b7f4f776e61626c653a206e6577206f776e657220697320746865207a65726f206160008201527f6464726573730000000000000000000000000000000000000000000000000000602082015250565b600061419b6026836137e1565b91506141a68261413f565b604082019050919050565b600060208201905081810360008301526141ca8161418e565b9050919050565b7f4f776e61626c653a2063616c6c6572206973206e6f7420746865206f776e6572600082015250565b60006142076020836137e1565b9150614212826141d1565b602082019050919050565b60006020820190508181036000830152614236816141fa565b9050919050565b7f5468657265206973206164647265737320636f6e6e656374656420746f20746860008201527f617420544720494420616c726561647900000000000000000000000000000000602082015250565b60006142996030836137e1565b91506142a48261423d565b604082019050919050565b600060208201905081810360008301526142c88161428c565b9050919050565b600060408201905081810360008301526142e981856137f2565b905081810360208301526142fd81846137f2565b90509392505050565b61430f816132cd565b811461431a57600080fd5b50565b60008151905061432c81614306565b92915050565b6000602082840312156143485761434761301a565b5b60006143568482850161431d565b91505092915050565b7f416363657373436f6e74726f6c3a206163636f756e7420000000000000000000600082015250565b6000614395601783613a04565b91506143a08261435f565b601782019050919050565b7f206973206d697373696e6720726f6c6520000000000000000000000000000000600082015250565b60006143e1601183613a04565b91506143ec826143ab565b601182019050919050565b600061440282614388565b915061440e8285613a0f565b9150614419826143d4565b91506144258284613a0f565b91508190509392505050565b7f4e487b7100000000000000000000000000000000000000000000000000000000600052601160045260246000fd5b600061446b8261366c565b91506144768361366c565b92508282026144848161366c565b9150828204841483151761449b5761449a614431565b5b5092915050565b60006144ad8261366c565b91506144b88361366c565b92508282019050808211156144d0576144cf614431565b5b92915050565b7f4e487b7100000000000000000000000000000000000000000000000000000000600052603260045260246000fd5b60006145108261366c565b91506000820361452357614522614431565b5b600182039050919050565b7f537472696e67733a20686578206c656e67746820696e73756666696369656e74600082015250565b60006145646020836137e1565b915061456f8261452e565b602082019050919050565b6000602082019050818103600083015261459381614557565b905091905056fea2646970667358221220b7b4ef4a60ee4ddc46b897e84478c87811dcbab39e7cda22e18cec3c023b1aee64736f6c634300081100337a6a58436a3969757365336748476141494967796169434f734a705157534345424261632f7a50477267513da2646970667358221220020a4809f8f2f8322d1b1d84d037130ed17d6d31c6bf46d7a8219b4566db878064736f6c63430008110033",
  "linkReferences": {},
  "deployedLinkReferences": {}
}