{
  "_format": "hh-sol-artifact-1",
  "contractName": "Leg10n",
  "sourceName": "contracts/Leg10n-draft.sol",
  "abi": [
    {
      "inputs": [
        {
          "internalType": "address",
          "name": "turing_",
          "type": "address"
        },
        {
          "internalType": "address",
          "name": "admin_",
          "type": "address"
        },
        {
          "internalType": "string",
          "name": "tgid_",
          "type": "string"
        },
        {
          "internalType": "string",
          "name": "public_key_",
          "type": "string"
        }
      ],
      "stateMutability": "nonpayable",
      "type": "constructor"
    },
    {
      "anonymous": false,
      "inputs": [
        {
          "indexed": true,
          "internalType": "address",
          "name": "admin",
          "type": "address"
        }
      ],
      "name": "Initialized",
      "type": "event"
    },
    {
      "anonymous": false,
      "inputs": [
        {
          "indexed": true,
          "internalType": "address",
          "name": "previousOwner",
          "type": "address"
        },
        {
          "indexed": true,
          "internalType": "address",
          "name": "newOwner",
          "type": "address"
        }
      ],
      "name": "OwnershipTransferred",
      "type": "event"
    },
    {
      "anonymous": false,
      "inputs": [
        {
          "indexed": true,
          "internalType": "bytes32",
          "name": "role",
          "type": "bytes32"
        },
        {
          "indexed": true,
          "internalType": "bytes32",
          "name": "previousAdminRole",
          "type": "bytes32"
        },
        {
          "indexed": true,
          "internalType": "bytes32",
          "name": "newAdminRole",
          "type": "bytes32"
        }
      ],
      "name": "RoleAdminChanged",
      "type": "event"
    },
    {
      "anonymous": false,
      "inputs": [
        {
          "indexed": true,
          "internalType": "bytes32",
          "name": "role",
          "type": "bytes32"
        },
        {
          "indexed": true,
          "internalType": "address",
          "name": "account",
          "type": "address"
        },
        {
          "indexed": true,
          "internalType": "address",
          "name": "sender",
          "type": "address"
        }
      ],
      "name": "RoleGranted",
      "type": "event"
    },
    {
      "anonymous": false,
      "inputs": [
        {
          "indexed": true,
          "internalType": "bytes32",
          "name": "role",
          "type": "bytes32"
        },
        {
          "indexed": true,
          "internalType": "address",
          "name": "account",
          "type": "address"
        },
        {
          "indexed": true,
          "internalType": "address",
          "name": "sender",
          "type": "address"
        }
      ],
      "name": "RoleRevoked",
      "type": "event"
    },
    {
      "anonymous": false,
      "inputs": [
        {
          "indexed": false,
          "internalType": "string",
          "name": "applyerTg",
          "type": "string"
        },
        {
          "indexed": false,
          "internalType": "address",
          "name": "wallet_address",
          "type": "address"
        },
        {
          "indexed": true,
          "internalType": "address",
          "name": "parent_address",
          "type": "address"
        }
      ],
      "name": "joinRequested",
      "type": "event"
    },
    {
      "anonymous": false,
      "inputs": [
        {
          "indexed": false,
          "internalType": "string",
          "name": "applyerTg",
          "type": "string"
        },
        {
          "indexed": false,
          "internalType": "address",
          "name": "wallet_address",
          "type": "address"
        },
        {
          "indexed": true,
          "internalType": "address",
          "name": "parent_address",
          "type": "address"
        }
      ],
      "name": "joinRequestedIndexedTG",
      "type": "event"
    },
    {
      "anonymous": false,
      "inputs": [
        {
          "indexed": false,
          "internalType": "address",
          "name": "high_node",
          "type": "address"
        },
        {
          "indexed": true,
          "internalType": "address",
          "name": "low_node",
          "type": "address"
        },
        {
          "indexed": false,
          "internalType": "bool",
          "name": "pravda",
          "type": "bool"
        }
      ],
      "name": "relationChanged",
      "type": "event"
    },
    {
      "anonymous": false,
      "inputs": [
        {
          "indexed": true,
          "internalType": "string",
          "name": "applyerTg",
          "type": "string"
        },
        {
          "indexed": false,
          "internalType": "address",
          "name": "user_address",
          "type": "address"
        },
        {
          "indexed": false,
          "internalType": "address",
          "name": "parent_address",
          "type": "address"
        }
      ],
      "name": "requestAccepted",
      "type": "event"
    },
    {
      "anonymous": false,
      "inputs": [
        {
          "indexed": false,
          "internalType": "string",
          "name": "applyerTg",
          "type": "string"
        },
        {
          "indexed": false,
          "internalType": "address",
          "name": "wallet",
          "type": "address"
        }
      ],
      "name": "requestDenied",
      "type": "event"
    },
    {
      "inputs": [
        {
          "internalType": "string",
          "name": "applyerTg",
          "type": "string"
        },
        {
          "internalType": "string",
          "name": "parent_name",
          "type": "string"
        }
      ],
      "name": "AcceptJoin",
      "outputs": [],
      "stateMutability": "nonpayable",
      "type": "function"
    },
    {
      "inputs": [
        {
          "internalType": "string",
          "name": "parent_name",
          "type": "string"
        },
        {
          "internalType": "string",
          "name": "child_name",
          "type": "string"
        }
      ],
      "name": "ClearParent",
      "outputs": [],
      "stateMutability": "nonpayable",
      "type": "function"
    },
    {
      "inputs": [],
      "name": "DEFAULT_ADMIN_ROLE",
      "outputs": [
        {
          "internalType": "bytes32",
          "name": "",
          "type": "bytes32"
        }
      ],
      "stateMutability": "view",
      "type": "function"
    },
    {
      "inputs": [
        {
          "internalType": "string",
          "name": "tgid",
          "type": "string"
        }
      ],
      "name": "DeclineRequest",
      "outputs": [],
      "stateMutability": "nonpayable",
      "type": "function"
    },
    {
      "inputs": [],
      "name": "GetOwner",
      "outputs": [
        {
          "internalType": "address",
          "name": "",
          "type": "address"
        }
      ],
      "stateMutability": "view",
      "type": "function"
    },
    {
      "inputs": [],
      "name": "GetPassportFee",
      "outputs": [
        {
          "internalType": "uint256",
          "name": "",
          "type": "uint256"
        }
      ],
      "stateMutability": "view",
      "type": "function"
    },
    {
      "inputs": [
        {
          "internalType": "address",
          "name": "user_address",
          "type": "address"
        }
      ],
      "name": "GetPublicKeyByAddress",
      "outputs": [
        {
          "internalType": "string",
          "name": "",
          "type": "string"
        }
      ],
      "stateMutability": "view",
      "type": "function"
    },
    {
      "inputs": [
        {
          "internalType": "address",
          "name": "user_wallet",
          "type": "address"
        }
      ],
      "name": "GetTgIdByAddress",
      "outputs": [
        {
          "internalType": "string",
          "name": "tgid",
          "type": "string"
        }
      ],
      "stateMutability": "view",
      "type": "function"
    },
    {
      "inputs": [
        {
          "internalType": "address",
          "name": "user_wallet",
          "type": "address"
        }
      ],
      "name": "GetUserByAddress",
      "outputs": [
        {
          "components": [
            {
              "internalType": "address",
              "name": "userAddress",
              "type": "address"
            },
            {
              "internalType": "string",
              "name": "tgId",
              "type": "string"
            },
            {
              "internalType": "bool",
              "name": "valid",
              "type": "bool"
            },
            {
              "internalType": "address",
              "name": "validatorAddress",
              "type": "address"
            },
            {
              "internalType": "string",
              "name": "codeName",
              "type": "string"
            },
            {
              "internalType": "string",
              "name": "public_key",
              "type": "string"
            }
          ],
          "internalType": "struct Leg10n.User",
          "name": "",
          "type": "tuple"
        }
      ],
      "stateMutability": "view",
      "type": "function"
    },
    {
      "inputs": [
        {
          "internalType": "string",
          "name": "user_name_",
          "type": "string"
        }
      ],
      "name": "GetUserByNickName",
      "outputs": [
        {
          "components": [
            {
              "internalType": "address",
              "name": "userAddress",
              "type": "address"
            },
            {
              "internalType": "string",
              "name": "tgId",
              "type": "string"
            },
            {
              "internalType": "bool",
              "name": "valid",
              "type": "bool"
            },
            {
              "internalType": "address",
              "name": "validatorAddress",
              "type": "address"
            },
            {
              "internalType": "string",
              "name": "codeName",
              "type": "string"
            },
            {
              "internalType": "string",
              "name": "public_key",
              "type": "string"
            }
          ],
          "internalType": "struct Leg10n.User",
          "name": "",
          "type": "tuple"
        }
      ],
      "stateMutability": "view",
      "type": "function"
    },
    {
      "inputs": [
        {
          "internalType": "string",
          "name": "tgId_",
          "type": "string"
        }
      ],
      "name": "GetUserByTgId",
      "outputs": [
        {
          "components": [
            {
              "internalType": "address",
              "name": "userAddress",
              "type": "address"
            },
            {
              "internalType": "string",
              "name": "tgId",
              "type": "string"
            },
            {
              "internalType": "bool",
              "name": "valid",
              "type": "bool"
            },
            {
              "internalType": "address",
              "name": "validatorAddress",
              "type": "address"
            },
            {
              "internalType": "string",
              "name": "codeName",
              "type": "string"
            },
            {
              "internalType": "string",
              "name": "public_key",
              "type": "string"
            }
          ],
          "internalType": "struct Leg10n.User",
          "name": "",
          "type": "tuple"
        }
      ],
      "stateMutability": "view",
      "type": "function"
    },
    {
      "inputs": [
        {
          "internalType": "string",
          "name": "tgId_",
          "type": "string"
        }
      ],
      "name": "GetUserWalletByID",
      "outputs": [
        {
          "internalType": "address",
          "name": "",
          "type": "address"
        }
      ],
      "stateMutability": "view",
      "type": "function"
    },
    {
      "inputs": [
        {
          "internalType": "string",
          "name": "user_name_",
          "type": "string"
        }
      ],
      "name": "GetWalletByNickName",
      "outputs": [
        {
          "internalType": "address",
          "name": "",
          "type": "address"
        }
      ],
      "stateMutability": "view",
      "type": "function"
    },
    {
      "inputs": [
        {
          "internalType": "string",
          "name": "applyerTg",
          "type": "string"
        },
        {
          "internalType": "string",
          "name": "code_name_",
          "type": "string"
        },
        {
          "internalType": "string",
          "name": "parent_name",
          "type": "string"
        },
        {
          "internalType": "string",
          "name": "public_key",
          "type": "string"
        }
      ],
      "name": "RequestJoin",
      "outputs": [],
      "stateMutability": "payable",
      "type": "function"
    },
    {
      "inputs": [
        {
          "internalType": "uint256",
          "name": "passportFee_",
          "type": "uint256"
        }
      ],
      "name": "SetPassportFee",
      "outputs": [],
      "stateMutability": "nonpayable",
      "type": "function"
    },
    {
      "inputs": [
        {
          "internalType": "address",
          "name": "",
          "type": "address"
        },
        {
          "internalType": "address",
          "name": "",
          "type": "address"
        }
      ],
      "name": "chain",
      "outputs": [
        {
          "internalType": "bool",
          "name": "",
          "type": "bool"
        }
      ],
      "stateMutability": "view",
      "type": "function"
    },
    {
      "inputs": [],
      "name": "deleteYourSelf",
      "outputs": [],
      "stateMutability": "nonpayable",
      "type": "function"
    },
    {
      "inputs": [
        {
          "internalType": "address",
          "name": "user_address",
          "type": "address"
        }
      ],
      "name": "devDeleteUser",
      "outputs": [],
      "stateMutability": "nonpayable",
      "type": "function"
    },
    {
      "inputs": [],
      "name": "getModeratorIdentifier",
      "outputs": [
        {
          "internalType": "bytes32",
          "name": "",
          "type": "bytes32"
        }
      ],
      "stateMutability": "pure",
      "type": "function"
    },
    {
      "inputs": [
        {
          "internalType": "bytes32",
          "name": "role",
          "type": "bytes32"
        }
      ],
      "name": "getRoleAdmin",
      "outputs": [
        {
          "internalType": "bytes32",
          "name": "",
          "type": "bytes32"
        }
      ],
      "stateMutability": "view",
      "type": "function"
    },
    {
      "inputs": [
        {
          "internalType": "bytes32",
          "name": "role",
          "type": "bytes32"
        },
        {
          "internalType": "address",
          "name": "account",
          "type": "address"
        }
      ],
      "name": "grantRole",
      "outputs": [],
      "stateMutability": "nonpayable",
      "type": "function"
    },
    {
      "inputs": [
        {
          "internalType": "bytes32",
          "name": "role",
          "type": "bytes32"
        },
        {
          "internalType": "address",
          "name": "account",
          "type": "address"
        }
      ],
      "name": "hasRole",
      "outputs": [
        {
          "internalType": "bool",
          "name": "",
          "type": "bool"
        }
      ],
      "stateMutability": "view",
      "type": "function"
    },
    {
      "inputs": [],
      "name": "moderator",
      "outputs": [
        {
          "internalType": "bytes32",
          "name": "",
          "type": "bytes32"
        }
      ],
      "stateMutability": "view",
      "type": "function"
    },
    {
      "inputs": [],
      "name": "owner",
      "outputs": [
        {
          "internalType": "address",
          "name": "",
          "type": "address"
        }
      ],
      "stateMutability": "view",
      "type": "function"
    },
    {
      "inputs": [],
      "name": "renounceOwnership",
      "outputs": [],
      "stateMutability": "nonpayable",
      "type": "function"
    },
    {
      "inputs": [
        {
          "internalType": "bytes32",
          "name": "role",
          "type": "bytes32"
        },
        {
          "internalType": "address",
          "name": "account",
          "type": "address"
        }
      ],
      "name": "renounceRole",
      "outputs": [],
      "stateMutability": "nonpayable",
      "type": "function"
    },
    {
      "inputs": [
        {
          "internalType": "bytes32",
          "name": "role",
          "type": "bytes32"
        },
        {
          "internalType": "address",
          "name": "account",
          "type": "address"
        }
      ],
      "name": "revokeRole",
      "outputs": [],
      "stateMutability": "nonpayable",
      "type": "function"
    },
    {
      "inputs": [
        {
          "internalType": "bytes4",
          "name": "interfaceId",
          "type": "bytes4"
        }
      ],
      "name": "supportsInterface",
      "outputs": [
        {
          "internalType": "bool",
          "name": "",
          "type": "bool"
        }
      ],
      "stateMutability": "view",
      "type": "function"
    },
    {
      "inputs": [
        {
          "internalType": "address",
          "name": "newOwner",
          "type": "address"
        }
      ],
      "name": "transferOwnership",
      "outputs": [],
      "stateMutability": "nonpayable",
      "type": "function"
    }
  ],
  "bytecode": "0x60806040523480156200001157600080fd5b5060405162005a2138038062005a21833981810160405281019062000037919062000da9565b620000576200004b6200048d60201b60201c565b6200049560201b60201c565b66071afd498d0000600281905550620000756200055960201b60201c565b600360006101000a81548173ffffffffffffffffffffffffffffffffffffffff021916908373ffffffffffffffffffffffffffffffffffffffff160217905550620000ca6000801b336200058260201b60201c565b620000fc7fcea62fe6ecc79e221c545bf918f804693c542ead2549e37c2bb9baa66ee2e157336200058260201b60201c565b620001427fcea62fe6ecc79e221c545bf918f804693c542ead2549e37c2bb9baa66ee2e15773459e557af94f7e7ba68b103e113481ab7d27bfa76200058260201b60201c565b83600860006101000a81548173ffffffffffffffffffffffffffffffffffffffff021916908373ffffffffffffffffffffffffffffffffffffffff1602179055503360048360405162000196919062000ea6565b908152602001604051809103902060006101000a81548173ffffffffffffffffffffffffffffffffffffffff021916908373ffffffffffffffffffffffffffffffffffffffff160217905550336006604051620001f39062000f0f565b908152602001604051809103902060006101000a81548173ffffffffffffffffffffffffffffffffffffffff021916908373ffffffffffffffffffffffffffffffffffffffff1602179055506040518060c001604052803373ffffffffffffffffffffffffffffffffffffffff1681526020018381526020016001151581526020013373ffffffffffffffffffffffffffffffffffffffff1681526020016040518060400160405280600181526020017f300000000000000000000000000000000000000000000000000000000000000081525081526020016040518060600160405280602c8152602001620059f5602c9139815250600560003373ffffffffffffffffffffffffffffffffffffffff1673ffffffffffffffffffffffffffffffffffffffff16815260200190815260200160002060008201518160000160006101000a81548173ffffffffffffffffffffffffffffffffffffffff021916908373ffffffffffffffffffffffffffffffffffffffff160217905550602082015181600101908162000386919062001166565b5060408201518160020160006101000a81548160ff02191690831515021790555060608201518160020160016101000a81548173ffffffffffffffffffffffffffffffffffffffff021916908373ffffffffffffffffffffffffffffffffffffffff160217905550608082015181600301908162000405919062001166565b5060a08201518160040190816200041d919062001166565b50905050600073ffffffffffffffffffffffffffffffffffffffff168373ffffffffffffffffffffffffffffffffffffffff16036200046f57620004693383836200067360201b60201c565b62000483565b620004828383836200067360201b60201c565b5b50505050620012b4565b600033905090565b60008060009054906101000a900473ffffffffffffffffffffffffffffffffffffffff169050816000806101000a81548173ffffffffffffffffffffffffffffffffffffffff021916908373ffffffffffffffffffffffffffffffffffffffff1602179055508173ffffffffffffffffffffffffffffffffffffffff168173ffffffffffffffffffffffffffffffffffffffff167f8be0079c531659141344cd1fd0a4f28419497f9722a3daafe3b4186f6b6457e060405160405180910390a35050565b60008060009054906101000a900473ffffffffffffffffffffffffffffffffffffffff16905090565b62000594828262000afc60201b60201c565b6200066f57600180600084815260200190815260200160002060000160008373ffffffffffffffffffffffffffffffffffffffff1673ffffffffffffffffffffffffffffffffffffffff16815260200190815260200160002060006101000a81548160ff021916908315150217905550620006146200048d60201b60201c565b73ffffffffffffffffffffffffffffffffffffffff168173ffffffffffffffffffffffffffffffffffffffff16837f2f8788117e7eff1d82e926ec794901d17c78024a50270940304540a733656f0d60405160405180910390a45b5050565b8260048360405162000686919062000ea6565b908152602001604051809103902060006101000a81548173ffffffffffffffffffffffffffffffffffffffff021916908373ffffffffffffffffffffffffffffffffffffffff160217905550826006604051620006e3906200129d565b908152602001604051809103902060006101000a81548173ffffffffffffffffffffffffffffffffffffffff021916908373ffffffffffffffffffffffffffffffffffffffff1602179055506040518060c001604052808473ffffffffffffffffffffffffffffffffffffffff1681526020018381526020016001151581526020018473ffffffffffffffffffffffffffffffffffffffff1681526020016040518060400160405280600481526020017f4164616d00000000000000000000000000000000000000000000000000000000815250815260200182815250600560008573ffffffffffffffffffffffffffffffffffffffff1673ffffffffffffffffffffffffffffffffffffffff16815260200190815260200160002060008201518160000160006101000a81548173ffffffffffffffffffffffffffffffffffffffff021916908373ffffffffffffffffffffffffffffffffffffffff16021790555060208201518160010190816200085d919062001166565b5060408201518160020160006101000a81548160ff02191690831515021790555060608201518160020160016101000a81548173ffffffffffffffffffffffffffffffffffffffff021916908373ffffffffffffffffffffffffffffffffffffffff1602179055506080820151816003019081620008dc919062001166565b5060a0820151816004019081620008f4919062001166565b509050506001600560008573ffffffffffffffffffffffffffffffffffffffff1673ffffffffffffffffffffffffffffffffffffffff16815260200190815260200160002060020160006101000a81548160ff02191690831515021790555033600560008573ffffffffffffffffffffffffffffffffffffffff1673ffffffffffffffffffffffffffffffffffffffff16815260200190815260200160002060020160016101000a81548173ffffffffffffffffffffffffffffffffffffffff021916908373ffffffffffffffffffffffffffffffffffffffff160217905550600062000a1c6040518060400160405280600181526020017f300000000000000000000000000000000000000000000000000000000000000081525062000b6760201b60201c565b90506001600760008373ffffffffffffffffffffffffffffffffffffffff1673ffffffffffffffffffffffffffffffffffffffff16815260200190815260200160002060008673ffffffffffffffffffffffffffffffffffffffff1673ffffffffffffffffffffffffffffffffffffffff16815260200190815260200160002060006101000a81548160ff0219169083151502179055508373ffffffffffffffffffffffffffffffffffffffff167f908408e307fc569b417f6cbec5d5a06f44a0a505ac0479b47d421a4b2fd6a1e660405160405180910390a250505050565b60006001600084815260200190815260200160002060000160008373ffffffffffffffffffffffffffffffffffffffff1673ffffffffffffffffffffffffffffffffffffffff16815260200190815260200160002060009054906101000a900460ff16905092915050565b600060068260405162000b7b919062000ea6565b908152602001604051809103902060009054906101000a900473ffffffffffffffffffffffffffffffffffffffff169050919050565b6000604051905090565b600080fd5b600080fd5b600073ffffffffffffffffffffffffffffffffffffffff82169050919050565b600062000bf28262000bc5565b9050919050565b62000c048162000be5565b811462000c1057600080fd5b50565b60008151905062000c248162000bf9565b92915050565b600080fd5b600080fd5b6000601f19601f8301169050919050565b7f4e487b7100000000000000000000000000000000000000000000000000000000600052604160045260246000fd5b62000c7f8262000c34565b810181811067ffffffffffffffff8211171562000ca15762000ca062000c45565b5b80604052505050565b600062000cb662000bb1565b905062000cc4828262000c74565b919050565b600067ffffffffffffffff82111562000ce75762000ce662000c45565b5b62000cf28262000c34565b9050602081019050919050565b60005b8381101562000d1f57808201518184015260208101905062000d02565b60008484015250505050565b600062000d4262000d3c8462000cc9565b62000caa565b90508281526020810184848401111562000d615762000d6062000c2f565b5b62000d6e84828562000cff565b509392505050565b600082601f83011262000d8e5762000d8d62000c2a565b5b815162000da084826020860162000d2b565b91505092915050565b6000806000806080858703121562000dc65762000dc562000bbb565b5b600062000dd68782880162000c13565b945050602062000de98782880162000c13565b935050604085015167ffffffffffffffff81111562000e0d5762000e0c62000bc0565b5b62000e1b8782880162000d76565b925050606085015167ffffffffffffffff81111562000e3f5762000e3e62000bc0565b5b62000e4d8782880162000d76565b91505092959194509250565b600081519050919050565b600081905092915050565b600062000e7c8262000e59565b62000e88818562000e64565b935062000e9a81856020860162000cff565b80840191505092915050565b600062000eb4828462000e6f565b915081905092915050565b7f3000000000000000000000000000000000000000000000000000000000000000600082015250565b600062000ef760018362000e64565b915062000f048262000ebf565b600182019050919050565b600062000f1c8262000ee8565b9150819050919050565b7f4e487b7100000000000000000000000000000000000000000000000000000000600052602260045260246000fd5b6000600282049050600182168062000f6e57607f821691505b60208210810362000f845762000f8362000f26565b5b50919050565b60008190508160005260206000209050919050565b60006020601f8301049050919050565b600082821b905092915050565b60006008830262000fee7fffffffffffffffffffffffffffffffffffffffffffffffffffffffffffffffff8262000faf565b62000ffa868362000faf565b95508019841693508086168417925050509392505050565b6000819050919050565b6000819050919050565b600062001047620010416200103b8462001012565b6200101c565b62001012565b9050919050565b6000819050919050565b620010638362001026565b6200107b62001072826200104e565b84845462000fbc565b825550505050565b600090565b6200109262001083565b6200109f81848462001058565b505050565b5b81811015620010c757620010bb60008262001088565b600181019050620010a5565b5050565b601f8211156200111657620010e08162000f8a565b620010eb8462000f9f565b81016020851015620010fb578190505b620011136200110a8562000f9f565b830182620010a4565b50505b505050565b600082821c905092915050565b60006200113b600019846008026200111b565b1980831691505092915050565b600062001156838362001128565b9150826002028217905092915050565b620011718262000e59565b67ffffffffffffffff8111156200118d576200118c62000c45565b5b62001199825462000f55565b620011a6828285620010cb565b600060209050601f831160018114620011de5760008415620011c9578287015190505b620011d5858262001148565b86555062001245565b601f198416620011ee8662000f8a565b60005b828110156200121857848901518255600182019150602085019450602081019050620011f1565b8683101562001238578489015162001234601f89168262001128565b8355505b6001600288020188555050505b505050505050565b7f4164616d00000000000000000000000000000000000000000000000000000000600082015250565b60006200128560048362000e64565b915062001292826200124d565b600482019050919050565b6000620012aa8262001276565b9150819050919050565b61473180620012c46000396000f3fe6080604052600436106101c25760003560e01c806348dc1561116100f75780639b45179f11610095578063d2114e1811610064578063d2114e181461066b578063d2125bd2146106a8578063d547741f146106d1578063f2fde38b146106fa576101c2565b80639b45179f146105be578063a217fddf146105e7578063b932fbfa14610612578063c54080c51461064f576101c2565b8063679b06be116100d1578063679b06be14610528578063715018a61461053f5780638da5cb5b1461055657806391d1485414610581576101c2565b806348dc1561146104955780635d1ce88f146104c057806361cabe37146104eb576101c2565b80632067eac8116101645780632f2ff15d1161013e5780632f2ff15d146103db57806336568abe14610404578063387439041461042d578063460e6c9c14610458576101c2565b80632067eac81461034c578063248a9ca314610375578063286b2e54146103b2576101c2565b80630d48cae8116101a05780630d48cae81461025857806315905bdd146102955780631892fd78146102d25780631a519ce81461030f576101c2565b8063018d3dc9146101c757806301ffc9a7146101f05780630ae50a391461022d575b600080fd5b3480156101d357600080fd5b506101ee60048036038101906101e9919061339c565b610723565b005b3480156101fc57600080fd5b506102176004803603810190610212919061346c565b6108a1565b60405161022491906134b4565b60405180910390f35b34801561023957600080fd5b5061024261091b565b60405161024f9190613510565b60405180910390f35b34801561026457600080fd5b5061027f600480360381019061027a919061352b565b610945565b60405161028c91906136a8565b60405180910390f35b3480156102a157600080fd5b506102bc60048036038101906102b7919061352b565b610c2f565b6040516102c99190613510565b60405180910390f35b3480156102de57600080fd5b506102f960048036038101906102f491906136f6565b610c77565b60405161030691906136a8565b60405180910390f35b34801561031b57600080fd5b506103366004803603810190610331919061352b565b610f53565b60405161034391906136a8565b60405180910390f35b34801561035857600080fd5b50610373600480360381019061036e91906136f6565b61123d565b005b34801561038157600080fd5b5061039c60048036038101906103979190613759565b6115e3565b6040516103a99190613795565b60405180910390f35b3480156103be57600080fd5b506103d960048036038101906103d4919061352b565b611603565b005b3480156103e757600080fd5b5061040260048036038101906103fd91906137b0565b611a6b565b005b34801561041057600080fd5b5061042b600480360381019061042691906137b0565b611a8c565b005b34801561043957600080fd5b50610442611b0f565b60405161044f9190613795565b60405180910390f35b34801561046457600080fd5b5061047f600480360381019061047a91906137f0565b611b33565b60405161048c91906134b4565b60405180910390f35b3480156104a157600080fd5b506104aa611b62565b6040516104b79190613849565b60405180910390f35b3480156104cc57600080fd5b506104d5611b6c565b6040516104e29190613795565b60405180910390f35b3480156104f757600080fd5b50610512600480360381019061050d91906136f6565b611b94565b60405161051f91906138ae565b60405180910390f35b34801561053457600080fd5b5061053d611bb0565b005b34801561054b57600080fd5b50610554611c57565b005b34801561056257600080fd5b5061056b611c6b565b6040516105789190613510565b60405180910390f35b34801561058d57600080fd5b506105a860048036038101906105a391906137b0565b611c94565b6040516105b591906134b4565b60405180910390f35b3480156105ca57600080fd5b506105e560048036038101906105e0919061339c565b611cff565b005b3480156105f357600080fd5b506105fc61205b565b6040516106099190613795565b60405180910390f35b34801561061e57600080fd5b50610639600480360381019061063491906136f6565b612062565b60405161064691906138ae565b60405180910390f35b610669600480360381019061066491906138d0565b612084565b005b34801561067757600080fd5b50610692600480360381019061068d919061352b565b6124b8565b60405161069f9190613510565b60405180910390f35b3480156106b457600080fd5b506106cf60048036038101906106ca91906139d3565b612500565b005b3480156106dd57600080fd5b506106f860048036038101906106f391906137b0565b612512565b005b34801561070657600080fd5b50610721600480360381019061071c91906136f6565b612533565b005b600061072e826124b8565b9050600061073b846124b8565b90503373ffffffffffffffffffffffffffffffffffffffff168273ffffffffffffffffffffffffffffffffffffffff16146107ab576040517f08c379a00000000000000000000000000000000000000000000000000000000081526004016107a290613a72565b60405180910390fd5b6000600560008473ffffffffffffffffffffffffffffffffffffffff1673ffffffffffffffffffffffffffffffffffffffff16815260200190815260200160002060020160006101000a81548160ff0219169083151502179055506000600760008373ffffffffffffffffffffffffffffffffffffffff1673ffffffffffffffffffffffffffffffffffffffff16815260200190815260200160002060003373ffffffffffffffffffffffffffffffffffffffff1673ffffffffffffffffffffffffffffffffffffffff16815260200190815260200160002060006101000a81548160ff02191690831515021790555050505050565b60007f7965db0b000000000000000000000000000000000000000000000000000000007bffffffffffffffffffffffffffffffffffffffffffffffffffffffff1916827bffffffffffffffffffffffffffffffffffffffffffffffffffffffff191614806109145750610913826125b6565b5b9050919050565b6000600360009054906101000a900473ffffffffffffffffffffffffffffffffffffffff16905090565b61094d613181565b6000610958836124b8565b90506000600560008373ffffffffffffffffffffffffffffffffffffffff1673ffffffffffffffffffffffffffffffffffffffff1681526020019081526020016000206040518060c00160405290816000820160009054906101000a900473ffffffffffffffffffffffffffffffffffffffff1673ffffffffffffffffffffffffffffffffffffffff1673ffffffffffffffffffffffffffffffffffffffff168152602001600182018054610a0c90613ac1565b80601f0160208091040260200160405190810160405280929190818152602001828054610a3890613ac1565b8015610a855780601f10610a5a57610100808354040283529160200191610a85565b820191906000526020600020905b815481529060010190602001808311610a6857829003601f168201915b505050505081526020016002820160009054906101000a900460ff161515151581526020016002820160019054906101000a900473ffffffffffffffffffffffffffffffffffffffff1673ffffffffffffffffffffffffffffffffffffffff1673ffffffffffffffffffffffffffffffffffffffff168152602001600382018054610b0f90613ac1565b80601f0160208091040260200160405190810160405280929190818152602001828054610b3b90613ac1565b8015610b885780601f10610b5d57610100808354040283529160200191610b88565b820191906000526020600020905b815481529060010190602001808311610b6b57829003601f168201915b50505050508152602001600482018054610ba190613ac1565b80601f0160208091040260200160405190810160405280929190818152602001828054610bcd90613ac1565b8015610c1a5780601f10610bef57610100808354040283529160200191610c1a565b820191906000526020600020905b815481529060010190602001808311610bfd57829003601f168201915b50505050508152505090508092505050919050565b6000600482604051610c419190613b2e565b908152602001604051809103902060009054906101000a900473ffffffffffffffffffffffffffffffffffffffff169050919050565b610c7f613181565b6000600560008473ffffffffffffffffffffffffffffffffffffffff1673ffffffffffffffffffffffffffffffffffffffff1681526020019081526020016000206040518060c00160405290816000820160009054906101000a900473ffffffffffffffffffffffffffffffffffffffff1673ffffffffffffffffffffffffffffffffffffffff1673ffffffffffffffffffffffffffffffffffffffff168152602001600182018054610d3190613ac1565b80601f0160208091040260200160405190810160405280929190818152602001828054610d5d90613ac1565b8015610daa5780601f10610d7f57610100808354040283529160200191610daa565b820191906000526020600020905b815481529060010190602001808311610d8d57829003601f168201915b505050505081526020016002820160009054906101000a900460ff161515151581526020016002820160019054906101000a900473ffffffffffffffffffffffffffffffffffffffff1673ffffffffffffffffffffffffffffffffffffffff1673ffffffffffffffffffffffffffffffffffffffff168152602001600382018054610e3490613ac1565b80601f0160208091040260200160405190810160405280929190818152602001828054610e6090613ac1565b8015610ead5780601f10610e8257610100808354040283529160200191610ead565b820191906000526020600020905b815481529060010190602001808311610e9057829003601f168201915b50505050508152602001600482018054610ec690613ac1565b80601f0160208091040260200160405190810160405280929190818152602001828054610ef290613ac1565b8015610f3f5780601f10610f1457610100808354040283529160200191610f3f565b820191906000526020600020905b815481529060010190602001808311610f2257829003601f168201915b505050505081525050905080915050919050565b610f5b613181565b6000610f6683610c2f565b90506000600560008373ffffffffffffffffffffffffffffffffffffffff1673ffffffffffffffffffffffffffffffffffffffff1681526020019081526020016000206040518060c00160405290816000820160009054906101000a900473ffffffffffffffffffffffffffffffffffffffff1673ffffffffffffffffffffffffffffffffffffffff1673ffffffffffffffffffffffffffffffffffffffff16815260200160018201805461101a90613ac1565b80601f016020809104026020016040519081016040528092919081815260200182805461104690613ac1565b80156110935780601f1061106857610100808354040283529160200191611093565b820191906000526020600020905b81548152906001019060200180831161107657829003601f168201915b505050505081526020016002820160009054906101000a900460ff161515151581526020016002820160019054906101000a900473ffffffffffffffffffffffffffffffffffffffff1673ffffffffffffffffffffffffffffffffffffffff1673ffffffffffffffffffffffffffffffffffffffff16815260200160038201805461111d90613ac1565b80601f016020809104026020016040519081016040528092919081815260200182805461114990613ac1565b80156111965780601f1061116b57610100808354040283529160200191611196565b820191906000526020600020905b81548152906001019060200180831161117957829003601f168201915b505050505081526020016004820180546111af90613ac1565b80601f01602080910402602001604051908101604052809291908181526020018280546111db90613ac1565b80156112285780601f106111fd57610100808354040283529160200191611228565b820191906000526020600020905b81548152906001019060200180831161120b57829003601f168201915b50505050508152505090508092505050919050565b7fcea62fe6ecc79e221c545bf918f804693c542ead2549e37c2bb9baa66ee2e15761126781612620565b6000600560008473ffffffffffffffffffffffffffffffffffffffff1673ffffffffffffffffffffffffffffffffffffffff16815260200190815260200160002060010180546112b690613ac1565b80601f01602080910402602001604051908101604052809291908181526020018280546112e290613ac1565b801561132f5780601f106113045761010080835404028352916020019161132f565b820191906000526020600020905b81548152906001019060200180831161131257829003601f168201915b505050505090506000600560008573ffffffffffffffffffffffffffffffffffffffff1673ffffffffffffffffffffffffffffffffffffffff168152602001908152602001600020600301805461138590613ac1565b80601f01602080910402602001604051908101604052809291908181526020018280546113b190613ac1565b80156113fe5780601f106113d3576101008083540402835291602001916113fe565b820191906000526020600020905b8154815290600101906020018083116113e157829003601f168201915b5050505050905060004690506005811461144d576040517f08c379a000000000000000000000000000000000000000000000000000000000815260040161144490613bb7565b60405180910390fd5b600560008673ffffffffffffffffffffffffffffffffffffffff1673ffffffffffffffffffffffffffffffffffffffff168152602001908152602001600020600080820160006101000a81549073ffffffffffffffffffffffffffffffffffffffff02191690556001820160006114c491906131e5565b6002820160006101000a81549060ff02191690556002820160016101000a81549073ffffffffffffffffffffffffffffffffffffffff021916905560038201600061150f91906131e5565b60048201600061151f91906131e5565b50506004836040516115319190613b2e565b908152602001604051809103902060006101000a81549073ffffffffffffffffffffffffffffffffffffffff02191690556006826040516115729190613b2e565b908152602001604051809103902060006101000a81549073ffffffffffffffffffffffffffffffffffffffff02191690557fe444442b4fc5a03103c68bde16932de23949be11145d1b4707d817bfb505573883866040516115d4929190613bd7565b60405180910390a15050505050565b600060016000838152602001908152602001600020600101549050919050565b600061160e82610c2f565b90506000600560008373ffffffffffffffffffffffffffffffffffffffff1673ffffffffffffffffffffffffffffffffffffffff168152602001908152602001600020600301805461165f90613ac1565b80601f016020809104026020016040519081016040528092919081815260200182805461168b90613ac1565b80156116d85780601f106116ad576101008083540402835291602001916116d8565b820191906000526020600020905b8154815290600101906020018083116116bb57829003601f168201915b5050505050905060001515600560008473ffffffffffffffffffffffffffffffffffffffff1673ffffffffffffffffffffffffffffffffffffffff16815260200190815260200160002060020160009054906101000a900460ff16151514611775576040517f08c379a000000000000000000000000000000000000000000000000000000000815260040161176c90613c79565b60405180910390fd5b6000600760003373ffffffffffffffffffffffffffffffffffffffff1673ffffffffffffffffffffffffffffffffffffffff16815260200190815260200160002060008473ffffffffffffffffffffffffffffffffffffffff1673ffffffffffffffffffffffffffffffffffffffff16815260200190815260200160002060009054906101000a900460ff169050600015158115151461184a576040517f08c379a000000000000000000000000000000000000000000000000000000000815260040161184190613ce5565b60405180910390fd5b600560008473ffffffffffffffffffffffffffffffffffffffff1673ffffffffffffffffffffffffffffffffffffffff168152602001908152602001600020600080820160006101000a81549073ffffffffffffffffffffffffffffffffffffffff02191690556001820160006118c191906131e5565b6002820160006101000a81549060ff02191690556002820160016101000a81549073ffffffffffffffffffffffffffffffffffffffff021916905560038201600061190c91906131e5565b60048201600061191c91906131e5565b505060048460405161192e9190613b2e565b908152602001604051809103902060006101000a81549073ffffffffffffffffffffffffffffffffffffffff021916905560068260405161196f9190613b2e565b908152602001604051809103902060006101000a81549073ffffffffffffffffffffffffffffffffffffffff0219169055600760003373ffffffffffffffffffffffffffffffffffffffff1673ffffffffffffffffffffffffffffffffffffffff16815260200190815260200160002060008473ffffffffffffffffffffffffffffffffffffffff1673ffffffffffffffffffffffffffffffffffffffff16815260200190815260200160002060006101000a81549060ff02191690557fe444442b4fc5a03103c68bde16932de23949be11145d1b4707d817bfb50557388484604051611a5d929190613bd7565b60405180910390a150505050565b611a74826115e3565b611a7d81612620565b611a878383612634565b505050565b611a94612714565b73ffffffffffffffffffffffffffffffffffffffff168173ffffffffffffffffffffffffffffffffffffffff1614611b01576040517f08c379a0000000000000000000000000000000000000000000000000000000008152600401611af890613d77565b60405180910390fd5b611b0b828261271c565b5050565b7fcea62fe6ecc79e221c545bf918f804693c542ead2549e37c2bb9baa66ee2e15781565b60076020528160005260406000206020528060005260406000206000915091509054906101000a900460ff1681565b6000600254905090565b60007fcea62fe6ecc79e221c545bf918f804693c542ead2549e37c2bb9baa66ee2e157905090565b60606000611ba183610c77565b90508060200151915050919050565b6000600560003373ffffffffffffffffffffffffffffffffffffffff1673ffffffffffffffffffffffffffffffffffffffff16815260200190815260200160002060020160009054906101000a900460ff1690506000151581151514611c4b576040517f08c379a0000000000000000000000000000000000000000000000000000000008152600401611c4290613de3565b60405180910390fd5b611c54336127fe565b50565b611c5f612b30565b611c696000612bae565b565b60008060009054906101000a900473ffffffffffffffffffffffffffffffffffffffff16905090565b60006001600084815260200190815260200160002060000160008373ffffffffffffffffffffffffffffffffffffffff1673ffffffffffffffffffffffffffffffffffffffff16815260200190815260200160002060009054906101000a900460ff16905092915050565b6000600682604051611d119190613b2e565b908152602001604051809103902060009054906101000a900473ffffffffffffffffffffffffffffffffffffffff1690503373ffffffffffffffffffffffffffffffffffffffff168173ffffffffffffffffffffffffffffffffffffffff1614611db0576040517f08c379a0000000000000000000000000000000000000000000000000000000008152600401611da790613e4f565b60405180910390fd5b6000611dbb84610c2f565b90506000600760008473ffffffffffffffffffffffffffffffffffffffff1673ffffffffffffffffffffffffffffffffffffffff16815260200190815260200160002060008373ffffffffffffffffffffffffffffffffffffffff1673ffffffffffffffffffffffffffffffffffffffff16815260200190815260200160002060009054906101000a900460ff1690506000151581151514611e92576040517f08c379a0000000000000000000000000000000000000000000000000000000008152600401611e8990613ebb565b60405180910390fd5b6001600560008473ffffffffffffffffffffffffffffffffffffffff1673ffffffffffffffffffffffffffffffffffffffff16815260200190815260200160002060020160006101000a81548160ff02191690831515021790555033600560008473ffffffffffffffffffffffffffffffffffffffff1673ffffffffffffffffffffffffffffffffffffffff16815260200190815260200160002060020160016101000a81548173ffffffffffffffffffffffffffffffffffffffff021916908373ffffffffffffffffffffffffffffffffffffffff1602179055506001600760008573ffffffffffffffffffffffffffffffffffffffff1673ffffffffffffffffffffffffffffffffffffffff16815260200190815260200160002060008473ffffffffffffffffffffffffffffffffffffffff1673ffffffffffffffffffffffffffffffffffffffff16815260200190815260200160002060006101000a81548160ff0219169083151502179055508173ffffffffffffffffffffffffffffffffffffffff167fadbeb0a5d66e2be993428864e5c86f7c8aa562e2c58131d193ac2eeb7443817a84600160405161204c929190613edb565b60405180910390a25050505050565b6000801b81565b6060600061206f83610c77565b905060008160a0015190508092505050919050565b600033905060025434146120cd576040517f08c379a00000000000000000000000000000000000000000000000000000000081526004016120c490613f50565b60405180910390fd5b60006006846040516120df9190613b2e565b908152602001604051809103902060009054906101000a900473ffffffffffffffffffffffffffffffffffffffff1690506040518060c001604052808373ffffffffffffffffffffffffffffffffffffffff1681526020018781526020016000151581526020018273ffffffffffffffffffffffffffffffffffffffff16815260200186815260200184815250600560003373ffffffffffffffffffffffffffffffffffffffff1673ffffffffffffffffffffffffffffffffffffffff16815260200190815260200160002060008201518160000160006101000a81548173ffffffffffffffffffffffffffffffffffffffff021916908373ffffffffffffffffffffffffffffffffffffffff1602179055506020820151816001019081612207919061411c565b5060408201518160020160006101000a81548160ff02191690831515021790555060608201518160020160016101000a81548173ffffffffffffffffffffffffffffffffffffffff021916908373ffffffffffffffffffffffffffffffffffffffff1602179055506080820151816003019081612284919061411c565b5060a082015181600401908161229a919061411c565b509050506000600360009054906101000a900473ffffffffffffffffffffffffffffffffffffffff1673ffffffffffffffffffffffffffffffffffffffff166002546040516122e89061421f565b60006040518083038185875af1925050503d8060008114612325576040519150601f19603f3d011682016040523d82523d6000602084013e61232a565b606091505b505090508061236e576040517f08c379a000000000000000000000000000000000000000000000000000000000815260040161236590614280565b60405180910390fd5b8173ffffffffffffffffffffffffffffffffffffffff167f435b683210e9cdb43126109baed7a6a387c609e0e13532755b51016e1b773a6b88336040516123b6929190613bd7565b60405180910390a28173ffffffffffffffffffffffffffffffffffffffff167f71ec84cb0c406d66954dcb2481d75f63a94ed77283afa5657d56e68a20df3c528833604051612406929190613bd7565b60405180910390a26000600760008473ffffffffffffffffffffffffffffffffffffffff1673ffffffffffffffffffffffffffffffffffffffff16815260200190815260200160002060003373ffffffffffffffffffffffffffffffffffffffff1673ffffffffffffffffffffffffffffffffffffffff16815260200190815260200160002060006101000a81548160ff0219169083151502179055506124af87848888612c72565b50505050505050565b60006006826040516124ca9190613b2e565b908152602001604051809103902060009054906101000a900473ffffffffffffffffffffffffffffffffffffffff169050919050565b612508612b30565b8060028190555050565b61251b826115e3565b61252481612620565b61252e838361271c565b505050565b61253b612b30565b600073ffffffffffffffffffffffffffffffffffffffff168173ffffffffffffffffffffffffffffffffffffffff16036125aa576040517f08c379a00000000000000000000000000000000000000000000000000000000081526004016125a190614312565b60405180910390fd5b6125b381612bae565b50565b60007f01ffc9a7000000000000000000000000000000000000000000000000000000007bffffffffffffffffffffffffffffffffffffffffffffffffffffffff1916827bffffffffffffffffffffffffffffffffffffffffffffffffffffffff1916149050919050565b6126318161262c612714565b612e93565b50565b61263e8282611c94565b61271057600180600084815260200190815260200160002060000160008373ffffffffffffffffffffffffffffffffffffffff1673ffffffffffffffffffffffffffffffffffffffff16815260200190815260200160002060006101000a81548160ff0219169083151502179055506126b5612714565b73ffffffffffffffffffffffffffffffffffffffff168173ffffffffffffffffffffffffffffffffffffffff16837f2f8788117e7eff1d82e926ec794901d17c78024a50270940304540a733656f0d60405160405180910390a45b5050565b600033905090565b6127268282611c94565b156127fa5760006001600084815260200190815260200160002060000160008373ffffffffffffffffffffffffffffffffffffffff1673ffffffffffffffffffffffffffffffffffffffff16815260200190815260200160002060006101000a81548160ff02191690831515021790555061279f612714565b73ffffffffffffffffffffffffffffffffffffffff168173ffffffffffffffffffffffffffffffffffffffff16837ff6391f5c32d9c69d2a47ea670b442974b53935d1edc7fd64eb21e047a839171b60405160405180910390a45b5050565b6000600560008373ffffffffffffffffffffffffffffffffffffffff1673ffffffffffffffffffffffffffffffffffffffff168152602001908152602001600020600101805461284d90613ac1565b80601f016020809104026020016040519081016040528092919081815260200182805461287990613ac1565b80156128c65780601f1061289b576101008083540402835291602001916128c6565b820191906000526020600020905b8154815290600101906020018083116128a957829003601f168201915b505050505090506000600560008473ffffffffffffffffffffffffffffffffffffffff1673ffffffffffffffffffffffffffffffffffffffff168152602001908152602001600020600301805461291c90613ac1565b80601f016020809104026020016040519081016040528092919081815260200182805461294890613ac1565b80156129955780601f1061296a57610100808354040283529160200191612995565b820191906000526020600020905b81548152906001019060200180831161297857829003601f168201915b50505050509050600560008473ffffffffffffffffffffffffffffffffffffffff1673ffffffffffffffffffffffffffffffffffffffff168152602001908152602001600020600080820160006101000a81549073ffffffffffffffffffffffffffffffffffffffff0219169055600182016000612a1391906131e5565b6002820160006101000a81549060ff02191690556002820160016101000a81549073ffffffffffffffffffffffffffffffffffffffff0219169055600382016000612a5e91906131e5565b600482016000612a6e91906131e5565b5050600482604051612a809190613b2e565b908152602001604051809103902060006101000a81549073ffffffffffffffffffffffffffffffffffffffff0219169055600681604051612ac19190613b2e565b908152602001604051809103902060006101000a81549073ffffffffffffffffffffffffffffffffffffffff02191690557fe444442b4fc5a03103c68bde16932de23949be11145d1b4707d817bfb50557388284604051612b23929190613bd7565b60405180910390a1505050565b612b38612714565b73ffffffffffffffffffffffffffffffffffffffff16612b56611c6b565b73ffffffffffffffffffffffffffffffffffffffff1614612bac576040517f08c379a0000000000000000000000000000000000000000000000000000000008152600401612ba39061437e565b60405180910390fd5b565b60008060009054906101000a900473ffffffffffffffffffffffffffffffffffffffff169050816000806101000a81548173ffffffffffffffffffffffffffffffffffffffff021916908373ffffffffffffffffffffffffffffffffffffffff1602179055508173ffffffffffffffffffffffffffffffffffffffff168173ffffffffffffffffffffffffffffffffffffffff167f8be0079c531659141344cd1fd0a4f28419497f9722a3daafe3b4186f6b6457e060405160405180910390a35050565b600073ffffffffffffffffffffffffffffffffffffffff16600485604051612c9a9190613b2e565b908152602001604051809103902060009054906101000a900473ffffffffffffffffffffffffffffffffffffffff1673ffffffffffffffffffffffffffffffffffffffff1614612d1f576040517f08c379a0000000000000000000000000000000000000000000000000000000008152600401612d1690614410565b60405180910390fd5b6000600860009054906101000a900473ffffffffffffffffffffffffffffffffffffffff1673ffffffffffffffffffffffffffffffffffffffff1663a430c74484846040518363ffffffff1660e01b8152600401612d7e929190614430565b602060405180830381865afa158015612d9b573d6000803e3d6000fd5b505050506040513d601f19601f82011682018060405250810190612dbf9190614493565b90506001151581151514612dd257600080fd5b83600486604051612de39190613b2e565b908152602001604051809103902060006101000a81548173ffffffffffffffffffffffffffffffffffffffff021916908373ffffffffffffffffffffffffffffffffffffffff16021790555083600684604051612e409190613b2e565b908152602001604051809103902060006101000a81548173ffffffffffffffffffffffffffffffffffffffff021916908373ffffffffffffffffffffffffffffffffffffffff1602179055505050505050565b612e9d8282611c94565b612f1457612eaa81612f18565b612eb88360001c6020612f45565b604051602001612ec9929190614558565b6040516020818303038152906040526040517f08c379a0000000000000000000000000000000000000000000000000000000008152600401612f0b91906138ae565b60405180910390fd5b5050565b6060612f3e8273ffffffffffffffffffffffffffffffffffffffff16601460ff16612f45565b9050919050565b606060006002836002612f5891906145c1565b612f629190614603565b67ffffffffffffffff811115612f7b57612f7a613271565b5b6040519080825280601f01601f191660200182016040528015612fad5781602001600182028036833780820191505090505b5090507f300000000000000000000000000000000000000000000000000000000000000081600081518110612fe557612fe4614637565b5b60200101907effffffffffffffffffffffffffffffffffffffffffffffffffffffffffffff1916908160001a9053507f78000000000000000000000000000000000000000000000000000000000000008160018151811061304957613048614637565b5b60200101907effffffffffffffffffffffffffffffffffffffffffffffffffffffffffffff1916908160001a9053506000600184600261308991906145c1565b6130939190614603565b90505b6001811115613133577f3031323334353637383961626364656600000000000000000000000000000000600f8616601081106130d5576130d4614637565b5b1a60f81b8282815181106130ec576130eb614637565b5b60200101907effffffffffffffffffffffffffffffffffffffffffffffffffffffffffffff1916908160001a905350600485901c94508061312c90614666565b9050613096565b5060008414613177576040517f08c379a000000000000000000000000000000000000000000000000000000000815260040161316e906146db565b60405180910390fd5b8091505092915050565b6040518060c00160405280600073ffffffffffffffffffffffffffffffffffffffff16815260200160608152602001600015158152602001600073ffffffffffffffffffffffffffffffffffffffff16815260200160608152602001606081525090565b5080546131f190613ac1565b6000825580601f106132035750613222565b601f0160209004906000526020600020908101906132219190613225565b5b50565b5b8082111561323e576000816000905550600101613226565b5090565b6000604051905090565b600080fd5b600080fd5b600080fd5b600080fd5b6000601f19601f8301169050919050565b7f4e487b7100000000000000000000000000000000000000000000000000000000600052604160045260246000fd5b6132a982613260565b810181811067ffffffffffffffff821117156132c8576132c7613271565b5b80604052505050565b60006132db613242565b90506132e782826132a0565b919050565b600067ffffffffffffffff82111561330757613306613271565b5b61331082613260565b9050602081019050919050565b82818337600083830152505050565b600061333f61333a846132ec565b6132d1565b90508281526020810184848401111561335b5761335a61325b565b5b61336684828561331d565b509392505050565b600082601f83011261338357613382613256565b5b813561339384826020860161332c565b91505092915050565b600080604083850312156133b3576133b261324c565b5b600083013567ffffffffffffffff8111156133d1576133d0613251565b5b6133dd8582860161336e565b925050602083013567ffffffffffffffff8111156133fe576133fd613251565b5b61340a8582860161336e565b9150509250929050565b60007fffffffff0000000000000000000000000000000000000000000000000000000082169050919050565b61344981613414565b811461345457600080fd5b50565b60008135905061346681613440565b92915050565b6000602082840312156134825761348161324c565b5b600061349084828501613457565b91505092915050565b60008115159050919050565b6134ae81613499565b82525050565b60006020820190506134c960008301846134a5565b92915050565b600073ffffffffffffffffffffffffffffffffffffffff82169050919050565b60006134fa826134cf565b9050919050565b61350a816134ef565b82525050565b60006020820190506135256000830184613501565b92915050565b6000602082840312156135415761354061324c565b5b600082013567ffffffffffffffff81111561355f5761355e613251565b5b61356b8482850161336e565b91505092915050565b61357d816134ef565b82525050565b600081519050919050565b600082825260208201905092915050565b60005b838110156135bd5780820151818401526020810190506135a2565b60008484015250505050565b60006135d482613583565b6135de818561358e565b93506135ee81856020860161359f565b6135f781613260565b840191505092915050565b61360b81613499565b82525050565b600060c0830160008301516136296000860182613574565b506020830151848203602086015261364182826135c9565b91505060408301516136566040860182613602565b5060608301516136696060860182613574565b506080830151848203608086015261368182826135c9565b91505060a083015184820360a086015261369b82826135c9565b9150508091505092915050565b600060208201905081810360008301526136c28184613611565b905092915050565b6136d3816134ef565b81146136de57600080fd5b50565b6000813590506136f0816136ca565b92915050565b60006020828403121561370c5761370b61324c565b5b600061371a848285016136e1565b91505092915050565b6000819050919050565b61373681613723565b811461374157600080fd5b50565b6000813590506137538161372d565b92915050565b60006020828403121561376f5761376e61324c565b5b600061377d84828501613744565b91505092915050565b61378f81613723565b82525050565b60006020820190506137aa6000830184613786565b92915050565b600080604083850312156137c7576137c661324c565b5b60006137d585828601613744565b92505060206137e6858286016136e1565b9150509250929050565b600080604083850312156138075761380661324c565b5b6000613815858286016136e1565b9250506020613826858286016136e1565b9150509250929050565b6000819050919050565b61384381613830565b82525050565b600060208201905061385e600083018461383a565b92915050565b600082825260208201905092915050565b600061388082613583565b61388a8185613864565b935061389a81856020860161359f565b6138a381613260565b840191505092915050565b600060208201905081810360008301526138c88184613875565b905092915050565b600080600080608085870312156138ea576138e961324c565b5b600085013567ffffffffffffffff81111561390857613907613251565b5b6139148782880161336e565b945050602085013567ffffffffffffffff81111561393557613934613251565b5b6139418782880161336e565b935050604085013567ffffffffffffffff81111561396257613961613251565b5b61396e8782880161336e565b925050606085013567ffffffffffffffff81111561398f5761398e613251565b5b61399b8782880161336e565b91505092959194509250565b6139b081613830565b81146139bb57600080fd5b50565b6000813590506139cd816139a7565b92915050565b6000602082840312156139e9576139e861324c565b5b60006139f7848285016139be565b91505092915050565b7f757365727320616c6c6f776564206f6e6c7920746f20636c656172207468656d60008201527f73656c6673000000000000000000000000000000000000000000000000000000602082015250565b6000613a5c602583613864565b9150613a6782613a00565b604082019050919050565b60006020820190508181036000830152613a8b81613a4f565b9050919050565b7f4e487b7100000000000000000000000000000000000000000000000000000000600052602260045260246000fd5b60006002820490506001821680613ad957607f821691505b602082108103613aec57613aeb613a92565b5b50919050565b600081905092915050565b6000613b0882613583565b613b128185613af2565b9350613b2281856020860161359f565b80840191505092915050565b6000613b3a8284613afd565b915081905092915050565b7f746869732066756e6374696f6e20776f726b2773206f6e6c7920666f7220746560008201527f73746e6574000000000000000000000000000000000000000000000000000000602082015250565b6000613ba1602583613864565b9150613bac82613b45565b604082019050919050565b60006020820190508181036000830152613bd081613b94565b9050919050565b60006040820190508181036000830152613bf18185613875565b9050613c006020830184613501565b9392505050565b7f616c726561647920617070726f766564204f5220646f206e6f7420657869737460008201527f7320796574000000000000000000000000000000000000000000000000000000602082015250565b6000613c63602583613864565b9150613c6e82613c07565b604082019050919050565b60006020820190508181036000830152613c9281613c56565b9050919050565b7f616c7265616479206c696e6b6564204f5220646f6e7420657869737473000000600082015250565b6000613ccf601d83613864565b9150613cda82613c99565b602082019050919050565b60006020820190508181036000830152613cfe81613cc2565b9050919050565b7f416363657373436f6e74726f6c3a2063616e206f6e6c792072656e6f756e636560008201527f20726f6c657320666f722073656c660000000000000000000000000000000000602082015250565b6000613d61602f83613864565b9150613d6c82613d05565b604082019050919050565b60006020820190508181036000830152613d9081613d54565b9050919050565b7f63616c6c20436c656172506172656e7420666972737400000000000000000000600082015250565b6000613dcd601683613864565b9150613dd882613d97565b602082019050919050565b60006020820190508181036000830152613dfc81613dc0565b9050919050565b7f6f6e6c7920706172656e745f6e616d652063616e206163636570742069740000600082015250565b6000613e39601e83613864565b9150613e4482613e03565b602082019050919050565b60006020820190508181036000830152613e6881613e2c565b9050919050565b7f616c726561647920726567697374726564000000000000000000000000000000600082015250565b6000613ea5601183613864565b9150613eb082613e6f565b602082019050919050565b60006020820190508181036000830152613ed481613e98565b9050919050565b6000604082019050613ef06000830185613501565b613efd60208301846134a5565b9392505050565b7f5265717565737420666565206973206e6f742070616964000000000000000000600082015250565b6000613f3a601783613864565b9150613f4582613f04565b602082019050919050565b60006020820190508181036000830152613f6981613f2d565b9050919050565b60008190508160005260206000209050919050565b60006020601f8301049050919050565b600082821b905092915050565b600060088302613fd27fffffffffffffffffffffffffffffffffffffffffffffffffffffffffffffffff82613f95565b613fdc8683613f95565b95508019841693508086168417925050509392505050565b6000819050919050565b600061401961401461400f84613830565b613ff4565b613830565b9050919050565b6000819050919050565b61403383613ffe565b61404761403f82614020565b848454613fa2565b825550505050565b600090565b61405c61404f565b61406781848461402a565b505050565b5b8181101561408b57614080600082614054565b60018101905061406d565b5050565b601f8211156140d0576140a181613f70565b6140aa84613f85565b810160208510156140b9578190505b6140cd6140c585613f85565b83018261406c565b50505b505050565b600082821c905092915050565b60006140f3600019846008026140d5565b1980831691505092915050565b600061410c83836140e2565b9150826002028217905092915050565b61412582613583565b67ffffffffffffffff81111561413e5761413d613271565b5b6141488254613ac1565b61415382828561408f565b600060209050601f8311600181146141865760008415614174578287015190505b61417e8582614100565b8655506141e6565b601f19841661419486613f70565b60005b828110156141bc57848901518255600182019150602085019450602081019050614197565b868310156141d957848901516141d5601f8916826140e2565b8355505b6001600288020188555050505b505050505050565b600081905092915050565b50565b60006142096000836141ee565b9150614214826141f9565b600082019050919050565b600061422a826141fc565b9150819050919050565b7f556e61626c6520746f207472616e736665722066656500000000000000000000600082015250565b600061426a601683613864565b915061427582614234565b602082019050919050565b600060208201905081810360008301526142998161425d565b9050919050565b7f4f776e61626c653a206e6577206f776e657220697320746865207a65726f206160008201527f6464726573730000000000000000000000000000000000000000000000000000602082015250565b60006142fc602683613864565b9150614307826142a0565b604082019050919050565b6000602082019050818103600083015261432b816142ef565b9050919050565b7f4f776e61626c653a2063616c6c6572206973206e6f7420746865206f776e6572600082015250565b6000614368602083613864565b915061437382614332565b602082019050919050565b600060208201905081810360008301526143978161435b565b9050919050565b7f5468657265206973206164647265737320636f6e6e656374656420746f20746860008201527f617420544720494420616c726561647900000000000000000000000000000000602082015250565b60006143fa603083613864565b91506144058261439e565b604082019050919050565b60006020820190508181036000830152614429816143ed565b9050919050565b6000604082019050818103600083015261444a8185613875565b9050818103602083015261445e8184613875565b90509392505050565b61447081613499565b811461447b57600080fd5b50565b60008151905061448d81614467565b92915050565b6000602082840312156144a9576144a861324c565b5b60006144b78482850161447e565b91505092915050565b7f416363657373436f6e74726f6c3a206163636f756e7420000000000000000000600082015250565b60006144f6601783613af2565b9150614501826144c0565b601782019050919050565b7f206973206d697373696e6720726f6c6520000000000000000000000000000000600082015250565b6000614542601183613af2565b915061454d8261450c565b601182019050919050565b6000614563826144e9565b915061456f8285613afd565b915061457a82614535565b91506145868284613afd565b91508190509392505050565b7f4e487b7100000000000000000000000000000000000000000000000000000000600052601160045260246000fd5b60006145cc82613830565b91506145d783613830565b92508282026145e581613830565b915082820484148315176145fc576145fb614592565b5b5092915050565b600061460e82613830565b915061461983613830565b925082820190508082111561463157614630614592565b5b92915050565b7f4e487b7100000000000000000000000000000000000000000000000000000000600052603260045260246000fd5b600061467182613830565b91506000820361468457614683614592565b5b600182039050919050565b7f537472696e67733a20686578206c656e67746820696e73756666696369656e74600082015250565b60006146c5602083613864565b91506146d08261468f565b602082019050919050565b600060208201905081810360008301526146f4816146b8565b905091905056fea2646970667358221220f91669bf2a775f45756345d9fa4d018137a8692f62727b39addb06834edc31c364736f6c634300081100337a6a58436a3969757365336748476141494967796169434f734a705157534345424261632f7a50477267513d",
  "linkReferences": {},
  "deployedLinkReferences": {}
}