{
  "_format": "hh-sol-artifact-1",
  "contractName": "Leg10n",
  "sourceName": "contracts/Leg10n.sol",
  "abi": [
    {
      "inputs": [
        {
          "internalType": "address",
          "name": "turing_",
          "type": "address"
        },
        {
          "internalType": "address",
          "name": "admin_",
          "type": "address"
        },
        {
          "internalType": "string",
          "name": "tgid_",
          "type": "string"
        },
        {
          "internalType": "string",
          "name": "public_key_",
          "type": "string"
        },
        {
          "internalType": "string",
          "name": "plain_id",
          "type": "string"
        }
      ],
      "stateMutability": "nonpayable",
      "type": "constructor"
    },
    {
      "anonymous": false,
      "inputs": [
        {
          "indexed": true,
          "internalType": "address",
          "name": "admin",
          "type": "address"
        }
      ],
      "name": "Initialized",
      "type": "event"
    },
    {
      "anonymous": false,
      "inputs": [
        {
          "indexed": true,
          "internalType": "address",
          "name": "previousOwner",
          "type": "address"
        },
        {
          "indexed": true,
          "internalType": "address",
          "name": "newOwner",
          "type": "address"
        }
      ],
      "name": "OwnershipTransferred",
      "type": "event"
    },
    {
      "anonymous": false,
      "inputs": [
        {
          "indexed": true,
          "internalType": "bytes32",
          "name": "role",
          "type": "bytes32"
        },
        {
          "indexed": true,
          "internalType": "bytes32",
          "name": "previousAdminRole",
          "type": "bytes32"
        },
        {
          "indexed": true,
          "internalType": "bytes32",
          "name": "newAdminRole",
          "type": "bytes32"
        }
      ],
      "name": "RoleAdminChanged",
      "type": "event"
    },
    {
      "anonymous": false,
      "inputs": [
        {
          "indexed": true,
          "internalType": "bytes32",
          "name": "role",
          "type": "bytes32"
        },
        {
          "indexed": true,
          "internalType": "address",
          "name": "account",
          "type": "address"
        },
        {
          "indexed": true,
          "internalType": "address",
          "name": "sender",
          "type": "address"
        }
      ],
      "name": "RoleGranted",
      "type": "event"
    },
    {
      "anonymous": false,
      "inputs": [
        {
          "indexed": true,
          "internalType": "bytes32",
          "name": "role",
          "type": "bytes32"
        },
        {
          "indexed": true,
          "internalType": "address",
          "name": "account",
          "type": "address"
        },
        {
          "indexed": true,
          "internalType": "address",
          "name": "sender",
          "type": "address"
        }
      ],
      "name": "RoleRevoked",
      "type": "event"
    },
    {
      "anonymous": false,
      "inputs": [
        {
          "indexed": false,
          "internalType": "string",
          "name": "applyerTg",
          "type": "string"
        },
        {
          "indexed": false,
          "internalType": "address",
          "name": "wallet_address",
          "type": "address"
        },
        {
          "indexed": true,
          "internalType": "address",
          "name": "parent_address",
          "type": "address"
        }
      ],
      "name": "joinRequested",
      "type": "event"
    },
    {
      "anonymous": false,
      "inputs": [
        {
          "indexed": false,
          "internalType": "string",
          "name": "applyerTg",
          "type": "string"
        },
        {
          "indexed": false,
          "internalType": "address",
          "name": "wallet_address",
          "type": "address"
        },
        {
          "indexed": true,
          "internalType": "address",
          "name": "parent_address",
          "type": "address"
        }
      ],
      "name": "joinRequestedIndexedTG",
      "type": "event"
    },
    {
      "anonymous": false,
      "inputs": [
        {
          "indexed": false,
          "internalType": "address",
          "name": "high_node",
          "type": "address"
        },
        {
          "indexed": true,
          "internalType": "address",
          "name": "low_node",
          "type": "address"
        },
        {
          "indexed": false,
          "internalType": "bool",
          "name": "pravda",
          "type": "bool"
        }
      ],
      "name": "relationChanged",
      "type": "event"
    },
    {
      "anonymous": false,
      "inputs": [
        {
          "indexed": true,
          "internalType": "string",
          "name": "applyerTg",
          "type": "string"
        },
        {
          "indexed": false,
          "internalType": "address",
          "name": "user_address",
          "type": "address"
        },
        {
          "indexed": false,
          "internalType": "address",
          "name": "parent_address",
          "type": "address"
        }
      ],
      "name": "requestAccepted",
      "type": "event"
    },
    {
      "anonymous": false,
      "inputs": [
        {
          "indexed": false,
          "internalType": "string",
          "name": "applyerTg",
          "type": "string"
        },
        {
          "indexed": false,
          "internalType": "address",
          "name": "wallet",
          "type": "address"
        }
      ],
      "name": "requestDenied",
      "type": "event"
    },
    {
      "inputs": [
        {
          "internalType": "string",
          "name": "applyerTg",
          "type": "string"
        },
        {
          "internalType": "string",
          "name": "parent_name",
          "type": "string"
        }
      ],
      "name": "AcceptJoin",
      "outputs": [],
      "stateMutability": "nonpayable",
      "type": "function"
    },
    {
      "inputs": [
        {
          "internalType": "string",
          "name": "parent_name",
          "type": "string"
        },
        {
          "internalType": "string",
          "name": "child_name",
          "type": "string"
        }
      ],
      "name": "ClearParent",
      "outputs": [],
      "stateMutability": "nonpayable",
      "type": "function"
    },
    {
      "inputs": [],
      "name": "DEFAULT_ADMIN_ROLE",
      "outputs": [
        {
          "internalType": "bytes32",
          "name": "",
          "type": "bytes32"
        }
      ],
      "stateMutability": "view",
      "type": "function"
    },
    {
      "inputs": [
        {
          "internalType": "string",
          "name": "tgid",
          "type": "string"
        }
      ],
      "name": "DeclineRequest",
      "outputs": [],
      "stateMutability": "nonpayable",
      "type": "function"
    },
    {
      "inputs": [
        {
          "internalType": "bytes32",
          "name": "hash_id",
          "type": "bytes32"
        }
      ],
      "name": "GetIdByHash",
      "outputs": [
        {
          "internalType": "string",
          "name": "",
          "type": "string"
        }
      ],
      "stateMutability": "view",
      "type": "function"
    },
    {
      "inputs": [
        {
          "internalType": "string",
          "name": "text",
          "type": "string"
        }
      ],
      "name": "GetKeccakHash",
      "outputs": [
        {
          "internalType": "bytes32",
          "name": "",
          "type": "bytes32"
        }
      ],
      "stateMutability": "pure",
      "type": "function"
    },
    {
      "inputs": [],
      "name": "GetOwner",
      "outputs": [
        {
          "internalType": "address",
          "name": "",
          "type": "address"
        }
      ],
      "stateMutability": "view",
      "type": "function"
    },
    {
      "inputs": [],
      "name": "GetPassportFee",
      "outputs": [
        {
          "internalType": "uint256",
          "name": "",
          "type": "uint256"
        }
      ],
      "stateMutability": "view",
      "type": "function"
    },
    {
      "inputs": [
        {
          "internalType": "address",
          "name": "user_address",
          "type": "address"
        }
      ],
      "name": "GetPublicKeyByAddress",
      "outputs": [
        {
          "internalType": "string",
          "name": "",
          "type": "string"
        }
      ],
      "stateMutability": "view",
      "type": "function"
    },
    {
      "inputs": [
        {
          "internalType": "address",
          "name": "user_wallet",
          "type": "address"
        }
      ],
      "name": "GetTgIdByAddress",
      "outputs": [
        {
          "internalType": "string",
          "name": "tgid",
          "type": "string"
        }
      ],
      "stateMutability": "view",
      "type": "function"
    },
    {
      "inputs": [
        {
          "internalType": "address",
          "name": "user_wallet",
          "type": "address"
        }
      ],
      "name": "GetUserByAddress",
      "outputs": [
        {
          "components": [
            {
              "internalType": "address",
              "name": "userAddress",
              "type": "address"
            },
            {
              "internalType": "string",
              "name": "tgId",
              "type": "string"
            },
            {
              "internalType": "bool",
              "name": "valid",
              "type": "bool"
            },
            {
              "internalType": "address",
              "name": "validatorAddress",
              "type": "address"
            },
            {
              "internalType": "string",
              "name": "codeName",
              "type": "string"
            },
            {
              "internalType": "string",
              "name": "public_key",
              "type": "string"
            },
            {
              "internalType": "bytes32",
              "name": "id_hash",
              "type": "bytes32"
            }
          ],
          "internalType": "struct Leg10n.User",
          "name": "",
          "type": "tuple"
        }
      ],
      "stateMutability": "view",
      "type": "function"
    },
    {
      "inputs": [
        {
          "internalType": "string",
          "name": "user_name_",
          "type": "string"
        }
      ],
      "name": "GetUserByNickName",
      "outputs": [
        {
          "components": [
            {
              "internalType": "address",
              "name": "userAddress",
              "type": "address"
            },
            {
              "internalType": "string",
              "name": "tgId",
              "type": "string"
            },
            {
              "internalType": "bool",
              "name": "valid",
              "type": "bool"
            },
            {
              "internalType": "address",
              "name": "validatorAddress",
              "type": "address"
            },
            {
              "internalType": "string",
              "name": "codeName",
              "type": "string"
            },
            {
              "internalType": "string",
              "name": "public_key",
              "type": "string"
            },
            {
              "internalType": "bytes32",
              "name": "id_hash",
              "type": "bytes32"
            }
          ],
          "internalType": "struct Leg10n.User",
          "name": "",
          "type": "tuple"
        }
      ],
      "stateMutability": "view",
      "type": "function"
    },
    {
      "inputs": [
        {
          "internalType": "string",
          "name": "tgId_",
          "type": "string"
        }
      ],
      "name": "GetUserByTgId",
      "outputs": [
        {
          "components": [
            {
              "internalType": "address",
              "name": "userAddress",
              "type": "address"
            },
            {
              "internalType": "string",
              "name": "tgId",
              "type": "string"
            },
            {
              "internalType": "bool",
              "name": "valid",
              "type": "bool"
            },
            {
              "internalType": "address",
              "name": "validatorAddress",
              "type": "address"
            },
            {
              "internalType": "string",
              "name": "codeName",
              "type": "string"
            },
            {
              "internalType": "string",
              "name": "public_key",
              "type": "string"
            },
            {
              "internalType": "bytes32",
              "name": "id_hash",
              "type": "bytes32"
            }
          ],
          "internalType": "struct Leg10n.User",
          "name": "",
          "type": "tuple"
        }
      ],
      "stateMutability": "view",
      "type": "function"
    },
    {
      "inputs": [
        {
          "internalType": "string",
          "name": "tgId_",
          "type": "string"
        }
      ],
      "name": "GetUserWalletByID",
      "outputs": [
        {
          "internalType": "address",
          "name": "",
          "type": "address"
        }
      ],
      "stateMutability": "view",
      "type": "function"
    },
    {
      "inputs": [
        {
          "internalType": "string",
          "name": "user_name_",
          "type": "string"
        }
      ],
      "name": "GetWalletByNickName",
      "outputs": [
        {
          "internalType": "address",
          "name": "",
          "type": "address"
        }
      ],
      "stateMutability": "view",
      "type": "function"
    },
    {
      "inputs": [
        {
          "internalType": "string",
          "name": "applyerTg",
          "type": "string"
        },
        {
          "internalType": "string",
          "name": "code_name_",
          "type": "string"
        },
        {
          "internalType": "string",
          "name": "parent_name",
          "type": "string"
        },
        {
          "internalType": "string",
          "name": "public_key",
          "type": "string"
        },
        {
          "internalType": "string",
          "name": "plain_id",
          "type": "string"
        }
      ],
      "name": "RequestJoin",
      "outputs": [],
      "stateMutability": "payable",
      "type": "function"
    },
    {
      "inputs": [
        {
          "internalType": "uint256",
          "name": "passportFee_",
          "type": "uint256"
        }
      ],
      "name": "SetPassportFee",
      "outputs": [],
      "stateMutability": "nonpayable",
      "type": "function"
    },
    {
      "inputs": [
        {
          "internalType": "address",
          "name": "",
          "type": "address"
        },
        {
          "internalType": "address",
          "name": "",
          "type": "address"
        }
      ],
      "name": "chain",
      "outputs": [
        {
          "internalType": "bool",
          "name": "",
          "type": "bool"
        }
      ],
      "stateMutability": "view",
      "type": "function"
    },
    {
      "inputs": [
        {
          "internalType": "string",
          "name": "",
          "type": "string"
        }
      ],
      "name": "codename_wallets",
      "outputs": [
        {
          "internalType": "address",
          "name": "",
          "type": "address"
        }
      ],
      "stateMutability": "view",
      "type": "function"
    },
    {
      "inputs": [
        {
          "internalType": "string",
          "name": "parent_name",
          "type": "string"
        },
        {
          "internalType": "string",
          "name": "child_name",
          "type": "string"
        }
      ],
      "name": "deleteYourSelf",
      "outputs": [],
      "stateMutability": "nonpayable",
      "type": "function"
    },
    {
      "inputs": [
        {
          "internalType": "address",
          "name": "user_address",
          "type": "address"
        }
      ],
      "name": "devDeleteUser",
      "outputs": [],
      "stateMutability": "nonpayable",
      "type": "function"
    },
    {
      "inputs": [],
      "name": "getModeratorIdentifier",
      "outputs": [
        {
          "internalType": "bytes32",
          "name": "",
          "type": "bytes32"
        }
      ],
      "stateMutability": "pure",
      "type": "function"
    },
    {
      "inputs": [
        {
          "internalType": "bytes32",
          "name": "role",
          "type": "bytes32"
        }
      ],
      "name": "getRoleAdmin",
      "outputs": [
        {
          "internalType": "bytes32",
          "name": "",
          "type": "bytes32"
        }
      ],
      "stateMutability": "view",
      "type": "function"
    },
    {
      "inputs": [
        {
          "internalType": "bytes32",
          "name": "role",
          "type": "bytes32"
        },
        {
          "internalType": "address",
          "name": "account",
          "type": "address"
        }
      ],
      "name": "grantRole",
      "outputs": [],
      "stateMutability": "nonpayable",
      "type": "function"
    },
    {
      "inputs": [
        {
          "internalType": "bytes32",
          "name": "role",
          "type": "bytes32"
        },
        {
          "internalType": "address",
          "name": "account",
          "type": "address"
        }
      ],
      "name": "hasRole",
      "outputs": [
        {
          "internalType": "bool",
          "name": "",
          "type": "bool"
        }
      ],
      "stateMutability": "view",
      "type": "function"
    },
    {
      "inputs": [
        {
          "internalType": "bytes32",
          "name": "",
          "type": "bytes32"
        }
      ],
      "name": "hashToId",
      "outputs": [
        {
          "internalType": "string",
          "name": "",
          "type": "string"
        }
      ],
      "stateMutability": "view",
      "type": "function"
    },
    {
      "inputs": [],
      "name": "moderator",
      "outputs": [
        {
          "internalType": "bytes32",
          "name": "",
          "type": "bytes32"
        }
      ],
      "stateMutability": "view",
      "type": "function"
    },
    {
      "inputs": [],
      "name": "owner",
      "outputs": [
        {
          "internalType": "address",
          "name": "",
          "type": "address"
        }
      ],
      "stateMutability": "view",
      "type": "function"
    },
    {
      "inputs": [],
      "name": "renounceOwnership",
      "outputs": [],
      "stateMutability": "nonpayable",
      "type": "function"
    },
    {
      "inputs": [
        {
          "internalType": "bytes32",
          "name": "role",
          "type": "bytes32"
        },
        {
          "internalType": "address",
          "name": "account",
          "type": "address"
        }
      ],
      "name": "renounceRole",
      "outputs": [],
      "stateMutability": "nonpayable",
      "type": "function"
    },
    {
      "inputs": [
        {
          "internalType": "bytes32",
          "name": "role",
          "type": "bytes32"
        },
        {
          "internalType": "address",
          "name": "account",
          "type": "address"
        }
      ],
      "name": "revokeRole",
      "outputs": [],
      "stateMutability": "nonpayable",
      "type": "function"
    },
    {
      "inputs": [
        {
          "internalType": "bytes4",
          "name": "interfaceId",
          "type": "bytes4"
        }
      ],
      "name": "supportsInterface",
      "outputs": [
        {
          "internalType": "bool",
          "name": "",
          "type": "bool"
        }
      ],
      "stateMutability": "view",
      "type": "function"
    },
    {
      "inputs": [
        {
          "internalType": "string",
          "name": "",
          "type": "string"
        }
      ],
      "name": "tgIdToAddress",
      "outputs": [
        {
          "internalType": "address",
          "name": "",
          "type": "address"
        }
      ],
      "stateMutability": "view",
      "type": "function"
    },
    {
      "inputs": [
        {
          "internalType": "address",
          "name": "newOwner",
          "type": "address"
        }
      ],
      "name": "transferOwnership",
      "outputs": [],
      "stateMutability": "nonpayable",
      "type": "function"
    }
  ],
  "bytecode": "0x60806040523480156200001157600080fd5b506040516200621638038062006216833981810160405281019062000037919062000e21565b620000576200004b6200048960201b60201c565b6200049160201b60201c565b66071afd498d0000600281905550620000756200055560201b60201c565b600360006101000a81548173ffffffffffffffffffffffffffffffffffffffff021916908373ffffffffffffffffffffffffffffffffffffffff160217905550620000ca6000801b336200057e60201b60201c565b620000fc7fcea62fe6ecc79e221c545bf918f804693c542ead2549e37c2bb9baa66ee2e157336200057e60201b60201c565b84600960006101000a81548173ffffffffffffffffffffffffffffffffffffffff021916908373ffffffffffffffffffffffffffffffffffffffff160217905550600062000150826200066f60201b60201c565b90503360048560405162000165919062000f53565b908152602001604051809103902060006101000a81548173ffffffffffffffffffffffffffffffffffffffff021916908373ffffffffffffffffffffffffffffffffffffffff160217905550336007604051620001c29062000fbc565b908152602001604051809103902060006101000a81548173ffffffffffffffffffffffffffffffffffffffff021916908373ffffffffffffffffffffffffffffffffffffffff1602179055506040518060e001604052803373ffffffffffffffffffffffffffffffffffffffff1681526020018581526020016001151581526020013373ffffffffffffffffffffffffffffffffffffffff1681526020016040518060400160405280600181526020017f300000000000000000000000000000000000000000000000000000000000000081525081526020016040518060600160405280602c8152602001620061ea602c9139815260200182815250600660003373ffffffffffffffffffffffffffffffffffffffff1673ffffffffffffffffffffffffffffffffffffffff16815260200190815260200160002060008201518160000160006101000a81548173ffffffffffffffffffffffffffffffffffffffff021916908373ffffffffffffffffffffffffffffffffffffffff16021790555060208201518160010190816200035b919062001213565b5060408201518160020160006101000a81548160ff02191690831515021790555060608201518160020160016101000a81548173ffffffffffffffffffffffffffffffffffffffff021916908373ffffffffffffffffffffffffffffffffffffffff1602179055506080820151816003019081620003da919062001213565b5060a0820151816004019081620003f2919062001213565b5060c08201518160050155905050600073ffffffffffffffffffffffffffffffffffffffff168573ffffffffffffffffffffffffffffffffffffffff160362000468576200046233856040518060600160405280602c8152602001620061ea602c913985620006a160201b60201c565b6200047d565b6200047c85858585620006a160201b60201c565b5b505050505050620013d7565b600033905090565b60008060009054906101000a900473ffffffffffffffffffffffffffffffffffffffff169050816000806101000a81548173ffffffffffffffffffffffffffffffffffffffff021916908373ffffffffffffffffffffffffffffffffffffffff1602179055508173ffffffffffffffffffffffffffffffffffffffff168173ffffffffffffffffffffffffffffffffffffffff167f8be0079c531659141344cd1fd0a4f28419497f9722a3daafe3b4186f6b6457e060405160405180910390a35050565b60008060009054906101000a900473ffffffffffffffffffffffffffffffffffffffff16905090565b62000590828262000b7460201b60201c565b6200066b57600180600084815260200190815260200160002060000160008373ffffffffffffffffffffffffffffffffffffffff1673ffffffffffffffffffffffffffffffffffffffff16815260200190815260200160002060006101000a81548160ff021916908315150217905550620006106200048960201b60201c565b73ffffffffffffffffffffffffffffffffffffffff168173ffffffffffffffffffffffffffffffffffffffff16837f2f8788117e7eff1d82e926ec794901d17c78024a50270940304540a733656f0d60405160405180910390a45b5050565b6000816040516020016200068491906200134c565b604051602081830303815290604052805190602001209050919050565b83600484604051620006b4919062000f53565b908152602001604051809103902060006101000a81548173ffffffffffffffffffffffffffffffffffffffff021916908373ffffffffffffffffffffffffffffffffffffffff1602179055508360076040516200071190620013c0565b908152602001604051809103902060006101000a81548173ffffffffffffffffffffffffffffffffffffffff021916908373ffffffffffffffffffffffffffffffffffffffff160217905550600062000770826200066f60201b60201c565b90506040518060e001604052808673ffffffffffffffffffffffffffffffffffffffff1681526020018581526020016001151581526020018673ffffffffffffffffffffffffffffffffffffffff1681526020016040518060400160405280600481526020017f4164616d00000000000000000000000000000000000000000000000000000000815250815260200184815260200182815250600660008773ffffffffffffffffffffffffffffffffffffffff1673ffffffffffffffffffffffffffffffffffffffff16815260200190815260200160002060008201518160000160006101000a81548173ffffffffffffffffffffffffffffffffffffffff021916908373ffffffffffffffffffffffffffffffffffffffff1602179055506020820151816001019081620008a6919062001213565b5060408201518160020160006101000a81548160ff02191690831515021790555060608201518160020160016101000a81548173ffffffffffffffffffffffffffffffffffffffff021916908373ffffffffffffffffffffffffffffffffffffffff160217905550608082015181600301908162000925919062001213565b5060a08201518160040190816200093d919062001213565b5060c082015181600501559050506001600660008773ffffffffffffffffffffffffffffffffffffffff1673ffffffffffffffffffffffffffffffffffffffff16815260200190815260200160002060020160006101000a81548160ff02191690831515021790555033600660008773ffffffffffffffffffffffffffffffffffffffff1673ffffffffffffffffffffffffffffffffffffffff16815260200190815260200160002060020160016101000a81548173ffffffffffffffffffffffffffffffffffffffff021916908373ffffffffffffffffffffffffffffffffffffffff160217905550600062000a6f6040518060400160405280600181526020017f300000000000000000000000000000000000000000000000000000000000000081525062000bdf60201b60201c565b90506001600860008373ffffffffffffffffffffffffffffffffffffffff1673ffffffffffffffffffffffffffffffffffffffff16815260200190815260200160002060008873ffffffffffffffffffffffffffffffffffffffff1673ffffffffffffffffffffffffffffffffffffffff16815260200190815260200160002060006101000a81548160ff0219169083151502179055508460056000848152602001908152602001600020908162000b28919062001213565b508573ffffffffffffffffffffffffffffffffffffffff167f908408e307fc569b417f6cbec5d5a06f44a0a505ac0479b47d421a4b2fd6a1e660405160405180910390a2505050505050565b60006001600084815260200190815260200160002060000160008373ffffffffffffffffffffffffffffffffffffffff1673ffffffffffffffffffffffffffffffffffffffff16815260200190815260200160002060009054906101000a900460ff16905092915050565b600060078260405162000bf3919062000f53565b908152602001604051809103902060009054906101000a900473ffffffffffffffffffffffffffffffffffffffff169050919050565b6000604051905090565b600080fd5b600080fd5b600073ffffffffffffffffffffffffffffffffffffffff82169050919050565b600062000c6a8262000c3d565b9050919050565b62000c7c8162000c5d565b811462000c8857600080fd5b50565b60008151905062000c9c8162000c71565b92915050565b600080fd5b600080fd5b6000601f19601f8301169050919050565b7f4e487b7100000000000000000000000000000000000000000000000000000000600052604160045260246000fd5b62000cf78262000cac565b810181811067ffffffffffffffff8211171562000d195762000d1862000cbd565b5b80604052505050565b600062000d2e62000c29565b905062000d3c828262000cec565b919050565b600067ffffffffffffffff82111562000d5f5762000d5e62000cbd565b5b62000d6a8262000cac565b9050602081019050919050565b60005b8381101562000d9757808201518184015260208101905062000d7a565b60008484015250505050565b600062000dba62000db48462000d41565b62000d22565b90508281526020810184848401111562000dd95762000dd862000ca7565b5b62000de684828562000d77565b509392505050565b600082601f83011262000e065762000e0562000ca2565b5b815162000e1884826020860162000da3565b91505092915050565b600080600080600060a0868803121562000e405762000e3f62000c33565b5b600062000e508882890162000c8b565b955050602062000e638882890162000c8b565b945050604086015167ffffffffffffffff81111562000e875762000e8662000c38565b5b62000e958882890162000dee565b935050606086015167ffffffffffffffff81111562000eb95762000eb862000c38565b5b62000ec78882890162000dee565b925050608086015167ffffffffffffffff81111562000eeb5762000eea62000c38565b5b62000ef98882890162000dee565b9150509295509295909350565b600081519050919050565b600081905092915050565b600062000f298262000f06565b62000f35818562000f11565b935062000f4781856020860162000d77565b80840191505092915050565b600062000f61828462000f1c565b915081905092915050565b7f3000000000000000000000000000000000000000000000000000000000000000600082015250565b600062000fa460018362000f11565b915062000fb18262000f6c565b600182019050919050565b600062000fc98262000f95565b9150819050919050565b7f4e487b7100000000000000000000000000000000000000000000000000000000600052602260045260246000fd5b600060028204905060018216806200101b57607f821691505b60208210810362001031576200103062000fd3565b5b50919050565b60008190508160005260206000209050919050565b60006020601f8301049050919050565b600082821b905092915050565b6000600883026200109b7fffffffffffffffffffffffffffffffffffffffffffffffffffffffffffffffff826200105c565b620010a786836200105c565b95508019841693508086168417925050509392505050565b6000819050919050565b6000819050919050565b6000620010f4620010ee620010e884620010bf565b620010c9565b620010bf565b9050919050565b6000819050919050565b6200111083620010d3565b620011286200111f82620010fb565b84845462001069565b825550505050565b600090565b6200113f62001130565b6200114c81848462001105565b505050565b5b8181101562001174576200116860008262001135565b60018101905062001152565b5050565b601f821115620011c3576200118d8162001037565b62001198846200104c565b81016020851015620011a8578190505b620011c0620011b7856200104c565b83018262001151565b50505b505050565b600082821c905092915050565b6000620011e860001984600802620011c8565b1980831691505092915050565b6000620012038383620011d5565b9150826002028217905092915050565b6200121e8262000f06565b67ffffffffffffffff8111156200123a576200123962000cbd565b5b62001246825462001002565b6200125382828562001178565b600060209050601f8311600181146200128b576000841562001276578287015190505b620012828582620011f5565b865550620012f2565b601f1984166200129b8662001037565b60005b82811015620012c5578489015182556001820191506020850194506020810190506200129e565b86831015620012e55784890151620012e1601f891682620011d5565b8355505b6001600288020188555050505b505050505050565b600082825260208201905092915050565b6000620013188262000f06565b620013248185620012fa565b93506200133681856020860162000d77565b620013418162000cac565b840191505092915050565b600060208201905081810360008301526200136881846200130b565b905092915050565b7f4164616d00000000000000000000000000000000000000000000000000000000600082015250565b6000620013a860048362000f11565b9150620013b58262001370565b600482019050919050565b6000620013cd8262001399565b9150819050919050565b614e0380620013e76000396000f3fe6080604052600436106101f95760003560e01c80635d1ce88f1161010d57806391d14854116100a0578063b932fbfa1161006f578063b932fbfa146107a8578063d2114e18146107e5578063d2125bd214610822578063d547741f1461084b578063f2fde38b14610874576101f9565b806391d14854146106da5780639b45179f146107175780639e026a3b14610740578063a217fddf1461077d576101f9565b8063841a65e1116100dc578063841a65e11461061957806386e81ba514610656578063873f30c7146106935780638da5cb5b146106af576101f9565b80635d1ce88f1461055d57806361cabe37146105885780636e312028146105c5578063715018a614610602576101f9565b80632067eac8116101905780632f62fc831161015f5780632f62fc831461047857806336568abe146104a157806338743904146104ca578063460e6c9c146104f557806348dc156114610532576101f9565b80632067eac8146103c0578063248a9ca3146103e9578063286b2e54146104265780632f2ff15d1461044f576101f9565b80630d48cae8116101cc5780630d48cae8146102cc57806315905bdd146103095780631892fd78146103465780631a519ce814610383576101f9565b8063018d3dc9146101fe57806301ffc9a714610227578063095f0773146102645780630ae50a39146102a1575b600080fd5b34801561020a57600080fd5b50610225600480360381019061022091906138fe565b61089d565b005b34801561023357600080fd5b5061024e600480360381019061024991906139ce565b610a1b565b60405161025b9190613a16565b60405180910390f35b34801561027057600080fd5b5061028b60048036038101906102869190613a67565b610a95565b6040516102989190613b13565b60405180910390f35b3480156102ad57600080fd5b506102b6610b35565b6040516102c39190613b76565b60405180910390f35b3480156102d857600080fd5b506102f360048036038101906102ee9190613b91565b610b5f565b6040516103009190613cfb565b60405180910390f35b34801561031557600080fd5b50610330600480360381019061032b9190613b91565b610e53565b60405161033d9190613b76565b60405180910390f35b34801561035257600080fd5b5061036d60048036038101906103689190613d49565b610e9b565b60405161037a9190613cfb565b60405180910390f35b34801561038f57600080fd5b506103aa60048036038101906103a59190613b91565b611181565b6040516103b79190613cfb565b60405180910390f35b3480156103cc57600080fd5b506103e760048036038101906103e29190613d49565b611475565b005b3480156103f557600080fd5b50610410600480360381019061040b9190613a67565b611823565b60405161041d9190613d85565b60405180910390f35b34801561043257600080fd5b5061044d60048036038101906104489190613b91565b611843565b005b34801561045b57600080fd5b5061047660048036038101906104719190613da0565b611cb3565b005b34801561048457600080fd5b5061049f600480360381019061049a91906138fe565b611cd4565b005b3480156104ad57600080fd5b506104c860048036038101906104c39190613da0565b611d87565b005b3480156104d657600080fd5b506104df611e0a565b6040516104ec9190613d85565b60405180910390f35b34801561050157600080fd5b5061051c60048036038101906105179190613de0565b611e2e565b6040516105299190613a16565b60405180910390f35b34801561053e57600080fd5b50610547611e5d565b6040516105549190613e39565b60405180910390f35b34801561056957600080fd5b50610572611e67565b60405161057f9190613d85565b60405180910390f35b34801561059457600080fd5b506105af60048036038101906105aa9190613d49565b611e8f565b6040516105bc9190613b13565b60405180910390f35b3480156105d157600080fd5b506105ec60048036038101906105e79190613b91565b611eab565b6040516105f99190613b76565b60405180910390f35b34801561060e57600080fd5b50610617611ef4565b005b34801561062557600080fd5b50610640600480360381019061063b9190613a67565b611f08565b60405161064d9190613b13565b60405180910390f35b34801561066257600080fd5b5061067d60048036038101906106789190613b91565b611fad565b60405161068a9190613b76565b60405180910390f35b6106ad60048036038101906106a89190613e54565b611ff6565b005b3480156106bb57600080fd5b506106c461244a565b6040516106d19190613b76565b60405180910390f35b3480156106e657600080fd5b5061070160048036038101906106fc9190613da0565b612473565b60405161070e9190613a16565b60405180910390f35b34801561072357600080fd5b5061073e600480360381019061073991906138fe565b6124de565b005b34801561074c57600080fd5b5061076760048036038101906107629190613b91565b61283a565b6040516107749190613d85565b60405180910390f35b34801561078957600080fd5b5061079261286a565b60405161079f9190613d85565b60405180910390f35b3480156107b457600080fd5b506107cf60048036038101906107ca9190613d49565b612871565b6040516107dc9190613b13565b60405180910390f35b3480156107f157600080fd5b5061080c60048036038101906108079190613b91565b612893565b6040516108199190613b76565b60405180910390f35b34801561082e57600080fd5b5061084960048036038101906108449190613f87565b6128db565b005b34801561085757600080fd5b50610872600480360381019061086d9190613da0565b6128ed565b005b34801561088057600080fd5b5061089b60048036038101906108969190613d49565b61290e565b005b60006108a882612893565b905060006108b584612893565b90503373ffffffffffffffffffffffffffffffffffffffff168273ffffffffffffffffffffffffffffffffffffffff1614610925576040517f08c379a000000000000000000000000000000000000000000000000000000000815260040161091c90614026565b60405180910390fd5b6000600660008473ffffffffffffffffffffffffffffffffffffffff1673ffffffffffffffffffffffffffffffffffffffff16815260200190815260200160002060020160006101000a81548160ff0219169083151502179055506000600860008373ffffffffffffffffffffffffffffffffffffffff1673ffffffffffffffffffffffffffffffffffffffff16815260200190815260200160002060003373ffffffffffffffffffffffffffffffffffffffff1673ffffffffffffffffffffffffffffffffffffffff16815260200190815260200160002060006101000a81548160ff02191690831515021790555050505050565b60007f7965db0b000000000000000000000000000000000000000000000000000000007bffffffffffffffffffffffffffffffffffffffffffffffffffffffff1916827bffffffffffffffffffffffffffffffffffffffffffffffffffffffff19161480610a8e5750610a8d82612991565b5b9050919050565b60056020528060005260406000206000915090508054610ab490614075565b80601f0160208091040260200160405190810160405280929190818152602001828054610ae090614075565b8015610b2d5780601f10610b0257610100808354040283529160200191610b2d565b820191906000526020600020905b815481529060010190602001808311610b1057829003601f168201915b505050505081565b6000600360009054906101000a900473ffffffffffffffffffffffffffffffffffffffff16905090565b610b676136d9565b6000610b7283612893565b90506000600660008373ffffffffffffffffffffffffffffffffffffffff1673ffffffffffffffffffffffffffffffffffffffff1681526020019081526020016000206040518060e00160405290816000820160009054906101000a900473ffffffffffffffffffffffffffffffffffffffff1673ffffffffffffffffffffffffffffffffffffffff1673ffffffffffffffffffffffffffffffffffffffff168152602001600182018054610c2690614075565b80601f0160208091040260200160405190810160405280929190818152602001828054610c5290614075565b8015610c9f5780601f10610c7457610100808354040283529160200191610c9f565b820191906000526020600020905b815481529060010190602001808311610c8257829003601f168201915b505050505081526020016002820160009054906101000a900460ff161515151581526020016002820160019054906101000a900473ffffffffffffffffffffffffffffffffffffffff1673ffffffffffffffffffffffffffffffffffffffff1673ffffffffffffffffffffffffffffffffffffffff168152602001600382018054610d2990614075565b80601f0160208091040260200160405190810160405280929190818152602001828054610d5590614075565b8015610da25780601f10610d7757610100808354040283529160200191610da2565b820191906000526020600020905b815481529060010190602001808311610d8557829003601f168201915b50505050508152602001600482018054610dbb90614075565b80601f0160208091040260200160405190810160405280929190818152602001828054610de790614075565b8015610e345780601f10610e0957610100808354040283529160200191610e34565b820191906000526020600020905b815481529060010190602001808311610e1757829003601f168201915b5050505050815260200160058201548152505090508092505050919050565b6000600482604051610e6591906140e2565b908152602001604051809103902060009054906101000a900473ffffffffffffffffffffffffffffffffffffffff169050919050565b610ea36136d9565b6000600660008473ffffffffffffffffffffffffffffffffffffffff1673ffffffffffffffffffffffffffffffffffffffff1681526020019081526020016000206040518060e00160405290816000820160009054906101000a900473ffffffffffffffffffffffffffffffffffffffff1673ffffffffffffffffffffffffffffffffffffffff1673ffffffffffffffffffffffffffffffffffffffff168152602001600182018054610f5590614075565b80601f0160208091040260200160405190810160405280929190818152602001828054610f8190614075565b8015610fce5780601f10610fa357610100808354040283529160200191610fce565b820191906000526020600020905b815481529060010190602001808311610fb157829003601f168201915b505050505081526020016002820160009054906101000a900460ff161515151581526020016002820160019054906101000a900473ffffffffffffffffffffffffffffffffffffffff1673ffffffffffffffffffffffffffffffffffffffff1673ffffffffffffffffffffffffffffffffffffffff16815260200160038201805461105890614075565b80601f016020809104026020016040519081016040528092919081815260200182805461108490614075565b80156110d15780601f106110a6576101008083540402835291602001916110d1565b820191906000526020600020905b8154815290600101906020018083116110b457829003601f168201915b505050505081526020016004820180546110ea90614075565b80601f016020809104026020016040519081016040528092919081815260200182805461111690614075565b80156111635780601f1061113857610100808354040283529160200191611163565b820191906000526020600020905b81548152906001019060200180831161114657829003601f168201915b50505050508152602001600582015481525050905080915050919050565b6111896136d9565b600061119483610e53565b90506000600660008373ffffffffffffffffffffffffffffffffffffffff1673ffffffffffffffffffffffffffffffffffffffff1681526020019081526020016000206040518060e00160405290816000820160009054906101000a900473ffffffffffffffffffffffffffffffffffffffff1673ffffffffffffffffffffffffffffffffffffffff1673ffffffffffffffffffffffffffffffffffffffff16815260200160018201805461124890614075565b80601f016020809104026020016040519081016040528092919081815260200182805461127490614075565b80156112c15780601f10611296576101008083540402835291602001916112c1565b820191906000526020600020905b8154815290600101906020018083116112a457829003601f168201915b505050505081526020016002820160009054906101000a900460ff161515151581526020016002820160019054906101000a900473ffffffffffffffffffffffffffffffffffffffff1673ffffffffffffffffffffffffffffffffffffffff1673ffffffffffffffffffffffffffffffffffffffff16815260200160038201805461134b90614075565b80601f016020809104026020016040519081016040528092919081815260200182805461137790614075565b80156113c45780601f10611399576101008083540402835291602001916113c4565b820191906000526020600020905b8154815290600101906020018083116113a757829003601f168201915b505050505081526020016004820180546113dd90614075565b80601f016020809104026020016040519081016040528092919081815260200182805461140990614075565b80156114565780601f1061142b57610100808354040283529160200191611456565b820191906000526020600020905b81548152906001019060200180831161143957829003601f168201915b5050505050815260200160058201548152505090508092505050919050565b7fcea62fe6ecc79e221c545bf918f804693c542ead2549e37c2bb9baa66ee2e15761149f816129fb565b6000600660008473ffffffffffffffffffffffffffffffffffffffff1673ffffffffffffffffffffffffffffffffffffffff16815260200190815260200160002060010180546114ee90614075565b80601f016020809104026020016040519081016040528092919081815260200182805461151a90614075565b80156115675780601f1061153c57610100808354040283529160200191611567565b820191906000526020600020905b81548152906001019060200180831161154a57829003601f168201915b505050505090506000600660008573ffffffffffffffffffffffffffffffffffffffff1673ffffffffffffffffffffffffffffffffffffffff16815260200190815260200160002060030180546115bd90614075565b80601f01602080910402602001604051908101604052809291908181526020018280546115e990614075565b80156116365780601f1061160b57610100808354040283529160200191611636565b820191906000526020600020905b81548152906001019060200180831161161957829003601f168201915b50505050509050600046905060058114611685576040517f08c379a000000000000000000000000000000000000000000000000000000000815260040161167c90614145565b60405180910390fd5b600660008673ffffffffffffffffffffffffffffffffffffffff1673ffffffffffffffffffffffffffffffffffffffff168152602001908152602001600020600080820160006101000a81549073ffffffffffffffffffffffffffffffffffffffff02191690556001820160006116fc9190613747565b6002820160006101000a81549060ff02191690556002820160016101000a81549073ffffffffffffffffffffffffffffffffffffffff02191690556003820160006117479190613747565b6004820160006117579190613747565b6005820160009055505060048360405161177191906140e2565b908152602001604051809103902060006101000a81549073ffffffffffffffffffffffffffffffffffffffff02191690556007826040516117b291906140e2565b908152602001604051809103902060006101000a81549073ffffffffffffffffffffffffffffffffffffffff02191690557fe444442b4fc5a03103c68bde16932de23949be11145d1b4707d817bfb50557388386604051611814929190614165565b60405180910390a15050505050565b600060016000838152602001908152602001600020600101549050919050565b600061184e82610e53565b90506000600660008373ffffffffffffffffffffffffffffffffffffffff1673ffffffffffffffffffffffffffffffffffffffff168152602001908152602001600020600301805461189f90614075565b80601f01602080910402602001604051908101604052809291908181526020018280546118cb90614075565b80156119185780601f106118ed57610100808354040283529160200191611918565b820191906000526020600020905b8154815290600101906020018083116118fb57829003601f168201915b5050505050905060001515600660008473ffffffffffffffffffffffffffffffffffffffff1673ffffffffffffffffffffffffffffffffffffffff16815260200190815260200160002060020160009054906101000a900460ff161515146119b5576040517f08c379a00000000000000000000000000000000000000000000000000000000081526004016119ac90614207565b60405180910390fd5b6000600860003373ffffffffffffffffffffffffffffffffffffffff1673ffffffffffffffffffffffffffffffffffffffff16815260200190815260200160002060008473ffffffffffffffffffffffffffffffffffffffff1673ffffffffffffffffffffffffffffffffffffffff16815260200190815260200160002060009054906101000a900460ff1690506000151581151514611a8a576040517f08c379a0000000000000000000000000000000000000000000000000000000008152600401611a8190614273565b60405180910390fd5b600660008473ffffffffffffffffffffffffffffffffffffffff1673ffffffffffffffffffffffffffffffffffffffff168152602001908152602001600020600080820160006101000a81549073ffffffffffffffffffffffffffffffffffffffff0219169055600182016000611b019190613747565b6002820160006101000a81549060ff02191690556002820160016101000a81549073ffffffffffffffffffffffffffffffffffffffff0219169055600382016000611b4c9190613747565b600482016000611b5c9190613747565b60058201600090555050600484604051611b7691906140e2565b908152602001604051809103902060006101000a81549073ffffffffffffffffffffffffffffffffffffffff0219169055600782604051611bb791906140e2565b908152602001604051809103902060006101000a81549073ffffffffffffffffffffffffffffffffffffffff0219169055600860003373ffffffffffffffffffffffffffffffffffffffff1673ffffffffffffffffffffffffffffffffffffffff16815260200190815260200160002060008473ffffffffffffffffffffffffffffffffffffffff1673ffffffffffffffffffffffffffffffffffffffff16815260200190815260200160002060006101000a81549060ff02191690557fe444442b4fc5a03103c68bde16932de23949be11145d1b4707d817bfb50557388484604051611ca5929190614165565b60405180910390a150505050565b611cbc82611823565b611cc5816129fb565b611ccf8383612a0f565b505050565b611cde828261089d565b6000600660003373ffffffffffffffffffffffffffffffffffffffff1673ffffffffffffffffffffffffffffffffffffffff16815260200190815260200160002060020160009054906101000a900460ff1690506000151581151514611d79576040517f08c379a0000000000000000000000000000000000000000000000000000000008152600401611d70906142df565b60405180910390fd5b611d8233612aef565b505050565b611d8f612e29565b73ffffffffffffffffffffffffffffffffffffffff168173ffffffffffffffffffffffffffffffffffffffff1614611dfc576040517f08c379a0000000000000000000000000000000000000000000000000000000008152600401611df390614371565b60405180910390fd5b611e068282612e31565b5050565b7fcea62fe6ecc79e221c545bf918f804693c542ead2549e37c2bb9baa66ee2e15781565b60086020528160005260406000206020528060005260406000206000915091509054906101000a900460ff1681565b6000600254905090565b60007fcea62fe6ecc79e221c545bf918f804693c542ead2549e37c2bb9baa66ee2e157905090565b60606000611e9c83610e9b565b90508060200151915050919050565b6007818051602081018201805184825260208301602085012081835280955050505050506000915054906101000a900473ffffffffffffffffffffffffffffffffffffffff1681565b611efc612f13565b611f066000612f91565b565b6060600560008381526020019081526020016000208054611f2890614075565b80601f0160208091040260200160405190810160405280929190818152602001828054611f5490614075565b8015611fa15780601f10611f7657610100808354040283529160200191611fa1565b820191906000526020600020905b815481529060010190602001808311611f8457829003601f168201915b50505050509050919050565b6004818051602081018201805184825260208301602085012081835280955050505050506000915054906101000a900473ffffffffffffffffffffffffffffffffffffffff1681565b6000339050600254341461203f576040517f08c379a0000000000000000000000000000000000000000000000000000000008152600401612036906143dd565b60405180910390fd5b600060078560405161205191906140e2565b908152602001604051809103902060009054906101000a900473ffffffffffffffffffffffffffffffffffffffff169050600061208d8461283a565b90506040518060e001604052808473ffffffffffffffffffffffffffffffffffffffff1681526020018981526020016000151581526020018373ffffffffffffffffffffffffffffffffffffffff16815260200188815260200186815260200182815250600660003373ffffffffffffffffffffffffffffffffffffffff1673ffffffffffffffffffffffffffffffffffffffff16815260200190815260200160002060008201518160000160006101000a81548173ffffffffffffffffffffffffffffffffffffffff021916908373ffffffffffffffffffffffffffffffffffffffff160217905550602082015181600101908161218c91906145a9565b5060408201518160020160006101000a81548160ff02191690831515021790555060608201518160020160016101000a81548173ffffffffffffffffffffffffffffffffffffffff021916908373ffffffffffffffffffffffffffffffffffffffff160217905550608082015181600301908161220991906145a9565b5060a082015181600401908161221f91906145a9565b5060c082015181600501559050506000600360009054906101000a900473ffffffffffffffffffffffffffffffffffffffff1673ffffffffffffffffffffffffffffffffffffffff16600254604051612277906146ac565b60006040518083038185875af1925050503d80600081146122b4576040519150601f19603f3d011682016040523d82523d6000602084013e6122b9565b606091505b50509050806122fd576040517f08c379a00000000000000000000000000000000000000000000000000000000081526004016122f49061470d565b60405180910390fd5b61230a89858a8a89613055565b8273ffffffffffffffffffffffffffffffffffffffff167f435b683210e9cdb43126109baed7a6a387c609e0e13532755b51016e1b773a6b8a33604051612352929190614165565b60405180910390a28273ffffffffffffffffffffffffffffffffffffffff167f71ec84cb0c406d66954dcb2481d75f63a94ed77283afa5657d56e68a20df3c528a336040516123a2929190614165565b60405180910390a26000600860008573ffffffffffffffffffffffffffffffffffffffff1673ffffffffffffffffffffffffffffffffffffffff16815260200190815260200160002060003373ffffffffffffffffffffffffffffffffffffffff1673ffffffffffffffffffffffffffffffffffffffff16815260200190815260200160002060006101000a81548160ff021916908315150217905550505050505050505050565b60008060009054906101000a900473ffffffffffffffffffffffffffffffffffffffff16905090565b60006001600084815260200190815260200160002060000160008373ffffffffffffffffffffffffffffffffffffffff1673ffffffffffffffffffffffffffffffffffffffff16815260200190815260200160002060009054906101000a900460ff16905092915050565b60006007826040516124f091906140e2565b908152602001604051809103902060009054906101000a900473ffffffffffffffffffffffffffffffffffffffff1690503373ffffffffffffffffffffffffffffffffffffffff168173ffffffffffffffffffffffffffffffffffffffff161461258f576040517f08c379a000000000000000000000000000000000000000000000000000000000815260040161258690614779565b60405180910390fd5b600061259a84610e53565b90506000600860008473ffffffffffffffffffffffffffffffffffffffff1673ffffffffffffffffffffffffffffffffffffffff16815260200190815260200160002060008373ffffffffffffffffffffffffffffffffffffffff1673ffffffffffffffffffffffffffffffffffffffff16815260200190815260200160002060009054906101000a900460ff1690506000151581151514612671576040517f08c379a0000000000000000000000000000000000000000000000000000000008152600401612668906147e5565b60405180910390fd5b6001600660008473ffffffffffffffffffffffffffffffffffffffff1673ffffffffffffffffffffffffffffffffffffffff16815260200190815260200160002060020160006101000a81548160ff02191690831515021790555033600660008473ffffffffffffffffffffffffffffffffffffffff1673ffffffffffffffffffffffffffffffffffffffff16815260200190815260200160002060020160016101000a81548173ffffffffffffffffffffffffffffffffffffffff021916908373ffffffffffffffffffffffffffffffffffffffff1602179055506001600860008573ffffffffffffffffffffffffffffffffffffffff1673ffffffffffffffffffffffffffffffffffffffff16815260200190815260200160002060008473ffffffffffffffffffffffffffffffffffffffff1673ffffffffffffffffffffffffffffffffffffffff16815260200190815260200160002060006101000a81548160ff0219169083151502179055508173ffffffffffffffffffffffffffffffffffffffff167fadbeb0a5d66e2be993428864e5c86f7c8aa562e2c58131d193ac2eeb7443817a84600160405161282b929190614805565b60405180910390a25050505050565b60008160405160200161284d9190613b13565b604051602081830303815290604052805190602001209050919050565b6000801b81565b6060600061287e83610e9b565b905060008160a0015190508092505050919050565b60006007826040516128a591906140e2565b908152602001604051809103902060009054906101000a900473ffffffffffffffffffffffffffffffffffffffff169050919050565b6128e3612f13565b8060028190555050565b6128f682611823565b6128ff816129fb565b6129098383612e31565b505050565b612916612f13565b600073ffffffffffffffffffffffffffffffffffffffff168173ffffffffffffffffffffffffffffffffffffffff1603612985576040517f08c379a000000000000000000000000000000000000000000000000000000000815260040161297c906148a0565b60405180910390fd5b61298e81612f91565b50565b60007f01ffc9a7000000000000000000000000000000000000000000000000000000007bffffffffffffffffffffffffffffffffffffffffffffffffffffffff1916827bffffffffffffffffffffffffffffffffffffffffffffffffffffffff1916149050919050565b612a0c81612a07612e29565b6133eb565b50565b612a198282612473565b612aeb57600180600084815260200190815260200160002060000160008373ffffffffffffffffffffffffffffffffffffffff1673ffffffffffffffffffffffffffffffffffffffff16815260200190815260200160002060006101000a81548160ff021916908315150217905550612a90612e29565b73ffffffffffffffffffffffffffffffffffffffff168173ffffffffffffffffffffffffffffffffffffffff16837f2f8788117e7eff1d82e926ec794901d17c78024a50270940304540a733656f0d60405160405180910390a45b5050565b6000600660008373ffffffffffffffffffffffffffffffffffffffff1673ffffffffffffffffffffffffffffffffffffffff1681526020019081526020016000206001018054612b3e90614075565b80601f0160208091040260200160405190810160405280929190818152602001828054612b6a90614075565b8015612bb75780601f10612b8c57610100808354040283529160200191612bb7565b820191906000526020600020905b815481529060010190602001808311612b9a57829003601f168201915b505050505090506000600660008473ffffffffffffffffffffffffffffffffffffffff1673ffffffffffffffffffffffffffffffffffffffff1681526020019081526020016000206003018054612c0d90614075565b80601f0160208091040260200160405190810160405280929190818152602001828054612c3990614075565b8015612c865780601f10612c5b57610100808354040283529160200191612c86565b820191906000526020600020905b815481529060010190602001808311612c6957829003601f168201915b50505050509050600660008473ffffffffffffffffffffffffffffffffffffffff1673ffffffffffffffffffffffffffffffffffffffff168152602001908152602001600020600080820160006101000a81549073ffffffffffffffffffffffffffffffffffffffff0219169055600182016000612d049190613747565b6002820160006101000a81549060ff02191690556002820160016101000a81549073ffffffffffffffffffffffffffffffffffffffff0219169055600382016000612d4f9190613747565b600482016000612d5f9190613747565b60058201600090555050600482604051612d7991906140e2565b908152602001604051809103902060006101000a81549073ffffffffffffffffffffffffffffffffffffffff0219169055600781604051612dba91906140e2565b908152602001604051809103902060006101000a81549073ffffffffffffffffffffffffffffffffffffffff02191690557fe444442b4fc5a03103c68bde16932de23949be11145d1b4707d817bfb50557388284604051612e1c929190614165565b60405180910390a1505050565b600033905090565b612e3b8282612473565b15612f0f5760006001600084815260200190815260200160002060000160008373ffffffffffffffffffffffffffffffffffffffff1673ffffffffffffffffffffffffffffffffffffffff16815260200190815260200160002060006101000a81548160ff021916908315150217905550612eb4612e29565b73ffffffffffffffffffffffffffffffffffffffff168173ffffffffffffffffffffffffffffffffffffffff16837ff6391f5c32d9c69d2a47ea670b442974b53935d1edc7fd64eb21e047a839171b60405160405180910390a45b5050565b612f1b612e29565b73ffffffffffffffffffffffffffffffffffffffff16612f3961244a565b73ffffffffffffffffffffffffffffffffffffffff1614612f8f576040517f08c379a0000000000000000000000000000000000000000000000000000000008152600401612f869061490c565b60405180910390fd5b565b60008060009054906101000a900473ffffffffffffffffffffffffffffffffffffffff169050816000806101000a81548173ffffffffffffffffffffffffffffffffffffffff021916908373ffffffffffffffffffffffffffffffffffffffff1602179055508173ffffffffffffffffffffffffffffffffffffffff168173ffffffffffffffffffffffffffffffffffffffff167f8be0079c531659141344cd1fd0a4f28419497f9722a3daafe3b4186f6b6457e060405160405180910390a35050565b60006130608261283a565b9050600073ffffffffffffffffffffffffffffffffffffffff1660048760405161308a91906140e2565b908152602001604051809103902060009054906101000a900473ffffffffffffffffffffffffffffffffffffffff1673ffffffffffffffffffffffffffffffffffffffff161461310f576040517f08c379a00000000000000000000000000000000000000000000000000000000081526004016131069061499e565b60405180910390fd5b600060056000838152602001908152602001600020805461312f90614075565b905014613171576040517f08c379a000000000000000000000000000000000000000000000000000000000815260040161316890614a0a565b60405180910390fd5b6000600960009054906101000a900473ffffffffffffffffffffffffffffffffffffffff1673ffffffffffffffffffffffffffffffffffffffff1663a430c74486866040518363ffffffff1660e01b81526004016131d0929190614a2a565b602060405180830381865afa1580156131ed573d6000803e3d6000fd5b505050506040513d601f19601f820116820180604052508101906132119190614a8d565b9050600115158115151461325a576040517f08c379a000000000000000000000000000000000000000000000000000000000815260040161325190614b06565b60405180910390fd5b600073ffffffffffffffffffffffffffffffffffffffff1660078660405161328291906140e2565b908152602001604051809103902060009054906101000a900473ffffffffffffffffffffffffffffffffffffffff1673ffffffffffffffffffffffffffffffffffffffff1614613307576040517f08c379a00000000000000000000000000000000000000000000000000000000081526004016132fe90614b72565b60405180910390fd5b8660056000848152602001908152602001600020908161332791906145a9565b508560048860405161333991906140e2565b908152602001604051809103902060006101000a81548173ffffffffffffffffffffffffffffffffffffffff021916908373ffffffffffffffffffffffffffffffffffffffff1602179055508560078660405161339691906140e2565b908152602001604051809103902060006101000a81548173ffffffffffffffffffffffffffffffffffffffff021916908373ffffffffffffffffffffffffffffffffffffffff16021790555050505050505050565b6133f58282612473565b61346c5761340281613470565b6134108360001c602061349d565b604051602001613421929190614c2a565b6040516020818303038152906040526040517f08c379a00000000000000000000000000000000000000000000000000000000081526004016134639190613b13565b60405180910390fd5b5050565b60606134968273ffffffffffffffffffffffffffffffffffffffff16601460ff1661349d565b9050919050565b6060600060028360026134b09190614c93565b6134ba9190614cd5565b67ffffffffffffffff8111156134d3576134d26137d3565b5b6040519080825280601f01601f1916602001820160405280156135055781602001600182028036833780820191505090505b5090507f30000000000000000000000000000000000000000000000000000000000000008160008151811061353d5761353c614d09565b5b60200101907effffffffffffffffffffffffffffffffffffffffffffffffffffffffffffff1916908160001a9053507f7800000000000000000000000000000000000000000000000000000000000000816001815181106135a1576135a0614d09565b5b60200101907effffffffffffffffffffffffffffffffffffffffffffffffffffffffffffff1916908160001a905350600060018460026135e19190614c93565b6135eb9190614cd5565b90505b600181111561368b577f3031323334353637383961626364656600000000000000000000000000000000600f86166010811061362d5761362c614d09565b5b1a60f81b82828151811061364457613643614d09565b5b60200101907effffffffffffffffffffffffffffffffffffffffffffffffffffffffffffff1916908160001a905350600485901c94508061368490614d38565b90506135ee565b50600084146136cf576040517f08c379a00000000000000000000000000000000000000000000000000000000081526004016136c690614dad565b60405180910390fd5b8091505092915050565b6040518060e00160405280600073ffffffffffffffffffffffffffffffffffffffff16815260200160608152602001600015158152602001600073ffffffffffffffffffffffffffffffffffffffff1681526020016060815260200160608152602001600080191681525090565b50805461375390614075565b6000825580601f106137655750613784565b601f0160209004906000526020600020908101906137839190613787565b5b50565b5b808211156137a0576000816000905550600101613788565b5090565b6000604051905090565b600080fd5b600080fd5b600080fd5b600080fd5b6000601f19601f8301169050919050565b7f4e487b7100000000000000000000000000000000000000000000000000000000600052604160045260246000fd5b61380b826137c2565b810181811067ffffffffffffffff8211171561382a576138296137d3565b5b80604052505050565b600061383d6137a4565b90506138498282613802565b919050565b600067ffffffffffffffff821115613869576138686137d3565b5b613872826137c2565b9050602081019050919050565b82818337600083830152505050565b60006138a161389c8461384e565b613833565b9050828152602081018484840111156138bd576138bc6137bd565b5b6138c884828561387f565b509392505050565b600082601f8301126138e5576138e46137b8565b5b81356138f584826020860161388e565b91505092915050565b60008060408385031215613915576139146137ae565b5b600083013567ffffffffffffffff811115613933576139326137b3565b5b61393f858286016138d0565b925050602083013567ffffffffffffffff8111156139605761395f6137b3565b5b61396c858286016138d0565b9150509250929050565b60007fffffffff0000000000000000000000000000000000000000000000000000000082169050919050565b6139ab81613976565b81146139b657600080fd5b50565b6000813590506139c8816139a2565b92915050565b6000602082840312156139e4576139e36137ae565b5b60006139f2848285016139b9565b91505092915050565b60008115159050919050565b613a10816139fb565b82525050565b6000602082019050613a2b6000830184613a07565b92915050565b6000819050919050565b613a4481613a31565b8114613a4f57600080fd5b50565b600081359050613a6181613a3b565b92915050565b600060208284031215613a7d57613a7c6137ae565b5b6000613a8b84828501613a52565b91505092915050565b600081519050919050565b600082825260208201905092915050565b60005b83811015613ace578082015181840152602081019050613ab3565b60008484015250505050565b6000613ae582613a94565b613aef8185613a9f565b9350613aff818560208601613ab0565b613b08816137c2565b840191505092915050565b60006020820190508181036000830152613b2d8184613ada565b905092915050565b600073ffffffffffffffffffffffffffffffffffffffff82169050919050565b6000613b6082613b35565b9050919050565b613b7081613b55565b82525050565b6000602082019050613b8b6000830184613b67565b92915050565b600060208284031215613ba757613ba66137ae565b5b600082013567ffffffffffffffff811115613bc557613bc46137b3565b5b613bd1848285016138d0565b91505092915050565b613be381613b55565b82525050565b600082825260208201905092915050565b6000613c0582613a94565b613c0f8185613be9565b9350613c1f818560208601613ab0565b613c28816137c2565b840191505092915050565b613c3c816139fb565b82525050565b613c4b81613a31565b82525050565b600060e083016000830151613c696000860182613bda565b5060208301518482036020860152613c818282613bfa565b9150506040830151613c966040860182613c33565b506060830151613ca96060860182613bda565b5060808301518482036080860152613cc18282613bfa565b91505060a083015184820360a0860152613cdb8282613bfa565b91505060c0830151613cf060c0860182613c42565b508091505092915050565b60006020820190508181036000830152613d158184613c51565b905092915050565b613d2681613b55565b8114613d3157600080fd5b50565b600081359050613d4381613d1d565b92915050565b600060208284031215613d5f57613d5e6137ae565b5b6000613d6d84828501613d34565b91505092915050565b613d7f81613a31565b82525050565b6000602082019050613d9a6000830184613d76565b92915050565b60008060408385031215613db757613db66137ae565b5b6000613dc585828601613a52565b9250506020613dd685828601613d34565b9150509250929050565b60008060408385031215613df757613df66137ae565b5b6000613e0585828601613d34565b9250506020613e1685828601613d34565b9150509250929050565b6000819050919050565b613e3381613e20565b82525050565b6000602082019050613e4e6000830184613e2a565b92915050565b600080600080600060a08688031215613e7057613e6f6137ae565b5b600086013567ffffffffffffffff811115613e8e57613e8d6137b3565b5b613e9a888289016138d0565b955050602086013567ffffffffffffffff811115613ebb57613eba6137b3565b5b613ec7888289016138d0565b945050604086013567ffffffffffffffff811115613ee857613ee76137b3565b5b613ef4888289016138d0565b935050606086013567ffffffffffffffff811115613f1557613f146137b3565b5b613f21888289016138d0565b925050608086013567ffffffffffffffff811115613f4257613f416137b3565b5b613f4e888289016138d0565b9150509295509295909350565b613f6481613e20565b8114613f6f57600080fd5b50565b600081359050613f8181613f5b565b92915050565b600060208284031215613f9d57613f9c6137ae565b5b6000613fab84828501613f72565b91505092915050565b7f757365727320616c6c6f776564206f6e6c7920746f20636c656172207468656d60008201527f73656c6673000000000000000000000000000000000000000000000000000000602082015250565b6000614010602583613a9f565b915061401b82613fb4565b604082019050919050565b6000602082019050818103600083015261403f81614003565b9050919050565b7f4e487b7100000000000000000000000000000000000000000000000000000000600052602260045260246000fd5b6000600282049050600182168061408d57607f821691505b6020821081036140a05761409f614046565b5b50919050565b600081905092915050565b60006140bc82613a94565b6140c681856140a6565b93506140d6818560208601613ab0565b80840191505092915050565b60006140ee82846140b1565b915081905092915050565b7f746573746e6574206f6e6c790000000000000000000000000000000000000000600082015250565b600061412f600c83613a9f565b915061413a826140f9565b602082019050919050565b6000602082019050818103600083015261415e81614122565b9050919050565b6000604082019050818103600083015261417f8185613ada565b905061418e6020830184613b67565b9392505050565b7f616c726561647920617070726f766564204f5220646f206e6f7420657869737460008201527f7320796574000000000000000000000000000000000000000000000000000000602082015250565b60006141f1602583613a9f565b91506141fc82614195565b604082019050919050565b60006020820190508181036000830152614220816141e4565b9050919050565b7f616c7265616479206c696e6b6564204f5220646f6e7420657869737473000000600082015250565b600061425d601d83613a9f565b915061426882614227565b602082019050919050565b6000602082019050818103600083015261428c81614250565b9050919050565b7f63616e277420636c65617220636861696e000000000000000000000000000000600082015250565b60006142c9601183613a9f565b91506142d482614293565b602082019050919050565b600060208201905081810360008301526142f8816142bc565b9050919050565b7f416363657373436f6e74726f6c3a2063616e206f6e6c792072656e6f756e636560008201527f20726f6c657320666f722073656c660000000000000000000000000000000000602082015250565b600061435b602f83613a9f565b9150614366826142ff565b604082019050919050565b6000602082019050818103600083015261438a8161434e565b9050919050565b7f5265717565737420666565206973206e6f742070616964000000000000000000600082015250565b60006143c7601783613a9f565b91506143d282614391565b602082019050919050565b600060208201905081810360008301526143f6816143ba565b9050919050565b60008190508160005260206000209050919050565b60006020601f8301049050919050565b600082821b905092915050565b60006008830261445f7fffffffffffffffffffffffffffffffffffffffffffffffffffffffffffffffff82614422565b6144698683614422565b95508019841693508086168417925050509392505050565b6000819050919050565b60006144a66144a161449c84613e20565b614481565b613e20565b9050919050565b6000819050919050565b6144c08361448b565b6144d46144cc826144ad565b84845461442f565b825550505050565b600090565b6144e96144dc565b6144f48184846144b7565b505050565b5b818110156145185761450d6000826144e1565b6001810190506144fa565b5050565b601f82111561455d5761452e816143fd565b61453784614412565b81016020851015614546578190505b61455a61455285614412565b8301826144f9565b50505b505050565b600082821c905092915050565b600061458060001984600802614562565b1980831691505092915050565b6000614599838361456f565b9150826002028217905092915050565b6145b282613a94565b67ffffffffffffffff8111156145cb576145ca6137d3565b5b6145d58254614075565b6145e082828561451c565b600060209050601f8311600181146146135760008415614601578287015190505b61460b858261458d565b865550614673565b601f198416614621866143fd565b60005b8281101561464957848901518255600182019150602085019450602081019050614624565b868310156146665784890151614662601f89168261456f565b8355505b6001600288020188555050505b505050505050565b600081905092915050565b50565b600061469660008361467b565b91506146a182614686565b600082019050919050565b60006146b782614689565b9150819050919050565b7f556e61626c6520746f207472616e736665722066656500000000000000000000600082015250565b60006146f7601683613a9f565b9150614702826146c1565b602082019050919050565b60006020820190508181036000830152614726816146ea565b9050919050565b7f6f6e6c7920706172656e745f6e616d652063616e206163636570742069740000600082015250565b6000614763601e83613a9f565b915061476e8261472d565b602082019050919050565b6000602082019050818103600083015261479281614756565b9050919050565b7f616c726561647920726567697374726564000000000000000000000000000000600082015250565b60006147cf601183613a9f565b91506147da82614799565b602082019050919050565b600060208201905081810360008301526147fe816147c2565b9050919050565b600060408201905061481a6000830185613b67565b6148276020830184613a07565b9392505050565b7f4f776e61626c653a206e6577206f776e657220697320746865207a65726f206160008201527f6464726573730000000000000000000000000000000000000000000000000000602082015250565b600061488a602683613a9f565b91506148958261482e565b604082019050919050565b600060208201905081810360008301526148b98161487d565b9050919050565b7f4f776e61626c653a2063616c6c6572206973206e6f7420746865206f776e6572600082015250565b60006148f6602083613a9f565b9150614901826148c0565b602082019050919050565b60006020820190508181036000830152614925816148e9565b9050919050565b7f5468657265206973206164647265737320636f6e6e656374656420746f20746860008201527f617420494420616c726561647900000000000000000000000000000000000000602082015250565b6000614988602d83613a9f565b91506149938261492c565b604082019050919050565b600060208201905081810360008301526149b78161497b565b9050919050565b7f5468697320706c61696e5f696420616c72656164792072656769737472656400600082015250565b60006149f4601f83613a9f565b91506149ff826149be565b602082019050919050565b60006020820190508181036000830152614a23816149e7565b9050919050565b60006040820190508181036000830152614a448185613ada565b90508181036020830152614a588184613ada565b90509392505050565b614a6a816139fb565b8114614a7557600080fd5b50565b600081519050614a8781614a61565b92915050565b600060208284031215614aa357614aa26137ae565b5b6000614ab184828501614a78565b91505092915050565b7f64696374696f6e617279206572726f7200000000000000000000000000000000600082015250565b6000614af0601083613a9f565b9150614afb82614aba565b602082019050919050565b60006020820190508181036000830152614b1f81614ae3565b9050919050565b7f636f64656e616d652074616b656e000000000000000000000000000000000000600082015250565b6000614b5c600e83613a9f565b9150614b6782614b26565b602082019050919050565b60006020820190508181036000830152614b8b81614b4f565b9050919050565b7f416363657373436f6e74726f6c3a206163636f756e7420000000000000000000600082015250565b6000614bc86017836140a6565b9150614bd382614b92565b601782019050919050565b7f206973206d697373696e6720726f6c6520000000000000000000000000000000600082015250565b6000614c146011836140a6565b9150614c1f82614bde565b601182019050919050565b6000614c3582614bbb565b9150614c4182856140b1565b9150614c4c82614c07565b9150614c5882846140b1565b91508190509392505050565b7f4e487b7100000000000000000000000000000000000000000000000000000000600052601160045260246000fd5b6000614c9e82613e20565b9150614ca983613e20565b9250828202614cb781613e20565b91508282048414831517614cce57614ccd614c64565b5b5092915050565b6000614ce082613e20565b9150614ceb83613e20565b9250828201905080821115614d0357614d02614c64565b5b92915050565b7f4e487b7100000000000000000000000000000000000000000000000000000000600052603260045260246000fd5b6000614d4382613e20565b915060008203614d5657614d55614c64565b5b600182039050919050565b7f537472696e67733a20686578206c656e67746820696e73756666696369656e74600082015250565b6000614d97602083613a9f565b9150614da282614d61565b602082019050919050565b60006020820190508181036000830152614dc681614d8a565b905091905056fea2646970667358221220fe99cb690f3799e5d037d66846c102db7c08ca0a9c01201e705fd0737eddb02b64736f6c634300081100337a6a58436a3969757365336748476141494967796169434f734a705157534345424261632f7a50477267513d",
  "linkReferences": {},
  "deployedLinkReferences": {}
}