{
  "_format": "hh-sol-artifact-1",
  "contractName": "Leg10n",
  "sourceName": "contracts/Leg10n.sol",
  "abi": [
    {
      "inputs": [
        {
          "internalType": "address",
          "name": "turing_",
          "type": "address"
        },
        {
          "internalType": "address",
          "name": "admin_",
          "type": "address"
        },
        {
          "internalType": "int64",
          "name": "tgid_",
          "type": "int64"
        },
        {
          "internalType": "string",
          "name": "public_key_",
          "type": "string"
        }
      ],
      "stateMutability": "nonpayable",
      "type": "constructor"
    },
    {
      "anonymous": false,
      "inputs": [
        {
          "indexed": true,
          "internalType": "address",
          "name": "admin",
          "type": "address"
        }
      ],
      "name": "Initialized",
      "type": "event"
    },
    {
      "anonymous": false,
      "inputs": [
        {
          "indexed": true,
          "internalType": "address",
          "name": "previousOwner",
          "type": "address"
        },
        {
          "indexed": true,
          "internalType": "address",
          "name": "newOwner",
          "type": "address"
        }
      ],
      "name": "OwnershipTransferred",
      "type": "event"
    },
    {
      "anonymous": false,
      "inputs": [
        {
          "indexed": true,
          "internalType": "bytes32",
          "name": "role",
          "type": "bytes32"
        },
        {
          "indexed": true,
          "internalType": "bytes32",
          "name": "previousAdminRole",
          "type": "bytes32"
        },
        {
          "indexed": true,
          "internalType": "bytes32",
          "name": "newAdminRole",
          "type": "bytes32"
        }
      ],
      "name": "RoleAdminChanged",
      "type": "event"
    },
    {
      "anonymous": false,
      "inputs": [
        {
          "indexed": true,
          "internalType": "bytes32",
          "name": "role",
          "type": "bytes32"
        },
        {
          "indexed": true,
          "internalType": "address",
          "name": "account",
          "type": "address"
        },
        {
          "indexed": true,
          "internalType": "address",
          "name": "sender",
          "type": "address"
        }
      ],
      "name": "RoleGranted",
      "type": "event"
    },
    {
      "anonymous": false,
      "inputs": [
        {
          "indexed": true,
          "internalType": "bytes32",
          "name": "role",
          "type": "bytes32"
        },
        {
          "indexed": true,
          "internalType": "address",
          "name": "account",
          "type": "address"
        },
        {
          "indexed": true,
          "internalType": "address",
          "name": "sender",
          "type": "address"
        }
      ],
      "name": "RoleRevoked",
      "type": "event"
    },
    {
      "anonymous": false,
      "inputs": [
        {
          "indexed": false,
          "internalType": "int64",
          "name": "applyerTg",
          "type": "int64"
        },
        {
          "indexed": false,
          "internalType": "address",
          "name": "wallet_address",
          "type": "address"
        },
        {
          "indexed": true,
          "internalType": "address",
          "name": "parent_address",
          "type": "address"
        }
      ],
      "name": "joinRequested",
      "type": "event"
    },
    {
      "anonymous": false,
      "inputs": [
        {
          "indexed": false,
          "internalType": "int64",
          "name": "applyerTg",
          "type": "int64"
        },
        {
          "indexed": false,
          "internalType": "address",
          "name": "wallet_address",
          "type": "address"
        },
        {
          "indexed": true,
          "internalType": "address",
          "name": "parent_address",
          "type": "address"
        }
      ],
      "name": "joinRequestedIndexedTG",
      "type": "event"
    },
    {
      "anonymous": false,
      "inputs": [
        {
          "indexed": false,
          "internalType": "address",
          "name": "high_node",
          "type": "address"
        },
        {
          "indexed": true,
          "internalType": "address",
          "name": "low_node",
          "type": "address"
        },
        {
          "indexed": false,
          "internalType": "bool",
          "name": "pravda",
          "type": "bool"
        }
      ],
      "name": "relationChanged",
      "type": "event"
    },
    {
      "anonymous": false,
      "inputs": [
        {
          "indexed": true,
          "internalType": "int64",
          "name": "applyerTg",
          "type": "int64"
        },
        {
          "indexed": false,
          "internalType": "address",
          "name": "user_address",
          "type": "address"
        },
        {
          "indexed": false,
          "internalType": "address",
          "name": "parent_address",
          "type": "address"
        }
      ],
      "name": "requestAccepted",
      "type": "event"
    },
    {
      "anonymous": false,
      "inputs": [
        {
          "indexed": false,
          "internalType": "int64",
          "name": "applyerTg",
          "type": "int64"
        },
        {
          "indexed": false,
          "internalType": "address",
          "name": "wallet",
          "type": "address"
        }
      ],
      "name": "requestDenied",
      "type": "event"
    },
    {
      "inputs": [
        {
          "internalType": "int64",
          "name": "applyerTg",
          "type": "int64"
        },
        {
          "internalType": "string",
          "name": "parent_name",
          "type": "string"
        }
      ],
      "name": "AcceptJoin",
      "outputs": [],
      "stateMutability": "nonpayable",
      "type": "function"
    },
    {
      "inputs": [
        {
          "internalType": "string",
          "name": "parent_name",
          "type": "string"
        },
        {
          "internalType": "string",
          "name": "child_name",
          "type": "string"
        }
      ],
      "name": "ClearParent",
      "outputs": [],
      "stateMutability": "nonpayable",
      "type": "function"
    },
    {
      "inputs": [],
      "name": "DEFAULT_ADMIN_ROLE",
      "outputs": [
        {
          "internalType": "bytes32",
          "name": "",
          "type": "bytes32"
        }
      ],
      "stateMutability": "view",
      "type": "function"
    },
    {
      "inputs": [
        {
          "internalType": "int64",
          "name": "tgid",
          "type": "int64"
        }
      ],
      "name": "DeclineRequest",
      "outputs": [],
      "stateMutability": "nonpayable",
      "type": "function"
    },
    {
      "inputs": [],
      "name": "GetOwner",
      "outputs": [
        {
          "internalType": "address",
          "name": "",
          "type": "address"
        }
      ],
      "stateMutability": "view",
      "type": "function"
    },
    {
      "inputs": [],
      "name": "GetPassportFee",
      "outputs": [
        {
          "internalType": "uint256",
          "name": "",
          "type": "uint256"
        }
      ],
      "stateMutability": "view",
      "type": "function"
    },
    {
      "inputs": [
        {
          "internalType": "address",
          "name": "user_address",
          "type": "address"
        }
      ],
      "name": "GetPublicKeyByAddress",
      "outputs": [
        {
          "internalType": "string",
          "name": "",
          "type": "string"
        }
      ],
      "stateMutability": "view",
      "type": "function"
    },
    {
      "inputs": [
        {
          "internalType": "address",
          "name": "user_wallet",
          "type": "address"
        }
      ],
      "name": "GetTgIdByAddress",
      "outputs": [
        {
          "internalType": "int64",
          "name": "tgid",
          "type": "int64"
        }
      ],
      "stateMutability": "view",
      "type": "function"
    },
    {
      "inputs": [
        {
          "internalType": "address",
          "name": "user_wallet",
          "type": "address"
        }
      ],
      "name": "GetUserByAddress",
      "outputs": [
        {
          "components": [
            {
              "internalType": "address",
              "name": "userAddress",
              "type": "address"
            },
            {
              "internalType": "int64",
              "name": "tgId",
              "type": "int64"
            },
            {
              "internalType": "bool",
              "name": "valid",
              "type": "bool"
            },
            {
              "internalType": "address",
              "name": "validatorAddress",
              "type": "address"
            },
            {
              "internalType": "string",
              "name": "codeName",
              "type": "string"
            },
            {
              "internalType": "string",
              "name": "public_key",
              "type": "string"
            }
          ],
          "internalType": "struct Leg10n.User",
          "name": "",
          "type": "tuple"
        }
      ],
      "stateMutability": "view",
      "type": "function"
    },
    {
      "inputs": [
        {
          "internalType": "string",
          "name": "user_name_",
          "type": "string"
        }
      ],
      "name": "GetUserByNickName",
      "outputs": [
        {
          "components": [
            {
              "internalType": "address",
              "name": "userAddress",
              "type": "address"
            },
            {
              "internalType": "int64",
              "name": "tgId",
              "type": "int64"
            },
            {
              "internalType": "bool",
              "name": "valid",
              "type": "bool"
            },
            {
              "internalType": "address",
              "name": "validatorAddress",
              "type": "address"
            },
            {
              "internalType": "string",
              "name": "codeName",
              "type": "string"
            },
            {
              "internalType": "string",
              "name": "public_key",
              "type": "string"
            }
          ],
          "internalType": "struct Leg10n.User",
          "name": "",
          "type": "tuple"
        }
      ],
      "stateMutability": "view",
      "type": "function"
    },
    {
      "inputs": [
        {
          "internalType": "int64",
          "name": "tgId_",
          "type": "int64"
        }
      ],
      "name": "GetUserByTgId",
      "outputs": [
        {
          "components": [
            {
              "internalType": "address",
              "name": "userAddress",
              "type": "address"
            },
            {
              "internalType": "int64",
              "name": "tgId",
              "type": "int64"
            },
            {
              "internalType": "bool",
              "name": "valid",
              "type": "bool"
            },
            {
              "internalType": "address",
              "name": "validatorAddress",
              "type": "address"
            },
            {
              "internalType": "string",
              "name": "codeName",
              "type": "string"
            },
            {
              "internalType": "string",
              "name": "public_key",
              "type": "string"
            }
          ],
          "internalType": "struct Leg10n.User",
          "name": "",
          "type": "tuple"
        }
      ],
      "stateMutability": "view",
      "type": "function"
    },
    {
      "inputs": [
        {
          "internalType": "int64",
          "name": "tgId_",
          "type": "int64"
        }
      ],
      "name": "GetUserWalletByID",
      "outputs": [
        {
          "internalType": "address",
          "name": "",
          "type": "address"
        }
      ],
      "stateMutability": "view",
      "type": "function"
    },
    {
      "inputs": [
        {
          "internalType": "string",
          "name": "user_name_",
          "type": "string"
        }
      ],
      "name": "GetWalletByNickName",
      "outputs": [
        {
          "internalType": "address",
          "name": "",
          "type": "address"
        }
      ],
      "stateMutability": "view",
      "type": "function"
    },
    {
      "inputs": [
        {
          "internalType": "int64",
          "name": "applyerTg",
          "type": "int64"
        },
        {
          "internalType": "string",
          "name": "code_name_",
          "type": "string"
        },
        {
          "internalType": "string",
          "name": "parent_name",
          "type": "string"
        },
        {
          "internalType": "string",
          "name": "public_key",
          "type": "string"
        }
      ],
      "name": "RequestJoin",
      "outputs": [],
      "stateMutability": "payable",
      "type": "function"
    },
    {
      "inputs": [
        {
          "internalType": "uint256",
          "name": "passportFee_",
          "type": "uint256"
        }
      ],
      "name": "SetPassportFee",
      "outputs": [],
      "stateMutability": "nonpayable",
      "type": "function"
    },
    {
      "inputs": [
        {
          "internalType": "address",
          "name": "",
          "type": "address"
        },
        {
          "internalType": "address",
          "name": "",
          "type": "address"
        }
      ],
      "name": "chain",
      "outputs": [
        {
          "internalType": "bool",
          "name": "",
          "type": "bool"
        }
      ],
      "stateMutability": "view",
      "type": "function"
    },
    {
      "inputs": [],
      "name": "deleteYourSelf",
      "outputs": [],
      "stateMutability": "nonpayable",
      "type": "function"
    },
    {
      "inputs": [
        {
          "internalType": "address",
          "name": "user_address",
          "type": "address"
        }
      ],
      "name": "devDeleteUser",
      "outputs": [],
      "stateMutability": "nonpayable",
      "type": "function"
    },
    {
      "inputs": [],
      "name": "getModeratorIdentifier",
      "outputs": [
        {
          "internalType": "bytes32",
          "name": "",
          "type": "bytes32"
        }
      ],
      "stateMutability": "pure",
      "type": "function"
    },
    {
      "inputs": [
        {
          "internalType": "bytes32",
          "name": "role",
          "type": "bytes32"
        }
      ],
      "name": "getRoleAdmin",
      "outputs": [
        {
          "internalType": "bytes32",
          "name": "",
          "type": "bytes32"
        }
      ],
      "stateMutability": "view",
      "type": "function"
    },
    {
      "inputs": [
        {
          "internalType": "bytes32",
          "name": "role",
          "type": "bytes32"
        },
        {
          "internalType": "address",
          "name": "account",
          "type": "address"
        }
      ],
      "name": "grantRole",
      "outputs": [],
      "stateMutability": "nonpayable",
      "type": "function"
    },
    {
      "inputs": [
        {
          "internalType": "bytes32",
          "name": "role",
          "type": "bytes32"
        },
        {
          "internalType": "address",
          "name": "account",
          "type": "address"
        }
      ],
      "name": "hasRole",
      "outputs": [
        {
          "internalType": "bool",
          "name": "",
          "type": "bool"
        }
      ],
      "stateMutability": "view",
      "type": "function"
    },
    {
      "inputs": [],
      "name": "moderator",
      "outputs": [
        {
          "internalType": "bytes32",
          "name": "",
          "type": "bytes32"
        }
      ],
      "stateMutability": "view",
      "type": "function"
    },
    {
      "inputs": [],
      "name": "owner",
      "outputs": [
        {
          "internalType": "address",
          "name": "",
          "type": "address"
        }
      ],
      "stateMutability": "view",
      "type": "function"
    },
    {
      "inputs": [],
      "name": "renounceOwnership",
      "outputs": [],
      "stateMutability": "nonpayable",
      "type": "function"
    },
    {
      "inputs": [
        {
          "internalType": "bytes32",
          "name": "role",
          "type": "bytes32"
        },
        {
          "internalType": "address",
          "name": "account",
          "type": "address"
        }
      ],
      "name": "renounceRole",
      "outputs": [],
      "stateMutability": "nonpayable",
      "type": "function"
    },
    {
      "inputs": [
        {
          "internalType": "bytes32",
          "name": "role",
          "type": "bytes32"
        },
        {
          "internalType": "address",
          "name": "account",
          "type": "address"
        }
      ],
      "name": "revokeRole",
      "outputs": [],
      "stateMutability": "nonpayable",
      "type": "function"
    },
    {
      "inputs": [
        {
          "internalType": "bytes4",
          "name": "interfaceId",
          "type": "bytes4"
        }
      ],
      "name": "supportsInterface",
      "outputs": [
        {
          "internalType": "bool",
          "name": "",
          "type": "bool"
        }
      ],
      "stateMutability": "view",
      "type": "function"
    },
    {
      "inputs": [
        {
          "internalType": "address",
          "name": "newOwner",
          "type": "address"
        }
      ],
      "name": "transferOwnership",
      "outputs": [],
      "stateMutability": "nonpayable",
      "type": "function"
    }
  ],
  "bytecode": "0x60806040523480156200001157600080fd5b5060405162006635380380620066358339818101604052810190620000379190620011eb565b620000576200004b620006e560201b60201c565b620006ed60201b60201c565b62000073677ba93c64d983b80e60c01b620007b160201b60201c565b6200008f678a60643fe96a2f2360c01b620007b160201b60201c565b66071afd498d0000600281905550620000b9678b098c422e4f5ac460c01b620007b160201b60201c565b620000c9620007b460201b60201c565b600360006101000a81548173ffffffffffffffffffffffffffffffffffffffff021916908373ffffffffffffffffffffffffffffffffffffffff1602179055506200012567216c86b0e6bab44460c01b620007b160201b60201c565b620001416748b8631439ea3b1260c01b620007b160201b60201c565b620001566000801b33620007dd60201b60201c565b6200017267e7c758dccd2efac060c01b620007b160201b60201c565b6200018e673812dd28243bf8ac60c01b620007b160201b60201c565b620001c07fcea62fe6ecc79e221c545bf918f804693c542ead2549e37c2bb9baa66ee2e15733620007dd60201b60201c565b620001dc676b1340233f2b266360c01b620007b160201b60201c565b83600860006101000a81548173ffffffffffffffffffffffffffffffffffffffff021916908373ffffffffffffffffffffffffffffffffffffffff1602179055506200023967bdc7961fab7dab6060c01b620007b160201b60201c565b33600460008460070b60070b815260200190815260200160002060006101000a81548173ffffffffffffffffffffffffffffffffffffffff021916908373ffffffffffffffffffffffffffffffffffffffff160217905550620002ad67786ebc36f47e0e7260c01b620007b160201b60201c565b336006604051620002be90620012d7565b908152602001604051809103902060006101000a81548173ffffffffffffffffffffffffffffffffffffffff021916908373ffffffffffffffffffffffffffffffffffffffff16021790555062000326672f4eef74b1e6268260c01b620007b160201b60201c565b6040518060c001604052803373ffffffffffffffffffffffffffffffffffffffff1681526020018360070b81526020016001151581526020013373ffffffffffffffffffffffffffffffffffffffff1681526020016040518060400160405280600181526020017f300000000000000000000000000000000000000000000000000000000000000081525081526020016040518060600160405280602c815260200162006609602c9139815250600560003373ffffffffffffffffffffffffffffffffffffffff1673ffffffffffffffffffffffffffffffffffffffff16815260200190815260200160002060008201518160000160006101000a81548173ffffffffffffffffffffffffffffffffffffffff021916908373ffffffffffffffffffffffffffffffffffffffff16021790555060208201518160000160146101000a81548167ffffffffffffffff021916908360070b67ffffffffffffffff160217905550604082015181600001601c6101000a81548160ff02191690831515021790555060608201518160010160006101000a81548173ffffffffffffffffffffffffffffffffffffffff021916908373ffffffffffffffffffffffffffffffffffffffff160217905550608082015181600201908162000509919062001539565b5060a082015181600301908162000521919062001539565b5090505062000541675ac5f72df264eb5860c01b620007b160201b60201c565b6200055d67728fbce5d1f8390960c01b620007b160201b60201c565b600073ffffffffffffffffffffffffffffffffffffffff168373ffffffffffffffffffffffffffffffffffffffff16148015620005b25750620005b1677ae7c6075b16b0f860c01b620008ce60201b60201c565b5b80620005e6575060008260070b148015620005e55750620005e46720c20438ea9bcac960c01b620008ce60201b60201c565b5b5b1562000674576200060867f69379a51e4f7d0960c01b620007b160201b60201c565b6200062467e94ca8df4202763860c01b620007b160201b60201c565b6200064067f6ab5a442f5b307260c01b620007b160201b60201c565b6200066e336104d26040518060600160405280602c815260200162006609602c9139620008d960201b60201c565b620006db565b6200068f6671197280fc586b60c01b620007b160201b60201c565b620006ab677183953c2eab5f8e60c01b620007b160201b60201c565b620006c7678fb6dffa064b500660c01b620007b160201b60201c565b620006da838383620008d960201b60201c565b5b50505050620016d7565b600033905090565b60008060009054906101000a900473ffffffffffffffffffffffffffffffffffffffff169050816000806101000a81548173ffffffffffffffffffffffffffffffffffffffff021916908373ffffffffffffffffffffffffffffffffffffffff1602179055508173ffffffffffffffffffffffffffffffffffffffff168173ffffffffffffffffffffffffffffffffffffffff167f8be0079c531659141344cd1fd0a4f28419497f9722a3daafe3b4186f6b6457e060405160405180910390a35050565b50565b60008060009054906101000a900473ffffffffffffffffffffffffffffffffffffffff16905090565b620007ef828262000eac60201b60201c565b620008ca57600180600084815260200190815260200160002060000160008373ffffffffffffffffffffffffffffffffffffffff1673ffffffffffffffffffffffffffffffffffffffff16815260200190815260200160002060006101000a81548160ff0219169083151502179055506200086f620006e560201b60201c565b73ffffffffffffffffffffffffffffffffffffffff168173ffffffffffffffffffffffffffffffffffffffff16837f2f8788117e7eff1d82e926ec794901d17c78024a50270940304540a733656f0d60405160405180910390a45b5050565b600060019050919050565b620008f56738c817086cae754e60c01b620007b160201b60201c565b6200091167f32ce0e3454cdc2860c01b620007b160201b60201c565b82600460008460070b60070b815260200190815260200160002060006101000a81548173ffffffffffffffffffffffffffffffffffffffff021916908373ffffffffffffffffffffffffffffffffffffffff16021790555062000985670323494ccccd0fea60c01b620007b160201b60201c565b826006604051620009969062001670565b908152602001604051809103902060006101000a81548173ffffffffffffffffffffffffffffffffffffffff021916908373ffffffffffffffffffffffffffffffffffffffff160217905550620009fe67a342d920d088963660c01b620007b160201b60201c565b6040518060c001604052808473ffffffffffffffffffffffffffffffffffffffff1681526020018360070b81526020016001151581526020018473ffffffffffffffffffffffffffffffffffffffff1681526020016040518060400160405280600481526020017f4164616d00000000000000000000000000000000000000000000000000000000815250815260200182815250600560008573ffffffffffffffffffffffffffffffffffffffff1673ffffffffffffffffffffffffffffffffffffffff16815260200190815260200160002060008201518160000160006101000a81548173ffffffffffffffffffffffffffffffffffffffff021916908373ffffffffffffffffffffffffffffffffffffffff16021790555060208201518160000160146101000a81548167ffffffffffffffff021916908360070b67ffffffffffffffff160217905550604082015181600001601c6101000a81548160ff02191690831515021790555060608201518160010160006101000a81548173ffffffffffffffffffffffffffffffffffffffff021916908373ffffffffffffffffffffffffffffffffffffffff160217905550608082015181600201908162000bc8919062001539565b5060a082015181600301908162000be0919062001539565b5090505062000c0067f5a07d877f03d61d60c01b620007b160201b60201c565b6001600560008573ffffffffffffffffffffffffffffffffffffffff1673ffffffffffffffffffffffffffffffffffffffff168152602001908152602001600020600001601c6101000a81548160ff02191690831515021790555062000c77678f889307d91cf17b60c01b620007b160201b60201c565b33600560008573ffffffffffffffffffffffffffffffffffffffff1673ffffffffffffffffffffffffffffffffffffffff16815260200190815260200160002060010160006101000a81548173ffffffffffffffffffffffffffffffffffffffff021916908373ffffffffffffffffffffffffffffffffffffffff16021790555062000d14672a23f92497e73fae60c01b620007b160201b60201c565b62000d30673c7b35dc2eb075a260c01b620007b160201b60201c565b600062000d786040518060400160405280600181526020017f300000000000000000000000000000000000000000000000000000000000000081525062000f1760201b60201c565b905062000d9667ba6a97f464ab75c060c01b620007b160201b60201c565b6001600760008373ffffffffffffffffffffffffffffffffffffffff1673ffffffffffffffffffffffffffffffffffffffff16815260200190815260200160002060008673ffffffffffffffffffffffffffffffffffffffff1673ffffffffffffffffffffffffffffffffffffffff16815260200190815260200160002060006101000a81548160ff02191690831515021790555062000e47677188eaaf63fcafa460c01b620007b160201b60201c565b62000e63670309d1d2153540d060c01b620007b160201b60201c565b8373ffffffffffffffffffffffffffffffffffffffff167f908408e307fc569b417f6cbec5d5a06f44a0a505ac0479b47d421a4b2fd6a1e660405160405180910390a250505050565b60006001600084815260200190815260200160002060000160008373ffffffffffffffffffffffffffffffffffffffff1673ffffffffffffffffffffffffffffffffffffffff16815260200190815260200160002060009054906101000a900460ff16905092915050565b600062000f3567cfd2867b71978f1360c01b620007b160201b60201c565b62000f5167beb43525d3b9f99260c01b620007b160201b60201c565b62000f6d67b3ddf0b30e9657c560c01b620007b160201b60201c565b60068260405162000f7f9190620016be565b908152602001604051809103902060009054906101000a900473ffffffffffffffffffffffffffffffffffffffff169050919050565b6000604051905090565b600080fd5b600080fd5b600073ffffffffffffffffffffffffffffffffffffffff82169050919050565b600062000ff68262000fc9565b9050919050565b620010088162000fe9565b81146200101457600080fd5b50565b600081519050620010288162000ffd565b92915050565b60008160070b9050919050565b62001046816200102e565b81146200105257600080fd5b50565b60008151905062001066816200103b565b92915050565b600080fd5b600080fd5b6000601f19601f8301169050919050565b7f4e487b7100000000000000000000000000000000000000000000000000000000600052604160045260246000fd5b620010c18262001076565b810181811067ffffffffffffffff82111715620010e357620010e262001087565b5b80604052505050565b6000620010f862000fb5565b9050620011068282620010b6565b919050565b600067ffffffffffffffff82111562001129576200112862001087565b5b620011348262001076565b9050602081019050919050565b60005b838110156200116157808201518184015260208101905062001144565b60008484015250505050565b6000620011846200117e846200110b565b620010ec565b905082815260208101848484011115620011a357620011a262001071565b5b620011b084828562001141565b509392505050565b600082601f830112620011d057620011cf6200106c565b5b8151620011e28482602086016200116d565b91505092915050565b6000806000806080858703121562001208576200120762000fbf565b5b6000620012188782880162001017565b94505060206200122b8782880162001017565b93505060406200123e8782880162001055565b925050606085015167ffffffffffffffff81111562001262576200126162000fc4565b5b6200127087828801620011b8565b91505092959194509250565b600081905092915050565b7f3000000000000000000000000000000000000000000000000000000000000000600082015250565b6000620012bf6001836200127c565b9150620012cc8262001287565b600182019050919050565b6000620012e482620012b0565b9150819050919050565b600081519050919050565b7f4e487b7100000000000000000000000000000000000000000000000000000000600052602260045260246000fd5b600060028204905060018216806200134157607f821691505b602082108103620013575762001356620012f9565b5b50919050565b60008190508160005260206000209050919050565b60006020601f8301049050919050565b600082821b905092915050565b600060088302620013c17fffffffffffffffffffffffffffffffffffffffffffffffffffffffffffffffff8262001382565b620013cd868362001382565b95508019841693508086168417925050509392505050565b6000819050919050565b6000819050919050565b60006200141a620014146200140e84620013e5565b620013ef565b620013e5565b9050919050565b6000819050919050565b6200143683620013f9565b6200144e620014458262001421565b8484546200138f565b825550505050565b600090565b6200146562001456565b620014728184846200142b565b505050565b5b818110156200149a576200148e6000826200145b565b60018101905062001478565b5050565b601f821115620014e957620014b3816200135d565b620014be8462001372565b81016020851015620014ce578190505b620014e6620014dd8562001372565b83018262001477565b50505b505050565b600082821c905092915050565b60006200150e60001984600802620014ee565b1980831691505092915050565b6000620015298383620014fb565b9150826002028217905092915050565b6200154482620012ee565b67ffffffffffffffff81111562001560576200155f62001087565b5b6200156c825462001328565b620015798282856200149e565b600060209050601f831160018114620015b157600084156200159c578287015190505b620015a885826200151b565b86555062001618565b601f198416620015c1866200135d565b60005b82811015620015eb57848901518255600182019150602085019450602081019050620015c4565b868310156200160b578489015162001607601f891682620014fb565b8355505b6001600288020188555050505b505050505050565b7f4164616d00000000000000000000000000000000000000000000000000000000600082015250565b6000620016586004836200127c565b9150620016658262001620565b600482019050919050565b60006200167d8262001649565b9150819050919050565b60006200169482620012ee565b620016a081856200127c565b9350620016b281856020860162001141565b80840191505092915050565b6000620016cc828462001687565b915081905092915050565b614f2280620016e76000396000f3fe6080604052600436106101c15760003560e01c806361cabe37116100f7578063b233e5eb11610095578063d2114e1811610064578063d2114e181461066a578063d2125bd2146106a7578063d547741f146106d0578063f2fde38b146106f9576101c1565b8063b233e5eb146105ab578063b44cf600146105d4578063b932fbfa146105f0578063c1cada781461062d576101c1565b80637cec446b116100d15780637cec446b146104db5780638da5cb5b1461051857806391d1485414610543578063a217fddf14610580576101c1565b806361cabe3714610470578063679b06be146104ad578063715018a6146104c4576101c1565b8063248a9ca311610164578063387439041161013e57806338743904146103b2578063460e6c9c146103dd57806348dc15611461041a5780635d1ce88f14610445576101c1565b8063248a9ca3146103235780632f2ff15d1461036057806336568abe14610389576101c1565b80630ae50a39116101a05780630ae50a39146102555780630d48cae8146102805780631892fd78146102bd5780632067eac8146102fa576101c1565b8062d396ed146101c6578063018d3dc9146101ef57806301ffc9a714610218575b600080fd5b3480156101d257600080fd5b506101ed60048036038101906101e89190613ad1565b610722565b005b3480156101fb57600080fd5b5061021660048036038101906102119190613c44565b610d34565b005b34801561022457600080fd5b5061023f600480360381019061023a9190613d14565b610f8e565b60405161024c9190613d5c565b60405180910390f35b34801561026157600080fd5b5061026a611008565b6040516102779190613db8565b60405180910390f35b34801561028c57600080fd5b506102a760048036038101906102a29190613dd3565b61106e565b6040516102b49190613f58565b60405180910390f35b3480156102c957600080fd5b506102e460048036038101906102df9190613fa6565b61136f565b6040516102f19190613f58565b60405180910390f35b34801561030657600080fd5b50610321600480360381019061031c9190613fa6565b61163a565b005b34801561032f57600080fd5b5061034a60048036038101906103459190614009565b611ad2565b6040516103579190614045565b60405180910390f35b34801561036c57600080fd5b5061038760048036038101906103829190614060565b611af2565b005b34801561039557600080fd5b506103b060048036038101906103ab9190614060565b611b13565b005b3480156103be57600080fd5b506103c7611b96565b6040516103d49190614045565b60405180910390f35b3480156103e957600080fd5b5061040460048036038101906103ff91906140a0565b611bba565b6040516104119190613d5c565b60405180910390f35b34801561042657600080fd5b5061042f611be9565b60405161043c91906140f9565b60405180910390f35b34801561045157600080fd5b5061045a611c2f565b6040516104679190614045565b60405180910390f35b34801561047c57600080fd5b5061049760048036038101906104929190613fa6565b611c93565b6040516104a49190614123565b60405180910390f35b3480156104b957600080fd5b506104c2611d27565b005b3480156104d057600080fd5b506104d9611e82565b005b3480156104e757600080fd5b5061050260048036038101906104fd9190613ad1565b611e96565b60405161050f9190613db8565b60405180910390f35b34801561052457600080fd5b5061052d611f15565b60405161053a9190613db8565b60405180910390f35b34801561054f57600080fd5b5061056a60048036038101906105659190614060565b611f3e565b6040516105779190613d5c565b60405180910390f35b34801561058c57600080fd5b50610595611fa9565b6040516105a29190614045565b60405180910390f35b3480156105b757600080fd5b506105d260048036038101906105cd919061413e565b611fb0565b005b6105ee60048036038101906105e9919061419a565b61249c565b005b3480156105fc57600080fd5b5061061760048036038101906106129190613fa6565b612a87565b604051610624919061429f565b60405180910390f35b34801561063957600080fd5b50610654600480360381019061064f9190613ad1565b612b35565b6040516106619190613f58565b60405180910390f35b34801561067657600080fd5b50610691600480360381019061068c9190613dd3565b612e36565b60405161069e9190613db8565b60405180910390f35b3480156106b357600080fd5b506106ce60048036038101906106c991906142ed565b612eba565b005b3480156106dc57600080fd5b506106f760048036038101906106f29190614060565b612f1c565b005b34801561070557600080fd5b50610720600480360381019061071b9190613fa6565b612f3d565b005b6107366767970f17f6a2050560c01b612fc0565b61074a6742af3ad2f03190a660c01b612fc0565b61075e67b62ca75fb082691860c01b612fc0565b600061076982611e96565b905061077f672bd60862cf3d7abc60c01b612fc0565b610793670cc40b3735e1945860c01b612fc0565b6000600560008373ffffffffffffffffffffffffffffffffffffffff1673ffffffffffffffffffffffffffffffffffffffff16815260200190815260200160002060020180546107e290614349565b80601f016020809104026020016040519081016040528092919081815260200182805461080e90614349565b801561085b5780601f106108305761010080835404028352916020019161085b565b820191906000526020600020905b81548152906001019060200180831161083e57829003601f168201915b5050505050905061087667a59c43199e914a3060c01b612fc0565b61088a67ad8ea9e8bd444f5360c01b612fc0565b61089e6703556fe5455c4cf960c01b612fc0565b60001515600560008473ffffffffffffffffffffffffffffffffffffffff1673ffffffffffffffffffffffffffffffffffffffff168152602001908152602001600020600001601c9054906101000a900460ff16151514610934576040517f08c379a000000000000000000000000000000000000000000000000000000000815260040161092b906143ec565b60405180910390fd5b61094867cd5c7fd9b70608a860c01b612fc0565b61095c67adbdccd5dff5404160c01b612fc0565b6109706733f435095181745460c01b612fc0565b6000600760003373ffffffffffffffffffffffffffffffffffffffff1673ffffffffffffffffffffffffffffffffffffffff16815260200190815260200160002060008473ffffffffffffffffffffffffffffffffffffffff1673ffffffffffffffffffffffffffffffffffffffff16815260200190815260200160002060009054906101000a900460ff169050610a12672c4ca7ebc106531c60c01b612fc0565b610a26672dc13ecc5a47fb3b60c01b612fc0565b610a3a67a25661655a50409460c01b612fc0565b6000151581151514610a81576040517f08c379a0000000000000000000000000000000000000000000000000000000008152600401610a7890614458565b60405180910390fd5b610a95672bc489da782e7b1c60c01b612fc0565b610aa967af7dfe753427f71660c01b612fc0565b600560008473ffffffffffffffffffffffffffffffffffffffff1673ffffffffffffffffffffffffffffffffffffffff168152602001908152602001600020600080820160006101000a81549073ffffffffffffffffffffffffffffffffffffffff02191690556000820160146101000a81549067ffffffffffffffff021916905560008201601c6101000a81549060ff02191690556001820160006101000a81549073ffffffffffffffffffffffffffffffffffffffff0219169055600282016000610b7691906139c0565b600382016000610b8691906139c0565b5050610b9c67ad89d31d4f70f71d60c01b612fc0565b600460008560070b60070b815260200190815260200160002060006101000a81549073ffffffffffffffffffffffffffffffffffffffff0219169055610bec6704cc0fbe2a91de7760c01b612fc0565b600682604051610bfc91906144b4565b908152602001604051809103902060006101000a81549073ffffffffffffffffffffffffffffffffffffffff0219169055610c4167261baf9d72cae4d860c01b612fc0565b600760003373ffffffffffffffffffffffffffffffffffffffff1673ffffffffffffffffffffffffffffffffffffffff16815260200190815260200160002060008473ffffffffffffffffffffffffffffffffffffffff1673ffffffffffffffffffffffffffffffffffffffff16815260200190815260200160002060006101000a81549060ff0219169055610ce167b95ec29360e0d5f260c01b612fc0565b610cf567c32e041dcb99611460c01b612fc0565b7f7f25a59d906bf9fb883c74ad54e4b0e924fb0326f2f946caf2875485585d0fbf8484604051610d269291906144cb565b60405180910390a150505050565b610d486750eff3f37aab242e60c01b612fc0565b610d5c674d0eb020ce4ac17e60c01b612fc0565b610d7067ed189822bbf4386660c01b612fc0565b6000610d7b82612e36565b9050610d9167cdb416705d1804e960c01b612fc0565b610da5674658b83058688d0b60c01b612fc0565b6000610db084612e36565b9050610dc667f3ad88d07349bec760c01b612fc0565b610dda67ccc69cd08319a6aa60c01b612fc0565b610dee67c41f79bf2012892660c01b612fc0565b3373ffffffffffffffffffffffffffffffffffffffff168273ffffffffffffffffffffffffffffffffffffffff1614610e5c576040517f08c379a0000000000000000000000000000000000000000000000000000000008152600401610e5390614566565b60405180910390fd5b610e70675654cf00867100f360c01b612fc0565b610e8467cf7d0e3d0a5d2a2560c01b612fc0565b6000600560008473ffffffffffffffffffffffffffffffffffffffff1673ffffffffffffffffffffffffffffffffffffffff168152602001908152602001600020600001601c6101000a81548160ff021916908315150217905550610ef367f81dcab9a32cd27660c01b612fc0565b6000600760008373ffffffffffffffffffffffffffffffffffffffff1673ffffffffffffffffffffffffffffffffffffffff16815260200190815260200160002060003373ffffffffffffffffffffffffffffffffffffffff1673ffffffffffffffffffffffffffffffffffffffff16815260200190815260200160002060006101000a81548160ff02191690831515021790555050505050565b60007f7965db0b000000000000000000000000000000000000000000000000000000007bffffffffffffffffffffffffffffffffffffffffffffffffffffffff1916827bffffffffffffffffffffffffffffffffffffffffffffffffffffffff19161480611001575061100082612fc3565b5b9050919050565b600061101e67fde892afcfdb2a1b60c01b612fc0565b611032670413e234790fe02660c01b612fc0565b611046678a1e220b94c3d29060c01b612fc0565b600360009054906101000a900473ffffffffffffffffffffffffffffffffffffffff16905090565b611076613a00565b61108a679151d94f45591aac60c01b612fc0565b61109e6760357b16dfcb955860c01b612fc0565b6110b26715736234aedef7b060c01b612fc0565b60006110bd83612e36565b90506110d3670230f9f64bad9b1660c01b612fc0565b6110e767691bea52dad96d8060c01b612fc0565b6000600560008373ffffffffffffffffffffffffffffffffffffffff1673ffffffffffffffffffffffffffffffffffffffff1681526020019081526020016000206040518060c00160405290816000820160009054906101000a900473ffffffffffffffffffffffffffffffffffffffff1673ffffffffffffffffffffffffffffffffffffffff1673ffffffffffffffffffffffffffffffffffffffff1681526020016000820160149054906101000a900460070b60070b60070b815260200160008201601c9054906101000a900460ff161515151581526020016001820160009054906101000a900473ffffffffffffffffffffffffffffffffffffffff1673ffffffffffffffffffffffffffffffffffffffff1673ffffffffffffffffffffffffffffffffffffffff16815260200160028201805461122790614349565b80601f016020809104026020016040519081016040528092919081815260200182805461125390614349565b80156112a05780601f10611275576101008083540402835291602001916112a0565b820191906000526020600020905b81548152906001019060200180831161128357829003601f168201915b505050505081526020016003820180546112b990614349565b80601f01602080910402602001604051908101604052809291908181526020018280546112e590614349565b80156113325780601f1061130757610100808354040283529160200191611332565b820191906000526020600020905b81548152906001019060200180831161131557829003601f168201915b505050505081525050905061135167abb3d5051696e7f260c01b612fc0565b61136567ce37ee698102fb1d60c01b612fc0565b8092505050919050565b611377613a00565b61138b67f716a7325900056d60c01b612fc0565b61139f67dac8491cbcadd76e60c01b612fc0565b6113b367f09a47b34b717d6160c01b612fc0565b6000600560008473ffffffffffffffffffffffffffffffffffffffff1673ffffffffffffffffffffffffffffffffffffffff1681526020019081526020016000206040518060c00160405290816000820160009054906101000a900473ffffffffffffffffffffffffffffffffffffffff1673ffffffffffffffffffffffffffffffffffffffff1673ffffffffffffffffffffffffffffffffffffffff1681526020016000820160149054906101000a900460070b60070b60070b815260200160008201601c9054906101000a900460ff161515151581526020016001820160009054906101000a900473ffffffffffffffffffffffffffffffffffffffff1673ffffffffffffffffffffffffffffffffffffffff1673ffffffffffffffffffffffffffffffffffffffff1681526020016002820180546114f390614349565b80601f016020809104026020016040519081016040528092919081815260200182805461151f90614349565b801561156c5780601f106115415761010080835404028352916020019161156c565b820191906000526020600020905b81548152906001019060200180831161154f57829003601f168201915b5050505050815260200160038201805461158590614349565b80601f01602080910402602001604051908101604052809291908181526020018280546115b190614349565b80156115fe5780601f106115d3576101008083540402835291602001916115fe565b820191906000526020600020905b8154815290600101906020018083116115e157829003601f168201915b505050505081525050905061161d6785c529223c51d9ac60c01b612fc0565b6116316788b90a70c925d1ee60c01b612fc0565b80915050919050565b61164e67e07b6a5b6dd0bf2560c01b612fc0565b7fcea62fe6ecc79e221c545bf918f804693c542ead2549e37c2bb9baa66ee2e1576116788161302d565b61168c67384ceeff6879c78860c01b612fc0565b6116a0673f9e63fb1164d62c60c01b612fc0565b6116b467c7fba6d515613f8e60c01b612fc0565b6116c8678a92cbf1b688539160c01b612fc0565b6000600560008473ffffffffffffffffffffffffffffffffffffffff1673ffffffffffffffffffffffffffffffffffffffff16815260200190815260200160002060000160149054906101000a900460070b905061173067919db8773e2bd0a460c01b612fc0565b61174467b07414a62d724bc460c01b612fc0565b6000600560008573ffffffffffffffffffffffffffffffffffffffff1673ffffffffffffffffffffffffffffffffffffffff168152602001908152602001600020600201805461179390614349565b80601f01602080910402602001604051908101604052809291908181526020018280546117bf90614349565b801561180c5780601f106117e15761010080835404028352916020019161180c565b820191906000526020600020905b8154815290600101906020018083116117ef57829003601f168201915b50505050509050611827672c909deb355465d360c01b612fc0565b61183b6736b964c465747c5060c01b612fc0565b600046905061185366f0738ffe3b349760c01b612fc0565b61186767e73b9e7298c090d860c01b612fc0565b61187b67c75e52e7095b86f360c01b612fc0565b600581146118be576040517f08c379a00000000000000000000000000000000000000000000000000000000081526004016118b5906145f8565b60405180910390fd5b6118d267b16a3e0400b426a260c01b612fc0565b6118e667b7f0ade374b98e2660c01b612fc0565b600560008673ffffffffffffffffffffffffffffffffffffffff1673ffffffffffffffffffffffffffffffffffffffff168152602001908152602001600020600080820160006101000a81549073ffffffffffffffffffffffffffffffffffffffff02191690556000820160146101000a81549067ffffffffffffffff021916905560008201601c6101000a81549060ff02191690556001820160006101000a81549073ffffffffffffffffffffffffffffffffffffffff02191690556002820160006119b391906139c0565b6003820160006119c391906139c0565b50506119d9670a8a19b274c8f13460c01b612fc0565b600460008460070b60070b815260200190815260200160002060006101000a81549073ffffffffffffffffffffffffffffffffffffffff0219169055611a296718b90bb650b6be4060c01b612fc0565b600682604051611a3991906144b4565b908152602001604051809103902060006101000a81549073ffffffffffffffffffffffffffffffffffffffff0219169055611a7e67b3c75e8941cbc4b760c01b612fc0565b611a92678bba4c2e76872e2760c01b612fc0565b7f7f25a59d906bf9fb883c74ad54e4b0e924fb0326f2f946caf2875485585d0fbf8386604051611ac39291906144cb565b60405180910390a15050505050565b600060016000838152602001908152602001600020600101549050919050565b611afb82611ad2565b611b048161302d565b611b0e8383613041565b505050565b611b1b613121565b73ffffffffffffffffffffffffffffffffffffffff168173ffffffffffffffffffffffffffffffffffffffff1614611b88576040517f08c379a0000000000000000000000000000000000000000000000000000000008152600401611b7f9061468a565b60405180910390fd5b611b928282613129565b5050565b7fcea62fe6ecc79e221c545bf918f804693c542ead2549e37c2bb9baa66ee2e15781565b60076020528160005260406000206020528060005260406000206000915091509054906101000a900460ff1681565b6000611bff67149dcb8d8a4ea6af60c01b612fc0565b611c1367a5f5df5dc566b2ae60c01b612fc0565b611c2767ed3b447c32ea9b3760c01b612fc0565b600254905090565b6000611c45675bbc627d40f1593360c01b612fc0565b611c596756ed4f09bbdf532e60c01b612fc0565b611c6d670307e939a88ec9ef60c01b612fc0565b7fcea62fe6ecc79e221c545bf918f804693c542ead2549e37c2bb9baa66ee2e157905090565b6000611ca96759f42848dc38fa5060c01b612fc0565b611cbd6758f05f3beb36095760c01b612fc0565b611cd1670c7746f9a8f3807460c01b612fc0565b6000611cdc8361136f565b9050611cf2675c2061c103428ab960c01b612fc0565b80602001519150611d0d67e910bf8c81a51b6060c01b612fc0565b611d2167cf279d105aa5da9760c01b612fc0565b50919050565b611d3b6747d48e56e635907160c01b612fc0565b611d4f6723d0069fdde8902a60c01b612fc0565b611d6367846baeb18b97ab2260c01b612fc0565b6000600560003373ffffffffffffffffffffffffffffffffffffffff1673ffffffffffffffffffffffffffffffffffffffff168152602001908152602001600020600001601c9054906101000a900460ff169050611dcb677cadc440b8a7941660c01b612fc0565b611ddf67300eab930c48c7cf60c01b612fc0565b611df367deb2704b0425ec5f60c01b612fc0565b6000151581151514611e3a576040517f08c379a0000000000000000000000000000000000000000000000000000000008152600401611e31906146f6565b60405180910390fd5b611e4e67aa8b070a48feecaf60c01b612fc0565b611e62674f49fa66db5c2d3560c01b612fc0565b611e76677d87a7c0b4d6383860c01b612fc0565b611e7f3361320b565b50565b611e8a613590565b611e94600061360e565b565b6000611eac67b0b3d58f5cb31a6460c01b612fc0565b611ec0670d5fd98df7fe512860c01b612fc0565b611ed46791e269170ff2b53d60c01b612fc0565b600460008360070b60070b815260200190815260200160002060009054906101000a900473ffffffffffffffffffffffffffffffffffffffff169050919050565b60008060009054906101000a900473ffffffffffffffffffffffffffffffffffffffff16905090565b60006001600084815260200190815260200160002060000160008373ffffffffffffffffffffffffffffffffffffffff1673ffffffffffffffffffffffffffffffffffffffff16815260200190815260200160002060009054906101000a900460ff16905092915050565b6000801b81565b611fc46746a1ff942e1aad9460c01b612fc0565b611fd8679c55f9015e7f2a9f60c01b612fc0565b611fec67f2239ab123bb2f0660c01b612fc0565b6000600682604051611ffe91906144b4565b908152602001604051809103902060009054906101000a900473ffffffffffffffffffffffffffffffffffffffff16905061204367e96f8129be87cd8860c01b612fc0565b612057670dc5b089bafe562160c01b612fc0565b61206b67b8b45261a0efecaa60c01b612fc0565b3373ffffffffffffffffffffffffffffffffffffffff168173ffffffffffffffffffffffffffffffffffffffff16146120d9576040517f08c379a00000000000000000000000000000000000000000000000000000000081526004016120d090614762565b60405180910390fd5b6120ed679adec2db79a93e8e60c01b612fc0565b6121016756a20f9a5e5cdfb060c01b612fc0565b61211567745bec9852be437160c01b612fc0565b600061212084611e96565b905061213667e91d73fcca1f5f3360c01b612fc0565b61214a677dc4b53ebbb167e260c01b612fc0565b6000600760008473ffffffffffffffffffffffffffffffffffffffff1673ffffffffffffffffffffffffffffffffffffffff16815260200190815260200160002060008373ffffffffffffffffffffffffffffffffffffffff1673ffffffffffffffffffffffffffffffffffffffff16815260200190815260200160002060009054906101000a900460ff1690506121ec67a9ec23565e0f7a6a60c01b612fc0565b61220067ae62e955f184c26660c01b612fc0565b61221467da45e49be470f54560c01b612fc0565b600015158115151461225b576040517f08c379a0000000000000000000000000000000000000000000000000000000008152600401612252906147ce565b60405180910390fd5b61226f67b560b955e885b3d960c01b612fc0565b612283672a6485aae7b3912e60c01b612fc0565b6001600560008473ffffffffffffffffffffffffffffffffffffffff1673ffffffffffffffffffffffffffffffffffffffff168152602001908152602001600020600001601c6101000a81548160ff0219169083151502179055506122f2672cc0de6dfb8da7ae60c01b612fc0565b33600560008473ffffffffffffffffffffffffffffffffffffffff1673ffffffffffffffffffffffffffffffffffffffff16815260200190815260200160002060010160006101000a81548173ffffffffffffffffffffffffffffffffffffffff021916908373ffffffffffffffffffffffffffffffffffffffff1602179055506123876785cc8879614de3f860c01b612fc0565b6001600760008573ffffffffffffffffffffffffffffffffffffffff1673ffffffffffffffffffffffffffffffffffffffff16815260200190815260200160002060008473ffffffffffffffffffffffffffffffffffffffff1673ffffffffffffffffffffffffffffffffffffffff16815260200190815260200160002060006101000a81548160ff0219169083151502179055506124306702ef8c4a26fe45df60c01b612fc0565b6124446721832d6d50e4989a60c01b612fc0565b8173ffffffffffffffffffffffffffffffffffffffff167fadbeb0a5d66e2be993428864e5c86f7c8aa562e2c58131d193ac2eeb7443817a84600160405161248d9291906147ee565b60405180910390a25050505050565b6124b067964db12009a5e93560c01b612fc0565b6124c467520c377e519cead360c01b612fc0565b6124d86788cf3f758204e91e60c01b612fc0565b60003390506124f167cbe3fda1eb5aaedb60c01b612fc0565b6125056707e3e0352eef8b8460c01b612fc0565b61251967329efbe7545c66ec60c01b612fc0565b600254341461255d576040517f08c379a000000000000000000000000000000000000000000000000000000000815260040161255490614863565b60405180910390fd5b612571676bc2d5bf34c5f41760c01b612fc0565b61258567f78deb7ee460023260c01b612fc0565b61259967e504760180f81c3c60c01b612fc0565b60006006846040516125ab91906144b4565b908152602001604051809103902060009054906101000a900473ffffffffffffffffffffffffffffffffffffffff1690506125f0675c2fcb80e85ced0760c01b612fc0565b6040518060c001604052808373ffffffffffffffffffffffffffffffffffffffff1681526020018760070b81526020016000151581526020018273ffffffffffffffffffffffffffffffffffffffff16815260200186815260200184815250600560003373ffffffffffffffffffffffffffffffffffffffff1673ffffffffffffffffffffffffffffffffffffffff16815260200190815260200160002060008201518160000160006101000a81548173ffffffffffffffffffffffffffffffffffffffff021916908373ffffffffffffffffffffffffffffffffffffffff16021790555060208201518160000160146101000a81548167ffffffffffffffff021916908360070b67ffffffffffffffff160217905550604082015181600001601c6101000a81548160ff02191690831515021790555060608201518160010160006101000a81548173ffffffffffffffffffffffffffffffffffffffff021916908373ffffffffffffffffffffffffffffffffffffffff16021790555060808201518160020190816127839190614a2f565b5060a08201518160030190816127999190614a2f565b509050506127b167612a2b049a56d03f60c01b612fc0565b6127c5673a8b195d5020af3460c01b612fc0565b6000600360009054906101000a900473ffffffffffffffffffffffffffffffffffffffff1673ffffffffffffffffffffffffffffffffffffffff1660025460405161280f90614b32565b60006040518083038185875af1925050503d806000811461284c576040519150601f19603f3d011682016040523d82523d6000602084013e612851565b606091505b50509050612869672dad4e38339de5b560c01b612fc0565b61287d6759fe569548ab5aa260c01b612fc0565b612891677b13ba9eae69862260c01b612fc0565b806128d1576040517f08c379a00000000000000000000000000000000000000000000000000000000081526004016128c890614b93565b60405180910390fd5b6128e567b6cc5cbafb3c3df160c01b612fc0565b6128f9677aa7f8e41712a19660c01b612fc0565b61290d67d2ac1bbf4c5c808960c01b612fc0565b8173ffffffffffffffffffffffffffffffffffffffff167f217213f52d0ada6519b1710cff4d5e622165afded08327f17577ff3c3037136088336040516129559291906144cb565b60405180910390a261297167ca81552f25b58d3d60c01b612fc0565b612985678bb3b4caaf0d079160c01b612fc0565b8173ffffffffffffffffffffffffffffffffffffffff167f2f9961dc36e79933613fb931d5ca8392c911b25840b07276e17e19961d22824088336040516129cd9291906144cb565b60405180910390a26129e9671b290725afb3e9c860c01b612fc0565b6000600760008473ffffffffffffffffffffffffffffffffffffffff1673ffffffffffffffffffffffffffffffffffffffff16815260200190815260200160002060003373ffffffffffffffffffffffffffffffffffffffff1673ffffffffffffffffffffffffffffffffffffffff16815260200190815260200160002060006101000a81548160ff02191690831515021790555050505050505050565b6060612a9d674aa85b1ed42922c960c01b612fc0565b612ab1679867b4358126caaf60c01b612fc0565b612ac5679241e6014d1c6ac460c01b612fc0565b6000612ad08361136f565b9050612ae66733f2473e3d0b11e260c01b612fc0565b612afa67903e3fd9c362d0fc60c01b612fc0565b60008160a001519050612b176743be460090a62f1b60c01b612fc0565b612b2b67a3096189d85088e360c01b612fc0565b8092505050919050565b612b3d613a00565b612b5167ab0606364918015d60c01b612fc0565b612b6567c765873ddc26654d60c01b612fc0565b612b796788463750819be79960c01b612fc0565b6000612b8483611e96565b9050612b9a67d686d15b2246682860c01b612fc0565b612bae6774cc94daeb64bd8660c01b612fc0565b6000600560008373ffffffffffffffffffffffffffffffffffffffff1673ffffffffffffffffffffffffffffffffffffffff1681526020019081526020016000206040518060c00160405290816000820160009054906101000a900473ffffffffffffffffffffffffffffffffffffffff1673ffffffffffffffffffffffffffffffffffffffff1673ffffffffffffffffffffffffffffffffffffffff1681526020016000820160149054906101000a900460070b60070b60070b815260200160008201601c9054906101000a900460ff161515151581526020016001820160009054906101000a900473ffffffffffffffffffffffffffffffffffffffff1673ffffffffffffffffffffffffffffffffffffffff1673ffffffffffffffffffffffffffffffffffffffff168152602001600282018054612cee90614349565b80601f0160208091040260200160405190810160405280929190818152602001828054612d1a90614349565b8015612d675780601f10612d3c57610100808354040283529160200191612d67565b820191906000526020600020905b815481529060010190602001808311612d4a57829003601f168201915b50505050508152602001600382018054612d8090614349565b80601f0160208091040260200160405190810160405280929190818152602001828054612dac90614349565b8015612df95780601f10612dce57610100808354040283529160200191612df9565b820191906000526020600020905b815481529060010190602001808311612ddc57829003601f168201915b5050505050815250509050612e1867dda08066813b7f6960c01b612fc0565b612e2c670e92586ce24acaf960c01b612fc0565b8092505050919050565b6000612e4c67cfd2867b71978f1360c01b612fc0565b612e6067beb43525d3b9f99260c01b612fc0565b612e7467b3ddf0b30e9657c560c01b612fc0565b600682604051612e8491906144b4565b908152602001604051809103902060009054906101000a900473ffffffffffffffffffffffffffffffffffffffff169050919050565b612ece67ac7d03bb3ecbb2e460c01b612fc0565b612ed6613590565b612eea67b2ee1c8d47a0765360c01b612fc0565b612efe6777ae2223821f1f8360c01b612fc0565b612f1267ab11d2fec782b7da60c01b612fc0565b8060028190555050565b612f2582611ad2565b612f2e8161302d565b612f388383613129565b505050565b612f45613590565b600073ffffffffffffffffffffffffffffffffffffffff168173ffffffffffffffffffffffffffffffffffffffff1603612fb4576040517f08c379a0000000000000000000000000000000000000000000000000000000008152600401612fab90614c25565b60405180910390fd5b612fbd8161360e565b50565b50565b60007f01ffc9a7000000000000000000000000000000000000000000000000000000007bffffffffffffffffffffffffffffffffffffffffffffffffffffffff1916827bffffffffffffffffffffffffffffffffffffffffffffffffffffffff1916149050919050565b61303e81613039613121565b6136d2565b50565b61304b8282611f3e565b61311d57600180600084815260200190815260200160002060000160008373ffffffffffffffffffffffffffffffffffffffff1673ffffffffffffffffffffffffffffffffffffffff16815260200190815260200160002060006101000a81548160ff0219169083151502179055506130c2613121565b73ffffffffffffffffffffffffffffffffffffffff168173ffffffffffffffffffffffffffffffffffffffff16837f2f8788117e7eff1d82e926ec794901d17c78024a50270940304540a733656f0d60405160405180910390a45b5050565b600033905090565b6131338282611f3e565b156132075760006001600084815260200190815260200160002060000160008373ffffffffffffffffffffffffffffffffffffffff1673ffffffffffffffffffffffffffffffffffffffff16815260200190815260200160002060006101000a81548160ff0219169083151502179055506131ac613121565b73ffffffffffffffffffffffffffffffffffffffff168173ffffffffffffffffffffffffffffffffffffffff16837ff6391f5c32d9c69d2a47ea670b442974b53935d1edc7fd64eb21e047a839171b60405160405180910390a45b5050565b61321f67f2b4d1fbd850104b60c01b612fc0565b61323367b73cf3de9112e57f60c01b612fc0565b613247676e687a5b3e1d1c8560c01b612fc0565b6000600560008373ffffffffffffffffffffffffffffffffffffffff1673ffffffffffffffffffffffffffffffffffffffff16815260200190815260200160002060000160149054906101000a900460070b90506132af67b703dc262f68917860c01b612fc0565b6132c36798da3347aa0769e160c01b612fc0565b6000600560008473ffffffffffffffffffffffffffffffffffffffff1673ffffffffffffffffffffffffffffffffffffffff168152602001908152602001600020600201805461331290614349565b80601f016020809104026020016040519081016040528092919081815260200182805461333e90614349565b801561338b5780601f106133605761010080835404028352916020019161338b565b820191906000526020600020905b81548152906001019060200180831161336e57829003601f168201915b505050505090506133a667b315727642f9285d60c01b612fc0565b600560008473ffffffffffffffffffffffffffffffffffffffff1673ffffffffffffffffffffffffffffffffffffffff168152602001908152602001600020600080820160006101000a81549073ffffffffffffffffffffffffffffffffffffffff02191690556000820160146101000a81549067ffffffffffffffff021916905560008201601c6101000a81549060ff02191690556001820160006101000a81549073ffffffffffffffffffffffffffffffffffffffff021916905560028201600061347391906139c0565b60038201600061348391906139c0565b5050613499672d952c4dc687690960c01b612fc0565b600460008360070b60070b815260200190815260200160002060006101000a81549073ffffffffffffffffffffffffffffffffffffffff02191690556134e96728475ed2d0d68aec60c01b612fc0565b6006816040516134f991906144b4565b908152602001604051809103902060006101000a81549073ffffffffffffffffffffffffffffffffffffffff021916905561353e672903bf9e057e6a1a60c01b612fc0565b6135526706f7dcbd84b04e0960c01b612fc0565b7f7f25a59d906bf9fb883c74ad54e4b0e924fb0326f2f946caf2875485585d0fbf82846040516135839291906144cb565b60405180910390a1505050565b613598613121565b73ffffffffffffffffffffffffffffffffffffffff166135b6611f15565b73ffffffffffffffffffffffffffffffffffffffff161461360c576040517f08c379a000000000000000000000000000000000000000000000000000000000815260040161360390614c91565b60405180910390fd5b565b60008060009054906101000a900473ffffffffffffffffffffffffffffffffffffffff169050816000806101000a81548173ffffffffffffffffffffffffffffffffffffffff021916908373ffffffffffffffffffffffffffffffffffffffff1602179055508173ffffffffffffffffffffffffffffffffffffffff168173ffffffffffffffffffffffffffffffffffffffff167f8be0079c531659141344cd1fd0a4f28419497f9722a3daafe3b4186f6b6457e060405160405180910390a35050565b6136dc8282611f3e565b613753576136e981613757565b6136f78360001c6020613784565b604051602001613708929190614d49565b6040516020818303038152906040526040517f08c379a000000000000000000000000000000000000000000000000000000000815260040161374a919061429f565b60405180910390fd5b5050565b606061377d8273ffffffffffffffffffffffffffffffffffffffff16601460ff16613784565b9050919050565b6060600060028360026137979190614db2565b6137a19190614df4565b67ffffffffffffffff8111156137ba576137b9613b19565b5b6040519080825280601f01601f1916602001820160405280156137ec5781602001600182028036833780820191505090505b5090507f30000000000000000000000000000000000000000000000000000000000000008160008151811061382457613823614e28565b5b60200101907effffffffffffffffffffffffffffffffffffffffffffffffffffffffffffff1916908160001a9053507f78000000000000000000000000000000000000000000000000000000000000008160018151811061388857613887614e28565b5b60200101907effffffffffffffffffffffffffffffffffffffffffffffffffffffffffffff1916908160001a905350600060018460026138c89190614db2565b6138d29190614df4565b90505b6001811115613972577f3031323334353637383961626364656600000000000000000000000000000000600f86166010811061391457613913614e28565b5b1a60f81b82828151811061392b5761392a614e28565b5b60200101907effffffffffffffffffffffffffffffffffffffffffffffffffffffffffffff1916908160001a905350600485901c94508061396b90614e57565b90506138d5565b50600084146139b6576040517f08c379a00000000000000000000000000000000000000000000000000000000081526004016139ad90614ecc565b60405180910390fd5b8091505092915050565b5080546139cc90614349565b6000825580601f106139de57506139fd565b601f0160209004906000526020600020908101906139fc9190613a67565b5b50565b6040518060c00160405280600073ffffffffffffffffffffffffffffffffffffffff168152602001600060070b8152602001600015158152602001600073ffffffffffffffffffffffffffffffffffffffff16815260200160608152602001606081525090565b5b80821115613a80576000816000905550600101613a68565b5090565b6000604051905090565b600080fd5b600080fd5b60008160070b9050919050565b613aae81613a98565b8114613ab957600080fd5b50565b600081359050613acb81613aa5565b92915050565b600060208284031215613ae757613ae6613a8e565b5b6000613af584828501613abc565b91505092915050565b600080fd5b600080fd5b6000601f19601f8301169050919050565b7f4e487b7100000000000000000000000000000000000000000000000000000000600052604160045260246000fd5b613b5182613b08565b810181811067ffffffffffffffff82111715613b7057613b6f613b19565b5b80604052505050565b6000613b83613a84565b9050613b8f8282613b48565b919050565b600067ffffffffffffffff821115613baf57613bae613b19565b5b613bb882613b08565b9050602081019050919050565b82818337600083830152505050565b6000613be7613be284613b94565b613b79565b905082815260208101848484011115613c0357613c02613b03565b5b613c0e848285613bc5565b509392505050565b600082601f830112613c2b57613c2a613afe565b5b8135613c3b848260208601613bd4565b91505092915050565b60008060408385031215613c5b57613c5a613a8e565b5b600083013567ffffffffffffffff811115613c7957613c78613a93565b5b613c8585828601613c16565b925050602083013567ffffffffffffffff811115613ca657613ca5613a93565b5b613cb285828601613c16565b9150509250929050565b60007fffffffff0000000000000000000000000000000000000000000000000000000082169050919050565b613cf181613cbc565b8114613cfc57600080fd5b50565b600081359050613d0e81613ce8565b92915050565b600060208284031215613d2a57613d29613a8e565b5b6000613d3884828501613cff565b91505092915050565b60008115159050919050565b613d5681613d41565b82525050565b6000602082019050613d716000830184613d4d565b92915050565b600073ffffffffffffffffffffffffffffffffffffffff82169050919050565b6000613da282613d77565b9050919050565b613db281613d97565b82525050565b6000602082019050613dcd6000830184613da9565b92915050565b600060208284031215613de957613de8613a8e565b5b600082013567ffffffffffffffff811115613e0757613e06613a93565b5b613e1384828501613c16565b91505092915050565b613e2581613d97565b82525050565b613e3481613a98565b82525050565b613e4381613d41565b82525050565b600081519050919050565b600082825260208201905092915050565b60005b83811015613e83578082015181840152602081019050613e68565b60008484015250505050565b6000613e9a82613e49565b613ea48185613e54565b9350613eb4818560208601613e65565b613ebd81613b08565b840191505092915050565b600060c083016000830151613ee06000860182613e1c565b506020830151613ef36020860182613e2b565b506040830151613f066040860182613e3a565b506060830151613f196060860182613e1c565b5060808301518482036080860152613f318282613e8f565b91505060a083015184820360a0860152613f4b8282613e8f565b9150508091505092915050565b60006020820190508181036000830152613f728184613ec8565b905092915050565b613f8381613d97565b8114613f8e57600080fd5b50565b600081359050613fa081613f7a565b92915050565b600060208284031215613fbc57613fbb613a8e565b5b6000613fca84828501613f91565b91505092915050565b6000819050919050565b613fe681613fd3565b8114613ff157600080fd5b50565b60008135905061400381613fdd565b92915050565b60006020828403121561401f5761401e613a8e565b5b600061402d84828501613ff4565b91505092915050565b61403f81613fd3565b82525050565b600060208201905061405a6000830184614036565b92915050565b6000806040838503121561407757614076613a8e565b5b600061408585828601613ff4565b925050602061409685828601613f91565b9150509250929050565b600080604083850312156140b7576140b6613a8e565b5b60006140c585828601613f91565b92505060206140d685828601613f91565b9150509250929050565b6000819050919050565b6140f3816140e0565b82525050565b600060208201905061410e60008301846140ea565b92915050565b61411d81613a98565b82525050565b60006020820190506141386000830184614114565b92915050565b6000806040838503121561415557614154613a8e565b5b600061416385828601613abc565b925050602083013567ffffffffffffffff81111561418457614183613a93565b5b61419085828601613c16565b9150509250929050565b600080600080608085870312156141b4576141b3613a8e565b5b60006141c287828801613abc565b945050602085013567ffffffffffffffff8111156141e3576141e2613a93565b5b6141ef87828801613c16565b935050604085013567ffffffffffffffff8111156142105761420f613a93565b5b61421c87828801613c16565b925050606085013567ffffffffffffffff81111561423d5761423c613a93565b5b61424987828801613c16565b91505092959194509250565b600082825260208201905092915050565b600061427182613e49565b61427b8185614255565b935061428b818560208601613e65565b61429481613b08565b840191505092915050565b600060208201905081810360008301526142b98184614266565b905092915050565b6142ca816140e0565b81146142d557600080fd5b50565b6000813590506142e7816142c1565b92915050565b60006020828403121561430357614302613a8e565b5b6000614311848285016142d8565b91505092915050565b7f4e487b7100000000000000000000000000000000000000000000000000000000600052602260045260246000fd5b6000600282049050600182168061436157607f821691505b6020821081036143745761437361431a565b5b50919050565b7f616c726561647920617070726f766564204f5220646f206e6f7420657869737460008201527f7320796574000000000000000000000000000000000000000000000000000000602082015250565b60006143d6602583614255565b91506143e18261437a565b604082019050919050565b60006020820190508181036000830152614405816143c9565b9050919050565b7f616c7265616479206c696e6b6564204f5220646f6e7420657869737473000000600082015250565b6000614442601d83614255565b915061444d8261440c565b602082019050919050565b6000602082019050818103600083015261447181614435565b9050919050565b600081905092915050565b600061448e82613e49565b6144988185614478565b93506144a8818560208601613e65565b80840191505092915050565b60006144c08284614483565b915081905092915050565b60006040820190506144e06000830185614114565b6144ed6020830184613da9565b9392505050565b7f757365727320616c6c6f776564206f6e6c7920746f20636c656172207468656d60008201527f73656c6673000000000000000000000000000000000000000000000000000000602082015250565b6000614550602583614255565b915061455b826144f4565b604082019050919050565b6000602082019050818103600083015261457f81614543565b9050919050565b7f746869732066756e6374696f6e20776f726b2773206f6e6c7920666f7220746560008201527f73746e6574000000000000000000000000000000000000000000000000000000602082015250565b60006145e2602583614255565b91506145ed82614586565b604082019050919050565b60006020820190508181036000830152614611816145d5565b9050919050565b7f416363657373436f6e74726f6c3a2063616e206f6e6c792072656e6f756e636560008201527f20726f6c657320666f722073656c660000000000000000000000000000000000602082015250565b6000614674602f83614255565b915061467f82614618565b604082019050919050565b600060208201905081810360008301526146a381614667565b9050919050565b7f63616c6c20436c656172506172656e7420666972737400000000000000000000600082015250565b60006146e0601683614255565b91506146eb826146aa565b602082019050919050565b6000602082019050818103600083015261470f816146d3565b9050919050565b7f6f6e6c7920706172656e745f6e616d652063616e206163636570742069740000600082015250565b600061474c601e83614255565b915061475782614716565b602082019050919050565b6000602082019050818103600083015261477b8161473f565b9050919050565b7f616c726561647920726567697374726564000000000000000000000000000000600082015250565b60006147b8601183614255565b91506147c382614782565b602082019050919050565b600060208201905081810360008301526147e7816147ab565b9050919050565b60006040820190506148036000830185613da9565b6148106020830184613d4d565b9392505050565b7f5265717565737420666565206973206e6f742070616964000000000000000000600082015250565b600061484d601783614255565b915061485882614817565b602082019050919050565b6000602082019050818103600083015261487c81614840565b9050919050565b60008190508160005260206000209050919050565b60006020601f8301049050919050565b600082821b905092915050565b6000600883026148e57fffffffffffffffffffffffffffffffffffffffffffffffffffffffffffffffff826148a8565b6148ef86836148a8565b95508019841693508086168417925050509392505050565b6000819050919050565b600061492c614927614922846140e0565b614907565b6140e0565b9050919050565b6000819050919050565b61494683614911565b61495a61495282614933565b8484546148b5565b825550505050565b600090565b61496f614962565b61497a81848461493d565b505050565b5b8181101561499e57614993600082614967565b600181019050614980565b5050565b601f8211156149e3576149b481614883565b6149bd84614898565b810160208510156149cc578190505b6149e06149d885614898565b83018261497f565b50505b505050565b600082821c905092915050565b6000614a06600019846008026149e8565b1980831691505092915050565b6000614a1f83836149f5565b9150826002028217905092915050565b614a3882613e49565b67ffffffffffffffff811115614a5157614a50613b19565b5b614a5b8254614349565b614a668282856149a2565b600060209050601f831160018114614a995760008415614a87578287015190505b614a918582614a13565b865550614af9565b601f198416614aa786614883565b60005b82811015614acf57848901518255600182019150602085019450602081019050614aaa565b86831015614aec5784890151614ae8601f8916826149f5565b8355505b6001600288020188555050505b505050505050565b600081905092915050565b50565b6000614b1c600083614b01565b9150614b2782614b0c565b600082019050919050565b6000614b3d82614b0f565b9150819050919050565b7f556e61626c6520746f207472616e736665722066656500000000000000000000600082015250565b6000614b7d601683614255565b9150614b8882614b47565b602082019050919050565b60006020820190508181036000830152614bac81614b70565b9050919050565b7f4f776e61626c653a206e6577206f776e657220697320746865207a65726f206160008201527f6464726573730000000000000000000000000000000000000000000000000000602082015250565b6000614c0f602683614255565b9150614c1a82614bb3565b604082019050919050565b60006020820190508181036000830152614c3e81614c02565b9050919050565b7f4f776e61626c653a2063616c6c6572206973206e6f7420746865206f776e6572600082015250565b6000614c7b602083614255565b9150614c8682614c45565b602082019050919050565b60006020820190508181036000830152614caa81614c6e565b9050919050565b7f416363657373436f6e74726f6c3a206163636f756e7420000000000000000000600082015250565b6000614ce7601783614478565b9150614cf282614cb1565b601782019050919050565b7f206973206d697373696e6720726f6c6520000000000000000000000000000000600082015250565b6000614d33601183614478565b9150614d3e82614cfd565b601182019050919050565b6000614d5482614cda565b9150614d608285614483565b9150614d6b82614d26565b9150614d778284614483565b91508190509392505050565b7f4e487b7100000000000000000000000000000000000000000000000000000000600052601160045260246000fd5b6000614dbd826140e0565b9150614dc8836140e0565b9250828202614dd6816140e0565b91508282048414831517614ded57614dec614d83565b5b5092915050565b6000614dff826140e0565b9150614e0a836140e0565b9250828201905080821115614e2257614e21614d83565b5b92915050565b7f4e487b7100000000000000000000000000000000000000000000000000000000600052603260045260246000fd5b6000614e62826140e0565b915060008203614e7557614e74614d83565b5b600182039050919050565b7f537472696e67733a20686578206c656e67746820696e73756666696369656e74600082015250565b6000614eb6602083614255565b9150614ec182614e80565b602082019050919050565b60006020820190508181036000830152614ee581614ea9565b905091905056fea2646970667358221220a7dee212e9294f56f40fa007e0da06a9c763a142455d20f6ef0e265eb2855f8264736f6c634300081100337a6a58436a3969757365336748476141494967796169434f734a705157534345424261632f7a50477267513d",
  "linkReferences": {},
  "deployedLinkReferences": {}
}