{
  "_format": "hh-sol-artifact-1",
  "contractName": "Leg10n",
  "sourceName": "contracts/Leg10n.sol",
  "abi": [
    {
      "inputs": [
        {
          "internalType": "address",
          "name": "turing_",
          "type": "address"
        }
      ],
      "stateMutability": "nonpayable",
      "type": "constructor"
    },
    {
      "anonymous": false,
      "inputs": [
        {
          "indexed": true,
          "internalType": "address",
          "name": "previousOwner",
          "type": "address"
        },
        {
          "indexed": true,
          "internalType": "address",
          "name": "newOwner",
          "type": "address"
        }
      ],
      "name": "OwnershipTransferred",
      "type": "event"
    },
    {
      "anonymous": false,
      "inputs": [
        {
          "indexed": true,
          "internalType": "bytes32",
          "name": "role",
          "type": "bytes32"
        },
        {
          "indexed": true,
          "internalType": "bytes32",
          "name": "previousAdminRole",
          "type": "bytes32"
        },
        {
          "indexed": true,
          "internalType": "bytes32",
          "name": "newAdminRole",
          "type": "bytes32"
        }
      ],
      "name": "RoleAdminChanged",
      "type": "event"
    },
    {
      "anonymous": false,
      "inputs": [
        {
          "indexed": true,
          "internalType": "bytes32",
          "name": "role",
          "type": "bytes32"
        },
        {
          "indexed": true,
          "internalType": "address",
          "name": "account",
          "type": "address"
        },
        {
          "indexed": true,
          "internalType": "address",
          "name": "sender",
          "type": "address"
        }
      ],
      "name": "RoleGranted",
      "type": "event"
    },
    {
      "anonymous": false,
      "inputs": [
        {
          "indexed": true,
          "internalType": "bytes32",
          "name": "role",
          "type": "bytes32"
        },
        {
          "indexed": true,
          "internalType": "address",
          "name": "account",
          "type": "address"
        },
        {
          "indexed": true,
          "internalType": "address",
          "name": "sender",
          "type": "address"
        }
      ],
      "name": "RoleRevoked",
      "type": "event"
    },
    {
      "anonymous": false,
      "inputs": [
        {
          "indexed": false,
          "internalType": "int64",
          "name": "applyerTg",
          "type": "int64"
        },
        {
          "indexed": false,
          "internalType": "address",
          "name": "wallet_address",
          "type": "address"
        },
        {
          "indexed": true,
          "internalType": "address",
          "name": "parent_address",
          "type": "address"
        }
      ],
      "name": "joinRequested",
      "type": "event"
    },
    {
      "anonymous": false,
      "inputs": [
        {
          "indexed": false,
          "internalType": "int64",
          "name": "applyerTg",
          "type": "int64"
        },
        {
          "indexed": false,
          "internalType": "address",
          "name": "wallet_address",
          "type": "address"
        },
        {
          "indexed": true,
          "internalType": "address",
          "name": "parent_address",
          "type": "address"
        }
      ],
      "name": "joinRequestedIndexedTG",
      "type": "event"
    },
    {
      "anonymous": false,
      "inputs": [
        {
          "indexed": false,
          "internalType": "address",
          "name": "high_node",
          "type": "address"
        },
        {
          "indexed": true,
          "internalType": "address",
          "name": "low_node",
          "type": "address"
        },
        {
          "indexed": false,
          "internalType": "bool",
          "name": "pravda",
          "type": "bool"
        }
      ],
      "name": "relationChanged",
      "type": "event"
    },
    {
      "anonymous": false,
      "inputs": [
        {
          "indexed": true,
          "internalType": "int64",
          "name": "applyerTg",
          "type": "int64"
        },
        {
          "indexed": false,
          "internalType": "address",
          "name": "user_address",
          "type": "address"
        },
        {
          "indexed": false,
          "internalType": "address",
          "name": "parent_address",
          "type": "address"
        }
      ],
      "name": "requestAccepted",
      "type": "event"
    },
    {
      "anonymous": false,
      "inputs": [
        {
          "indexed": false,
          "internalType": "int64",
          "name": "applyerTg",
          "type": "int64"
        },
        {
          "indexed": false,
          "internalType": "address",
          "name": "wallet",
          "type": "address"
        }
      ],
      "name": "requestDenied",
      "type": "event"
    },
    {
      "inputs": [
        {
          "internalType": "int64",
          "name": "applyerTg",
          "type": "int64"
        },
        {
          "internalType": "string",
          "name": "parent_name",
          "type": "string"
        }
      ],
      "name": "AcceptJoin",
      "outputs": [],
      "stateMutability": "nonpayable",
      "type": "function"
    },
    {
      "inputs": [
        {
          "internalType": "string",
          "name": "parent_name",
          "type": "string"
        },
        {
          "internalType": "string",
          "name": "child_name",
          "type": "string"
        }
      ],
      "name": "ClearParent",
      "outputs": [],
      "stateMutability": "nonpayable",
      "type": "function"
    },
    {
      "inputs": [],
      "name": "DEFAULT_ADMIN_ROLE",
      "outputs": [
        {
          "internalType": "bytes32",
          "name": "",
          "type": "bytes32"
        }
      ],
      "stateMutability": "view",
      "type": "function"
    },
    {
      "inputs": [
        {
          "internalType": "int64",
          "name": "tgid",
          "type": "int64"
        }
      ],
      "name": "DeclineRequest",
      "outputs": [],
      "stateMutability": "nonpayable",
      "type": "function"
    },
    {
      "inputs": [],
      "name": "GetOwner",
      "outputs": [
        {
          "internalType": "address",
          "name": "",
          "type": "address"
        }
      ],
      "stateMutability": "view",
      "type": "function"
    },
    {
      "inputs": [],
      "name": "GetPassportFee",
      "outputs": [
        {
          "internalType": "uint256",
          "name": "",
          "type": "uint256"
        }
      ],
      "stateMutability": "view",
      "type": "function"
    },
    {
      "inputs": [
        {
          "internalType": "address",
          "name": "user_address",
          "type": "address"
        }
      ],
      "name": "GetPublicKeyByAddress",
      "outputs": [
        {
          "internalType": "string",
          "name": "",
          "type": "string"
        }
      ],
      "stateMutability": "view",
      "type": "function"
    },
    {
      "inputs": [
        {
          "internalType": "address",
          "name": "user_wallet",
          "type": "address"
        }
      ],
      "name": "GetTgIdByAddress",
      "outputs": [
        {
          "internalType": "int64",
          "name": "tgid",
          "type": "int64"
        }
      ],
      "stateMutability": "view",
      "type": "function"
    },
    {
      "inputs": [
        {
          "internalType": "address",
          "name": "user_wallet",
          "type": "address"
        }
      ],
      "name": "GetUserByAddress",
      "outputs": [
        {
          "components": [
            {
              "internalType": "address",
              "name": "userAddress",
              "type": "address"
            },
            {
              "internalType": "int64",
              "name": "tgId",
              "type": "int64"
            },
            {
              "internalType": "bool",
              "name": "valid",
              "type": "bool"
            },
            {
              "internalType": "address",
              "name": "validatorAddress",
              "type": "address"
            },
            {
              "internalType": "string",
              "name": "codeName",
              "type": "string"
            },
            {
              "internalType": "string",
              "name": "public_key",
              "type": "string"
            }
          ],
          "internalType": "struct Leg10n.User",
          "name": "",
          "type": "tuple"
        }
      ],
      "stateMutability": "view",
      "type": "function"
    },
    {
      "inputs": [
        {
          "internalType": "string",
          "name": "user_name_",
          "type": "string"
        }
      ],
      "name": "GetUserByNickName",
      "outputs": [
        {
          "components": [
            {
              "internalType": "address",
              "name": "userAddress",
              "type": "address"
            },
            {
              "internalType": "int64",
              "name": "tgId",
              "type": "int64"
            },
            {
              "internalType": "bool",
              "name": "valid",
              "type": "bool"
            },
            {
              "internalType": "address",
              "name": "validatorAddress",
              "type": "address"
            },
            {
              "internalType": "string",
              "name": "codeName",
              "type": "string"
            },
            {
              "internalType": "string",
              "name": "public_key",
              "type": "string"
            }
          ],
          "internalType": "struct Leg10n.User",
          "name": "",
          "type": "tuple"
        }
      ],
      "stateMutability": "view",
      "type": "function"
    },
    {
      "inputs": [
        {
          "internalType": "int64",
          "name": "tgId_",
          "type": "int64"
        }
      ],
      "name": "GetUserByTgId",
      "outputs": [
        {
          "components": [
            {
              "internalType": "address",
              "name": "userAddress",
              "type": "address"
            },
            {
              "internalType": "int64",
              "name": "tgId",
              "type": "int64"
            },
            {
              "internalType": "bool",
              "name": "valid",
              "type": "bool"
            },
            {
              "internalType": "address",
              "name": "validatorAddress",
              "type": "address"
            },
            {
              "internalType": "string",
              "name": "codeName",
              "type": "string"
            },
            {
              "internalType": "string",
              "name": "public_key",
              "type": "string"
            }
          ],
          "internalType": "struct Leg10n.User",
          "name": "",
          "type": "tuple"
        }
      ],
      "stateMutability": "view",
      "type": "function"
    },
    {
      "inputs": [
        {
          "internalType": "int64",
          "name": "tgId_",
          "type": "int64"
        }
      ],
      "name": "GetUserWalletByID",
      "outputs": [
        {
          "internalType": "address",
          "name": "",
          "type": "address"
        }
      ],
      "stateMutability": "view",
      "type": "function"
    },
    {
      "inputs": [
        {
          "internalType": "string",
          "name": "user_name_",
          "type": "string"
        }
      ],
      "name": "GetWalletByNickName",
      "outputs": [
        {
          "internalType": "address",
          "name": "",
          "type": "address"
        }
      ],
      "stateMutability": "view",
      "type": "function"
    },
    {
      "inputs": [
        {
          "internalType": "int64",
          "name": "applyerTg",
          "type": "int64"
        },
        {
          "internalType": "string",
          "name": "code_name_",
          "type": "string"
        },
        {
          "internalType": "string",
          "name": "parent_name",
          "type": "string"
        },
        {
          "internalType": "string",
          "name": "public_key",
          "type": "string"
        }
      ],
      "name": "RequestJoin",
      "outputs": [],
      "stateMutability": "payable",
      "type": "function"
    },
    {
      "inputs": [
        {
          "internalType": "uint256",
          "name": "passportFee_",
          "type": "uint256"
        }
      ],
      "name": "SetPassportFee",
      "outputs": [],
      "stateMutability": "nonpayable",
      "type": "function"
    },
    {
      "inputs": [
        {
          "internalType": "address",
          "name": "",
          "type": "address"
        },
        {
          "internalType": "address",
          "name": "",
          "type": "address"
        }
      ],
      "name": "chain",
      "outputs": [
        {
          "internalType": "bool",
          "name": "",
          "type": "bool"
        }
      ],
      "stateMutability": "view",
      "type": "function"
    },
    {
      "inputs": [
        {
          "internalType": "string",
          "name": "",
          "type": "string"
        }
      ],
      "name": "codename_wallets",
      "outputs": [
        {
          "internalType": "address",
          "name": "",
          "type": "address"
        }
      ],
      "stateMutability": "view",
      "type": "function"
    },
    {
      "inputs": [],
      "name": "deleteYourSelf",
      "outputs": [],
      "stateMutability": "nonpayable",
      "type": "function"
    },
    {
      "inputs": [
        {
          "internalType": "address",
          "name": "user_address",
          "type": "address"
        }
      ],
      "name": "devDeleteUser",
      "outputs": [],
      "stateMutability": "nonpayable",
      "type": "function"
    },
    {
      "inputs": [],
      "name": "getModeratorIdentifier",
      "outputs": [
        {
          "internalType": "bytes32",
          "name": "",
          "type": "bytes32"
        }
      ],
      "stateMutability": "pure",
      "type": "function"
    },
    {
      "inputs": [
        {
          "internalType": "bytes32",
          "name": "role",
          "type": "bytes32"
        }
      ],
      "name": "getRoleAdmin",
      "outputs": [
        {
          "internalType": "bytes32",
          "name": "",
          "type": "bytes32"
        }
      ],
      "stateMutability": "view",
      "type": "function"
    },
    {
      "inputs": [
        {
          "internalType": "bytes32",
          "name": "role",
          "type": "bytes32"
        },
        {
          "internalType": "address",
          "name": "account",
          "type": "address"
        }
      ],
      "name": "grantRole",
      "outputs": [],
      "stateMutability": "nonpayable",
      "type": "function"
    },
    {
      "inputs": [
        {
          "internalType": "bytes32",
          "name": "role",
          "type": "bytes32"
        },
        {
          "internalType": "address",
          "name": "account",
          "type": "address"
        }
      ],
      "name": "hasRole",
      "outputs": [
        {
          "internalType": "bool",
          "name": "",
          "type": "bool"
        }
      ],
      "stateMutability": "view",
      "type": "function"
    },
    {
      "inputs": [],
      "name": "moderator",
      "outputs": [
        {
          "internalType": "bytes32",
          "name": "",
          "type": "bytes32"
        }
      ],
      "stateMutability": "view",
      "type": "function"
    },
    {
      "inputs": [],
      "name": "owner",
      "outputs": [
        {
          "internalType": "address",
          "name": "",
          "type": "address"
        }
      ],
      "stateMutability": "view",
      "type": "function"
    },
    {
      "inputs": [],
      "name": "renounceOwnership",
      "outputs": [],
      "stateMutability": "nonpayable",
      "type": "function"
    },
    {
      "inputs": [
        {
          "internalType": "bytes32",
          "name": "role",
          "type": "bytes32"
        },
        {
          "internalType": "address",
          "name": "account",
          "type": "address"
        }
      ],
      "name": "renounceRole",
      "outputs": [],
      "stateMutability": "nonpayable",
      "type": "function"
    },
    {
      "inputs": [
        {
          "internalType": "bytes32",
          "name": "role",
          "type": "bytes32"
        },
        {
          "internalType": "address",
          "name": "account",
          "type": "address"
        }
      ],
      "name": "revokeRole",
      "outputs": [],
      "stateMutability": "nonpayable",
      "type": "function"
    },
    {
      "inputs": [
        {
          "internalType": "bytes4",
          "name": "interfaceId",
          "type": "bytes4"
        }
      ],
      "name": "supportsInterface",
      "outputs": [
        {
          "internalType": "bool",
          "name": "",
          "type": "bool"
        }
      ],
      "stateMutability": "view",
      "type": "function"
    },
    {
      "inputs": [
        {
          "internalType": "address",
          "name": "newOwner",
          "type": "address"
        }
      ],
      "name": "transferOwnership",
      "outputs": [],
      "stateMutability": "nonpayable",
      "type": "function"
    },
    {
      "inputs": [
        {
          "internalType": "address",
          "name": "",
          "type": "address"
        }
      ],
      "name": "users",
      "outputs": [
        {
          "internalType": "address",
          "name": "userAddress",
          "type": "address"
        },
        {
          "internalType": "int64",
          "name": "tgId",
          "type": "int64"
        },
        {
          "internalType": "bool",
          "name": "valid",
          "type": "bool"
        },
        {
          "internalType": "address",
          "name": "validatorAddress",
          "type": "address"
        },
        {
          "internalType": "string",
          "name": "codeName",
          "type": "string"
        },
        {
          "internalType": "string",
          "name": "public_key",
          "type": "string"
        }
      ],
      "stateMutability": "view",
      "type": "function"
    }
  ],
  "bytecode": "0x608060405273383a9e83e36796106eac11e8c2fbe8b92ff46d3a600460006101000a81548173ffffffffffffffffffffffffffffffffffffffff021916908373ffffffffffffffffffffffffffffffffffffffff1602179055503480156200006657600080fd5b50604051620054613803806200546183398181016040528101906200008c91906200075d565b620000ac620000a0620004a260201b60201c565b620004aa60201b60201c565b66071afd498d0000600281905550620000ca6200056e60201b60201c565b600360006101000a81548173ffffffffffffffffffffffffffffffffffffffff021916908373ffffffffffffffffffffffffffffffffffffffff1602179055506200011f6000801b336200059760201b60201c565b620001517fcea62fe6ecc79e221c545bf918f804693c542ead2549e37c2bb9baa66ee2e157336200059760201b60201c565b620001a57fcea62fe6ecc79e221c545bf918f804693c542ead2549e37c2bb9baa66ee2e157600460009054906101000a900473ffffffffffffffffffffffffffffffffffffffff166200059760201b60201c565b80600960006101000a81548173ffffffffffffffffffffffffffffffffffffffff021916908373ffffffffffffffffffffffffffffffffffffffff16021790555033600560006104d260070b815260200190815260200160002060006101000a81548173ffffffffffffffffffffffffffffffffffffffff021916908373ffffffffffffffffffffffffffffffffffffffff1602179055503360076040516200024e90620007ea565b908152602001604051809103902060006101000a81548173ffffffffffffffffffffffffffffffffffffffff021916908373ffffffffffffffffffffffffffffffffffffffff1602179055506040518060c001604052803373ffffffffffffffffffffffffffffffffffffffff1681526020016104d260070b81526020016001151581526020013373ffffffffffffffffffffffffffffffffffffffff1681526020016040518060400160405280600481526020017f4164616d0000000000000000000000000000000000000000000000000000000081525081526020016040518060600160405280602c815260200162005435602c9139815250600660003373ffffffffffffffffffffffffffffffffffffffff1673ffffffffffffffffffffffffffffffffffffffff16815260200190815260200160002060008201518160000160006101000a81548173ffffffffffffffffffffffffffffffffffffffff021916908373ffffffffffffffffffffffffffffffffffffffff16021790555060208201518160000160146101000a81548167ffffffffffffffff021916908360070b67ffffffffffffffff160217905550604082015181600001601c6101000a81548160ff02191690831515021790555060608201518160010160006101000a81548173ffffffffffffffffffffffffffffffffffffffff021916908373ffffffffffffffffffffffffffffffffffffffff16021790555060808201518160020190816200047f919062000a7b565b5060a082015181600301908162000497919062000a7b565b509050505062000b62565b600033905090565b60008060009054906101000a900473ffffffffffffffffffffffffffffffffffffffff169050816000806101000a81548173ffffffffffffffffffffffffffffffffffffffff021916908373ffffffffffffffffffffffffffffffffffffffff1602179055508173ffffffffffffffffffffffffffffffffffffffff168173ffffffffffffffffffffffffffffffffffffffff167f8be0079c531659141344cd1fd0a4f28419497f9722a3daafe3b4186f6b6457e060405160405180910390a35050565b60008060009054906101000a900473ffffffffffffffffffffffffffffffffffffffff16905090565b620005a982826200068860201b60201c565b6200068457600180600084815260200190815260200160002060000160008373ffffffffffffffffffffffffffffffffffffffff1673ffffffffffffffffffffffffffffffffffffffff16815260200190815260200160002060006101000a81548160ff02191690831515021790555062000629620004a260201b60201c565b73ffffffffffffffffffffffffffffffffffffffff168173ffffffffffffffffffffffffffffffffffffffff16837f2f8788117e7eff1d82e926ec794901d17c78024a50270940304540a733656f0d60405160405180910390a45b5050565b60006001600084815260200190815260200160002060000160008373ffffffffffffffffffffffffffffffffffffffff1673ffffffffffffffffffffffffffffffffffffffff16815260200190815260200160002060009054906101000a900460ff16905092915050565b600080fd5b600073ffffffffffffffffffffffffffffffffffffffff82169050919050565b60006200072582620006f8565b9050919050565b620007378162000718565b81146200074357600080fd5b50565b60008151905062000757816200072c565b92915050565b600060208284031215620007765762000775620006f3565b5b6000620007868482850162000746565b91505092915050565b600081905092915050565b7f4164616d00000000000000000000000000000000000000000000000000000000600082015250565b6000620007d26004836200078f565b9150620007df826200079a565b600482019050919050565b6000620007f782620007c3565b9150819050919050565b600081519050919050565b7f4e487b7100000000000000000000000000000000000000000000000000000000600052604160045260246000fd5b7f4e487b7100000000000000000000000000000000000000000000000000000000600052602260045260246000fd5b600060028204905060018216806200088357607f821691505b6020821081036200089957620008986200083b565b5b50919050565b60008190508160005260206000209050919050565b60006020601f8301049050919050565b600082821b905092915050565b600060088302620009037fffffffffffffffffffffffffffffffffffffffffffffffffffffffffffffffff82620008c4565b6200090f8683620008c4565b95508019841693508086168417925050509392505050565b6000819050919050565b6000819050919050565b60006200095c62000956620009508462000927565b62000931565b62000927565b9050919050565b6000819050919050565b62000978836200093b565b62000990620009878262000963565b848454620008d1565b825550505050565b600090565b620009a762000998565b620009b48184846200096d565b505050565b5b81811015620009dc57620009d06000826200099d565b600181019050620009ba565b5050565b601f82111562000a2b57620009f5816200089f565b62000a0084620008b4565b8101602085101562000a10578190505b62000a2862000a1f85620008b4565b830182620009b9565b50505b505050565b600082821c905092915050565b600062000a506000198460080262000a30565b1980831691505092915050565b600062000a6b838362000a3d565b9150826002028217905092915050565b62000a868262000801565b67ffffffffffffffff81111562000aa25762000aa16200080c565b5b62000aae82546200086a565b62000abb828285620009e0565b600060209050601f83116001811462000af3576000841562000ade578287015190505b62000aea858262000a5d565b86555062000b5a565b601f19841662000b03866200089f565b60005b8281101562000b2d5784890151825560018201915060208501945060208101905062000b06565b8683101562000b4d578489015162000b49601f89168262000a3d565b8355505b6001600288020188555050505b505050505050565b6148c38062000b726000396000f3fe6080604052600436106101d75760003560e01c8063679b06be11610102578063b233e5eb11610095578063d2114e1811610064578063d2114e18146106ff578063d2125bd21461073c578063d547741f14610765578063f2fde38b1461078e576101d7565b8063b233e5eb14610640578063b44cf60014610669578063b932fbfa14610685578063c1cada78146106c2576101d7565b80638da5cb5b116100d15780638da5cb5b1461056b57806391d1485414610596578063a217fddf146105d3578063a87430ba146105fe576101d7565b8063679b06be146104c35780636e312028146104da578063715018a6146105175780637cec446b1461052e576101d7565b8063248a9ca31161017a578063460e6c9c11610149578063460e6c9c146103f357806348dc1561146104305780635d1ce88f1461045b57806361cabe3714610486576101d7565b8063248a9ca3146103395780632f2ff15d1461037657806336568abe1461039f57806338743904146103c8576101d7565b80630ae50a39116101b65780630ae50a391461026b5780630d48cae8146102965780631892fd78146102d35780632067eac814610310576101d7565b8062d396ed146101dc578063018d3dc91461020557806301ffc9a71461022e575b600080fd5b3480156101e857600080fd5b5061020360048036038101906101fe91906132e1565b6107b7565b005b34801561021157600080fd5b5061022c60048036038101906102279190613454565b610c25565b005b34801561023a57600080fd5b5061025560048036038101906102509190613524565b610da3565b604051610262919061356c565b60405180910390f35b34801561027757600080fd5b50610280610e1d565b60405161028d91906135c8565b60405180910390f35b3480156102a257600080fd5b506102bd60048036038101906102b891906135e3565b610e47565b6040516102ca9190613768565b60405180910390f35b3480156102df57600080fd5b506102fa60048036038101906102f591906137b6565b6110bc565b6040516103079190613768565b60405180910390f35b34801561031c57600080fd5b50610337600480360381019061033291906137b6565b611323565b005b34801561034557600080fd5b50610360600480360381019061035b9190613819565b611654565b60405161036d9190613855565b60405180910390f35b34801561038257600080fd5b5061039d60048036038101906103989190613870565b611674565b005b3480156103ab57600080fd5b506103c660048036038101906103c19190613870565b611695565b005b3480156103d457600080fd5b506103dd611718565b6040516103ea9190613855565b60405180910390f35b3480156103ff57600080fd5b5061041a600480360381019061041591906138b0565b61173c565b604051610427919061356c565b60405180910390f35b34801561043c57600080fd5b5061044561176b565b6040516104529190613909565b60405180910390f35b34801561046757600080fd5b50610470611775565b60405161047d9190613855565b60405180910390f35b34801561049257600080fd5b506104ad60048036038101906104a891906137b6565b61179d565b6040516104ba9190613933565b60405180910390f35b3480156104cf57600080fd5b506104d86117b8565b005b3480156104e657600080fd5b5061050160048036038101906104fc91906135e3565b61185f565b60405161050e91906135c8565b60405180910390f35b34801561052357600080fd5b5061052c6118a8565b005b34801561053a57600080fd5b50610555600480360381019061055091906132e1565b6118bc565b60405161056291906135c8565b60405180910390f35b34801561057757600080fd5b506105806118ff565b60405161058d91906135c8565b60405180910390f35b3480156105a257600080fd5b506105bd60048036038101906105b89190613870565b611928565b6040516105ca919061356c565b60405180910390f35b3480156105df57600080fd5b506105e8611993565b6040516105f59190613855565b60405180910390f35b34801561060a57600080fd5b50610625600480360381019061062091906137b6565b61199a565b60405161063796959493929190613998565b60405180910390f35b34801561064c57600080fd5b5061066760048036038101906106629190613a07565b611b40565b005b610683600480360381019061067e9190613a63565b611e9c565b005b34801561069157600080fd5b506106ac60048036038101906106a791906137b6565b6122ef565b6040516106b99190613b1e565b60405180910390f35b3480156106ce57600080fd5b506106e960048036038101906106e491906132e1565b612311565b6040516106f69190613768565b60405180910390f35b34801561070b57600080fd5b50610726600480360381019061072191906135e3565b612586565b60405161073391906135c8565b60405180910390f35b34801561074857600080fd5b50610763600480360381019061075e9190613b6c565b6125ce565b005b34801561077157600080fd5b5061078c60048036038101906107879190613870565b6125e0565b005b34801561079a57600080fd5b506107b560048036038101906107b091906137b6565b612601565b005b60006107c2826118bc565b90506000600660008373ffffffffffffffffffffffffffffffffffffffff1673ffffffffffffffffffffffffffffffffffffffff168152602001908152602001600020600201805461081390613bc8565b80601f016020809104026020016040519081016040528092919081815260200182805461083f90613bc8565b801561088c5780601f106108615761010080835404028352916020019161088c565b820191906000526020600020905b81548152906001019060200180831161086f57829003601f168201915b5050505050905060001515600660008473ffffffffffffffffffffffffffffffffffffffff1673ffffffffffffffffffffffffffffffffffffffff168152602001908152602001600020600001601c9054906101000a900460ff16151514610929576040517f08c379a000000000000000000000000000000000000000000000000000000000815260040161092090613c6b565b60405180910390fd5b6000600860003373ffffffffffffffffffffffffffffffffffffffff1673ffffffffffffffffffffffffffffffffffffffff16815260200190815260200160002060008473ffffffffffffffffffffffffffffffffffffffff1673ffffffffffffffffffffffffffffffffffffffff16815260200190815260200160002060009054906101000a900460ff16905060001515811515146109fe576040517f08c379a00000000000000000000000000000000000000000000000000000000081526004016109f590613cd7565b60405180910390fd5b600660008473ffffffffffffffffffffffffffffffffffffffff1673ffffffffffffffffffffffffffffffffffffffff168152602001908152602001600020600080820160006101000a81549073ffffffffffffffffffffffffffffffffffffffff02191690556000820160146101000a81549067ffffffffffffffff021916905560008201601c6101000a81549060ff02191690556001820160006101000a81549073ffffffffffffffffffffffffffffffffffffffff0219169055600282016000610acb91906131d0565b600382016000610adb91906131d0565b5050600560008560070b60070b815260200190815260200160002060006101000a81549073ffffffffffffffffffffffffffffffffffffffff0219169055600782604051610b299190613d33565b908152602001604051809103902060006101000a81549073ffffffffffffffffffffffffffffffffffffffff0219169055600860003373ffffffffffffffffffffffffffffffffffffffff1673ffffffffffffffffffffffffffffffffffffffff16815260200190815260200160002060008473ffffffffffffffffffffffffffffffffffffffff1673ffffffffffffffffffffffffffffffffffffffff16815260200190815260200160002060006101000a81549060ff02191690557f7f25a59d906bf9fb883c74ad54e4b0e924fb0326f2f946caf2875485585d0fbf8484604051610c17929190613d4a565b60405180910390a150505050565b6000610c3082612586565b90506000610c3d84612586565b90503373ffffffffffffffffffffffffffffffffffffffff168273ffffffffffffffffffffffffffffffffffffffff1614610cad576040517f08c379a0000000000000000000000000000000000000000000000000000000008152600401610ca490613de5565b60405180910390fd5b6000600660008473ffffffffffffffffffffffffffffffffffffffff1673ffffffffffffffffffffffffffffffffffffffff168152602001908152602001600020600001601c6101000a81548160ff0219169083151502179055506000600860008373ffffffffffffffffffffffffffffffffffffffff1673ffffffffffffffffffffffffffffffffffffffff16815260200190815260200160002060003373ffffffffffffffffffffffffffffffffffffffff1673ffffffffffffffffffffffffffffffffffffffff16815260200190815260200160002060006101000a81548160ff02191690831515021790555050505050565b60007f7965db0b000000000000000000000000000000000000000000000000000000007bffffffffffffffffffffffffffffffffffffffffffffffffffffffff1916827bffffffffffffffffffffffffffffffffffffffffffffffffffffffff19161480610e165750610e1582612684565b5b9050919050565b6000600360009054906101000a900473ffffffffffffffffffffffffffffffffffffffff16905090565b610e4f613210565b6000610e5a83612586565b90506000600660008373ffffffffffffffffffffffffffffffffffffffff1673ffffffffffffffffffffffffffffffffffffffff1681526020019081526020016000206040518060c00160405290816000820160009054906101000a900473ffffffffffffffffffffffffffffffffffffffff1673ffffffffffffffffffffffffffffffffffffffff1673ffffffffffffffffffffffffffffffffffffffff1681526020016000820160149054906101000a900460070b60070b60070b815260200160008201601c9054906101000a900460ff161515151581526020016001820160009054906101000a900473ffffffffffffffffffffffffffffffffffffffff1673ffffffffffffffffffffffffffffffffffffffff1673ffffffffffffffffffffffffffffffffffffffff168152602001600282018054610f9c90613bc8565b80601f0160208091040260200160405190810160405280929190818152602001828054610fc890613bc8565b80156110155780601f10610fea57610100808354040283529160200191611015565b820191906000526020600020905b815481529060010190602001808311610ff857829003601f168201915b5050505050815260200160038201805461102e90613bc8565b80601f016020809104026020016040519081016040528092919081815260200182805461105a90613bc8565b80156110a75780601f1061107c576101008083540402835291602001916110a7565b820191906000526020600020905b81548152906001019060200180831161108a57829003601f168201915b50505050508152505090508092505050919050565b6110c4613210565b6000600660008473ffffffffffffffffffffffffffffffffffffffff1673ffffffffffffffffffffffffffffffffffffffff1681526020019081526020016000206040518060c00160405290816000820160009054906101000a900473ffffffffffffffffffffffffffffffffffffffff1673ffffffffffffffffffffffffffffffffffffffff1673ffffffffffffffffffffffffffffffffffffffff1681526020016000820160149054906101000a900460070b60070b60070b815260200160008201601c9054906101000a900460ff161515151581526020016001820160009054906101000a900473ffffffffffffffffffffffffffffffffffffffff1673ffffffffffffffffffffffffffffffffffffffff1673ffffffffffffffffffffffffffffffffffffffff16815260200160028201805461120490613bc8565b80601f016020809104026020016040519081016040528092919081815260200182805461123090613bc8565b801561127d5780601f106112525761010080835404028352916020019161127d565b820191906000526020600020905b81548152906001019060200180831161126057829003601f168201915b5050505050815260200160038201805461129690613bc8565b80601f01602080910402602001604051908101604052809291908181526020018280546112c290613bc8565b801561130f5780601f106112e45761010080835404028352916020019161130f565b820191906000526020600020905b8154815290600101906020018083116112f257829003601f168201915b505050505081525050905080915050919050565b7fcea62fe6ecc79e221c545bf918f804693c542ead2549e37c2bb9baa66ee2e15761134d816126ee565b6000600660008473ffffffffffffffffffffffffffffffffffffffff1673ffffffffffffffffffffffffffffffffffffffff16815260200190815260200160002060000160149054906101000a900460070b90506000600660008573ffffffffffffffffffffffffffffffffffffffff1673ffffffffffffffffffffffffffffffffffffffff16815260200190815260200160002060020180546113f090613bc8565b80601f016020809104026020016040519081016040528092919081815260200182805461141c90613bc8565b80156114695780601f1061143e57610100808354040283529160200191611469565b820191906000526020600020905b81548152906001019060200180831161144c57829003601f168201915b505050505090506000469050600581146114b8576040517f08c379a00000000000000000000000000000000000000000000000000000000081526004016114af90613e77565b60405180910390fd5b600660008673ffffffffffffffffffffffffffffffffffffffff1673ffffffffffffffffffffffffffffffffffffffff168152602001908152602001600020600080820160006101000a81549073ffffffffffffffffffffffffffffffffffffffff02191690556000820160146101000a81549067ffffffffffffffff021916905560008201601c6101000a81549060ff02191690556001820160006101000a81549073ffffffffffffffffffffffffffffffffffffffff021916905560028201600061158591906131d0565b60038201600061159591906131d0565b5050600560008460070b60070b815260200190815260200160002060006101000a81549073ffffffffffffffffffffffffffffffffffffffff02191690556007826040516115e39190613d33565b908152602001604051809103902060006101000a81549073ffffffffffffffffffffffffffffffffffffffff02191690557f7f25a59d906bf9fb883c74ad54e4b0e924fb0326f2f946caf2875485585d0fbf8386604051611645929190613d4a565b60405180910390a15050505050565b600060016000838152602001908152602001600020600101549050919050565b61167d82611654565b611686816126ee565b6116908383612702565b505050565b61169d6127e2565b73ffffffffffffffffffffffffffffffffffffffff168173ffffffffffffffffffffffffffffffffffffffff161461170a576040517f08c379a000000000000000000000000000000000000000000000000000000000815260040161170190613f09565b60405180910390fd5b61171482826127ea565b5050565b7fcea62fe6ecc79e221c545bf918f804693c542ead2549e37c2bb9baa66ee2e15781565b60086020528160005260406000206020528060005260406000206000915091509054906101000a900460ff1681565b6000600254905090565b60007fcea62fe6ecc79e221c545bf918f804693c542ead2549e37c2bb9baa66ee2e157905090565b6000806117a9836110bc565b90508060200151915050919050565b6000600660003373ffffffffffffffffffffffffffffffffffffffff1673ffffffffffffffffffffffffffffffffffffffff168152602001908152602001600020600001601c9054906101000a900460ff1690506000151581151514611853576040517f08c379a000000000000000000000000000000000000000000000000000000000815260040161184a90613f75565b60405180910390fd5b61185c336128cc565b50565b6007818051602081018201805184825260208301602085012081835280955050505050506000915054906101000a900473ffffffffffffffffffffffffffffffffffffffff1681565b6118b0612b89565b6118ba6000612c07565b565b6000600560008360070b60070b815260200190815260200160002060009054906101000a900473ffffffffffffffffffffffffffffffffffffffff169050919050565b60008060009054906101000a900473ffffffffffffffffffffffffffffffffffffffff16905090565b60006001600084815260200190815260200160002060000160008373ffffffffffffffffffffffffffffffffffffffff1673ffffffffffffffffffffffffffffffffffffffff16815260200190815260200160002060009054906101000a900460ff16905092915050565b6000801b81565b60066020528060005260406000206000915090508060000160009054906101000a900473ffffffffffffffffffffffffffffffffffffffff16908060000160149054906101000a900460070b9080600001601c9054906101000a900460ff16908060010160009054906101000a900473ffffffffffffffffffffffffffffffffffffffff1690806002018054611a2f90613bc8565b80601f0160208091040260200160405190810160405280929190818152602001828054611a5b90613bc8565b8015611aa85780601f10611a7d57610100808354040283529160200191611aa8565b820191906000526020600020905b815481529060010190602001808311611a8b57829003601f168201915b505050505090806003018054611abd90613bc8565b80601f0160208091040260200160405190810160405280929190818152602001828054611ae990613bc8565b8015611b365780601f10611b0b57610100808354040283529160200191611b36565b820191906000526020600020905b815481529060010190602001808311611b1957829003601f168201915b5050505050905086565b6000600782604051611b529190613d33565b908152602001604051809103902060009054906101000a900473ffffffffffffffffffffffffffffffffffffffff1690503373ffffffffffffffffffffffffffffffffffffffff168173ffffffffffffffffffffffffffffffffffffffff1614611bf1576040517f08c379a0000000000000000000000000000000000000000000000000000000008152600401611be890613fe1565b60405180910390fd5b6000611bfc846118bc565b90506000600860008473ffffffffffffffffffffffffffffffffffffffff1673ffffffffffffffffffffffffffffffffffffffff16815260200190815260200160002060008373ffffffffffffffffffffffffffffffffffffffff1673ffffffffffffffffffffffffffffffffffffffff16815260200190815260200160002060009054906101000a900460ff1690506000151581151514611cd3576040517f08c379a0000000000000000000000000000000000000000000000000000000008152600401611cca9061404d565b60405180910390fd5b6001600660008473ffffffffffffffffffffffffffffffffffffffff1673ffffffffffffffffffffffffffffffffffffffff168152602001908152602001600020600001601c6101000a81548160ff02191690831515021790555033600660008473ffffffffffffffffffffffffffffffffffffffff1673ffffffffffffffffffffffffffffffffffffffff16815260200190815260200160002060010160006101000a81548173ffffffffffffffffffffffffffffffffffffffff021916908373ffffffffffffffffffffffffffffffffffffffff1602179055506001600860008573ffffffffffffffffffffffffffffffffffffffff1673ffffffffffffffffffffffffffffffffffffffff16815260200190815260200160002060008473ffffffffffffffffffffffffffffffffffffffff1673ffffffffffffffffffffffffffffffffffffffff16815260200190815260200160002060006101000a81548160ff0219169083151502179055508173ffffffffffffffffffffffffffffffffffffffff167fadbeb0a5d66e2be993428864e5c86f7c8aa562e2c58131d193ac2eeb7443817a846001604051611e8d92919061406d565b60405180910390a25050505050565b60003390506002543414611ee5576040517f08c379a0000000000000000000000000000000000000000000000000000000008152600401611edc906140e2565b60405180910390fd5b6000600784604051611ef79190613d33565b908152602001604051809103902060009054906101000a900473ffffffffffffffffffffffffffffffffffffffff1690506040518060c001604052808373ffffffffffffffffffffffffffffffffffffffff1681526020018760070b81526020016000151581526020018273ffffffffffffffffffffffffffffffffffffffff16815260200186815260200184815250600660003373ffffffffffffffffffffffffffffffffffffffff1673ffffffffffffffffffffffffffffffffffffffff16815260200190815260200160002060008201518160000160006101000a81548173ffffffffffffffffffffffffffffffffffffffff021916908373ffffffffffffffffffffffffffffffffffffffff16021790555060208201518160000160146101000a81548167ffffffffffffffff021916908360070b67ffffffffffffffff160217905550604082015181600001601c6101000a81548160ff02191690831515021790555060608201518160010160006101000a81548173ffffffffffffffffffffffffffffffffffffffff021916908373ffffffffffffffffffffffffffffffffffffffff16021790555060808201518160020190816120bb91906142ae565b5060a08201518160030190816120d191906142ae565b509050506000600360009054906101000a900473ffffffffffffffffffffffffffffffffffffffff1673ffffffffffffffffffffffffffffffffffffffff1660025460405161211f906143b1565b60006040518083038185875af1925050503d806000811461215c576040519150601f19603f3d011682016040523d82523d6000602084013e612161565b606091505b50509050806121a5576040517f08c379a000000000000000000000000000000000000000000000000000000000815260040161219c90614412565b60405180910390fd5b8173ffffffffffffffffffffffffffffffffffffffff167f217213f52d0ada6519b1710cff4d5e622165afded08327f17577ff3c3037136088336040516121ed929190613d4a565b60405180910390a28173ffffffffffffffffffffffffffffffffffffffff167f2f9961dc36e79933613fb931d5ca8392c911b25840b07276e17e19961d228240883360405161223d929190613d4a565b60405180910390a26000600860008473ffffffffffffffffffffffffffffffffffffffff1673ffffffffffffffffffffffffffffffffffffffff16815260200190815260200160002060003373ffffffffffffffffffffffffffffffffffffffff1673ffffffffffffffffffffffffffffffffffffffff16815260200190815260200160002060006101000a81548160ff0219169083151502179055506122e687848888612ccb565b50505050505050565b606060006122fc836110bc565b905060008160a0015190508092505050919050565b612319613210565b6000612324836118bc565b90506000600660008373ffffffffffffffffffffffffffffffffffffffff1673ffffffffffffffffffffffffffffffffffffffff1681526020019081526020016000206040518060c00160405290816000820160009054906101000a900473ffffffffffffffffffffffffffffffffffffffff1673ffffffffffffffffffffffffffffffffffffffff1673ffffffffffffffffffffffffffffffffffffffff1681526020016000820160149054906101000a900460070b60070b60070b815260200160008201601c9054906101000a900460ff161515151581526020016001820160009054906101000a900473ffffffffffffffffffffffffffffffffffffffff1673ffffffffffffffffffffffffffffffffffffffff1673ffffffffffffffffffffffffffffffffffffffff16815260200160028201805461246690613bc8565b80601f016020809104026020016040519081016040528092919081815260200182805461249290613bc8565b80156124df5780601f106124b4576101008083540402835291602001916124df565b820191906000526020600020905b8154815290600101906020018083116124c257829003601f168201915b505050505081526020016003820180546124f890613bc8565b80601f016020809104026020016040519081016040528092919081815260200182805461252490613bc8565b80156125715780601f1061254657610100808354040283529160200191612571565b820191906000526020600020905b81548152906001019060200180831161255457829003601f168201915b50505050508152505090508092505050919050565b60006007826040516125989190613d33565b908152602001604051809103902060009054906101000a900473ffffffffffffffffffffffffffffffffffffffff169050919050565b6125d6612b89565b8060028190555050565b6125e982611654565b6125f2816126ee565b6125fc83836127ea565b505050565b612609612b89565b600073ffffffffffffffffffffffffffffffffffffffff168173ffffffffffffffffffffffffffffffffffffffff1603612678576040517f08c379a000000000000000000000000000000000000000000000000000000000815260040161266f906144a4565b60405180910390fd5b61268181612c07565b50565b60007f01ffc9a7000000000000000000000000000000000000000000000000000000007bffffffffffffffffffffffffffffffffffffffffffffffffffffffff1916827bffffffffffffffffffffffffffffffffffffffffffffffffffffffff1916149050919050565b6126ff816126fa6127e2565b612ee2565b50565b61270c8282611928565b6127de57600180600084815260200190815260200160002060000160008373ffffffffffffffffffffffffffffffffffffffff1673ffffffffffffffffffffffffffffffffffffffff16815260200190815260200160002060006101000a81548160ff0219169083151502179055506127836127e2565b73ffffffffffffffffffffffffffffffffffffffff168173ffffffffffffffffffffffffffffffffffffffff16837f2f8788117e7eff1d82e926ec794901d17c78024a50270940304540a733656f0d60405160405180910390a45b5050565b600033905090565b6127f48282611928565b156128c85760006001600084815260200190815260200160002060000160008373ffffffffffffffffffffffffffffffffffffffff1673ffffffffffffffffffffffffffffffffffffffff16815260200190815260200160002060006101000a81548160ff02191690831515021790555061286d6127e2565b73ffffffffffffffffffffffffffffffffffffffff168173ffffffffffffffffffffffffffffffffffffffff16837ff6391f5c32d9c69d2a47ea670b442974b53935d1edc7fd64eb21e047a839171b60405160405180910390a45b5050565b6000600660008373ffffffffffffffffffffffffffffffffffffffff1673ffffffffffffffffffffffffffffffffffffffff16815260200190815260200160002060000160149054906101000a900460070b90506000600660008473ffffffffffffffffffffffffffffffffffffffff1673ffffffffffffffffffffffffffffffffffffffff168152602001908152602001600020600201805461296f90613bc8565b80601f016020809104026020016040519081016040528092919081815260200182805461299b90613bc8565b80156129e85780601f106129bd576101008083540402835291602001916129e8565b820191906000526020600020905b8154815290600101906020018083116129cb57829003601f168201915b50505050509050600660008473ffffffffffffffffffffffffffffffffffffffff1673ffffffffffffffffffffffffffffffffffffffff168152602001908152602001600020600080820160006101000a81549073ffffffffffffffffffffffffffffffffffffffff02191690556000820160146101000a81549067ffffffffffffffff021916905560008201601c6101000a81549060ff02191690556001820160006101000a81549073ffffffffffffffffffffffffffffffffffffffff0219169055600282016000612abc91906131d0565b600382016000612acc91906131d0565b5050600560008360070b60070b815260200190815260200160002060006101000a81549073ffffffffffffffffffffffffffffffffffffffff0219169055600781604051612b1a9190613d33565b908152602001604051809103902060006101000a81549073ffffffffffffffffffffffffffffffffffffffff02191690557f7f25a59d906bf9fb883c74ad54e4b0e924fb0326f2f946caf2875485585d0fbf8284604051612b7c929190613d4a565b60405180910390a1505050565b612b916127e2565b73ffffffffffffffffffffffffffffffffffffffff16612baf6118ff565b73ffffffffffffffffffffffffffffffffffffffff1614612c05576040517f08c379a0000000000000000000000000000000000000000000000000000000008152600401612bfc90614510565b60405180910390fd5b565b60008060009054906101000a900473ffffffffffffffffffffffffffffffffffffffff169050816000806101000a81548173ffffffffffffffffffffffffffffffffffffffff021916908373ffffffffffffffffffffffffffffffffffffffff1602179055508173ffffffffffffffffffffffffffffffffffffffff168173ffffffffffffffffffffffffffffffffffffffff167f8be0079c531659141344cd1fd0a4f28419497f9722a3daafe3b4186f6b6457e060405160405180910390a35050565b600073ffffffffffffffffffffffffffffffffffffffff16600560008660070b60070b815260200190815260200160002060009054906101000a900473ffffffffffffffffffffffffffffffffffffffff1673ffffffffffffffffffffffffffffffffffffffff1614612d73576040517f08c379a0000000000000000000000000000000000000000000000000000000008152600401612d6a906145a2565b60405180910390fd5b6000600960009054906101000a900473ffffffffffffffffffffffffffffffffffffffff1673ffffffffffffffffffffffffffffffffffffffff1663a430c74484846040518363ffffffff1660e01b8152600401612dd29291906145c2565b602060405180830381865afa158015612def573d6000803e3d6000fd5b505050506040513d601f19601f82011682018060405250810190612e139190614625565b90506001151581151514612e2657600080fd5b83600560008760070b60070b815260200190815260200160002060006101000a81548173ffffffffffffffffffffffffffffffffffffffff021916908373ffffffffffffffffffffffffffffffffffffffff16021790555083600784604051612e8f9190613d33565b908152602001604051809103902060006101000a81548173ffffffffffffffffffffffffffffffffffffffff021916908373ffffffffffffffffffffffffffffffffffffffff1602179055505050505050565b612eec8282611928565b612f6357612ef981612f67565b612f078360001c6020612f94565b604051602001612f189291906146ea565b6040516020818303038152906040526040517f08c379a0000000000000000000000000000000000000000000000000000000008152600401612f5a9190613b1e565b60405180910390fd5b5050565b6060612f8d8273ffffffffffffffffffffffffffffffffffffffff16601460ff16612f94565b9050919050565b606060006002836002612fa79190614753565b612fb19190614795565b67ffffffffffffffff811115612fca57612fc9613329565b5b6040519080825280601f01601f191660200182016040528015612ffc5781602001600182028036833780820191505090505b5090507f300000000000000000000000000000000000000000000000000000000000000081600081518110613034576130336147c9565b5b60200101907effffffffffffffffffffffffffffffffffffffffffffffffffffffffffffff1916908160001a9053507f780000000000000000000000000000000000000000000000000000000000000081600181518110613098576130976147c9565b5b60200101907effffffffffffffffffffffffffffffffffffffffffffffffffffffffffffff1916908160001a905350600060018460026130d89190614753565b6130e29190614795565b90505b6001811115613182577f3031323334353637383961626364656600000000000000000000000000000000600f861660108110613124576131236147c9565b5b1a60f81b82828151811061313b5761313a6147c9565b5b60200101907effffffffffffffffffffffffffffffffffffffffffffffffffffffffffffff1916908160001a905350600485901c94508061317b906147f8565b90506130e5565b50600084146131c6576040517f08c379a00000000000000000000000000000000000000000000000000000000081526004016131bd9061486d565b60405180910390fd5b8091505092915050565b5080546131dc90613bc8565b6000825580601f106131ee575061320d565b601f01602090049060005260206000209081019061320c9190613277565b5b50565b6040518060c00160405280600073ffffffffffffffffffffffffffffffffffffffff168152602001600060070b8152602001600015158152602001600073ffffffffffffffffffffffffffffffffffffffff16815260200160608152602001606081525090565b5b80821115613290576000816000905550600101613278565b5090565b6000604051905090565b600080fd5b600080fd5b60008160070b9050919050565b6132be816132a8565b81146132c957600080fd5b50565b6000813590506132db816132b5565b92915050565b6000602082840312156132f7576132f661329e565b5b6000613305848285016132cc565b91505092915050565b600080fd5b600080fd5b6000601f19601f8301169050919050565b7f4e487b7100000000000000000000000000000000000000000000000000000000600052604160045260246000fd5b61336182613318565b810181811067ffffffffffffffff821117156133805761337f613329565b5b80604052505050565b6000613393613294565b905061339f8282613358565b919050565b600067ffffffffffffffff8211156133bf576133be613329565b5b6133c882613318565b9050602081019050919050565b82818337600083830152505050565b60006133f76133f2846133a4565b613389565b90508281526020810184848401111561341357613412613313565b5b61341e8482856133d5565b509392505050565b600082601f83011261343b5761343a61330e565b5b813561344b8482602086016133e4565b91505092915050565b6000806040838503121561346b5761346a61329e565b5b600083013567ffffffffffffffff811115613489576134886132a3565b5b61349585828601613426565b925050602083013567ffffffffffffffff8111156134b6576134b56132a3565b5b6134c285828601613426565b9150509250929050565b60007fffffffff0000000000000000000000000000000000000000000000000000000082169050919050565b613501816134cc565b811461350c57600080fd5b50565b60008135905061351e816134f8565b92915050565b60006020828403121561353a5761353961329e565b5b60006135488482850161350f565b91505092915050565b60008115159050919050565b61356681613551565b82525050565b6000602082019050613581600083018461355d565b92915050565b600073ffffffffffffffffffffffffffffffffffffffff82169050919050565b60006135b282613587565b9050919050565b6135c2816135a7565b82525050565b60006020820190506135dd60008301846135b9565b92915050565b6000602082840312156135f9576135f861329e565b5b600082013567ffffffffffffffff811115613617576136166132a3565b5b61362384828501613426565b91505092915050565b613635816135a7565b82525050565b613644816132a8565b82525050565b61365381613551565b82525050565b600081519050919050565b600082825260208201905092915050565b60005b83811015613693578082015181840152602081019050613678565b60008484015250505050565b60006136aa82613659565b6136b48185613664565b93506136c4818560208601613675565b6136cd81613318565b840191505092915050565b600060c0830160008301516136f0600086018261362c565b506020830151613703602086018261363b565b506040830151613716604086018261364a565b506060830151613729606086018261362c565b5060808301518482036080860152613741828261369f565b91505060a083015184820360a086015261375b828261369f565b9150508091505092915050565b6000602082019050818103600083015261378281846136d8565b905092915050565b613793816135a7565b811461379e57600080fd5b50565b6000813590506137b08161378a565b92915050565b6000602082840312156137cc576137cb61329e565b5b60006137da848285016137a1565b91505092915050565b6000819050919050565b6137f6816137e3565b811461380157600080fd5b50565b600081359050613813816137ed565b92915050565b60006020828403121561382f5761382e61329e565b5b600061383d84828501613804565b91505092915050565b61384f816137e3565b82525050565b600060208201905061386a6000830184613846565b92915050565b600080604083850312156138875761388661329e565b5b600061389585828601613804565b92505060206138a6858286016137a1565b9150509250929050565b600080604083850312156138c7576138c661329e565b5b60006138d5858286016137a1565b92505060206138e6858286016137a1565b9150509250929050565b6000819050919050565b613903816138f0565b82525050565b600060208201905061391e60008301846138fa565b92915050565b61392d816132a8565b82525050565b60006020820190506139486000830184613924565b92915050565b600082825260208201905092915050565b600061396a82613659565b613974818561394e565b9350613984818560208601613675565b61398d81613318565b840191505092915050565b600060c0820190506139ad60008301896135b9565b6139ba6020830188613924565b6139c7604083018761355d565b6139d460608301866135b9565b81810360808301526139e6818561395f565b905081810360a08301526139fa818461395f565b9050979650505050505050565b60008060408385031215613a1e57613a1d61329e565b5b6000613a2c858286016132cc565b925050602083013567ffffffffffffffff811115613a4d57613a4c6132a3565b5b613a5985828601613426565b9150509250929050565b60008060008060808587031215613a7d57613a7c61329e565b5b6000613a8b878288016132cc565b945050602085013567ffffffffffffffff811115613aac57613aab6132a3565b5b613ab887828801613426565b935050604085013567ffffffffffffffff811115613ad957613ad86132a3565b5b613ae587828801613426565b925050606085013567ffffffffffffffff811115613b0657613b056132a3565b5b613b1287828801613426565b91505092959194509250565b60006020820190508181036000830152613b38818461395f565b905092915050565b613b49816138f0565b8114613b5457600080fd5b50565b600081359050613b6681613b40565b92915050565b600060208284031215613b8257613b8161329e565b5b6000613b9084828501613b57565b91505092915050565b7f4e487b7100000000000000000000000000000000000000000000000000000000600052602260045260246000fd5b60006002820490506001821680613be057607f821691505b602082108103613bf357613bf2613b99565b5b50919050565b7f616c726561647920617070726f766564204f5220646f206e6f7420657869737460008201527f7320796574000000000000000000000000000000000000000000000000000000602082015250565b6000613c5560258361394e565b9150613c6082613bf9565b604082019050919050565b60006020820190508181036000830152613c8481613c48565b9050919050565b7f616c7265616479206c696e6b6564204f5220646f6e7420657869737473000000600082015250565b6000613cc1601d8361394e565b9150613ccc82613c8b565b602082019050919050565b60006020820190508181036000830152613cf081613cb4565b9050919050565b600081905092915050565b6000613d0d82613659565b613d178185613cf7565b9350613d27818560208601613675565b80840191505092915050565b6000613d3f8284613d02565b915081905092915050565b6000604082019050613d5f6000830185613924565b613d6c60208301846135b9565b9392505050565b7f757365727320616c6c6f776564206f6e6c7920746f20636c656172207468656d60008201527f73656c6673000000000000000000000000000000000000000000000000000000602082015250565b6000613dcf60258361394e565b9150613dda82613d73565b604082019050919050565b60006020820190508181036000830152613dfe81613dc2565b9050919050565b7f746869732066756e6374696f6e20776f726b2773206f6e6c7920666f7220746560008201527f73746e6574000000000000000000000000000000000000000000000000000000602082015250565b6000613e6160258361394e565b9150613e6c82613e05565b604082019050919050565b60006020820190508181036000830152613e9081613e54565b9050919050565b7f416363657373436f6e74726f6c3a2063616e206f6e6c792072656e6f756e636560008201527f20726f6c657320666f722073656c660000000000000000000000000000000000602082015250565b6000613ef3602f8361394e565b9150613efe82613e97565b604082019050919050565b60006020820190508181036000830152613f2281613ee6565b9050919050565b7f63616c6c20436c656172506172656e7420666972737400000000000000000000600082015250565b6000613f5f60168361394e565b9150613f6a82613f29565b602082019050919050565b60006020820190508181036000830152613f8e81613f52565b9050919050565b7f6f6e6c7920706172656e745f6e616d652063616e206163636570742069740000600082015250565b6000613fcb601e8361394e565b9150613fd682613f95565b602082019050919050565b60006020820190508181036000830152613ffa81613fbe565b9050919050565b7f616c726561647920726567697374726564000000000000000000000000000000600082015250565b600061403760118361394e565b915061404282614001565b602082019050919050565b600060208201905081810360008301526140668161402a565b9050919050565b600060408201905061408260008301856135b9565b61408f602083018461355d565b9392505050565b7f5265717565737420666565206973206e6f742070616964000000000000000000600082015250565b60006140cc60178361394e565b91506140d782614096565b602082019050919050565b600060208201905081810360008301526140fb816140bf565b9050919050565b60008190508160005260206000209050919050565b60006020601f8301049050919050565b600082821b905092915050565b6000600883026141647fffffffffffffffffffffffffffffffffffffffffffffffffffffffffffffffff82614127565b61416e8683614127565b95508019841693508086168417925050509392505050565b6000819050919050565b60006141ab6141a66141a1846138f0565b614186565b6138f0565b9050919050565b6000819050919050565b6141c583614190565b6141d96141d1826141b2565b848454614134565b825550505050565b600090565b6141ee6141e1565b6141f98184846141bc565b505050565b5b8181101561421d576142126000826141e6565b6001810190506141ff565b5050565b601f8211156142625761423381614102565b61423c84614117565b8101602085101561424b578190505b61425f61425785614117565b8301826141fe565b50505b505050565b600082821c905092915050565b600061428560001984600802614267565b1980831691505092915050565b600061429e8383614274565b9150826002028217905092915050565b6142b782613659565b67ffffffffffffffff8111156142d0576142cf613329565b5b6142da8254613bc8565b6142e5828285614221565b600060209050601f8311600181146143185760008415614306578287015190505b6143108582614292565b865550614378565b601f19841661432686614102565b60005b8281101561434e57848901518255600182019150602085019450602081019050614329565b8683101561436b5784890151614367601f891682614274565b8355505b6001600288020188555050505b505050505050565b600081905092915050565b50565b600061439b600083614380565b91506143a68261438b565b600082019050919050565b60006143bc8261438e565b9150819050919050565b7f556e61626c6520746f207472616e736665722066656500000000000000000000600082015250565b60006143fc60168361394e565b9150614407826143c6565b602082019050919050565b6000602082019050818103600083015261442b816143ef565b9050919050565b7f4f776e61626c653a206e6577206f776e657220697320746865207a65726f206160008201527f6464726573730000000000000000000000000000000000000000000000000000602082015250565b600061448e60268361394e565b915061449982614432565b604082019050919050565b600060208201905081810360008301526144bd81614481565b9050919050565b7f4f776e61626c653a2063616c6c6572206973206e6f7420746865206f776e6572600082015250565b60006144fa60208361394e565b9150614505826144c4565b602082019050919050565b60006020820190508181036000830152614529816144ed565b9050919050565b7f54686572652773206164647265737320636f6e6e656374656420746f2074686160008201527f7420544720494420616c72656164792e00000000000000000000000000000000602082015250565b600061458c60308361394e565b915061459782614530565b604082019050919050565b600060208201905081810360008301526145bb8161457f565b9050919050565b600060408201905081810360008301526145dc818561395f565b905081810360208301526145f0818461395f565b90509392505050565b61460281613551565b811461460d57600080fd5b50565b60008151905061461f816145f9565b92915050565b60006020828403121561463b5761463a61329e565b5b600061464984828501614610565b91505092915050565b7f416363657373436f6e74726f6c3a206163636f756e7420000000000000000000600082015250565b6000614688601783613cf7565b915061469382614652565b601782019050919050565b7f206973206d697373696e6720726f6c6520000000000000000000000000000000600082015250565b60006146d4601183613cf7565b91506146df8261469e565b601182019050919050565b60006146f58261467b565b91506147018285613d02565b915061470c826146c7565b91506147188284613d02565b91508190509392505050565b7f4e487b7100000000000000000000000000000000000000000000000000000000600052601160045260246000fd5b600061475e826138f0565b9150614769836138f0565b9250828202614777816138f0565b9150828204841483151761478e5761478d614724565b5b5092915050565b60006147a0826138f0565b91506147ab836138f0565b92508282019050808211156147c3576147c2614724565b5b92915050565b7f4e487b7100000000000000000000000000000000000000000000000000000000600052603260045260246000fd5b6000614803826138f0565b91506000820361481657614815614724565b5b600182039050919050565b7f537472696e67733a20686578206c656e67746820696e73756666696369656e74600082015250565b600061485760208361394e565b915061486282614821565b602082019050919050565b600060208201905081810360008301526148868161484a565b905091905056fea2646970667358221220da559c81dd1fb83f15aa24b39bc90514bce43475778eb5f903007c2a3e2189fd64736f6c634300081100337a6a58436a3969757365336748476141494967796169434f734a705157534345424261632f7a50477267513d",
  "linkReferences": {},
  "deployedLinkReferences": {}
}