{
  "_format": "hh-sol-artifact-1",
  "contractName": "Leg10n",
  "sourceName": "contracts/Leg10n.sol",
  "abi": [
    {
      "inputs": [
        {
          "internalType": "address",
          "name": "enigma_",
          "type": "address"
        }
      ],
      "stateMutability": "nonpayable",
      "type": "constructor"
    },
    {
      "anonymous": false,
      "inputs": [
        {
          "indexed": true,
          "internalType": "address",
          "name": "previousOwner",
          "type": "address"
        },
        {
          "indexed": true,
          "internalType": "address",
          "name": "newOwner",
          "type": "address"
        }
      ],
      "name": "OwnershipTransferred",
      "type": "event"
    },
    {
      "anonymous": false,
      "inputs": [
        {
          "indexed": true,
          "internalType": "bytes32",
          "name": "role",
          "type": "bytes32"
        },
        {
          "indexed": true,
          "internalType": "bytes32",
          "name": "previousAdminRole",
          "type": "bytes32"
        },
        {
          "indexed": true,
          "internalType": "bytes32",
          "name": "newAdminRole",
          "type": "bytes32"
        }
      ],
      "name": "RoleAdminChanged",
      "type": "event"
    },
    {
      "anonymous": false,
      "inputs": [
        {
          "indexed": true,
          "internalType": "bytes32",
          "name": "role",
          "type": "bytes32"
        },
        {
          "indexed": true,
          "internalType": "address",
          "name": "account",
          "type": "address"
        },
        {
          "indexed": true,
          "internalType": "address",
          "name": "sender",
          "type": "address"
        }
      ],
      "name": "RoleGranted",
      "type": "event"
    },
    {
      "anonymous": false,
      "inputs": [
        {
          "indexed": true,
          "internalType": "bytes32",
          "name": "role",
          "type": "bytes32"
        },
        {
          "indexed": true,
          "internalType": "address",
          "name": "account",
          "type": "address"
        },
        {
          "indexed": true,
          "internalType": "address",
          "name": "sender",
          "type": "address"
        }
      ],
      "name": "RoleRevoked",
      "type": "event"
    },
    {
      "anonymous": false,
      "inputs": [
        {
          "indexed": false,
          "internalType": "int64",
          "name": "applyerTg",
          "type": "int64"
        },
        {
          "indexed": false,
          "internalType": "address",
          "name": "wallet_address",
          "type": "address"
        },
        {
          "indexed": true,
          "internalType": "address",
          "name": "parent_address",
          "type": "address"
        }
      ],
      "name": "joinRequested",
      "type": "event"
    },
    {
      "anonymous": false,
      "inputs": [
        {
          "indexed": false,
          "internalType": "int64",
          "name": "applyerTg",
          "type": "int64"
        },
        {
          "indexed": false,
          "internalType": "address",
          "name": "wallet_address",
          "type": "address"
        },
        {
          "indexed": true,
          "internalType": "address",
          "name": "parent_address",
          "type": "address"
        }
      ],
      "name": "joinRequestedIndexedTG",
      "type": "event"
    },
    {
      "anonymous": false,
      "inputs": [
        {
          "indexed": true,
          "internalType": "int64",
          "name": "applyerTg",
          "type": "int64"
        },
        {
          "indexed": false,
          "internalType": "address",
          "name": "user_address",
          "type": "address"
        },
        {
          "indexed": false,
          "internalType": "address",
          "name": "parent_address",
          "type": "address"
        }
      ],
      "name": "requestAccepted",
      "type": "event"
    },
    {
      "anonymous": false,
      "inputs": [
        {
          "indexed": false,
          "internalType": "int64",
          "name": "applyerTg",
          "type": "int64"
        },
        {
          "indexed": false,
          "internalType": "address",
          "name": "wallet",
          "type": "address"
        }
      ],
      "name": "requestDenied",
      "type": "event"
    },
    {
      "inputs": [
        {
          "internalType": "int64",
          "name": "applyerTg",
          "type": "int64"
        },
        {
          "internalType": "string",
          "name": "parent_name",
          "type": "string"
        }
      ],
      "name": "AcceptJoin",
      "outputs": [],
      "stateMutability": "nonpayable",
      "type": "function"
    },
    {
      "inputs": [],
      "name": "DEFAULT_ADMIN_ROLE",
      "outputs": [
        {
          "internalType": "bytes32",
          "name": "",
          "type": "bytes32"
        }
      ],
      "stateMutability": "view",
      "type": "function"
    },
    {
      "inputs": [
        {
          "internalType": "int64",
          "name": "tgid",
          "type": "int64"
        }
      ],
      "name": "DeclineRequest",
      "outputs": [],
      "stateMutability": "nonpayable",
      "type": "function"
    },
    {
      "inputs": [
        {
          "internalType": "address",
          "name": "passportToDecline",
          "type": "address"
        }
      ],
      "name": "DeleteUser",
      "outputs": [],
      "stateMutability": "nonpayable",
      "type": "function"
    },
    {
      "inputs": [],
      "name": "GetOwner",
      "outputs": [
        {
          "internalType": "address",
          "name": "",
          "type": "address"
        }
      ],
      "stateMutability": "view",
      "type": "function"
    },
    {
      "inputs": [],
      "name": "GetPassportFee",
      "outputs": [
        {
          "internalType": "uint256",
          "name": "",
          "type": "uint256"
        }
      ],
      "stateMutability": "view",
      "type": "function"
    },
    {
      "inputs": [
        {
          "internalType": "address",
          "name": "user_address",
          "type": "address"
        }
      ],
      "name": "GetPublicKeyByAddress",
      "outputs": [
        {
          "internalType": "string",
          "name": "",
          "type": "string"
        }
      ],
      "stateMutability": "view",
      "type": "function"
    },
    {
      "inputs": [
        {
          "internalType": "address",
          "name": "user_wallet",
          "type": "address"
        }
      ],
      "name": "GetTgIdByAddress",
      "outputs": [
        {
          "internalType": "int64",
          "name": "tgid",
          "type": "int64"
        }
      ],
      "stateMutability": "view",
      "type": "function"
    },
    {
      "inputs": [
        {
          "internalType": "address",
          "name": "user_wallet",
          "type": "address"
        }
      ],
      "name": "GetUserByAddress",
      "outputs": [
        {
          "components": [
            {
              "internalType": "address",
              "name": "userAddress",
              "type": "address"
            },
            {
              "internalType": "int64",
              "name": "tgId",
              "type": "int64"
            },
            {
              "internalType": "bool",
              "name": "valid",
              "type": "bool"
            },
            {
              "internalType": "address",
              "name": "validatorAddress",
              "type": "address"
            },
            {
              "internalType": "string",
              "name": "codeName",
              "type": "string"
            },
            {
              "internalType": "string",
              "name": "public_key",
              "type": "string"
            }
          ],
          "internalType": "struct Leg10n.User",
          "name": "",
          "type": "tuple"
        }
      ],
      "stateMutability": "view",
      "type": "function"
    },
    {
      "inputs": [
        {
          "internalType": "string",
          "name": "user_name_",
          "type": "string"
        }
      ],
      "name": "GetUserByNickName",
      "outputs": [
        {
          "components": [
            {
              "internalType": "address",
              "name": "userAddress",
              "type": "address"
            },
            {
              "internalType": "int64",
              "name": "tgId",
              "type": "int64"
            },
            {
              "internalType": "bool",
              "name": "valid",
              "type": "bool"
            },
            {
              "internalType": "address",
              "name": "validatorAddress",
              "type": "address"
            },
            {
              "internalType": "string",
              "name": "codeName",
              "type": "string"
            },
            {
              "internalType": "string",
              "name": "public_key",
              "type": "string"
            }
          ],
          "internalType": "struct Leg10n.User",
          "name": "",
          "type": "tuple"
        }
      ],
      "stateMutability": "view",
      "type": "function"
    },
    {
      "inputs": [
        {
          "internalType": "int64",
          "name": "tgId_",
          "type": "int64"
        }
      ],
      "name": "GetUserByTgId",
      "outputs": [
        {
          "components": [
            {
              "internalType": "address",
              "name": "userAddress",
              "type": "address"
            },
            {
              "internalType": "int64",
              "name": "tgId",
              "type": "int64"
            },
            {
              "internalType": "bool",
              "name": "valid",
              "type": "bool"
            },
            {
              "internalType": "address",
              "name": "validatorAddress",
              "type": "address"
            },
            {
              "internalType": "string",
              "name": "codeName",
              "type": "string"
            },
            {
              "internalType": "string",
              "name": "public_key",
              "type": "string"
            }
          ],
          "internalType": "struct Leg10n.User",
          "name": "",
          "type": "tuple"
        }
      ],
      "stateMutability": "view",
      "type": "function"
    },
    {
      "inputs": [
        {
          "internalType": "int64",
          "name": "tgId_",
          "type": "int64"
        }
      ],
      "name": "GetUserWalletByID",
      "outputs": [
        {
          "internalType": "address",
          "name": "",
          "type": "address"
        }
      ],
      "stateMutability": "view",
      "type": "function"
    },
    {
      "inputs": [
        {
          "internalType": "string",
          "name": "user_name_",
          "type": "string"
        }
      ],
      "name": "GetWalletByNickName",
      "outputs": [
        {
          "internalType": "address",
          "name": "",
          "type": "address"
        }
      ],
      "stateMutability": "view",
      "type": "function"
    },
    {
      "inputs": [
        {
          "internalType": "int64",
          "name": "applyerTg",
          "type": "int64"
        },
        {
          "internalType": "string",
          "name": "code_name_",
          "type": "string"
        },
        {
          "internalType": "string",
          "name": "parent_name",
          "type": "string"
        },
        {
          "internalType": "string",
          "name": "public_key",
          "type": "string"
        }
      ],
      "name": "RequestJoin",
      "outputs": [],
      "stateMutability": "payable",
      "type": "function"
    },
    {
      "inputs": [
        {
          "internalType": "address",
          "name": "bot_",
          "type": "address"
        }
      ],
      "name": "SetBotAddress",
      "outputs": [],
      "stateMutability": "nonpayable",
      "type": "function"
    },
    {
      "inputs": [
        {
          "internalType": "uint256",
          "name": "passportFee_",
          "type": "uint256"
        }
      ],
      "name": "SetPassportFee",
      "outputs": [],
      "stateMutability": "nonpayable",
      "type": "function"
    },
    {
      "inputs": [
        {
          "internalType": "address",
          "name": "",
          "type": "address"
        },
        {
          "internalType": "address",
          "name": "",
          "type": "address"
        }
      ],
      "name": "chain",
      "outputs": [
        {
          "internalType": "bool",
          "name": "",
          "type": "bool"
        }
      ],
      "stateMutability": "view",
      "type": "function"
    },
    {
      "inputs": [
        {
          "internalType": "string",
          "name": "",
          "type": "string"
        }
      ],
      "name": "codename_wallets",
      "outputs": [
        {
          "internalType": "address",
          "name": "",
          "type": "address"
        }
      ],
      "stateMutability": "view",
      "type": "function"
    },
    {
      "inputs": [],
      "name": "getModeratorIdentifier",
      "outputs": [
        {
          "internalType": "bytes32",
          "name": "",
          "type": "bytes32"
        }
      ],
      "stateMutability": "pure",
      "type": "function"
    },
    {
      "inputs": [
        {
          "internalType": "bytes32",
          "name": "role",
          "type": "bytes32"
        }
      ],
      "name": "getRoleAdmin",
      "outputs": [
        {
          "internalType": "bytes32",
          "name": "",
          "type": "bytes32"
        }
      ],
      "stateMutability": "view",
      "type": "function"
    },
    {
      "inputs": [
        {
          "internalType": "bytes32",
          "name": "role",
          "type": "bytes32"
        },
        {
          "internalType": "address",
          "name": "account",
          "type": "address"
        }
      ],
      "name": "grantRole",
      "outputs": [],
      "stateMutability": "nonpayable",
      "type": "function"
    },
    {
      "inputs": [
        {
          "internalType": "bytes32",
          "name": "role",
          "type": "bytes32"
        },
        {
          "internalType": "address",
          "name": "account",
          "type": "address"
        }
      ],
      "name": "hasRole",
      "outputs": [
        {
          "internalType": "bool",
          "name": "",
          "type": "bool"
        }
      ],
      "stateMutability": "view",
      "type": "function"
    },
    {
      "inputs": [],
      "name": "moderator",
      "outputs": [
        {
          "internalType": "bytes32",
          "name": "",
          "type": "bytes32"
        }
      ],
      "stateMutability": "view",
      "type": "function"
    },
    {
      "inputs": [],
      "name": "owner",
      "outputs": [
        {
          "internalType": "address",
          "name": "",
          "type": "address"
        }
      ],
      "stateMutability": "view",
      "type": "function"
    },
    {
      "inputs": [
        {
          "internalType": "address",
          "name": "",
          "type": "address"
        },
        {
          "internalType": "uint256",
          "name": "",
          "type": "uint256"
        }
      ],
      "name": "ref_tree",
      "outputs": [
        {
          "internalType": "address",
          "name": "",
          "type": "address"
        }
      ],
      "stateMutability": "view",
      "type": "function"
    },
    {
      "inputs": [],
      "name": "renounceOwnership",
      "outputs": [],
      "stateMutability": "nonpayable",
      "type": "function"
    },
    {
      "inputs": [
        {
          "internalType": "bytes32",
          "name": "role",
          "type": "bytes32"
        },
        {
          "internalType": "address",
          "name": "account",
          "type": "address"
        }
      ],
      "name": "renounceRole",
      "outputs": [],
      "stateMutability": "nonpayable",
      "type": "function"
    },
    {
      "inputs": [
        {
          "internalType": "bytes32",
          "name": "role",
          "type": "bytes32"
        },
        {
          "internalType": "address",
          "name": "account",
          "type": "address"
        }
      ],
      "name": "revokeRole",
      "outputs": [],
      "stateMutability": "nonpayable",
      "type": "function"
    },
    {
      "inputs": [
        {
          "internalType": "bytes4",
          "name": "interfaceId",
          "type": "bytes4"
        }
      ],
      "name": "supportsInterface",
      "outputs": [
        {
          "internalType": "bool",
          "name": "",
          "type": "bool"
        }
      ],
      "stateMutability": "view",
      "type": "function"
    },
    {
      "inputs": [
        {
          "internalType": "int64",
          "name": "",
          "type": "int64"
        }
      ],
      "name": "tgIdToAddress",
      "outputs": [
        {
          "internalType": "address",
          "name": "",
          "type": "address"
        }
      ],
      "stateMutability": "view",
      "type": "function"
    },
    {
      "inputs": [
        {
          "internalType": "address",
          "name": "newOwner",
          "type": "address"
        }
      ],
      "name": "transferOwnership",
      "outputs": [],
      "stateMutability": "nonpayable",
      "type": "function"
    },
    {
      "inputs": [
        {
          "internalType": "address",
          "name": "",
          "type": "address"
        }
      ],
      "name": "users",
      "outputs": [
        {
          "internalType": "address",
          "name": "userAddress",
          "type": "address"
        },
        {
          "internalType": "int64",
          "name": "tgId",
          "type": "int64"
        },
        {
          "internalType": "bool",
          "name": "valid",
          "type": "bool"
        },
        {
          "internalType": "address",
          "name": "validatorAddress",
          "type": "address"
        },
        {
          "internalType": "string",
          "name": "codeName",
          "type": "string"
        },
        {
          "internalType": "string",
          "name": "public_key",
          "type": "string"
        }
      ],
      "stateMutability": "view",
      "type": "function"
    }
  ],
  "bytecode": "0x608060405273383a9e83e36796106eac11e8c2fbe8b92ff46d3a600460006101000a81548173ffffffffffffffffffffffffffffffffffffffff021916908373ffffffffffffffffffffffffffffffffffffffff160217905550730e5279eded9fe8281eb0f7277e51068c6da2fa31600560006101000a81548173ffffffffffffffffffffffffffffffffffffffff021916908373ffffffffffffffffffffffffffffffffffffffff160217905550348015620000bb57600080fd5b5060405162004eb338038062004eb38339818101604052810190620000e191906200082e565b62000101620000f56200057360201b60201c565b6200057b60201b60201c565b66071afd498d00006002819055506200011f6200063f60201b60201c565b600360006101000a81548173ffffffffffffffffffffffffffffffffffffffff021916908373ffffffffffffffffffffffffffffffffffffffff160217905550620001746000801b336200066860201b60201c565b620001a67fcea62fe6ecc79e221c545bf918f804693c542ead2549e37c2bb9baa66ee2e157336200066860201b60201c565b620001fa7fcea62fe6ecc79e221c545bf918f804693c542ead2549e37c2bb9baa66ee2e157600560009054906101000a900473ffffffffffffffffffffffffffffffffffffffff166200066860201b60201c565b6200024e7fcea62fe6ecc79e221c545bf918f804693c542ead2549e37c2bb9baa66ee2e157600460009054906101000a900473ffffffffffffffffffffffffffffffffffffffff166200066860201b60201c565b80600b60006101000a81548173ffffffffffffffffffffffffffffffffffffffff021916908373ffffffffffffffffffffffffffffffffffffffff16021790555033600660006104d260070b815260200190815260200160002060006101000a81548173ffffffffffffffffffffffffffffffffffffffff021916908373ffffffffffffffffffffffffffffffffffffffff160217905550336008604051620002f790620008bb565b908152602001604051809103902060006101000a81548173ffffffffffffffffffffffffffffffffffffffff021916908373ffffffffffffffffffffffffffffffffffffffff1602179055506040518060c001604052807316d97a46030c5d3d705bca45439e48529997d8b273ffffffffffffffffffffffffffffffffffffffff1681526020016104d260070b81526020016001151581526020017316d97a46030c5d3d705bca45439e48529997d8b273ffffffffffffffffffffffffffffffffffffffff1681526020016040518060400160405280600481526020017f4164616d0000000000000000000000000000000000000000000000000000000081525081526020016040518060600160405280602c815260200162004e87602c9139815250600760003373ffffffffffffffffffffffffffffffffffffffff1673ffffffffffffffffffffffffffffffffffffffff16815260200190815260200160002060008201518160000160006101000a81548173ffffffffffffffffffffffffffffffffffffffff021916908373ffffffffffffffffffffffffffffffffffffffff16021790555060208201518160000160146101000a81548167ffffffffffffffff021916908360070b67ffffffffffffffff160217905550604082015181600001601c6101000a81548160ff02191690831515021790555060608201518160010160006101000a81548173ffffffffffffffffffffffffffffffffffffffff021916908373ffffffffffffffffffffffffffffffffffffffff160217905550608082015181600201908162000550919062000b4c565b5060a082015181600301908162000568919062000b4c565b509050505062000c33565b600033905090565b60008060009054906101000a900473ffffffffffffffffffffffffffffffffffffffff169050816000806101000a81548173ffffffffffffffffffffffffffffffffffffffff021916908373ffffffffffffffffffffffffffffffffffffffff1602179055508173ffffffffffffffffffffffffffffffffffffffff168173ffffffffffffffffffffffffffffffffffffffff167f8be0079c531659141344cd1fd0a4f28419497f9722a3daafe3b4186f6b6457e060405160405180910390a35050565b60008060009054906101000a900473ffffffffffffffffffffffffffffffffffffffff16905090565b6200067a82826200075960201b60201c565b6200075557600180600084815260200190815260200160002060000160008373ffffffffffffffffffffffffffffffffffffffff1673ffffffffffffffffffffffffffffffffffffffff16815260200190815260200160002060006101000a81548160ff021916908315150217905550620006fa6200057360201b60201c565b73ffffffffffffffffffffffffffffffffffffffff168173ffffffffffffffffffffffffffffffffffffffff16837f2f8788117e7eff1d82e926ec794901d17c78024a50270940304540a733656f0d60405160405180910390a45b5050565b60006001600084815260200190815260200160002060000160008373ffffffffffffffffffffffffffffffffffffffff1673ffffffffffffffffffffffffffffffffffffffff16815260200190815260200160002060009054906101000a900460ff16905092915050565b600080fd5b600073ffffffffffffffffffffffffffffffffffffffff82169050919050565b6000620007f682620007c9565b9050919050565b6200080881620007e9565b81146200081457600080fd5b50565b6000815190506200082881620007fd565b92915050565b600060208284031215620008475762000846620007c4565b5b6000620008578482850162000817565b91505092915050565b600081905092915050565b7f4164616d00000000000000000000000000000000000000000000000000000000600082015250565b6000620008a360048362000860565b9150620008b0826200086b565b600482019050919050565b6000620008c88262000894565b9150819050919050565b600081519050919050565b7f4e487b7100000000000000000000000000000000000000000000000000000000600052604160045260246000fd5b7f4e487b7100000000000000000000000000000000000000000000000000000000600052602260045260246000fd5b600060028204905060018216806200095457607f821691505b6020821081036200096a57620009696200090c565b5b50919050565b60008190508160005260206000209050919050565b60006020601f8301049050919050565b600082821b905092915050565b600060088302620009d47fffffffffffffffffffffffffffffffffffffffffffffffffffffffffffffffff8262000995565b620009e0868362000995565b95508019841693508086168417925050509392505050565b6000819050919050565b6000819050919050565b600062000a2d62000a2762000a2184620009f8565b62000a02565b620009f8565b9050919050565b6000819050919050565b62000a498362000a0c565b62000a6162000a588262000a34565b848454620009a2565b825550505050565b600090565b62000a7862000a69565b62000a8581848462000a3e565b505050565b5b8181101562000aad5762000aa160008262000a6e565b60018101905062000a8b565b5050565b601f82111562000afc5762000ac68162000970565b62000ad18462000985565b8101602085101562000ae1578190505b62000af962000af08562000985565b83018262000a8a565b50505b505050565b600082821c905092915050565b600062000b216000198460080262000b01565b1980831691505092915050565b600062000b3c838362000b0e565b9150826002028217905092915050565b62000b5782620008d2565b67ffffffffffffffff81111562000b735762000b72620008dd565b5b62000b7f82546200093b565b62000b8c82828562000ab1565b600060209050601f83116001811462000bc4576000841562000baf578287015190505b62000bbb858262000b2e565b86555062000c2b565b601f19841662000bd48662000970565b60005b8281101562000bfe5784890151825560018201915060208501945060208101905062000bd7565b8683101562000c1e578489015162000c1a601f89168262000b0e565b8355505b6001600288020188555050505b505050505050565b6142448062000c436000396000f3fe6080604052600436106101e25760003560e01c80637cec446b11610102578063b44cf60011610095578063d2125bd211610064578063d2125bd21461076d578063d547741f14610796578063f2fde38b146107bf578063f6dfd668146107e8576101e2565b8063b44cf6001461069a578063b932fbfa146106b6578063c1cada78146106f3578063d2114e1814610730576101e2565b8063a217fddf116100d1578063a217fddf146105db578063a590e9c114610606578063a87430ba1461062f578063b233e5eb14610671576101e2565b80637cec446b146104f95780638da5cb5b1461053657806391d14854146105615780639413c6421461059e576101e2565b806336568abe1161017a5780635d1ce88f116101495780635d1ce88f1461043d57806361cabe37146104685780636e312028146104a5578063715018a6146104e2576101e2565b806336568abe1461038157806338743904146103aa578063460e6c9c146103d557806348dc156114610412576101e2565b80631892fd78116101b65780631892fd78146102b5578063248a9ca3146102f25780632cd94ba41461032f5780632f2ff15d14610358576101e2565b8062d396ed146101e757806301ffc9a7146102105780630ae50a391461024d5780630d48cae814610278575b600080fd5b3480156101f357600080fd5b5061020e60048036038101906102099190612e2d565b610825565b005b34801561021c57600080fd5b5061023760048036038101906102329190612eb2565b610b31565b6040516102449190612efa565b60405180910390f35b34801561025957600080fd5b50610262610bab565b60405161026f9190612f56565b60405180910390f35b34801561028457600080fd5b5061029f600480360381019061029a91906130b7565b610bd5565b6040516102ac919061323c565b60405180910390f35b3480156102c157600080fd5b506102dc60048036038101906102d7919061328a565b610e4a565b6040516102e9919061323c565b60405180910390f35b3480156102fe57600080fd5b50610319600480360381019061031491906132ed565b6110b1565b6040516103269190613329565b60405180910390f35b34801561033b57600080fd5b506103566004803603810190610351919061328a565b6110d1565b005b34801561036457600080fd5b5061037f600480360381019061037a9190613344565b61111d565b005b34801561038d57600080fd5b506103a860048036038101906103a39190613344565b61113e565b005b3480156103b657600080fd5b506103bf6111c1565b6040516103cc9190613329565b60405180910390f35b3480156103e157600080fd5b506103fc60048036038101906103f79190613384565b6111e5565b6040516104099190612efa565b60405180910390f35b34801561041e57600080fd5b50610427611214565b60405161043491906133dd565b60405180910390f35b34801561044957600080fd5b5061045261121e565b60405161045f9190613329565b60405180910390f35b34801561047457600080fd5b5061048f600480360381019061048a919061328a565b611246565b60405161049c9190613407565b60405180910390f35b3480156104b157600080fd5b506104cc60048036038101906104c791906130b7565b611261565b6040516104d99190612f56565b60405180910390f35b3480156104ee57600080fd5b506104f76112aa565b005b34801561050557600080fd5b50610520600480360381019061051b9190612e2d565b6112be565b60405161052d9190612f56565b60405180910390f35b34801561054257600080fd5b5061054b611301565b6040516105589190612f56565b60405180910390f35b34801561056d57600080fd5b5061058860048036038101906105839190613344565b61132a565b6040516105959190612efa565b60405180910390f35b3480156105aa57600080fd5b506105c560048036038101906105c09190612e2d565b611395565b6040516105d29190612f56565b60405180910390f35b3480156105e757600080fd5b506105f06113c8565b6040516105fd9190613329565b60405180910390f35b34801561061257600080fd5b5061062d6004803603810190610628919061328a565b6113cf565b005b34801561063b57600080fd5b506106566004803603810190610651919061328a565b611700565b6040516106689695949392919061346c565b60405180910390f35b34801561067d57600080fd5b50610698600480360381019061069391906134db565b6118a6565b005b6106b460048036038101906106af9190613537565b611c57565b005b3480156106c257600080fd5b506106dd60048036038101906106d8919061328a565b6120aa565b6040516106ea91906135f2565b60405180910390f35b3480156106ff57600080fd5b5061071a60048036038101906107159190612e2d565b6120cc565b604051610727919061323c565b60405180910390f35b34801561073c57600080fd5b50610757600480360381019061075291906130b7565b612341565b6040516107649190612f56565b60405180910390f35b34801561077957600080fd5b50610794600480360381019061078f9190613640565b612389565b005b3480156107a257600080fd5b506107bd60048036038101906107b89190613344565b61239b565b005b3480156107cb57600080fd5b506107e660048036038101906107e1919061328a565b6123bc565b005b3480156107f457600080fd5b5061080f600480360381019061080a919061366d565b61243f565b60405161081c9190612f56565b60405180910390f35b6000610830826112be565b90506000600760008373ffffffffffffffffffffffffffffffffffffffff1673ffffffffffffffffffffffffffffffffffffffff1681526020019081526020016000206002018054610881906136dc565b80601f01602080910402602001604051908101604052809291908181526020018280546108ad906136dc565b80156108fa5780601f106108cf576101008083540402835291602001916108fa565b820191906000526020600020905b8154815290600101906020018083116108dd57829003601f168201915b5050505050905060001515600760008473ffffffffffffffffffffffffffffffffffffffff1673ffffffffffffffffffffffffffffffffffffffff168152602001908152602001600020600001601c9054906101000a900460ff16151514610997576040517f08c379a000000000000000000000000000000000000000000000000000000000815260040161098e9061377f565b60405180910390fd5b600760008373ffffffffffffffffffffffffffffffffffffffff1673ffffffffffffffffffffffffffffffffffffffff168152602001908152602001600020600080820160006101000a81549073ffffffffffffffffffffffffffffffffffffffff02191690556000820160146101000a81549067ffffffffffffffff021916905560008201601c6101000a81549060ff02191690556001820160006101000a81549073ffffffffffffffffffffffffffffffffffffffff0219169055600282016000610a649190612d1c565b600382016000610a749190612d1c565b5050600660008460070b60070b815260200190815260200160002060006101000a81549073ffffffffffffffffffffffffffffffffffffffff0219169055600881604051610ac291906137db565b908152602001604051809103902060006101000a81549073ffffffffffffffffffffffffffffffffffffffff02191690557f7f25a59d906bf9fb883c74ad54e4b0e924fb0326f2f946caf2875485585d0fbf8383604051610b249291906137f2565b60405180910390a1505050565b60007f7965db0b000000000000000000000000000000000000000000000000000000007bffffffffffffffffffffffffffffffffffffffffffffffffffffffff1916827bffffffffffffffffffffffffffffffffffffffffffffffffffffffff19161480610ba45750610ba38261248d565b5b9050919050565b6000600360009054906101000a900473ffffffffffffffffffffffffffffffffffffffff16905090565b610bdd612d5c565b6000610be883612341565b90506000600760008373ffffffffffffffffffffffffffffffffffffffff1673ffffffffffffffffffffffffffffffffffffffff1681526020019081526020016000206040518060c00160405290816000820160009054906101000a900473ffffffffffffffffffffffffffffffffffffffff1673ffffffffffffffffffffffffffffffffffffffff1673ffffffffffffffffffffffffffffffffffffffff1681526020016000820160149054906101000a900460070b60070b60070b815260200160008201601c9054906101000a900460ff161515151581526020016001820160009054906101000a900473ffffffffffffffffffffffffffffffffffffffff1673ffffffffffffffffffffffffffffffffffffffff1673ffffffffffffffffffffffffffffffffffffffff168152602001600282018054610d2a906136dc565b80601f0160208091040260200160405190810160405280929190818152602001828054610d56906136dc565b8015610da35780601f10610d7857610100808354040283529160200191610da3565b820191906000526020600020905b815481529060010190602001808311610d8657829003601f168201915b50505050508152602001600382018054610dbc906136dc565b80601f0160208091040260200160405190810160405280929190818152602001828054610de8906136dc565b8015610e355780601f10610e0a57610100808354040283529160200191610e35565b820191906000526020600020905b815481529060010190602001808311610e1857829003601f168201915b50505050508152505090508092505050919050565b610e52612d5c565b6000600760008473ffffffffffffffffffffffffffffffffffffffff1673ffffffffffffffffffffffffffffffffffffffff1681526020019081526020016000206040518060c00160405290816000820160009054906101000a900473ffffffffffffffffffffffffffffffffffffffff1673ffffffffffffffffffffffffffffffffffffffff1673ffffffffffffffffffffffffffffffffffffffff1681526020016000820160149054906101000a900460070b60070b60070b815260200160008201601c9054906101000a900460ff161515151581526020016001820160009054906101000a900473ffffffffffffffffffffffffffffffffffffffff1673ffffffffffffffffffffffffffffffffffffffff1673ffffffffffffffffffffffffffffffffffffffff168152602001600282018054610f92906136dc565b80601f0160208091040260200160405190810160405280929190818152602001828054610fbe906136dc565b801561100b5780601f10610fe05761010080835404028352916020019161100b565b820191906000526020600020905b815481529060010190602001808311610fee57829003601f168201915b50505050508152602001600382018054611024906136dc565b80601f0160208091040260200160405190810160405280929190818152602001828054611050906136dc565b801561109d5780601f106110725761010080835404028352916020019161109d565b820191906000526020600020905b81548152906001019060200180831161108057829003601f168201915b505050505081525050905080915050919050565b600060016000838152602001908152602001600020600101549050919050565b6110d96124f7565b80600560006101000a81548173ffffffffffffffffffffffffffffffffffffffff021916908373ffffffffffffffffffffffffffffffffffffffff16021790555050565b611126826110b1565b61112f81612575565b6111398383612589565b505050565b611146612669565b73ffffffffffffffffffffffffffffffffffffffff168173ffffffffffffffffffffffffffffffffffffffff16146111b3576040517f08c379a00000000000000000000000000000000000000000000000000000000081526004016111aa9061388d565b60405180910390fd5b6111bd8282612671565b5050565b7fcea62fe6ecc79e221c545bf918f804693c542ead2549e37c2bb9baa66ee2e15781565b600a6020528160005260406000206020528060005260406000206000915091509054906101000a900460ff1681565b6000600254905090565b60007fcea62fe6ecc79e221c545bf918f804693c542ead2549e37c2bb9baa66ee2e157905090565b60008061125283610e4a565b90508060200151915050919050565b6008818051602081018201805184825260208301602085012081835280955050505050506000915054906101000a900473ffffffffffffffffffffffffffffffffffffffff1681565b6112b26124f7565b6112bc6000612753565b565b6000600660008360070b60070b815260200190815260200160002060009054906101000a900473ffffffffffffffffffffffffffffffffffffffff169050919050565b60008060009054906101000a900473ffffffffffffffffffffffffffffffffffffffff16905090565b60006001600084815260200190815260200160002060000160008373ffffffffffffffffffffffffffffffffffffffff1673ffffffffffffffffffffffffffffffffffffffff16815260200190815260200160002060009054906101000a900460ff16905092915050565b60066020528060005260406000206000915054906101000a900473ffffffffffffffffffffffffffffffffffffffff1681565b6000801b81565b7fcea62fe6ecc79e221c545bf918f804693c542ead2549e37c2bb9baa66ee2e1576113f981612575565b6000600760008473ffffffffffffffffffffffffffffffffffffffff1673ffffffffffffffffffffffffffffffffffffffff16815260200190815260200160002060000160149054906101000a900460070b90506000600760008573ffffffffffffffffffffffffffffffffffffffff1673ffffffffffffffffffffffffffffffffffffffff168152602001908152602001600020600201805461149c906136dc565b80601f01602080910402602001604051908101604052809291908181526020018280546114c8906136dc565b80156115155780601f106114ea57610100808354040283529160200191611515565b820191906000526020600020905b8154815290600101906020018083116114f857829003601f168201915b50505050509050600046905060058114611564576040517f08c379a000000000000000000000000000000000000000000000000000000000815260040161155b9061391f565b60405180910390fd5b600760008673ffffffffffffffffffffffffffffffffffffffff1673ffffffffffffffffffffffffffffffffffffffff168152602001908152602001600020600080820160006101000a81549073ffffffffffffffffffffffffffffffffffffffff02191690556000820160146101000a81549067ffffffffffffffff021916905560008201601c6101000a81549060ff02191690556001820160006101000a81549073ffffffffffffffffffffffffffffffffffffffff02191690556002820160006116319190612d1c565b6003820160006116419190612d1c565b5050600660008460070b60070b815260200190815260200160002060006101000a81549073ffffffffffffffffffffffffffffffffffffffff021916905560088260405161168f91906137db565b908152602001604051809103902060006101000a81549073ffffffffffffffffffffffffffffffffffffffff02191690557f7f25a59d906bf9fb883c74ad54e4b0e924fb0326f2f946caf2875485585d0fbf83866040516116f19291906137f2565b60405180910390a15050505050565b60076020528060005260406000206000915090508060000160009054906101000a900473ffffffffffffffffffffffffffffffffffffffff16908060000160149054906101000a900460070b9080600001601c9054906101000a900460ff16908060010160009054906101000a900473ffffffffffffffffffffffffffffffffffffffff1690806002018054611795906136dc565b80601f01602080910402602001604051908101604052809291908181526020018280546117c1906136dc565b801561180e5780601f106117e35761010080835404028352916020019161180e565b820191906000526020600020905b8154815290600101906020018083116117f157829003601f168201915b505050505090806003018054611823906136dc565b80601f016020809104026020016040519081016040528092919081815260200182805461184f906136dc565b801561189c5780601f106118715761010080835404028352916020019161189c565b820191906000526020600020905b81548152906001019060200180831161187f57829003601f168201915b5050505050905086565b60006008826040516118b891906137db565b908152602001604051809103902060009054906101000a900473ffffffffffffffffffffffffffffffffffffffff1690503373ffffffffffffffffffffffffffffffffffffffff168173ffffffffffffffffffffffffffffffffffffffff1614611957576040517f08c379a000000000000000000000000000000000000000000000000000000000815260040161194e9061398b565b60405180910390fd5b6000611962846112be565b90506000600a60008473ffffffffffffffffffffffffffffffffffffffff1673ffffffffffffffffffffffffffffffffffffffff16815260200190815260200160002060008373ffffffffffffffffffffffffffffffffffffffff1673ffffffffffffffffffffffffffffffffffffffff16815260200190815260200160002060009054906101000a900460ff1690506000151581151514611a39576040517f08c379a0000000000000000000000000000000000000000000000000000000008152600401611a30906139f7565b60405180910390fd5b6000600960008573ffffffffffffffffffffffffffffffffffffffff1673ffffffffffffffffffffffffffffffffffffffff168152602001908152602001600020905080839080600181540180825580915050600190039060005260206000200160009091909190916101000a81548173ffffffffffffffffffffffffffffffffffffffff021916908373ffffffffffffffffffffffffffffffffffffffff1602179055506001600760008573ffffffffffffffffffffffffffffffffffffffff1673ffffffffffffffffffffffffffffffffffffffff168152602001908152602001600020600001601c6101000a81548160ff02191690831515021790555033600760008573ffffffffffffffffffffffffffffffffffffffff1673ffffffffffffffffffffffffffffffffffffffff16815260200190815260200160002060010160006101000a81548173ffffffffffffffffffffffffffffffffffffffff021916908373ffffffffffffffffffffffffffffffffffffffff1602179055506001600a60008673ffffffffffffffffffffffffffffffffffffffff1673ffffffffffffffffffffffffffffffffffffffff16815260200190815260200160002060008573ffffffffffffffffffffffffffffffffffffffff1673ffffffffffffffffffffffffffffffffffffffff16815260200190815260200160002060006101000a81548160ff021916908315150217905550505050505050565b6000339050611c6885828686612817565b6002543414611cac576040517f08c379a0000000000000000000000000000000000000000000000000000000008152600401611ca390613a63565b60405180910390fd5b6000600884604051611cbe91906137db565b908152602001604051809103902060009054906101000a900473ffffffffffffffffffffffffffffffffffffffff1690506040518060c001604052808373ffffffffffffffffffffffffffffffffffffffff1681526020018760070b81526020016000151581526020018273ffffffffffffffffffffffffffffffffffffffff16815260200186815260200184815250600760003373ffffffffffffffffffffffffffffffffffffffff1673ffffffffffffffffffffffffffffffffffffffff16815260200190815260200160002060008201518160000160006101000a81548173ffffffffffffffffffffffffffffffffffffffff021916908373ffffffffffffffffffffffffffffffffffffffff16021790555060208201518160000160146101000a81548167ffffffffffffffff021916908360070b67ffffffffffffffff160217905550604082015181600001601c6101000a81548160ff02191690831515021790555060608201518160010160006101000a81548173ffffffffffffffffffffffffffffffffffffffff021916908373ffffffffffffffffffffffffffffffffffffffff1602179055506080820151816002019081611e829190613c2f565b5060a0820151816003019081611e989190613c2f565b509050506000600560009054906101000a900473ffffffffffffffffffffffffffffffffffffffff1673ffffffffffffffffffffffffffffffffffffffff16600254604051611ee690613d32565b60006040518083038185875af1925050503d8060008114611f23576040519150601f19603f3d011682016040523d82523d6000602084013e611f28565b606091505b5050905080611f6c576040517f08c379a0000000000000000000000000000000000000000000000000000000008152600401611f6390613d93565b60405180910390fd5b8173ffffffffffffffffffffffffffffffffffffffff167f217213f52d0ada6519b1710cff4d5e622165afded08327f17577ff3c303713608833604051611fb49291906137f2565b60405180910390a28173ffffffffffffffffffffffffffffffffffffffff167f2f9961dc36e79933613fb931d5ca8392c911b25840b07276e17e19961d22824088336040516120049291906137f2565b60405180910390a26000600a60008473ffffffffffffffffffffffffffffffffffffffff1673ffffffffffffffffffffffffffffffffffffffff16815260200190815260200160002060003373ffffffffffffffffffffffffffffffffffffffff1673ffffffffffffffffffffffffffffffffffffffff16815260200190815260200160002060006101000a81548160ff02191690831515021790555050505050505050565b606060006120b783610e4a565b905060008160a0015190508092505050919050565b6120d4612d5c565b60006120df836112be565b90506000600760008373ffffffffffffffffffffffffffffffffffffffff1673ffffffffffffffffffffffffffffffffffffffff1681526020019081526020016000206040518060c00160405290816000820160009054906101000a900473ffffffffffffffffffffffffffffffffffffffff1673ffffffffffffffffffffffffffffffffffffffff1673ffffffffffffffffffffffffffffffffffffffff1681526020016000820160149054906101000a900460070b60070b60070b815260200160008201601c9054906101000a900460ff161515151581526020016001820160009054906101000a900473ffffffffffffffffffffffffffffffffffffffff1673ffffffffffffffffffffffffffffffffffffffff1673ffffffffffffffffffffffffffffffffffffffff168152602001600282018054612221906136dc565b80601f016020809104026020016040519081016040528092919081815260200182805461224d906136dc565b801561229a5780601f1061226f5761010080835404028352916020019161229a565b820191906000526020600020905b81548152906001019060200180831161227d57829003601f168201915b505050505081526020016003820180546122b3906136dc565b80601f01602080910402602001604051908101604052809291908181526020018280546122df906136dc565b801561232c5780601f106123015761010080835404028352916020019161232c565b820191906000526020600020905b81548152906001019060200180831161230f57829003601f168201915b50505050508152505090508092505050919050565b600060088260405161235391906137db565b908152602001604051809103902060009054906101000a900473ffffffffffffffffffffffffffffffffffffffff169050919050565b6123916124f7565b8060028190555050565b6123a4826110b1565b6123ad81612575565b6123b78383612671565b505050565b6123c46124f7565b600073ffffffffffffffffffffffffffffffffffffffff168173ffffffffffffffffffffffffffffffffffffffff1603612433576040517f08c379a000000000000000000000000000000000000000000000000000000000815260040161242a90613e25565b60405180910390fd5b61243c81612753565b50565b6009602052816000526040600020818154811061245b57600080fd5b906000526020600020016000915091509054906101000a900473ffffffffffffffffffffffffffffffffffffffff1681565b60007f01ffc9a7000000000000000000000000000000000000000000000000000000007bffffffffffffffffffffffffffffffffffffffffffffffffffffffff1916827bffffffffffffffffffffffffffffffffffffffffffffffffffffffff1916149050919050565b6124ff612669565b73ffffffffffffffffffffffffffffffffffffffff1661251d611301565b73ffffffffffffffffffffffffffffffffffffffff1614612573576040517f08c379a000000000000000000000000000000000000000000000000000000000815260040161256a90613e91565b60405180910390fd5b565b61258681612581612669565b612a2e565b50565b612593828261132a565b61266557600180600084815260200190815260200160002060000160008373ffffffffffffffffffffffffffffffffffffffff1673ffffffffffffffffffffffffffffffffffffffff16815260200190815260200160002060006101000a81548160ff02191690831515021790555061260a612669565b73ffffffffffffffffffffffffffffffffffffffff168173ffffffffffffffffffffffffffffffffffffffff16837f2f8788117e7eff1d82e926ec794901d17c78024a50270940304540a733656f0d60405160405180910390a45b5050565b600033905090565b61267b828261132a565b1561274f5760006001600084815260200190815260200160002060000160008373ffffffffffffffffffffffffffffffffffffffff1673ffffffffffffffffffffffffffffffffffffffff16815260200190815260200160002060006101000a81548160ff0219169083151502179055506126f4612669565b73ffffffffffffffffffffffffffffffffffffffff168173ffffffffffffffffffffffffffffffffffffffff16837ff6391f5c32d9c69d2a47ea670b442974b53935d1edc7fd64eb21e047a839171b60405160405180910390a45b5050565b60008060009054906101000a900473ffffffffffffffffffffffffffffffffffffffff169050816000806101000a81548173ffffffffffffffffffffffffffffffffffffffff021916908373ffffffffffffffffffffffffffffffffffffffff1602179055508173ffffffffffffffffffffffffffffffffffffffff168173ffffffffffffffffffffffffffffffffffffffff167f8be0079c531659141344cd1fd0a4f28419497f9722a3daafe3b4186f6b6457e060405160405180910390a35050565b600073ffffffffffffffffffffffffffffffffffffffff16600660008660070b60070b815260200190815260200160002060009054906101000a900473ffffffffffffffffffffffffffffffffffffffff1673ffffffffffffffffffffffffffffffffffffffff16146128bf576040517f08c379a00000000000000000000000000000000000000000000000000000000081526004016128b690613f23565b60405180910390fd5b6000600b60009054906101000a900473ffffffffffffffffffffffffffffffffffffffff1673ffffffffffffffffffffffffffffffffffffffff1663a430c74484846040518363ffffffff1660e01b815260040161291e929190613f43565b602060405180830381865afa15801561293b573d6000803e3d6000fd5b505050506040513d601f19601f8201168201806040525081019061295f9190613fa6565b9050600115158115151461297257600080fd5b83600660008760070b60070b815260200190815260200160002060006101000a81548173ffffffffffffffffffffffffffffffffffffffff021916908373ffffffffffffffffffffffffffffffffffffffff160217905550836008846040516129db91906137db565b908152602001604051809103902060006101000a81548173ffffffffffffffffffffffffffffffffffffffff021916908373ffffffffffffffffffffffffffffffffffffffff1602179055505050505050565b612a38828261132a565b612aaf57612a4581612ab3565b612a538360001c6020612ae0565b604051602001612a6492919061406b565b6040516020818303038152906040526040517f08c379a0000000000000000000000000000000000000000000000000000000008152600401612aa691906135f2565b60405180910390fd5b5050565b6060612ad98273ffffffffffffffffffffffffffffffffffffffff16601460ff16612ae0565b9050919050565b606060006002836002612af391906140d4565b612afd9190614116565b67ffffffffffffffff811115612b1657612b15612f8c565b5b6040519080825280601f01601f191660200182016040528015612b485781602001600182028036833780820191505090505b5090507f300000000000000000000000000000000000000000000000000000000000000081600081518110612b8057612b7f61414a565b5b60200101907effffffffffffffffffffffffffffffffffffffffffffffffffffffffffffff1916908160001a9053507f780000000000000000000000000000000000000000000000000000000000000081600181518110612be457612be361414a565b5b60200101907effffffffffffffffffffffffffffffffffffffffffffffffffffffffffffff1916908160001a90535060006001846002612c2491906140d4565b612c2e9190614116565b90505b6001811115612cce577f3031323334353637383961626364656600000000000000000000000000000000600f861660108110612c7057612c6f61414a565b5b1a60f81b828281518110612c8757612c8661414a565b5b60200101907effffffffffffffffffffffffffffffffffffffffffffffffffffffffffffff1916908160001a905350600485901c945080612cc790614179565b9050612c31565b5060008414612d12576040517f08c379a0000000000000000000000000000000000000000000000000000000008152600401612d09906141ee565b60405180910390fd5b8091505092915050565b508054612d28906136dc565b6000825580601f10612d3a5750612d59565b601f016020900490600052602060002090810190612d589190612dc3565b5b50565b6040518060c00160405280600073ffffffffffffffffffffffffffffffffffffffff168152602001600060070b8152602001600015158152602001600073ffffffffffffffffffffffffffffffffffffffff16815260200160608152602001606081525090565b5b80821115612ddc576000816000905550600101612dc4565b5090565b6000604051905090565b600080fd5b600080fd5b60008160070b9050919050565b612e0a81612df4565b8114612e1557600080fd5b50565b600081359050612e2781612e01565b92915050565b600060208284031215612e4357612e42612dea565b5b6000612e5184828501612e18565b91505092915050565b60007fffffffff0000000000000000000000000000000000000000000000000000000082169050919050565b612e8f81612e5a565b8114612e9a57600080fd5b50565b600081359050612eac81612e86565b92915050565b600060208284031215612ec857612ec7612dea565b5b6000612ed684828501612e9d565b91505092915050565b60008115159050919050565b612ef481612edf565b82525050565b6000602082019050612f0f6000830184612eeb565b92915050565b600073ffffffffffffffffffffffffffffffffffffffff82169050919050565b6000612f4082612f15565b9050919050565b612f5081612f35565b82525050565b6000602082019050612f6b6000830184612f47565b92915050565b600080fd5b600080fd5b6000601f19601f8301169050919050565b7f4e487b7100000000000000000000000000000000000000000000000000000000600052604160045260246000fd5b612fc482612f7b565b810181811067ffffffffffffffff82111715612fe357612fe2612f8c565b5b80604052505050565b6000612ff6612de0565b90506130028282612fbb565b919050565b600067ffffffffffffffff82111561302257613021612f8c565b5b61302b82612f7b565b9050602081019050919050565b82818337600083830152505050565b600061305a61305584613007565b612fec565b90508281526020810184848401111561307657613075612f76565b5b613081848285613038565b509392505050565b600082601f83011261309e5761309d612f71565b5b81356130ae848260208601613047565b91505092915050565b6000602082840312156130cd576130cc612dea565b5b600082013567ffffffffffffffff8111156130eb576130ea612def565b5b6130f784828501613089565b91505092915050565b61310981612f35565b82525050565b61311881612df4565b82525050565b61312781612edf565b82525050565b600081519050919050565b600082825260208201905092915050565b60005b8381101561316757808201518184015260208101905061314c565b60008484015250505050565b600061317e8261312d565b6131888185613138565b9350613198818560208601613149565b6131a181612f7b565b840191505092915050565b600060c0830160008301516131c46000860182613100565b5060208301516131d7602086018261310f565b5060408301516131ea604086018261311e565b5060608301516131fd6060860182613100565b50608083015184820360808601526132158282613173565b91505060a083015184820360a086015261322f8282613173565b9150508091505092915050565b6000602082019050818103600083015261325681846131ac565b905092915050565b61326781612f35565b811461327257600080fd5b50565b6000813590506132848161325e565b92915050565b6000602082840312156132a05761329f612dea565b5b60006132ae84828501613275565b91505092915050565b6000819050919050565b6132ca816132b7565b81146132d557600080fd5b50565b6000813590506132e7816132c1565b92915050565b60006020828403121561330357613302612dea565b5b6000613311848285016132d8565b91505092915050565b613323816132b7565b82525050565b600060208201905061333e600083018461331a565b92915050565b6000806040838503121561335b5761335a612dea565b5b6000613369858286016132d8565b925050602061337a85828601613275565b9150509250929050565b6000806040838503121561339b5761339a612dea565b5b60006133a985828601613275565b92505060206133ba85828601613275565b9150509250929050565b6000819050919050565b6133d7816133c4565b82525050565b60006020820190506133f260008301846133ce565b92915050565b61340181612df4565b82525050565b600060208201905061341c60008301846133f8565b92915050565b600082825260208201905092915050565b600061343e8261312d565b6134488185613422565b9350613458818560208601613149565b61346181612f7b565b840191505092915050565b600060c0820190506134816000830189612f47565b61348e60208301886133f8565b61349b6040830187612eeb565b6134a86060830186612f47565b81810360808301526134ba8185613433565b905081810360a08301526134ce8184613433565b9050979650505050505050565b600080604083850312156134f2576134f1612dea565b5b600061350085828601612e18565b925050602083013567ffffffffffffffff81111561352157613520612def565b5b61352d85828601613089565b9150509250929050565b6000806000806080858703121561355157613550612dea565b5b600061355f87828801612e18565b945050602085013567ffffffffffffffff8111156135805761357f612def565b5b61358c87828801613089565b935050604085013567ffffffffffffffff8111156135ad576135ac612def565b5b6135b987828801613089565b925050606085013567ffffffffffffffff8111156135da576135d9612def565b5b6135e687828801613089565b91505092959194509250565b6000602082019050818103600083015261360c8184613433565b905092915050565b61361d816133c4565b811461362857600080fd5b50565b60008135905061363a81613614565b92915050565b60006020828403121561365657613655612dea565b5b60006136648482850161362b565b91505092915050565b6000806040838503121561368457613683612dea565b5b600061369285828601613275565b92505060206136a38582860161362b565b9150509250929050565b7f4e487b7100000000000000000000000000000000000000000000000000000000600052602260045260246000fd5b600060028204905060018216806136f457607f821691505b602082108103613707576137066136ad565b5b50919050565b7f616c726561647920617070726f766564204f5220646f206e6f7420657869737460008201527f7320796574000000000000000000000000000000000000000000000000000000602082015250565b6000613769602583613422565b91506137748261370d565b604082019050919050565b600060208201905081810360008301526137988161375c565b9050919050565b600081905092915050565b60006137b58261312d565b6137bf818561379f565b93506137cf818560208601613149565b80840191505092915050565b60006137e782846137aa565b915081905092915050565b600060408201905061380760008301856133f8565b6138146020830184612f47565b9392505050565b7f416363657373436f6e74726f6c3a2063616e206f6e6c792072656e6f756e636560008201527f20726f6c657320666f722073656c660000000000000000000000000000000000602082015250565b6000613877602f83613422565b91506138828261381b565b604082019050919050565b600060208201905081810360008301526138a68161386a565b9050919050565b7f746869732066756e6374696f6e20776f726b2773206f6e6c7920666f7220746560008201527f73746e6574000000000000000000000000000000000000000000000000000000602082015250565b6000613909602583613422565b9150613914826138ad565b604082019050919050565b60006020820190508181036000830152613938816138fc565b9050919050565b7f6f6e6c7920706172656e745f6e616d652063616e206163636570742069740000600082015250565b6000613975601e83613422565b91506139808261393f565b602082019050919050565b600060208201905081810360008301526139a481613968565b9050919050565b7f616c726561647920726567697374726564000000000000000000000000000000600082015250565b60006139e1601183613422565b91506139ec826139ab565b602082019050919050565b60006020820190508181036000830152613a10816139d4565b9050919050565b7f5265717565737420666565206973206e6f742070616964000000000000000000600082015250565b6000613a4d601783613422565b9150613a5882613a17565b602082019050919050565b60006020820190508181036000830152613a7c81613a40565b9050919050565b60008190508160005260206000209050919050565b60006020601f8301049050919050565b600082821b905092915050565b600060088302613ae57fffffffffffffffffffffffffffffffffffffffffffffffffffffffffffffffff82613aa8565b613aef8683613aa8565b95508019841693508086168417925050509392505050565b6000819050919050565b6000613b2c613b27613b22846133c4565b613b07565b6133c4565b9050919050565b6000819050919050565b613b4683613b11565b613b5a613b5282613b33565b848454613ab5565b825550505050565b600090565b613b6f613b62565b613b7a818484613b3d565b505050565b5b81811015613b9e57613b93600082613b67565b600181019050613b80565b5050565b601f821115613be357613bb481613a83565b613bbd84613a98565b81016020851015613bcc578190505b613be0613bd885613a98565b830182613b7f565b50505b505050565b600082821c905092915050565b6000613c0660001984600802613be8565b1980831691505092915050565b6000613c1f8383613bf5565b9150826002028217905092915050565b613c388261312d565b67ffffffffffffffff811115613c5157613c50612f8c565b5b613c5b82546136dc565b613c66828285613ba2565b600060209050601f831160018114613c995760008415613c87578287015190505b613c918582613c13565b865550613cf9565b601f198416613ca786613a83565b60005b82811015613ccf57848901518255600182019150602085019450602081019050613caa565b86831015613cec5784890151613ce8601f891682613bf5565b8355505b6001600288020188555050505b505050505050565b600081905092915050565b50565b6000613d1c600083613d01565b9150613d2782613d0c565b600082019050919050565b6000613d3d82613d0f565b9150819050919050565b7f556e61626c6520746f207472616e736665722066656500000000000000000000600082015250565b6000613d7d601683613422565b9150613d8882613d47565b602082019050919050565b60006020820190508181036000830152613dac81613d70565b9050919050565b7f4f776e61626c653a206e6577206f776e657220697320746865207a65726f206160008201527f6464726573730000000000000000000000000000000000000000000000000000602082015250565b6000613e0f602683613422565b9150613e1a82613db3565b604082019050919050565b60006020820190508181036000830152613e3e81613e02565b9050919050565b7f4f776e61626c653a2063616c6c6572206973206e6f7420746865206f776e6572600082015250565b6000613e7b602083613422565b9150613e8682613e45565b602082019050919050565b60006020820190508181036000830152613eaa81613e6e565b9050919050565b7f54686572652773206164647265737320636f6e6e656374656420746f2074686160008201527f7420544720494420616c72656164792e00000000000000000000000000000000602082015250565b6000613f0d603083613422565b9150613f1882613eb1565b604082019050919050565b60006020820190508181036000830152613f3c81613f00565b9050919050565b60006040820190508181036000830152613f5d8185613433565b90508181036020830152613f718184613433565b90509392505050565b613f8381612edf565b8114613f8e57600080fd5b50565b600081519050613fa081613f7a565b92915050565b600060208284031215613fbc57613fbb612dea565b5b6000613fca84828501613f91565b91505092915050565b7f416363657373436f6e74726f6c3a206163636f756e7420000000000000000000600082015250565b600061400960178361379f565b915061401482613fd3565b601782019050919050565b7f206973206d697373696e6720726f6c6520000000000000000000000000000000600082015250565b600061405560118361379f565b91506140608261401f565b601182019050919050565b600061407682613ffc565b915061408282856137aa565b915061408d82614048565b915061409982846137aa565b91508190509392505050565b7f4e487b7100000000000000000000000000000000000000000000000000000000600052601160045260246000fd5b60006140df826133c4565b91506140ea836133c4565b92508282026140f8816133c4565b9150828204841483151761410f5761410e6140a5565b5b5092915050565b6000614121826133c4565b915061412c836133c4565b9250828201905080821115614144576141436140a5565b5b92915050565b7f4e487b7100000000000000000000000000000000000000000000000000000000600052603260045260246000fd5b6000614184826133c4565b915060008203614197576141966140a5565b5b600182039050919050565b7f537472696e67733a20686578206c656e67746820696e73756666696369656e74600082015250565b60006141d8602083613422565b91506141e3826141a2565b602082019050919050565b60006020820190508181036000830152614207816141cb565b905091905056fea264697066735822122020a198047da2b98dca7c78d285c202add0395ca0099330b10c32fd3ce82f4f9664736f6c634300081100337a6a58436a3969757365336748476141494967796169434f734a705157534345424261632f7a50477267513d",
  "linkReferences": {},
  "deployedLinkReferences": {}
}