{
  "_format": "hh-sol-artifact-1",
  "contractName": "Leg10n",
  "sourceName": "contracts/Leg10n.sol",
  "abi": [
    {
      "inputs": [
        {
          "internalType": "address",
          "name": "turing_",
          "type": "address"
        }
      ],
      "stateMutability": "nonpayable",
      "type": "constructor"
    },
    {
      "anonymous": false,
      "inputs": [
        {
          "indexed": true,
          "internalType": "address",
          "name": "previousOwner",
          "type": "address"
        },
        {
          "indexed": true,
          "internalType": "address",
          "name": "newOwner",
          "type": "address"
        }
      ],
      "name": "OwnershipTransferred",
      "type": "event"
    },
    {
      "anonymous": false,
      "inputs": [
        {
          "indexed": true,
          "internalType": "bytes32",
          "name": "role",
          "type": "bytes32"
        },
        {
          "indexed": true,
          "internalType": "bytes32",
          "name": "previousAdminRole",
          "type": "bytes32"
        },
        {
          "indexed": true,
          "internalType": "bytes32",
          "name": "newAdminRole",
          "type": "bytes32"
        }
      ],
      "name": "RoleAdminChanged",
      "type": "event"
    },
    {
      "anonymous": false,
      "inputs": [
        {
          "indexed": true,
          "internalType": "bytes32",
          "name": "role",
          "type": "bytes32"
        },
        {
          "indexed": true,
          "internalType": "address",
          "name": "account",
          "type": "address"
        },
        {
          "indexed": true,
          "internalType": "address",
          "name": "sender",
          "type": "address"
        }
      ],
      "name": "RoleGranted",
      "type": "event"
    },
    {
      "anonymous": false,
      "inputs": [
        {
          "indexed": true,
          "internalType": "bytes32",
          "name": "role",
          "type": "bytes32"
        },
        {
          "indexed": true,
          "internalType": "address",
          "name": "account",
          "type": "address"
        },
        {
          "indexed": true,
          "internalType": "address",
          "name": "sender",
          "type": "address"
        }
      ],
      "name": "RoleRevoked",
      "type": "event"
    },
    {
      "anonymous": false,
      "inputs": [
        {
          "indexed": false,
          "internalType": "int64",
          "name": "applyerTg",
          "type": "int64"
        },
        {
          "indexed": false,
          "internalType": "address",
          "name": "wallet_address",
          "type": "address"
        },
        {
          "indexed": true,
          "internalType": "address",
          "name": "parent_address",
          "type": "address"
        }
      ],
      "name": "joinRequested",
      "type": "event"
    },
    {
      "anonymous": false,
      "inputs": [
        {
          "indexed": false,
          "internalType": "int64",
          "name": "applyerTg",
          "type": "int64"
        },
        {
          "indexed": false,
          "internalType": "address",
          "name": "wallet_address",
          "type": "address"
        },
        {
          "indexed": true,
          "internalType": "address",
          "name": "parent_address",
          "type": "address"
        }
      ],
      "name": "joinRequestedIndexedTG",
      "type": "event"
    },
    {
      "anonymous": false,
      "inputs": [
        {
          "indexed": false,
          "internalType": "address",
          "name": "high_node",
          "type": "address"
        },
        {
          "indexed": true,
          "internalType": "address",
          "name": "low_node",
          "type": "address"
        },
        {
          "indexed": false,
          "internalType": "bool",
          "name": "pravda",
          "type": "bool"
        }
      ],
      "name": "relationChanged",
      "type": "event"
    },
    {
      "anonymous": false,
      "inputs": [
        {
          "indexed": true,
          "internalType": "int64",
          "name": "applyerTg",
          "type": "int64"
        },
        {
          "indexed": false,
          "internalType": "address",
          "name": "user_address",
          "type": "address"
        },
        {
          "indexed": false,
          "internalType": "address",
          "name": "parent_address",
          "type": "address"
        }
      ],
      "name": "requestAccepted",
      "type": "event"
    },
    {
      "anonymous": false,
      "inputs": [
        {
          "indexed": false,
          "internalType": "int64",
          "name": "applyerTg",
          "type": "int64"
        },
        {
          "indexed": false,
          "internalType": "address",
          "name": "wallet",
          "type": "address"
        }
      ],
      "name": "requestDenied",
      "type": "event"
    },
    {
      "inputs": [
        {
          "internalType": "int64",
          "name": "applyerTg",
          "type": "int64"
        },
        {
          "internalType": "string",
          "name": "parent_name",
          "type": "string"
        }
      ],
      "name": "AcceptJoin",
      "outputs": [],
      "stateMutability": "nonpayable",
      "type": "function"
    },
    {
      "inputs": [],
      "name": "ClearParent",
      "outputs": [],
      "stateMutability": "nonpayable",
      "type": "function"
    },
    {
      "inputs": [],
      "name": "DEFAULT_ADMIN_ROLE",
      "outputs": [
        {
          "internalType": "bytes32",
          "name": "",
          "type": "bytes32"
        }
      ],
      "stateMutability": "view",
      "type": "function"
    },
    {
      "inputs": [
        {
          "internalType": "int64",
          "name": "tgid",
          "type": "int64"
        }
      ],
      "name": "DeclineRequest",
      "outputs": [],
      "stateMutability": "nonpayable",
      "type": "function"
    },
    {
      "inputs": [
        {
          "internalType": "address",
          "name": "passportToDecline",
          "type": "address"
        }
      ],
      "name": "DeleteUser",
      "outputs": [],
      "stateMutability": "nonpayable",
      "type": "function"
    },
    {
      "inputs": [],
      "name": "GetOwner",
      "outputs": [
        {
          "internalType": "address",
          "name": "",
          "type": "address"
        }
      ],
      "stateMutability": "view",
      "type": "function"
    },
    {
      "inputs": [],
      "name": "GetPassportFee",
      "outputs": [
        {
          "internalType": "uint256",
          "name": "",
          "type": "uint256"
        }
      ],
      "stateMutability": "view",
      "type": "function"
    },
    {
      "inputs": [
        {
          "internalType": "address",
          "name": "user_address",
          "type": "address"
        }
      ],
      "name": "GetPublicKeyByAddress",
      "outputs": [
        {
          "internalType": "string",
          "name": "",
          "type": "string"
        }
      ],
      "stateMutability": "view",
      "type": "function"
    },
    {
      "inputs": [
        {
          "internalType": "address",
          "name": "user_wallet",
          "type": "address"
        }
      ],
      "name": "GetTgIdByAddress",
      "outputs": [
        {
          "internalType": "int64",
          "name": "tgid",
          "type": "int64"
        }
      ],
      "stateMutability": "view",
      "type": "function"
    },
    {
      "inputs": [
        {
          "internalType": "address",
          "name": "user_wallet",
          "type": "address"
        }
      ],
      "name": "GetUserByAddress",
      "outputs": [
        {
          "components": [
            {
              "internalType": "address",
              "name": "userAddress",
              "type": "address"
            },
            {
              "internalType": "int64",
              "name": "tgId",
              "type": "int64"
            },
            {
              "internalType": "bool",
              "name": "valid",
              "type": "bool"
            },
            {
              "internalType": "address",
              "name": "validatorAddress",
              "type": "address"
            },
            {
              "internalType": "string",
              "name": "codeName",
              "type": "string"
            },
            {
              "internalType": "string",
              "name": "public_key",
              "type": "string"
            }
          ],
          "internalType": "struct Leg10n.User",
          "name": "",
          "type": "tuple"
        }
      ],
      "stateMutability": "view",
      "type": "function"
    },
    {
      "inputs": [
        {
          "internalType": "string",
          "name": "user_name_",
          "type": "string"
        }
      ],
      "name": "GetUserByNickName",
      "outputs": [
        {
          "components": [
            {
              "internalType": "address",
              "name": "userAddress",
              "type": "address"
            },
            {
              "internalType": "int64",
              "name": "tgId",
              "type": "int64"
            },
            {
              "internalType": "bool",
              "name": "valid",
              "type": "bool"
            },
            {
              "internalType": "address",
              "name": "validatorAddress",
              "type": "address"
            },
            {
              "internalType": "string",
              "name": "codeName",
              "type": "string"
            },
            {
              "internalType": "string",
              "name": "public_key",
              "type": "string"
            }
          ],
          "internalType": "struct Leg10n.User",
          "name": "",
          "type": "tuple"
        }
      ],
      "stateMutability": "view",
      "type": "function"
    },
    {
      "inputs": [
        {
          "internalType": "int64",
          "name": "tgId_",
          "type": "int64"
        }
      ],
      "name": "GetUserByTgId",
      "outputs": [
        {
          "components": [
            {
              "internalType": "address",
              "name": "userAddress",
              "type": "address"
            },
            {
              "internalType": "int64",
              "name": "tgId",
              "type": "int64"
            },
            {
              "internalType": "bool",
              "name": "valid",
              "type": "bool"
            },
            {
              "internalType": "address",
              "name": "validatorAddress",
              "type": "address"
            },
            {
              "internalType": "string",
              "name": "codeName",
              "type": "string"
            },
            {
              "internalType": "string",
              "name": "public_key",
              "type": "string"
            }
          ],
          "internalType": "struct Leg10n.User",
          "name": "",
          "type": "tuple"
        }
      ],
      "stateMutability": "view",
      "type": "function"
    },
    {
      "inputs": [
        {
          "internalType": "int64",
          "name": "tgId_",
          "type": "int64"
        }
      ],
      "name": "GetUserWalletByID",
      "outputs": [
        {
          "internalType": "address",
          "name": "",
          "type": "address"
        }
      ],
      "stateMutability": "view",
      "type": "function"
    },
    {
      "inputs": [
        {
          "internalType": "string",
          "name": "user_name_",
          "type": "string"
        }
      ],
      "name": "GetWalletByNickName",
      "outputs": [
        {
          "internalType": "address",
          "name": "",
          "type": "address"
        }
      ],
      "stateMutability": "view",
      "type": "function"
    },
    {
      "inputs": [
        {
          "internalType": "int64",
          "name": "applyerTg",
          "type": "int64"
        },
        {
          "internalType": "string",
          "name": "code_name_",
          "type": "string"
        },
        {
          "internalType": "string",
          "name": "parent_name",
          "type": "string"
        },
        {
          "internalType": "string",
          "name": "public_key",
          "type": "string"
        }
      ],
      "name": "RequestJoin",
      "outputs": [],
      "stateMutability": "payable",
      "type": "function"
    },
    {
      "inputs": [
        {
          "internalType": "address",
          "name": "bot_",
          "type": "address"
        }
      ],
      "name": "SetBotAddress",
      "outputs": [],
      "stateMutability": "nonpayable",
      "type": "function"
    },
    {
      "inputs": [
        {
          "internalType": "uint256",
          "name": "passportFee_",
          "type": "uint256"
        }
      ],
      "name": "SetPassportFee",
      "outputs": [],
      "stateMutability": "nonpayable",
      "type": "function"
    },
    {
      "inputs": [
        {
          "internalType": "address",
          "name": "",
          "type": "address"
        },
        {
          "internalType": "address",
          "name": "",
          "type": "address"
        }
      ],
      "name": "chain",
      "outputs": [
        {
          "internalType": "bool",
          "name": "",
          "type": "bool"
        }
      ],
      "stateMutability": "view",
      "type": "function"
    },
    {
      "inputs": [
        {
          "internalType": "string",
          "name": "",
          "type": "string"
        }
      ],
      "name": "codename_wallets",
      "outputs": [
        {
          "internalType": "address",
          "name": "",
          "type": "address"
        }
      ],
      "stateMutability": "view",
      "type": "function"
    },
    {
      "inputs": [],
      "name": "getModeratorIdentifier",
      "outputs": [
        {
          "internalType": "bytes32",
          "name": "",
          "type": "bytes32"
        }
      ],
      "stateMutability": "pure",
      "type": "function"
    },
    {
      "inputs": [
        {
          "internalType": "bytes32",
          "name": "role",
          "type": "bytes32"
        }
      ],
      "name": "getRoleAdmin",
      "outputs": [
        {
          "internalType": "bytes32",
          "name": "",
          "type": "bytes32"
        }
      ],
      "stateMutability": "view",
      "type": "function"
    },
    {
      "inputs": [
        {
          "internalType": "bytes32",
          "name": "role",
          "type": "bytes32"
        },
        {
          "internalType": "address",
          "name": "account",
          "type": "address"
        }
      ],
      "name": "grantRole",
      "outputs": [],
      "stateMutability": "nonpayable",
      "type": "function"
    },
    {
      "inputs": [
        {
          "internalType": "bytes32",
          "name": "role",
          "type": "bytes32"
        },
        {
          "internalType": "address",
          "name": "account",
          "type": "address"
        }
      ],
      "name": "hasRole",
      "outputs": [
        {
          "internalType": "bool",
          "name": "",
          "type": "bool"
        }
      ],
      "stateMutability": "view",
      "type": "function"
    },
    {
      "inputs": [],
      "name": "moderator",
      "outputs": [
        {
          "internalType": "bytes32",
          "name": "",
          "type": "bytes32"
        }
      ],
      "stateMutability": "view",
      "type": "function"
    },
    {
      "inputs": [],
      "name": "owner",
      "outputs": [
        {
          "internalType": "address",
          "name": "",
          "type": "address"
        }
      ],
      "stateMutability": "view",
      "type": "function"
    },
    {
      "inputs": [],
      "name": "renounceOwnership",
      "outputs": [],
      "stateMutability": "nonpayable",
      "type": "function"
    },
    {
      "inputs": [
        {
          "internalType": "bytes32",
          "name": "role",
          "type": "bytes32"
        },
        {
          "internalType": "address",
          "name": "account",
          "type": "address"
        }
      ],
      "name": "renounceRole",
      "outputs": [],
      "stateMutability": "nonpayable",
      "type": "function"
    },
    {
      "inputs": [
        {
          "internalType": "bytes32",
          "name": "role",
          "type": "bytes32"
        },
        {
          "internalType": "address",
          "name": "account",
          "type": "address"
        }
      ],
      "name": "revokeRole",
      "outputs": [],
      "stateMutability": "nonpayable",
      "type": "function"
    },
    {
      "inputs": [
        {
          "internalType": "bytes4",
          "name": "interfaceId",
          "type": "bytes4"
        }
      ],
      "name": "supportsInterface",
      "outputs": [
        {
          "internalType": "bool",
          "name": "",
          "type": "bool"
        }
      ],
      "stateMutability": "view",
      "type": "function"
    },
    {
      "inputs": [
        {
          "internalType": "address",
          "name": "newOwner",
          "type": "address"
        }
      ],
      "name": "transferOwnership",
      "outputs": [],
      "stateMutability": "nonpayable",
      "type": "function"
    },
    {
      "inputs": [
        {
          "internalType": "address",
          "name": "",
          "type": "address"
        }
      ],
      "name": "users",
      "outputs": [
        {
          "internalType": "address",
          "name": "userAddress",
          "type": "address"
        },
        {
          "internalType": "int64",
          "name": "tgId",
          "type": "int64"
        },
        {
          "internalType": "bool",
          "name": "valid",
          "type": "bool"
        },
        {
          "internalType": "address",
          "name": "validatorAddress",
          "type": "address"
        },
        {
          "internalType": "string",
          "name": "codeName",
          "type": "string"
        },
        {
          "internalType": "string",
          "name": "public_key",
          "type": "string"
        }
      ],
      "stateMutability": "view",
      "type": "function"
    }
  ],
  "bytecode": "0x608060405273383a9e83e36796106eac11e8c2fbe8b92ff46d3a600460006101000a81548173ffffffffffffffffffffffffffffffffffffffff021916908373ffffffffffffffffffffffffffffffffffffffff160217905550730e5279eded9fe8281eb0f7277e51068c6da2fa31600560006101000a81548173ffffffffffffffffffffffffffffffffffffffff021916908373ffffffffffffffffffffffffffffffffffffffff160217905550348015620000bb57600080fd5b5060405162004f2838038062004f288339818101604052810190620000e191906200082e565b62000101620000f56200057360201b60201c565b6200057b60201b60201c565b66071afd498d00006002819055506200011f6200063f60201b60201c565b600360006101000a81548173ffffffffffffffffffffffffffffffffffffffff021916908373ffffffffffffffffffffffffffffffffffffffff160217905550620001746000801b336200066860201b60201c565b620001a67fcea62fe6ecc79e221c545bf918f804693c542ead2549e37c2bb9baa66ee2e157336200066860201b60201c565b620001fa7fcea62fe6ecc79e221c545bf918f804693c542ead2549e37c2bb9baa66ee2e157600560009054906101000a900473ffffffffffffffffffffffffffffffffffffffff166200066860201b60201c565b6200024e7fcea62fe6ecc79e221c545bf918f804693c542ead2549e37c2bb9baa66ee2e157600460009054906101000a900473ffffffffffffffffffffffffffffffffffffffff166200066860201b60201c565b80600a60006101000a81548173ffffffffffffffffffffffffffffffffffffffff021916908373ffffffffffffffffffffffffffffffffffffffff16021790555033600660006104d260070b815260200190815260200160002060006101000a81548173ffffffffffffffffffffffffffffffffffffffff021916908373ffffffffffffffffffffffffffffffffffffffff160217905550336008604051620002f790620008bb565b908152602001604051809103902060006101000a81548173ffffffffffffffffffffffffffffffffffffffff021916908373ffffffffffffffffffffffffffffffffffffffff1602179055506040518060c001604052807316d97a46030c5d3d705bca45439e48529997d8b273ffffffffffffffffffffffffffffffffffffffff1681526020016104d260070b81526020016001151581526020017316d97a46030c5d3d705bca45439e48529997d8b273ffffffffffffffffffffffffffffffffffffffff1681526020016040518060400160405280600481526020017f4164616d0000000000000000000000000000000000000000000000000000000081525081526020016040518060600160405280602c815260200162004efc602c9139815250600760003373ffffffffffffffffffffffffffffffffffffffff1673ffffffffffffffffffffffffffffffffffffffff16815260200190815260200160002060008201518160000160006101000a81548173ffffffffffffffffffffffffffffffffffffffff021916908373ffffffffffffffffffffffffffffffffffffffff16021790555060208201518160000160146101000a81548167ffffffffffffffff021916908360070b67ffffffffffffffff160217905550604082015181600001601c6101000a81548160ff02191690831515021790555060608201518160010160006101000a81548173ffffffffffffffffffffffffffffffffffffffff021916908373ffffffffffffffffffffffffffffffffffffffff160217905550608082015181600201908162000550919062000b4c565b5060a082015181600301908162000568919062000b4c565b509050505062000c33565b600033905090565b60008060009054906101000a900473ffffffffffffffffffffffffffffffffffffffff169050816000806101000a81548173ffffffffffffffffffffffffffffffffffffffff021916908373ffffffffffffffffffffffffffffffffffffffff1602179055508173ffffffffffffffffffffffffffffffffffffffff168173ffffffffffffffffffffffffffffffffffffffff167f8be0079c531659141344cd1fd0a4f28419497f9722a3daafe3b4186f6b6457e060405160405180910390a35050565b60008060009054906101000a900473ffffffffffffffffffffffffffffffffffffffff16905090565b6200067a82826200075960201b60201c565b6200075557600180600084815260200190815260200160002060000160008373ffffffffffffffffffffffffffffffffffffffff1673ffffffffffffffffffffffffffffffffffffffff16815260200190815260200160002060006101000a81548160ff021916908315150217905550620006fa6200057360201b60201c565b73ffffffffffffffffffffffffffffffffffffffff168173ffffffffffffffffffffffffffffffffffffffff16837f2f8788117e7eff1d82e926ec794901d17c78024a50270940304540a733656f0d60405160405180910390a45b5050565b60006001600084815260200190815260200160002060000160008373ffffffffffffffffffffffffffffffffffffffff1673ffffffffffffffffffffffffffffffffffffffff16815260200190815260200160002060009054906101000a900460ff16905092915050565b600080fd5b600073ffffffffffffffffffffffffffffffffffffffff82169050919050565b6000620007f682620007c9565b9050919050565b6200080881620007e9565b81146200081457600080fd5b50565b6000815190506200082881620007fd565b92915050565b600060208284031215620008475762000846620007c4565b5b6000620008578482850162000817565b91505092915050565b600081905092915050565b7f4164616d00000000000000000000000000000000000000000000000000000000600082015250565b6000620008a360048362000860565b9150620008b0826200086b565b600482019050919050565b6000620008c88262000894565b9150819050919050565b600081519050919050565b7f4e487b7100000000000000000000000000000000000000000000000000000000600052604160045260246000fd5b7f4e487b7100000000000000000000000000000000000000000000000000000000600052602260045260246000fd5b600060028204905060018216806200095457607f821691505b6020821081036200096a57620009696200090c565b5b50919050565b60008190508160005260206000209050919050565b60006020601f8301049050919050565b600082821b905092915050565b600060088302620009d47fffffffffffffffffffffffffffffffffffffffffffffffffffffffffffffffff8262000995565b620009e0868362000995565b95508019841693508086168417925050509392505050565b6000819050919050565b6000819050919050565b600062000a2d62000a2762000a2184620009f8565b62000a02565b620009f8565b9050919050565b6000819050919050565b62000a498362000a0c565b62000a6162000a588262000a34565b848454620009a2565b825550505050565b600090565b62000a7862000a69565b62000a8581848462000a3e565b505050565b5b8181101562000aad5762000aa160008262000a6e565b60018101905062000a8b565b5050565b601f82111562000afc5762000ac68162000970565b62000ad18462000985565b8101602085101562000ae1578190505b62000af962000af08562000985565b83018262000a8a565b50505b505050565b600082821c905092915050565b600062000b216000198460080262000b01565b1980831691505092915050565b600062000b3c838362000b0e565b9150826002028217905092915050565b62000b5782620008d2565b67ffffffffffffffff81111562000b735762000b72620008dd565b5b62000b7f82546200093b565b62000b8c82828562000ab1565b600060209050601f83116001811462000bc4576000841562000baf578287015190505b62000bbb858262000b2e565b86555062000c2b565b601f19841662000bd48662000970565b60005b8281101562000bfe5784890151825560018201915060208501945060208101905062000bd7565b8683101562000c1e578489015162000c1a601f89168262000b0e565b8355505b6001600288020188555050505b505050505050565b6142b98062000c436000396000f3fe6080604052600436106101d75760003560e01c80636e31202811610102578063b233e5eb11610095578063d2114e1811610064578063d2114e18146106ff578063d2125bd21461073c578063d547741f14610765578063f2fde38b1461078e576101d7565b8063b233e5eb14610640578063b44cf60014610669578063b932fbfa14610685578063c1cada78146106c2576101d7565b806391d14854116100d157806391d148541461056d578063a217fddf146105aa578063a590e9c1146105d5578063a87430ba146105fe576101d7565b80636e312028146104b1578063715018a6146104ee5780637cec446b146105055780638da5cb5b14610542576101d7565b80632f2ff15d1161017a57806348dc15611161014957806348dc1561146104075780635d1ce88f1461043257806361cabe371461045d5780636d96b2521461049a576101d7565b80632f2ff15d1461034d57806336568abe14610376578063387439041461039f578063460e6c9c146103ca576101d7565b80630d48cae8116101b65780630d48cae81461026d5780631892fd78146102aa578063248a9ca3146102e75780632cd94ba414610324576101d7565b8062d396ed146101dc57806301ffc9a7146102055780630ae50a3914610242575b600080fd5b3480156101e857600080fd5b5061020360048036038101906101fe9190612e4d565b6107b7565b005b34801561021157600080fd5b5061022c60048036038101906102279190612ed2565b610c25565b6040516102399190612f1a565b60405180910390f35b34801561024e57600080fd5b50610257610c9f565b6040516102649190612f76565b60405180910390f35b34801561027957600080fd5b50610294600480360381019061028f91906130d7565b610cc9565b6040516102a1919061325c565b60405180910390f35b3480156102b657600080fd5b506102d160048036038101906102cc91906132aa565b610f3e565b6040516102de919061325c565b60405180910390f35b3480156102f357600080fd5b5061030e6004803603810190610309919061330d565b6111a5565b60405161031b9190613349565b60405180910390f35b34801561033057600080fd5b5061034b600480360381019061034691906132aa565b6111c5565b005b34801561035957600080fd5b50610374600480360381019061036f9190613364565b611211565b005b34801561038257600080fd5b5061039d60048036038101906103989190613364565b611232565b005b3480156103ab57600080fd5b506103b46112b5565b6040516103c19190613349565b60405180910390f35b3480156103d657600080fd5b506103f160048036038101906103ec91906133a4565b6112d9565b6040516103fe9190612f1a565b60405180910390f35b34801561041357600080fd5b5061041c611308565b60405161042991906133fd565b60405180910390f35b34801561043e57600080fd5b50610447611312565b6040516104549190613349565b60405180910390f35b34801561046957600080fd5b50610484600480360381019061047f91906132aa565b61133a565b6040516104919190613427565b60405180910390f35b3480156104a657600080fd5b506104af611355565b005b3480156104bd57600080fd5b506104d860048036038101906104d391906130d7565b611357565b6040516104e59190612f76565b60405180910390f35b3480156104fa57600080fd5b506105036113a0565b005b34801561051157600080fd5b5061052c60048036038101906105279190612e4d565b6113b4565b6040516105399190612f76565b60405180910390f35b34801561054e57600080fd5b506105576113f7565b6040516105649190612f76565b60405180910390f35b34801561057957600080fd5b50610594600480360381019061058f9190613364565b611420565b6040516105a19190612f1a565b60405180910390f35b3480156105b657600080fd5b506105bf61148b565b6040516105cc9190613349565b60405180910390f35b3480156105e157600080fd5b506105fc60048036038101906105f791906132aa565b611492565b005b34801561060a57600080fd5b50610625600480360381019061062091906132aa565b6117c3565b6040516106379695949392919061348c565b60405180910390f35b34801561064c57600080fd5b50610667600480360381019061066291906134fb565b611969565b005b610683600480360381019061067e9190613557565b611cc5565b005b34801561069157600080fd5b506106ac60048036038101906106a791906132aa565b612118565b6040516106b99190613612565b60405180910390f35b3480156106ce57600080fd5b506106e960048036038101906106e49190612e4d565b61213a565b6040516106f6919061325c565b60405180910390f35b34801561070b57600080fd5b50610726600480360381019061072191906130d7565b6123af565b6040516107339190612f76565b60405180910390f35b34801561074857600080fd5b50610763600480360381019061075e9190613660565b6123f7565b005b34801561077157600080fd5b5061078c60048036038101906107879190613364565b612409565b005b34801561079a57600080fd5b506107b560048036038101906107b091906132aa565b61242a565b005b60006107c2826113b4565b90506000600760008373ffffffffffffffffffffffffffffffffffffffff1673ffffffffffffffffffffffffffffffffffffffff1681526020019081526020016000206002018054610813906136bc565b80601f016020809104026020016040519081016040528092919081815260200182805461083f906136bc565b801561088c5780601f106108615761010080835404028352916020019161088c565b820191906000526020600020905b81548152906001019060200180831161086f57829003601f168201915b5050505050905060001515600760008473ffffffffffffffffffffffffffffffffffffffff1673ffffffffffffffffffffffffffffffffffffffff168152602001908152602001600020600001601c9054906101000a900460ff16151514610929576040517f08c379a00000000000000000000000000000000000000000000000000000000081526004016109209061375f565b60405180910390fd5b6000600960003373ffffffffffffffffffffffffffffffffffffffff1673ffffffffffffffffffffffffffffffffffffffff16815260200190815260200160002060008473ffffffffffffffffffffffffffffffffffffffff1673ffffffffffffffffffffffffffffffffffffffff16815260200190815260200160002060009054906101000a900460ff16905060001515811515146109fe576040517f08c379a00000000000000000000000000000000000000000000000000000000081526004016109f5906137cb565b60405180910390fd5b600760008473ffffffffffffffffffffffffffffffffffffffff1673ffffffffffffffffffffffffffffffffffffffff168152602001908152602001600020600080820160006101000a81549073ffffffffffffffffffffffffffffffffffffffff02191690556000820160146101000a81549067ffffffffffffffff021916905560008201601c6101000a81549060ff02191690556001820160006101000a81549073ffffffffffffffffffffffffffffffffffffffff0219169055600282016000610acb9190612d3c565b600382016000610adb9190612d3c565b5050600660008560070b60070b815260200190815260200160002060006101000a81549073ffffffffffffffffffffffffffffffffffffffff0219169055600882604051610b299190613827565b908152602001604051809103902060006101000a81549073ffffffffffffffffffffffffffffffffffffffff0219169055600960003373ffffffffffffffffffffffffffffffffffffffff1673ffffffffffffffffffffffffffffffffffffffff16815260200190815260200160002060008473ffffffffffffffffffffffffffffffffffffffff1673ffffffffffffffffffffffffffffffffffffffff16815260200190815260200160002060006101000a81549060ff02191690557f7f25a59d906bf9fb883c74ad54e4b0e924fb0326f2f946caf2875485585d0fbf8484604051610c1792919061383e565b60405180910390a150505050565b60007f7965db0b000000000000000000000000000000000000000000000000000000007bffffffffffffffffffffffffffffffffffffffffffffffffffffffff1916827bffffffffffffffffffffffffffffffffffffffffffffffffffffffff19161480610c985750610c97826124ad565b5b9050919050565b6000600360009054906101000a900473ffffffffffffffffffffffffffffffffffffffff16905090565b610cd1612d7c565b6000610cdc836123af565b90506000600760008373ffffffffffffffffffffffffffffffffffffffff1673ffffffffffffffffffffffffffffffffffffffff1681526020019081526020016000206040518060c00160405290816000820160009054906101000a900473ffffffffffffffffffffffffffffffffffffffff1673ffffffffffffffffffffffffffffffffffffffff1673ffffffffffffffffffffffffffffffffffffffff1681526020016000820160149054906101000a900460070b60070b60070b815260200160008201601c9054906101000a900460ff161515151581526020016001820160009054906101000a900473ffffffffffffffffffffffffffffffffffffffff1673ffffffffffffffffffffffffffffffffffffffff1673ffffffffffffffffffffffffffffffffffffffff168152602001600282018054610e1e906136bc565b80601f0160208091040260200160405190810160405280929190818152602001828054610e4a906136bc565b8015610e975780601f10610e6c57610100808354040283529160200191610e97565b820191906000526020600020905b815481529060010190602001808311610e7a57829003601f168201915b50505050508152602001600382018054610eb0906136bc565b80601f0160208091040260200160405190810160405280929190818152602001828054610edc906136bc565b8015610f295780601f10610efe57610100808354040283529160200191610f29565b820191906000526020600020905b815481529060010190602001808311610f0c57829003601f168201915b50505050508152505090508092505050919050565b610f46612d7c565b6000600760008473ffffffffffffffffffffffffffffffffffffffff1673ffffffffffffffffffffffffffffffffffffffff1681526020019081526020016000206040518060c00160405290816000820160009054906101000a900473ffffffffffffffffffffffffffffffffffffffff1673ffffffffffffffffffffffffffffffffffffffff1673ffffffffffffffffffffffffffffffffffffffff1681526020016000820160149054906101000a900460070b60070b60070b815260200160008201601c9054906101000a900460ff161515151581526020016001820160009054906101000a900473ffffffffffffffffffffffffffffffffffffffff1673ffffffffffffffffffffffffffffffffffffffff1673ffffffffffffffffffffffffffffffffffffffff168152602001600282018054611086906136bc565b80601f01602080910402602001604051908101604052809291908181526020018280546110b2906136bc565b80156110ff5780601f106110d4576101008083540402835291602001916110ff565b820191906000526020600020905b8154815290600101906020018083116110e257829003601f168201915b50505050508152602001600382018054611118906136bc565b80601f0160208091040260200160405190810160405280929190818152602001828054611144906136bc565b80156111915780601f1061116657610100808354040283529160200191611191565b820191906000526020600020905b81548152906001019060200180831161117457829003601f168201915b505050505081525050905080915050919050565b600060016000838152602001908152602001600020600101549050919050565b6111cd612517565b80600560006101000a81548173ffffffffffffffffffffffffffffffffffffffff021916908373ffffffffffffffffffffffffffffffffffffffff16021790555050565b61121a826111a5565b61122381612595565b61122d83836125a9565b505050565b61123a612689565b73ffffffffffffffffffffffffffffffffffffffff168173ffffffffffffffffffffffffffffffffffffffff16146112a7576040517f08c379a000000000000000000000000000000000000000000000000000000000815260040161129e906138d9565b60405180910390fd5b6112b18282612691565b5050565b7fcea62fe6ecc79e221c545bf918f804693c542ead2549e37c2bb9baa66ee2e15781565b60096020528160005260406000206020528060005260406000206000915091509054906101000a900460ff1681565b6000600254905090565b60007fcea62fe6ecc79e221c545bf918f804693c542ead2549e37c2bb9baa66ee2e157905090565b60008061134683610f3e565b90508060200151915050919050565b565b6008818051602081018201805184825260208301602085012081835280955050505050506000915054906101000a900473ffffffffffffffffffffffffffffffffffffffff1681565b6113a8612517565b6113b26000612773565b565b6000600660008360070b60070b815260200190815260200160002060009054906101000a900473ffffffffffffffffffffffffffffffffffffffff169050919050565b60008060009054906101000a900473ffffffffffffffffffffffffffffffffffffffff16905090565b60006001600084815260200190815260200160002060000160008373ffffffffffffffffffffffffffffffffffffffff1673ffffffffffffffffffffffffffffffffffffffff16815260200190815260200160002060009054906101000a900460ff16905092915050565b6000801b81565b7fcea62fe6ecc79e221c545bf918f804693c542ead2549e37c2bb9baa66ee2e1576114bc81612595565b6000600760008473ffffffffffffffffffffffffffffffffffffffff1673ffffffffffffffffffffffffffffffffffffffff16815260200190815260200160002060000160149054906101000a900460070b90506000600760008573ffffffffffffffffffffffffffffffffffffffff1673ffffffffffffffffffffffffffffffffffffffff168152602001908152602001600020600201805461155f906136bc565b80601f016020809104026020016040519081016040528092919081815260200182805461158b906136bc565b80156115d85780601f106115ad576101008083540402835291602001916115d8565b820191906000526020600020905b8154815290600101906020018083116115bb57829003601f168201915b50505050509050600046905060058114611627576040517f08c379a000000000000000000000000000000000000000000000000000000000815260040161161e9061396b565b60405180910390fd5b600760008673ffffffffffffffffffffffffffffffffffffffff1673ffffffffffffffffffffffffffffffffffffffff168152602001908152602001600020600080820160006101000a81549073ffffffffffffffffffffffffffffffffffffffff02191690556000820160146101000a81549067ffffffffffffffff021916905560008201601c6101000a81549060ff02191690556001820160006101000a81549073ffffffffffffffffffffffffffffffffffffffff02191690556002820160006116f49190612d3c565b6003820160006117049190612d3c565b5050600660008460070b60070b815260200190815260200160002060006101000a81549073ffffffffffffffffffffffffffffffffffffffff02191690556008826040516117529190613827565b908152602001604051809103902060006101000a81549073ffffffffffffffffffffffffffffffffffffffff02191690557f7f25a59d906bf9fb883c74ad54e4b0e924fb0326f2f946caf2875485585d0fbf83866040516117b492919061383e565b60405180910390a15050505050565b60076020528060005260406000206000915090508060000160009054906101000a900473ffffffffffffffffffffffffffffffffffffffff16908060000160149054906101000a900460070b9080600001601c9054906101000a900460ff16908060010160009054906101000a900473ffffffffffffffffffffffffffffffffffffffff1690806002018054611858906136bc565b80601f0160208091040260200160405190810160405280929190818152602001828054611884906136bc565b80156118d15780601f106118a6576101008083540402835291602001916118d1565b820191906000526020600020905b8154815290600101906020018083116118b457829003601f168201915b5050505050908060030180546118e6906136bc565b80601f0160208091040260200160405190810160405280929190818152602001828054611912906136bc565b801561195f5780601f106119345761010080835404028352916020019161195f565b820191906000526020600020905b81548152906001019060200180831161194257829003601f168201915b5050505050905086565b600060088260405161197b9190613827565b908152602001604051809103902060009054906101000a900473ffffffffffffffffffffffffffffffffffffffff1690503373ffffffffffffffffffffffffffffffffffffffff168173ffffffffffffffffffffffffffffffffffffffff1614611a1a576040517f08c379a0000000000000000000000000000000000000000000000000000000008152600401611a11906139d7565b60405180910390fd5b6000611a25846113b4565b90506000600960008473ffffffffffffffffffffffffffffffffffffffff1673ffffffffffffffffffffffffffffffffffffffff16815260200190815260200160002060008373ffffffffffffffffffffffffffffffffffffffff1673ffffffffffffffffffffffffffffffffffffffff16815260200190815260200160002060009054906101000a900460ff1690506000151581151514611afc576040517f08c379a0000000000000000000000000000000000000000000000000000000008152600401611af390613a43565b60405180910390fd5b6001600760008473ffffffffffffffffffffffffffffffffffffffff1673ffffffffffffffffffffffffffffffffffffffff168152602001908152602001600020600001601c6101000a81548160ff02191690831515021790555033600760008473ffffffffffffffffffffffffffffffffffffffff1673ffffffffffffffffffffffffffffffffffffffff16815260200190815260200160002060010160006101000a81548173ffffffffffffffffffffffffffffffffffffffff021916908373ffffffffffffffffffffffffffffffffffffffff1602179055506001600960008573ffffffffffffffffffffffffffffffffffffffff1673ffffffffffffffffffffffffffffffffffffffff16815260200190815260200160002060008473ffffffffffffffffffffffffffffffffffffffff1673ffffffffffffffffffffffffffffffffffffffff16815260200190815260200160002060006101000a81548160ff0219169083151502179055508173ffffffffffffffffffffffffffffffffffffffff167fadbeb0a5d66e2be993428864e5c86f7c8aa562e2c58131d193ac2eeb7443817a846001604051611cb6929190613a63565b60405180910390a25050505050565b60003390506002543414611d0e576040517f08c379a0000000000000000000000000000000000000000000000000000000008152600401611d0590613ad8565b60405180910390fd5b6000600884604051611d209190613827565b908152602001604051809103902060009054906101000a900473ffffffffffffffffffffffffffffffffffffffff1690506040518060c001604052808373ffffffffffffffffffffffffffffffffffffffff1681526020018760070b81526020016000151581526020018273ffffffffffffffffffffffffffffffffffffffff16815260200186815260200184815250600760003373ffffffffffffffffffffffffffffffffffffffff1673ffffffffffffffffffffffffffffffffffffffff16815260200190815260200160002060008201518160000160006101000a81548173ffffffffffffffffffffffffffffffffffffffff021916908373ffffffffffffffffffffffffffffffffffffffff16021790555060208201518160000160146101000a81548167ffffffffffffffff021916908360070b67ffffffffffffffff160217905550604082015181600001601c6101000a81548160ff02191690831515021790555060608201518160010160006101000a81548173ffffffffffffffffffffffffffffffffffffffff021916908373ffffffffffffffffffffffffffffffffffffffff1602179055506080820151816002019081611ee49190613ca4565b5060a0820151816003019081611efa9190613ca4565b509050506000600560009054906101000a900473ffffffffffffffffffffffffffffffffffffffff1673ffffffffffffffffffffffffffffffffffffffff16600254604051611f4890613da7565b60006040518083038185875af1925050503d8060008114611f85576040519150601f19603f3d011682016040523d82523d6000602084013e611f8a565b606091505b5050905080611fce576040517f08c379a0000000000000000000000000000000000000000000000000000000008152600401611fc590613e08565b60405180910390fd5b8173ffffffffffffffffffffffffffffffffffffffff167f217213f52d0ada6519b1710cff4d5e622165afded08327f17577ff3c30371360883360405161201692919061383e565b60405180910390a28173ffffffffffffffffffffffffffffffffffffffff167f2f9961dc36e79933613fb931d5ca8392c911b25840b07276e17e19961d228240883360405161206692919061383e565b60405180910390a26000600960008473ffffffffffffffffffffffffffffffffffffffff1673ffffffffffffffffffffffffffffffffffffffff16815260200190815260200160002060003373ffffffffffffffffffffffffffffffffffffffff1673ffffffffffffffffffffffffffffffffffffffff16815260200190815260200160002060006101000a81548160ff02191690831515021790555061210f87848888612837565b50505050505050565b6060600061212583610f3e565b905060008160a0015190508092505050919050565b612142612d7c565b600061214d836113b4565b90506000600760008373ffffffffffffffffffffffffffffffffffffffff1673ffffffffffffffffffffffffffffffffffffffff1681526020019081526020016000206040518060c00160405290816000820160009054906101000a900473ffffffffffffffffffffffffffffffffffffffff1673ffffffffffffffffffffffffffffffffffffffff1673ffffffffffffffffffffffffffffffffffffffff1681526020016000820160149054906101000a900460070b60070b60070b815260200160008201601c9054906101000a900460ff161515151581526020016001820160009054906101000a900473ffffffffffffffffffffffffffffffffffffffff1673ffffffffffffffffffffffffffffffffffffffff1673ffffffffffffffffffffffffffffffffffffffff16815260200160028201805461228f906136bc565b80601f01602080910402602001604051908101604052809291908181526020018280546122bb906136bc565b80156123085780601f106122dd57610100808354040283529160200191612308565b820191906000526020600020905b8154815290600101906020018083116122eb57829003601f168201915b50505050508152602001600382018054612321906136bc565b80601f016020809104026020016040519081016040528092919081815260200182805461234d906136bc565b801561239a5780601f1061236f5761010080835404028352916020019161239a565b820191906000526020600020905b81548152906001019060200180831161237d57829003601f168201915b50505050508152505090508092505050919050565b60006008826040516123c19190613827565b908152602001604051809103902060009054906101000a900473ffffffffffffffffffffffffffffffffffffffff169050919050565b6123ff612517565b8060028190555050565b612412826111a5565b61241b81612595565b6124258383612691565b505050565b612432612517565b600073ffffffffffffffffffffffffffffffffffffffff168173ffffffffffffffffffffffffffffffffffffffff16036124a1576040517f08c379a000000000000000000000000000000000000000000000000000000000815260040161249890613e9a565b60405180910390fd5b6124aa81612773565b50565b60007f01ffc9a7000000000000000000000000000000000000000000000000000000007bffffffffffffffffffffffffffffffffffffffffffffffffffffffff1916827bffffffffffffffffffffffffffffffffffffffffffffffffffffffff1916149050919050565b61251f612689565b73ffffffffffffffffffffffffffffffffffffffff1661253d6113f7565b73ffffffffffffffffffffffffffffffffffffffff1614612593576040517f08c379a000000000000000000000000000000000000000000000000000000000815260040161258a90613f06565b60405180910390fd5b565b6125a6816125a1612689565b612a4e565b50565b6125b38282611420565b61268557600180600084815260200190815260200160002060000160008373ffffffffffffffffffffffffffffffffffffffff1673ffffffffffffffffffffffffffffffffffffffff16815260200190815260200160002060006101000a81548160ff02191690831515021790555061262a612689565b73ffffffffffffffffffffffffffffffffffffffff168173ffffffffffffffffffffffffffffffffffffffff16837f2f8788117e7eff1d82e926ec794901d17c78024a50270940304540a733656f0d60405160405180910390a45b5050565b600033905090565b61269b8282611420565b1561276f5760006001600084815260200190815260200160002060000160008373ffffffffffffffffffffffffffffffffffffffff1673ffffffffffffffffffffffffffffffffffffffff16815260200190815260200160002060006101000a81548160ff021916908315150217905550612714612689565b73ffffffffffffffffffffffffffffffffffffffff168173ffffffffffffffffffffffffffffffffffffffff16837ff6391f5c32d9c69d2a47ea670b442974b53935d1edc7fd64eb21e047a839171b60405160405180910390a45b5050565b60008060009054906101000a900473ffffffffffffffffffffffffffffffffffffffff169050816000806101000a81548173ffffffffffffffffffffffffffffffffffffffff021916908373ffffffffffffffffffffffffffffffffffffffff1602179055508173ffffffffffffffffffffffffffffffffffffffff168173ffffffffffffffffffffffffffffffffffffffff167f8be0079c531659141344cd1fd0a4f28419497f9722a3daafe3b4186f6b6457e060405160405180910390a35050565b600073ffffffffffffffffffffffffffffffffffffffff16600660008660070b60070b815260200190815260200160002060009054906101000a900473ffffffffffffffffffffffffffffffffffffffff1673ffffffffffffffffffffffffffffffffffffffff16146128df576040517f08c379a00000000000000000000000000000000000000000000000000000000081526004016128d690613f98565b60405180910390fd5b6000600a60009054906101000a900473ffffffffffffffffffffffffffffffffffffffff1673ffffffffffffffffffffffffffffffffffffffff1663a430c74484846040518363ffffffff1660e01b815260040161293e929190613fb8565b602060405180830381865afa15801561295b573d6000803e3d6000fd5b505050506040513d601f19601f8201168201806040525081019061297f919061401b565b9050600115158115151461299257600080fd5b83600660008760070b60070b815260200190815260200160002060006101000a81548173ffffffffffffffffffffffffffffffffffffffff021916908373ffffffffffffffffffffffffffffffffffffffff160217905550836008846040516129fb9190613827565b908152602001604051809103902060006101000a81548173ffffffffffffffffffffffffffffffffffffffff021916908373ffffffffffffffffffffffffffffffffffffffff1602179055505050505050565b612a588282611420565b612acf57612a6581612ad3565b612a738360001c6020612b00565b604051602001612a849291906140e0565b6040516020818303038152906040526040517f08c379a0000000000000000000000000000000000000000000000000000000008152600401612ac69190613612565b60405180910390fd5b5050565b6060612af98273ffffffffffffffffffffffffffffffffffffffff16601460ff16612b00565b9050919050565b606060006002836002612b139190614149565b612b1d919061418b565b67ffffffffffffffff811115612b3657612b35612fac565b5b6040519080825280601f01601f191660200182016040528015612b685781602001600182028036833780820191505090505b5090507f300000000000000000000000000000000000000000000000000000000000000081600081518110612ba057612b9f6141bf565b5b60200101907effffffffffffffffffffffffffffffffffffffffffffffffffffffffffffff1916908160001a9053507f780000000000000000000000000000000000000000000000000000000000000081600181518110612c0457612c036141bf565b5b60200101907effffffffffffffffffffffffffffffffffffffffffffffffffffffffffffff1916908160001a90535060006001846002612c449190614149565b612c4e919061418b565b90505b6001811115612cee577f3031323334353637383961626364656600000000000000000000000000000000600f861660108110612c9057612c8f6141bf565b5b1a60f81b828281518110612ca757612ca66141bf565b5b60200101907effffffffffffffffffffffffffffffffffffffffffffffffffffffffffffff1916908160001a905350600485901c945080612ce7906141ee565b9050612c51565b5060008414612d32576040517f08c379a0000000000000000000000000000000000000000000000000000000008152600401612d2990614263565b60405180910390fd5b8091505092915050565b508054612d48906136bc565b6000825580601f10612d5a5750612d79565b601f016020900490600052602060002090810190612d789190612de3565b5b50565b6040518060c00160405280600073ffffffffffffffffffffffffffffffffffffffff168152602001600060070b8152602001600015158152602001600073ffffffffffffffffffffffffffffffffffffffff16815260200160608152602001606081525090565b5b80821115612dfc576000816000905550600101612de4565b5090565b6000604051905090565b600080fd5b600080fd5b60008160070b9050919050565b612e2a81612e14565b8114612e3557600080fd5b50565b600081359050612e4781612e21565b92915050565b600060208284031215612e6357612e62612e0a565b5b6000612e7184828501612e38565b91505092915050565b60007fffffffff0000000000000000000000000000000000000000000000000000000082169050919050565b612eaf81612e7a565b8114612eba57600080fd5b50565b600081359050612ecc81612ea6565b92915050565b600060208284031215612ee857612ee7612e0a565b5b6000612ef684828501612ebd565b91505092915050565b60008115159050919050565b612f1481612eff565b82525050565b6000602082019050612f2f6000830184612f0b565b92915050565b600073ffffffffffffffffffffffffffffffffffffffff82169050919050565b6000612f6082612f35565b9050919050565b612f7081612f55565b82525050565b6000602082019050612f8b6000830184612f67565b92915050565b600080fd5b600080fd5b6000601f19601f8301169050919050565b7f4e487b7100000000000000000000000000000000000000000000000000000000600052604160045260246000fd5b612fe482612f9b565b810181811067ffffffffffffffff8211171561300357613002612fac565b5b80604052505050565b6000613016612e00565b90506130228282612fdb565b919050565b600067ffffffffffffffff82111561304257613041612fac565b5b61304b82612f9b565b9050602081019050919050565b82818337600083830152505050565b600061307a61307584613027565b61300c565b90508281526020810184848401111561309657613095612f96565b5b6130a1848285613058565b509392505050565b600082601f8301126130be576130bd612f91565b5b81356130ce848260208601613067565b91505092915050565b6000602082840312156130ed576130ec612e0a565b5b600082013567ffffffffffffffff81111561310b5761310a612e0f565b5b613117848285016130a9565b91505092915050565b61312981612f55565b82525050565b61313881612e14565b82525050565b61314781612eff565b82525050565b600081519050919050565b600082825260208201905092915050565b60005b8381101561318757808201518184015260208101905061316c565b60008484015250505050565b600061319e8261314d565b6131a88185613158565b93506131b8818560208601613169565b6131c181612f9b565b840191505092915050565b600060c0830160008301516131e46000860182613120565b5060208301516131f7602086018261312f565b50604083015161320a604086018261313e565b50606083015161321d6060860182613120565b50608083015184820360808601526132358282613193565b91505060a083015184820360a086015261324f8282613193565b9150508091505092915050565b6000602082019050818103600083015261327681846131cc565b905092915050565b61328781612f55565b811461329257600080fd5b50565b6000813590506132a48161327e565b92915050565b6000602082840312156132c0576132bf612e0a565b5b60006132ce84828501613295565b91505092915050565b6000819050919050565b6132ea816132d7565b81146132f557600080fd5b50565b600081359050613307816132e1565b92915050565b60006020828403121561332357613322612e0a565b5b6000613331848285016132f8565b91505092915050565b613343816132d7565b82525050565b600060208201905061335e600083018461333a565b92915050565b6000806040838503121561337b5761337a612e0a565b5b6000613389858286016132f8565b925050602061339a85828601613295565b9150509250929050565b600080604083850312156133bb576133ba612e0a565b5b60006133c985828601613295565b92505060206133da85828601613295565b9150509250929050565b6000819050919050565b6133f7816133e4565b82525050565b600060208201905061341260008301846133ee565b92915050565b61342181612e14565b82525050565b600060208201905061343c6000830184613418565b92915050565b600082825260208201905092915050565b600061345e8261314d565b6134688185613442565b9350613478818560208601613169565b61348181612f9b565b840191505092915050565b600060c0820190506134a16000830189612f67565b6134ae6020830188613418565b6134bb6040830187612f0b565b6134c86060830186612f67565b81810360808301526134da8185613453565b905081810360a08301526134ee8184613453565b9050979650505050505050565b6000806040838503121561351257613511612e0a565b5b600061352085828601612e38565b925050602083013567ffffffffffffffff81111561354157613540612e0f565b5b61354d858286016130a9565b9150509250929050565b6000806000806080858703121561357157613570612e0a565b5b600061357f87828801612e38565b945050602085013567ffffffffffffffff8111156135a05761359f612e0f565b5b6135ac878288016130a9565b935050604085013567ffffffffffffffff8111156135cd576135cc612e0f565b5b6135d9878288016130a9565b925050606085013567ffffffffffffffff8111156135fa576135f9612e0f565b5b613606878288016130a9565b91505092959194509250565b6000602082019050818103600083015261362c8184613453565b905092915050565b61363d816133e4565b811461364857600080fd5b50565b60008135905061365a81613634565b92915050565b60006020828403121561367657613675612e0a565b5b60006136848482850161364b565b91505092915050565b7f4e487b7100000000000000000000000000000000000000000000000000000000600052602260045260246000fd5b600060028204905060018216806136d457607f821691505b6020821081036136e7576136e661368d565b5b50919050565b7f616c726561647920617070726f766564204f5220646f206e6f7420657869737460008201527f7320796574000000000000000000000000000000000000000000000000000000602082015250565b6000613749602583613442565b9150613754826136ed565b604082019050919050565b600060208201905081810360008301526137788161373c565b9050919050565b7f616c7265616479206c696e6b6564204f5220646f6e7420657869737473000000600082015250565b60006137b5601d83613442565b91506137c08261377f565b602082019050919050565b600060208201905081810360008301526137e4816137a8565b9050919050565b600081905092915050565b60006138018261314d565b61380b81856137eb565b935061381b818560208601613169565b80840191505092915050565b600061383382846137f6565b915081905092915050565b60006040820190506138536000830185613418565b6138606020830184612f67565b9392505050565b7f416363657373436f6e74726f6c3a2063616e206f6e6c792072656e6f756e636560008201527f20726f6c657320666f722073656c660000000000000000000000000000000000602082015250565b60006138c3602f83613442565b91506138ce82613867565b604082019050919050565b600060208201905081810360008301526138f2816138b6565b9050919050565b7f746869732066756e6374696f6e20776f726b2773206f6e6c7920666f7220746560008201527f73746e6574000000000000000000000000000000000000000000000000000000602082015250565b6000613955602583613442565b9150613960826138f9565b604082019050919050565b6000602082019050818103600083015261398481613948565b9050919050565b7f6f6e6c7920706172656e745f6e616d652063616e206163636570742069740000600082015250565b60006139c1601e83613442565b91506139cc8261398b565b602082019050919050565b600060208201905081810360008301526139f0816139b4565b9050919050565b7f616c726561647920726567697374726564000000000000000000000000000000600082015250565b6000613a2d601183613442565b9150613a38826139f7565b602082019050919050565b60006020820190508181036000830152613a5c81613a20565b9050919050565b6000604082019050613a786000830185612f67565b613a856020830184612f0b565b9392505050565b7f5265717565737420666565206973206e6f742070616964000000000000000000600082015250565b6000613ac2601783613442565b9150613acd82613a8c565b602082019050919050565b60006020820190508181036000830152613af181613ab5565b9050919050565b60008190508160005260206000209050919050565b60006020601f8301049050919050565b600082821b905092915050565b600060088302613b5a7fffffffffffffffffffffffffffffffffffffffffffffffffffffffffffffffff82613b1d565b613b648683613b1d565b95508019841693508086168417925050509392505050565b6000819050919050565b6000613ba1613b9c613b97846133e4565b613b7c565b6133e4565b9050919050565b6000819050919050565b613bbb83613b86565b613bcf613bc782613ba8565b848454613b2a565b825550505050565b600090565b613be4613bd7565b613bef818484613bb2565b505050565b5b81811015613c1357613c08600082613bdc565b600181019050613bf5565b5050565b601f821115613c5857613c2981613af8565b613c3284613b0d565b81016020851015613c41578190505b613c55613c4d85613b0d565b830182613bf4565b50505b505050565b600082821c905092915050565b6000613c7b60001984600802613c5d565b1980831691505092915050565b6000613c948383613c6a565b9150826002028217905092915050565b613cad8261314d565b67ffffffffffffffff811115613cc657613cc5612fac565b5b613cd082546136bc565b613cdb828285613c17565b600060209050601f831160018114613d0e5760008415613cfc578287015190505b613d068582613c88565b865550613d6e565b601f198416613d1c86613af8565b60005b82811015613d4457848901518255600182019150602085019450602081019050613d1f565b86831015613d615784890151613d5d601f891682613c6a565b8355505b6001600288020188555050505b505050505050565b600081905092915050565b50565b6000613d91600083613d76565b9150613d9c82613d81565b600082019050919050565b6000613db282613d84565b9150819050919050565b7f556e61626c6520746f207472616e736665722066656500000000000000000000600082015250565b6000613df2601683613442565b9150613dfd82613dbc565b602082019050919050565b60006020820190508181036000830152613e2181613de5565b9050919050565b7f4f776e61626c653a206e6577206f776e657220697320746865207a65726f206160008201527f6464726573730000000000000000000000000000000000000000000000000000602082015250565b6000613e84602683613442565b9150613e8f82613e28565b604082019050919050565b60006020820190508181036000830152613eb381613e77565b9050919050565b7f4f776e61626c653a2063616c6c6572206973206e6f7420746865206f776e6572600082015250565b6000613ef0602083613442565b9150613efb82613eba565b602082019050919050565b60006020820190508181036000830152613f1f81613ee3565b9050919050565b7f54686572652773206164647265737320636f6e6e656374656420746f2074686160008201527f7420544720494420616c72656164792e00000000000000000000000000000000602082015250565b6000613f82603083613442565b9150613f8d82613f26565b604082019050919050565b60006020820190508181036000830152613fb181613f75565b9050919050565b60006040820190508181036000830152613fd28185613453565b90508181036020830152613fe68184613453565b90509392505050565b613ff881612eff565b811461400357600080fd5b50565b60008151905061401581613fef565b92915050565b60006020828403121561403157614030612e0a565b5b600061403f84828501614006565b91505092915050565b7f416363657373436f6e74726f6c3a206163636f756e7420000000000000000000600082015250565b600061407e6017836137eb565b915061408982614048565b601782019050919050565b7f206973206d697373696e6720726f6c6520000000000000000000000000000000600082015250565b60006140ca6011836137eb565b91506140d582614094565b601182019050919050565b60006140eb82614071565b91506140f782856137f6565b9150614102826140bd565b915061410e82846137f6565b91508190509392505050565b7f4e487b7100000000000000000000000000000000000000000000000000000000600052601160045260246000fd5b6000614154826133e4565b915061415f836133e4565b925082820261416d816133e4565b915082820484148315176141845761418361411a565b5b5092915050565b6000614196826133e4565b91506141a1836133e4565b92508282019050808211156141b9576141b861411a565b5b92915050565b7f4e487b7100000000000000000000000000000000000000000000000000000000600052603260045260246000fd5b60006141f9826133e4565b91506000820361420c5761420b61411a565b5b600182039050919050565b7f537472696e67733a20686578206c656e67746820696e73756666696369656e74600082015250565b600061424d602083613442565b915061425882614217565b602082019050919050565b6000602082019050818103600083015261427c81614240565b905091905056fea264697066735822122094b4fa06b764b38896b10c7e7b9b90c8d5673d1f8640be70d57f382ac9e8202d64736f6c634300081100337a6a58436a3969757365336748476141494967796169434f734a705157534345424261632f7a50477267513d",
  "linkReferences": {},
  "deployedLinkReferences": {}
}