{
  "_format": "hh-sol-artifact-1",
  "contractName": "Leg10n",
  "sourceName": "contracts/Leg10n.sol",
  "abi": [
    {
      "inputs": [
        {
          "internalType": "address",
          "name": "turing_",
          "type": "address"
        },
        {
          "internalType": "address",
          "name": "admin_",
          "type": "address"
        },
        {
          "internalType": "string",
          "name": "tgid_",
          "type": "string"
        },
        {
          "internalType": "string",
          "name": "public_key_",
          "type": "string"
        }
      ],
      "stateMutability": "nonpayable",
      "type": "constructor"
    },
    {
      "anonymous": false,
      "inputs": [
        {
          "indexed": true,
          "internalType": "address",
          "name": "admin",
          "type": "address"
        }
      ],
      "name": "Initialized",
      "type": "event"
    },
    {
      "anonymous": false,
      "inputs": [
        {
          "indexed": true,
          "internalType": "address",
          "name": "previousOwner",
          "type": "address"
        },
        {
          "indexed": true,
          "internalType": "address",
          "name": "newOwner",
          "type": "address"
        }
      ],
      "name": "OwnershipTransferred",
      "type": "event"
    },
    {
      "anonymous": false,
      "inputs": [
        {
          "indexed": true,
          "internalType": "bytes32",
          "name": "role",
          "type": "bytes32"
        },
        {
          "indexed": true,
          "internalType": "bytes32",
          "name": "previousAdminRole",
          "type": "bytes32"
        },
        {
          "indexed": true,
          "internalType": "bytes32",
          "name": "newAdminRole",
          "type": "bytes32"
        }
      ],
      "name": "RoleAdminChanged",
      "type": "event"
    },
    {
      "anonymous": false,
      "inputs": [
        {
          "indexed": true,
          "internalType": "bytes32",
          "name": "role",
          "type": "bytes32"
        },
        {
          "indexed": true,
          "internalType": "address",
          "name": "account",
          "type": "address"
        },
        {
          "indexed": true,
          "internalType": "address",
          "name": "sender",
          "type": "address"
        }
      ],
      "name": "RoleGranted",
      "type": "event"
    },
    {
      "anonymous": false,
      "inputs": [
        {
          "indexed": true,
          "internalType": "bytes32",
          "name": "role",
          "type": "bytes32"
        },
        {
          "indexed": true,
          "internalType": "address",
          "name": "account",
          "type": "address"
        },
        {
          "indexed": true,
          "internalType": "address",
          "name": "sender",
          "type": "address"
        }
      ],
      "name": "RoleRevoked",
      "type": "event"
    },
    {
      "anonymous": false,
      "inputs": [
        {
          "indexed": false,
          "internalType": "string",
          "name": "applyerTg",
          "type": "string"
        },
        {
          "indexed": false,
          "internalType": "address",
          "name": "wallet_address",
          "type": "address"
        },
        {
          "indexed": true,
          "internalType": "address",
          "name": "parent_address",
          "type": "address"
        }
      ],
      "name": "joinRequested",
      "type": "event"
    },
    {
      "anonymous": false,
      "inputs": [
        {
          "indexed": false,
          "internalType": "string",
          "name": "applyerTg",
          "type": "string"
        },
        {
          "indexed": false,
          "internalType": "address",
          "name": "wallet_address",
          "type": "address"
        },
        {
          "indexed": true,
          "internalType": "address",
          "name": "parent_address",
          "type": "address"
        }
      ],
      "name": "joinRequestedIndexedTG",
      "type": "event"
    },
    {
      "anonymous": false,
      "inputs": [
        {
          "indexed": false,
          "internalType": "address",
          "name": "high_node",
          "type": "address"
        },
        {
          "indexed": true,
          "internalType": "address",
          "name": "low_node",
          "type": "address"
        },
        {
          "indexed": false,
          "internalType": "bool",
          "name": "pravda",
          "type": "bool"
        }
      ],
      "name": "relationChanged",
      "type": "event"
    },
    {
      "anonymous": false,
      "inputs": [
        {
          "indexed": true,
          "internalType": "string",
          "name": "applyerTg",
          "type": "string"
        },
        {
          "indexed": false,
          "internalType": "address",
          "name": "user_address",
          "type": "address"
        },
        {
          "indexed": false,
          "internalType": "address",
          "name": "parent_address",
          "type": "address"
        }
      ],
      "name": "requestAccepted",
      "type": "event"
    },
    {
      "anonymous": false,
      "inputs": [
        {
          "indexed": false,
          "internalType": "string",
          "name": "applyerTg",
          "type": "string"
        },
        {
          "indexed": false,
          "internalType": "address",
          "name": "wallet",
          "type": "address"
        }
      ],
      "name": "requestDenied",
      "type": "event"
    },
    {
      "inputs": [
        {
          "internalType": "string",
          "name": "applyerTg",
          "type": "string"
        },
        {
          "internalType": "string",
          "name": "parent_name",
          "type": "string"
        }
      ],
      "name": "AcceptJoin",
      "outputs": [],
      "stateMutability": "nonpayable",
      "type": "function"
    },
    {
      "inputs": [
        {
          "internalType": "string",
          "name": "parent_name",
          "type": "string"
        },
        {
          "internalType": "string",
          "name": "child_name",
          "type": "string"
        }
      ],
      "name": "ClearParent",
      "outputs": [],
      "stateMutability": "nonpayable",
      "type": "function"
    },
    {
      "inputs": [],
      "name": "DEFAULT_ADMIN_ROLE",
      "outputs": [
        {
          "internalType": "bytes32",
          "name": "",
          "type": "bytes32"
        }
      ],
      "stateMutability": "view",
      "type": "function"
    },
    {
      "inputs": [
        {
          "internalType": "string",
          "name": "tgid",
          "type": "string"
        }
      ],
      "name": "DeclineRequest",
      "outputs": [],
      "stateMutability": "nonpayable",
      "type": "function"
    },
    {
      "inputs": [],
      "name": "GetOwner",
      "outputs": [
        {
          "internalType": "address",
          "name": "",
          "type": "address"
        }
      ],
      "stateMutability": "view",
      "type": "function"
    },
    {
      "inputs": [],
      "name": "GetPassportFee",
      "outputs": [
        {
          "internalType": "uint256",
          "name": "",
          "type": "uint256"
        }
      ],
      "stateMutability": "view",
      "type": "function"
    },
    {
      "inputs": [
        {
          "internalType": "address",
          "name": "user_address",
          "type": "address"
        }
      ],
      "name": "GetPublicKeyByAddress",
      "outputs": [
        {
          "internalType": "string",
          "name": "",
          "type": "string"
        }
      ],
      "stateMutability": "view",
      "type": "function"
    },
    {
      "inputs": [
        {
          "internalType": "address",
          "name": "user_wallet",
          "type": "address"
        }
      ],
      "name": "GetTgIdByAddress",
      "outputs": [
        {
          "internalType": "string",
          "name": "tgid",
          "type": "string"
        }
      ],
      "stateMutability": "view",
      "type": "function"
    },
    {
      "inputs": [
        {
          "internalType": "address",
          "name": "user_wallet",
          "type": "address"
        }
      ],
      "name": "GetUserByAddress",
      "outputs": [
        {
          "components": [
            {
              "internalType": "address",
              "name": "userAddress",
              "type": "address"
            },
            {
              "internalType": "string",
              "name": "tgId",
              "type": "string"
            },
            {
              "internalType": "bool",
              "name": "valid",
              "type": "bool"
            },
            {
              "internalType": "address",
              "name": "validatorAddress",
              "type": "address"
            },
            {
              "internalType": "string",
              "name": "codeName",
              "type": "string"
            },
            {
              "internalType": "string",
              "name": "public_key",
              "type": "string"
            }
          ],
          "internalType": "struct Leg10n.User",
          "name": "",
          "type": "tuple"
        }
      ],
      "stateMutability": "view",
      "type": "function"
    },
    {
      "inputs": [
        {
          "internalType": "string",
          "name": "user_name_",
          "type": "string"
        }
      ],
      "name": "GetUserByNickName",
      "outputs": [
        {
          "components": [
            {
              "internalType": "address",
              "name": "userAddress",
              "type": "address"
            },
            {
              "internalType": "string",
              "name": "tgId",
              "type": "string"
            },
            {
              "internalType": "bool",
              "name": "valid",
              "type": "bool"
            },
            {
              "internalType": "address",
              "name": "validatorAddress",
              "type": "address"
            },
            {
              "internalType": "string",
              "name": "codeName",
              "type": "string"
            },
            {
              "internalType": "string",
              "name": "public_key",
              "type": "string"
            }
          ],
          "internalType": "struct Leg10n.User",
          "name": "",
          "type": "tuple"
        }
      ],
      "stateMutability": "view",
      "type": "function"
    },
    {
      "inputs": [
        {
          "internalType": "string",
          "name": "tgId_",
          "type": "string"
        }
      ],
      "name": "GetUserByTgId",
      "outputs": [
        {
          "components": [
            {
              "internalType": "address",
              "name": "userAddress",
              "type": "address"
            },
            {
              "internalType": "string",
              "name": "tgId",
              "type": "string"
            },
            {
              "internalType": "bool",
              "name": "valid",
              "type": "bool"
            },
            {
              "internalType": "address",
              "name": "validatorAddress",
              "type": "address"
            },
            {
              "internalType": "string",
              "name": "codeName",
              "type": "string"
            },
            {
              "internalType": "string",
              "name": "public_key",
              "type": "string"
            }
          ],
          "internalType": "struct Leg10n.User",
          "name": "",
          "type": "tuple"
        }
      ],
      "stateMutability": "view",
      "type": "function"
    },
    {
      "inputs": [
        {
          "internalType": "string",
          "name": "tgId_",
          "type": "string"
        }
      ],
      "name": "GetUserWalletByID",
      "outputs": [
        {
          "internalType": "address",
          "name": "",
          "type": "address"
        }
      ],
      "stateMutability": "view",
      "type": "function"
    },
    {
      "inputs": [
        {
          "internalType": "string",
          "name": "user_name_",
          "type": "string"
        }
      ],
      "name": "GetWalletByNickName",
      "outputs": [
        {
          "internalType": "address",
          "name": "",
          "type": "address"
        }
      ],
      "stateMutability": "view",
      "type": "function"
    },
    {
      "inputs": [
        {
          "internalType": "string",
          "name": "applyerTg",
          "type": "string"
        },
        {
          "internalType": "string",
          "name": "code_name_",
          "type": "string"
        },
        {
          "internalType": "string",
          "name": "parent_name",
          "type": "string"
        },
        {
          "internalType": "string",
          "name": "public_key",
          "type": "string"
        }
      ],
      "name": "RequestJoin",
      "outputs": [],
      "stateMutability": "payable",
      "type": "function"
    },
    {
      "inputs": [
        {
          "internalType": "uint256",
          "name": "passportFee_",
          "type": "uint256"
        }
      ],
      "name": "SetPassportFee",
      "outputs": [],
      "stateMutability": "nonpayable",
      "type": "function"
    },
    {
      "inputs": [
        {
          "internalType": "address",
          "name": "",
          "type": "address"
        },
        {
          "internalType": "address",
          "name": "",
          "type": "address"
        }
      ],
      "name": "chain",
      "outputs": [
        {
          "internalType": "bool",
          "name": "",
          "type": "bool"
        }
      ],
      "stateMutability": "view",
      "type": "function"
    },
    {
      "inputs": [
        {
          "internalType": "string",
          "name": "",
          "type": "string"
        }
      ],
      "name": "codename_wallets",
      "outputs": [
        {
          "internalType": "address",
          "name": "",
          "type": "address"
        }
      ],
      "stateMutability": "view",
      "type": "function"
    },
    {
      "inputs": [],
      "name": "deleteYourSelf",
      "outputs": [],
      "stateMutability": "nonpayable",
      "type": "function"
    },
    {
      "inputs": [
        {
          "internalType": "address",
          "name": "user_address",
          "type": "address"
        }
      ],
      "name": "devDeleteUser",
      "outputs": [],
      "stateMutability": "nonpayable",
      "type": "function"
    },
    {
      "inputs": [],
      "name": "getModeratorIdentifier",
      "outputs": [
        {
          "internalType": "bytes32",
          "name": "",
          "type": "bytes32"
        }
      ],
      "stateMutability": "pure",
      "type": "function"
    },
    {
      "inputs": [
        {
          "internalType": "bytes32",
          "name": "role",
          "type": "bytes32"
        }
      ],
      "name": "getRoleAdmin",
      "outputs": [
        {
          "internalType": "bytes32",
          "name": "",
          "type": "bytes32"
        }
      ],
      "stateMutability": "view",
      "type": "function"
    },
    {
      "inputs": [
        {
          "internalType": "bytes32",
          "name": "role",
          "type": "bytes32"
        },
        {
          "internalType": "address",
          "name": "account",
          "type": "address"
        }
      ],
      "name": "grantRole",
      "outputs": [],
      "stateMutability": "nonpayable",
      "type": "function"
    },
    {
      "inputs": [
        {
          "internalType": "bytes32",
          "name": "role",
          "type": "bytes32"
        },
        {
          "internalType": "address",
          "name": "account",
          "type": "address"
        }
      ],
      "name": "hasRole",
      "outputs": [
        {
          "internalType": "bool",
          "name": "",
          "type": "bool"
        }
      ],
      "stateMutability": "view",
      "type": "function"
    },
    {
      "inputs": [],
      "name": "moderator",
      "outputs": [
        {
          "internalType": "bytes32",
          "name": "",
          "type": "bytes32"
        }
      ],
      "stateMutability": "view",
      "type": "function"
    },
    {
      "inputs": [],
      "name": "owner",
      "outputs": [
        {
          "internalType": "address",
          "name": "",
          "type": "address"
        }
      ],
      "stateMutability": "view",
      "type": "function"
    },
    {
      "inputs": [],
      "name": "renounceOwnership",
      "outputs": [],
      "stateMutability": "nonpayable",
      "type": "function"
    },
    {
      "inputs": [
        {
          "internalType": "bytes32",
          "name": "role",
          "type": "bytes32"
        },
        {
          "internalType": "address",
          "name": "account",
          "type": "address"
        }
      ],
      "name": "renounceRole",
      "outputs": [],
      "stateMutability": "nonpayable",
      "type": "function"
    },
    {
      "inputs": [
        {
          "internalType": "bytes32",
          "name": "role",
          "type": "bytes32"
        },
        {
          "internalType": "address",
          "name": "account",
          "type": "address"
        }
      ],
      "name": "revokeRole",
      "outputs": [],
      "stateMutability": "nonpayable",
      "type": "function"
    },
    {
      "inputs": [
        {
          "internalType": "bytes4",
          "name": "interfaceId",
          "type": "bytes4"
        }
      ],
      "name": "supportsInterface",
      "outputs": [
        {
          "internalType": "bool",
          "name": "",
          "type": "bool"
        }
      ],
      "stateMutability": "view",
      "type": "function"
    },
    {
      "inputs": [
        {
          "internalType": "string",
          "name": "",
          "type": "string"
        }
      ],
      "name": "tgIdToAddress",
      "outputs": [
        {
          "internalType": "address",
          "name": "",
          "type": "address"
        }
      ],
      "stateMutability": "view",
      "type": "function"
    },
    {
      "inputs": [
        {
          "internalType": "address",
          "name": "newOwner",
          "type": "address"
        }
      ],
      "name": "transferOwnership",
      "outputs": [],
      "stateMutability": "nonpayable",
      "type": "function"
    }
  ],
  "bytecode": "0x60806040523480156200001157600080fd5b5060405162005b9238038062005b92833981810160405281019062000037919062000d7c565b620000576200004b6200046060201b60201c565b6200046860201b60201c565b66071afd498d0000600281905550620000756200052c60201b60201c565b600360006101000a81548173ffffffffffffffffffffffffffffffffffffffff021916908373ffffffffffffffffffffffffffffffffffffffff160217905550620000ca6000801b336200055560201b60201c565b620000fc7fcea62fe6ecc79e221c545bf918f804693c542ead2549e37c2bb9baa66ee2e157336200055560201b60201c565b83600860006101000a81548173ffffffffffffffffffffffffffffffffffffffff021916908373ffffffffffffffffffffffffffffffffffffffff1602179055503360048360405162000150919062000e79565b908152602001604051809103902060006101000a81548173ffffffffffffffffffffffffffffffffffffffff021916908373ffffffffffffffffffffffffffffffffffffffff160217905550336006604051620001ad9062000ee2565b908152602001604051809103902060006101000a81548173ffffffffffffffffffffffffffffffffffffffff021916908373ffffffffffffffffffffffffffffffffffffffff1602179055506040518060c001604052803373ffffffffffffffffffffffffffffffffffffffff1681526020018381526020016001151581526020013373ffffffffffffffffffffffffffffffffffffffff1681526020016040518060400160405280600181526020017f300000000000000000000000000000000000000000000000000000000000000081525081526020016040518060600160405280602c815260200162005b66602c9139815250600560003373ffffffffffffffffffffffffffffffffffffffff1673ffffffffffffffffffffffffffffffffffffffff16815260200190815260200160002060008201518160000160006101000a81548173ffffffffffffffffffffffffffffffffffffffff021916908373ffffffffffffffffffffffffffffffffffffffff160217905550602082015181600101908162000340919062001139565b5060408201518160020160006101000a81548160ff02191690831515021790555060608201518160020160016101000a81548173ffffffffffffffffffffffffffffffffffffffff021916908373ffffffffffffffffffffffffffffffffffffffff1602179055506080820151816003019081620003bf919062001139565b5060a0820151816004019081620003d7919062001139565b50905050600073ffffffffffffffffffffffffffffffffffffffff168373ffffffffffffffffffffffffffffffffffffffff160362000442576200043c33836040518060600160405280602c815260200162005b66602c91396200064660201b60201c565b62000456565b620004558383836200064660201b60201c565b5b5050505062001287565b600033905090565b60008060009054906101000a900473ffffffffffffffffffffffffffffffffffffffff169050816000806101000a81548173ffffffffffffffffffffffffffffffffffffffff021916908373ffffffffffffffffffffffffffffffffffffffff1602179055508173ffffffffffffffffffffffffffffffffffffffff168173ffffffffffffffffffffffffffffffffffffffff167f8be0079c531659141344cd1fd0a4f28419497f9722a3daafe3b4186f6b6457e060405160405180910390a35050565b60008060009054906101000a900473ffffffffffffffffffffffffffffffffffffffff16905090565b62000567828262000acf60201b60201c565b6200064257600180600084815260200190815260200160002060000160008373ffffffffffffffffffffffffffffffffffffffff1673ffffffffffffffffffffffffffffffffffffffff16815260200190815260200160002060006101000a81548160ff021916908315150217905550620005e76200046060201b60201c565b73ffffffffffffffffffffffffffffffffffffffff168173ffffffffffffffffffffffffffffffffffffffff16837f2f8788117e7eff1d82e926ec794901d17c78024a50270940304540a733656f0d60405160405180910390a45b5050565b8260048360405162000659919062000e79565b908152602001604051809103902060006101000a81548173ffffffffffffffffffffffffffffffffffffffff021916908373ffffffffffffffffffffffffffffffffffffffff160217905550826006604051620006b69062001270565b908152602001604051809103902060006101000a81548173ffffffffffffffffffffffffffffffffffffffff021916908373ffffffffffffffffffffffffffffffffffffffff1602179055506040518060c001604052808473ffffffffffffffffffffffffffffffffffffffff1681526020018381526020016001151581526020018473ffffffffffffffffffffffffffffffffffffffff1681526020016040518060400160405280600481526020017f4164616d00000000000000000000000000000000000000000000000000000000815250815260200182815250600560008573ffffffffffffffffffffffffffffffffffffffff1673ffffffffffffffffffffffffffffffffffffffff16815260200190815260200160002060008201518160000160006101000a81548173ffffffffffffffffffffffffffffffffffffffff021916908373ffffffffffffffffffffffffffffffffffffffff160217905550602082015181600101908162000830919062001139565b5060408201518160020160006101000a81548160ff02191690831515021790555060608201518160020160016101000a81548173ffffffffffffffffffffffffffffffffffffffff021916908373ffffffffffffffffffffffffffffffffffffffff1602179055506080820151816003019081620008af919062001139565b5060a0820151816004019081620008c7919062001139565b509050506001600560008573ffffffffffffffffffffffffffffffffffffffff1673ffffffffffffffffffffffffffffffffffffffff16815260200190815260200160002060020160006101000a81548160ff02191690831515021790555033600560008573ffffffffffffffffffffffffffffffffffffffff1673ffffffffffffffffffffffffffffffffffffffff16815260200190815260200160002060020160016101000a81548173ffffffffffffffffffffffffffffffffffffffff021916908373ffffffffffffffffffffffffffffffffffffffff1602179055506000620009ef6040518060400160405280600181526020017f300000000000000000000000000000000000000000000000000000000000000081525062000b3a60201b60201c565b90506001600760008373ffffffffffffffffffffffffffffffffffffffff1673ffffffffffffffffffffffffffffffffffffffff16815260200190815260200160002060008673ffffffffffffffffffffffffffffffffffffffff1673ffffffffffffffffffffffffffffffffffffffff16815260200190815260200160002060006101000a81548160ff0219169083151502179055508373ffffffffffffffffffffffffffffffffffffffff167f908408e307fc569b417f6cbec5d5a06f44a0a505ac0479b47d421a4b2fd6a1e660405160405180910390a250505050565b60006001600084815260200190815260200160002060000160008373ffffffffffffffffffffffffffffffffffffffff1673ffffffffffffffffffffffffffffffffffffffff16815260200190815260200160002060009054906101000a900460ff16905092915050565b600060068260405162000b4e919062000e79565b908152602001604051809103902060009054906101000a900473ffffffffffffffffffffffffffffffffffffffff169050919050565b6000604051905090565b600080fd5b600080fd5b600073ffffffffffffffffffffffffffffffffffffffff82169050919050565b600062000bc58262000b98565b9050919050565b62000bd78162000bb8565b811462000be357600080fd5b50565b60008151905062000bf78162000bcc565b92915050565b600080fd5b600080fd5b6000601f19601f8301169050919050565b7f4e487b7100000000000000000000000000000000000000000000000000000000600052604160045260246000fd5b62000c528262000c07565b810181811067ffffffffffffffff8211171562000c745762000c7362000c18565b5b80604052505050565b600062000c8962000b84565b905062000c97828262000c47565b919050565b600067ffffffffffffffff82111562000cba5762000cb962000c18565b5b62000cc58262000c07565b9050602081019050919050565b60005b8381101562000cf257808201518184015260208101905062000cd5565b60008484015250505050565b600062000d1562000d0f8462000c9c565b62000c7d565b90508281526020810184848401111562000d345762000d3362000c02565b5b62000d4184828562000cd2565b509392505050565b600082601f83011262000d615762000d6062000bfd565b5b815162000d7384826020860162000cfe565b91505092915050565b6000806000806080858703121562000d995762000d9862000b8e565b5b600062000da98782880162000be6565b945050602062000dbc8782880162000be6565b935050604085015167ffffffffffffffff81111562000de05762000ddf62000b93565b5b62000dee8782880162000d49565b925050606085015167ffffffffffffffff81111562000e125762000e1162000b93565b5b62000e208782880162000d49565b91505092959194509250565b600081519050919050565b600081905092915050565b600062000e4f8262000e2c565b62000e5b818562000e37565b935062000e6d81856020860162000cd2565b80840191505092915050565b600062000e87828462000e42565b915081905092915050565b7f3000000000000000000000000000000000000000000000000000000000000000600082015250565b600062000eca60018362000e37565b915062000ed78262000e92565b600182019050919050565b600062000eef8262000ebb565b9150819050919050565b7f4e487b7100000000000000000000000000000000000000000000000000000000600052602260045260246000fd5b6000600282049050600182168062000f4157607f821691505b60208210810362000f575762000f5662000ef9565b5b50919050565b60008190508160005260206000209050919050565b60006020601f8301049050919050565b600082821b905092915050565b60006008830262000fc17fffffffffffffffffffffffffffffffffffffffffffffffffffffffffffffffff8262000f82565b62000fcd868362000f82565b95508019841693508086168417925050509392505050565b6000819050919050565b6000819050919050565b60006200101a620010146200100e8462000fe5565b62000fef565b62000fe5565b9050919050565b6000819050919050565b620010368362000ff9565b6200104e620010458262001021565b84845462000f8f565b825550505050565b600090565b6200106562001056565b620010728184846200102b565b505050565b5b818110156200109a576200108e6000826200105b565b60018101905062001078565b5050565b601f821115620010e957620010b38162000f5d565b620010be8462000f72565b81016020851015620010ce578190505b620010e6620010dd8562000f72565b83018262001077565b50505b505050565b600082821c905092915050565b60006200110e60001984600802620010ee565b1980831691505092915050565b6000620011298383620010fb565b9150826002028217905092915050565b620011448262000e2c565b67ffffffffffffffff81111562001160576200115f62000c18565b5b6200116c825462000f28565b620011798282856200109e565b600060209050601f831160018114620011b157600084156200119c578287015190505b620011a885826200111b565b86555062001218565b601f198416620011c18662000f5d565b60005b82811015620011eb57848901518255600182019150602085019450602081019050620011c4565b868310156200120b578489015162001207601f891682620010fb565b8355505b6001600288020188555050505b505050505050565b7f4164616d00000000000000000000000000000000000000000000000000000000600082015250565b60006200125860048362000e37565b9150620012658262001220565b600482019050919050565b60006200127d8262001249565b9150819050919050565b6148cf80620012976000396000f3fe6080604052600436106101d85760003560e01c80635d1ce88f116101025780639b45179f11610095578063d2114e1811610064578063d2114e18146106fb578063d2125bd214610738578063d547741f14610761578063f2fde38b1461078a576101d8565b80639b45179f1461064e578063a217fddf14610677578063b932fbfa146106a2578063c54080c5146106df576101d8565b8063715018a6116100d1578063715018a61461059257806386e81ba5146105a95780638da5cb5b146105e657806391d1485414610611576101d8565b80635d1ce88f146104d657806361cabe3714610501578063679b06be1461053e5780636e31202814610555576101d8565b80632067eac81161017a57806336568abe1161014957806336568abe1461041a5780633874390414610443578063460e6c9c1461046e57806348dc1561146104ab576101d8565b80632067eac814610362578063248a9ca31461038b578063286b2e54146103c85780632f2ff15d146103f1576101d8565b80630d48cae8116101b65780630d48cae81461026e57806315905bdd146102ab5780631892fd78146102e85780631a519ce814610325576101d8565b8063018d3dc9146101dd57806301ffc9a7146102065780630ae50a3914610243575b600080fd5b3480156101e957600080fd5b5061020460048036038101906101ff91906134f4565b6107b3565b005b34801561021257600080fd5b5061022d600480360381019061022891906135c4565b610931565b60405161023a919061360c565b60405180910390f35b34801561024f57600080fd5b506102586109ab565b6040516102659190613668565b60405180910390f35b34801561027a57600080fd5b5061029560048036038101906102909190613683565b6109d5565b6040516102a29190613800565b60405180910390f35b3480156102b757600080fd5b506102d260048036038101906102cd9190613683565b610cbf565b6040516102df9190613668565b60405180910390f35b3480156102f457600080fd5b5061030f600480360381019061030a919061384e565b610d07565b60405161031c9190613800565b60405180910390f35b34801561033157600080fd5b5061034c60048036038101906103479190613683565b610fe3565b6040516103599190613800565b60405180910390f35b34801561036e57600080fd5b506103896004803603810190610384919061384e565b6112cd565b005b34801561039757600080fd5b506103b260048036038101906103ad91906138b1565b611673565b6040516103bf91906138ed565b60405180910390f35b3480156103d457600080fd5b506103ef60048036038101906103ea9190613683565b611693565b005b3480156103fd57600080fd5b5061041860048036038101906104139190613908565b611afb565b005b34801561042657600080fd5b50610441600480360381019061043c9190613908565b611b1c565b005b34801561044f57600080fd5b50610458611b9f565b60405161046591906138ed565b60405180910390f35b34801561047a57600080fd5b5061049560048036038101906104909190613948565b611bc3565b6040516104a2919061360c565b60405180910390f35b3480156104b757600080fd5b506104c0611bf2565b6040516104cd91906139a1565b60405180910390f35b3480156104e257600080fd5b506104eb611bfc565b6040516104f891906138ed565b60405180910390f35b34801561050d57600080fd5b506105286004803603810190610523919061384e565b611c24565b6040516105359190613a06565b60405180910390f35b34801561054a57600080fd5b50610553611c40565b005b34801561056157600080fd5b5061057c60048036038101906105779190613683565b611ce7565b6040516105899190613668565b60405180910390f35b34801561059e57600080fd5b506105a7611d30565b005b3480156105b557600080fd5b506105d060048036038101906105cb9190613683565b611d44565b6040516105dd9190613668565b60405180910390f35b3480156105f257600080fd5b506105fb611d8d565b6040516106089190613668565b60405180910390f35b34801561061d57600080fd5b5061063860048036038101906106339190613908565b611db6565b604051610645919061360c565b60405180910390f35b34801561065a57600080fd5b50610675600480360381019061067091906134f4565b611e21565b005b34801561068357600080fd5b5061068c61217d565b60405161069991906138ed565b60405180910390f35b3480156106ae57600080fd5b506106c960048036038101906106c4919061384e565b612184565b6040516106d69190613a06565b60405180910390f35b6106f960048036038101906106f49190613a28565b6121a6565b005b34801561070757600080fd5b50610722600480360381019061071d9190613683565b6125da565b60405161072f9190613668565b60405180910390f35b34801561074457600080fd5b5061075f600480360381019061075a9190613b2b565b612622565b005b34801561076d57600080fd5b5061078860048036038101906107839190613908565b612634565b005b34801561079657600080fd5b506107b160048036038101906107ac919061384e565b612655565b005b60006107be826125da565b905060006107cb846125da565b90503373ffffffffffffffffffffffffffffffffffffffff168273ffffffffffffffffffffffffffffffffffffffff161461083b576040517f08c379a000000000000000000000000000000000000000000000000000000000815260040161083290613bca565b60405180910390fd5b6000600560008473ffffffffffffffffffffffffffffffffffffffff1673ffffffffffffffffffffffffffffffffffffffff16815260200190815260200160002060020160006101000a81548160ff0219169083151502179055506000600760008373ffffffffffffffffffffffffffffffffffffffff1673ffffffffffffffffffffffffffffffffffffffff16815260200190815260200160002060003373ffffffffffffffffffffffffffffffffffffffff1673ffffffffffffffffffffffffffffffffffffffff16815260200190815260200160002060006101000a81548160ff02191690831515021790555050505050565b60007f7965db0b000000000000000000000000000000000000000000000000000000007bffffffffffffffffffffffffffffffffffffffffffffffffffffffff1916827bffffffffffffffffffffffffffffffffffffffffffffffffffffffff191614806109a457506109a3826126d8565b5b9050919050565b6000600360009054906101000a900473ffffffffffffffffffffffffffffffffffffffff16905090565b6109dd6132d9565b60006109e8836125da565b90506000600560008373ffffffffffffffffffffffffffffffffffffffff1673ffffffffffffffffffffffffffffffffffffffff1681526020019081526020016000206040518060c00160405290816000820160009054906101000a900473ffffffffffffffffffffffffffffffffffffffff1673ffffffffffffffffffffffffffffffffffffffff1673ffffffffffffffffffffffffffffffffffffffff168152602001600182018054610a9c90613c19565b80601f0160208091040260200160405190810160405280929190818152602001828054610ac890613c19565b8015610b155780601f10610aea57610100808354040283529160200191610b15565b820191906000526020600020905b815481529060010190602001808311610af857829003601f168201915b505050505081526020016002820160009054906101000a900460ff161515151581526020016002820160019054906101000a900473ffffffffffffffffffffffffffffffffffffffff1673ffffffffffffffffffffffffffffffffffffffff1673ffffffffffffffffffffffffffffffffffffffff168152602001600382018054610b9f90613c19565b80601f0160208091040260200160405190810160405280929190818152602001828054610bcb90613c19565b8015610c185780601f10610bed57610100808354040283529160200191610c18565b820191906000526020600020905b815481529060010190602001808311610bfb57829003601f168201915b50505050508152602001600482018054610c3190613c19565b80601f0160208091040260200160405190810160405280929190818152602001828054610c5d90613c19565b8015610caa5780601f10610c7f57610100808354040283529160200191610caa565b820191906000526020600020905b815481529060010190602001808311610c8d57829003601f168201915b50505050508152505090508092505050919050565b6000600482604051610cd19190613c86565b908152602001604051809103902060009054906101000a900473ffffffffffffffffffffffffffffffffffffffff169050919050565b610d0f6132d9565b6000600560008473ffffffffffffffffffffffffffffffffffffffff1673ffffffffffffffffffffffffffffffffffffffff1681526020019081526020016000206040518060c00160405290816000820160009054906101000a900473ffffffffffffffffffffffffffffffffffffffff1673ffffffffffffffffffffffffffffffffffffffff1673ffffffffffffffffffffffffffffffffffffffff168152602001600182018054610dc190613c19565b80601f0160208091040260200160405190810160405280929190818152602001828054610ded90613c19565b8015610e3a5780601f10610e0f57610100808354040283529160200191610e3a565b820191906000526020600020905b815481529060010190602001808311610e1d57829003601f168201915b505050505081526020016002820160009054906101000a900460ff161515151581526020016002820160019054906101000a900473ffffffffffffffffffffffffffffffffffffffff1673ffffffffffffffffffffffffffffffffffffffff1673ffffffffffffffffffffffffffffffffffffffff168152602001600382018054610ec490613c19565b80601f0160208091040260200160405190810160405280929190818152602001828054610ef090613c19565b8015610f3d5780601f10610f1257610100808354040283529160200191610f3d565b820191906000526020600020905b815481529060010190602001808311610f2057829003601f168201915b50505050508152602001600482018054610f5690613c19565b80601f0160208091040260200160405190810160405280929190818152602001828054610f8290613c19565b8015610fcf5780601f10610fa457610100808354040283529160200191610fcf565b820191906000526020600020905b815481529060010190602001808311610fb257829003601f168201915b505050505081525050905080915050919050565b610feb6132d9565b6000610ff683610cbf565b90506000600560008373ffffffffffffffffffffffffffffffffffffffff1673ffffffffffffffffffffffffffffffffffffffff1681526020019081526020016000206040518060c00160405290816000820160009054906101000a900473ffffffffffffffffffffffffffffffffffffffff1673ffffffffffffffffffffffffffffffffffffffff1673ffffffffffffffffffffffffffffffffffffffff1681526020016001820180546110aa90613c19565b80601f01602080910402602001604051908101604052809291908181526020018280546110d690613c19565b80156111235780601f106110f857610100808354040283529160200191611123565b820191906000526020600020905b81548152906001019060200180831161110657829003601f168201915b505050505081526020016002820160009054906101000a900460ff161515151581526020016002820160019054906101000a900473ffffffffffffffffffffffffffffffffffffffff1673ffffffffffffffffffffffffffffffffffffffff1673ffffffffffffffffffffffffffffffffffffffff1681526020016003820180546111ad90613c19565b80601f01602080910402602001604051908101604052809291908181526020018280546111d990613c19565b80156112265780601f106111fb57610100808354040283529160200191611226565b820191906000526020600020905b81548152906001019060200180831161120957829003601f168201915b5050505050815260200160048201805461123f90613c19565b80601f016020809104026020016040519081016040528092919081815260200182805461126b90613c19565b80156112b85780601f1061128d576101008083540402835291602001916112b8565b820191906000526020600020905b81548152906001019060200180831161129b57829003601f168201915b50505050508152505090508092505050919050565b7fcea62fe6ecc79e221c545bf918f804693c542ead2549e37c2bb9baa66ee2e1576112f781612742565b6000600560008473ffffffffffffffffffffffffffffffffffffffff1673ffffffffffffffffffffffffffffffffffffffff168152602001908152602001600020600101805461134690613c19565b80601f016020809104026020016040519081016040528092919081815260200182805461137290613c19565b80156113bf5780601f10611394576101008083540402835291602001916113bf565b820191906000526020600020905b8154815290600101906020018083116113a257829003601f168201915b505050505090506000600560008573ffffffffffffffffffffffffffffffffffffffff1673ffffffffffffffffffffffffffffffffffffffff168152602001908152602001600020600301805461141590613c19565b80601f016020809104026020016040519081016040528092919081815260200182805461144190613c19565b801561148e5780601f106114635761010080835404028352916020019161148e565b820191906000526020600020905b81548152906001019060200180831161147157829003601f168201915b505050505090506000469050600581146114dd576040517f08c379a00000000000000000000000000000000000000000000000000000000081526004016114d490613ce9565b60405180910390fd5b600560008673ffffffffffffffffffffffffffffffffffffffff1673ffffffffffffffffffffffffffffffffffffffff168152602001908152602001600020600080820160006101000a81549073ffffffffffffffffffffffffffffffffffffffff0219169055600182016000611554919061333d565b6002820160006101000a81549060ff02191690556002820160016101000a81549073ffffffffffffffffffffffffffffffffffffffff021916905560038201600061159f919061333d565b6004820160006115af919061333d565b50506004836040516115c19190613c86565b908152602001604051809103902060006101000a81549073ffffffffffffffffffffffffffffffffffffffff02191690556006826040516116029190613c86565b908152602001604051809103902060006101000a81549073ffffffffffffffffffffffffffffffffffffffff02191690557fe444442b4fc5a03103c68bde16932de23949be11145d1b4707d817bfb50557388386604051611664929190613d09565b60405180910390a15050505050565b600060016000838152602001908152602001600020600101549050919050565b600061169e82610cbf565b90506000600560008373ffffffffffffffffffffffffffffffffffffffff1673ffffffffffffffffffffffffffffffffffffffff16815260200190815260200160002060030180546116ef90613c19565b80601f016020809104026020016040519081016040528092919081815260200182805461171b90613c19565b80156117685780601f1061173d57610100808354040283529160200191611768565b820191906000526020600020905b81548152906001019060200180831161174b57829003601f168201915b5050505050905060001515600560008473ffffffffffffffffffffffffffffffffffffffff1673ffffffffffffffffffffffffffffffffffffffff16815260200190815260200160002060020160009054906101000a900460ff16151514611805576040517f08c379a00000000000000000000000000000000000000000000000000000000081526004016117fc90613dab565b60405180910390fd5b6000600760003373ffffffffffffffffffffffffffffffffffffffff1673ffffffffffffffffffffffffffffffffffffffff16815260200190815260200160002060008473ffffffffffffffffffffffffffffffffffffffff1673ffffffffffffffffffffffffffffffffffffffff16815260200190815260200160002060009054906101000a900460ff16905060001515811515146118da576040517f08c379a00000000000000000000000000000000000000000000000000000000081526004016118d190613e17565b60405180910390fd5b600560008473ffffffffffffffffffffffffffffffffffffffff1673ffffffffffffffffffffffffffffffffffffffff168152602001908152602001600020600080820160006101000a81549073ffffffffffffffffffffffffffffffffffffffff0219169055600182016000611951919061333d565b6002820160006101000a81549060ff02191690556002820160016101000a81549073ffffffffffffffffffffffffffffffffffffffff021916905560038201600061199c919061333d565b6004820160006119ac919061333d565b50506004846040516119be9190613c86565b908152602001604051809103902060006101000a81549073ffffffffffffffffffffffffffffffffffffffff02191690556006826040516119ff9190613c86565b908152602001604051809103902060006101000a81549073ffffffffffffffffffffffffffffffffffffffff0219169055600760003373ffffffffffffffffffffffffffffffffffffffff1673ffffffffffffffffffffffffffffffffffffffff16815260200190815260200160002060008473ffffffffffffffffffffffffffffffffffffffff1673ffffffffffffffffffffffffffffffffffffffff16815260200190815260200160002060006101000a81549060ff02191690557fe444442b4fc5a03103c68bde16932de23949be11145d1b4707d817bfb50557388484604051611aed929190613d09565b60405180910390a150505050565b611b0482611673565b611b0d81612742565b611b178383612756565b505050565b611b24612836565b73ffffffffffffffffffffffffffffffffffffffff168173ffffffffffffffffffffffffffffffffffffffff1614611b91576040517f08c379a0000000000000000000000000000000000000000000000000000000008152600401611b8890613ea9565b60405180910390fd5b611b9b828261283e565b5050565b7fcea62fe6ecc79e221c545bf918f804693c542ead2549e37c2bb9baa66ee2e15781565b60076020528160005260406000206020528060005260406000206000915091509054906101000a900460ff1681565b6000600254905090565b60007fcea62fe6ecc79e221c545bf918f804693c542ead2549e37c2bb9baa66ee2e157905090565b60606000611c3183610d07565b90508060200151915050919050565b6000600560003373ffffffffffffffffffffffffffffffffffffffff1673ffffffffffffffffffffffffffffffffffffffff16815260200190815260200160002060020160009054906101000a900460ff1690506000151581151514611cdb576040517f08c379a0000000000000000000000000000000000000000000000000000000008152600401611cd290613f15565b60405180910390fd5b611ce433612920565b50565b6006818051602081018201805184825260208301602085012081835280955050505050506000915054906101000a900473ffffffffffffffffffffffffffffffffffffffff1681565b611d38612c52565b611d426000612cd0565b565b6004818051602081018201805184825260208301602085012081835280955050505050506000915054906101000a900473ffffffffffffffffffffffffffffffffffffffff1681565b60008060009054906101000a900473ffffffffffffffffffffffffffffffffffffffff16905090565b60006001600084815260200190815260200160002060000160008373ffffffffffffffffffffffffffffffffffffffff1673ffffffffffffffffffffffffffffffffffffffff16815260200190815260200160002060009054906101000a900460ff16905092915050565b6000600682604051611e339190613c86565b908152602001604051809103902060009054906101000a900473ffffffffffffffffffffffffffffffffffffffff1690503373ffffffffffffffffffffffffffffffffffffffff168173ffffffffffffffffffffffffffffffffffffffff1614611ed2576040517f08c379a0000000000000000000000000000000000000000000000000000000008152600401611ec990613f81565b60405180910390fd5b6000611edd84610cbf565b90506000600760008473ffffffffffffffffffffffffffffffffffffffff1673ffffffffffffffffffffffffffffffffffffffff16815260200190815260200160002060008373ffffffffffffffffffffffffffffffffffffffff1673ffffffffffffffffffffffffffffffffffffffff16815260200190815260200160002060009054906101000a900460ff1690506000151581151514611fb4576040517f08c379a0000000000000000000000000000000000000000000000000000000008152600401611fab90613fed565b60405180910390fd5b6001600560008473ffffffffffffffffffffffffffffffffffffffff1673ffffffffffffffffffffffffffffffffffffffff16815260200190815260200160002060020160006101000a81548160ff02191690831515021790555033600560008473ffffffffffffffffffffffffffffffffffffffff1673ffffffffffffffffffffffffffffffffffffffff16815260200190815260200160002060020160016101000a81548173ffffffffffffffffffffffffffffffffffffffff021916908373ffffffffffffffffffffffffffffffffffffffff1602179055506001600760008573ffffffffffffffffffffffffffffffffffffffff1673ffffffffffffffffffffffffffffffffffffffff16815260200190815260200160002060008473ffffffffffffffffffffffffffffffffffffffff1673ffffffffffffffffffffffffffffffffffffffff16815260200190815260200160002060006101000a81548160ff0219169083151502179055508173ffffffffffffffffffffffffffffffffffffffff167fadbeb0a5d66e2be993428864e5c86f7c8aa562e2c58131d193ac2eeb7443817a84600160405161216e92919061400d565b60405180910390a25050505050565b6000801b81565b6060600061219183610d07565b905060008160a0015190508092505050919050565b600033905060025434146121ef576040517f08c379a00000000000000000000000000000000000000000000000000000000081526004016121e690614082565b60405180910390fd5b60006006846040516122019190613c86565b908152602001604051809103902060009054906101000a900473ffffffffffffffffffffffffffffffffffffffff1690506040518060c001604052808373ffffffffffffffffffffffffffffffffffffffff1681526020018781526020016000151581526020018273ffffffffffffffffffffffffffffffffffffffff16815260200186815260200184815250600560003373ffffffffffffffffffffffffffffffffffffffff1673ffffffffffffffffffffffffffffffffffffffff16815260200190815260200160002060008201518160000160006101000a81548173ffffffffffffffffffffffffffffffffffffffff021916908373ffffffffffffffffffffffffffffffffffffffff1602179055506020820151816001019081612329919061424e565b5060408201518160020160006101000a81548160ff02191690831515021790555060608201518160020160016101000a81548173ffffffffffffffffffffffffffffffffffffffff021916908373ffffffffffffffffffffffffffffffffffffffff16021790555060808201518160030190816123a6919061424e565b5060a08201518160040190816123bc919061424e565b509050506000600360009054906101000a900473ffffffffffffffffffffffffffffffffffffffff1673ffffffffffffffffffffffffffffffffffffffff1660025460405161240a90614351565b60006040518083038185875af1925050503d8060008114612447576040519150601f19603f3d011682016040523d82523d6000602084013e61244c565b606091505b5050905080612490576040517f08c379a0000000000000000000000000000000000000000000000000000000008152600401612487906143b2565b60405180910390fd5b61249c87848888612d94565b8173ffffffffffffffffffffffffffffffffffffffff167f435b683210e9cdb43126109baed7a6a387c609e0e13532755b51016e1b773a6b88336040516124e4929190613d09565b60405180910390a28173ffffffffffffffffffffffffffffffffffffffff167f71ec84cb0c406d66954dcb2481d75f63a94ed77283afa5657d56e68a20df3c528833604051612534929190613d09565b60405180910390a26000600760008473ffffffffffffffffffffffffffffffffffffffff1673ffffffffffffffffffffffffffffffffffffffff16815260200190815260200160002060003373ffffffffffffffffffffffffffffffffffffffff1673ffffffffffffffffffffffffffffffffffffffff16815260200190815260200160002060006101000a81548160ff02191690831515021790555050505050505050565b60006006826040516125ec9190613c86565b908152602001604051809103902060009054906101000a900473ffffffffffffffffffffffffffffffffffffffff169050919050565b61262a612c52565b8060028190555050565b61263d82611673565b61264681612742565b612650838361283e565b505050565b61265d612c52565b600073ffffffffffffffffffffffffffffffffffffffff168173ffffffffffffffffffffffffffffffffffffffff16036126cc576040517f08c379a00000000000000000000000000000000000000000000000000000000081526004016126c390614444565b60405180910390fd5b6126d581612cd0565b50565b60007f01ffc9a7000000000000000000000000000000000000000000000000000000007bffffffffffffffffffffffffffffffffffffffffffffffffffffffff1916827bffffffffffffffffffffffffffffffffffffffffffffffffffffffff1916149050919050565b6127538161274e612836565b612feb565b50565b6127608282611db6565b61283257600180600084815260200190815260200160002060000160008373ffffffffffffffffffffffffffffffffffffffff1673ffffffffffffffffffffffffffffffffffffffff16815260200190815260200160002060006101000a81548160ff0219169083151502179055506127d7612836565b73ffffffffffffffffffffffffffffffffffffffff168173ffffffffffffffffffffffffffffffffffffffff16837f2f8788117e7eff1d82e926ec794901d17c78024a50270940304540a733656f0d60405160405180910390a45b5050565b600033905090565b6128488282611db6565b1561291c5760006001600084815260200190815260200160002060000160008373ffffffffffffffffffffffffffffffffffffffff1673ffffffffffffffffffffffffffffffffffffffff16815260200190815260200160002060006101000a81548160ff0219169083151502179055506128c1612836565b73ffffffffffffffffffffffffffffffffffffffff168173ffffffffffffffffffffffffffffffffffffffff16837ff6391f5c32d9c69d2a47ea670b442974b53935d1edc7fd64eb21e047a839171b60405160405180910390a45b5050565b6000600560008373ffffffffffffffffffffffffffffffffffffffff1673ffffffffffffffffffffffffffffffffffffffff168152602001908152602001600020600101805461296f90613c19565b80601f016020809104026020016040519081016040528092919081815260200182805461299b90613c19565b80156129e85780601f106129bd576101008083540402835291602001916129e8565b820191906000526020600020905b8154815290600101906020018083116129cb57829003601f168201915b505050505090506000600560008473ffffffffffffffffffffffffffffffffffffffff1673ffffffffffffffffffffffffffffffffffffffff1681526020019081526020016000206003018054612a3e90613c19565b80601f0160208091040260200160405190810160405280929190818152602001828054612a6a90613c19565b8015612ab75780601f10612a8c57610100808354040283529160200191612ab7565b820191906000526020600020905b815481529060010190602001808311612a9a57829003601f168201915b50505050509050600560008473ffffffffffffffffffffffffffffffffffffffff1673ffffffffffffffffffffffffffffffffffffffff168152602001908152602001600020600080820160006101000a81549073ffffffffffffffffffffffffffffffffffffffff0219169055600182016000612b35919061333d565b6002820160006101000a81549060ff02191690556002820160016101000a81549073ffffffffffffffffffffffffffffffffffffffff0219169055600382016000612b80919061333d565b600482016000612b90919061333d565b5050600482604051612ba29190613c86565b908152602001604051809103902060006101000a81549073ffffffffffffffffffffffffffffffffffffffff0219169055600681604051612be39190613c86565b908152602001604051809103902060006101000a81549073ffffffffffffffffffffffffffffffffffffffff02191690557fe444442b4fc5a03103c68bde16932de23949be11145d1b4707d817bfb50557388284604051612c45929190613d09565b60405180910390a1505050565b612c5a612836565b73ffffffffffffffffffffffffffffffffffffffff16612c78611d8d565b73ffffffffffffffffffffffffffffffffffffffff1614612cce576040517f08c379a0000000000000000000000000000000000000000000000000000000008152600401612cc5906144b0565b60405180910390fd5b565b60008060009054906101000a900473ffffffffffffffffffffffffffffffffffffffff169050816000806101000a81548173ffffffffffffffffffffffffffffffffffffffff021916908373ffffffffffffffffffffffffffffffffffffffff1602179055508173ffffffffffffffffffffffffffffffffffffffff168173ffffffffffffffffffffffffffffffffffffffff167f8be0079c531659141344cd1fd0a4f28419497f9722a3daafe3b4186f6b6457e060405160405180910390a35050565b600073ffffffffffffffffffffffffffffffffffffffff16600485604051612dbc9190613c86565b908152602001604051809103902060009054906101000a900473ffffffffffffffffffffffffffffffffffffffff1673ffffffffffffffffffffffffffffffffffffffff1614612e41576040517f08c379a0000000000000000000000000000000000000000000000000000000008152600401612e3890614542565b60405180910390fd5b6000600860009054906101000a900473ffffffffffffffffffffffffffffffffffffffff1673ffffffffffffffffffffffffffffffffffffffff1663a430c74484846040518363ffffffff1660e01b8152600401612ea0929190614562565b602060405180830381865afa158015612ebd573d6000803e3d6000fd5b505050506040513d601f19601f82011682018060405250810190612ee191906145c5565b90506001151581151514612f2a576040517f08c379a0000000000000000000000000000000000000000000000000000000008152600401612f219061463e565b60405180910390fd5b83600486604051612f3b9190613c86565b908152602001604051809103902060006101000a81548173ffffffffffffffffffffffffffffffffffffffff021916908373ffffffffffffffffffffffffffffffffffffffff16021790555083600684604051612f989190613c86565b908152602001604051809103902060006101000a81548173ffffffffffffffffffffffffffffffffffffffff021916908373ffffffffffffffffffffffffffffffffffffffff1602179055505050505050565b612ff58282611db6565b61306c5761300281613070565b6130108360001c602061309d565b6040516020016130219291906146f6565b6040516020818303038152906040526040517f08c379a00000000000000000000000000000000000000000000000000000000081526004016130639190613a06565b60405180910390fd5b5050565b60606130968273ffffffffffffffffffffffffffffffffffffffff16601460ff1661309d565b9050919050565b6060600060028360026130b0919061475f565b6130ba91906147a1565b67ffffffffffffffff8111156130d3576130d26133c9565b5b6040519080825280601f01601f1916602001820160405280156131055781602001600182028036833780820191505090505b5090507f30000000000000000000000000000000000000000000000000000000000000008160008151811061313d5761313c6147d5565b5b60200101907effffffffffffffffffffffffffffffffffffffffffffffffffffffffffffff1916908160001a9053507f7800000000000000000000000000000000000000000000000000000000000000816001815181106131a1576131a06147d5565b5b60200101907effffffffffffffffffffffffffffffffffffffffffffffffffffffffffffff1916908160001a905350600060018460026131e1919061475f565b6131eb91906147a1565b90505b600181111561328b577f3031323334353637383961626364656600000000000000000000000000000000600f86166010811061322d5761322c6147d5565b5b1a60f81b828281518110613244576132436147d5565b5b60200101907effffffffffffffffffffffffffffffffffffffffffffffffffffffffffffff1916908160001a905350600485901c94508061328490614804565b90506131ee565b50600084146132cf576040517f08c379a00000000000000000000000000000000000000000000000000000000081526004016132c690614879565b60405180910390fd5b8091505092915050565b6040518060c00160405280600073ffffffffffffffffffffffffffffffffffffffff16815260200160608152602001600015158152602001600073ffffffffffffffffffffffffffffffffffffffff16815260200160608152602001606081525090565b50805461334990613c19565b6000825580601f1061335b575061337a565b601f016020900490600052602060002090810190613379919061337d565b5b50565b5b8082111561339657600081600090555060010161337e565b5090565b6000604051905090565b600080fd5b600080fd5b600080fd5b600080fd5b6000601f19601f8301169050919050565b7f4e487b7100000000000000000000000000000000000000000000000000000000600052604160045260246000fd5b613401826133b8565b810181811067ffffffffffffffff821117156134205761341f6133c9565b5b80604052505050565b600061343361339a565b905061343f82826133f8565b919050565b600067ffffffffffffffff82111561345f5761345e6133c9565b5b613468826133b8565b9050602081019050919050565b82818337600083830152505050565b600061349761349284613444565b613429565b9050828152602081018484840111156134b3576134b26133b3565b5b6134be848285613475565b509392505050565b600082601f8301126134db576134da6133ae565b5b81356134eb848260208601613484565b91505092915050565b6000806040838503121561350b5761350a6133a4565b5b600083013567ffffffffffffffff811115613529576135286133a9565b5b613535858286016134c6565b925050602083013567ffffffffffffffff811115613556576135556133a9565b5b613562858286016134c6565b9150509250929050565b60007fffffffff0000000000000000000000000000000000000000000000000000000082169050919050565b6135a18161356c565b81146135ac57600080fd5b50565b6000813590506135be81613598565b92915050565b6000602082840312156135da576135d96133a4565b5b60006135e8848285016135af565b91505092915050565b60008115159050919050565b613606816135f1565b82525050565b600060208201905061362160008301846135fd565b92915050565b600073ffffffffffffffffffffffffffffffffffffffff82169050919050565b600061365282613627565b9050919050565b61366281613647565b82525050565b600060208201905061367d6000830184613659565b92915050565b600060208284031215613699576136986133a4565b5b600082013567ffffffffffffffff8111156136b7576136b66133a9565b5b6136c3848285016134c6565b91505092915050565b6136d581613647565b82525050565b600081519050919050565b600082825260208201905092915050565b60005b838110156137155780820151818401526020810190506136fa565b60008484015250505050565b600061372c826136db565b61373681856136e6565b93506137468185602086016136f7565b61374f816133b8565b840191505092915050565b613763816135f1565b82525050565b600060c08301600083015161378160008601826136cc565b50602083015184820360208601526137998282613721565b91505060408301516137ae604086018261375a565b5060608301516137c160608601826136cc565b50608083015184820360808601526137d98282613721565b91505060a083015184820360a08601526137f38282613721565b9150508091505092915050565b6000602082019050818103600083015261381a8184613769565b905092915050565b61382b81613647565b811461383657600080fd5b50565b60008135905061384881613822565b92915050565b600060208284031215613864576138636133a4565b5b600061387284828501613839565b91505092915050565b6000819050919050565b61388e8161387b565b811461389957600080fd5b50565b6000813590506138ab81613885565b92915050565b6000602082840312156138c7576138c66133a4565b5b60006138d58482850161389c565b91505092915050565b6138e78161387b565b82525050565b600060208201905061390260008301846138de565b92915050565b6000806040838503121561391f5761391e6133a4565b5b600061392d8582860161389c565b925050602061393e85828601613839565b9150509250929050565b6000806040838503121561395f5761395e6133a4565b5b600061396d85828601613839565b925050602061397e85828601613839565b9150509250929050565b6000819050919050565b61399b81613988565b82525050565b60006020820190506139b66000830184613992565b92915050565b600082825260208201905092915050565b60006139d8826136db565b6139e281856139bc565b93506139f28185602086016136f7565b6139fb816133b8565b840191505092915050565b60006020820190508181036000830152613a2081846139cd565b905092915050565b60008060008060808587031215613a4257613a416133a4565b5b600085013567ffffffffffffffff811115613a6057613a5f6133a9565b5b613a6c878288016134c6565b945050602085013567ffffffffffffffff811115613a8d57613a8c6133a9565b5b613a99878288016134c6565b935050604085013567ffffffffffffffff811115613aba57613ab96133a9565b5b613ac6878288016134c6565b925050606085013567ffffffffffffffff811115613ae757613ae66133a9565b5b613af3878288016134c6565b91505092959194509250565b613b0881613988565b8114613b1357600080fd5b50565b600081359050613b2581613aff565b92915050565b600060208284031215613b4157613b406133a4565b5b6000613b4f84828501613b16565b91505092915050565b7f757365727320616c6c6f776564206f6e6c7920746f20636c656172207468656d60008201527f73656c6673000000000000000000000000000000000000000000000000000000602082015250565b6000613bb46025836139bc565b9150613bbf82613b58565b604082019050919050565b60006020820190508181036000830152613be381613ba7565b9050919050565b7f4e487b7100000000000000000000000000000000000000000000000000000000600052602260045260246000fd5b60006002820490506001821680613c3157607f821691505b602082108103613c4457613c43613bea565b5b50919050565b600081905092915050565b6000613c60826136db565b613c6a8185613c4a565b9350613c7a8185602086016136f7565b80840191505092915050565b6000613c928284613c55565b915081905092915050565b7f746573746e6574206f6e6c790000000000000000000000000000000000000000600082015250565b6000613cd3600c836139bc565b9150613cde82613c9d565b602082019050919050565b60006020820190508181036000830152613d0281613cc6565b9050919050565b60006040820190508181036000830152613d2381856139cd565b9050613d326020830184613659565b9392505050565b7f616c726561647920617070726f766564204f5220646f206e6f7420657869737460008201527f7320796574000000000000000000000000000000000000000000000000000000602082015250565b6000613d956025836139bc565b9150613da082613d39565b604082019050919050565b60006020820190508181036000830152613dc481613d88565b9050919050565b7f616c7265616479206c696e6b6564204f5220646f6e7420657869737473000000600082015250565b6000613e01601d836139bc565b9150613e0c82613dcb565b602082019050919050565b60006020820190508181036000830152613e3081613df4565b9050919050565b7f416363657373436f6e74726f6c3a2063616e206f6e6c792072656e6f756e636560008201527f20726f6c657320666f722073656c660000000000000000000000000000000000602082015250565b6000613e93602f836139bc565b9150613e9e82613e37565b604082019050919050565b60006020820190508181036000830152613ec281613e86565b9050919050565b7f63616c6c20436c656172506172656e7420666972737400000000000000000000600082015250565b6000613eff6016836139bc565b9150613f0a82613ec9565b602082019050919050565b60006020820190508181036000830152613f2e81613ef2565b9050919050565b7f6f6e6c7920706172656e745f6e616d652063616e206163636570742069740000600082015250565b6000613f6b601e836139bc565b9150613f7682613f35565b602082019050919050565b60006020820190508181036000830152613f9a81613f5e565b9050919050565b7f616c726561647920726567697374726564000000000000000000000000000000600082015250565b6000613fd76011836139bc565b9150613fe282613fa1565b602082019050919050565b6000602082019050818103600083015261400681613fca565b9050919050565b60006040820190506140226000830185613659565b61402f60208301846135fd565b9392505050565b7f5265717565737420666565206973206e6f742070616964000000000000000000600082015250565b600061406c6017836139bc565b915061407782614036565b602082019050919050565b6000602082019050818103600083015261409b8161405f565b9050919050565b60008190508160005260206000209050919050565b60006020601f8301049050919050565b600082821b905092915050565b6000600883026141047fffffffffffffffffffffffffffffffffffffffffffffffffffffffffffffffff826140c7565b61410e86836140c7565b95508019841693508086168417925050509392505050565b6000819050919050565b600061414b61414661414184613988565b614126565b613988565b9050919050565b6000819050919050565b61416583614130565b61417961417182614152565b8484546140d4565b825550505050565b600090565b61418e614181565b61419981848461415c565b505050565b5b818110156141bd576141b2600082614186565b60018101905061419f565b5050565b601f821115614202576141d3816140a2565b6141dc846140b7565b810160208510156141eb578190505b6141ff6141f7856140b7565b83018261419e565b50505b505050565b600082821c905092915050565b600061422560001984600802614207565b1980831691505092915050565b600061423e8383614214565b9150826002028217905092915050565b614257826136db565b67ffffffffffffffff8111156142705761426f6133c9565b5b61427a8254613c19565b6142858282856141c1565b600060209050601f8311600181146142b857600084156142a6578287015190505b6142b08582614232565b865550614318565b601f1984166142c6866140a2565b60005b828110156142ee578489015182556001820191506020850194506020810190506142c9565b8683101561430b5784890151614307601f891682614214565b8355505b6001600288020188555050505b505050505050565b600081905092915050565b50565b600061433b600083614320565b91506143468261432b565b600082019050919050565b600061435c8261432e565b9150819050919050565b7f556e61626c6520746f207472616e736665722066656500000000000000000000600082015250565b600061439c6016836139bc565b91506143a782614366565b602082019050919050565b600060208201905081810360008301526143cb8161438f565b9050919050565b7f4f776e61626c653a206e6577206f776e657220697320746865207a65726f206160008201527f6464726573730000000000000000000000000000000000000000000000000000602082015250565b600061442e6026836139bc565b9150614439826143d2565b604082019050919050565b6000602082019050818103600083015261445d81614421565b9050919050565b7f4f776e61626c653a2063616c6c6572206973206e6f7420746865206f776e6572600082015250565b600061449a6020836139bc565b91506144a582614464565b602082019050919050565b600060208201905081810360008301526144c98161448d565b9050919050565b7f5468657265206973206164647265737320636f6e6e656374656420746f20746860008201527f617420544720494420616c726561647900000000000000000000000000000000602082015250565b600061452c6030836139bc565b9150614537826144d0565b604082019050919050565b6000602082019050818103600083015261455b8161451f565b9050919050565b6000604082019050818103600083015261457c81856139cd565b9050818103602083015261459081846139cd565b90509392505050565b6145a2816135f1565b81146145ad57600080fd5b50565b6000815190506145bf81614599565b92915050565b6000602082840312156145db576145da6133a4565b5b60006145e9848285016145b0565b91505092915050565b7f64696374696f6e617279206572726f7200000000000000000000000000000000600082015250565b60006146286010836139bc565b9150614633826145f2565b602082019050919050565b600060208201905081810360008301526146578161461b565b9050919050565b7f416363657373436f6e74726f6c3a206163636f756e7420000000000000000000600082015250565b6000614694601783613c4a565b915061469f8261465e565b601782019050919050565b7f206973206d697373696e6720726f6c6520000000000000000000000000000000600082015250565b60006146e0601183613c4a565b91506146eb826146aa565b601182019050919050565b600061470182614687565b915061470d8285613c55565b9150614718826146d3565b91506147248284613c55565b91508190509392505050565b7f4e487b7100000000000000000000000000000000000000000000000000000000600052601160045260246000fd5b600061476a82613988565b915061477583613988565b925082820261478381613988565b9150828204841483151761479a57614799614730565b5b5092915050565b60006147ac82613988565b91506147b783613988565b92508282019050808211156147cf576147ce614730565b5b92915050565b7f4e487b7100000000000000000000000000000000000000000000000000000000600052603260045260246000fd5b600061480f82613988565b91506000820361482257614821614730565b5b600182039050919050565b7f537472696e67733a20686578206c656e67746820696e73756666696369656e74600082015250565b60006148636020836139bc565b915061486e8261482d565b602082019050919050565b6000602082019050818103600083015261489281614856565b905091905056fea2646970667358221220de9c6440d037f5374dfdd8211ee97f777b2fbede858258fab4102ca5ed25699464736f6c634300081100337a6a58436a3969757365336748476141494967796169434f734a705157534345424261632f7a50477267513d",
  "linkReferences": {},
  "deployedLinkReferences": {}
}